{
	"opo.sol": {
		"TodoList": {
			"abi": [
				{
					"inputs": [
						{
							"internalType": "string",
							"name": "_action",
							"type": "string"
						},
						{
							"internalType": "uint256",
							"name": "_day",
							"type": "uint256"
						},
						{
							"internalType": "uint256",
							"name": "_month",
							"type": "uint256"
						},
						{
							"internalType": "uint256",
							"name": "_year",
							"type": "uint256"
						}
					],
					"name": "addtolist",
					"outputs": [],
					"stateMutability": "nonpayable",
					"type": "function"
				},
				{
					"inputs": [
						{
							"internalType": "uint256",
							"name": "_index",
							"type": "uint256"
						}
					],
					"name": "getlist",
					"outputs": [
						{
							"internalType": "string",
							"name": "",
							"type": "string"
						},
						{
							"internalType": "uint256",
							"name": "",
							"type": "uint256"
						}
					],
					"stateMutability": "view",
					"type": "function"
				},
				{
					"inputs": [
						{
							"internalType": "uint256",
							"name": "",
							"type": "uint256"
						}
					],
					"name": "todoarr",
					"outputs": [
						{
							"internalType": "string",
							"name": "action",
							"type": "string"
						},
						{
							"internalType": "uint256",
							"name": "day",
							"type": "uint256"
						},
						{
							"internalType": "uint256",
							"name": "month",
							"type": "uint256"
						},
						{
							"internalType": "uint256",
							"name": "year",
							"type": "uint256"
						}
					],
					"stateMutability": "view",
					"type": "function"
				}
			],
			"devdoc": {
				"kind": "dev",
				"methods": {},
				"version": 1
			},
			"evm": {
				"assembly": "    /* \"opo.sol\":56:486  contract TodoList{\r... */\n  mstore(0x40, 0x80)\n  callvalue\n  dup1\n  iszero\n  tag_1\n  jumpi\n  0x00\n  dup1\n  revert\ntag_1:\n  pop\n  dataSize(sub_0)\n  dup1\n  dataOffset(sub_0)\n  0x00\n  codecopy\n  0x00\n  return\nstop\n\nsub_0: assembly {\n        /* \"opo.sol\":56:486  contract TodoList{\r... */\n      mstore(0x40, 0x80)\n      callvalue\n      dup1\n      iszero\n      tag_1\n      jumpi\n      0x00\n      dup1\n      revert\n    tag_1:\n      pop\n      jumpi(tag_2, lt(calldatasize, 0x04))\n      shr(0xe0, calldataload(0x00))\n      dup1\n      0x6c9958e0\n      eq\n      tag_3\n      jumpi\n      dup1\n      0xd3729ff6\n      eq\n      tag_4\n      jumpi\n      dup1\n      0xe1b7edff\n      eq\n      tag_5\n      jumpi\n    tag_2:\n      0x00\n      dup1\n      revert\n        /* \"opo.sol\":406:481  function getlist(uint _index) public view returns(string memory,uint){\r... */\n    tag_3:\n      tag_6\n      0x04\n      dup1\n      calldatasize\n      sub\n      dup2\n      add\n      swap1\n      tag_7\n      swap2\n      swap1\n      tag_8\n      jump\t// in\n    tag_7:\n      tag_9\n      jump\t// in\n    tag_6:\n      mload(0x40)\n      tag_10\n      swap3\n      swap2\n      swap1\n      tag_11\n      jump\t// in\n    tag_10:\n      mload(0x40)\n      dup1\n      swap2\n      sub\n      swap1\n      return\n        /* \"opo.sol\":188:209  Todo[] public todoarr */\n    tag_4:\n      tag_12\n      0x04\n      dup1\n      calldatasize\n      sub\n      dup2\n      add\n      swap1\n      tag_13\n      swap2\n      swap1\n      tag_8\n      jump\t// in\n    tag_13:\n      tag_14\n      jump\t// in\n    tag_12:\n      mload(0x40)\n      tag_15\n      swap5\n      swap4\n      swap3\n      swap2\n      swap1\n      tag_16\n      jump\t// in\n    tag_15:\n      mload(0x40)\n      dup1\n      swap2\n      sub\n      swap1\n      return\n        /* \"opo.sol\":213:404  function addtolist(string memory _action,uint _day,uint _month,uint _year) external {\r... */\n    tag_5:\n      tag_17\n      0x04\n      dup1\n      calldatasize\n      sub\n      dup2\n      add\n      swap1\n      tag_18\n      swap2\n      swap1\n      tag_19\n      jump\t// in\n    tag_18:\n      tag_20\n      jump\t// in\n    tag_17:\n      stop\n        /* \"opo.sol\":406:481  function getlist(uint _index) public view returns(string memory,uint){\r... */\n    tag_9:\n        /* \"opo.sol\":456:469  string memory */\n      0x60\n        /* \"opo.sol\":470:474  uint */\n      0x00\n        /* \"opo.sol\":406:481  function getlist(uint _index) public view returns(string memory,uint){\r... */\n      swap2\n      pop\n      swap2\n      jump\t// out\n        /* \"opo.sol\":188:209  Todo[] public todoarr */\n    tag_14:\n      0x00\n      dup2\n      dup2\n      sload\n      dup2\n      lt\n      tag_22\n      jumpi\n      0x00\n      dup1\n      revert\n    tag_22:\n      swap1\n      0x00\n      mstore\n      keccak256(0x00, 0x20)\n      swap1\n      0x04\n      mul\n      add\n      0x00\n      swap2\n      pop\n      swap1\n      pop\n      dup1\n      0x00\n      add\n      dup1\n      sload\n      tag_24\n      swap1\n      tag_25\n      jump\t// in\n    tag_24:\n      dup1\n      0x1f\n      add\n      0x20\n      dup1\n      swap2\n      div\n      mul\n      0x20\n      add\n      mload(0x40)\n      swap1\n      dup2\n      add\n      0x40\n      mstore\n      dup1\n      swap3\n      swap2\n      swap1\n      dup2\n      dup2\n      mstore\n      0x20\n      add\n      dup3\n      dup1\n      sload\n      tag_26\n      swap1\n      tag_25\n      jump\t// in\n    tag_26:\n      dup1\n      iszero\n      tag_27\n      jumpi\n      dup1\n      0x1f\n      lt\n      tag_28\n      jumpi\n      0x0100\n      dup1\n      dup4\n      sload\n      div\n      mul\n      dup4\n      mstore\n      swap2\n      0x20\n      add\n      swap2\n      jump(tag_27)\n    tag_28:\n      dup3\n      add\n      swap2\n      swap1\n      0x00\n      mstore\n      keccak256(0x00, 0x20)\n      swap1\n    tag_29:\n      dup2\n      sload\n      dup2\n      mstore\n      swap1\n      0x01\n      add\n      swap1\n      0x20\n      add\n      dup1\n      dup4\n      gt\n      tag_29\n      jumpi\n      dup3\n      swap1\n      sub\n      0x1f\n      and\n      dup3\n      add\n      swap2\n    tag_27:\n      pop\n      pop\n      pop\n      pop\n      pop\n      swap1\n      dup1\n      0x01\n      add\n      sload\n      swap1\n      dup1\n      0x02\n      add\n      sload\n      swap1\n      dup1\n      0x03\n      add\n      sload\n      swap1\n      pop\n      dup5\n      jump\t// out\n        /* \"opo.sol\":213:404  function addtolist(string memory _action,uint _day,uint _month,uint _year) external {\r... */\n    tag_20:\n        /* \"opo.sol\":300:307  todoarr */\n      0x00\n        /* \"opo.sol\":313:399  Todo({\r... */\n      mload(0x40)\n      dup1\n      0x80\n      add\n      0x40\n      mstore\n      dup1\n        /* \"opo.sol\":333:340  _action */\n      dup7\n        /* \"opo.sol\":313:399  Todo({\r... */\n      dup2\n      mstore\n      0x20\n      add\n        /* \"opo.sol\":352:356  _day */\n      dup6\n        /* \"opo.sol\":313:399  Todo({\r... */\n      dup2\n      mstore\n      0x20\n      add\n        /* \"opo.sol\":370:376  _month */\n      dup5\n        /* \"opo.sol\":313:399  Todo({\r... */\n      dup2\n      mstore\n      0x20\n      add\n        /* \"opo.sol\":390:395  _year */\n      dup4\n        /* \"opo.sol\":313:399  Todo({\r... */\n      dup2\n      mstore\n      pop\n        /* \"opo.sol\":300:400  todoarr.push(Todo({\r... */\n      swap1\n      dup1\n      0x01\n      dup2\n      sload\n      add\n      dup1\n      dup3\n      sstore\n      dup1\n      swap2\n      pop\n      pop\n      0x01\n      swap1\n      sub\n      swap1\n      0x00\n      mstore\n      keccak256(0x00, 0x20)\n      swap1\n      0x04\n      mul\n      add\n      0x00\n      swap1\n      swap2\n      swap1\n      swap2\n      swap1\n      swap2\n      pop\n      0x00\n      dup3\n      add\n      mload\n      dup2\n      0x00\n      add\n      swap1\n      dup1\n      mload\n      swap1\n      0x20\n      add\n      swap1\n      tag_32\n      swap3\n      swap2\n      swap1\n      tag_33\n      jump\t// in\n    tag_32:\n      pop\n      0x20\n      dup3\n      add\n      mload\n      dup2\n      0x01\n      add\n      sstore\n      0x40\n      dup3\n      add\n      mload\n      dup2\n      0x02\n      add\n      sstore\n      0x60\n      dup3\n      add\n      mload\n      dup2\n      0x03\n      add\n      sstore\n      pop\n      pop\n        /* \"opo.sol\":213:404  function addtolist(string memory _action,uint _day,uint _month,uint _year) external {\r... */\n      pop\n      pop\n      pop\n      pop\n      jump\t// out\n    tag_33:\n      dup3\n      dup1\n      sload\n      tag_34\n      swap1\n      tag_25\n      jump\t// in\n    tag_34:\n      swap1\n      0x00\n      mstore\n      keccak256(0x00, 0x20)\n      swap1\n      0x1f\n      add\n      0x20\n      swap1\n      div\n      dup2\n      add\n      swap3\n      dup3\n      tag_36\n      jumpi\n      0x00\n      dup6\n      sstore\n      jump(tag_35)\n    tag_36:\n      dup3\n      0x1f\n      lt\n      tag_37\n      jumpi\n      dup1\n      mload\n      not(0xff)\n      and\n      dup4\n      dup1\n      add\n      or\n      dup6\n      sstore\n      jump(tag_35)\n    tag_37:\n      dup3\n      dup1\n      add\n      0x01\n      add\n      dup6\n      sstore\n      dup3\n      iszero\n      tag_35\n      jumpi\n      swap2\n      dup3\n      add\n    tag_38:\n      dup3\n      dup2\n      gt\n      iszero\n      tag_39\n      jumpi\n      dup3\n      mload\n      dup3\n      sstore\n      swap2\n      0x20\n      add\n      swap2\n      swap1\n      0x01\n      add\n      swap1\n      jump(tag_38)\n    tag_39:\n    tag_35:\n      pop\n      swap1\n      pop\n      tag_40\n      swap2\n      swap1\n      tag_41\n      jump\t// in\n    tag_40:\n      pop\n      swap1\n      jump\t// out\n    tag_41:\n    tag_42:\n      dup1\n      dup3\n      gt\n      iszero\n      tag_43\n      jumpi\n      0x00\n      dup2\n      0x00\n      swap1\n      sstore\n      pop\n      0x01\n      add\n      jump(tag_42)\n    tag_43:\n      pop\n      swap1\n      jump\t// out\n        /* \"#utility.yul\":7:419   */\n    tag_45:\n        /* \"#utility.yul\":85:90   */\n      0x00\n        /* \"#utility.yul\":110:176   */\n      tag_47\n        /* \"#utility.yul\":126:175   */\n      tag_48\n        /* \"#utility.yul\":168:174   */\n      dup5\n        /* \"#utility.yul\":126:175   */\n      tag_49\n      jump\t// in\n    tag_48:\n        /* \"#utility.yul\":110:176   */\n      tag_50\n      jump\t// in\n    tag_47:\n        /* \"#utility.yul\":101:176   */\n      swap1\n      pop\n        /* \"#utility.yul\":199:205   */\n      dup3\n        /* \"#utility.yul\":192:197   */\n      dup2\n        /* \"#utility.yul\":185:206   */\n      mstore\n        /* \"#utility.yul\":237:241   */\n      0x20\n        /* \"#utility.yul\":230:235   */\n      dup2\n        /* \"#utility.yul\":226:242   */\n      add\n        /* \"#utility.yul\":275:278   */\n      dup5\n        /* \"#utility.yul\":266:272   */\n      dup5\n        /* \"#utility.yul\":261:264   */\n      dup5\n        /* \"#utility.yul\":257:273   */\n      add\n        /* \"#utility.yul\":254:279   */\n      gt\n        /* \"#utility.yul\":251:363   */\n      iszero\n      tag_51\n      jumpi\n        /* \"#utility.yul\":282:361   */\n      tag_52\n      tag_53\n      jump\t// in\n    tag_52:\n        /* \"#utility.yul\":251:363   */\n    tag_51:\n        /* \"#utility.yul\":372:413   */\n      tag_54\n        /* \"#utility.yul\":406:412   */\n      dup5\n        /* \"#utility.yul\":401:404   */\n      dup3\n        /* \"#utility.yul\":396:399   */\n      dup6\n        /* \"#utility.yul\":372:413   */\n      tag_55\n      jump\t// in\n    tag_54:\n        /* \"#utility.yul\":91:419   */\n      pop\n        /* \"#utility.yul\":7:419   */\n      swap4\n      swap3\n      pop\n      pop\n      pop\n      jump\t// out\n        /* \"#utility.yul\":439:779   */\n    tag_56:\n        /* \"#utility.yul\":495:500   */\n      0x00\n        /* \"#utility.yul\":544:547   */\n      dup3\n        /* \"#utility.yul\":537:541   */\n      0x1f\n        /* \"#utility.yul\":529:535   */\n      dup4\n        /* \"#utility.yul\":525:542   */\n      add\n        /* \"#utility.yul\":521:548   */\n      slt\n        /* \"#utility.yul\":511:633   */\n      tag_58\n      jumpi\n        /* \"#utility.yul\":552:631   */\n      tag_59\n      tag_60\n      jump\t// in\n    tag_59:\n        /* \"#utility.yul\":511:633   */\n    tag_58:\n        /* \"#utility.yul\":669:675   */\n      dup2\n        /* \"#utility.yul\":656:676   */\n      calldataload\n        /* \"#utility.yul\":694:773   */\n      tag_61\n        /* \"#utility.yul\":769:772   */\n      dup5\n        /* \"#utility.yul\":761:767   */\n      dup3\n        /* \"#utility.yul\":754:758   */\n      0x20\n        /* \"#utility.yul\":746:752   */\n      dup7\n        /* \"#utility.yul\":742:759   */\n      add\n        /* \"#utility.yul\":694:773   */\n      tag_45\n      jump\t// in\n    tag_61:\n        /* \"#utility.yul\":685:773   */\n      swap2\n      pop\n        /* \"#utility.yul\":501:779   */\n      pop\n        /* \"#utility.yul\":439:779   */\n      swap3\n      swap2\n      pop\n      pop\n      jump\t// out\n        /* \"#utility.yul\":785:924   */\n    tag_62:\n        /* \"#utility.yul\":831:836   */\n      0x00\n        /* \"#utility.yul\":869:875   */\n      dup2\n        /* \"#utility.yul\":856:876   */\n      calldataload\n        /* \"#utility.yul\":847:876   */\n      swap1\n      pop\n        /* \"#utility.yul\":885:918   */\n      tag_64\n        /* \"#utility.yul\":912:917   */\n      dup2\n        /* \"#utility.yul\":885:918   */\n      tag_65\n      jump\t// in\n    tag_64:\n        /* \"#utility.yul\":785:924   */\n      swap3\n      swap2\n      pop\n      pop\n      jump\t// out\n        /* \"#utility.yul\":930:1875   */\n    tag_19:\n        /* \"#utility.yul\":1026:1032   */\n      0x00\n        /* \"#utility.yul\":1034:1040   */\n      dup1\n        /* \"#utility.yul\":1042:1048   */\n      0x00\n        /* \"#utility.yul\":1050:1056   */\n      dup1\n        /* \"#utility.yul\":1099:1102   */\n      0x80\n        /* \"#utility.yul\":1087:1096   */\n      dup6\n        /* \"#utility.yul\":1078:1085   */\n      dup8\n        /* \"#utility.yul\":1074:1097   */\n      sub\n        /* \"#utility.yul\":1070:1103   */\n      slt\n        /* \"#utility.yul\":1067:1187   */\n      iszero\n      tag_67\n      jumpi\n        /* \"#utility.yul\":1106:1185   */\n      tag_68\n      tag_69\n      jump\t// in\n    tag_68:\n        /* \"#utility.yul\":1067:1187   */\n    tag_67:\n        /* \"#utility.yul\":1254:1255   */\n      0x00\n        /* \"#utility.yul\":1243:1252   */\n      dup6\n        /* \"#utility.yul\":1239:1256   */\n      add\n        /* \"#utility.yul\":1226:1257   */\n      calldataload\n        /* \"#utility.yul\":1284:1302   */\n      0xffffffffffffffff\n        /* \"#utility.yul\":1276:1282   */\n      dup2\n        /* \"#utility.yul\":1273:1303   */\n      gt\n        /* \"#utility.yul\":1270:1387   */\n      iszero\n      tag_70\n      jumpi\n        /* \"#utility.yul\":1306:1385   */\n      tag_71\n      tag_72\n      jump\t// in\n    tag_71:\n        /* \"#utility.yul\":1270:1387   */\n    tag_70:\n        /* \"#utility.yul\":1411:1474   */\n      tag_73\n        /* \"#utility.yul\":1466:1473   */\n      dup8\n        /* \"#utility.yul\":1457:1463   */\n      dup3\n        /* \"#utility.yul\":1446:1455   */\n      dup9\n        /* \"#utility.yul\":1442:1464   */\n      add\n        /* \"#utility.yul\":1411:1474   */\n      tag_56\n      jump\t// in\n    tag_73:\n        /* \"#utility.yul\":1401:1474   */\n      swap5\n      pop\n        /* \"#utility.yul\":1197:1484   */\n      pop\n        /* \"#utility.yul\":1523:1525   */\n      0x20\n        /* \"#utility.yul\":1549:1602   */\n      tag_74\n        /* \"#utility.yul\":1594:1601   */\n      dup8\n        /* \"#utility.yul\":1585:1591   */\n      dup3\n        /* \"#utility.yul\":1574:1583   */\n      dup9\n        /* \"#utility.yul\":1570:1592   */\n      add\n        /* \"#utility.yul\":1549:1602   */\n      tag_62\n      jump\t// in\n    tag_74:\n        /* \"#utility.yul\":1539:1602   */\n      swap4\n      pop\n        /* \"#utility.yul\":1494:1612   */\n      pop\n        /* \"#utility.yul\":1651:1653   */\n      0x40\n        /* \"#utility.yul\":1677:1730   */\n      tag_75\n        /* \"#utility.yul\":1722:1729   */\n      dup8\n        /* \"#utility.yul\":1713:1719   */\n      dup3\n        /* \"#utility.yul\":1702:1711   */\n      dup9\n        /* \"#utility.yul\":1698:1720   */\n      add\n        /* \"#utility.yul\":1677:1730   */\n      tag_62\n      jump\t// in\n    tag_75:\n        /* \"#utility.yul\":1667:1730   */\n      swap3\n      pop\n        /* \"#utility.yul\":1622:1740   */\n      pop\n        /* \"#utility.yul\":1779:1781   */\n      0x60\n        /* \"#utility.yul\":1805:1858   */\n      tag_76\n        /* \"#utility.yul\":1850:1857   */\n      dup8\n        /* \"#utility.yul\":1841:1847   */\n      dup3\n        /* \"#utility.yul\":1830:1839   */\n      dup9\n        /* \"#utility.yul\":1826:1848   */\n      add\n        /* \"#utility.yul\":1805:1858   */\n      tag_62\n      jump\t// in\n    tag_76:\n        /* \"#utility.yul\":1795:1858   */\n      swap2\n      pop\n        /* \"#utility.yul\":1750:1868   */\n      pop\n        /* \"#utility.yul\":930:1875   */\n      swap3\n      swap6\n      swap2\n      swap5\n      pop\n      swap3\n      pop\n      jump\t// out\n        /* \"#utility.yul\":1881:2210   */\n    tag_8:\n        /* \"#utility.yul\":1940:1946   */\n      0x00\n        /* \"#utility.yul\":1989:1991   */\n      0x20\n        /* \"#utility.yul\":1977:1986   */\n      dup3\n        /* \"#utility.yul\":1968:1975   */\n      dup5\n        /* \"#utility.yul\":1964:1987   */\n      sub\n        /* \"#utility.yul\":1960:1992   */\n      slt\n        /* \"#utility.yul\":1957:2076   */\n      iszero\n      tag_78\n      jumpi\n        /* \"#utility.yul\":1995:2074   */\n      tag_79\n      tag_69\n      jump\t// in\n    tag_79:\n        /* \"#utility.yul\":1957:2076   */\n    tag_78:\n        /* \"#utility.yul\":2115:2116   */\n      0x00\n        /* \"#utility.yul\":2140:2193   */\n      tag_80\n        /* \"#utility.yul\":2185:2192   */\n      dup5\n        /* \"#utility.yul\":2176:2182   */\n      dup3\n        /* \"#utility.yul\":2165:2174   */\n      dup6\n        /* \"#utility.yul\":2161:2183   */\n      add\n        /* \"#utility.yul\":2140:2193   */\n      tag_62\n      jump\t// in\n    tag_80:\n        /* \"#utility.yul\":2130:2193   */\n      swap2\n      pop\n        /* \"#utility.yul\":2086:2203   */\n      pop\n        /* \"#utility.yul\":1881:2210   */\n      swap3\n      swap2\n      pop\n      pop\n      jump\t// out\n        /* \"#utility.yul\":2216:2580   */\n    tag_81:\n        /* \"#utility.yul\":2304:2307   */\n      0x00\n        /* \"#utility.yul\":2332:2371   */\n      tag_83\n        /* \"#utility.yul\":2365:2370   */\n      dup3\n        /* \"#utility.yul\":2332:2371   */\n      tag_84\n      jump\t// in\n    tag_83:\n        /* \"#utility.yul\":2387:2458   */\n      tag_85\n        /* \"#utility.yul\":2451:2457   */\n      dup2\n        /* \"#utility.yul\":2446:2449   */\n      dup6\n        /* \"#utility.yul\":2387:2458   */\n      tag_86\n      jump\t// in\n    tag_85:\n        /* \"#utility.yul\":2380:2458   */\n      swap4\n      pop\n        /* \"#utility.yul\":2467:2519   */\n      tag_87\n        /* \"#utility.yul\":2512:2518   */\n      dup2\n        /* \"#utility.yul\":2507:2510   */\n      dup6\n        /* \"#utility.yul\":2500:2504   */\n      0x20\n        /* \"#utility.yul\":2493:2498   */\n      dup7\n        /* \"#utility.yul\":2489:2505   */\n      add\n        /* \"#utility.yul\":2467:2519   */\n      tag_88\n      jump\t// in\n    tag_87:\n        /* \"#utility.yul\":2544:2573   */\n      tag_89\n        /* \"#utility.yul\":2566:2572   */\n      dup2\n        /* \"#utility.yul\":2544:2573   */\n      tag_90\n      jump\t// in\n    tag_89:\n        /* \"#utility.yul\":2539:2542   */\n      dup5\n        /* \"#utility.yul\":2535:2574   */\n      add\n        /* \"#utility.yul\":2528:2574   */\n      swap2\n      pop\n        /* \"#utility.yul\":2308:2580   */\n      pop\n        /* \"#utility.yul\":2216:2580   */\n      swap3\n      swap2\n      pop\n      pop\n      jump\t// out\n        /* \"#utility.yul\":2586:2704   */\n    tag_91:\n        /* \"#utility.yul\":2673:2697   */\n      tag_93\n        /* \"#utility.yul\":2691:2696   */\n      dup2\n        /* \"#utility.yul\":2673:2697   */\n      tag_94\n      jump\t// in\n    tag_93:\n        /* \"#utility.yul\":2668:2671   */\n      dup3\n        /* \"#utility.yul\":2661:2698   */\n      mstore\n        /* \"#utility.yul\":2586:2704   */\n      pop\n      pop\n      jump\t// out\n        /* \"#utility.yul\":2710:3133   */\n    tag_11:\n        /* \"#utility.yul\":2851:2855   */\n      0x00\n        /* \"#utility.yul\":2889:2891   */\n      0x40\n        /* \"#utility.yul\":2878:2887   */\n      dup3\n        /* \"#utility.yul\":2874:2892   */\n      add\n        /* \"#utility.yul\":2866:2892   */\n      swap1\n      pop\n        /* \"#utility.yul\":2938:2947   */\n      dup2\n        /* \"#utility.yul\":2932:2936   */\n      dup2\n        /* \"#utility.yul\":2928:2948   */\n      sub\n        /* \"#utility.yul\":2924:2925   */\n      0x00\n        /* \"#utility.yul\":2913:2922   */\n      dup4\n        /* \"#utility.yul\":2909:2926   */\n      add\n        /* \"#utility.yul\":2902:2949   */\n      mstore\n        /* \"#utility.yul\":2966:3044   */\n      tag_96\n        /* \"#utility.yul\":3039:3043   */\n      dup2\n        /* \"#utility.yul\":3030:3036   */\n      dup6\n        /* \"#utility.yul\":2966:3044   */\n      tag_81\n      jump\t// in\n    tag_96:\n        /* \"#utility.yul\":2958:3044   */\n      swap1\n      pop\n        /* \"#utility.yul\":3054:3126   */\n      tag_97\n        /* \"#utility.yul\":3122:3124   */\n      0x20\n        /* \"#utility.yul\":3111:3120   */\n      dup4\n        /* \"#utility.yul\":3107:3125   */\n      add\n        /* \"#utility.yul\":3098:3104   */\n      dup5\n        /* \"#utility.yul\":3054:3126   */\n      tag_91\n      jump\t// in\n    tag_97:\n        /* \"#utility.yul\":2710:3133   */\n      swap4\n      swap3\n      pop\n      pop\n      pop\n      jump\t// out\n        /* \"#utility.yul\":3139:3783   */\n    tag_16:\n        /* \"#utility.yul\":3336:3340   */\n      0x00\n        /* \"#utility.yul\":3374:3377   */\n      0x80\n        /* \"#utility.yul\":3363:3372   */\n      dup3\n        /* \"#utility.yul\":3359:3378   */\n      add\n        /* \"#utility.yul\":3351:3378   */\n      swap1\n      pop\n        /* \"#utility.yul\":3424:3433   */\n      dup2\n        /* \"#utility.yul\":3418:3422   */\n      dup2\n        /* \"#utility.yul\":3414:3434   */\n      sub\n        /* \"#utility.yul\":3410:3411   */\n      0x00\n        /* \"#utility.yul\":3399:3408   */\n      dup4\n        /* \"#utility.yul\":3395:3412   */\n      add\n        /* \"#utility.yul\":3388:3435   */\n      mstore\n        /* \"#utility.yul\":3452:3530   */\n      tag_99\n        /* \"#utility.yul\":3525:3529   */\n      dup2\n        /* \"#utility.yul\":3516:3522   */\n      dup8\n        /* \"#utility.yul\":3452:3530   */\n      tag_81\n      jump\t// in\n    tag_99:\n        /* \"#utility.yul\":3444:3530   */\n      swap1\n      pop\n        /* \"#utility.yul\":3540:3612   */\n      tag_100\n        /* \"#utility.yul\":3608:3610   */\n      0x20\n        /* \"#utility.yul\":3597:3606   */\n      dup4\n        /* \"#utility.yul\":3593:3611   */\n      add\n        /* \"#utility.yul\":3584:3590   */\n      dup7\n        /* \"#utility.yul\":3540:3612   */\n      tag_91\n      jump\t// in\n    tag_100:\n        /* \"#utility.yul\":3622:3694   */\n      tag_101\n        /* \"#utility.yul\":3690:3692   */\n      0x40\n        /* \"#utility.yul\":3679:3688   */\n      dup4\n        /* \"#utility.yul\":3675:3693   */\n      add\n        /* \"#utility.yul\":3666:3672   */\n      dup6\n        /* \"#utility.yul\":3622:3694   */\n      tag_91\n      jump\t// in\n    tag_101:\n        /* \"#utility.yul\":3704:3776   */\n      tag_102\n        /* \"#utility.yul\":3772:3774   */\n      0x60\n        /* \"#utility.yul\":3761:3770   */\n      dup4\n        /* \"#utility.yul\":3757:3775   */\n      add\n        /* \"#utility.yul\":3748:3754   */\n      dup5\n        /* \"#utility.yul\":3704:3776   */\n      tag_91\n      jump\t// in\n    tag_102:\n        /* \"#utility.yul\":3139:3783   */\n      swap6\n      swap5\n      pop\n      pop\n      pop\n      pop\n      pop\n      jump\t// out\n        /* \"#utility.yul\":3789:3918   */\n    tag_50:\n        /* \"#utility.yul\":3823:3829   */\n      0x00\n        /* \"#utility.yul\":3850:3870   */\n      tag_104\n      tag_105\n      jump\t// in\n    tag_104:\n        /* \"#utility.yul\":3840:3870   */\n      swap1\n      pop\n        /* \"#utility.yul\":3879:3912   */\n      tag_106\n        /* \"#utility.yul\":3907:3911   */\n      dup3\n        /* \"#utility.yul\":3899:3905   */\n      dup3\n        /* \"#utility.yul\":3879:3912   */\n      tag_107\n      jump\t// in\n    tag_106:\n        /* \"#utility.yul\":3789:3918   */\n      swap2\n      swap1\n      pop\n      jump\t// out\n        /* \"#utility.yul\":3924:3999   */\n    tag_105:\n        /* \"#utility.yul\":3957:3963   */\n      0x00\n        /* \"#utility.yul\":3990:3992   */\n      0x40\n        /* \"#utility.yul\":3984:3993   */\n      mload\n        /* \"#utility.yul\":3974:3993   */\n      swap1\n      pop\n        /* \"#utility.yul\":3924:3999   */\n      swap1\n      jump\t// out\n        /* \"#utility.yul\":4005:4313   */\n    tag_49:\n        /* \"#utility.yul\":4067:4071   */\n      0x00\n        /* \"#utility.yul\":4157:4175   */\n      0xffffffffffffffff\n        /* \"#utility.yul\":4149:4155   */\n      dup3\n        /* \"#utility.yul\":4146:4176   */\n      gt\n        /* \"#utility.yul\":4143:4199   */\n      iszero\n      tag_110\n      jumpi\n        /* \"#utility.yul\":4179:4197   */\n      tag_111\n      tag_112\n      jump\t// in\n    tag_111:\n        /* \"#utility.yul\":4143:4199   */\n    tag_110:\n        /* \"#utility.yul\":4217:4246   */\n      tag_113\n        /* \"#utility.yul\":4239:4245   */\n      dup3\n        /* \"#utility.yul\":4217:4246   */\n      tag_90\n      jump\t// in\n    tag_113:\n        /* \"#utility.yul\":4209:4246   */\n      swap1\n      pop\n        /* \"#utility.yul\":4301:4305   */\n      0x20\n        /* \"#utility.yul\":4295:4299   */\n      dup2\n        /* \"#utility.yul\":4291:4306   */\n      add\n        /* \"#utility.yul\":4283:4306   */\n      swap1\n      pop\n        /* \"#utility.yul\":4005:4313   */\n      swap2\n      swap1\n      pop\n      jump\t// out\n        /* \"#utility.yul\":4319:4418   */\n    tag_84:\n        /* \"#utility.yul\":4371:4377   */\n      0x00\n        /* \"#utility.yul\":4405:4410   */\n      dup2\n        /* \"#utility.yul\":4399:4411   */\n      mload\n        /* \"#utility.yul\":4389:4411   */\n      swap1\n      pop\n        /* \"#utility.yul\":4319:4418   */\n      swap2\n      swap1\n      pop\n      jump\t// out\n        /* \"#utility.yul\":4424:4593   */\n    tag_86:\n        /* \"#utility.yul\":4508:4519   */\n      0x00\n        /* \"#utility.yul\":4542:4548   */\n      dup3\n        /* \"#utility.yul\":4537:4540   */\n      dup3\n        /* \"#utility.yul\":4530:4549   */\n      mstore\n        /* \"#utility.yul\":4582:4586   */\n      0x20\n        /* \"#utility.yul\":4577:4580   */\n      dup3\n        /* \"#utility.yul\":4573:4587   */\n      add\n        /* \"#utility.yul\":4558:4587   */\n      swap1\n      pop\n        /* \"#utility.yul\":4424:4593   */\n      swap3\n      swap2\n      pop\n      pop\n      jump\t// out\n        /* \"#utility.yul\":4599:4676   */\n    tag_94:\n        /* \"#utility.yul\":4636:4643   */\n      0x00\n        /* \"#utility.yul\":4665:4670   */\n      dup2\n        /* \"#utility.yul\":4654:4670   */\n      swap1\n      pop\n        /* \"#utility.yul\":4599:4676   */\n      swap2\n      swap1\n      pop\n      jump\t// out\n        /* \"#utility.yul\":4682:4836   */\n    tag_55:\n        /* \"#utility.yul\":4766:4772   */\n      dup3\n        /* \"#utility.yul\":4761:4764   */\n      dup2\n        /* \"#utility.yul\":4756:4759   */\n      dup4\n        /* \"#utility.yul\":4743:4773   */\n      calldatacopy\n        /* \"#utility.yul\":4828:4829   */\n      0x00\n        /* \"#utility.yul\":4819:4825   */\n      dup4\n        /* \"#utility.yul\":4814:4817   */\n      dup4\n        /* \"#utility.yul\":4810:4826   */\n      add\n        /* \"#utility.yul\":4803:4830   */\n      mstore\n        /* \"#utility.yul\":4682:4836   */\n      pop\n      pop\n      pop\n      jump\t// out\n        /* \"#utility.yul\":4842:5149   */\n    tag_88:\n        /* \"#utility.yul\":4910:4911   */\n      0x00\n        /* \"#utility.yul\":4920:5033   */\n    tag_119:\n        /* \"#utility.yul\":4934:4940   */\n      dup4\n        /* \"#utility.yul\":4931:4932   */\n      dup2\n        /* \"#utility.yul\":4928:4941   */\n      lt\n        /* \"#utility.yul\":4920:5033   */\n      iszero\n      tag_121\n      jumpi\n        /* \"#utility.yul\":5019:5020   */\n      dup1\n        /* \"#utility.yul\":5014:5017   */\n      dup3\n        /* \"#utility.yul\":5010:5021   */\n      add\n        /* \"#utility.yul\":5004:5022   */\n      mload\n        /* \"#utility.yul\":5000:5001   */\n      dup2\n        /* \"#utility.yul\":4995:4998   */\n      dup5\n        /* \"#utility.yul\":4991:5002   */\n      add\n        /* \"#utility.yul\":4984:5023   */\n      mstore\n        /* \"#utility.yul\":4956:4958   */\n      0x20\n        /* \"#utility.yul\":4953:4954   */\n      dup2\n        /* \"#utility.yul\":4949:4959   */\n      add\n        /* \"#utility.yul\":4944:4959   */\n      swap1\n      pop\n        /* \"#utility.yul\":4920:5033   */\n      jump(tag_119)\n    tag_121:\n        /* \"#utility.yul\":5051:5057   */\n      dup4\n        /* \"#utility.yul\":5048:5049   */\n      dup2\n        /* \"#utility.yul\":5045:5058   */\n      gt\n        /* \"#utility.yul\":5042:5143   */\n      iszero\n      tag_122\n      jumpi\n        /* \"#utility.yul\":5131:5132   */\n      0x00\n        /* \"#utility.yul\":5122:5128   */\n      dup5\n        /* \"#utility.yul\":5117:5120   */\n      dup5\n        /* \"#utility.yul\":5113:5129   */\n      add\n        /* \"#utility.yul\":5106:5133   */\n      mstore\n        /* \"#utility.yul\":5042:5143   */\n    tag_122:\n        /* \"#utility.yul\":4891:5149   */\n      pop\n        /* \"#utility.yul\":4842:5149   */\n      pop\n      pop\n      pop\n      jump\t// out\n        /* \"#utility.yul\":5155:5475   */\n    tag_25:\n        /* \"#utility.yul\":5199:5205   */\n      0x00\n        /* \"#utility.yul\":5236:5237   */\n      0x02\n        /* \"#utility.yul\":5230:5234   */\n      dup3\n        /* \"#utility.yul\":5226:5238   */\n      div\n        /* \"#utility.yul\":5216:5238   */\n      swap1\n      pop\n        /* \"#utility.yul\":5283:5284   */\n      0x01\n        /* \"#utility.yul\":5277:5281   */\n      dup3\n        /* \"#utility.yul\":5273:5285   */\n      and\n        /* \"#utility.yul\":5304:5322   */\n      dup1\n        /* \"#utility.yul\":5294:5375   */\n      tag_124\n      jumpi\n        /* \"#utility.yul\":5360:5364   */\n      0x7f\n        /* \"#utility.yul\":5352:5358   */\n      dup3\n        /* \"#utility.yul\":5348:5365   */\n      and\n        /* \"#utility.yul\":5338:5365   */\n      swap2\n      pop\n        /* \"#utility.yul\":5294:5375   */\n    tag_124:\n        /* \"#utility.yul\":5422:5424   */\n      0x20\n        /* \"#utility.yul\":5414:5420   */\n      dup3\n        /* \"#utility.yul\":5411:5425   */\n      lt\n        /* \"#utility.yul\":5391:5409   */\n      dup2\n        /* \"#utility.yul\":5388:5426   */\n      eq\n        /* \"#utility.yul\":5385:5469   */\n      iszero\n      tag_125\n      jumpi\n        /* \"#utility.yul\":5441:5459   */\n      tag_126\n      tag_127\n      jump\t// in\n    tag_126:\n        /* \"#utility.yul\":5385:5469   */\n    tag_125:\n        /* \"#utility.yul\":5206:5475   */\n      pop\n        /* \"#utility.yul\":5155:5475   */\n      swap2\n      swap1\n      pop\n      jump\t// out\n        /* \"#utility.yul\":5481:5762   */\n    tag_107:\n        /* \"#utility.yul\":5564:5591   */\n      tag_129\n        /* \"#utility.yul\":5586:5590   */\n      dup3\n        /* \"#utility.yul\":5564:5591   */\n      tag_90\n      jump\t// in\n    tag_129:\n        /* \"#utility.yul\":5556:5562   */\n      dup2\n        /* \"#utility.yul\":5552:5592   */\n      add\n        /* \"#utility.yul\":5694:5700   */\n      dup2\n        /* \"#utility.yul\":5682:5692   */\n      dup2\n        /* \"#utility.yul\":5679:5701   */\n      lt\n        /* \"#utility.yul\":5658:5676   */\n      0xffffffffffffffff\n        /* \"#utility.yul\":5646:5656   */\n      dup3\n        /* \"#utility.yul\":5643:5677   */\n      gt\n        /* \"#utility.yul\":5640:5702   */\n      or\n        /* \"#utility.yul\":5637:5725   */\n      iszero\n      tag_130\n      jumpi\n        /* \"#utility.yul\":5705:5723   */\n      tag_131\n      tag_112\n      jump\t// in\n    tag_131:\n        /* \"#utility.yul\":5637:5725   */\n    tag_130:\n        /* \"#utility.yul\":5745:5755   */\n      dup1\n        /* \"#utility.yul\":5741:5743   */\n      0x40\n        /* \"#utility.yul\":5734:5756   */\n      mstore\n        /* \"#utility.yul\":5524:5762   */\n      pop\n        /* \"#utility.yul\":5481:5762   */\n      pop\n      pop\n      jump\t// out\n        /* \"#utility.yul\":5768:5948   */\n    tag_127:\n        /* \"#utility.yul\":5816:5893   */\n      0x4e487b7100000000000000000000000000000000000000000000000000000000\n        /* \"#utility.yul\":5813:5814   */\n      0x00\n        /* \"#utility.yul\":5806:5894   */\n      mstore\n        /* \"#utility.yul\":5913:5917   */\n      0x22\n        /* \"#utility.yul\":5910:5911   */\n      0x04\n        /* \"#utility.yul\":5903:5918   */\n      mstore\n        /* \"#utility.yul\":5937:5941   */\n      0x24\n        /* \"#utility.yul\":5934:5935   */\n      0x00\n        /* \"#utility.yul\":5927:5942   */\n      revert\n        /* \"#utility.yul\":5954:6134   */\n    tag_112:\n        /* \"#utility.yul\":6002:6079   */\n      0x4e487b7100000000000000000000000000000000000000000000000000000000\n        /* \"#utility.yul\":5999:6000   */\n      0x00\n        /* \"#utility.yul\":5992:6080   */\n      mstore\n        /* \"#utility.yul\":6099:6103   */\n      0x41\n        /* \"#utility.yul\":6096:6097   */\n      0x04\n        /* \"#utility.yul\":6089:6104   */\n      mstore\n        /* \"#utility.yul\":6123:6127   */\n      0x24\n        /* \"#utility.yul\":6120:6121   */\n      0x00\n        /* \"#utility.yul\":6113:6128   */\n      revert\n        /* \"#utility.yul\":6140:6257   */\n    tag_60:\n        /* \"#utility.yul\":6249:6250   */\n      0x00\n        /* \"#utility.yul\":6246:6247   */\n      dup1\n        /* \"#utility.yul\":6239:6251   */\n      revert\n        /* \"#utility.yul\":6263:6380   */\n    tag_53:\n        /* \"#utility.yul\":6372:6373   */\n      0x00\n        /* \"#utility.yul\":6369:6370   */\n      dup1\n        /* \"#utility.yul\":6362:6374   */\n      revert\n        /* \"#utility.yul\":6386:6503   */\n    tag_72:\n        /* \"#utility.yul\":6495:6496   */\n      0x00\n        /* \"#utility.yul\":6492:6493   */\n      dup1\n        /* \"#utility.yul\":6485:6497   */\n      revert\n        /* \"#utility.yul\":6509:6626   */\n    tag_69:\n        /* \"#utility.yul\":6618:6619   */\n      0x00\n        /* \"#utility.yul\":6615:6616   */\n      dup1\n        /* \"#utility.yul\":6608:6620   */\n      revert\n        /* \"#utility.yul\":6632:6734   */\n    tag_90:\n        /* \"#utility.yul\":6673:6679   */\n      0x00\n        /* \"#utility.yul\":6724:6726   */\n      0x1f\n        /* \"#utility.yul\":6720:6727   */\n      not\n        /* \"#utility.yul\":6715:6717   */\n      0x1f\n        /* \"#utility.yul\":6708:6713   */\n      dup4\n        /* \"#utility.yul\":6704:6718   */\n      add\n        /* \"#utility.yul\":6700:6728   */\n      and\n        /* \"#utility.yul\":6690:6728   */\n      swap1\n      pop\n        /* \"#utility.yul\":6632:6734   */\n      swap2\n      swap1\n      pop\n      jump\t// out\n        /* \"#utility.yul\":6740:6862   */\n    tag_65:\n        /* \"#utility.yul\":6813:6837   */\n      tag_140\n        /* \"#utility.yul\":6831:6836   */\n      dup2\n        /* \"#utility.yul\":6813:6837   */\n      tag_94\n      jump\t// in\n    tag_140:\n        /* \"#utility.yul\":6806:6811   */\n      dup2\n        /* \"#utility.yul\":6803:6838   */\n      eq\n        /* \"#utility.yul\":6793:6856   */\n      tag_141\n      jumpi\n        /* \"#utility.yul\":6852:6853   */\n      0x00\n        /* \"#utility.yul\":6849:6850   */\n      dup1\n        /* \"#utility.yul\":6842:6854   */\n      revert\n        /* \"#utility.yul\":6793:6856   */\n    tag_141:\n        /* \"#utility.yul\":6740:6862   */\n      pop\n      jump\t// out\n\n    auxdata: 0xa264697066735822122044fb4b2b0c79bc00ba490a03b4dde1fcb4932d7be08a42b3562388e129a49c5064736f6c63430008070033\n}\n",
				"bytecode": {
					"linkReferences": {},
					"object": "608060405234801561001057600080fd5b506106b3806100206000396000f3fe608060405234801561001057600080fd5b50600436106100415760003560e01c80636c9958e014610046578063d3729ff614610077578063e1b7edff146100aa575b600080fd5b610060600480360381019061005b91906103d1565b6100c6565b60405161006e929190610446565b60405180910390f35b610091600480360381019061008c91906103d1565b6100cf565b6040516100a19493929190610476565b60405180910390f35b6100c460048036038101906100bf919061034e565b610197565b005b60606000915091565b600081815481106100df57600080fd5b906000526020600020906004020160009150905080600001805461010290610580565b80601f016020809104026020016040519081016040528092919081815260200182805461012e90610580565b801561017b5780601f106101505761010080835404028352916020019161017b565b820191906000526020600020905b81548152906001019060200180831161015e57829003601f168201915b5050505050908060010154908060020154908060030154905084565b6000604051806080016040528086815260200185815260200184815260200183815250908060018154018082558091505060019003906000526020600020906004020160009091909190915060008201518160000190805190602001906101ff929190610226565b50602082015181600101556040820151816002015560608201518160030155505050505050565b82805461023290610580565b90600052602060002090601f016020900481019282610254576000855561029b565b82601f1061026d57805160ff191683800117855561029b565b8280016001018555821561029b579182015b8281111561029a57825182559160200191906001019061027f565b5b5090506102a891906102ac565b5090565b5b808211156102c55760008160009055506001016102ad565b5090565b60006102dc6102d7846104e7565b6104c2565b9050828152602081018484840111156102f8576102f7610646565b5b61030384828561053e565b509392505050565b600082601f8301126103205761031f610641565b5b81356103308482602086016102c9565b91505092915050565b60008135905061034881610666565b92915050565b6000806000806080858703121561036857610367610650565b5b600085013567ffffffffffffffff8111156103865761038561064b565b5b6103928782880161030b565b94505060206103a387828801610339565b93505060406103b487828801610339565b92505060606103c587828801610339565b91505092959194509250565b6000602082840312156103e7576103e6610650565b5b60006103f584828501610339565b91505092915050565b600061040982610518565b6104138185610523565b935061042381856020860161054d565b61042c81610655565b840191505092915050565b61044081610534565b82525050565b6000604082019050818103600083015261046081856103fe565b905061046f6020830184610437565b9392505050565b6000608082019050818103600083015261049081876103fe565b905061049f6020830186610437565b6104ac6040830185610437565b6104b96060830184610437565b95945050505050565b60006104cc6104dd565b90506104d882826105b2565b919050565b6000604051905090565b600067ffffffffffffffff82111561050257610501610612565b5b61050b82610655565b9050602081019050919050565b600081519050919050565b600082825260208201905092915050565b6000819050919050565b82818337600083830152505050565b60005b8381101561056b578082015181840152602081019050610550565b8381111561057a576000848401525b50505050565b6000600282049050600182168061059857607f821691505b602082108114156105ac576105ab6105e3565b5b50919050565b6105bb82610655565b810181811067ffffffffffffffff821117156105da576105d9610612565b5b80604052505050565b7f4e487b7100000000000000000000000000000000000000000000000000000000600052602260045260246000fd5b7f4e487b7100000000000000000000000000000000000000000000000000000000600052604160045260246000fd5b600080fd5b600080fd5b600080fd5b600080fd5b6000601f19601f8301169050919050565b61066f81610534565b811461067a57600080fd5b5056fea264697066735822122044fb4b2b0c79bc00ba490a03b4dde1fcb4932d7be08a42b3562388e129a49c5064736f6c63430008070033",
					"opcodes": "PUSH1 0x80 PUSH1 0x40 MSTORE CALLVALUE DUP1 ISZERO PUSH2 0x10 JUMPI PUSH1 0x0 DUP1 REVERT JUMPDEST POP PUSH2 0x6B3 DUP1 PUSH2 0x20 PUSH1 0x0 CODECOPY PUSH1 0x0 RETURN INVALID PUSH1 0x80 PUSH1 0x40 MSTORE CALLVALUE DUP1 ISZERO PUSH2 0x10 JUMPI PUSH1 0x0 DUP1 REVERT JUMPDEST POP PUSH1 0x4 CALLDATASIZE LT PUSH2 0x41 JUMPI PUSH1 0x0 CALLDATALOAD PUSH1 0xE0 SHR DUP1 PUSH4 0x6C9958E0 EQ PUSH2 0x46 JUMPI DUP1 PUSH4 0xD3729FF6 EQ PUSH2 0x77 JUMPI DUP1 PUSH4 0xE1B7EDFF EQ PUSH2 0xAA JUMPI JUMPDEST PUSH1 0x0 DUP1 REVERT JUMPDEST PUSH2 0x60 PUSH1 0x4 DUP1 CALLDATASIZE SUB DUP2 ADD SWAP1 PUSH2 0x5B SWAP2 SWAP1 PUSH2 0x3D1 JUMP JUMPDEST PUSH2 0xC6 JUMP JUMPDEST PUSH1 0x40 MLOAD PUSH2 0x6E SWAP3 SWAP2 SWAP1 PUSH2 0x446 JUMP JUMPDEST PUSH1 0x40 MLOAD DUP1 SWAP2 SUB SWAP1 RETURN JUMPDEST PUSH2 0x91 PUSH1 0x4 DUP1 CALLDATASIZE SUB DUP2 ADD SWAP1 PUSH2 0x8C SWAP2 SWAP1 PUSH2 0x3D1 JUMP JUMPDEST PUSH2 0xCF JUMP JUMPDEST PUSH1 0x40 MLOAD PUSH2 0xA1 SWAP5 SWAP4 SWAP3 SWAP2 SWAP1 PUSH2 0x476 JUMP JUMPDEST PUSH1 0x40 MLOAD DUP1 SWAP2 SUB SWAP1 RETURN JUMPDEST PUSH2 0xC4 PUSH1 0x4 DUP1 CALLDATASIZE SUB DUP2 ADD SWAP1 PUSH2 0xBF SWAP2 SWAP1 PUSH2 0x34E JUMP JUMPDEST PUSH2 0x197 JUMP JUMPDEST STOP JUMPDEST PUSH1 0x60 PUSH1 0x0 SWAP2 POP SWAP2 JUMP JUMPDEST PUSH1 0x0 DUP2 DUP2 SLOAD DUP2 LT PUSH2 0xDF JUMPI PUSH1 0x0 DUP1 REVERT JUMPDEST SWAP1 PUSH1 0x0 MSTORE PUSH1 0x20 PUSH1 0x0 KECCAK256 SWAP1 PUSH1 0x4 MUL ADD PUSH1 0x0 SWAP2 POP SWAP1 POP DUP1 PUSH1 0x0 ADD DUP1 SLOAD PUSH2 0x102 SWAP1 PUSH2 0x580 JUMP JUMPDEST DUP1 PUSH1 0x1F ADD PUSH1 0x20 DUP1 SWAP2 DIV MUL PUSH1 0x20 ADD PUSH1 0x40 MLOAD SWAP1 DUP2 ADD PUSH1 0x40 MSTORE DUP1 SWAP3 SWAP2 SWAP1 DUP2 DUP2 MSTORE PUSH1 0x20 ADD DUP3 DUP1 SLOAD PUSH2 0x12E SWAP1 PUSH2 0x580 JUMP JUMPDEST DUP1 ISZERO PUSH2 0x17B JUMPI DUP1 PUSH1 0x1F LT PUSH2 0x150 JUMPI PUSH2 0x100 DUP1 DUP4 SLOAD DIV MUL DUP4 MSTORE SWAP2 PUSH1 0x20 ADD SWAP2 PUSH2 0x17B JUMP JUMPDEST DUP3 ADD SWAP2 SWAP1 PUSH1 0x0 MSTORE PUSH1 0x20 PUSH1 0x0 KECCAK256 SWAP1 JUMPDEST DUP2 SLOAD DUP2 MSTORE SWAP1 PUSH1 0x1 ADD SWAP1 PUSH1 0x20 ADD DUP1 DUP4 GT PUSH2 0x15E JUMPI DUP3 SWAP1 SUB PUSH1 0x1F AND DUP3 ADD SWAP2 JUMPDEST POP POP POP POP POP SWAP1 DUP1 PUSH1 0x1 ADD SLOAD SWAP1 DUP1 PUSH1 0x2 ADD SLOAD SWAP1 DUP1 PUSH1 0x3 ADD SLOAD SWAP1 POP DUP5 JUMP JUMPDEST PUSH1 0x0 PUSH1 0x40 MLOAD DUP1 PUSH1 0x80 ADD PUSH1 0x40 MSTORE DUP1 DUP7 DUP2 MSTORE PUSH1 0x20 ADD DUP6 DUP2 MSTORE PUSH1 0x20 ADD DUP5 DUP2 MSTORE PUSH1 0x20 ADD DUP4 DUP2 MSTORE POP SWAP1 DUP1 PUSH1 0x1 DUP2 SLOAD ADD DUP1 DUP3 SSTORE DUP1 SWAP2 POP POP PUSH1 0x1 SWAP1 SUB SWAP1 PUSH1 0x0 MSTORE PUSH1 0x20 PUSH1 0x0 KECCAK256 SWAP1 PUSH1 0x4 MUL ADD PUSH1 0x0 SWAP1 SWAP2 SWAP1 SWAP2 SWAP1 SWAP2 POP PUSH1 0x0 DUP3 ADD MLOAD DUP2 PUSH1 0x0 ADD SWAP1 DUP1 MLOAD SWAP1 PUSH1 0x20 ADD SWAP1 PUSH2 0x1FF SWAP3 SWAP2 SWAP1 PUSH2 0x226 JUMP JUMPDEST POP PUSH1 0x20 DUP3 ADD MLOAD DUP2 PUSH1 0x1 ADD SSTORE PUSH1 0x40 DUP3 ADD MLOAD DUP2 PUSH1 0x2 ADD SSTORE PUSH1 0x60 DUP3 ADD MLOAD DUP2 PUSH1 0x3 ADD SSTORE POP POP POP POP POP POP JUMP JUMPDEST DUP3 DUP1 SLOAD PUSH2 0x232 SWAP1 PUSH2 0x580 JUMP JUMPDEST SWAP1 PUSH1 0x0 MSTORE PUSH1 0x20 PUSH1 0x0 KECCAK256 SWAP1 PUSH1 0x1F ADD PUSH1 0x20 SWAP1 DIV DUP2 ADD SWAP3 DUP3 PUSH2 0x254 JUMPI PUSH1 0x0 DUP6 SSTORE PUSH2 0x29B JUMP JUMPDEST DUP3 PUSH1 0x1F LT PUSH2 0x26D JUMPI DUP1 MLOAD PUSH1 0xFF NOT AND DUP4 DUP1 ADD OR DUP6 SSTORE PUSH2 0x29B JUMP JUMPDEST DUP3 DUP1 ADD PUSH1 0x1 ADD DUP6 SSTORE DUP3 ISZERO PUSH2 0x29B JUMPI SWAP2 DUP3 ADD JUMPDEST DUP3 DUP2 GT ISZERO PUSH2 0x29A JUMPI DUP3 MLOAD DUP3 SSTORE SWAP2 PUSH1 0x20 ADD SWAP2 SWAP1 PUSH1 0x1 ADD SWAP1 PUSH2 0x27F JUMP JUMPDEST JUMPDEST POP SWAP1 POP PUSH2 0x2A8 SWAP2 SWAP1 PUSH2 0x2AC JUMP JUMPDEST POP SWAP1 JUMP JUMPDEST JUMPDEST DUP1 DUP3 GT ISZERO PUSH2 0x2C5 JUMPI PUSH1 0x0 DUP2 PUSH1 0x0 SWAP1 SSTORE POP PUSH1 0x1 ADD PUSH2 0x2AD JUMP JUMPDEST POP SWAP1 JUMP JUMPDEST PUSH1 0x0 PUSH2 0x2DC PUSH2 0x2D7 DUP5 PUSH2 0x4E7 JUMP JUMPDEST PUSH2 0x4C2 JUMP JUMPDEST SWAP1 POP DUP3 DUP2 MSTORE PUSH1 0x20 DUP2 ADD DUP5 DUP5 DUP5 ADD GT ISZERO PUSH2 0x2F8 JUMPI PUSH2 0x2F7 PUSH2 0x646 JUMP JUMPDEST JUMPDEST PUSH2 0x303 DUP5 DUP3 DUP6 PUSH2 0x53E JUMP JUMPDEST POP SWAP4 SWAP3 POP POP POP JUMP JUMPDEST PUSH1 0x0 DUP3 PUSH1 0x1F DUP4 ADD SLT PUSH2 0x320 JUMPI PUSH2 0x31F PUSH2 0x641 JUMP JUMPDEST JUMPDEST DUP2 CALLDATALOAD PUSH2 0x330 DUP5 DUP3 PUSH1 0x20 DUP7 ADD PUSH2 0x2C9 JUMP JUMPDEST SWAP2 POP POP SWAP3 SWAP2 POP POP JUMP JUMPDEST PUSH1 0x0 DUP2 CALLDATALOAD SWAP1 POP PUSH2 0x348 DUP2 PUSH2 0x666 JUMP JUMPDEST SWAP3 SWAP2 POP POP JUMP JUMPDEST PUSH1 0x0 DUP1 PUSH1 0x0 DUP1 PUSH1 0x80 DUP6 DUP8 SUB SLT ISZERO PUSH2 0x368 JUMPI PUSH2 0x367 PUSH2 0x650 JUMP JUMPDEST JUMPDEST PUSH1 0x0 DUP6 ADD CALLDATALOAD PUSH8 0xFFFFFFFFFFFFFFFF DUP2 GT ISZERO PUSH2 0x386 JUMPI PUSH2 0x385 PUSH2 0x64B JUMP JUMPDEST JUMPDEST PUSH2 0x392 DUP8 DUP3 DUP9 ADD PUSH2 0x30B JUMP JUMPDEST SWAP5 POP POP PUSH1 0x20 PUSH2 0x3A3 DUP8 DUP3 DUP9 ADD PUSH2 0x339 JUMP JUMPDEST SWAP4 POP POP PUSH1 0x40 PUSH2 0x3B4 DUP8 DUP3 DUP9 ADD PUSH2 0x339 JUMP JUMPDEST SWAP3 POP POP PUSH1 0x60 PUSH2 0x3C5 DUP8 DUP3 DUP9 ADD PUSH2 0x339 JUMP JUMPDEST SWAP2 POP POP SWAP3 SWAP6 SWAP2 SWAP5 POP SWAP3 POP JUMP JUMPDEST PUSH1 0x0 PUSH1 0x20 DUP3 DUP5 SUB SLT ISZERO PUSH2 0x3E7 JUMPI PUSH2 0x3E6 PUSH2 0x650 JUMP JUMPDEST JUMPDEST PUSH1 0x0 PUSH2 0x3F5 DUP5 DUP3 DUP6 ADD PUSH2 0x339 JUMP JUMPDEST SWAP2 POP POP SWAP3 SWAP2 POP POP JUMP JUMPDEST PUSH1 0x0 PUSH2 0x409 DUP3 PUSH2 0x518 JUMP JUMPDEST PUSH2 0x413 DUP2 DUP6 PUSH2 0x523 JUMP JUMPDEST SWAP4 POP PUSH2 0x423 DUP2 DUP6 PUSH1 0x20 DUP7 ADD PUSH2 0x54D JUMP JUMPDEST PUSH2 0x42C DUP2 PUSH2 0x655 JUMP JUMPDEST DUP5 ADD SWAP2 POP POP SWAP3 SWAP2 POP POP JUMP JUMPDEST PUSH2 0x440 DUP2 PUSH2 0x534 JUMP JUMPDEST DUP3 MSTORE POP POP JUMP JUMPDEST PUSH1 0x0 PUSH1 0x40 DUP3 ADD SWAP1 POP DUP2 DUP2 SUB PUSH1 0x0 DUP4 ADD MSTORE PUSH2 0x460 DUP2 DUP6 PUSH2 0x3FE JUMP JUMPDEST SWAP1 POP PUSH2 0x46F PUSH1 0x20 DUP4 ADD DUP5 PUSH2 0x437 JUMP JUMPDEST SWAP4 SWAP3 POP POP POP JUMP JUMPDEST PUSH1 0x0 PUSH1 0x80 DUP3 ADD SWAP1 POP DUP2 DUP2 SUB PUSH1 0x0 DUP4 ADD MSTORE PUSH2 0x490 DUP2 DUP8 PUSH2 0x3FE JUMP JUMPDEST SWAP1 POP PUSH2 0x49F PUSH1 0x20 DUP4 ADD DUP7 PUSH2 0x437 JUMP JUMPDEST PUSH2 0x4AC PUSH1 0x40 DUP4 ADD DUP6 PUSH2 0x437 JUMP JUMPDEST PUSH2 0x4B9 PUSH1 0x60 DUP4 ADD DUP5 PUSH2 0x437 JUMP JUMPDEST SWAP6 SWAP5 POP POP POP POP POP JUMP JUMPDEST PUSH1 0x0 PUSH2 0x4CC PUSH2 0x4DD JUMP JUMPDEST SWAP1 POP PUSH2 0x4D8 DUP3 DUP3 PUSH2 0x5B2 JUMP JUMPDEST SWAP2 SWAP1 POP JUMP JUMPDEST PUSH1 0x0 PUSH1 0x40 MLOAD SWAP1 POP SWAP1 JUMP JUMPDEST PUSH1 0x0 PUSH8 0xFFFFFFFFFFFFFFFF DUP3 GT ISZERO PUSH2 0x502 JUMPI PUSH2 0x501 PUSH2 0x612 JUMP JUMPDEST JUMPDEST PUSH2 0x50B DUP3 PUSH2 0x655 JUMP JUMPDEST SWAP1 POP PUSH1 0x20 DUP2 ADD SWAP1 POP SWAP2 SWAP1 POP JUMP JUMPDEST PUSH1 0x0 DUP2 MLOAD SWAP1 POP SWAP2 SWAP1 POP JUMP JUMPDEST PUSH1 0x0 DUP3 DUP3 MSTORE PUSH1 0x20 DUP3 ADD SWAP1 POP SWAP3 SWAP2 POP POP JUMP JUMPDEST PUSH1 0x0 DUP2 SWAP1 POP SWAP2 SWAP1 POP JUMP JUMPDEST DUP3 DUP2 DUP4 CALLDATACOPY PUSH1 0x0 DUP4 DUP4 ADD MSTORE POP POP POP JUMP JUMPDEST PUSH1 0x0 JUMPDEST DUP4 DUP2 LT ISZERO PUSH2 0x56B JUMPI DUP1 DUP3 ADD MLOAD DUP2 DUP5 ADD MSTORE PUSH1 0x20 DUP2 ADD SWAP1 POP PUSH2 0x550 JUMP JUMPDEST DUP4 DUP2 GT ISZERO PUSH2 0x57A JUMPI PUSH1 0x0 DUP5 DUP5 ADD MSTORE JUMPDEST POP POP POP POP JUMP JUMPDEST PUSH1 0x0 PUSH1 0x2 DUP3 DIV SWAP1 POP PUSH1 0x1 DUP3 AND DUP1 PUSH2 0x598 JUMPI PUSH1 0x7F DUP3 AND SWAP2 POP JUMPDEST PUSH1 0x20 DUP3 LT DUP2 EQ ISZERO PUSH2 0x5AC JUMPI PUSH2 0x5AB PUSH2 0x5E3 JUMP JUMPDEST JUMPDEST POP SWAP2 SWAP1 POP JUMP JUMPDEST PUSH2 0x5BB DUP3 PUSH2 0x655 JUMP JUMPDEST DUP2 ADD DUP2 DUP2 LT PUSH8 0xFFFFFFFFFFFFFFFF DUP3 GT OR ISZERO PUSH2 0x5DA JUMPI PUSH2 0x5D9 PUSH2 0x612 JUMP JUMPDEST JUMPDEST DUP1 PUSH1 0x40 MSTORE POP POP POP JUMP JUMPDEST PUSH32 0x4E487B7100000000000000000000000000000000000000000000000000000000 PUSH1 0x0 MSTORE PUSH1 0x22 PUSH1 0x4 MSTORE PUSH1 0x24 PUSH1 0x0 REVERT JUMPDEST PUSH32 0x4E487B7100000000000000000000000000000000000000000000000000000000 PUSH1 0x0 MSTORE PUSH1 0x41 PUSH1 0x4 MSTORE PUSH1 0x24 PUSH1 0x0 REVERT JUMPDEST PUSH1 0x0 DUP1 REVERT JUMPDEST PUSH1 0x0 DUP1 REVERT JUMPDEST PUSH1 0x0 DUP1 REVERT JUMPDEST PUSH1 0x0 DUP1 REVERT JUMPDEST PUSH1 0x0 PUSH1 0x1F NOT PUSH1 0x1F DUP4 ADD AND SWAP1 POP SWAP2 SWAP1 POP JUMP JUMPDEST PUSH2 0x66F DUP2 PUSH2 0x534 JUMP JUMPDEST DUP2 EQ PUSH2 0x67A JUMPI PUSH1 0x0 DUP1 REVERT JUMPDEST POP JUMP INVALID LOG2 PUSH5 0x6970667358 0x22 SLT KECCAK256 DIFFICULTY 0xFB 0x4B 0x2B 0xC PUSH26 0xBC00BA490A03B4DDE1FCB4932D7BE08A42B3562388E129A49C50 PUSH5 0x736F6C6343 STOP ADDMOD SMOD STOP CALLER "
				},
				"gasEstimates": {
					"creation": {
						"codeDepositCost": "343000",
						"executionCost": "380",
						"totalCost": "343380"
					},
					"external": {
						"addtolist(string,uint256,uint256,uint256)": "infinite",
						"getlist(uint256)": "infinite",
						"todoarr(uint256)": "infinite"
					}
				},
				"methodIdentifiers": {
					"addtolist(string,uint256,uint256,uint256)": "e1b7edff",
					"getlist(uint256)": "6c9958e0",
					"todoarr(uint256)": "d3729ff6"
				}
			},
			"storageLayout": {
				"storage": [
					{
						"astId": 14,
						"contract": "opo.sol:TodoList",
						"label": "todoarr",
						"offset": 0,
						"slot": "0",
						"type": "t_array(t_struct(Todo)10_storage)dyn_storage"
					}
				],
				"types": {
					"t_array(t_struct(Todo)10_storage)dyn_storage": {
						"base": "t_struct(Todo)10_storage",
						"encoding": "dynamic_array",
						"label": "struct TodoList.Todo[]",
						"numberOfBytes": "32"
					},
					"t_string_storage": {
						"encoding": "bytes",
						"label": "string",
						"numberOfBytes": "32"
					},
					"t_struct(Todo)10_storage": {
						"encoding": "inplace",
						"label": "struct TodoList.Todo",
						"members": [
							{
								"astId": 3,
								"contract": "opo.sol:TodoList",
								"label": "action",
								"offset": 0,
								"slot": "0",
								"type": "t_string_storage"
							},
							{
								"astId": 5,
								"contract": "opo.sol:TodoList",
								"label": "day",
								"offset": 0,
								"slot": "1",
								"type": "t_uint256"
							},
							{
								"astId": 7,
								"contract": "opo.sol:TodoList",
								"label": "month",
								"offset": 0,
								"slot": "2",
								"type": "t_uint256"
							},
							{
								"astId": 9,
								"contract": "opo.sol:TodoList",
								"label": "year",
								"offset": 0,
								"slot": "3",
								"type": "t_uint256"
							}
						],
						"numberOfBytes": "128"
					},
					"t_uint256": {
						"encoding": "inplace",
						"label": "uint256",
						"numberOfBytes": "32"
					}
				}
			},
			"userdoc": {
				"kind": "user",
				"methods": {},
				"version": 1
			}
		}
	}
}