{
	"onwnable2.sol": {
		"Ethwallet": {
			"abi": [
				{
					"inputs": [],
					"stateMutability": "nonpayable",
					"type": "constructor"
				},
				{
					"inputs": [],
					"name": "getbal",
					"outputs": [],
					"stateMutability": "nonpayable",
					"type": "function"
				},
				{
					"inputs": [],
					"name": "owner",
					"outputs": [
						{
							"internalType": "address payable",
							"name": "",
							"type": "address"
						}
					],
					"stateMutability": "view",
					"type": "function"
				},
				{
					"inputs": [],
					"name": "sendeth",
					"outputs": [],
					"stateMutability": "payable",
					"type": "function"
				},
				{
					"stateMutability": "payable",
					"type": "receive"
				}
			],
			"devdoc": {
				"kind": "dev",
				"methods": {},
				"version": 1
			},
			"evm": {
				"assembly": "    /* \"onwnable2.sol\":58:370  contract Ethwallet{\r... */\n  mstore(0x40, 0x80)\n    /* \"onwnable2.sol\":116:167  constructor(){\r... */\n  callvalue\n  dup1\n  iszero\n  tag_1\n  jumpi\n  0x00\n  dup1\n  revert\ntag_1:\n  pop\n    /* \"onwnable2.sol\":152:162  msg.sender */\n  caller\n    /* \"onwnable2.sol\":136:141  owner */\n  0x00\n  dup1\n    /* \"onwnable2.sol\":136:163  owner = payable(msg.sender) */\n  0x0100\n  exp\n  dup2\n  sload\n  dup2\n  0xffffffffffffffffffffffffffffffffffffffff\n  mul\n  not\n  and\n  swap1\n  dup4\n  0xffffffffffffffffffffffffffffffffffffffff\n  and\n  mul\n  or\n  swap1\n  sstore\n  pop\n    /* \"onwnable2.sol\":58:370  contract Ethwallet{\r... */\n  dataSize(sub_0)\n  dup1\n  dataOffset(sub_0)\n  0x00\n  codecopy\n  0x00\n  return\nstop\n\nsub_0: assembly {\n        /* \"onwnable2.sol\":58:370  contract Ethwallet{\r... */\n      mstore(0x40, 0x80)\n      jumpi(tag_1, lt(calldatasize, 0x04))\n      shr(0xe0, calldataload(0x00))\n      dup1\n      0x15ce85fb\n      eq\n      tag_3\n      jumpi\n      dup1\n      0x1b3f4e07\n      eq\n      tag_4\n      jumpi\n      dup1\n      0x8da5cb5b\n      eq\n      tag_5\n      jumpi\n      jump(tag_2)\n    tag_1:\n      jumpi(tag_2, calldatasize)\n      stop\n    tag_2:\n      0x00\n      dup1\n      revert\n        /* \"onwnable2.sol\":201:325  function sendeth() payable external {\r... */\n    tag_3:\n      tag_8\n      tag_9\n      jump\t// in\n    tag_8:\n      stop\n        /* \"onwnable2.sol\":327:363  function getbal() external{\r... */\n    tag_4:\n      callvalue\n      dup1\n      iszero\n      tag_10\n      jumpi\n      0x00\n      dup1\n      revert\n    tag_10:\n      pop\n      tag_11\n      tag_12\n      jump\t// in\n    tag_11:\n      stop\n        /* \"onwnable2.sol\":82:110  address payable public owner */\n    tag_5:\n      callvalue\n      dup1\n      iszero\n      tag_13\n      jumpi\n      0x00\n      dup1\n      revert\n    tag_13:\n      pop\n      tag_14\n      tag_15\n      jump\t// in\n    tag_14:\n      mload(0x40)\n      tag_16\n      swap2\n      swap1\n      tag_17\n      jump\t// in\n    tag_16:\n      mload(0x40)\n      dup1\n      swap2\n      sub\n      swap1\n      return\n        /* \"onwnable2.sol\":201:325  function sendeth() payable external {\r... */\n    tag_9:\n        /* \"onwnable2.sol\":266:271  owner */\n      0x00\n      dup1\n      sload\n      swap1\n      0x0100\n      exp\n      swap1\n      div\n      0xffffffffffffffffffffffffffffffffffffffff\n      and\n        /* \"onwnable2.sol\":252:271  msg.sender == owner */\n      0xffffffffffffffffffffffffffffffffffffffff\n      and\n        /* \"onwnable2.sol\":252:262  msg.sender */\n      caller\n        /* \"onwnable2.sol\":252:271  msg.sender == owner */\n      0xffffffffffffffffffffffffffffffffffffffff\n      and\n      eq\n        /* \"onwnable2.sol\":244:289  require(msg.sender == owner, \"Not the owner\") */\n      tag_19\n      jumpi\n      mload(0x40)\n      0x08c379a000000000000000000000000000000000000000000000000000000000\n      dup2\n      mstore\n      0x04\n      add\n      tag_20\n      swap1\n      tag_21\n      jump\t// in\n    tag_20:\n      mload(0x40)\n      dup1\n      swap2\n      sub\n      swap1\n      revert\n    tag_19:\n        /* \"onwnable2.sol\":296:301  owner */\n      0x00\n      dup1\n      sload\n      swap1\n      0x0100\n      exp\n      swap1\n      div\n      0xffffffffffffffffffffffffffffffffffffffff\n      and\n        /* \"onwnable2.sol\":296:310  owner.transfer */\n      0xffffffffffffffffffffffffffffffffffffffff\n      and\n        /* \"onwnable2.sol\":296:321  owner.transfer(msg.value) */\n      0x08fc\n        /* \"onwnable2.sol\":311:320  msg.value */\n      callvalue\n        /* \"onwnable2.sol\":296:321  owner.transfer(msg.value) */\n      swap1\n      dup2\n      iszero\n      mul\n      swap1\n      mload(0x40)\n      0x00\n      mload(0x40)\n      dup1\n      dup4\n      sub\n      dup2\n      dup6\n      dup9\n      dup9\n      call\n      swap4\n      pop\n      pop\n      pop\n      pop\n      iszero\n      dup1\n      iszero\n      tag_23\n      jumpi\n      returndatasize\n      0x00\n      dup1\n      returndatacopy\n      revert(0x00, returndatasize)\n    tag_23:\n      pop\n        /* \"onwnable2.sol\":201:325  function sendeth() payable external {\r... */\n      jump\t// out\n        /* \"onwnable2.sol\":327:363  function getbal() external{\r... */\n    tag_12:\n      jump\t// out\n        /* \"onwnable2.sol\":82:110  address payable public owner */\n    tag_15:\n      0x00\n      dup1\n      sload\n      swap1\n      0x0100\n      exp\n      swap1\n      div\n      0xffffffffffffffffffffffffffffffffffffffff\n      and\n      dup2\n      jump\t// out\n        /* \"#utility.yul\":7:149   */\n    tag_26:\n        /* \"#utility.yul\":110:142   */\n      tag_28\n        /* \"#utility.yul\":136:141   */\n      dup2\n        /* \"#utility.yul\":110:142   */\n      tag_29\n      jump\t// in\n    tag_28:\n        /* \"#utility.yul\":105:108   */\n      dup3\n        /* \"#utility.yul\":98:143   */\n      mstore\n        /* \"#utility.yul\":7:149   */\n      pop\n      pop\n      jump\t// out\n        /* \"#utility.yul\":155:521   */\n    tag_30:\n        /* \"#utility.yul\":297:300   */\n      0x00\n        /* \"#utility.yul\":318:385   */\n      tag_32\n        /* \"#utility.yul\":382:384   */\n      0x0d\n        /* \"#utility.yul\":377:380   */\n      dup4\n        /* \"#utility.yul\":318:385   */\n      tag_33\n      jump\t// in\n    tag_32:\n        /* \"#utility.yul\":311:385   */\n      swap2\n      pop\n        /* \"#utility.yul\":394:487   */\n      tag_34\n        /* \"#utility.yul\":483:486   */\n      dup3\n        /* \"#utility.yul\":394:487   */\n      tag_35\n      jump\t// in\n    tag_34:\n        /* \"#utility.yul\":512:514   */\n      0x20\n        /* \"#utility.yul\":507:510   */\n      dup3\n        /* \"#utility.yul\":503:515   */\n      add\n        /* \"#utility.yul\":496:515   */\n      swap1\n      pop\n        /* \"#utility.yul\":155:521   */\n      swap2\n      swap1\n      pop\n      jump\t// out\n        /* \"#utility.yul\":527:781   */\n    tag_17:\n        /* \"#utility.yul\":636:640   */\n      0x00\n        /* \"#utility.yul\":674:676   */\n      0x20\n        /* \"#utility.yul\":663:672   */\n      dup3\n        /* \"#utility.yul\":659:677   */\n      add\n        /* \"#utility.yul\":651:677   */\n      swap1\n      pop\n        /* \"#utility.yul\":687:774   */\n      tag_37\n        /* \"#utility.yul\":771:772   */\n      0x00\n        /* \"#utility.yul\":760:769   */\n      dup4\n        /* \"#utility.yul\":756:773   */\n      add\n        /* \"#utility.yul\":747:753   */\n      dup5\n        /* \"#utility.yul\":687:774   */\n      tag_26\n      jump\t// in\n    tag_37:\n        /* \"#utility.yul\":527:781   */\n      swap3\n      swap2\n      pop\n      pop\n      jump\t// out\n        /* \"#utility.yul\":787:1206   */\n    tag_21:\n        /* \"#utility.yul\":953:957   */\n      0x00\n        /* \"#utility.yul\":991:993   */\n      0x20\n        /* \"#utility.yul\":980:989   */\n      dup3\n        /* \"#utility.yul\":976:994   */\n      add\n        /* \"#utility.yul\":968:994   */\n      swap1\n      pop\n        /* \"#utility.yul\":1040:1049   */\n      dup2\n        /* \"#utility.yul\":1034:1038   */\n      dup2\n        /* \"#utility.yul\":1030:1050   */\n      sub\n        /* \"#utility.yul\":1026:1027   */\n      0x00\n        /* \"#utility.yul\":1015:1024   */\n      dup4\n        /* \"#utility.yul\":1011:1028   */\n      add\n        /* \"#utility.yul\":1004:1051   */\n      mstore\n        /* \"#utility.yul\":1068:1199   */\n      tag_39\n        /* \"#utility.yul\":1194:1198   */\n      dup2\n        /* \"#utility.yul\":1068:1199   */\n      tag_30\n      jump\t// in\n    tag_39:\n        /* \"#utility.yul\":1060:1199   */\n      swap1\n      pop\n        /* \"#utility.yul\":787:1206   */\n      swap2\n      swap1\n      pop\n      jump\t// out\n        /* \"#utility.yul\":1212:1381   */\n    tag_33:\n        /* \"#utility.yul\":1296:1307   */\n      0x00\n        /* \"#utility.yul\":1330:1336   */\n      dup3\n        /* \"#utility.yul\":1325:1328   */\n      dup3\n        /* \"#utility.yul\":1318:1337   */\n      mstore\n        /* \"#utility.yul\":1370:1374   */\n      0x20\n        /* \"#utility.yul\":1365:1368   */\n      dup3\n        /* \"#utility.yul\":1361:1375   */\n      add\n        /* \"#utility.yul\":1346:1375   */\n      swap1\n      pop\n        /* \"#utility.yul\":1212:1381   */\n      swap3\n      swap2\n      pop\n      pop\n      jump\t// out\n        /* \"#utility.yul\":1387:1491   */\n    tag_29:\n        /* \"#utility.yul\":1432:1439   */\n      0x00\n        /* \"#utility.yul\":1461:1485   */\n      tag_42\n        /* \"#utility.yul\":1479:1484   */\n      dup3\n        /* \"#utility.yul\":1461:1485   */\n      tag_43\n      jump\t// in\n    tag_42:\n        /* \"#utility.yul\":1450:1485   */\n      swap1\n      pop\n        /* \"#utility.yul\":1387:1491   */\n      swap2\n      swap1\n      pop\n      jump\t// out\n        /* \"#utility.yul\":1497:1623   */\n    tag_43:\n        /* \"#utility.yul\":1534:1541   */\n      0x00\n        /* \"#utility.yul\":1574:1616   */\n      0xffffffffffffffffffffffffffffffffffffffff\n        /* \"#utility.yul\":1567:1572   */\n      dup3\n        /* \"#utility.yul\":1563:1617   */\n      and\n        /* \"#utility.yul\":1552:1617   */\n      swap1\n      pop\n        /* \"#utility.yul\":1497:1623   */\n      swap2\n      swap1\n      pop\n      jump\t// out\n        /* \"#utility.yul\":1629:1792   */\n    tag_35:\n        /* \"#utility.yul\":1769:1784   */\n      0x4e6f7420746865206f776e657200000000000000000000000000000000000000\n        /* \"#utility.yul\":1765:1766   */\n      0x00\n        /* \"#utility.yul\":1757:1763   */\n      dup3\n        /* \"#utility.yul\":1753:1767   */\n      add\n        /* \"#utility.yul\":1746:1785   */\n      mstore\n        /* \"#utility.yul\":1629:1792   */\n      pop\n      jump\t// out\n\n    auxdata: 0xa26469706673582212209ab0b94d4b71f08f5e9102616248b318a10ef1738dc866d31f704d857415e19564736f6c63430008070033\n}\n",
				"bytecode": {
					"linkReferences": {},
					"object": "608060405234801561001057600080fd5b50336000806101000a81548173ffffffffffffffffffffffffffffffffffffffff021916908373ffffffffffffffffffffffffffffffffffffffff1602179055506102bc806100606000396000f3fe6080604052600436106100385760003560e01c806315ce85fb146100445780631b3f4e071461004e5780638da5cb5b146100655761003f565b3661003f57005b600080fd5b61004c610090565b005b34801561005a57600080fd5b50610063610187565b005b34801561007157600080fd5b5061007a610189565b60405161008791906101df565b60405180910390f35b60008054906101000a900473ffffffffffffffffffffffffffffffffffffffff1673ffffffffffffffffffffffffffffffffffffffff163373ffffffffffffffffffffffffffffffffffffffff161461011e576040517f08c379a0000000000000000000000000000000000000000000000000000000008152600401610115906101fa565b60405180910390fd5b60008054906101000a900473ffffffffffffffffffffffffffffffffffffffff1673ffffffffffffffffffffffffffffffffffffffff166108fc349081150290604051600060405180830381858888f19350505050158015610184573d6000803e3d6000fd5b50565b565b60008054906101000a900473ffffffffffffffffffffffffffffffffffffffff1681565b6101b68161022b565b82525050565b60006101c9600d8361021a565b91506101d48261025d565b602082019050919050565b60006020820190506101f460008301846101ad565b92915050565b60006020820190508181036000830152610213816101bc565b9050919050565b600082825260208201905092915050565b60006102368261023d565b9050919050565b600073ffffffffffffffffffffffffffffffffffffffff82169050919050565b7f4e6f7420746865206f776e65720000000000000000000000000000000000000060008201525056fea26469706673582212209ab0b94d4b71f08f5e9102616248b318a10ef1738dc866d31f704d857415e19564736f6c63430008070033",
					"opcodes": "PUSH1 0x80 PUSH1 0x40 MSTORE CALLVALUE DUP1 ISZERO PUSH2 0x10 JUMPI PUSH1 0x0 DUP1 REVERT JUMPDEST POP CALLER PUSH1 0x0 DUP1 PUSH2 0x100 EXP DUP2 SLOAD DUP2 PUSH20 0xFFFFFFFFFFFFFFFFFFFFFFFFFFFFFFFFFFFFFFFF MUL NOT AND SWAP1 DUP4 PUSH20 0xFFFFFFFFFFFFFFFFFFFFFFFFFFFFFFFFFFFFFFFF AND MUL OR SWAP1 SSTORE POP PUSH2 0x2BC DUP1 PUSH2 0x60 PUSH1 0x0 CODECOPY PUSH1 0x0 RETURN INVALID PUSH1 0x80 PUSH1 0x40 MSTORE PUSH1 0x4 CALLDATASIZE LT PUSH2 0x38 JUMPI PUSH1 0x0 CALLDATALOAD PUSH1 0xE0 SHR DUP1 PUSH4 0x15CE85FB EQ PUSH2 0x44 JUMPI DUP1 PUSH4 0x1B3F4E07 EQ PUSH2 0x4E JUMPI DUP1 PUSH4 0x8DA5CB5B EQ PUSH2 0x65 JUMPI PUSH2 0x3F JUMP JUMPDEST CALLDATASIZE PUSH2 0x3F JUMPI STOP JUMPDEST PUSH1 0x0 DUP1 REVERT JUMPDEST PUSH2 0x4C PUSH2 0x90 JUMP JUMPDEST STOP JUMPDEST CALLVALUE DUP1 ISZERO PUSH2 0x5A JUMPI PUSH1 0x0 DUP1 REVERT JUMPDEST POP PUSH2 0x63 PUSH2 0x187 JUMP JUMPDEST STOP JUMPDEST CALLVALUE DUP1 ISZERO PUSH2 0x71 JUMPI PUSH1 0x0 DUP1 REVERT JUMPDEST POP PUSH2 0x7A PUSH2 0x189 JUMP JUMPDEST PUSH1 0x40 MLOAD PUSH2 0x87 SWAP2 SWAP1 PUSH2 0x1DF JUMP JUMPDEST PUSH1 0x40 MLOAD DUP1 SWAP2 SUB SWAP1 RETURN JUMPDEST PUSH1 0x0 DUP1 SLOAD SWAP1 PUSH2 0x100 EXP SWAP1 DIV PUSH20 0xFFFFFFFFFFFFFFFFFFFFFFFFFFFFFFFFFFFFFFFF AND PUSH20 0xFFFFFFFFFFFFFFFFFFFFFFFFFFFFFFFFFFFFFFFF AND CALLER PUSH20 0xFFFFFFFFFFFFFFFFFFFFFFFFFFFFFFFFFFFFFFFF AND EQ PUSH2 0x11E JUMPI PUSH1 0x40 MLOAD PUSH32 0x8C379A000000000000000000000000000000000000000000000000000000000 DUP2 MSTORE PUSH1 0x4 ADD PUSH2 0x115 SWAP1 PUSH2 0x1FA JUMP JUMPDEST PUSH1 0x40 MLOAD DUP1 SWAP2 SUB SWAP1 REVERT JUMPDEST PUSH1 0x0 DUP1 SLOAD SWAP1 PUSH2 0x100 EXP SWAP1 DIV PUSH20 0xFFFFFFFFFFFFFFFFFFFFFFFFFFFFFFFFFFFFFFFF AND PUSH20 0xFFFFFFFFFFFFFFFFFFFFFFFFFFFFFFFFFFFFFFFF AND PUSH2 0x8FC CALLVALUE SWAP1 DUP2 ISZERO MUL SWAP1 PUSH1 0x40 MLOAD PUSH1 0x0 PUSH1 0x40 MLOAD DUP1 DUP4 SUB DUP2 DUP6 DUP9 DUP9 CALL SWAP4 POP POP POP POP ISZERO DUP1 ISZERO PUSH2 0x184 JUMPI RETURNDATASIZE PUSH1 0x0 DUP1 RETURNDATACOPY RETURNDATASIZE PUSH1 0x0 REVERT JUMPDEST POP JUMP JUMPDEST JUMP JUMPDEST PUSH1 0x0 DUP1 SLOAD SWAP1 PUSH2 0x100 EXP SWAP1 DIV PUSH20 0xFFFFFFFFFFFFFFFFFFFFFFFFFFFFFFFFFFFFFFFF AND DUP2 JUMP JUMPDEST PUSH2 0x1B6 DUP2 PUSH2 0x22B JUMP JUMPDEST DUP3 MSTORE POP POP JUMP JUMPDEST PUSH1 0x0 PUSH2 0x1C9 PUSH1 0xD DUP4 PUSH2 0x21A JUMP JUMPDEST SWAP2 POP PUSH2 0x1D4 DUP3 PUSH2 0x25D JUMP JUMPDEST PUSH1 0x20 DUP3 ADD SWAP1 POP SWAP2 SWAP1 POP JUMP JUMPDEST PUSH1 0x0 PUSH1 0x20 DUP3 ADD SWAP1 POP PUSH2 0x1F4 PUSH1 0x0 DUP4 ADD DUP5 PUSH2 0x1AD JUMP JUMPDEST SWAP3 SWAP2 POP POP JUMP JUMPDEST PUSH1 0x0 PUSH1 0x20 DUP3 ADD SWAP1 POP DUP2 DUP2 SUB PUSH1 0x0 DUP4 ADD MSTORE PUSH2 0x213 DUP2 PUSH2 0x1BC JUMP JUMPDEST SWAP1 POP SWAP2 SWAP1 POP JUMP JUMPDEST PUSH1 0x0 DUP3 DUP3 MSTORE PUSH1 0x20 DUP3 ADD SWAP1 POP SWAP3 SWAP2 POP POP JUMP JUMPDEST PUSH1 0x0 PUSH2 0x236 DUP3 PUSH2 0x23D JUMP JUMPDEST SWAP1 POP SWAP2 SWAP1 POP JUMP JUMPDEST PUSH1 0x0 PUSH20 0xFFFFFFFFFFFFFFFFFFFFFFFFFFFFFFFFFFFFFFFF DUP3 AND SWAP1 POP SWAP2 SWAP1 POP JUMP JUMPDEST PUSH32 0x4E6F7420746865206F776E657200000000000000000000000000000000000000 PUSH1 0x0 DUP3 ADD MSTORE POP JUMP INVALID LOG2 PUSH5 0x6970667358 0x22 SLT KECCAK256 SWAP11 0xB0 0xB9 0x4D 0x4B PUSH18 0xF08F5E9102616248B318A10EF1738DC866D3 0x1F PUSH17 0x4D857415E19564736F6C63430008070033 "
				},
				"gasEstimates": {
					"creation": {
						"codeDepositCost": "140000",
						"executionCost": "24449",
						"totalCost": "164449"
					},
					"external": {
						"getbal()": "144",
						"owner()": "2533",
						"sendeth()": "infinite"
					}
				},
				"methodIdentifiers": {
					"getbal()": "1b3f4e07",
					"owner()": "8da5cb5b",
					"sendeth()": "15ce85fb"
				}
			},
			"storageLayout": {
				"storage": [
					{
						"astId": 3,
						"contract": "onwnable2.sol:Ethwallet",
						"label": "owner",
						"offset": 0,
						"slot": "0",
						"type": "t_address_payable"
					}
				],
				"types": {
					"t_address_payable": {
						"encoding": "inplace",
						"label": "address payable",
						"numberOfBytes": "20"
					}
				}
			},
			"userdoc": {
				"kind": "user",
				"methods": {},
				"version": 1
			}
		}
	}
}