{
	"opo.sol": {
		"TodoList": {
			"abi": [
				{
					"inputs": [
						{
							"internalType": "string",
							"name": "_action",
							"type": "string"
						},
						{
							"internalType": "uint32",
							"name": "_day",
							"type": "uint32"
						},
						{
							"internalType": "uint16",
							"name": "_month",
							"type": "uint16"
						},
						{
							"internalType": "uint256",
							"name": "_year",
							"type": "uint256"
						}
					],
					"name": "addtolist",
					"outputs": [],
					"stateMutability": "nonpayable",
					"type": "function"
				},
				{
					"inputs": [
						{
							"internalType": "uint256",
							"name": "_index",
							"type": "uint256"
						}
					],
					"name": "getlist",
					"outputs": [
						{
							"internalType": "string",
							"name": "",
							"type": "string"
						},
						{
							"internalType": "uint32",
							"name": "",
							"type": "uint32"
						},
						{
							"internalType": "uint16",
							"name": "",
							"type": "uint16"
						},
						{
							"internalType": "uint256",
							"name": "",
							"type": "uint256"
						}
					],
					"stateMutability": "view",
					"type": "function"
				},
				{
					"inputs": [
						{
							"internalType": "uint256",
							"name": "",
							"type": "uint256"
						}
					],
					"name": "todoarr",
					"outputs": [
						{
							"internalType": "string",
							"name": "action",
							"type": "string"
						},
						{
							"internalType": "uint32",
							"name": "day",
							"type": "uint32"
						},
						{
							"internalType": "uint16",
							"name": "month",
							"type": "uint16"
						},
						{
							"internalType": "uint256",
							"name": "year",
							"type": "uint256"
						}
					],
					"stateMutability": "view",
					"type": "function"
				}
			],
			"devdoc": {
				"kind": "dev",
				"methods": {},
				"version": 1
			},
			"evm": {
				"assembly": "    /* \"opo.sol\":56:597  contract TodoList{\r... */\n  mstore(0x40, 0x80)\n  callvalue\n  dup1\n  iszero\n  tag_1\n  jumpi\n  0x00\n  dup1\n  revert\ntag_1:\n  pop\n  dataSize(sub_0)\n  dup1\n  dataOffset(sub_0)\n  0x00\n  codecopy\n  0x00\n  return\nstop\n\nsub_0: assembly {\n        /* \"opo.sol\":56:597  contract TodoList{\r... */\n      mstore(0x40, 0x80)\n      callvalue\n      dup1\n      iszero\n      tag_1\n      jumpi\n      0x00\n      dup1\n      revert\n    tag_1:\n      pop\n      jumpi(tag_2, lt(calldatasize, 0x04))\n      shr(0xe0, calldataload(0x00))\n      dup1\n      0x2eecfcda\n      eq\n      tag_3\n      jumpi\n      dup1\n      0x6c9958e0\n      eq\n      tag_4\n      jumpi\n      dup1\n      0xd3729ff6\n      eq\n      tag_5\n      jumpi\n    tag_2:\n      0x00\n      dup1\n      revert\n        /* \"opo.sol\":217:412  function addtolist(string memory _action,uint32 _day,uint16 _month,uint _year) external {\r... */\n    tag_3:\n      tag_6\n      0x04\n      dup1\n      calldatasize\n      sub\n      dup2\n      add\n      swap1\n      tag_7\n      swap2\n      swap1\n      tag_8\n      jump\t// in\n    tag_7:\n      tag_9\n      jump\t// in\n    tag_6:\n      stop\n        /* \"opo.sol\":414:592  function getlist(uint _index) public view returns(string memory,uint32,uint16,uint){\r... */\n    tag_4:\n      tag_10\n      0x04\n      dup1\n      calldatasize\n      sub\n      dup2\n      add\n      swap1\n      tag_11\n      swap2\n      swap1\n      tag_12\n      jump\t// in\n    tag_11:\n      tag_13\n      jump\t// in\n    tag_10:\n      mload(0x40)\n      tag_14\n      swap5\n      swap4\n      swap3\n      swap2\n      swap1\n      tag_15\n      jump\t// in\n    tag_14:\n      mload(0x40)\n      dup1\n      swap2\n      sub\n      swap1\n      return\n        /* \"opo.sol\":192:213  Todo[] public todoarr */\n    tag_5:\n      tag_16\n      0x04\n      dup1\n      calldatasize\n      sub\n      dup2\n      add\n      swap1\n      tag_17\n      swap2\n      swap1\n      tag_12\n      jump\t// in\n    tag_17:\n      tag_18\n      jump\t// in\n    tag_16:\n      mload(0x40)\n      tag_19\n      swap5\n      swap4\n      swap3\n      swap2\n      swap1\n      tag_15\n      jump\t// in\n    tag_19:\n      mload(0x40)\n      dup1\n      swap2\n      sub\n      swap1\n      return\n        /* \"opo.sol\":217:412  function addtolist(string memory _action,uint32 _day,uint16 _month,uint _year) external {\r... */\n    tag_9:\n        /* \"opo.sol\":308:315  todoarr */\n      0x00\n        /* \"opo.sol\":321:407  Todo({\r... */\n      mload(0x40)\n      dup1\n      0x80\n      add\n      0x40\n      mstore\n      dup1\n        /* \"opo.sol\":341:348  _action */\n      dup7\n        /* \"opo.sol\":321:407  Todo({\r... */\n      dup2\n      mstore\n      0x20\n      add\n        /* \"opo.sol\":360:364  _day */\n      dup6\n        /* \"opo.sol\":321:407  Todo({\r... */\n      0xffffffff\n      and\n      dup2\n      mstore\n      0x20\n      add\n        /* \"opo.sol\":378:384  _month */\n      dup5\n        /* \"opo.sol\":321:407  Todo({\r... */\n      0xffff\n      and\n      dup2\n      mstore\n      0x20\n      add\n        /* \"opo.sol\":398:403  _year */\n      dup4\n        /* \"opo.sol\":321:407  Todo({\r... */\n      dup2\n      mstore\n      pop\n        /* \"opo.sol\":308:408  todoarr.push(Todo({\r... */\n      swap1\n      dup1\n      0x01\n      dup2\n      sload\n      add\n      dup1\n      dup3\n      sstore\n      dup1\n      swap2\n      pop\n      pop\n      0x01\n      swap1\n      sub\n      swap1\n      0x00\n      mstore\n      keccak256(0x00, 0x20)\n      swap1\n      0x03\n      mul\n      add\n      0x00\n      swap1\n      swap2\n      swap1\n      swap2\n      swap1\n      swap2\n      pop\n      0x00\n      dup3\n      add\n      mload\n      dup2\n      0x00\n      add\n      swap1\n      dup1\n      mload\n      swap1\n      0x20\n      add\n      swap1\n      tag_22\n      swap3\n      swap2\n      swap1\n      tag_23\n      jump\t// in\n    tag_22:\n      pop\n      0x20\n      dup3\n      add\n      mload\n      dup2\n      0x01\n      add\n      exp(0x0100, 0x00)\n      dup2\n      sload\n      dup2\n      0xffffffff\n      mul\n      not\n      and\n      swap1\n      dup4\n      0xffffffff\n      and\n      mul\n      or\n      swap1\n      sstore\n      pop\n      0x40\n      dup3\n      add\n      mload\n      dup2\n      0x01\n      add\n      exp(0x0100, 0x04)\n      dup2\n      sload\n      dup2\n      0xffff\n      mul\n      not\n      and\n      swap1\n      dup4\n      0xffff\n      and\n      mul\n      or\n      swap1\n      sstore\n      pop\n      0x60\n      dup3\n      add\n      mload\n      dup2\n      0x02\n      add\n      sstore\n      pop\n      pop\n        /* \"opo.sol\":217:412  function addtolist(string memory _action,uint32 _day,uint16 _month,uint _year) external {\r... */\n      pop\n      pop\n      pop\n      pop\n      jump\t// out\n        /* \"opo.sol\":414:592  function getlist(uint _index) public view returns(string memory,uint32,uint16,uint){\r... */\n    tag_13:\n        /* \"opo.sol\":464:477  string memory */\n      0x60\n        /* \"opo.sol\":478:484  uint32 */\n      0x00\n        /* \"opo.sol\":485:491  uint16 */\n      dup1\n        /* \"opo.sol\":492:496  uint */\n      0x00\n        /* \"opo.sol\":500:516  Todo memory todo */\n      dup1\n        /* \"opo.sol\":519:526  todoarr */\n      0x00\n        /* \"opo.sol\":527:533  _index */\n      dup7\n        /* \"opo.sol\":519:534  todoarr[_index] */\n      dup2\n      sload\n      dup2\n      lt\n      tag_25\n      jumpi\n      tag_26\n      tag_27\n      jump\t// in\n    tag_26:\n    tag_25:\n      swap1\n      0x00\n      mstore\n      keccak256(0x00, 0x20)\n      swap1\n      0x03\n      mul\n      add\n        /* \"opo.sol\":500:534  Todo memory todo = todoarr[_index] */\n      mload(0x40)\n      dup1\n      0x80\n      add\n      0x40\n      mstore\n      swap1\n      dup2\n      0x00\n      dup3\n      add\n      dup1\n      sload\n      tag_29\n      swap1\n      tag_30\n      jump\t// in\n    tag_29:\n      dup1\n      0x1f\n      add\n      0x20\n      dup1\n      swap2\n      div\n      mul\n      0x20\n      add\n      mload(0x40)\n      swap1\n      dup2\n      add\n      0x40\n      mstore\n      dup1\n      swap3\n      swap2\n      swap1\n      dup2\n      dup2\n      mstore\n      0x20\n      add\n      dup3\n      dup1\n      sload\n      tag_31\n      swap1\n      tag_30\n      jump\t// in\n    tag_31:\n      dup1\n      iszero\n      tag_32\n      jumpi\n      dup1\n      0x1f\n      lt\n      tag_33\n      jumpi\n      0x0100\n      dup1\n      dup4\n      sload\n      div\n      mul\n      dup4\n      mstore\n      swap2\n      0x20\n      add\n      swap2\n      jump(tag_32)\n    tag_33:\n      dup3\n      add\n      swap2\n      swap1\n      0x00\n      mstore\n      keccak256(0x00, 0x20)\n      swap1\n    tag_34:\n      dup2\n      sload\n      dup2\n      mstore\n      swap1\n      0x01\n      add\n      swap1\n      0x20\n      add\n      dup1\n      dup4\n      gt\n      tag_34\n      jumpi\n      dup3\n      swap1\n      sub\n      0x1f\n      and\n      dup3\n      add\n      swap2\n    tag_32:\n      pop\n      pop\n      pop\n      pop\n      pop\n      dup2\n      mstore\n      0x20\n      add\n      0x01\n      dup3\n      add\n      0x00\n      swap1\n      sload\n      swap1\n      0x0100\n      exp\n      swap1\n      div\n      0xffffffff\n      and\n      0xffffffff\n      and\n      0xffffffff\n      and\n      dup2\n      mstore\n      0x20\n      add\n      0x01\n      dup3\n      add\n      0x04\n      swap1\n      sload\n      swap1\n      0x0100\n      exp\n      swap1\n      div\n      0xffff\n      and\n      0xffff\n      and\n      0xffff\n      and\n      dup2\n      mstore\n      0x20\n      add\n      0x02\n      dup3\n      add\n      sload\n      dup2\n      mstore\n      pop\n      pop\n      swap1\n      pop\n        /* \"opo.sol\":546:550  todo */\n      dup1\n        /* \"opo.sol\":546:557  todo.action */\n      0x00\n      add\n      mload\n        /* \"opo.sol\":558:562  todo */\n      dup2\n        /* \"opo.sol\":558:566  todo.day */\n      0x20\n      add\n      mload\n        /* \"opo.sol\":567:571  todo */\n      dup3\n        /* \"opo.sol\":567:577  todo.month */\n      0x40\n      add\n      mload\n        /* \"opo.sol\":578:582  todo */\n      dup4\n        /* \"opo.sol\":578:587  todo.year */\n      0x60\n      add\n      mload\n        /* \"opo.sol\":538:588  return (todo.action,todo.day,todo.month,todo.year) */\n      swap5\n      pop\n      swap5\n      pop\n      swap5\n      pop\n      swap5\n      pop\n      pop\n        /* \"opo.sol\":414:592  function getlist(uint _index) public view returns(string memory,uint32,uint16,uint){\r... */\n      swap2\n      swap4\n      pop\n      swap2\n      swap4\n      jump\t// out\n        /* \"opo.sol\":192:213  Todo[] public todoarr */\n    tag_18:\n      0x00\n      dup2\n      dup2\n      sload\n      dup2\n      lt\n      tag_35\n      jumpi\n      0x00\n      dup1\n      revert\n    tag_35:\n      swap1\n      0x00\n      mstore\n      keccak256(0x00, 0x20)\n      swap1\n      0x03\n      mul\n      add\n      0x00\n      swap2\n      pop\n      swap1\n      pop\n      dup1\n      0x00\n      add\n      dup1\n      sload\n      tag_37\n      swap1\n      tag_30\n      jump\t// in\n    tag_37:\n      dup1\n      0x1f\n      add\n      0x20\n      dup1\n      swap2\n      div\n      mul\n      0x20\n      add\n      mload(0x40)\n      swap1\n      dup2\n      add\n      0x40\n      mstore\n      dup1\n      swap3\n      swap2\n      swap1\n      dup2\n      dup2\n      mstore\n      0x20\n      add\n      dup3\n      dup1\n      sload\n      tag_38\n      swap1\n      tag_30\n      jump\t// in\n    tag_38:\n      dup1\n      iszero\n      tag_39\n      jumpi\n      dup1\n      0x1f\n      lt\n      tag_40\n      jumpi\n      0x0100\n      dup1\n      dup4\n      sload\n      div\n      mul\n      dup4\n      mstore\n      swap2\n      0x20\n      add\n      swap2\n      jump(tag_39)\n    tag_40:\n      dup3\n      add\n      swap2\n      swap1\n      0x00\n      mstore\n      keccak256(0x00, 0x20)\n      swap1\n    tag_41:\n      dup2\n      sload\n      dup2\n      mstore\n      swap1\n      0x01\n      add\n      swap1\n      0x20\n      add\n      dup1\n      dup4\n      gt\n      tag_41\n      jumpi\n      dup3\n      swap1\n      sub\n      0x1f\n      and\n      dup3\n      add\n      swap2\n    tag_39:\n      pop\n      pop\n      pop\n      pop\n      pop\n      swap1\n      dup1\n      0x01\n      add\n      0x00\n      swap1\n      sload\n      swap1\n      0x0100\n      exp\n      swap1\n      div\n      0xffffffff\n      and\n      swap1\n      dup1\n      0x01\n      add\n      0x04\n      swap1\n      sload\n      swap1\n      0x0100\n      exp\n      swap1\n      div\n      0xffff\n      and\n      swap1\n      dup1\n      0x02\n      add\n      sload\n      swap1\n      pop\n      dup5\n      jump\t// out\n    tag_23:\n      dup3\n      dup1\n      sload\n      tag_42\n      swap1\n      tag_30\n      jump\t// in\n    tag_42:\n      swap1\n      0x00\n      mstore\n      keccak256(0x00, 0x20)\n      swap1\n      0x1f\n      add\n      0x20\n      swap1\n      div\n      dup2\n      add\n      swap3\n      dup3\n      tag_44\n      jumpi\n      0x00\n      dup6\n      sstore\n      jump(tag_43)\n    tag_44:\n      dup3\n      0x1f\n      lt\n      tag_45\n      jumpi\n      dup1\n      mload\n      not(0xff)\n      and\n      dup4\n      dup1\n      add\n      or\n      dup6\n      sstore\n      jump(tag_43)\n    tag_45:\n      dup3\n      dup1\n      add\n      0x01\n      add\n      dup6\n      sstore\n      dup3\n      iszero\n      tag_43\n      jumpi\n      swap2\n      dup3\n      add\n    tag_46:\n      dup3\n      dup2\n      gt\n      iszero\n      tag_47\n      jumpi\n      dup3\n      mload\n      dup3\n      sstore\n      swap2\n      0x20\n      add\n      swap2\n      swap1\n      0x01\n      add\n      swap1\n      jump(tag_46)\n    tag_47:\n    tag_43:\n      pop\n      swap1\n      pop\n      tag_48\n      swap2\n      swap1\n      tag_49\n      jump\t// in\n    tag_48:\n      pop\n      swap1\n      jump\t// out\n    tag_49:\n    tag_50:\n      dup1\n      dup3\n      gt\n      iszero\n      tag_51\n      jumpi\n      0x00\n      dup2\n      0x00\n      swap1\n      sstore\n      pop\n      0x01\n      add\n      jump(tag_50)\n    tag_51:\n      pop\n      swap1\n      jump\t// out\n        /* \"#utility.yul\":7:419   */\n    tag_53:\n        /* \"#utility.yul\":85:90   */\n      0x00\n        /* \"#utility.yul\":110:176   */\n      tag_55\n        /* \"#utility.yul\":126:175   */\n      tag_56\n        /* \"#utility.yul\":168:174   */\n      dup5\n        /* \"#utility.yul\":126:175   */\n      tag_57\n      jump\t// in\n    tag_56:\n        /* \"#utility.yul\":110:176   */\n      tag_58\n      jump\t// in\n    tag_55:\n        /* \"#utility.yul\":101:176   */\n      swap1\n      pop\n        /* \"#utility.yul\":199:205   */\n      dup3\n        /* \"#utility.yul\":192:197   */\n      dup2\n        /* \"#utility.yul\":185:206   */\n      mstore\n        /* \"#utility.yul\":237:241   */\n      0x20\n        /* \"#utility.yul\":230:235   */\n      dup2\n        /* \"#utility.yul\":226:242   */\n      add\n        /* \"#utility.yul\":275:278   */\n      dup5\n        /* \"#utility.yul\":266:272   */\n      dup5\n        /* \"#utility.yul\":261:264   */\n      dup5\n        /* \"#utility.yul\":257:273   */\n      add\n        /* \"#utility.yul\":254:279   */\n      gt\n        /* \"#utility.yul\":251:363   */\n      iszero\n      tag_59\n      jumpi\n        /* \"#utility.yul\":282:361   */\n      tag_60\n      tag_61\n      jump\t// in\n    tag_60:\n        /* \"#utility.yul\":251:363   */\n    tag_59:\n        /* \"#utility.yul\":372:413   */\n      tag_62\n        /* \"#utility.yul\":406:412   */\n      dup5\n        /* \"#utility.yul\":401:404   */\n      dup3\n        /* \"#utility.yul\":396:399   */\n      dup6\n        /* \"#utility.yul\":372:413   */\n      tag_63\n      jump\t// in\n    tag_62:\n        /* \"#utility.yul\":91:419   */\n      pop\n        /* \"#utility.yul\":7:419   */\n      swap4\n      swap3\n      pop\n      pop\n      pop\n      jump\t// out\n        /* \"#utility.yul\":439:779   */\n    tag_64:\n        /* \"#utility.yul\":495:500   */\n      0x00\n        /* \"#utility.yul\":544:547   */\n      dup3\n        /* \"#utility.yul\":537:541   */\n      0x1f\n        /* \"#utility.yul\":529:535   */\n      dup4\n        /* \"#utility.yul\":525:542   */\n      add\n        /* \"#utility.yul\":521:548   */\n      slt\n        /* \"#utility.yul\":511:633   */\n      tag_66\n      jumpi\n        /* \"#utility.yul\":552:631   */\n      tag_67\n      tag_68\n      jump\t// in\n    tag_67:\n        /* \"#utility.yul\":511:633   */\n    tag_66:\n        /* \"#utility.yul\":669:675   */\n      dup2\n        /* \"#utility.yul\":656:676   */\n      calldataload\n        /* \"#utility.yul\":694:773   */\n      tag_69\n        /* \"#utility.yul\":769:772   */\n      dup5\n        /* \"#utility.yul\":761:767   */\n      dup3\n        /* \"#utility.yul\":754:758   */\n      0x20\n        /* \"#utility.yul\":746:752   */\n      dup7\n        /* \"#utility.yul\":742:759   */\n      add\n        /* \"#utility.yul\":694:773   */\n      tag_53\n      jump\t// in\n    tag_69:\n        /* \"#utility.yul\":685:773   */\n      swap2\n      pop\n        /* \"#utility.yul\":501:779   */\n      pop\n        /* \"#utility.yul\":439:779   */\n      swap3\n      swap2\n      pop\n      pop\n      jump\t// out\n        /* \"#utility.yul\":785:922   */\n    tag_70:\n        /* \"#utility.yul\":830:835   */\n      0x00\n        /* \"#utility.yul\":868:874   */\n      dup2\n        /* \"#utility.yul\":855:875   */\n      calldataload\n        /* \"#utility.yul\":846:875   */\n      swap1\n      pop\n        /* \"#utility.yul\":884:916   */\n      tag_72\n        /* \"#utility.yul\":910:915   */\n      dup2\n        /* \"#utility.yul\":884:916   */\n      tag_73\n      jump\t// in\n    tag_72:\n        /* \"#utility.yul\":785:922   */\n      swap3\n      swap2\n      pop\n      pop\n      jump\t// out\n        /* \"#utility.yul\":928:1067   */\n    tag_74:\n        /* \"#utility.yul\":974:979   */\n      0x00\n        /* \"#utility.yul\":1012:1018   */\n      dup2\n        /* \"#utility.yul\":999:1019   */\n      calldataload\n        /* \"#utility.yul\":990:1019   */\n      swap1\n      pop\n        /* \"#utility.yul\":1028:1061   */\n      tag_76\n        /* \"#utility.yul\":1055:1060   */\n      dup2\n        /* \"#utility.yul\":1028:1061   */\n      tag_77\n      jump\t// in\n    tag_76:\n        /* \"#utility.yul\":928:1067   */\n      swap3\n      swap2\n      pop\n      pop\n      jump\t// out\n        /* \"#utility.yul\":1073:1210   */\n    tag_78:\n        /* \"#utility.yul\":1118:1123   */\n      0x00\n        /* \"#utility.yul\":1156:1162   */\n      dup2\n        /* \"#utility.yul\":1143:1163   */\n      calldataload\n        /* \"#utility.yul\":1134:1163   */\n      swap1\n      pop\n        /* \"#utility.yul\":1172:1204   */\n      tag_80\n        /* \"#utility.yul\":1198:1203   */\n      dup2\n        /* \"#utility.yul\":1172:1204   */\n      tag_81\n      jump\t// in\n    tag_80:\n        /* \"#utility.yul\":1073:1210   */\n      swap3\n      swap2\n      pop\n      pop\n      jump\t// out\n        /* \"#utility.yul\":1216:2157   */\n    tag_8:\n        /* \"#utility.yul\":1310:1316   */\n      0x00\n        /* \"#utility.yul\":1318:1324   */\n      dup1\n        /* \"#utility.yul\":1326:1332   */\n      0x00\n        /* \"#utility.yul\":1334:1340   */\n      dup1\n        /* \"#utility.yul\":1383:1386   */\n      0x80\n        /* \"#utility.yul\":1371:1380   */\n      dup6\n        /* \"#utility.yul\":1362:1369   */\n      dup8\n        /* \"#utility.yul\":1358:1381   */\n      sub\n        /* \"#utility.yul\":1354:1387   */\n      slt\n        /* \"#utility.yul\":1351:1471   */\n      iszero\n      tag_83\n      jumpi\n        /* \"#utility.yul\":1390:1469   */\n      tag_84\n      tag_85\n      jump\t// in\n    tag_84:\n        /* \"#utility.yul\":1351:1471   */\n    tag_83:\n        /* \"#utility.yul\":1538:1539   */\n      0x00\n        /* \"#utility.yul\":1527:1536   */\n      dup6\n        /* \"#utility.yul\":1523:1540   */\n      add\n        /* \"#utility.yul\":1510:1541   */\n      calldataload\n        /* \"#utility.yul\":1568:1586   */\n      0xffffffffffffffff\n        /* \"#utility.yul\":1560:1566   */\n      dup2\n        /* \"#utility.yul\":1557:1587   */\n      gt\n        /* \"#utility.yul\":1554:1671   */\n      iszero\n      tag_86\n      jumpi\n        /* \"#utility.yul\":1590:1669   */\n      tag_87\n      tag_88\n      jump\t// in\n    tag_87:\n        /* \"#utility.yul\":1554:1671   */\n    tag_86:\n        /* \"#utility.yul\":1695:1758   */\n      tag_89\n        /* \"#utility.yul\":1750:1757   */\n      dup8\n        /* \"#utility.yul\":1741:1747   */\n      dup3\n        /* \"#utility.yul\":1730:1739   */\n      dup9\n        /* \"#utility.yul\":1726:1748   */\n      add\n        /* \"#utility.yul\":1695:1758   */\n      tag_64\n      jump\t// in\n    tag_89:\n        /* \"#utility.yul\":1685:1758   */\n      swap5\n      pop\n        /* \"#utility.yul\":1481:1768   */\n      pop\n        /* \"#utility.yul\":1807:1809   */\n      0x20\n        /* \"#utility.yul\":1833:1885   */\n      tag_90\n        /* \"#utility.yul\":1877:1884   */\n      dup8\n        /* \"#utility.yul\":1868:1874   */\n      dup3\n        /* \"#utility.yul\":1857:1866   */\n      dup9\n        /* \"#utility.yul\":1853:1875   */\n      add\n        /* \"#utility.yul\":1833:1885   */\n      tag_78\n      jump\t// in\n    tag_90:\n        /* \"#utility.yul\":1823:1885   */\n      swap4\n      pop\n        /* \"#utility.yul\":1778:1895   */\n      pop\n        /* \"#utility.yul\":1934:1936   */\n      0x40\n        /* \"#utility.yul\":1960:2012   */\n      tag_91\n        /* \"#utility.yul\":2004:2011   */\n      dup8\n        /* \"#utility.yul\":1995:2001   */\n      dup3\n        /* \"#utility.yul\":1984:1993   */\n      dup9\n        /* \"#utility.yul\":1980:2002   */\n      add\n        /* \"#utility.yul\":1960:2012   */\n      tag_70\n      jump\t// in\n    tag_91:\n        /* \"#utility.yul\":1950:2012   */\n      swap3\n      pop\n        /* \"#utility.yul\":1905:2022   */\n      pop\n        /* \"#utility.yul\":2061:2063   */\n      0x60\n        /* \"#utility.yul\":2087:2140   */\n      tag_92\n        /* \"#utility.yul\":2132:2139   */\n      dup8\n        /* \"#utility.yul\":2123:2129   */\n      dup3\n        /* \"#utility.yul\":2112:2121   */\n      dup9\n        /* \"#utility.yul\":2108:2130   */\n      add\n        /* \"#utility.yul\":2087:2140   */\n      tag_74\n      jump\t// in\n    tag_92:\n        /* \"#utility.yul\":2077:2140   */\n      swap2\n      pop\n        /* \"#utility.yul\":2032:2150   */\n      pop\n        /* \"#utility.yul\":1216:2157   */\n      swap3\n      swap6\n      swap2\n      swap5\n      pop\n      swap3\n      pop\n      jump\t// out\n        /* \"#utility.yul\":2163:2492   */\n    tag_12:\n        /* \"#utility.yul\":2222:2228   */\n      0x00\n        /* \"#utility.yul\":2271:2273   */\n      0x20\n        /* \"#utility.yul\":2259:2268   */\n      dup3\n        /* \"#utility.yul\":2250:2257   */\n      dup5\n        /* \"#utility.yul\":2246:2269   */\n      sub\n        /* \"#utility.yul\":2242:2274   */\n      slt\n        /* \"#utility.yul\":2239:2358   */\n      iszero\n      tag_94\n      jumpi\n        /* \"#utility.yul\":2277:2356   */\n      tag_95\n      tag_85\n      jump\t// in\n    tag_95:\n        /* \"#utility.yul\":2239:2358   */\n    tag_94:\n        /* \"#utility.yul\":2397:2398   */\n      0x00\n        /* \"#utility.yul\":2422:2475   */\n      tag_96\n        /* \"#utility.yul\":2467:2474   */\n      dup5\n        /* \"#utility.yul\":2458:2464   */\n      dup3\n        /* \"#utility.yul\":2447:2456   */\n      dup6\n        /* \"#utility.yul\":2443:2465   */\n      add\n        /* \"#utility.yul\":2422:2475   */\n      tag_74\n      jump\t// in\n    tag_96:\n        /* \"#utility.yul\":2412:2475   */\n      swap2\n      pop\n        /* \"#utility.yul\":2368:2485   */\n      pop\n        /* \"#utility.yul\":2163:2492   */\n      swap3\n      swap2\n      pop\n      pop\n      jump\t// out\n        /* \"#utility.yul\":2498:2862   */\n    tag_97:\n        /* \"#utility.yul\":2586:2589   */\n      0x00\n        /* \"#utility.yul\":2614:2653   */\n      tag_99\n        /* \"#utility.yul\":2647:2652   */\n      dup3\n        /* \"#utility.yul\":2614:2653   */\n      tag_100\n      jump\t// in\n    tag_99:\n        /* \"#utility.yul\":2669:2740   */\n      tag_101\n        /* \"#utility.yul\":2733:2739   */\n      dup2\n        /* \"#utility.yul\":2728:2731   */\n      dup6\n        /* \"#utility.yul\":2669:2740   */\n      tag_102\n      jump\t// in\n    tag_101:\n        /* \"#utility.yul\":2662:2740   */\n      swap4\n      pop\n        /* \"#utility.yul\":2749:2801   */\n      tag_103\n        /* \"#utility.yul\":2794:2800   */\n      dup2\n        /* \"#utility.yul\":2789:2792   */\n      dup6\n        /* \"#utility.yul\":2782:2786   */\n      0x20\n        /* \"#utility.yul\":2775:2780   */\n      dup7\n        /* \"#utility.yul\":2771:2787   */\n      add\n        /* \"#utility.yul\":2749:2801   */\n      tag_104\n      jump\t// in\n    tag_103:\n        /* \"#utility.yul\":2826:2855   */\n      tag_105\n        /* \"#utility.yul\":2848:2854   */\n      dup2\n        /* \"#utility.yul\":2826:2855   */\n      tag_106\n      jump\t// in\n    tag_105:\n        /* \"#utility.yul\":2821:2824   */\n      dup5\n        /* \"#utility.yul\":2817:2856   */\n      add\n        /* \"#utility.yul\":2810:2856   */\n      swap2\n      pop\n        /* \"#utility.yul\":2590:2862   */\n      pop\n        /* \"#utility.yul\":2498:2862   */\n      swap3\n      swap2\n      pop\n      pop\n      jump\t// out\n        /* \"#utility.yul\":2868:2983   */\n    tag_107:\n        /* \"#utility.yul\":2953:2976   */\n      tag_109\n        /* \"#utility.yul\":2970:2975   */\n      dup2\n        /* \"#utility.yul\":2953:2976   */\n      tag_110\n      jump\t// in\n    tag_109:\n        /* \"#utility.yul\":2948:2951   */\n      dup3\n        /* \"#utility.yul\":2941:2977   */\n      mstore\n        /* \"#utility.yul\":2868:2983   */\n      pop\n      pop\n      jump\t// out\n        /* \"#utility.yul\":2989:3107   */\n    tag_111:\n        /* \"#utility.yul\":3076:3100   */\n      tag_113\n        /* \"#utility.yul\":3094:3099   */\n      dup2\n        /* \"#utility.yul\":3076:3100   */\n      tag_114\n      jump\t// in\n    tag_113:\n        /* \"#utility.yul\":3071:3074   */\n      dup3\n        /* \"#utility.yul\":3064:3101   */\n      mstore\n        /* \"#utility.yul\":2989:3107   */\n      pop\n      pop\n      jump\t// out\n        /* \"#utility.yul\":3113:3228   */\n    tag_115:\n        /* \"#utility.yul\":3198:3221   */\n      tag_117\n        /* \"#utility.yul\":3215:3220   */\n      dup2\n        /* \"#utility.yul\":3198:3221   */\n      tag_118\n      jump\t// in\n    tag_117:\n        /* \"#utility.yul\":3193:3196   */\n      dup3\n        /* \"#utility.yul\":3186:3222   */\n      mstore\n        /* \"#utility.yul\":3113:3228   */\n      pop\n      pop\n      jump\t// out\n        /* \"#utility.yul\":3234:3870   */\n    tag_15:\n        /* \"#utility.yul\":3427:3431   */\n      0x00\n        /* \"#utility.yul\":3465:3468   */\n      0x80\n        /* \"#utility.yul\":3454:3463   */\n      dup3\n        /* \"#utility.yul\":3450:3469   */\n      add\n        /* \"#utility.yul\":3442:3469   */\n      swap1\n      pop\n        /* \"#utility.yul\":3515:3524   */\n      dup2\n        /* \"#utility.yul\":3509:3513   */\n      dup2\n        /* \"#utility.yul\":3505:3525   */\n      sub\n        /* \"#utility.yul\":3501:3502   */\n      0x00\n        /* \"#utility.yul\":3490:3499   */\n      dup4\n        /* \"#utility.yul\":3486:3503   */\n      add\n        /* \"#utility.yul\":3479:3526   */\n      mstore\n        /* \"#utility.yul\":3543:3621   */\n      tag_120\n        /* \"#utility.yul\":3616:3620   */\n      dup2\n        /* \"#utility.yul\":3607:3613   */\n      dup8\n        /* \"#utility.yul\":3543:3621   */\n      tag_97\n      jump\t// in\n    tag_120:\n        /* \"#utility.yul\":3535:3621   */\n      swap1\n      pop\n        /* \"#utility.yul\":3631:3701   */\n      tag_121\n        /* \"#utility.yul\":3697:3699   */\n      0x20\n        /* \"#utility.yul\":3686:3695   */\n      dup4\n        /* \"#utility.yul\":3682:3700   */\n      add\n        /* \"#utility.yul\":3673:3679   */\n      dup7\n        /* \"#utility.yul\":3631:3701   */\n      tag_115\n      jump\t// in\n    tag_121:\n        /* \"#utility.yul\":3711:3781   */\n      tag_122\n        /* \"#utility.yul\":3777:3779   */\n      0x40\n        /* \"#utility.yul\":3766:3775   */\n      dup4\n        /* \"#utility.yul\":3762:3780   */\n      add\n        /* \"#utility.yul\":3753:3759   */\n      dup6\n        /* \"#utility.yul\":3711:3781   */\n      tag_107\n      jump\t// in\n    tag_122:\n        /* \"#utility.yul\":3791:3863   */\n      tag_123\n        /* \"#utility.yul\":3859:3861   */\n      0x60\n        /* \"#utility.yul\":3848:3857   */\n      dup4\n        /* \"#utility.yul\":3844:3862   */\n      add\n        /* \"#utility.yul\":3835:3841   */\n      dup5\n        /* \"#utility.yul\":3791:3863   */\n      tag_111\n      jump\t// in\n    tag_123:\n        /* \"#utility.yul\":3234:3870   */\n      swap6\n      swap5\n      pop\n      pop\n      pop\n      pop\n      pop\n      jump\t// out\n        /* \"#utility.yul\":3876:4005   */\n    tag_58:\n        /* \"#utility.yul\":3910:3916   */\n      0x00\n        /* \"#utility.yul\":3937:3957   */\n      tag_125\n      tag_126\n      jump\t// in\n    tag_125:\n        /* \"#utility.yul\":3927:3957   */\n      swap1\n      pop\n        /* \"#utility.yul\":3966:3999   */\n      tag_127\n        /* \"#utility.yul\":3994:3998   */\n      dup3\n        /* \"#utility.yul\":3986:3992   */\n      dup3\n        /* \"#utility.yul\":3966:3999   */\n      tag_128\n      jump\t// in\n    tag_127:\n        /* \"#utility.yul\":3876:4005   */\n      swap2\n      swap1\n      pop\n      jump\t// out\n        /* \"#utility.yul\":4011:4086   */\n    tag_126:\n        /* \"#utility.yul\":4044:4050   */\n      0x00\n        /* \"#utility.yul\":4077:4079   */\n      0x40\n        /* \"#utility.yul\":4071:4080   */\n      mload\n        /* \"#utility.yul\":4061:4080   */\n      swap1\n      pop\n        /* \"#utility.yul\":4011:4086   */\n      swap1\n      jump\t// out\n        /* \"#utility.yul\":4092:4400   */\n    tag_57:\n        /* \"#utility.yul\":4154:4158   */\n      0x00\n        /* \"#utility.yul\":4244:4262   */\n      0xffffffffffffffff\n        /* \"#utility.yul\":4236:4242   */\n      dup3\n        /* \"#utility.yul\":4233:4263   */\n      gt\n        /* \"#utility.yul\":4230:4286   */\n      iszero\n      tag_131\n      jumpi\n        /* \"#utility.yul\":4266:4284   */\n      tag_132\n      tag_133\n      jump\t// in\n    tag_132:\n        /* \"#utility.yul\":4230:4286   */\n    tag_131:\n        /* \"#utility.yul\":4304:4333   */\n      tag_134\n        /* \"#utility.yul\":4326:4332   */\n      dup3\n        /* \"#utility.yul\":4304:4333   */\n      tag_106\n      jump\t// in\n    tag_134:\n        /* \"#utility.yul\":4296:4333   */\n      swap1\n      pop\n        /* \"#utility.yul\":4388:4392   */\n      0x20\n        /* \"#utility.yul\":4382:4386   */\n      dup2\n        /* \"#utility.yul\":4378:4393   */\n      add\n        /* \"#utility.yul\":4370:4393   */\n      swap1\n      pop\n        /* \"#utility.yul\":4092:4400   */\n      swap2\n      swap1\n      pop\n      jump\t// out\n        /* \"#utility.yul\":4406:4505   */\n    tag_100:\n        /* \"#utility.yul\":4458:4464   */\n      0x00\n        /* \"#utility.yul\":4492:4497   */\n      dup2\n        /* \"#utility.yul\":4486:4498   */\n      mload\n        /* \"#utility.yul\":4476:4498   */\n      swap1\n      pop\n        /* \"#utility.yul\":4406:4505   */\n      swap2\n      swap1\n      pop\n      jump\t// out\n        /* \"#utility.yul\":4511:4680   */\n    tag_102:\n        /* \"#utility.yul\":4595:4606   */\n      0x00\n        /* \"#utility.yul\":4629:4635   */\n      dup3\n        /* \"#utility.yul\":4624:4627   */\n      dup3\n        /* \"#utility.yul\":4617:4636   */\n      mstore\n        /* \"#utility.yul\":4669:4673   */\n      0x20\n        /* \"#utility.yul\":4664:4667   */\n      dup3\n        /* \"#utility.yul\":4660:4674   */\n      add\n        /* \"#utility.yul\":4645:4674   */\n      swap1\n      pop\n        /* \"#utility.yul\":4511:4680   */\n      swap3\n      swap2\n      pop\n      pop\n      jump\t// out\n        /* \"#utility.yul\":4686:4775   */\n    tag_110:\n        /* \"#utility.yul\":4722:4729   */\n      0x00\n        /* \"#utility.yul\":4762:4768   */\n      0xffff\n        /* \"#utility.yul\":4755:4760   */\n      dup3\n        /* \"#utility.yul\":4751:4769   */\n      and\n        /* \"#utility.yul\":4740:4769   */\n      swap1\n      pop\n        /* \"#utility.yul\":4686:4775   */\n      swap2\n      swap1\n      pop\n      jump\t// out\n        /* \"#utility.yul\":4781:4858   */\n    tag_114:\n        /* \"#utility.yul\":4818:4825   */\n      0x00\n        /* \"#utility.yul\":4847:4852   */\n      dup2\n        /* \"#utility.yul\":4836:4852   */\n      swap1\n      pop\n        /* \"#utility.yul\":4781:4858   */\n      swap2\n      swap1\n      pop\n      jump\t// out\n        /* \"#utility.yul\":4864:4957   */\n    tag_118:\n        /* \"#utility.yul\":4900:4907   */\n      0x00\n        /* \"#utility.yul\":4940:4950   */\n      0xffffffff\n        /* \"#utility.yul\":4933:4938   */\n      dup3\n        /* \"#utility.yul\":4929:4951   */\n      and\n        /* \"#utility.yul\":4918:4951   */\n      swap1\n      pop\n        /* \"#utility.yul\":4864:4957   */\n      swap2\n      swap1\n      pop\n      jump\t// out\n        /* \"#utility.yul\":4963:5117   */\n    tag_63:\n        /* \"#utility.yul\":5047:5053   */\n      dup3\n        /* \"#utility.yul\":5042:5045   */\n      dup2\n        /* \"#utility.yul\":5037:5040   */\n      dup4\n        /* \"#utility.yul\":5024:5054   */\n      calldatacopy\n        /* \"#utility.yul\":5109:5110   */\n      0x00\n        /* \"#utility.yul\":5100:5106   */\n      dup4\n        /* \"#utility.yul\":5095:5098   */\n      dup4\n        /* \"#utility.yul\":5091:5107   */\n      add\n        /* \"#utility.yul\":5084:5111   */\n      mstore\n        /* \"#utility.yul\":4963:5117   */\n      pop\n      pop\n      pop\n      jump\t// out\n        /* \"#utility.yul\":5123:5430   */\n    tag_104:\n        /* \"#utility.yul\":5191:5192   */\n      0x00\n        /* \"#utility.yul\":5201:5314   */\n    tag_142:\n        /* \"#utility.yul\":5215:5221   */\n      dup4\n        /* \"#utility.yul\":5212:5213   */\n      dup2\n        /* \"#utility.yul\":5209:5222   */\n      lt\n        /* \"#utility.yul\":5201:5314   */\n      iszero\n      tag_144\n      jumpi\n        /* \"#utility.yul\":5300:5301   */\n      dup1\n        /* \"#utility.yul\":5295:5298   */\n      dup3\n        /* \"#utility.yul\":5291:5302   */\n      add\n        /* \"#utility.yul\":5285:5303   */\n      mload\n        /* \"#utility.yul\":5281:5282   */\n      dup2\n        /* \"#utility.yul\":5276:5279   */\n      dup5\n        /* \"#utility.yul\":5272:5283   */\n      add\n        /* \"#utility.yul\":5265:5304   */\n      mstore\n        /* \"#utility.yul\":5237:5239   */\n      0x20\n        /* \"#utility.yul\":5234:5235   */\n      dup2\n        /* \"#utility.yul\":5230:5240   */\n      add\n        /* \"#utility.yul\":5225:5240   */\n      swap1\n      pop\n        /* \"#utility.yul\":5201:5314   */\n      jump(tag_142)\n    tag_144:\n        /* \"#utility.yul\":5332:5338   */\n      dup4\n        /* \"#utility.yul\":5329:5330   */\n      dup2\n        /* \"#utility.yul\":5326:5339   */\n      gt\n        /* \"#utility.yul\":5323:5424   */\n      iszero\n      tag_145\n      jumpi\n        /* \"#utility.yul\":5412:5413   */\n      0x00\n        /* \"#utility.yul\":5403:5409   */\n      dup5\n        /* \"#utility.yul\":5398:5401   */\n      dup5\n        /* \"#utility.yul\":5394:5410   */\n      add\n        /* \"#utility.yul\":5387:5414   */\n      mstore\n        /* \"#utility.yul\":5323:5424   */\n    tag_145:\n        /* \"#utility.yul\":5172:5430   */\n      pop\n        /* \"#utility.yul\":5123:5430   */\n      pop\n      pop\n      pop\n      jump\t// out\n        /* \"#utility.yul\":5436:5756   */\n    tag_30:\n        /* \"#utility.yul\":5480:5486   */\n      0x00\n        /* \"#utility.yul\":5517:5518   */\n      0x02\n        /* \"#utility.yul\":5511:5515   */\n      dup3\n        /* \"#utility.yul\":5507:5519   */\n      div\n        /* \"#utility.yul\":5497:5519   */\n      swap1\n      pop\n        /* \"#utility.yul\":5564:5565   */\n      0x01\n        /* \"#utility.yul\":5558:5562   */\n      dup3\n        /* \"#utility.yul\":5554:5566   */\n      and\n        /* \"#utility.yul\":5585:5603   */\n      dup1\n        /* \"#utility.yul\":5575:5656   */\n      tag_147\n      jumpi\n        /* \"#utility.yul\":5641:5645   */\n      0x7f\n        /* \"#utility.yul\":5633:5639   */\n      dup3\n        /* \"#utility.yul\":5629:5646   */\n      and\n        /* \"#utility.yul\":5619:5646   */\n      swap2\n      pop\n        /* \"#utility.yul\":5575:5656   */\n    tag_147:\n        /* \"#utility.yul\":5703:5705   */\n      0x20\n        /* \"#utility.yul\":5695:5701   */\n      dup3\n        /* \"#utility.yul\":5692:5706   */\n      lt\n        /* \"#utility.yul\":5672:5690   */\n      dup2\n        /* \"#utility.yul\":5669:5707   */\n      eq\n        /* \"#utility.yul\":5666:5750   */\n      iszero\n      tag_148\n      jumpi\n        /* \"#utility.yul\":5722:5740   */\n      tag_149\n      tag_150\n      jump\t// in\n    tag_149:\n        /* \"#utility.yul\":5666:5750   */\n    tag_148:\n        /* \"#utility.yul\":5487:5756   */\n      pop\n        /* \"#utility.yul\":5436:5756   */\n      swap2\n      swap1\n      pop\n      jump\t// out\n        /* \"#utility.yul\":5762:6043   */\n    tag_128:\n        /* \"#utility.yul\":5845:5872   */\n      tag_152\n        /* \"#utility.yul\":5867:5871   */\n      dup3\n        /* \"#utility.yul\":5845:5872   */\n      tag_106\n      jump\t// in\n    tag_152:\n        /* \"#utility.yul\":5837:5843   */\n      dup2\n        /* \"#utility.yul\":5833:5873   */\n      add\n        /* \"#utility.yul\":5975:5981   */\n      dup2\n        /* \"#utility.yul\":5963:5973   */\n      dup2\n        /* \"#utility.yul\":5960:5982   */\n      lt\n        /* \"#utility.yul\":5939:5957   */\n      0xffffffffffffffff\n        /* \"#utility.yul\":5927:5937   */\n      dup3\n        /* \"#utility.yul\":5924:5958   */\n      gt\n        /* \"#utility.yul\":5921:5983   */\n      or\n        /* \"#utility.yul\":5918:6006   */\n      iszero\n      tag_153\n      jumpi\n        /* \"#utility.yul\":5986:6004   */\n      tag_154\n      tag_133\n      jump\t// in\n    tag_154:\n        /* \"#utility.yul\":5918:6006   */\n    tag_153:\n        /* \"#utility.yul\":6026:6036   */\n      dup1\n        /* \"#utility.yul\":6022:6024   */\n      0x40\n        /* \"#utility.yul\":6015:6037   */\n      mstore\n        /* \"#utility.yul\":5805:6043   */\n      pop\n        /* \"#utility.yul\":5762:6043   */\n      pop\n      pop\n      jump\t// out\n        /* \"#utility.yul\":6049:6229   */\n    tag_150:\n        /* \"#utility.yul\":6097:6174   */\n      0x4e487b7100000000000000000000000000000000000000000000000000000000\n        /* \"#utility.yul\":6094:6095   */\n      0x00\n        /* \"#utility.yul\":6087:6175   */\n      mstore\n        /* \"#utility.yul\":6194:6198   */\n      0x22\n        /* \"#utility.yul\":6191:6192   */\n      0x04\n        /* \"#utility.yul\":6184:6199   */\n      mstore\n        /* \"#utility.yul\":6218:6222   */\n      0x24\n        /* \"#utility.yul\":6215:6216   */\n      0x00\n        /* \"#utility.yul\":6208:6223   */\n      revert\n        /* \"#utility.yul\":6235:6415   */\n    tag_27:\n        /* \"#utility.yul\":6283:6360   */\n      0x4e487b7100000000000000000000000000000000000000000000000000000000\n        /* \"#utility.yul\":6280:6281   */\n      0x00\n        /* \"#utility.yul\":6273:6361   */\n      mstore\n        /* \"#utility.yul\":6380:6384   */\n      0x32\n        /* \"#utility.yul\":6377:6378   */\n      0x04\n        /* \"#utility.yul\":6370:6385   */\n      mstore\n        /* \"#utility.yul\":6404:6408   */\n      0x24\n        /* \"#utility.yul\":6401:6402   */\n      0x00\n        /* \"#utility.yul\":6394:6409   */\n      revert\n        /* \"#utility.yul\":6421:6601   */\n    tag_133:\n        /* \"#utility.yul\":6469:6546   */\n      0x4e487b7100000000000000000000000000000000000000000000000000000000\n        /* \"#utility.yul\":6466:6467   */\n      0x00\n        /* \"#utility.yul\":6459:6547   */\n      mstore\n        /* \"#utility.yul\":6566:6570   */\n      0x41\n        /* \"#utility.yul\":6563:6564   */\n      0x04\n        /* \"#utility.yul\":6556:6571   */\n      mstore\n        /* \"#utility.yul\":6590:6594   */\n      0x24\n        /* \"#utility.yul\":6587:6588   */\n      0x00\n        /* \"#utility.yul\":6580:6595   */\n      revert\n        /* \"#utility.yul\":6607:6724   */\n    tag_68:\n        /* \"#utility.yul\":6716:6717   */\n      0x00\n        /* \"#utility.yul\":6713:6714   */\n      dup1\n        /* \"#utility.yul\":6706:6718   */\n      revert\n        /* \"#utility.yul\":6730:6847   */\n    tag_61:\n        /* \"#utility.yul\":6839:6840   */\n      0x00\n        /* \"#utility.yul\":6836:6837   */\n      dup1\n        /* \"#utility.yul\":6829:6841   */\n      revert\n        /* \"#utility.yul\":6853:6970   */\n    tag_88:\n        /* \"#utility.yul\":6962:6963   */\n      0x00\n        /* \"#utility.yul\":6959:6960   */\n      dup1\n        /* \"#utility.yul\":6952:6964   */\n      revert\n        /* \"#utility.yul\":6976:7093   */\n    tag_85:\n        /* \"#utility.yul\":7085:7086   */\n      0x00\n        /* \"#utility.yul\":7082:7083   */\n      dup1\n        /* \"#utility.yul\":7075:7087   */\n      revert\n        /* \"#utility.yul\":7099:7201   */\n    tag_106:\n        /* \"#utility.yul\":7140:7146   */\n      0x00\n        /* \"#utility.yul\":7191:7193   */\n      0x1f\n        /* \"#utility.yul\":7187:7194   */\n      not\n        /* \"#utility.yul\":7182:7184   */\n      0x1f\n        /* \"#utility.yul\":7175:7180   */\n      dup4\n        /* \"#utility.yul\":7171:7185   */\n      add\n        /* \"#utility.yul\":7167:7195   */\n      and\n        /* \"#utility.yul\":7157:7195   */\n      swap1\n      pop\n        /* \"#utility.yul\":7099:7201   */\n      swap2\n      swap1\n      pop\n      jump\t// out\n        /* \"#utility.yul\":7207:7327   */\n    tag_73:\n        /* \"#utility.yul\":7279:7302   */\n      tag_164\n        /* \"#utility.yul\":7296:7301   */\n      dup2\n        /* \"#utility.yul\":7279:7302   */\n      tag_110\n      jump\t// in\n    tag_164:\n        /* \"#utility.yul\":7272:7277   */\n      dup2\n        /* \"#utility.yul\":7269:7303   */\n      eq\n        /* \"#utility.yul\":7259:7321   */\n      tag_165\n      jumpi\n        /* \"#utility.yul\":7317:7318   */\n      0x00\n        /* \"#utility.yul\":7314:7315   */\n      dup1\n        /* \"#utility.yul\":7307:7319   */\n      revert\n        /* \"#utility.yul\":7259:7321   */\n    tag_165:\n        /* \"#utility.yul\":7207:7327   */\n      pop\n      jump\t// out\n        /* \"#utility.yul\":7333:7455   */\n    tag_77:\n        /* \"#utility.yul\":7406:7430   */\n      tag_167\n        /* \"#utility.yul\":7424:7429   */\n      dup2\n        /* \"#utility.yul\":7406:7430   */\n      tag_114\n      jump\t// in\n    tag_167:\n        /* \"#utility.yul\":7399:7404   */\n      dup2\n        /* \"#utility.yul\":7396:7431   */\n      eq\n        /* \"#utility.yul\":7386:7449   */\n      tag_168\n      jumpi\n        /* \"#utility.yul\":7445:7446   */\n      0x00\n        /* \"#utility.yul\":7442:7443   */\n      dup1\n        /* \"#utility.yul\":7435:7447   */\n      revert\n        /* \"#utility.yul\":7386:7449   */\n    tag_168:\n        /* \"#utility.yul\":7333:7455   */\n      pop\n      jump\t// out\n        /* \"#utility.yul\":7461:7581   */\n    tag_81:\n        /* \"#utility.yul\":7533:7556   */\n      tag_170\n        /* \"#utility.yul\":7550:7555   */\n      dup2\n        /* \"#utility.yul\":7533:7556   */\n      tag_118\n      jump\t// in\n    tag_170:\n        /* \"#utility.yul\":7526:7531   */\n      dup2\n        /* \"#utility.yul\":7523:7557   */\n      eq\n        /* \"#utility.yul\":7513:7575   */\n      tag_171\n      jumpi\n        /* \"#utility.yul\":7571:7572   */\n      0x00\n        /* \"#utility.yul\":7568:7569   */\n      dup1\n        /* \"#utility.yul\":7561:7573   */\n      revert\n        /* \"#utility.yul\":7513:7575   */\n    tag_171:\n        /* \"#utility.yul\":7461:7581   */\n      pop\n      jump\t// out\n\n    auxdata: 0xa2646970667358221220a54e171b55d7121d8e0c8313ebe528440cf3d1a8ecdd3d9e5bfab5b6afc25a1764736f6c63430008070033\n}\n",
				"bytecode": {
					"linkReferences": {},
					"object": "608060405234801561001057600080fd5b506108da806100206000396000f3fe608060405234801561001057600080fd5b50600436106100415760003560e01c80632eecfcda146100465780636c9958e014610062578063d3729ff614610095575b600080fd5b610060600480360381019061005b919061050c565b6100c8565b005b61007c6004803603810190610077919061058f565b610197565b60405161008c9493929190610622565b60405180910390f35b6100af60048036038101906100aa919061058f565b6102d4565b6040516100bf9493929190610622565b60405180910390f35b600060405180608001604052808681526020018563ffffffff1681526020018461ffff168152602001838152509080600181540180825580915050600190039060005260206000209060030201600090919091909150600082015181600001908051906020019061013a9291906103ba565b5060208201518160010160006101000a81548163ffffffff021916908363ffffffff16021790555060408201518160010160046101000a81548161ffff021916908361ffff16021790555060608201518160020155505050505050565b6060600080600080600086815481106101b3576101b26107dc565b5b90600052602060002090600302016040518060800160405290816000820180546101dc9061074a565b80601f01602080910402602001604051908101604052809291908181526020018280546102089061074a565b80156102555780601f1061022a57610100808354040283529160200191610255565b820191906000526020600020905b81548152906001019060200180831161023857829003601f168201915b505050505081526020016001820160009054906101000a900463ffffffff1663ffffffff1663ffffffff1681526020016001820160049054906101000a900461ffff1661ffff1661ffff168152602001600282015481525050905080600001518160200151826040015183606001519450945094509450509193509193565b600081815481106102e457600080fd5b90600052602060002090600302016000915090508060000180546103079061074a565b80601f01602080910402602001604051908101604052809291908181526020018280546103339061074a565b80156103805780601f1061035557610100808354040283529160200191610380565b820191906000526020600020905b81548152906001019060200180831161036357829003601f168201915b5050505050908060010160009054906101000a900463ffffffff16908060010160049054906101000a900461ffff16908060020154905084565b8280546103c69061074a565b90600052602060002090601f0160209004810192826103e8576000855561042f565b82601f1061040157805160ff191683800117855561042f565b8280016001018555821561042f579182015b8281111561042e578251825591602001919060010190610413565b5b50905061043c9190610440565b5090565b5b80821115610459576000816000905550600101610441565b5090565b600061047061046b84610693565b61066e565b90508281526020810184848401111561048c5761048b61083f565b5b610497848285610708565b509392505050565b600082601f8301126104b4576104b361083a565b5b81356104c484826020860161045d565b91505092915050565b6000813590506104dc8161085f565b92915050565b6000813590506104f181610876565b92915050565b6000813590506105068161088d565b92915050565b6000806000806080858703121561052657610525610849565b5b600085013567ffffffffffffffff81111561054457610543610844565b5b6105508782880161049f565b9450506020610561878288016104f7565b9350506040610572878288016104cd565b9250506060610583878288016104e2565b91505092959194509250565b6000602082840312156105a5576105a4610849565b5b60006105b3848285016104e2565b91505092915050565b60006105c7826106c4565b6105d181856106cf565b93506105e1818560208601610717565b6105ea8161084e565b840191505092915050565b6105fe816106e0565b82525050565b61060d816106ee565b82525050565b61061c816106f8565b82525050565b6000608082019050818103600083015261063c81876105bc565b905061064b6020830186610613565b61065860408301856105f5565b6106656060830184610604565b95945050505050565b6000610678610689565b9050610684828261077c565b919050565b6000604051905090565b600067ffffffffffffffff8211156106ae576106ad61080b565b5b6106b78261084e565b9050602081019050919050565b600081519050919050565b600082825260208201905092915050565b600061ffff82169050919050565b6000819050919050565b600063ffffffff82169050919050565b82818337600083830152505050565b60005b8381101561073557808201518184015260208101905061071a565b83811115610744576000848401525b50505050565b6000600282049050600182168061076257607f821691505b60208210811415610776576107756107ad565b5b50919050565b6107858261084e565b810181811067ffffffffffffffff821117156107a4576107a361080b565b5b80604052505050565b7f4e487b7100000000000000000000000000000000000000000000000000000000600052602260045260246000fd5b7f4e487b7100000000000000000000000000000000000000000000000000000000600052603260045260246000fd5b7f4e487b7100000000000000000000000000000000000000000000000000000000600052604160045260246000fd5b600080fd5b600080fd5b600080fd5b600080fd5b6000601f19601f8301169050919050565b610868816106e0565b811461087357600080fd5b50565b61087f816106ee565b811461088a57600080fd5b50565b610896816106f8565b81146108a157600080fd5b5056fea2646970667358221220a54e171b55d7121d8e0c8313ebe528440cf3d1a8ecdd3d9e5bfab5b6afc25a1764736f6c63430008070033",
					"opcodes": "PUSH1 0x80 PUSH1 0x40 MSTORE CALLVALUE DUP1 ISZERO PUSH2 0x10 JUMPI PUSH1 0x0 DUP1 REVERT JUMPDEST POP PUSH2 0x8DA DUP1 PUSH2 0x20 PUSH1 0x0 CODECOPY PUSH1 0x0 RETURN INVALID PUSH1 0x80 PUSH1 0x40 MSTORE CALLVALUE DUP1 ISZERO PUSH2 0x10 JUMPI PUSH1 0x0 DUP1 REVERT JUMPDEST POP PUSH1 0x4 CALLDATASIZE LT PUSH2 0x41 JUMPI PUSH1 0x0 CALLDATALOAD PUSH1 0xE0 SHR DUP1 PUSH4 0x2EECFCDA EQ PUSH2 0x46 JUMPI DUP1 PUSH4 0x6C9958E0 EQ PUSH2 0x62 JUMPI DUP1 PUSH4 0xD3729FF6 EQ PUSH2 0x95 JUMPI JUMPDEST PUSH1 0x0 DUP1 REVERT JUMPDEST PUSH2 0x60 PUSH1 0x4 DUP1 CALLDATASIZE SUB DUP2 ADD SWAP1 PUSH2 0x5B SWAP2 SWAP1 PUSH2 0x50C JUMP JUMPDEST PUSH2 0xC8 JUMP JUMPDEST STOP JUMPDEST PUSH2 0x7C PUSH1 0x4 DUP1 CALLDATASIZE SUB DUP2 ADD SWAP1 PUSH2 0x77 SWAP2 SWAP1 PUSH2 0x58F JUMP JUMPDEST PUSH2 0x197 JUMP JUMPDEST PUSH1 0x40 MLOAD PUSH2 0x8C SWAP5 SWAP4 SWAP3 SWAP2 SWAP1 PUSH2 0x622 JUMP JUMPDEST PUSH1 0x40 MLOAD DUP1 SWAP2 SUB SWAP1 RETURN JUMPDEST PUSH2 0xAF PUSH1 0x4 DUP1 CALLDATASIZE SUB DUP2 ADD SWAP1 PUSH2 0xAA SWAP2 SWAP1 PUSH2 0x58F JUMP JUMPDEST PUSH2 0x2D4 JUMP JUMPDEST PUSH1 0x40 MLOAD PUSH2 0xBF SWAP5 SWAP4 SWAP3 SWAP2 SWAP1 PUSH2 0x622 JUMP JUMPDEST PUSH1 0x40 MLOAD DUP1 SWAP2 SUB SWAP1 RETURN JUMPDEST PUSH1 0x0 PUSH1 0x40 MLOAD DUP1 PUSH1 0x80 ADD PUSH1 0x40 MSTORE DUP1 DUP7 DUP2 MSTORE PUSH1 0x20 ADD DUP6 PUSH4 0xFFFFFFFF AND DUP2 MSTORE PUSH1 0x20 ADD DUP5 PUSH2 0xFFFF AND DUP2 MSTORE PUSH1 0x20 ADD DUP4 DUP2 MSTORE POP SWAP1 DUP1 PUSH1 0x1 DUP2 SLOAD ADD DUP1 DUP3 SSTORE DUP1 SWAP2 POP POP PUSH1 0x1 SWAP1 SUB SWAP1 PUSH1 0x0 MSTORE PUSH1 0x20 PUSH1 0x0 KECCAK256 SWAP1 PUSH1 0x3 MUL ADD PUSH1 0x0 SWAP1 SWAP2 SWAP1 SWAP2 SWAP1 SWAP2 POP PUSH1 0x0 DUP3 ADD MLOAD DUP2 PUSH1 0x0 ADD SWAP1 DUP1 MLOAD SWAP1 PUSH1 0x20 ADD SWAP1 PUSH2 0x13A SWAP3 SWAP2 SWAP1 PUSH2 0x3BA JUMP JUMPDEST POP PUSH1 0x20 DUP3 ADD MLOAD DUP2 PUSH1 0x1 ADD PUSH1 0x0 PUSH2 0x100 EXP DUP2 SLOAD DUP2 PUSH4 0xFFFFFFFF MUL NOT AND SWAP1 DUP4 PUSH4 0xFFFFFFFF AND MUL OR SWAP1 SSTORE POP PUSH1 0x40 DUP3 ADD MLOAD DUP2 PUSH1 0x1 ADD PUSH1 0x4 PUSH2 0x100 EXP DUP2 SLOAD DUP2 PUSH2 0xFFFF MUL NOT AND SWAP1 DUP4 PUSH2 0xFFFF AND MUL OR SWAP1 SSTORE POP PUSH1 0x60 DUP3 ADD MLOAD DUP2 PUSH1 0x2 ADD SSTORE POP POP POP POP POP POP JUMP JUMPDEST PUSH1 0x60 PUSH1 0x0 DUP1 PUSH1 0x0 DUP1 PUSH1 0x0 DUP7 DUP2 SLOAD DUP2 LT PUSH2 0x1B3 JUMPI PUSH2 0x1B2 PUSH2 0x7DC JUMP JUMPDEST JUMPDEST SWAP1 PUSH1 0x0 MSTORE PUSH1 0x20 PUSH1 0x0 KECCAK256 SWAP1 PUSH1 0x3 MUL ADD PUSH1 0x40 MLOAD DUP1 PUSH1 0x80 ADD PUSH1 0x40 MSTORE SWAP1 DUP2 PUSH1 0x0 DUP3 ADD DUP1 SLOAD PUSH2 0x1DC SWAP1 PUSH2 0x74A JUMP JUMPDEST DUP1 PUSH1 0x1F ADD PUSH1 0x20 DUP1 SWAP2 DIV MUL PUSH1 0x20 ADD PUSH1 0x40 MLOAD SWAP1 DUP2 ADD PUSH1 0x40 MSTORE DUP1 SWAP3 SWAP2 SWAP1 DUP2 DUP2 MSTORE PUSH1 0x20 ADD DUP3 DUP1 SLOAD PUSH2 0x208 SWAP1 PUSH2 0x74A JUMP JUMPDEST DUP1 ISZERO PUSH2 0x255 JUMPI DUP1 PUSH1 0x1F LT PUSH2 0x22A JUMPI PUSH2 0x100 DUP1 DUP4 SLOAD DIV MUL DUP4 MSTORE SWAP2 PUSH1 0x20 ADD SWAP2 PUSH2 0x255 JUMP JUMPDEST DUP3 ADD SWAP2 SWAP1 PUSH1 0x0 MSTORE PUSH1 0x20 PUSH1 0x0 KECCAK256 SWAP1 JUMPDEST DUP2 SLOAD DUP2 MSTORE SWAP1 PUSH1 0x1 ADD SWAP1 PUSH1 0x20 ADD DUP1 DUP4 GT PUSH2 0x238 JUMPI DUP3 SWAP1 SUB PUSH1 0x1F AND DUP3 ADD SWAP2 JUMPDEST POP POP POP POP POP DUP2 MSTORE PUSH1 0x20 ADD PUSH1 0x1 DUP3 ADD PUSH1 0x0 SWAP1 SLOAD SWAP1 PUSH2 0x100 EXP SWAP1 DIV PUSH4 0xFFFFFFFF AND PUSH4 0xFFFFFFFF AND PUSH4 0xFFFFFFFF AND DUP2 MSTORE PUSH1 0x20 ADD PUSH1 0x1 DUP3 ADD PUSH1 0x4 SWAP1 SLOAD SWAP1 PUSH2 0x100 EXP SWAP1 DIV PUSH2 0xFFFF AND PUSH2 0xFFFF AND PUSH2 0xFFFF AND DUP2 MSTORE PUSH1 0x20 ADD PUSH1 0x2 DUP3 ADD SLOAD DUP2 MSTORE POP POP SWAP1 POP DUP1 PUSH1 0x0 ADD MLOAD DUP2 PUSH1 0x20 ADD MLOAD DUP3 PUSH1 0x40 ADD MLOAD DUP4 PUSH1 0x60 ADD MLOAD SWAP5 POP SWAP5 POP SWAP5 POP SWAP5 POP POP SWAP2 SWAP4 POP SWAP2 SWAP4 JUMP JUMPDEST PUSH1 0x0 DUP2 DUP2 SLOAD DUP2 LT PUSH2 0x2E4 JUMPI PUSH1 0x0 DUP1 REVERT JUMPDEST SWAP1 PUSH1 0x0 MSTORE PUSH1 0x20 PUSH1 0x0 KECCAK256 SWAP1 PUSH1 0x3 MUL ADD PUSH1 0x0 SWAP2 POP SWAP1 POP DUP1 PUSH1 0x0 ADD DUP1 SLOAD PUSH2 0x307 SWAP1 PUSH2 0x74A JUMP JUMPDEST DUP1 PUSH1 0x1F ADD PUSH1 0x20 DUP1 SWAP2 DIV MUL PUSH1 0x20 ADD PUSH1 0x40 MLOAD SWAP1 DUP2 ADD PUSH1 0x40 MSTORE DUP1 SWAP3 SWAP2 SWAP1 DUP2 DUP2 MSTORE PUSH1 0x20 ADD DUP3 DUP1 SLOAD PUSH2 0x333 SWAP1 PUSH2 0x74A JUMP JUMPDEST DUP1 ISZERO PUSH2 0x380 JUMPI DUP1 PUSH1 0x1F LT PUSH2 0x355 JUMPI PUSH2 0x100 DUP1 DUP4 SLOAD DIV MUL DUP4 MSTORE SWAP2 PUSH1 0x20 ADD SWAP2 PUSH2 0x380 JUMP JUMPDEST DUP3 ADD SWAP2 SWAP1 PUSH1 0x0 MSTORE PUSH1 0x20 PUSH1 0x0 KECCAK256 SWAP1 JUMPDEST DUP2 SLOAD DUP2 MSTORE SWAP1 PUSH1 0x1 ADD SWAP1 PUSH1 0x20 ADD DUP1 DUP4 GT PUSH2 0x363 JUMPI DUP3 SWAP1 SUB PUSH1 0x1F AND DUP3 ADD SWAP2 JUMPDEST POP POP POP POP POP SWAP1 DUP1 PUSH1 0x1 ADD PUSH1 0x0 SWAP1 SLOAD SWAP1 PUSH2 0x100 EXP SWAP1 DIV PUSH4 0xFFFFFFFF AND SWAP1 DUP1 PUSH1 0x1 ADD PUSH1 0x4 SWAP1 SLOAD SWAP1 PUSH2 0x100 EXP SWAP1 DIV PUSH2 0xFFFF AND SWAP1 DUP1 PUSH1 0x2 ADD SLOAD SWAP1 POP DUP5 JUMP JUMPDEST DUP3 DUP1 SLOAD PUSH2 0x3C6 SWAP1 PUSH2 0x74A JUMP JUMPDEST SWAP1 PUSH1 0x0 MSTORE PUSH1 0x20 PUSH1 0x0 KECCAK256 SWAP1 PUSH1 0x1F ADD PUSH1 0x20 SWAP1 DIV DUP2 ADD SWAP3 DUP3 PUSH2 0x3E8 JUMPI PUSH1 0x0 DUP6 SSTORE PUSH2 0x42F JUMP JUMPDEST DUP3 PUSH1 0x1F LT PUSH2 0x401 JUMPI DUP1 MLOAD PUSH1 0xFF NOT AND DUP4 DUP1 ADD OR DUP6 SSTORE PUSH2 0x42F JUMP JUMPDEST DUP3 DUP1 ADD PUSH1 0x1 ADD DUP6 SSTORE DUP3 ISZERO PUSH2 0x42F JUMPI SWAP2 DUP3 ADD JUMPDEST DUP3 DUP2 GT ISZERO PUSH2 0x42E JUMPI DUP3 MLOAD DUP3 SSTORE SWAP2 PUSH1 0x20 ADD SWAP2 SWAP1 PUSH1 0x1 ADD SWAP1 PUSH2 0x413 JUMP JUMPDEST JUMPDEST POP SWAP1 POP PUSH2 0x43C SWAP2 SWAP1 PUSH2 0x440 JUMP JUMPDEST POP SWAP1 JUMP JUMPDEST JUMPDEST DUP1 DUP3 GT ISZERO PUSH2 0x459 JUMPI PUSH1 0x0 DUP2 PUSH1 0x0 SWAP1 SSTORE POP PUSH1 0x1 ADD PUSH2 0x441 JUMP JUMPDEST POP SWAP1 JUMP JUMPDEST PUSH1 0x0 PUSH2 0x470 PUSH2 0x46B DUP5 PUSH2 0x693 JUMP JUMPDEST PUSH2 0x66E JUMP JUMPDEST SWAP1 POP DUP3 DUP2 MSTORE PUSH1 0x20 DUP2 ADD DUP5 DUP5 DUP5 ADD GT ISZERO PUSH2 0x48C JUMPI PUSH2 0x48B PUSH2 0x83F JUMP JUMPDEST JUMPDEST PUSH2 0x497 DUP5 DUP3 DUP6 PUSH2 0x708 JUMP JUMPDEST POP SWAP4 SWAP3 POP POP POP JUMP JUMPDEST PUSH1 0x0 DUP3 PUSH1 0x1F DUP4 ADD SLT PUSH2 0x4B4 JUMPI PUSH2 0x4B3 PUSH2 0x83A JUMP JUMPDEST JUMPDEST DUP2 CALLDATALOAD PUSH2 0x4C4 DUP5 DUP3 PUSH1 0x20 DUP7 ADD PUSH2 0x45D JUMP JUMPDEST SWAP2 POP POP SWAP3 SWAP2 POP POP JUMP JUMPDEST PUSH1 0x0 DUP2 CALLDATALOAD SWAP1 POP PUSH2 0x4DC DUP2 PUSH2 0x85F JUMP JUMPDEST SWAP3 SWAP2 POP POP JUMP JUMPDEST PUSH1 0x0 DUP2 CALLDATALOAD SWAP1 POP PUSH2 0x4F1 DUP2 PUSH2 0x876 JUMP JUMPDEST SWAP3 SWAP2 POP POP JUMP JUMPDEST PUSH1 0x0 DUP2 CALLDATALOAD SWAP1 POP PUSH2 0x506 DUP2 PUSH2 0x88D JUMP JUMPDEST SWAP3 SWAP2 POP POP JUMP JUMPDEST PUSH1 0x0 DUP1 PUSH1 0x0 DUP1 PUSH1 0x80 DUP6 DUP8 SUB SLT ISZERO PUSH2 0x526 JUMPI PUSH2 0x525 PUSH2 0x849 JUMP JUMPDEST JUMPDEST PUSH1 0x0 DUP6 ADD CALLDATALOAD PUSH8 0xFFFFFFFFFFFFFFFF DUP2 GT ISZERO PUSH2 0x544 JUMPI PUSH2 0x543 PUSH2 0x844 JUMP JUMPDEST JUMPDEST PUSH2 0x550 DUP8 DUP3 DUP9 ADD PUSH2 0x49F JUMP JUMPDEST SWAP5 POP POP PUSH1 0x20 PUSH2 0x561 DUP8 DUP3 DUP9 ADD PUSH2 0x4F7 JUMP JUMPDEST SWAP4 POP POP PUSH1 0x40 PUSH2 0x572 DUP8 DUP3 DUP9 ADD PUSH2 0x4CD JUMP JUMPDEST SWAP3 POP POP PUSH1 0x60 PUSH2 0x583 DUP8 DUP3 DUP9 ADD PUSH2 0x4E2 JUMP JUMPDEST SWAP2 POP POP SWAP3 SWAP6 SWAP2 SWAP5 POP SWAP3 POP JUMP JUMPDEST PUSH1 0x0 PUSH1 0x20 DUP3 DUP5 SUB SLT ISZERO PUSH2 0x5A5 JUMPI PUSH2 0x5A4 PUSH2 0x849 JUMP JUMPDEST JUMPDEST PUSH1 0x0 PUSH2 0x5B3 DUP5 DUP3 DUP6 ADD PUSH2 0x4E2 JUMP JUMPDEST SWAP2 POP POP SWAP3 SWAP2 POP POP JUMP JUMPDEST PUSH1 0x0 PUSH2 0x5C7 DUP3 PUSH2 0x6C4 JUMP JUMPDEST PUSH2 0x5D1 DUP2 DUP6 PUSH2 0x6CF JUMP JUMPDEST SWAP4 POP PUSH2 0x5E1 DUP2 DUP6 PUSH1 0x20 DUP7 ADD PUSH2 0x717 JUMP JUMPDEST PUSH2 0x5EA DUP2 PUSH2 0x84E JUMP JUMPDEST DUP5 ADD SWAP2 POP POP SWAP3 SWAP2 POP POP JUMP JUMPDEST PUSH2 0x5FE DUP2 PUSH2 0x6E0 JUMP JUMPDEST DUP3 MSTORE POP POP JUMP JUMPDEST PUSH2 0x60D DUP2 PUSH2 0x6EE JUMP JUMPDEST DUP3 MSTORE POP POP JUMP JUMPDEST PUSH2 0x61C DUP2 PUSH2 0x6F8 JUMP JUMPDEST DUP3 MSTORE POP POP JUMP JUMPDEST PUSH1 0x0 PUSH1 0x80 DUP3 ADD SWAP1 POP DUP2 DUP2 SUB PUSH1 0x0 DUP4 ADD MSTORE PUSH2 0x63C DUP2 DUP8 PUSH2 0x5BC JUMP JUMPDEST SWAP1 POP PUSH2 0x64B PUSH1 0x20 DUP4 ADD DUP7 PUSH2 0x613 JUMP JUMPDEST PUSH2 0x658 PUSH1 0x40 DUP4 ADD DUP6 PUSH2 0x5F5 JUMP JUMPDEST PUSH2 0x665 PUSH1 0x60 DUP4 ADD DUP5 PUSH2 0x604 JUMP JUMPDEST SWAP6 SWAP5 POP POP POP POP POP JUMP JUMPDEST PUSH1 0x0 PUSH2 0x678 PUSH2 0x689 JUMP JUMPDEST SWAP1 POP PUSH2 0x684 DUP3 DUP3 PUSH2 0x77C JUMP JUMPDEST SWAP2 SWAP1 POP JUMP JUMPDEST PUSH1 0x0 PUSH1 0x40 MLOAD SWAP1 POP SWAP1 JUMP JUMPDEST PUSH1 0x0 PUSH8 0xFFFFFFFFFFFFFFFF DUP3 GT ISZERO PUSH2 0x6AE JUMPI PUSH2 0x6AD PUSH2 0x80B JUMP JUMPDEST JUMPDEST PUSH2 0x6B7 DUP3 PUSH2 0x84E JUMP JUMPDEST SWAP1 POP PUSH1 0x20 DUP2 ADD SWAP1 POP SWAP2 SWAP1 POP JUMP JUMPDEST PUSH1 0x0 DUP2 MLOAD SWAP1 POP SWAP2 SWAP1 POP JUMP JUMPDEST PUSH1 0x0 DUP3 DUP3 MSTORE PUSH1 0x20 DUP3 ADD SWAP1 POP SWAP3 SWAP2 POP POP JUMP JUMPDEST PUSH1 0x0 PUSH2 0xFFFF DUP3 AND SWAP1 POP SWAP2 SWAP1 POP JUMP JUMPDEST PUSH1 0x0 DUP2 SWAP1 POP SWAP2 SWAP1 POP JUMP JUMPDEST PUSH1 0x0 PUSH4 0xFFFFFFFF DUP3 AND SWAP1 POP SWAP2 SWAP1 POP JUMP JUMPDEST DUP3 DUP2 DUP4 CALLDATACOPY PUSH1 0x0 DUP4 DUP4 ADD MSTORE POP POP POP JUMP JUMPDEST PUSH1 0x0 JUMPDEST DUP4 DUP2 LT ISZERO PUSH2 0x735 JUMPI DUP1 DUP3 ADD MLOAD DUP2 DUP5 ADD MSTORE PUSH1 0x20 DUP2 ADD SWAP1 POP PUSH2 0x71A JUMP JUMPDEST DUP4 DUP2 GT ISZERO PUSH2 0x744 JUMPI PUSH1 0x0 DUP5 DUP5 ADD MSTORE JUMPDEST POP POP POP POP JUMP JUMPDEST PUSH1 0x0 PUSH1 0x2 DUP3 DIV SWAP1 POP PUSH1 0x1 DUP3 AND DUP1 PUSH2 0x762 JUMPI PUSH1 0x7F DUP3 AND SWAP2 POP JUMPDEST PUSH1 0x20 DUP3 LT DUP2 EQ ISZERO PUSH2 0x776 JUMPI PUSH2 0x775 PUSH2 0x7AD JUMP JUMPDEST JUMPDEST POP SWAP2 SWAP1 POP JUMP JUMPDEST PUSH2 0x785 DUP3 PUSH2 0x84E JUMP JUMPDEST DUP2 ADD DUP2 DUP2 LT PUSH8 0xFFFFFFFFFFFFFFFF DUP3 GT OR ISZERO PUSH2 0x7A4 JUMPI PUSH2 0x7A3 PUSH2 0x80B JUMP JUMPDEST JUMPDEST DUP1 PUSH1 0x40 MSTORE POP POP POP JUMP JUMPDEST PUSH32 0x4E487B7100000000000000000000000000000000000000000000000000000000 PUSH1 0x0 MSTORE PUSH1 0x22 PUSH1 0x4 MSTORE PUSH1 0x24 PUSH1 0x0 REVERT JUMPDEST PUSH32 0x4E487B7100000000000000000000000000000000000000000000000000000000 PUSH1 0x0 MSTORE PUSH1 0x32 PUSH1 0x4 MSTORE PUSH1 0x24 PUSH1 0x0 REVERT JUMPDEST PUSH32 0x4E487B7100000000000000000000000000000000000000000000000000000000 PUSH1 0x0 MSTORE PUSH1 0x41 PUSH1 0x4 MSTORE PUSH1 0x24 PUSH1 0x0 REVERT JUMPDEST PUSH1 0x0 DUP1 REVERT JUMPDEST PUSH1 0x0 DUP1 REVERT JUMPDEST PUSH1 0x0 DUP1 REVERT JUMPDEST PUSH1 0x0 DUP1 REVERT JUMPDEST PUSH1 0x0 PUSH1 0x1F NOT PUSH1 0x1F DUP4 ADD AND SWAP1 POP SWAP2 SWAP1 POP JUMP JUMPDEST PUSH2 0x868 DUP2 PUSH2 0x6E0 JUMP JUMPDEST DUP2 EQ PUSH2 0x873 JUMPI PUSH1 0x0 DUP1 REVERT JUMPDEST POP JUMP JUMPDEST PUSH2 0x87F DUP2 PUSH2 0x6EE JUMP JUMPDEST DUP2 EQ PUSH2 0x88A JUMPI PUSH1 0x0 DUP1 REVERT JUMPDEST POP JUMP JUMPDEST PUSH2 0x896 DUP2 PUSH2 0x6F8 JUMP JUMPDEST DUP2 EQ PUSH2 0x8A1 JUMPI PUSH1 0x0 DUP1 REVERT JUMPDEST POP JUMP INVALID LOG2 PUSH5 0x6970667358 0x22 SLT KECCAK256 0xA5 0x4E OR SHL SSTORE 0xD7 SLT SAR DUP15 0xC DUP4 SGT 0xEB 0xE5 0x28 DIFFICULTY 0xC RETURN 0xD1 0xA8 0xEC 0xDD RETURNDATASIZE SWAP15 JUMPDEST STATICCALL 0xB5 0xB6 0xAF 0xC2 GAS OR PUSH5 0x736F6C6343 STOP ADDMOD SMOD STOP CALLER "
				},
				"gasEstimates": {
					"creation": {
						"codeDepositCost": "453200",
						"executionCost": "486",
						"totalCost": "453686"
					},
					"external": {
						"addtolist(string,uint32,uint16,uint256)": "infinite",
						"getlist(uint256)": "infinite",
						"todoarr(uint256)": "infinite"
					}
				},
				"methodIdentifiers": {
					"addtolist(string,uint32,uint16,uint256)": "2eecfcda",
					"getlist(uint256)": "6c9958e0",
					"todoarr(uint256)": "d3729ff6"
				}
			},
			"storageLayout": {
				"storage": [
					{
						"astId": 14,
						"contract": "opo.sol:TodoList",
						"label": "todoarr",
						"offset": 0,
						"slot": "0",
						"type": "t_array(t_struct(Todo)10_storage)dyn_storage"
					}
				],
				"types": {
					"t_array(t_struct(Todo)10_storage)dyn_storage": {
						"base": "t_struct(Todo)10_storage",
						"encoding": "dynamic_array",
						"label": "struct TodoList.Todo[]",
						"numberOfBytes": "32"
					},
					"t_string_storage": {
						"encoding": "bytes",
						"label": "string",
						"numberOfBytes": "32"
					},
					"t_struct(Todo)10_storage": {
						"encoding": "inplace",
						"label": "struct TodoList.Todo",
						"members": [
							{
								"astId": 3,
								"contract": "opo.sol:TodoList",
								"label": "action",
								"offset": 0,
								"slot": "0",
								"type": "t_string_storage"
							},
							{
								"astId": 5,
								"contract": "opo.sol:TodoList",
								"label": "day",
								"offset": 0,
								"slot": "1",
								"type": "t_uint32"
							},
							{
								"astId": 7,
								"contract": "opo.sol:TodoList",
								"label": "month",
								"offset": 4,
								"slot": "1",
								"type": "t_uint16"
							},
							{
								"astId": 9,
								"contract": "opo.sol:TodoList",
								"label": "year",
								"offset": 0,
								"slot": "2",
								"type": "t_uint256"
							}
						],
						"numberOfBytes": "96"
					},
					"t_uint16": {
						"encoding": "inplace",
						"label": "uint16",
						"numberOfBytes": "2"
					},
					"t_uint256": {
						"encoding": "inplace",
						"label": "uint256",
						"numberOfBytes": "32"
					},
					"t_uint32": {
						"encoding": "inplace",
						"label": "uint32",
						"numberOfBytes": "4"
					}
				}
			},
			"userdoc": {
				"kind": "user",
				"methods": {},
				"version": 1
			}
		}
	}
}