{
	"onwnable2.sol": {
		"Ethwallet": {
			"abi": [
				{
					"inputs": [],
					"stateMutability": "nonpayable",
					"type": "constructor"
				},
				{
					"inputs": [
						{
							"internalType": "address",
							"name": "",
							"type": "address"
						}
					],
					"name": "getbal",
					"outputs": [],
					"stateMutability": "nonpayable",
					"type": "function"
				},
				{
					"inputs": [],
					"name": "owner",
					"outputs": [
						{
							"internalType": "address payable",
							"name": "",
							"type": "address"
						}
					],
					"stateMutability": "view",
					"type": "function"
				},
				{
					"inputs": [],
					"name": "sendeth",
					"outputs": [],
					"stateMutability": "payable",
					"type": "function"
				},
				{
					"stateMutability": "payable",
					"type": "receive"
				}
			],
			"devdoc": {
				"kind": "dev",
				"methods": {},
				"version": 1
			},
			"evm": {
				"assembly": "    /* \"onwnable2.sol\":58:373  contract Ethwallet{\r... */\n  mstore(0x40, 0x80)\n    /* \"onwnable2.sol\":116:167  constructor(){\r... */\n  callvalue\n  dup1\n  iszero\n  tag_1\n  jumpi\n  0x00\n  dup1\n  revert\ntag_1:\n  pop\n    /* \"onwnable2.sol\":152:162  msg.sender */\n  caller\n    /* \"onwnable2.sol\":136:141  owner */\n  0x00\n  dup1\n    /* \"onwnable2.sol\":136:163  owner = payable(msg.sender) */\n  0x0100\n  exp\n  dup2\n  sload\n  dup2\n  0xffffffffffffffffffffffffffffffffffffffff\n  mul\n  not\n  and\n  swap1\n  dup4\n  0xffffffffffffffffffffffffffffffffffffffff\n  and\n  mul\n  or\n  swap1\n  sstore\n  pop\n    /* \"onwnable2.sol\":58:373  contract Ethwallet{\r... */\n  dataSize(sub_0)\n  dup1\n  dataOffset(sub_0)\n  0x00\n  codecopy\n  0x00\n  return\nstop\n\nsub_0: assembly {\n        /* \"onwnable2.sol\":58:373  contract Ethwallet{\r... */\n      mstore(0x40, 0x80)\n      jumpi(tag_1, lt(calldatasize, 0x04))\n      shr(0xe0, calldataload(0x00))\n      dup1\n      0x15ce85fb\n      eq\n      tag_3\n      jumpi\n      dup1\n      0x190dd277\n      eq\n      tag_4\n      jumpi\n      dup1\n      0x8da5cb5b\n      eq\n      tag_5\n      jumpi\n      jump(tag_2)\n    tag_1:\n      jumpi(tag_2, calldatasize)\n      stop\n    tag_2:\n      0x00\n      dup1\n      revert\n        /* \"onwnable2.sol\":201:325  function sendeth() payable external {\r... */\n    tag_3:\n      tag_8\n      tag_9\n      jump\t// in\n    tag_8:\n      stop\n        /* \"onwnable2.sol\":327:366  function getbal(address) external{\r... */\n    tag_4:\n      callvalue\n      dup1\n      iszero\n      tag_10\n      jumpi\n      0x00\n      dup1\n      revert\n    tag_10:\n      pop\n      tag_11\n      0x04\n      dup1\n      calldatasize\n      sub\n      dup2\n      add\n      swap1\n      tag_12\n      swap2\n      swap1\n      tag_13\n      jump\t// in\n    tag_12:\n      tag_14\n      jump\t// in\n    tag_11:\n      stop\n        /* \"onwnable2.sol\":82:110  address payable public owner */\n    tag_5:\n      callvalue\n      dup1\n      iszero\n      tag_15\n      jumpi\n      0x00\n      dup1\n      revert\n    tag_15:\n      pop\n      tag_16\n      tag_17\n      jump\t// in\n    tag_16:\n      mload(0x40)\n      tag_18\n      swap2\n      swap1\n      tag_19\n      jump\t// in\n    tag_18:\n      mload(0x40)\n      dup1\n      swap2\n      sub\n      swap1\n      return\n        /* \"onwnable2.sol\":201:325  function sendeth() payable external {\r... */\n    tag_9:\n        /* \"onwnable2.sol\":266:271  owner */\n      0x00\n      dup1\n      sload\n      swap1\n      0x0100\n      exp\n      swap1\n      div\n      0xffffffffffffffffffffffffffffffffffffffff\n      and\n        /* \"onwnable2.sol\":252:271  msg.sender == owner */\n      0xffffffffffffffffffffffffffffffffffffffff\n      and\n        /* \"onwnable2.sol\":252:262  msg.sender */\n      caller\n        /* \"onwnable2.sol\":252:271  msg.sender == owner */\n      0xffffffffffffffffffffffffffffffffffffffff\n      and\n      eq\n        /* \"onwnable2.sol\":244:289  require(msg.sender == owner, \"Not the owner\") */\n      tag_21\n      jumpi\n      mload(0x40)\n      0x08c379a000000000000000000000000000000000000000000000000000000000\n      dup2\n      mstore\n      0x04\n      add\n      tag_22\n      swap1\n      tag_23\n      jump\t// in\n    tag_22:\n      mload(0x40)\n      dup1\n      swap2\n      sub\n      swap1\n      revert\n    tag_21:\n        /* \"onwnable2.sol\":296:301  owner */\n      0x00\n      dup1\n      sload\n      swap1\n      0x0100\n      exp\n      swap1\n      div\n      0xffffffffffffffffffffffffffffffffffffffff\n      and\n        /* \"onwnable2.sol\":296:310  owner.transfer */\n      0xffffffffffffffffffffffffffffffffffffffff\n      and\n        /* \"onwnable2.sol\":296:321  owner.transfer(msg.value) */\n      0x08fc\n        /* \"onwnable2.sol\":311:320  msg.value */\n      callvalue\n        /* \"onwnable2.sol\":296:321  owner.transfer(msg.value) */\n      swap1\n      dup2\n      iszero\n      mul\n      swap1\n      mload(0x40)\n      0x00\n      mload(0x40)\n      dup1\n      dup4\n      sub\n      dup2\n      dup6\n      dup9\n      dup9\n      call\n      swap4\n      pop\n      pop\n      pop\n      pop\n      iszero\n      dup1\n      iszero\n      tag_25\n      jumpi\n      returndatasize\n      0x00\n      dup1\n      returndatacopy\n      revert(0x00, returndatasize)\n    tag_25:\n      pop\n        /* \"onwnable2.sol\":201:325  function sendeth() payable external {\r... */\n      jump\t// out\n        /* \"onwnable2.sol\":327:366  function getbal(address) external{\r... */\n    tag_14:\n      pop\n      jump\t// out\n        /* \"onwnable2.sol\":82:110  address payable public owner */\n    tag_17:\n      0x00\n      dup1\n      sload\n      swap1\n      0x0100\n      exp\n      swap1\n      div\n      0xffffffffffffffffffffffffffffffffffffffff\n      and\n      dup2\n      jump\t// out\n        /* \"#utility.yul\":7:146   */\n    tag_28:\n        /* \"#utility.yul\":53:58   */\n      0x00\n        /* \"#utility.yul\":91:97   */\n      dup2\n        /* \"#utility.yul\":78:98   */\n      calldataload\n        /* \"#utility.yul\":69:98   */\n      swap1\n      pop\n        /* \"#utility.yul\":107:140   */\n      tag_30\n        /* \"#utility.yul\":134:139   */\n      dup2\n        /* \"#utility.yul\":107:140   */\n      tag_31\n      jump\t// in\n    tag_30:\n        /* \"#utility.yul\":7:146   */\n      swap3\n      swap2\n      pop\n      pop\n      jump\t// out\n        /* \"#utility.yul\":152:481   */\n    tag_13:\n        /* \"#utility.yul\":211:217   */\n      0x00\n        /* \"#utility.yul\":260:262   */\n      0x20\n        /* \"#utility.yul\":248:257   */\n      dup3\n        /* \"#utility.yul\":239:246   */\n      dup5\n        /* \"#utility.yul\":235:258   */\n      sub\n        /* \"#utility.yul\":231:263   */\n      slt\n        /* \"#utility.yul\":228:347   */\n      iszero\n      tag_33\n      jumpi\n        /* \"#utility.yul\":266:345   */\n      tag_34\n      tag_35\n      jump\t// in\n    tag_34:\n        /* \"#utility.yul\":228:347   */\n    tag_33:\n        /* \"#utility.yul\":386:387   */\n      0x00\n        /* \"#utility.yul\":411:464   */\n      tag_36\n        /* \"#utility.yul\":456:463   */\n      dup5\n        /* \"#utility.yul\":447:453   */\n      dup3\n        /* \"#utility.yul\":436:445   */\n      dup6\n        /* \"#utility.yul\":432:454   */\n      add\n        /* \"#utility.yul\":411:464   */\n      tag_28\n      jump\t// in\n    tag_36:\n        /* \"#utility.yul\":401:464   */\n      swap2\n      pop\n        /* \"#utility.yul\":357:474   */\n      pop\n        /* \"#utility.yul\":152:481   */\n      swap3\n      swap2\n      pop\n      pop\n      jump\t// out\n        /* \"#utility.yul\":487:629   */\n    tag_37:\n        /* \"#utility.yul\":590:622   */\n      tag_39\n        /* \"#utility.yul\":616:621   */\n      dup2\n        /* \"#utility.yul\":590:622   */\n      tag_40\n      jump\t// in\n    tag_39:\n        /* \"#utility.yul\":585:588   */\n      dup3\n        /* \"#utility.yul\":578:623   */\n      mstore\n        /* \"#utility.yul\":487:629   */\n      pop\n      pop\n      jump\t// out\n        /* \"#utility.yul\":635:1001   */\n    tag_41:\n        /* \"#utility.yul\":777:780   */\n      0x00\n        /* \"#utility.yul\":798:865   */\n      tag_43\n        /* \"#utility.yul\":862:864   */\n      0x0d\n        /* \"#utility.yul\":857:860   */\n      dup4\n        /* \"#utility.yul\":798:865   */\n      tag_44\n      jump\t// in\n    tag_43:\n        /* \"#utility.yul\":791:865   */\n      swap2\n      pop\n        /* \"#utility.yul\":874:967   */\n      tag_45\n        /* \"#utility.yul\":963:966   */\n      dup3\n        /* \"#utility.yul\":874:967   */\n      tag_46\n      jump\t// in\n    tag_45:\n        /* \"#utility.yul\":992:994   */\n      0x20\n        /* \"#utility.yul\":987:990   */\n      dup3\n        /* \"#utility.yul\":983:995   */\n      add\n        /* \"#utility.yul\":976:995   */\n      swap1\n      pop\n        /* \"#utility.yul\":635:1001   */\n      swap2\n      swap1\n      pop\n      jump\t// out\n        /* \"#utility.yul\":1007:1261   */\n    tag_19:\n        /* \"#utility.yul\":1116:1120   */\n      0x00\n        /* \"#utility.yul\":1154:1156   */\n      0x20\n        /* \"#utility.yul\":1143:1152   */\n      dup3\n        /* \"#utility.yul\":1139:1157   */\n      add\n        /* \"#utility.yul\":1131:1157   */\n      swap1\n      pop\n        /* \"#utility.yul\":1167:1254   */\n      tag_48\n        /* \"#utility.yul\":1251:1252   */\n      0x00\n        /* \"#utility.yul\":1240:1249   */\n      dup4\n        /* \"#utility.yul\":1236:1253   */\n      add\n        /* \"#utility.yul\":1227:1233   */\n      dup5\n        /* \"#utility.yul\":1167:1254   */\n      tag_37\n      jump\t// in\n    tag_48:\n        /* \"#utility.yul\":1007:1261   */\n      swap3\n      swap2\n      pop\n      pop\n      jump\t// out\n        /* \"#utility.yul\":1267:1686   */\n    tag_23:\n        /* \"#utility.yul\":1433:1437   */\n      0x00\n        /* \"#utility.yul\":1471:1473   */\n      0x20\n        /* \"#utility.yul\":1460:1469   */\n      dup3\n        /* \"#utility.yul\":1456:1474   */\n      add\n        /* \"#utility.yul\":1448:1474   */\n      swap1\n      pop\n        /* \"#utility.yul\":1520:1529   */\n      dup2\n        /* \"#utility.yul\":1514:1518   */\n      dup2\n        /* \"#utility.yul\":1510:1530   */\n      sub\n        /* \"#utility.yul\":1506:1507   */\n      0x00\n        /* \"#utility.yul\":1495:1504   */\n      dup4\n        /* \"#utility.yul\":1491:1508   */\n      add\n        /* \"#utility.yul\":1484:1531   */\n      mstore\n        /* \"#utility.yul\":1548:1679   */\n      tag_50\n        /* \"#utility.yul\":1674:1678   */\n      dup2\n        /* \"#utility.yul\":1548:1679   */\n      tag_41\n      jump\t// in\n    tag_50:\n        /* \"#utility.yul\":1540:1679   */\n      swap1\n      pop\n        /* \"#utility.yul\":1267:1686   */\n      swap2\n      swap1\n      pop\n      jump\t// out\n        /* \"#utility.yul\":1773:1942   */\n    tag_44:\n        /* \"#utility.yul\":1857:1868   */\n      0x00\n        /* \"#utility.yul\":1891:1897   */\n      dup3\n        /* \"#utility.yul\":1886:1889   */\n      dup3\n        /* \"#utility.yul\":1879:1898   */\n      mstore\n        /* \"#utility.yul\":1931:1935   */\n      0x20\n        /* \"#utility.yul\":1926:1929   */\n      dup3\n        /* \"#utility.yul\":1922:1936   */\n      add\n        /* \"#utility.yul\":1907:1936   */\n      swap1\n      pop\n        /* \"#utility.yul\":1773:1942   */\n      swap3\n      swap2\n      pop\n      pop\n      jump\t// out\n        /* \"#utility.yul\":1948:2044   */\n    tag_54:\n        /* \"#utility.yul\":1985:1992   */\n      0x00\n        /* \"#utility.yul\":2014:2038   */\n      tag_56\n        /* \"#utility.yul\":2032:2037   */\n      dup3\n        /* \"#utility.yul\":2014:2038   */\n      tag_57\n      jump\t// in\n    tag_56:\n        /* \"#utility.yul\":2003:2038   */\n      swap1\n      pop\n        /* \"#utility.yul\":1948:2044   */\n      swap2\n      swap1\n      pop\n      jump\t// out\n        /* \"#utility.yul\":2050:2154   */\n    tag_40:\n        /* \"#utility.yul\":2095:2102   */\n      0x00\n        /* \"#utility.yul\":2124:2148   */\n      tag_59\n        /* \"#utility.yul\":2142:2147   */\n      dup3\n        /* \"#utility.yul\":2124:2148   */\n      tag_57\n      jump\t// in\n    tag_59:\n        /* \"#utility.yul\":2113:2148   */\n      swap1\n      pop\n        /* \"#utility.yul\":2050:2154   */\n      swap2\n      swap1\n      pop\n      jump\t// out\n        /* \"#utility.yul\":2160:2286   */\n    tag_57:\n        /* \"#utility.yul\":2197:2204   */\n      0x00\n        /* \"#utility.yul\":2237:2279   */\n      0xffffffffffffffffffffffffffffffffffffffff\n        /* \"#utility.yul\":2230:2235   */\n      dup3\n        /* \"#utility.yul\":2226:2280   */\n      and\n        /* \"#utility.yul\":2215:2280   */\n      swap1\n      pop\n        /* \"#utility.yul\":2160:2286   */\n      swap2\n      swap1\n      pop\n      jump\t// out\n        /* \"#utility.yul\":2415:2532   */\n    tag_35:\n        /* \"#utility.yul\":2524:2525   */\n      0x00\n        /* \"#utility.yul\":2521:2522   */\n      dup1\n        /* \"#utility.yul\":2514:2526   */\n      revert\n        /* \"#utility.yul\":2538:2701   */\n    tag_46:\n        /* \"#utility.yul\":2678:2693   */\n      0x4e6f7420746865206f776e657200000000000000000000000000000000000000\n        /* \"#utility.yul\":2674:2675   */\n      0x00\n        /* \"#utility.yul\":2666:2672   */\n      dup3\n        /* \"#utility.yul\":2662:2676   */\n      add\n        /* \"#utility.yul\":2655:2694   */\n      mstore\n        /* \"#utility.yul\":2538:2701   */\n      pop\n      jump\t// out\n        /* \"#utility.yul\":2707:2829   */\n    tag_31:\n        /* \"#utility.yul\":2780:2804   */\n      tag_66\n        /* \"#utility.yul\":2798:2803   */\n      dup2\n        /* \"#utility.yul\":2780:2804   */\n      tag_54\n      jump\t// in\n    tag_66:\n        /* \"#utility.yul\":2773:2778   */\n      dup2\n        /* \"#utility.yul\":2770:2805   */\n      eq\n        /* \"#utility.yul\":2760:2823   */\n      tag_67\n      jumpi\n        /* \"#utility.yul\":2819:2820   */\n      0x00\n        /* \"#utility.yul\":2816:2817   */\n      dup1\n        /* \"#utility.yul\":2809:2821   */\n      revert\n        /* \"#utility.yul\":2760:2823   */\n    tag_67:\n        /* \"#utility.yul\":2707:2829   */\n      pop\n      jump\t// out\n\n    auxdata: 0xa26469706673582212201248295ca29da06151ba20375dcbf614c655339eb2018aad637a54a675a87c9e64736f6c63430008070033\n}\n",
				"bytecode": {
					"linkReferences": {},
					"object": "608060405234801561001057600080fd5b50336000806101000a81548173ffffffffffffffffffffffffffffffffffffffff021916908373ffffffffffffffffffffffffffffffffffffffff16021790555061033f806100606000396000f3fe6080604052600436106100385760003560e01c806315ce85fb14610044578063190dd2771461004e5780638da5cb5b146100775761003f565b3661003f57005b600080fd5b61004c6100a2565b005b34801561005a57600080fd5b50610075600480360381019061007091906101d5565b610199565b005b34801561008357600080fd5b5061008c61019c565b6040516100999190610234565b60405180910390f35b60008054906101000a900473ffffffffffffffffffffffffffffffffffffffff1673ffffffffffffffffffffffffffffffffffffffff163373ffffffffffffffffffffffffffffffffffffffff1614610130576040517f08c379a00000000000000000000000000000000000000000000000000000000081526004016101279061024f565b60405180910390fd5b60008054906101000a900473ffffffffffffffffffffffffffffffffffffffff1673ffffffffffffffffffffffffffffffffffffffff166108fc349081150290604051600060405180830381858888f19350505050158015610196573d6000803e3d6000fd5b50565b50565b60008054906101000a900473ffffffffffffffffffffffffffffffffffffffff1681565b6000813590506101cf816102f2565b92915050565b6000602082840312156101eb576101ea6102c4565b5b60006101f9848285016101c0565b91505092915050565b61020b81610292565b82525050565b600061021e600d8361026f565b9150610229826102c9565b602082019050919050565b60006020820190506102496000830184610202565b92915050565b6000602082019050818103600083015261026881610211565b9050919050565b600082825260208201905092915050565b600061028b826102a4565b9050919050565b600061029d826102a4565b9050919050565b600073ffffffffffffffffffffffffffffffffffffffff82169050919050565b600080fd5b7f4e6f7420746865206f776e657200000000000000000000000000000000000000600082015250565b6102fb81610280565b811461030657600080fd5b5056fea26469706673582212201248295ca29da06151ba20375dcbf614c655339eb2018aad637a54a675a87c9e64736f6c63430008070033",
					"opcodes": "PUSH1 0x80 PUSH1 0x40 MSTORE CALLVALUE DUP1 ISZERO PUSH2 0x10 JUMPI PUSH1 0x0 DUP1 REVERT JUMPDEST POP CALLER PUSH1 0x0 DUP1 PUSH2 0x100 EXP DUP2 SLOAD DUP2 PUSH20 0xFFFFFFFFFFFFFFFFFFFFFFFFFFFFFFFFFFFFFFFF MUL NOT AND SWAP1 DUP4 PUSH20 0xFFFFFFFFFFFFFFFFFFFFFFFFFFFFFFFFFFFFFFFF AND MUL OR SWAP1 SSTORE POP PUSH2 0x33F DUP1 PUSH2 0x60 PUSH1 0x0 CODECOPY PUSH1 0x0 RETURN INVALID PUSH1 0x80 PUSH1 0x40 MSTORE PUSH1 0x4 CALLDATASIZE LT PUSH2 0x38 JUMPI PUSH1 0x0 CALLDATALOAD PUSH1 0xE0 SHR DUP1 PUSH4 0x15CE85FB EQ PUSH2 0x44 JUMPI DUP1 PUSH4 0x190DD277 EQ PUSH2 0x4E JUMPI DUP1 PUSH4 0x8DA5CB5B EQ PUSH2 0x77 JUMPI PUSH2 0x3F JUMP JUMPDEST CALLDATASIZE PUSH2 0x3F JUMPI STOP JUMPDEST PUSH1 0x0 DUP1 REVERT JUMPDEST PUSH2 0x4C PUSH2 0xA2 JUMP JUMPDEST STOP JUMPDEST CALLVALUE DUP1 ISZERO PUSH2 0x5A JUMPI PUSH1 0x0 DUP1 REVERT JUMPDEST POP PUSH2 0x75 PUSH1 0x4 DUP1 CALLDATASIZE SUB DUP2 ADD SWAP1 PUSH2 0x70 SWAP2 SWAP1 PUSH2 0x1D5 JUMP JUMPDEST PUSH2 0x199 JUMP JUMPDEST STOP JUMPDEST CALLVALUE DUP1 ISZERO PUSH2 0x83 JUMPI PUSH1 0x0 DUP1 REVERT JUMPDEST POP PUSH2 0x8C PUSH2 0x19C JUMP JUMPDEST PUSH1 0x40 MLOAD PUSH2 0x99 SWAP2 SWAP1 PUSH2 0x234 JUMP JUMPDEST PUSH1 0x40 MLOAD DUP1 SWAP2 SUB SWAP1 RETURN JUMPDEST PUSH1 0x0 DUP1 SLOAD SWAP1 PUSH2 0x100 EXP SWAP1 DIV PUSH20 0xFFFFFFFFFFFFFFFFFFFFFFFFFFFFFFFFFFFFFFFF AND PUSH20 0xFFFFFFFFFFFFFFFFFFFFFFFFFFFFFFFFFFFFFFFF AND CALLER PUSH20 0xFFFFFFFFFFFFFFFFFFFFFFFFFFFFFFFFFFFFFFFF AND EQ PUSH2 0x130 JUMPI PUSH1 0x40 MLOAD PUSH32 0x8C379A000000000000000000000000000000000000000000000000000000000 DUP2 MSTORE PUSH1 0x4 ADD PUSH2 0x127 SWAP1 PUSH2 0x24F JUMP JUMPDEST PUSH1 0x40 MLOAD DUP1 SWAP2 SUB SWAP1 REVERT JUMPDEST PUSH1 0x0 DUP1 SLOAD SWAP1 PUSH2 0x100 EXP SWAP1 DIV PUSH20 0xFFFFFFFFFFFFFFFFFFFFFFFFFFFFFFFFFFFFFFFF AND PUSH20 0xFFFFFFFFFFFFFFFFFFFFFFFFFFFFFFFFFFFFFFFF AND PUSH2 0x8FC CALLVALUE SWAP1 DUP2 ISZERO MUL SWAP1 PUSH1 0x40 MLOAD PUSH1 0x0 PUSH1 0x40 MLOAD DUP1 DUP4 SUB DUP2 DUP6 DUP9 DUP9 CALL SWAP4 POP POP POP POP ISZERO DUP1 ISZERO PUSH2 0x196 JUMPI RETURNDATASIZE PUSH1 0x0 DUP1 RETURNDATACOPY RETURNDATASIZE PUSH1 0x0 REVERT JUMPDEST POP JUMP JUMPDEST POP JUMP JUMPDEST PUSH1 0x0 DUP1 SLOAD SWAP1 PUSH2 0x100 EXP SWAP1 DIV PUSH20 0xFFFFFFFFFFFFFFFFFFFFFFFFFFFFFFFFFFFFFFFF AND DUP2 JUMP JUMPDEST PUSH1 0x0 DUP2 CALLDATALOAD SWAP1 POP PUSH2 0x1CF DUP2 PUSH2 0x2F2 JUMP JUMPDEST SWAP3 SWAP2 POP POP JUMP JUMPDEST PUSH1 0x0 PUSH1 0x20 DUP3 DUP5 SUB SLT ISZERO PUSH2 0x1EB JUMPI PUSH2 0x1EA PUSH2 0x2C4 JUMP JUMPDEST JUMPDEST PUSH1 0x0 PUSH2 0x1F9 DUP5 DUP3 DUP6 ADD PUSH2 0x1C0 JUMP JUMPDEST SWAP2 POP POP SWAP3 SWAP2 POP POP JUMP JUMPDEST PUSH2 0x20B DUP2 PUSH2 0x292 JUMP JUMPDEST DUP3 MSTORE POP POP JUMP JUMPDEST PUSH1 0x0 PUSH2 0x21E PUSH1 0xD DUP4 PUSH2 0x26F JUMP JUMPDEST SWAP2 POP PUSH2 0x229 DUP3 PUSH2 0x2C9 JUMP JUMPDEST PUSH1 0x20 DUP3 ADD SWAP1 POP SWAP2 SWAP1 POP JUMP JUMPDEST PUSH1 0x0 PUSH1 0x20 DUP3 ADD SWAP1 POP PUSH2 0x249 PUSH1 0x0 DUP4 ADD DUP5 PUSH2 0x202 JUMP JUMPDEST SWAP3 SWAP2 POP POP JUMP JUMPDEST PUSH1 0x0 PUSH1 0x20 DUP3 ADD SWAP1 POP DUP2 DUP2 SUB PUSH1 0x0 DUP4 ADD MSTORE PUSH2 0x268 DUP2 PUSH2 0x211 JUMP JUMPDEST SWAP1 POP SWAP2 SWAP1 POP JUMP JUMPDEST PUSH1 0x0 DUP3 DUP3 MSTORE PUSH1 0x20 DUP3 ADD SWAP1 POP SWAP3 SWAP2 POP POP JUMP JUMPDEST PUSH1 0x0 PUSH2 0x28B DUP3 PUSH2 0x2A4 JUMP JUMPDEST SWAP1 POP SWAP2 SWAP1 POP JUMP JUMPDEST PUSH1 0x0 PUSH2 0x29D DUP3 PUSH2 0x2A4 JUMP JUMPDEST SWAP1 POP SWAP2 SWAP1 POP JUMP JUMPDEST PUSH1 0x0 PUSH20 0xFFFFFFFFFFFFFFFFFFFFFFFFFFFFFFFFFFFFFFFF DUP3 AND SWAP1 POP SWAP2 SWAP1 POP JUMP JUMPDEST PUSH1 0x0 DUP1 REVERT JUMPDEST PUSH32 0x4E6F7420746865206F776E657200000000000000000000000000000000000000 PUSH1 0x0 DUP3 ADD MSTORE POP JUMP JUMPDEST PUSH2 0x2FB DUP2 PUSH2 0x280 JUMP JUMPDEST DUP2 EQ PUSH2 0x306 JUMPI PUSH1 0x0 DUP1 REVERT JUMPDEST POP JUMP INVALID LOG2 PUSH5 0x6970667358 0x22 SLT KECCAK256 SLT BASEFEE 0x29 0x5C LOG2 SWAP14 LOG0 PUSH2 0x51BA KECCAK256 CALLDATACOPY 0x5D 0xCB 0xF6 EQ 0xC6 SSTORE CALLER SWAP15 0xB2 ADD DUP11 0xAD PUSH4 0x7A54A675 0xA8 PUSH29 0x9E64736F6C634300080700330000000000000000000000000000000000 "
				},
				"gasEstimates": {
					"creation": {
						"codeDepositCost": "166200",
						"executionCost": "24474",
						"totalCost": "190674"
					},
					"external": {
						"getbal(address)": "455",
						"owner()": "2533",
						"sendeth()": "infinite"
					}
				},
				"methodIdentifiers": {
					"getbal(address)": "190dd277",
					"owner()": "8da5cb5b",
					"sendeth()": "15ce85fb"
				}
			},
			"storageLayout": {
				"storage": [
					{
						"astId": 3,
						"contract": "onwnable2.sol:Ethwallet",
						"label": "owner",
						"offset": 0,
						"slot": "0",
						"type": "t_address_payable"
					}
				],
				"types": {
					"t_address_payable": {
						"encoding": "inplace",
						"label": "address payable",
						"numberOfBytes": "20"
					}
				}
			},
			"userdoc": {
				"kind": "user",
				"methods": {},
				"version": 1
			}
		}
	}
}