{
	"Todo.sol": {
		"TodoList": {
			"abi": [
				{
					"inputs": [
						{
							"internalType": "string",
							"name": "_action",
							"type": "string"
						},
						{
							"internalType": "uint256",
							"name": "_day",
							"type": "uint256"
						},
						{
							"internalType": "uint256",
							"name": "_month",
							"type": "uint256"
						},
						{
							"internalType": "uint256",
							"name": "_year",
							"type": "uint256"
						}
					],
					"name": "addtolist",
					"outputs": [],
					"stateMutability": "nonpayable",
					"type": "function"
				},
				{
					"inputs": [
						{
							"internalType": "uint256",
							"name": "index",
							"type": "uint256"
						},
						{
							"internalType": "string",
							"name": "_action",
							"type": "string"
						},
						{
							"internalType": "uint256",
							"name": "_day",
							"type": "uint256"
						},
						{
							"internalType": "uint256",
							"name": "_month",
							"type": "uint256"
						},
						{
							"internalType": "uint256",
							"name": "_year",
							"type": "uint256"
						}
					],
					"name": "edittodo",
					"outputs": [],
					"stateMutability": "nonpayable",
					"type": "function"
				},
				{
					"inputs": [
						{
							"internalType": "uint256",
							"name": "index",
							"type": "uint256"
						}
					],
					"name": "fromtodo",
					"outputs": [],
					"stateMutability": "nonpayable",
					"type": "function"
				},
				{
					"inputs": [
						{
							"internalType": "uint256",
							"name": "_index",
							"type": "uint256"
						}
					],
					"name": "getfromlist",
					"outputs": [
						{
							"internalType": "string",
							"name": "",
							"type": "string"
						},
						{
							"internalType": "uint256",
							"name": "",
							"type": "uint256"
						},
						{
							"internalType": "uint256",
							"name": "",
							"type": "uint256"
						},
						{
							"internalType": "uint256",
							"name": "",
							"type": "uint256"
						}
					],
					"stateMutability": "view",
					"type": "function"
				}
			],
			"devdoc": {
				"kind": "dev",
				"methods": {},
				"version": 1
			},
			"evm": {
				"assembly": "    /* \"Todo.sol\":56:936  contract TodoList{\r... */\n  mstore(0x40, 0x80)\n  callvalue\n  dup1\n  iszero\n  tag_1\n  jumpi\n  0x00\n  dup1\n  revert\ntag_1:\n  pop\n  dataSize(sub_0)\n  dup1\n  dataOffset(sub_0)\n  0x00\n  codecopy\n  0x00\n  return\nstop\n\nsub_0: assembly {\n        /* \"Todo.sol\":56:936  contract TodoList{\r... */\n      mstore(0x40, 0x80)\n      callvalue\n      dup1\n      iszero\n      tag_1\n      jumpi\n      0x00\n      dup1\n      revert\n    tag_1:\n      pop\n      jumpi(tag_2, lt(calldatasize, 0x04))\n      shr(0xe0, calldataload(0x00))\n      dup1\n      0x6de9715c\n      eq\n      tag_3\n      jumpi\n      dup1\n      0x7aadbdd3\n      eq\n      tag_4\n      jumpi\n      dup1\n      0x7dee7666\n      eq\n      tag_5\n      jumpi\n      dup1\n      0xe1b7edff\n      eq\n      tag_6\n      jumpi\n    tag_2:\n      0x00\n      dup1\n      revert\n        /* \"Todo.sol\":590:695  function fromtodo(uint index) external {\r... */\n    tag_3:\n      tag_7\n      0x04\n      dup1\n      calldatasize\n      sub\n      dup2\n      add\n      swap1\n      tag_8\n      swap2\n      swap1\n      tag_9\n      jump\t// in\n    tag_8:\n      tag_10\n      jump\t// in\n    tag_7:\n      stop\n        /* \"Todo.sol\":408:586  function getfromlist(uint _index) public view returns(string memory,uint,uint,uint){\r... */\n    tag_4:\n      tag_11\n      0x04\n      dup1\n      calldatasize\n      sub\n      dup2\n      add\n      swap1\n      tag_12\n      swap2\n      swap1\n      tag_9\n      jump\t// in\n    tag_12:\n      tag_13\n      jump\t// in\n    tag_11:\n      mload(0x40)\n      tag_14\n      swap5\n      swap4\n      swap3\n      swap2\n      swap1\n      tag_15\n      jump\t// in\n    tag_14:\n      mload(0x40)\n      dup1\n      swap2\n      sub\n      swap1\n      return\n        /* \"Todo.sol\":697:931  function edittodo(uint index,string memory _action,uint _day,uint _month,uint _year) external{\r... */\n    tag_5:\n      tag_16\n      0x04\n      dup1\n      calldatasize\n      sub\n      dup2\n      add\n      swap1\n      tag_17\n      swap2\n      swap1\n      tag_18\n      jump\t// in\n    tag_17:\n      tag_19\n      jump\t// in\n    tag_16:\n      stop\n        /* \"Todo.sol\":215:406  function addtolist(string memory _action,uint _day,uint _month,uint _year) external {\r... */\n    tag_6:\n      tag_20\n      0x04\n      dup1\n      calldatasize\n      sub\n      dup2\n      add\n      swap1\n      tag_21\n      swap2\n      swap1\n      tag_22\n      jump\t// in\n    tag_21:\n      tag_23\n      jump\t// in\n    tag_20:\n      stop\n        /* \"Todo.sol\":590:695  function fromtodo(uint index) external {\r... */\n    tag_10:\n        /* \"Todo.sol\":649:656  todoarr */\n      0x00\n        /* \"Todo.sol\":673:674  1 */\n      0x01\n        /* \"Todo.sol\":657:664  todoarr */\n      0x00\n        /* \"Todo.sol\":657:671  todoarr.length */\n      dup1\n      sload\n      swap1\n      pop\n        /* \"Todo.sol\":657:674  todoarr.length -1 */\n      tag_25\n      swap2\n      swap1\n      tag_26\n      jump\t// in\n    tag_25:\n        /* \"Todo.sol\":649:675  todoarr[todoarr.length -1] */\n      dup2\n      sload\n      dup2\n      lt\n      tag_27\n      jumpi\n      tag_28\n      tag_29\n      jump\t// in\n    tag_28:\n    tag_27:\n      swap1\n      0x00\n      mstore\n      keccak256(0x00, 0x20)\n      swap1\n      0x04\n      mul\n      add\n        /* \"Todo.sol\":632:639  todoarr */\n      0x00\n        /* \"Todo.sol\":640:645  index */\n      dup3\n        /* \"Todo.sol\":632:646  todoarr[index] */\n      dup2\n      sload\n      dup2\n      lt\n      tag_31\n      jumpi\n      tag_32\n      tag_29\n      jump\t// in\n    tag_32:\n    tag_31:\n      swap1\n      0x00\n      mstore\n      keccak256(0x00, 0x20)\n      swap1\n      0x04\n      mul\n      add\n        /* \"Todo.sol\":632:675  todoarr[index] = todoarr[todoarr.length -1] */\n      0x00\n      dup3\n      add\n      dup2\n      0x00\n      add\n      swap1\n      dup1\n      sload\n      tag_34\n      swap1\n      tag_35\n      jump\t// in\n    tag_34:\n      tag_36\n      swap3\n      swap2\n      swap1\n      tag_37\n      jump\t// in\n    tag_36:\n      pop\n      0x01\n      dup3\n      add\n      sload\n      dup2\n      0x01\n      add\n      sstore\n      0x02\n      dup3\n      add\n      sload\n      dup2\n      0x02\n      add\n      sstore\n      0x03\n      dup3\n      add\n      sload\n      dup2\n      0x03\n      add\n      sstore\n      swap1\n      pop\n      pop\n        /* \"Todo.sol\":678:685  todoarr */\n      0x00\n        /* \"Todo.sol\":678:691  todoarr.pop() */\n      dup1\n      sload\n      dup1\n      tag_38\n      jumpi\n      tag_39\n      tag_40\n      jump\t// in\n    tag_39:\n    tag_38:\n      0x01\n      swap1\n      sub\n      dup2\n      dup2\n      swap1\n      0x00\n      mstore\n      keccak256(0x00, 0x20)\n      swap1\n      0x04\n      mul\n      add\n      0x00\n      dup1\n      dup3\n      add\n      0x00\n      tag_42\n      swap2\n      swap1\n      tag_43\n      jump\t// in\n    tag_42:\n      0x01\n      dup3\n      add\n      0x00\n      swap1\n      sstore\n      0x02\n      dup3\n      add\n      0x00\n      swap1\n      sstore\n      0x03\n      dup3\n      add\n      0x00\n      swap1\n      sstore\n      pop\n      pop\n      swap1\n      sstore\n        /* \"Todo.sol\":590:695  function fromtodo(uint index) external {\r... */\n      pop\n      jump\t// out\n        /* \"Todo.sol\":408:586  function getfromlist(uint _index) public view returns(string memory,uint,uint,uint){\r... */\n    tag_13:\n        /* \"Todo.sol\":462:475  string memory */\n      0x60\n        /* \"Todo.sol\":476:480  uint */\n      0x00\n        /* \"Todo.sol\":481:485  uint */\n      dup1\n        /* \"Todo.sol\":486:490  uint */\n      0x00\n        /* \"Todo.sol\":494:510  Todo memory todo */\n      dup1\n        /* \"Todo.sol\":513:520  todoarr */\n      0x00\n        /* \"Todo.sol\":521:527  _index */\n      dup7\n        /* \"Todo.sol\":513:528  todoarr[_index] */\n      dup2\n      sload\n      dup2\n      lt\n      tag_45\n      jumpi\n      tag_46\n      tag_29\n      jump\t// in\n    tag_46:\n    tag_45:\n      swap1\n      0x00\n      mstore\n      keccak256(0x00, 0x20)\n      swap1\n      0x04\n      mul\n      add\n        /* \"Todo.sol\":494:528  Todo memory todo = todoarr[_index] */\n      mload(0x40)\n      dup1\n      0x80\n      add\n      0x40\n      mstore\n      swap1\n      dup2\n      0x00\n      dup3\n      add\n      dup1\n      sload\n      tag_48\n      swap1\n      tag_35\n      jump\t// in\n    tag_48:\n      dup1\n      0x1f\n      add\n      0x20\n      dup1\n      swap2\n      div\n      mul\n      0x20\n      add\n      mload(0x40)\n      swap1\n      dup2\n      add\n      0x40\n      mstore\n      dup1\n      swap3\n      swap2\n      swap1\n      dup2\n      dup2\n      mstore\n      0x20\n      add\n      dup3\n      dup1\n      sload\n      tag_49\n      swap1\n      tag_35\n      jump\t// in\n    tag_49:\n      dup1\n      iszero\n      tag_50\n      jumpi\n      dup1\n      0x1f\n      lt\n      tag_51\n      jumpi\n      0x0100\n      dup1\n      dup4\n      sload\n      div\n      mul\n      dup4\n      mstore\n      swap2\n      0x20\n      add\n      swap2\n      jump(tag_50)\n    tag_51:\n      dup3\n      add\n      swap2\n      swap1\n      0x00\n      mstore\n      keccak256(0x00, 0x20)\n      swap1\n    tag_52:\n      dup2\n      sload\n      dup2\n      mstore\n      swap1\n      0x01\n      add\n      swap1\n      0x20\n      add\n      dup1\n      dup4\n      gt\n      tag_52\n      jumpi\n      dup3\n      swap1\n      sub\n      0x1f\n      and\n      dup3\n      add\n      swap2\n    tag_50:\n      pop\n      pop\n      pop\n      pop\n      pop\n      dup2\n      mstore\n      0x20\n      add\n      0x01\n      dup3\n      add\n      sload\n      dup2\n      mstore\n      0x20\n      add\n      0x02\n      dup3\n      add\n      sload\n      dup2\n      mstore\n      0x20\n      add\n      0x03\n      dup3\n      add\n      sload\n      dup2\n      mstore\n      pop\n      pop\n      swap1\n      pop\n        /* \"Todo.sol\":540:544  todo */\n      dup1\n        /* \"Todo.sol\":540:551  todo.action */\n      0x00\n      add\n      mload\n        /* \"Todo.sol\":552:556  todo */\n      dup2\n        /* \"Todo.sol\":552:560  todo.day */\n      0x20\n      add\n      mload\n        /* \"Todo.sol\":561:565  todo */\n      dup3\n        /* \"Todo.sol\":561:571  todo.month */\n      0x40\n      add\n      mload\n        /* \"Todo.sol\":572:576  todo */\n      dup4\n        /* \"Todo.sol\":572:581  todo.year */\n      0x60\n      add\n      mload\n        /* \"Todo.sol\":532:582  return (todo.action,todo.day,todo.month,todo.year) */\n      swap5\n      pop\n      swap5\n      pop\n      swap5\n      pop\n      swap5\n      pop\n      pop\n        /* \"Todo.sol\":408:586  function getfromlist(uint _index) public view returns(string memory,uint,uint,uint){\r... */\n      swap2\n      swap4\n      pop\n      swap2\n      swap4\n      jump\t// out\n        /* \"Todo.sol\":697:931  function edittodo(uint index,string memory _action,uint _day,uint _month,uint _year) external{\r... */\n    tag_19:\n        /* \"Todo.sol\":793:811  Todo storage todos */\n      0x00\n        /* \"Todo.sol\":814:821  todoarr */\n      dup1\n        /* \"Todo.sol\":822:827  index */\n      dup7\n        /* \"Todo.sol\":814:828  todoarr[index] */\n      dup2\n      sload\n      dup2\n      lt\n      tag_54\n      jumpi\n      tag_55\n      tag_29\n      jump\t// in\n    tag_55:\n    tag_54:\n      swap1\n      0x00\n      mstore\n      keccak256(0x00, 0x20)\n      swap1\n      0x04\n      mul\n      add\n        /* \"Todo.sol\":793:828  Todo storage todos = todoarr[index] */\n      swap1\n      pop\n        /* \"Todo.sol\":846:853  _action */\n      dup5\n        /* \"Todo.sol\":831:836  todos */\n      dup2\n        /* \"Todo.sol\":831:843  todos.action */\n      0x00\n      add\n        /* \"Todo.sol\":831:853  todos.action = _action */\n      swap1\n      dup1\n      mload\n      swap1\n      0x20\n      add\n      swap1\n      tag_57\n      swap3\n      swap2\n      swap1\n      tag_58\n      jump\t// in\n    tag_57:\n      pop\n        /* \"Todo.sol\":790:931  {\r... */\n      pop\n        /* \"Todo.sol\":697:931  function edittodo(uint index,string memory _action,uint _day,uint _month,uint _year) external{\r... */\n      pop\n      pop\n      pop\n      pop\n      pop\n      jump\t// out\n        /* \"Todo.sol\":215:406  function addtolist(string memory _action,uint _day,uint _month,uint _year) external {\r... */\n    tag_23:\n        /* \"Todo.sol\":302:309  todoarr */\n      0x00\n        /* \"Todo.sol\":315:401  Todo({\r... */\n      mload(0x40)\n      dup1\n      0x80\n      add\n      0x40\n      mstore\n      dup1\n        /* \"Todo.sol\":335:342  _action */\n      dup7\n        /* \"Todo.sol\":315:401  Todo({\r... */\n      dup2\n      mstore\n      0x20\n      add\n        /* \"Todo.sol\":354:358  _day */\n      dup6\n        /* \"Todo.sol\":315:401  Todo({\r... */\n      dup2\n      mstore\n      0x20\n      add\n        /* \"Todo.sol\":372:378  _month */\n      dup5\n        /* \"Todo.sol\":315:401  Todo({\r... */\n      dup2\n      mstore\n      0x20\n      add\n        /* \"Todo.sol\":392:397  _year */\n      dup4\n        /* \"Todo.sol\":315:401  Todo({\r... */\n      dup2\n      mstore\n      pop\n        /* \"Todo.sol\":302:402  todoarr.push(Todo({\r... */\n      swap1\n      dup1\n      0x01\n      dup2\n      sload\n      add\n      dup1\n      dup3\n      sstore\n      dup1\n      swap2\n      pop\n      pop\n      0x01\n      swap1\n      sub\n      swap1\n      0x00\n      mstore\n      keccak256(0x00, 0x20)\n      swap1\n      0x04\n      mul\n      add\n      0x00\n      swap1\n      swap2\n      swap1\n      swap2\n      swap1\n      swap2\n      pop\n      0x00\n      dup3\n      add\n      mload\n      dup2\n      0x00\n      add\n      swap1\n      dup1\n      mload\n      swap1\n      0x20\n      add\n      swap1\n      tag_61\n      swap3\n      swap2\n      swap1\n      tag_58\n      jump\t// in\n    tag_61:\n      pop\n      0x20\n      dup3\n      add\n      mload\n      dup2\n      0x01\n      add\n      sstore\n      0x40\n      dup3\n      add\n      mload\n      dup2\n      0x02\n      add\n      sstore\n      0x60\n      dup3\n      add\n      mload\n      dup2\n      0x03\n      add\n      sstore\n      pop\n      pop\n        /* \"Todo.sol\":215:406  function addtolist(string memory _action,uint _day,uint _month,uint _year) external {\r... */\n      pop\n      pop\n      pop\n      pop\n      jump\t// out\n    tag_37:\n      dup3\n      dup1\n      sload\n      tag_62\n      swap1\n      tag_35\n      jump\t// in\n    tag_62:\n      swap1\n      0x00\n      mstore\n      keccak256(0x00, 0x20)\n      swap1\n      0x1f\n      add\n      0x20\n      swap1\n      div\n      dup2\n      add\n      swap3\n      dup3\n      tag_64\n      jumpi\n      0x00\n      dup6\n      sstore\n      jump(tag_63)\n    tag_64:\n      dup3\n      0x1f\n      lt\n      tag_65\n      jumpi\n      dup1\n      sload\n      dup6\n      sstore\n      jump(tag_63)\n    tag_65:\n      dup3\n      dup1\n      add\n      0x01\n      add\n      dup6\n      sstore\n      dup3\n      iszero\n      tag_63\n      jumpi\n      0x00\n      mstore\n      keccak256(0x00, 0x20)\n      swap2\n      0x1f\n      add\n      0x20\n      swap1\n      div\n      dup3\n      add\n    tag_66:\n      dup3\n      dup2\n      gt\n      iszero\n      tag_67\n      jumpi\n      dup3\n      sload\n      dup3\n      sstore\n      swap2\n      0x01\n      add\n      swap2\n      swap1\n      0x01\n      add\n      swap1\n      jump(tag_66)\n    tag_67:\n    tag_63:\n      pop\n      swap1\n      pop\n      tag_68\n      swap2\n      swap1\n      tag_69\n      jump\t// in\n    tag_68:\n      pop\n      swap1\n      jump\t// out\n    tag_43:\n      pop\n      dup1\n      sload\n      tag_70\n      swap1\n      tag_35\n      jump\t// in\n    tag_70:\n      0x00\n      dup3\n      sstore\n      dup1\n      0x1f\n      lt\n      tag_72\n      jumpi\n      pop\n      jump(tag_71)\n    tag_72:\n      0x1f\n      add\n      0x20\n      swap1\n      div\n      swap1\n      0x00\n      mstore\n      keccak256(0x00, 0x20)\n      swap1\n      dup2\n      add\n      swap1\n      tag_73\n      swap2\n      swap1\n      tag_69\n      jump\t// in\n    tag_73:\n    tag_71:\n      pop\n      jump\t// out\n    tag_58:\n      dup3\n      dup1\n      sload\n      tag_74\n      swap1\n      tag_35\n      jump\t// in\n    tag_74:\n      swap1\n      0x00\n      mstore\n      keccak256(0x00, 0x20)\n      swap1\n      0x1f\n      add\n      0x20\n      swap1\n      div\n      dup2\n      add\n      swap3\n      dup3\n      tag_76\n      jumpi\n      0x00\n      dup6\n      sstore\n      jump(tag_75)\n    tag_76:\n      dup3\n      0x1f\n      lt\n      tag_77\n      jumpi\n      dup1\n      mload\n      not(0xff)\n      and\n      dup4\n      dup1\n      add\n      or\n      dup6\n      sstore\n      jump(tag_75)\n    tag_77:\n      dup3\n      dup1\n      add\n      0x01\n      add\n      dup6\n      sstore\n      dup3\n      iszero\n      tag_75\n      jumpi\n      swap2\n      dup3\n      add\n    tag_78:\n      dup3\n      dup2\n      gt\n      iszero\n      tag_79\n      jumpi\n      dup3\n      mload\n      dup3\n      sstore\n      swap2\n      0x20\n      add\n      swap2\n      swap1\n      0x01\n      add\n      swap1\n      jump(tag_78)\n    tag_79:\n    tag_75:\n      pop\n      swap1\n      pop\n      tag_80\n      swap2\n      swap1\n      tag_69\n      jump\t// in\n    tag_80:\n      pop\n      swap1\n      jump\t// out\n    tag_69:\n    tag_81:\n      dup1\n      dup3\n      gt\n      iszero\n      tag_82\n      jumpi\n      0x00\n      dup2\n      0x00\n      swap1\n      sstore\n      pop\n      0x01\n      add\n      jump(tag_81)\n    tag_82:\n      pop\n      swap1\n      jump\t// out\n        /* \"#utility.yul\":7:419   */\n    tag_84:\n        /* \"#utility.yul\":85:90   */\n      0x00\n        /* \"#utility.yul\":110:176   */\n      tag_86\n        /* \"#utility.yul\":126:175   */\n      tag_87\n        /* \"#utility.yul\":168:174   */\n      dup5\n        /* \"#utility.yul\":126:175   */\n      tag_88\n      jump\t// in\n    tag_87:\n        /* \"#utility.yul\":110:176   */\n      tag_89\n      jump\t// in\n    tag_86:\n        /* \"#utility.yul\":101:176   */\n      swap1\n      pop\n        /* \"#utility.yul\":199:205   */\n      dup3\n        /* \"#utility.yul\":192:197   */\n      dup2\n        /* \"#utility.yul\":185:206   */\n      mstore\n        /* \"#utility.yul\":237:241   */\n      0x20\n        /* \"#utility.yul\":230:235   */\n      dup2\n        /* \"#utility.yul\":226:242   */\n      add\n        /* \"#utility.yul\":275:278   */\n      dup5\n        /* \"#utility.yul\":266:272   */\n      dup5\n        /* \"#utility.yul\":261:264   */\n      dup5\n        /* \"#utility.yul\":257:273   */\n      add\n        /* \"#utility.yul\":254:279   */\n      gt\n        /* \"#utility.yul\":251:363   */\n      iszero\n      tag_90\n      jumpi\n        /* \"#utility.yul\":282:361   */\n      tag_91\n      tag_92\n      jump\t// in\n    tag_91:\n        /* \"#utility.yul\":251:363   */\n    tag_90:\n        /* \"#utility.yul\":372:413   */\n      tag_93\n        /* \"#utility.yul\":406:412   */\n      dup5\n        /* \"#utility.yul\":401:404   */\n      dup3\n        /* \"#utility.yul\":396:399   */\n      dup6\n        /* \"#utility.yul\":372:413   */\n      tag_94\n      jump\t// in\n    tag_93:\n        /* \"#utility.yul\":91:419   */\n      pop\n        /* \"#utility.yul\":7:419   */\n      swap4\n      swap3\n      pop\n      pop\n      pop\n      jump\t// out\n        /* \"#utility.yul\":439:779   */\n    tag_95:\n        /* \"#utility.yul\":495:500   */\n      0x00\n        /* \"#utility.yul\":544:547   */\n      dup3\n        /* \"#utility.yul\":537:541   */\n      0x1f\n        /* \"#utility.yul\":529:535   */\n      dup4\n        /* \"#utility.yul\":525:542   */\n      add\n        /* \"#utility.yul\":521:548   */\n      slt\n        /* \"#utility.yul\":511:633   */\n      tag_97\n      jumpi\n        /* \"#utility.yul\":552:631   */\n      tag_98\n      tag_99\n      jump\t// in\n    tag_98:\n        /* \"#utility.yul\":511:633   */\n    tag_97:\n        /* \"#utility.yul\":669:675   */\n      dup2\n        /* \"#utility.yul\":656:676   */\n      calldataload\n        /* \"#utility.yul\":694:773   */\n      tag_100\n        /* \"#utility.yul\":769:772   */\n      dup5\n        /* \"#utility.yul\":761:767   */\n      dup3\n        /* \"#utility.yul\":754:758   */\n      0x20\n        /* \"#utility.yul\":746:752   */\n      dup7\n        /* \"#utility.yul\":742:759   */\n      add\n        /* \"#utility.yul\":694:773   */\n      tag_84\n      jump\t// in\n    tag_100:\n        /* \"#utility.yul\":685:773   */\n      swap2\n      pop\n        /* \"#utility.yul\":501:779   */\n      pop\n        /* \"#utility.yul\":439:779   */\n      swap3\n      swap2\n      pop\n      pop\n      jump\t// out\n        /* \"#utility.yul\":785:924   */\n    tag_101:\n        /* \"#utility.yul\":831:836   */\n      0x00\n        /* \"#utility.yul\":869:875   */\n      dup2\n        /* \"#utility.yul\":856:876   */\n      calldataload\n        /* \"#utility.yul\":847:876   */\n      swap1\n      pop\n        /* \"#utility.yul\":885:918   */\n      tag_103\n        /* \"#utility.yul\":912:917   */\n      dup2\n        /* \"#utility.yul\":885:918   */\n      tag_104\n      jump\t// in\n    tag_103:\n        /* \"#utility.yul\":785:924   */\n      swap3\n      swap2\n      pop\n      pop\n      jump\t// out\n        /* \"#utility.yul\":930:1875   */\n    tag_22:\n        /* \"#utility.yul\":1026:1032   */\n      0x00\n        /* \"#utility.yul\":1034:1040   */\n      dup1\n        /* \"#utility.yul\":1042:1048   */\n      0x00\n        /* \"#utility.yul\":1050:1056   */\n      dup1\n        /* \"#utility.yul\":1099:1102   */\n      0x80\n        /* \"#utility.yul\":1087:1096   */\n      dup6\n        /* \"#utility.yul\":1078:1085   */\n      dup8\n        /* \"#utility.yul\":1074:1097   */\n      sub\n        /* \"#utility.yul\":1070:1103   */\n      slt\n        /* \"#utility.yul\":1067:1187   */\n      iszero\n      tag_106\n      jumpi\n        /* \"#utility.yul\":1106:1185   */\n      tag_107\n      tag_108\n      jump\t// in\n    tag_107:\n        /* \"#utility.yul\":1067:1187   */\n    tag_106:\n        /* \"#utility.yul\":1254:1255   */\n      0x00\n        /* \"#utility.yul\":1243:1252   */\n      dup6\n        /* \"#utility.yul\":1239:1256   */\n      add\n        /* \"#utility.yul\":1226:1257   */\n      calldataload\n        /* \"#utility.yul\":1284:1302   */\n      0xffffffffffffffff\n        /* \"#utility.yul\":1276:1282   */\n      dup2\n        /* \"#utility.yul\":1273:1303   */\n      gt\n        /* \"#utility.yul\":1270:1387   */\n      iszero\n      tag_109\n      jumpi\n        /* \"#utility.yul\":1306:1385   */\n      tag_110\n      tag_111\n      jump\t// in\n    tag_110:\n        /* \"#utility.yul\":1270:1387   */\n    tag_109:\n        /* \"#utility.yul\":1411:1474   */\n      tag_112\n        /* \"#utility.yul\":1466:1473   */\n      dup8\n        /* \"#utility.yul\":1457:1463   */\n      dup3\n        /* \"#utility.yul\":1446:1455   */\n      dup9\n        /* \"#utility.yul\":1442:1464   */\n      add\n        /* \"#utility.yul\":1411:1474   */\n      tag_95\n      jump\t// in\n    tag_112:\n        /* \"#utility.yul\":1401:1474   */\n      swap5\n      pop\n        /* \"#utility.yul\":1197:1484   */\n      pop\n        /* \"#utility.yul\":1523:1525   */\n      0x20\n        /* \"#utility.yul\":1549:1602   */\n      tag_113\n        /* \"#utility.yul\":1594:1601   */\n      dup8\n        /* \"#utility.yul\":1585:1591   */\n      dup3\n        /* \"#utility.yul\":1574:1583   */\n      dup9\n        /* \"#utility.yul\":1570:1592   */\n      add\n        /* \"#utility.yul\":1549:1602   */\n      tag_101\n      jump\t// in\n    tag_113:\n        /* \"#utility.yul\":1539:1602   */\n      swap4\n      pop\n        /* \"#utility.yul\":1494:1612   */\n      pop\n        /* \"#utility.yul\":1651:1653   */\n      0x40\n        /* \"#utility.yul\":1677:1730   */\n      tag_114\n        /* \"#utility.yul\":1722:1729   */\n      dup8\n        /* \"#utility.yul\":1713:1719   */\n      dup3\n        /* \"#utility.yul\":1702:1711   */\n      dup9\n        /* \"#utility.yul\":1698:1720   */\n      add\n        /* \"#utility.yul\":1677:1730   */\n      tag_101\n      jump\t// in\n    tag_114:\n        /* \"#utility.yul\":1667:1730   */\n      swap3\n      pop\n        /* \"#utility.yul\":1622:1740   */\n      pop\n        /* \"#utility.yul\":1779:1781   */\n      0x60\n        /* \"#utility.yul\":1805:1858   */\n      tag_115\n        /* \"#utility.yul\":1850:1857   */\n      dup8\n        /* \"#utility.yul\":1841:1847   */\n      dup3\n        /* \"#utility.yul\":1830:1839   */\n      dup9\n        /* \"#utility.yul\":1826:1848   */\n      add\n        /* \"#utility.yul\":1805:1858   */\n      tag_101\n      jump\t// in\n    tag_115:\n        /* \"#utility.yul\":1795:1858   */\n      swap2\n      pop\n        /* \"#utility.yul\":1750:1868   */\n      pop\n        /* \"#utility.yul\":930:1875   */\n      swap3\n      swap6\n      swap2\n      swap5\n      pop\n      swap3\n      pop\n      jump\t// out\n        /* \"#utility.yul\":1881:2210   */\n    tag_9:\n        /* \"#utility.yul\":1940:1946   */\n      0x00\n        /* \"#utility.yul\":1989:1991   */\n      0x20\n        /* \"#utility.yul\":1977:1986   */\n      dup3\n        /* \"#utility.yul\":1968:1975   */\n      dup5\n        /* \"#utility.yul\":1964:1987   */\n      sub\n        /* \"#utility.yul\":1960:1992   */\n      slt\n        /* \"#utility.yul\":1957:2076   */\n      iszero\n      tag_117\n      jumpi\n        /* \"#utility.yul\":1995:2074   */\n      tag_118\n      tag_108\n      jump\t// in\n    tag_118:\n        /* \"#utility.yul\":1957:2076   */\n    tag_117:\n        /* \"#utility.yul\":2115:2116   */\n      0x00\n        /* \"#utility.yul\":2140:2193   */\n      tag_119\n        /* \"#utility.yul\":2185:2192   */\n      dup5\n        /* \"#utility.yul\":2176:2182   */\n      dup3\n        /* \"#utility.yul\":2165:2174   */\n      dup6\n        /* \"#utility.yul\":2161:2183   */\n      add\n        /* \"#utility.yul\":2140:2193   */\n      tag_101\n      jump\t// in\n    tag_119:\n        /* \"#utility.yul\":2130:2193   */\n      swap2\n      pop\n        /* \"#utility.yul\":2086:2203   */\n      pop\n        /* \"#utility.yul\":1881:2210   */\n      swap3\n      swap2\n      pop\n      pop\n      jump\t// out\n        /* \"#utility.yul\":2216:3307   */\n    tag_18:\n        /* \"#utility.yul\":2321:2327   */\n      0x00\n        /* \"#utility.yul\":2329:2335   */\n      dup1\n        /* \"#utility.yul\":2337:2343   */\n      0x00\n        /* \"#utility.yul\":2345:2351   */\n      dup1\n        /* \"#utility.yul\":2353:2359   */\n      0x00\n        /* \"#utility.yul\":2402:2405   */\n      0xa0\n        /* \"#utility.yul\":2390:2399   */\n      dup7\n        /* \"#utility.yul\":2381:2388   */\n      dup9\n        /* \"#utility.yul\":2377:2400   */\n      sub\n        /* \"#utility.yul\":2373:2406   */\n      slt\n        /* \"#utility.yul\":2370:2490   */\n      iszero\n      tag_121\n      jumpi\n        /* \"#utility.yul\":2409:2488   */\n      tag_122\n      tag_108\n      jump\t// in\n    tag_122:\n        /* \"#utility.yul\":2370:2490   */\n    tag_121:\n        /* \"#utility.yul\":2529:2530   */\n      0x00\n        /* \"#utility.yul\":2554:2607   */\n      tag_123\n        /* \"#utility.yul\":2599:2606   */\n      dup9\n        /* \"#utility.yul\":2590:2596   */\n      dup3\n        /* \"#utility.yul\":2579:2588   */\n      dup10\n        /* \"#utility.yul\":2575:2597   */\n      add\n        /* \"#utility.yul\":2554:2607   */\n      tag_101\n      jump\t// in\n    tag_123:\n        /* \"#utility.yul\":2544:2607   */\n      swap6\n      pop\n        /* \"#utility.yul\":2500:2617   */\n      pop\n        /* \"#utility.yul\":2684:2686   */\n      0x20\n        /* \"#utility.yul\":2673:2682   */\n      dup7\n        /* \"#utility.yul\":2669:2687   */\n      add\n        /* \"#utility.yul\":2656:2688   */\n      calldataload\n        /* \"#utility.yul\":2715:2733   */\n      0xffffffffffffffff\n        /* \"#utility.yul\":2707:2713   */\n      dup2\n        /* \"#utility.yul\":2704:2734   */\n      gt\n        /* \"#utility.yul\":2701:2818   */\n      iszero\n      tag_124\n      jumpi\n        /* \"#utility.yul\":2737:2816   */\n      tag_125\n      tag_111\n      jump\t// in\n    tag_125:\n        /* \"#utility.yul\":2701:2818   */\n    tag_124:\n        /* \"#utility.yul\":2842:2905   */\n      tag_126\n        /* \"#utility.yul\":2897:2904   */\n      dup9\n        /* \"#utility.yul\":2888:2894   */\n      dup3\n        /* \"#utility.yul\":2877:2886   */\n      dup10\n        /* \"#utility.yul\":2873:2895   */\n      add\n        /* \"#utility.yul\":2842:2905   */\n      tag_95\n      jump\t// in\n    tag_126:\n        /* \"#utility.yul\":2832:2905   */\n      swap5\n      pop\n        /* \"#utility.yul\":2627:2915   */\n      pop\n        /* \"#utility.yul\":2954:2956   */\n      0x40\n        /* \"#utility.yul\":2980:3033   */\n      tag_127\n        /* \"#utility.yul\":3025:3032   */\n      dup9\n        /* \"#utility.yul\":3016:3022   */\n      dup3\n        /* \"#utility.yul\":3005:3014   */\n      dup10\n        /* \"#utility.yul\":3001:3023   */\n      add\n        /* \"#utility.yul\":2980:3033   */\n      tag_101\n      jump\t// in\n    tag_127:\n        /* \"#utility.yul\":2970:3033   */\n      swap4\n      pop\n        /* \"#utility.yul\":2925:3043   */\n      pop\n        /* \"#utility.yul\":3082:3084   */\n      0x60\n        /* \"#utility.yul\":3108:3161   */\n      tag_128\n        /* \"#utility.yul\":3153:3160   */\n      dup9\n        /* \"#utility.yul\":3144:3150   */\n      dup3\n        /* \"#utility.yul\":3133:3142   */\n      dup10\n        /* \"#utility.yul\":3129:3151   */\n      add\n        /* \"#utility.yul\":3108:3161   */\n      tag_101\n      jump\t// in\n    tag_128:\n        /* \"#utility.yul\":3098:3161   */\n      swap3\n      pop\n        /* \"#utility.yul\":3053:3171   */\n      pop\n        /* \"#utility.yul\":3210:3213   */\n      0x80\n        /* \"#utility.yul\":3237:3290   */\n      tag_129\n        /* \"#utility.yul\":3282:3289   */\n      dup9\n        /* \"#utility.yul\":3273:3279   */\n      dup3\n        /* \"#utility.yul\":3262:3271   */\n      dup10\n        /* \"#utility.yul\":3258:3280   */\n      add\n        /* \"#utility.yul\":3237:3290   */\n      tag_101\n      jump\t// in\n    tag_129:\n        /* \"#utility.yul\":3227:3290   */\n      swap2\n      pop\n        /* \"#utility.yul\":3181:3300   */\n      pop\n        /* \"#utility.yul\":2216:3307   */\n      swap3\n      swap6\n      pop\n      swap3\n      swap6\n      swap1\n      swap4\n      pop\n      jump\t// out\n        /* \"#utility.yul\":3313:3677   */\n    tag_130:\n        /* \"#utility.yul\":3401:3404   */\n      0x00\n        /* \"#utility.yul\":3429:3468   */\n      tag_132\n        /* \"#utility.yul\":3462:3467   */\n      dup3\n        /* \"#utility.yul\":3429:3468   */\n      tag_133\n      jump\t// in\n    tag_132:\n        /* \"#utility.yul\":3484:3555   */\n      tag_134\n        /* \"#utility.yul\":3548:3554   */\n      dup2\n        /* \"#utility.yul\":3543:3546   */\n      dup6\n        /* \"#utility.yul\":3484:3555   */\n      tag_135\n      jump\t// in\n    tag_134:\n        /* \"#utility.yul\":3477:3555   */\n      swap4\n      pop\n        /* \"#utility.yul\":3564:3616   */\n      tag_136\n        /* \"#utility.yul\":3609:3615   */\n      dup2\n        /* \"#utility.yul\":3604:3607   */\n      dup6\n        /* \"#utility.yul\":3597:3601   */\n      0x20\n        /* \"#utility.yul\":3590:3595   */\n      dup7\n        /* \"#utility.yul\":3586:3602   */\n      add\n        /* \"#utility.yul\":3564:3616   */\n      tag_137\n      jump\t// in\n    tag_136:\n        /* \"#utility.yul\":3641:3670   */\n      tag_138\n        /* \"#utility.yul\":3663:3669   */\n      dup2\n        /* \"#utility.yul\":3641:3670   */\n      tag_139\n      jump\t// in\n    tag_138:\n        /* \"#utility.yul\":3636:3639   */\n      dup5\n        /* \"#utility.yul\":3632:3671   */\n      add\n        /* \"#utility.yul\":3625:3671   */\n      swap2\n      pop\n        /* \"#utility.yul\":3405:3677   */\n      pop\n        /* \"#utility.yul\":3313:3677   */\n      swap3\n      swap2\n      pop\n      pop\n      jump\t// out\n        /* \"#utility.yul\":3683:3801   */\n    tag_140:\n        /* \"#utility.yul\":3770:3794   */\n      tag_142\n        /* \"#utility.yul\":3788:3793   */\n      dup2\n        /* \"#utility.yul\":3770:3794   */\n      tag_143\n      jump\t// in\n    tag_142:\n        /* \"#utility.yul\":3765:3768   */\n      dup3\n        /* \"#utility.yul\":3758:3795   */\n      mstore\n        /* \"#utility.yul\":3683:3801   */\n      pop\n      pop\n      jump\t// out\n        /* \"#utility.yul\":3807:4451   */\n    tag_15:\n        /* \"#utility.yul\":4004:4008   */\n      0x00\n        /* \"#utility.yul\":4042:4045   */\n      0x80\n        /* \"#utility.yul\":4031:4040   */\n      dup3\n        /* \"#utility.yul\":4027:4046   */\n      add\n        /* \"#utility.yul\":4019:4046   */\n      swap1\n      pop\n        /* \"#utility.yul\":4092:4101   */\n      dup2\n        /* \"#utility.yul\":4086:4090   */\n      dup2\n        /* \"#utility.yul\":4082:4102   */\n      sub\n        /* \"#utility.yul\":4078:4079   */\n      0x00\n        /* \"#utility.yul\":4067:4076   */\n      dup4\n        /* \"#utility.yul\":4063:4080   */\n      add\n        /* \"#utility.yul\":4056:4103   */\n      mstore\n        /* \"#utility.yul\":4120:4198   */\n      tag_145\n        /* \"#utility.yul\":4193:4197   */\n      dup2\n        /* \"#utility.yul\":4184:4190   */\n      dup8\n        /* \"#utility.yul\":4120:4198   */\n      tag_130\n      jump\t// in\n    tag_145:\n        /* \"#utility.yul\":4112:4198   */\n      swap1\n      pop\n        /* \"#utility.yul\":4208:4280   */\n      tag_146\n        /* \"#utility.yul\":4276:4278   */\n      0x20\n        /* \"#utility.yul\":4265:4274   */\n      dup4\n        /* \"#utility.yul\":4261:4279   */\n      add\n        /* \"#utility.yul\":4252:4258   */\n      dup7\n        /* \"#utility.yul\":4208:4280   */\n      tag_140\n      jump\t// in\n    tag_146:\n        /* \"#utility.yul\":4290:4362   */\n      tag_147\n        /* \"#utility.yul\":4358:4360   */\n      0x40\n        /* \"#utility.yul\":4347:4356   */\n      dup4\n        /* \"#utility.yul\":4343:4361   */\n      add\n        /* \"#utility.yul\":4334:4340   */\n      dup6\n        /* \"#utility.yul\":4290:4362   */\n      tag_140\n      jump\t// in\n    tag_147:\n        /* \"#utility.yul\":4372:4444   */\n      tag_148\n        /* \"#utility.yul\":4440:4442   */\n      0x60\n        /* \"#utility.yul\":4429:4438   */\n      dup4\n        /* \"#utility.yul\":4425:4443   */\n      add\n        /* \"#utility.yul\":4416:4422   */\n      dup5\n        /* \"#utility.yul\":4372:4444   */\n      tag_140\n      jump\t// in\n    tag_148:\n        /* \"#utility.yul\":3807:4451   */\n      swap6\n      swap5\n      pop\n      pop\n      pop\n      pop\n      pop\n      jump\t// out\n        /* \"#utility.yul\":4457:4586   */\n    tag_89:\n        /* \"#utility.yul\":4491:4497   */\n      0x00\n        /* \"#utility.yul\":4518:4538   */\n      tag_150\n      tag_151\n      jump\t// in\n    tag_150:\n        /* \"#utility.yul\":4508:4538   */\n      swap1\n      pop\n        /* \"#utility.yul\":4547:4580   */\n      tag_152\n        /* \"#utility.yul\":4575:4579   */\n      dup3\n        /* \"#utility.yul\":4567:4573   */\n      dup3\n        /* \"#utility.yul\":4547:4580   */\n      tag_153\n      jump\t// in\n    tag_152:\n        /* \"#utility.yul\":4457:4586   */\n      swap2\n      swap1\n      pop\n      jump\t// out\n        /* \"#utility.yul\":4592:4667   */\n    tag_151:\n        /* \"#utility.yul\":4625:4631   */\n      0x00\n        /* \"#utility.yul\":4658:4660   */\n      0x40\n        /* \"#utility.yul\":4652:4661   */\n      mload\n        /* \"#utility.yul\":4642:4661   */\n      swap1\n      pop\n        /* \"#utility.yul\":4592:4667   */\n      swap1\n      jump\t// out\n        /* \"#utility.yul\":4673:4981   */\n    tag_88:\n        /* \"#utility.yul\":4735:4739   */\n      0x00\n        /* \"#utility.yul\":4825:4843   */\n      0xffffffffffffffff\n        /* \"#utility.yul\":4817:4823   */\n      dup3\n        /* \"#utility.yul\":4814:4844   */\n      gt\n        /* \"#utility.yul\":4811:4867   */\n      iszero\n      tag_156\n      jumpi\n        /* \"#utility.yul\":4847:4865   */\n      tag_157\n      tag_158\n      jump\t// in\n    tag_157:\n        /* \"#utility.yul\":4811:4867   */\n    tag_156:\n        /* \"#utility.yul\":4885:4914   */\n      tag_159\n        /* \"#utility.yul\":4907:4913   */\n      dup3\n        /* \"#utility.yul\":4885:4914   */\n      tag_139\n      jump\t// in\n    tag_159:\n        /* \"#utility.yul\":4877:4914   */\n      swap1\n      pop\n        /* \"#utility.yul\":4969:4973   */\n      0x20\n        /* \"#utility.yul\":4963:4967   */\n      dup2\n        /* \"#utility.yul\":4959:4974   */\n      add\n        /* \"#utility.yul\":4951:4974   */\n      swap1\n      pop\n        /* \"#utility.yul\":4673:4981   */\n      swap2\n      swap1\n      pop\n      jump\t// out\n        /* \"#utility.yul\":4987:5086   */\n    tag_133:\n        /* \"#utility.yul\":5039:5045   */\n      0x00\n        /* \"#utility.yul\":5073:5078   */\n      dup2\n        /* \"#utility.yul\":5067:5079   */\n      mload\n        /* \"#utility.yul\":5057:5079   */\n      swap1\n      pop\n        /* \"#utility.yul\":4987:5086   */\n      swap2\n      swap1\n      pop\n      jump\t// out\n        /* \"#utility.yul\":5092:5261   */\n    tag_135:\n        /* \"#utility.yul\":5176:5187   */\n      0x00\n        /* \"#utility.yul\":5210:5216   */\n      dup3\n        /* \"#utility.yul\":5205:5208   */\n      dup3\n        /* \"#utility.yul\":5198:5217   */\n      mstore\n        /* \"#utility.yul\":5250:5254   */\n      0x20\n        /* \"#utility.yul\":5245:5248   */\n      dup3\n        /* \"#utility.yul\":5241:5255   */\n      add\n        /* \"#utility.yul\":5226:5255   */\n      swap1\n      pop\n        /* \"#utility.yul\":5092:5261   */\n      swap3\n      swap2\n      pop\n      pop\n      jump\t// out\n        /* \"#utility.yul\":5267:5458   */\n    tag_26:\n        /* \"#utility.yul\":5307:5311   */\n      0x00\n        /* \"#utility.yul\":5327:5347   */\n      tag_163\n        /* \"#utility.yul\":5345:5346   */\n      dup3\n        /* \"#utility.yul\":5327:5347   */\n      tag_143\n      jump\t// in\n    tag_163:\n        /* \"#utility.yul\":5322:5347   */\n      swap2\n      pop\n        /* \"#utility.yul\":5361:5381   */\n      tag_164\n        /* \"#utility.yul\":5379:5380   */\n      dup4\n        /* \"#utility.yul\":5361:5381   */\n      tag_143\n      jump\t// in\n    tag_164:\n        /* \"#utility.yul\":5356:5381   */\n      swap3\n      pop\n        /* \"#utility.yul\":5400:5401   */\n      dup3\n        /* \"#utility.yul\":5397:5398   */\n      dup3\n        /* \"#utility.yul\":5394:5402   */\n      lt\n        /* \"#utility.yul\":5391:5425   */\n      iszero\n      tag_165\n      jumpi\n        /* \"#utility.yul\":5405:5423   */\n      tag_166\n      tag_167\n      jump\t// in\n    tag_166:\n        /* \"#utility.yul\":5391:5425   */\n    tag_165:\n        /* \"#utility.yul\":5450:5451   */\n      dup3\n        /* \"#utility.yul\":5447:5448   */\n      dup3\n        /* \"#utility.yul\":5443:5452   */\n      sub\n        /* \"#utility.yul\":5435:5452   */\n      swap1\n      pop\n        /* \"#utility.yul\":5267:5458   */\n      swap3\n      swap2\n      pop\n      pop\n      jump\t// out\n        /* \"#utility.yul\":5464:5541   */\n    tag_143:\n        /* \"#utility.yul\":5501:5508   */\n      0x00\n        /* \"#utility.yul\":5530:5535   */\n      dup2\n        /* \"#utility.yul\":5519:5535   */\n      swap1\n      pop\n        /* \"#utility.yul\":5464:5541   */\n      swap2\n      swap1\n      pop\n      jump\t// out\n        /* \"#utility.yul\":5547:5701   */\n    tag_94:\n        /* \"#utility.yul\":5631:5637   */\n      dup3\n        /* \"#utility.yul\":5626:5629   */\n      dup2\n        /* \"#utility.yul\":5621:5624   */\n      dup4\n        /* \"#utility.yul\":5608:5638   */\n      calldatacopy\n        /* \"#utility.yul\":5693:5694   */\n      0x00\n        /* \"#utility.yul\":5684:5690   */\n      dup4\n        /* \"#utility.yul\":5679:5682   */\n      dup4\n        /* \"#utility.yul\":5675:5691   */\n      add\n        /* \"#utility.yul\":5668:5695   */\n      mstore\n        /* \"#utility.yul\":5547:5701   */\n      pop\n      pop\n      pop\n      jump\t// out\n        /* \"#utility.yul\":5707:6014   */\n    tag_137:\n        /* \"#utility.yul\":5775:5776   */\n      0x00\n        /* \"#utility.yul\":5785:5898   */\n    tag_171:\n        /* \"#utility.yul\":5799:5805   */\n      dup4\n        /* \"#utility.yul\":5796:5797   */\n      dup2\n        /* \"#utility.yul\":5793:5806   */\n      lt\n        /* \"#utility.yul\":5785:5898   */\n      iszero\n      tag_173\n      jumpi\n        /* \"#utility.yul\":5884:5885   */\n      dup1\n        /* \"#utility.yul\":5879:5882   */\n      dup3\n        /* \"#utility.yul\":5875:5886   */\n      add\n        /* \"#utility.yul\":5869:5887   */\n      mload\n        /* \"#utility.yul\":5865:5866   */\n      dup2\n        /* \"#utility.yul\":5860:5863   */\n      dup5\n        /* \"#utility.yul\":5856:5867   */\n      add\n        /* \"#utility.yul\":5849:5888   */\n      mstore\n        /* \"#utility.yul\":5821:5823   */\n      0x20\n        /* \"#utility.yul\":5818:5819   */\n      dup2\n        /* \"#utility.yul\":5814:5824   */\n      add\n        /* \"#utility.yul\":5809:5824   */\n      swap1\n      pop\n        /* \"#utility.yul\":5785:5898   */\n      jump(tag_171)\n    tag_173:\n        /* \"#utility.yul\":5916:5922   */\n      dup4\n        /* \"#utility.yul\":5913:5914   */\n      dup2\n        /* \"#utility.yul\":5910:5923   */\n      gt\n        /* \"#utility.yul\":5907:6008   */\n      iszero\n      tag_174\n      jumpi\n        /* \"#utility.yul\":5996:5997   */\n      0x00\n        /* \"#utility.yul\":5987:5993   */\n      dup5\n        /* \"#utility.yul\":5982:5985   */\n      dup5\n        /* \"#utility.yul\":5978:5994   */\n      add\n        /* \"#utility.yul\":5971:5998   */\n      mstore\n        /* \"#utility.yul\":5907:6008   */\n    tag_174:\n        /* \"#utility.yul\":5756:6014   */\n      pop\n        /* \"#utility.yul\":5707:6014   */\n      pop\n      pop\n      pop\n      jump\t// out\n        /* \"#utility.yul\":6020:6340   */\n    tag_35:\n        /* \"#utility.yul\":6064:6070   */\n      0x00\n        /* \"#utility.yul\":6101:6102   */\n      0x02\n        /* \"#utility.yul\":6095:6099   */\n      dup3\n        /* \"#utility.yul\":6091:6103   */\n      div\n        /* \"#utility.yul\":6081:6103   */\n      swap1\n      pop\n        /* \"#utility.yul\":6148:6149   */\n      0x01\n        /* \"#utility.yul\":6142:6146   */\n      dup3\n        /* \"#utility.yul\":6138:6150   */\n      and\n        /* \"#utility.yul\":6169:6187   */\n      dup1\n        /* \"#utility.yul\":6159:6240   */\n      tag_176\n      jumpi\n        /* \"#utility.yul\":6225:6229   */\n      0x7f\n        /* \"#utility.yul\":6217:6223   */\n      dup3\n        /* \"#utility.yul\":6213:6230   */\n      and\n        /* \"#utility.yul\":6203:6230   */\n      swap2\n      pop\n        /* \"#utility.yul\":6159:6240   */\n    tag_176:\n        /* \"#utility.yul\":6287:6289   */\n      0x20\n        /* \"#utility.yul\":6279:6285   */\n      dup3\n        /* \"#utility.yul\":6276:6290   */\n      lt\n        /* \"#utility.yul\":6256:6274   */\n      dup2\n        /* \"#utility.yul\":6253:6291   */\n      eq\n        /* \"#utility.yul\":6250:6334   */\n      iszero\n      tag_177\n      jumpi\n        /* \"#utility.yul\":6306:6324   */\n      tag_178\n      tag_179\n      jump\t// in\n    tag_178:\n        /* \"#utility.yul\":6250:6334   */\n    tag_177:\n        /* \"#utility.yul\":6071:6340   */\n      pop\n        /* \"#utility.yul\":6020:6340   */\n      swap2\n      swap1\n      pop\n      jump\t// out\n        /* \"#utility.yul\":6346:6627   */\n    tag_153:\n        /* \"#utility.yul\":6429:6456   */\n      tag_181\n        /* \"#utility.yul\":6451:6455   */\n      dup3\n        /* \"#utility.yul\":6429:6456   */\n      tag_139\n      jump\t// in\n    tag_181:\n        /* \"#utility.yul\":6421:6427   */\n      dup2\n        /* \"#utility.yul\":6417:6457   */\n      add\n        /* \"#utility.yul\":6559:6565   */\n      dup2\n        /* \"#utility.yul\":6547:6557   */\n      dup2\n        /* \"#utility.yul\":6544:6566   */\n      lt\n        /* \"#utility.yul\":6523:6541   */\n      0xffffffffffffffff\n        /* \"#utility.yul\":6511:6521   */\n      dup3\n        /* \"#utility.yul\":6508:6542   */\n      gt\n        /* \"#utility.yul\":6505:6567   */\n      or\n        /* \"#utility.yul\":6502:6590   */\n      iszero\n      tag_182\n      jumpi\n        /* \"#utility.yul\":6570:6588   */\n      tag_183\n      tag_158\n      jump\t// in\n    tag_183:\n        /* \"#utility.yul\":6502:6590   */\n    tag_182:\n        /* \"#utility.yul\":6610:6620   */\n      dup1\n        /* \"#utility.yul\":6606:6608   */\n      0x40\n        /* \"#utility.yul\":6599:6621   */\n      mstore\n        /* \"#utility.yul\":6389:6627   */\n      pop\n        /* \"#utility.yul\":6346:6627   */\n      pop\n      pop\n      jump\t// out\n        /* \"#utility.yul\":6633:6813   */\n    tag_167:\n        /* \"#utility.yul\":6681:6758   */\n      0x4e487b7100000000000000000000000000000000000000000000000000000000\n        /* \"#utility.yul\":6678:6679   */\n      0x00\n        /* \"#utility.yul\":6671:6759   */\n      mstore\n        /* \"#utility.yul\":6778:6782   */\n      0x11\n        /* \"#utility.yul\":6775:6776   */\n      0x04\n        /* \"#utility.yul\":6768:6783   */\n      mstore\n        /* \"#utility.yul\":6802:6806   */\n      0x24\n        /* \"#utility.yul\":6799:6800   */\n      0x00\n        /* \"#utility.yul\":6792:6807   */\n      revert\n        /* \"#utility.yul\":6819:6999   */\n    tag_179:\n        /* \"#utility.yul\":6867:6944   */\n      0x4e487b7100000000000000000000000000000000000000000000000000000000\n        /* \"#utility.yul\":6864:6865   */\n      0x00\n        /* \"#utility.yul\":6857:6945   */\n      mstore\n        /* \"#utility.yul\":6964:6968   */\n      0x22\n        /* \"#utility.yul\":6961:6962   */\n      0x04\n        /* \"#utility.yul\":6954:6969   */\n      mstore\n        /* \"#utility.yul\":6988:6992   */\n      0x24\n        /* \"#utility.yul\":6985:6986   */\n      0x00\n        /* \"#utility.yul\":6978:6993   */\n      revert\n        /* \"#utility.yul\":7005:7185   */\n    tag_40:\n        /* \"#utility.yul\":7053:7130   */\n      0x4e487b7100000000000000000000000000000000000000000000000000000000\n        /* \"#utility.yul\":7050:7051   */\n      0x00\n        /* \"#utility.yul\":7043:7131   */\n      mstore\n        /* \"#utility.yul\":7150:7154   */\n      0x31\n        /* \"#utility.yul\":7147:7148   */\n      0x04\n        /* \"#utility.yul\":7140:7155   */\n      mstore\n        /* \"#utility.yul\":7174:7178   */\n      0x24\n        /* \"#utility.yul\":7171:7172   */\n      0x00\n        /* \"#utility.yul\":7164:7179   */\n      revert\n        /* \"#utility.yul\":7191:7371   */\n    tag_29:\n        /* \"#utility.yul\":7239:7316   */\n      0x4e487b7100000000000000000000000000000000000000000000000000000000\n        /* \"#utility.yul\":7236:7237   */\n      0x00\n        /* \"#utility.yul\":7229:7317   */\n      mstore\n        /* \"#utility.yul\":7336:7340   */\n      0x32\n        /* \"#utility.yul\":7333:7334   */\n      0x04\n        /* \"#utility.yul\":7326:7341   */\n      mstore\n        /* \"#utility.yul\":7360:7364   */\n      0x24\n        /* \"#utility.yul\":7357:7358   */\n      0x00\n        /* \"#utility.yul\":7350:7365   */\n      revert\n        /* \"#utility.yul\":7377:7557   */\n    tag_158:\n        /* \"#utility.yul\":7425:7502   */\n      0x4e487b7100000000000000000000000000000000000000000000000000000000\n        /* \"#utility.yul\":7422:7423   */\n      0x00\n        /* \"#utility.yul\":7415:7503   */\n      mstore\n        /* \"#utility.yul\":7522:7526   */\n      0x41\n        /* \"#utility.yul\":7519:7520   */\n      0x04\n        /* \"#utility.yul\":7512:7527   */\n      mstore\n        /* \"#utility.yul\":7546:7550   */\n      0x24\n        /* \"#utility.yul\":7543:7544   */\n      0x00\n        /* \"#utility.yul\":7536:7551   */\n      revert\n        /* \"#utility.yul\":7563:7680   */\n    tag_99:\n        /* \"#utility.yul\":7672:7673   */\n      0x00\n        /* \"#utility.yul\":7669:7670   */\n      dup1\n        /* \"#utility.yul\":7662:7674   */\n      revert\n        /* \"#utility.yul\":7686:7803   */\n    tag_92:\n        /* \"#utility.yul\":7795:7796   */\n      0x00\n        /* \"#utility.yul\":7792:7793   */\n      dup1\n        /* \"#utility.yul\":7785:7797   */\n      revert\n        /* \"#utility.yul\":7809:7926   */\n    tag_111:\n        /* \"#utility.yul\":7918:7919   */\n      0x00\n        /* \"#utility.yul\":7915:7916   */\n      dup1\n        /* \"#utility.yul\":7908:7920   */\n      revert\n        /* \"#utility.yul\":7932:8049   */\n    tag_108:\n        /* \"#utility.yul\":8041:8042   */\n      0x00\n        /* \"#utility.yul\":8038:8039   */\n      dup1\n        /* \"#utility.yul\":8031:8043   */\n      revert\n        /* \"#utility.yul\":8055:8157   */\n    tag_139:\n        /* \"#utility.yul\":8096:8102   */\n      0x00\n        /* \"#utility.yul\":8147:8149   */\n      0x1f\n        /* \"#utility.yul\":8143:8150   */\n      not\n        /* \"#utility.yul\":8138:8140   */\n      0x1f\n        /* \"#utility.yul\":8131:8136   */\n      dup4\n        /* \"#utility.yul\":8127:8141   */\n      add\n        /* \"#utility.yul\":8123:8151   */\n      and\n        /* \"#utility.yul\":8113:8151   */\n      swap1\n      pop\n        /* \"#utility.yul\":8055:8157   */\n      swap2\n      swap1\n      pop\n      jump\t// out\n        /* \"#utility.yul\":8163:8285   */\n    tag_104:\n        /* \"#utility.yul\":8236:8260   */\n      tag_195\n        /* \"#utility.yul\":8254:8259   */\n      dup2\n        /* \"#utility.yul\":8236:8260   */\n      tag_143\n      jump\t// in\n    tag_195:\n        /* \"#utility.yul\":8229:8234   */\n      dup2\n        /* \"#utility.yul\":8226:8261   */\n      eq\n        /* \"#utility.yul\":8216:8279   */\n      tag_196\n      jumpi\n        /* \"#utility.yul\":8275:8276   */\n      0x00\n        /* \"#utility.yul\":8272:8273   */\n      dup1\n        /* \"#utility.yul\":8265:8277   */\n      revert\n        /* \"#utility.yul\":8216:8279   */\n    tag_196:\n        /* \"#utility.yul\":8163:8285   */\n      pop\n      jump\t// out\n\n    auxdata: 0xa2646970667358221220632c8f4ce9b7aeebc3bb85229ee646380dfb48d6db2a36ad6bb83294cecdda9364736f6c63430008070033\n}\n",
				"bytecode": {
					"linkReferences": {},
					"object": "608060405234801561001057600080fd5b50610a26806100206000396000f3fe608060405234801561001057600080fd5b506004361061004c5760003560e01c80636de9715c146100515780637aadbdd31461006d5780637dee7666146100a0578063e1b7edff146100bc575b600080fd5b61006b6004803603810190610066919061061c565b6100d8565b005b6100876004803603810190610082919061061c565b6101c4565b6040516100979493929190610728565b60405180910390f35b6100ba60048036038101906100b59190610649565b6102cf565b005b6100d660048036038101906100d19190610599565b610315565b005b600060016000805490506100ec91906107e6565b815481106100fd576100fc610956565b5b90600052602060002090600402016000828154811061011f5761011e610956565b5b9060005260206000209060040201600082018160000190805461014190610866565b61014c9291906103a4565b5060018201548160010155600282015481600201556003820154816003015590505060008054806101805761017f610927565b5b6001900381819060005260206000209060040201600080820160006101a59190610431565b6001820160009055600282016000905560038201600090555050905550565b6060600080600080600086815481106101e0576101df610956565b5b906000526020600020906004020160405180608001604052908160008201805461020990610866565b80601f016020809104026020016040519081016040528092919081815260200182805461023590610866565b80156102825780601f1061025757610100808354040283529160200191610282565b820191906000526020600020905b81548152906001019060200180831161026557829003601f168201915b505050505081526020016001820154815260200160028201548152602001600382015481525050905080600001518160200151826040015183606001519450945094509450509193509193565b60008086815481106102e4576102e3610956565b5b906000526020600020906004020190508481600001908051906020019061030c929190610471565b50505050505050565b60006040518060800160405280868152602001858152602001848152602001838152509080600181540180825580915050600190039060005260206000209060040201600090919091909150600082015181600001908051906020019061037d929190610471565b50602082015181600101556040820151816002015560608201518160030155505050505050565b8280546103b090610866565b90600052602060002090601f0160209004810192826103d25760008555610420565b82601f106103e35780548555610420565b8280016001018555821561042057600052602060002091601f016020900482015b8281111561041f578254825591600101919060010190610404565b5b50905061042d91906104f7565b5090565b50805461043d90610866565b6000825580601f1061044f575061046e565b601f01602090049060005260206000209081019061046d91906104f7565b5b50565b82805461047d90610866565b90600052602060002090601f01602090048101928261049f57600085556104e6565b82601f106104b857805160ff19168380011785556104e6565b828001600101855582156104e6579182015b828111156104e55782518255916020019190600101906104ca565b5b5090506104f391906104f7565b5090565b5b808211156105105760008160009055506001016104f8565b5090565b600061052761052284610799565b610774565b905082815260208101848484011115610543576105426109b9565b5b61054e848285610824565b509392505050565b600082601f83011261056b5761056a6109b4565b5b813561057b848260208601610514565b91505092915050565b600081359050610593816109d9565b92915050565b600080600080608085870312156105b3576105b26109c3565b5b600085013567ffffffffffffffff8111156105d1576105d06109be565b5b6105dd87828801610556565b94505060206105ee87828801610584565b93505060406105ff87828801610584565b925050606061061087828801610584565b91505092959194509250565b600060208284031215610632576106316109c3565b5b600061064084828501610584565b91505092915050565b600080600080600060a08688031215610665576106646109c3565b5b600061067388828901610584565b955050602086013567ffffffffffffffff811115610694576106936109be565b5b6106a088828901610556565b94505060406106b188828901610584565b93505060606106c288828901610584565b92505060806106d388828901610584565b9150509295509295909350565b60006106eb826107ca565b6106f581856107d5565b9350610705818560208601610833565b61070e816109c8565b840191505092915050565b6107228161081a565b82525050565b6000608082019050818103600083015261074281876106e0565b90506107516020830186610719565b61075e6040830185610719565b61076b6060830184610719565b95945050505050565b600061077e61078f565b905061078a8282610898565b919050565b6000604051905090565b600067ffffffffffffffff8211156107b4576107b3610985565b5b6107bd826109c8565b9050602081019050919050565b600081519050919050565b600082825260208201905092915050565b60006107f18261081a565b91506107fc8361081a565b92508282101561080f5761080e6108c9565b5b828203905092915050565b6000819050919050565b82818337600083830152505050565b60005b83811015610851578082015181840152602081019050610836565b83811115610860576000848401525b50505050565b6000600282049050600182168061087e57607f821691505b60208210811415610892576108916108f8565b5b50919050565b6108a1826109c8565b810181811067ffffffffffffffff821117156108c0576108bf610985565b5b80604052505050565b7f4e487b7100000000000000000000000000000000000000000000000000000000600052601160045260246000fd5b7f4e487b7100000000000000000000000000000000000000000000000000000000600052602260045260246000fd5b7f4e487b7100000000000000000000000000000000000000000000000000000000600052603160045260246000fd5b7f4e487b7100000000000000000000000000000000000000000000000000000000600052603260045260246000fd5b7f4e487b7100000000000000000000000000000000000000000000000000000000600052604160045260246000fd5b600080fd5b600080fd5b600080fd5b600080fd5b6000601f19601f8301169050919050565b6109e28161081a565b81146109ed57600080fd5b5056fea2646970667358221220632c8f4ce9b7aeebc3bb85229ee646380dfb48d6db2a36ad6bb83294cecdda9364736f6c63430008070033",
					"opcodes": "PUSH1 0x80 PUSH1 0x40 MSTORE CALLVALUE DUP1 ISZERO PUSH2 0x10 JUMPI PUSH1 0x0 DUP1 REVERT JUMPDEST POP PUSH2 0xA26 DUP1 PUSH2 0x20 PUSH1 0x0 CODECOPY PUSH1 0x0 RETURN INVALID PUSH1 0x80 PUSH1 0x40 MSTORE CALLVALUE DUP1 ISZERO PUSH2 0x10 JUMPI PUSH1 0x0 DUP1 REVERT JUMPDEST POP PUSH1 0x4 CALLDATASIZE LT PUSH2 0x4C JUMPI PUSH1 0x0 CALLDATALOAD PUSH1 0xE0 SHR DUP1 PUSH4 0x6DE9715C EQ PUSH2 0x51 JUMPI DUP1 PUSH4 0x7AADBDD3 EQ PUSH2 0x6D JUMPI DUP1 PUSH4 0x7DEE7666 EQ PUSH2 0xA0 JUMPI DUP1 PUSH4 0xE1B7EDFF EQ PUSH2 0xBC JUMPI JUMPDEST PUSH1 0x0 DUP1 REVERT JUMPDEST PUSH2 0x6B PUSH1 0x4 DUP1 CALLDATASIZE SUB DUP2 ADD SWAP1 PUSH2 0x66 SWAP2 SWAP1 PUSH2 0x61C JUMP JUMPDEST PUSH2 0xD8 JUMP JUMPDEST STOP JUMPDEST PUSH2 0x87 PUSH1 0x4 DUP1 CALLDATASIZE SUB DUP2 ADD SWAP1 PUSH2 0x82 SWAP2 SWAP1 PUSH2 0x61C JUMP JUMPDEST PUSH2 0x1C4 JUMP JUMPDEST PUSH1 0x40 MLOAD PUSH2 0x97 SWAP5 SWAP4 SWAP3 SWAP2 SWAP1 PUSH2 0x728 JUMP JUMPDEST PUSH1 0x40 MLOAD DUP1 SWAP2 SUB SWAP1 RETURN JUMPDEST PUSH2 0xBA PUSH1 0x4 DUP1 CALLDATASIZE SUB DUP2 ADD SWAP1 PUSH2 0xB5 SWAP2 SWAP1 PUSH2 0x649 JUMP JUMPDEST PUSH2 0x2CF JUMP JUMPDEST STOP JUMPDEST PUSH2 0xD6 PUSH1 0x4 DUP1 CALLDATASIZE SUB DUP2 ADD SWAP1 PUSH2 0xD1 SWAP2 SWAP1 PUSH2 0x599 JUMP JUMPDEST PUSH2 0x315 JUMP JUMPDEST STOP JUMPDEST PUSH1 0x0 PUSH1 0x1 PUSH1 0x0 DUP1 SLOAD SWAP1 POP PUSH2 0xEC SWAP2 SWAP1 PUSH2 0x7E6 JUMP JUMPDEST DUP2 SLOAD DUP2 LT PUSH2 0xFD JUMPI PUSH2 0xFC PUSH2 0x956 JUMP JUMPDEST JUMPDEST SWAP1 PUSH1 0x0 MSTORE PUSH1 0x20 PUSH1 0x0 KECCAK256 SWAP1 PUSH1 0x4 MUL ADD PUSH1 0x0 DUP3 DUP2 SLOAD DUP2 LT PUSH2 0x11F JUMPI PUSH2 0x11E PUSH2 0x956 JUMP JUMPDEST JUMPDEST SWAP1 PUSH1 0x0 MSTORE PUSH1 0x20 PUSH1 0x0 KECCAK256 SWAP1 PUSH1 0x4 MUL ADD PUSH1 0x0 DUP3 ADD DUP2 PUSH1 0x0 ADD SWAP1 DUP1 SLOAD PUSH2 0x141 SWAP1 PUSH2 0x866 JUMP JUMPDEST PUSH2 0x14C SWAP3 SWAP2 SWAP1 PUSH2 0x3A4 JUMP JUMPDEST POP PUSH1 0x1 DUP3 ADD SLOAD DUP2 PUSH1 0x1 ADD SSTORE PUSH1 0x2 DUP3 ADD SLOAD DUP2 PUSH1 0x2 ADD SSTORE PUSH1 0x3 DUP3 ADD SLOAD DUP2 PUSH1 0x3 ADD SSTORE SWAP1 POP POP PUSH1 0x0 DUP1 SLOAD DUP1 PUSH2 0x180 JUMPI PUSH2 0x17F PUSH2 0x927 JUMP JUMPDEST JUMPDEST PUSH1 0x1 SWAP1 SUB DUP2 DUP2 SWAP1 PUSH1 0x0 MSTORE PUSH1 0x20 PUSH1 0x0 KECCAK256 SWAP1 PUSH1 0x4 MUL ADD PUSH1 0x0 DUP1 DUP3 ADD PUSH1 0x0 PUSH2 0x1A5 SWAP2 SWAP1 PUSH2 0x431 JUMP JUMPDEST PUSH1 0x1 DUP3 ADD PUSH1 0x0 SWAP1 SSTORE PUSH1 0x2 DUP3 ADD PUSH1 0x0 SWAP1 SSTORE PUSH1 0x3 DUP3 ADD PUSH1 0x0 SWAP1 SSTORE POP POP SWAP1 SSTORE POP JUMP JUMPDEST PUSH1 0x60 PUSH1 0x0 DUP1 PUSH1 0x0 DUP1 PUSH1 0x0 DUP7 DUP2 SLOAD DUP2 LT PUSH2 0x1E0 JUMPI PUSH2 0x1DF PUSH2 0x956 JUMP JUMPDEST JUMPDEST SWAP1 PUSH1 0x0 MSTORE PUSH1 0x20 PUSH1 0x0 KECCAK256 SWAP1 PUSH1 0x4 MUL ADD PUSH1 0x40 MLOAD DUP1 PUSH1 0x80 ADD PUSH1 0x40 MSTORE SWAP1 DUP2 PUSH1 0x0 DUP3 ADD DUP1 SLOAD PUSH2 0x209 SWAP1 PUSH2 0x866 JUMP JUMPDEST DUP1 PUSH1 0x1F ADD PUSH1 0x20 DUP1 SWAP2 DIV MUL PUSH1 0x20 ADD PUSH1 0x40 MLOAD SWAP1 DUP2 ADD PUSH1 0x40 MSTORE DUP1 SWAP3 SWAP2 SWAP1 DUP2 DUP2 MSTORE PUSH1 0x20 ADD DUP3 DUP1 SLOAD PUSH2 0x235 SWAP1 PUSH2 0x866 JUMP JUMPDEST DUP1 ISZERO PUSH2 0x282 JUMPI DUP1 PUSH1 0x1F LT PUSH2 0x257 JUMPI PUSH2 0x100 DUP1 DUP4 SLOAD DIV MUL DUP4 MSTORE SWAP2 PUSH1 0x20 ADD SWAP2 PUSH2 0x282 JUMP JUMPDEST DUP3 ADD SWAP2 SWAP1 PUSH1 0x0 MSTORE PUSH1 0x20 PUSH1 0x0 KECCAK256 SWAP1 JUMPDEST DUP2 SLOAD DUP2 MSTORE SWAP1 PUSH1 0x1 ADD SWAP1 PUSH1 0x20 ADD DUP1 DUP4 GT PUSH2 0x265 JUMPI DUP3 SWAP1 SUB PUSH1 0x1F AND DUP3 ADD SWAP2 JUMPDEST POP POP POP POP POP DUP2 MSTORE PUSH1 0x20 ADD PUSH1 0x1 DUP3 ADD SLOAD DUP2 MSTORE PUSH1 0x20 ADD PUSH1 0x2 DUP3 ADD SLOAD DUP2 MSTORE PUSH1 0x20 ADD PUSH1 0x3 DUP3 ADD SLOAD DUP2 MSTORE POP POP SWAP1 POP DUP1 PUSH1 0x0 ADD MLOAD DUP2 PUSH1 0x20 ADD MLOAD DUP3 PUSH1 0x40 ADD MLOAD DUP4 PUSH1 0x60 ADD MLOAD SWAP5 POP SWAP5 POP SWAP5 POP SWAP5 POP POP SWAP2 SWAP4 POP SWAP2 SWAP4 JUMP JUMPDEST PUSH1 0x0 DUP1 DUP7 DUP2 SLOAD DUP2 LT PUSH2 0x2E4 JUMPI PUSH2 0x2E3 PUSH2 0x956 JUMP JUMPDEST JUMPDEST SWAP1 PUSH1 0x0 MSTORE PUSH1 0x20 PUSH1 0x0 KECCAK256 SWAP1 PUSH1 0x4 MUL ADD SWAP1 POP DUP5 DUP2 PUSH1 0x0 ADD SWAP1 DUP1 MLOAD SWAP1 PUSH1 0x20 ADD SWAP1 PUSH2 0x30C SWAP3 SWAP2 SWAP1 PUSH2 0x471 JUMP JUMPDEST POP POP POP POP POP POP POP JUMP JUMPDEST PUSH1 0x0 PUSH1 0x40 MLOAD DUP1 PUSH1 0x80 ADD PUSH1 0x40 MSTORE DUP1 DUP7 DUP2 MSTORE PUSH1 0x20 ADD DUP6 DUP2 MSTORE PUSH1 0x20 ADD DUP5 DUP2 MSTORE PUSH1 0x20 ADD DUP4 DUP2 MSTORE POP SWAP1 DUP1 PUSH1 0x1 DUP2 SLOAD ADD DUP1 DUP3 SSTORE DUP1 SWAP2 POP POP PUSH1 0x1 SWAP1 SUB SWAP1 PUSH1 0x0 MSTORE PUSH1 0x20 PUSH1 0x0 KECCAK256 SWAP1 PUSH1 0x4 MUL ADD PUSH1 0x0 SWAP1 SWAP2 SWAP1 SWAP2 SWAP1 SWAP2 POP PUSH1 0x0 DUP3 ADD MLOAD DUP2 PUSH1 0x0 ADD SWAP1 DUP1 MLOAD SWAP1 PUSH1 0x20 ADD SWAP1 PUSH2 0x37D SWAP3 SWAP2 SWAP1 PUSH2 0x471 JUMP JUMPDEST POP PUSH1 0x20 DUP3 ADD MLOAD DUP2 PUSH1 0x1 ADD SSTORE PUSH1 0x40 DUP3 ADD MLOAD DUP2 PUSH1 0x2 ADD SSTORE PUSH1 0x60 DUP3 ADD MLOAD DUP2 PUSH1 0x3 ADD SSTORE POP POP POP POP POP POP JUMP JUMPDEST DUP3 DUP1 SLOAD PUSH2 0x3B0 SWAP1 PUSH2 0x866 JUMP JUMPDEST SWAP1 PUSH1 0x0 MSTORE PUSH1 0x20 PUSH1 0x0 KECCAK256 SWAP1 PUSH1 0x1F ADD PUSH1 0x20 SWAP1 DIV DUP2 ADD SWAP3 DUP3 PUSH2 0x3D2 JUMPI PUSH1 0x0 DUP6 SSTORE PUSH2 0x420 JUMP JUMPDEST DUP3 PUSH1 0x1F LT PUSH2 0x3E3 JUMPI DUP1 SLOAD DUP6 SSTORE PUSH2 0x420 JUMP JUMPDEST DUP3 DUP1 ADD PUSH1 0x1 ADD DUP6 SSTORE DUP3 ISZERO PUSH2 0x420 JUMPI PUSH1 0x0 MSTORE PUSH1 0x20 PUSH1 0x0 KECCAK256 SWAP2 PUSH1 0x1F ADD PUSH1 0x20 SWAP1 DIV DUP3 ADD JUMPDEST DUP3 DUP2 GT ISZERO PUSH2 0x41F JUMPI DUP3 SLOAD DUP3 SSTORE SWAP2 PUSH1 0x1 ADD SWAP2 SWAP1 PUSH1 0x1 ADD SWAP1 PUSH2 0x404 JUMP JUMPDEST JUMPDEST POP SWAP1 POP PUSH2 0x42D SWAP2 SWAP1 PUSH2 0x4F7 JUMP JUMPDEST POP SWAP1 JUMP JUMPDEST POP DUP1 SLOAD PUSH2 0x43D SWAP1 PUSH2 0x866 JUMP JUMPDEST PUSH1 0x0 DUP3 SSTORE DUP1 PUSH1 0x1F LT PUSH2 0x44F JUMPI POP PUSH2 0x46E JUMP JUMPDEST PUSH1 0x1F ADD PUSH1 0x20 SWAP1 DIV SWAP1 PUSH1 0x0 MSTORE PUSH1 0x20 PUSH1 0x0 KECCAK256 SWAP1 DUP2 ADD SWAP1 PUSH2 0x46D SWAP2 SWAP1 PUSH2 0x4F7 JUMP JUMPDEST JUMPDEST POP JUMP JUMPDEST DUP3 DUP1 SLOAD PUSH2 0x47D SWAP1 PUSH2 0x866 JUMP JUMPDEST SWAP1 PUSH1 0x0 MSTORE PUSH1 0x20 PUSH1 0x0 KECCAK256 SWAP1 PUSH1 0x1F ADD PUSH1 0x20 SWAP1 DIV DUP2 ADD SWAP3 DUP3 PUSH2 0x49F JUMPI PUSH1 0x0 DUP6 SSTORE PUSH2 0x4E6 JUMP JUMPDEST DUP3 PUSH1 0x1F LT PUSH2 0x4B8 JUMPI DUP1 MLOAD PUSH1 0xFF NOT AND DUP4 DUP1 ADD OR DUP6 SSTORE PUSH2 0x4E6 JUMP JUMPDEST DUP3 DUP1 ADD PUSH1 0x1 ADD DUP6 SSTORE DUP3 ISZERO PUSH2 0x4E6 JUMPI SWAP2 DUP3 ADD JUMPDEST DUP3 DUP2 GT ISZERO PUSH2 0x4E5 JUMPI DUP3 MLOAD DUP3 SSTORE SWAP2 PUSH1 0x20 ADD SWAP2 SWAP1 PUSH1 0x1 ADD SWAP1 PUSH2 0x4CA JUMP JUMPDEST JUMPDEST POP SWAP1 POP PUSH2 0x4F3 SWAP2 SWAP1 PUSH2 0x4F7 JUMP JUMPDEST POP SWAP1 JUMP JUMPDEST JUMPDEST DUP1 DUP3 GT ISZERO PUSH2 0x510 JUMPI PUSH1 0x0 DUP2 PUSH1 0x0 SWAP1 SSTORE POP PUSH1 0x1 ADD PUSH2 0x4F8 JUMP JUMPDEST POP SWAP1 JUMP JUMPDEST PUSH1 0x0 PUSH2 0x527 PUSH2 0x522 DUP5 PUSH2 0x799 JUMP JUMPDEST PUSH2 0x774 JUMP JUMPDEST SWAP1 POP DUP3 DUP2 MSTORE PUSH1 0x20 DUP2 ADD DUP5 DUP5 DUP5 ADD GT ISZERO PUSH2 0x543 JUMPI PUSH2 0x542 PUSH2 0x9B9 JUMP JUMPDEST JUMPDEST PUSH2 0x54E DUP5 DUP3 DUP6 PUSH2 0x824 JUMP JUMPDEST POP SWAP4 SWAP3 POP POP POP JUMP JUMPDEST PUSH1 0x0 DUP3 PUSH1 0x1F DUP4 ADD SLT PUSH2 0x56B JUMPI PUSH2 0x56A PUSH2 0x9B4 JUMP JUMPDEST JUMPDEST DUP2 CALLDATALOAD PUSH2 0x57B DUP5 DUP3 PUSH1 0x20 DUP7 ADD PUSH2 0x514 JUMP JUMPDEST SWAP2 POP POP SWAP3 SWAP2 POP POP JUMP JUMPDEST PUSH1 0x0 DUP2 CALLDATALOAD SWAP1 POP PUSH2 0x593 DUP2 PUSH2 0x9D9 JUMP JUMPDEST SWAP3 SWAP2 POP POP JUMP JUMPDEST PUSH1 0x0 DUP1 PUSH1 0x0 DUP1 PUSH1 0x80 DUP6 DUP8 SUB SLT ISZERO PUSH2 0x5B3 JUMPI PUSH2 0x5B2 PUSH2 0x9C3 JUMP JUMPDEST JUMPDEST PUSH1 0x0 DUP6 ADD CALLDATALOAD PUSH8 0xFFFFFFFFFFFFFFFF DUP2 GT ISZERO PUSH2 0x5D1 JUMPI PUSH2 0x5D0 PUSH2 0x9BE JUMP JUMPDEST JUMPDEST PUSH2 0x5DD DUP8 DUP3 DUP9 ADD PUSH2 0x556 JUMP JUMPDEST SWAP5 POP POP PUSH1 0x20 PUSH2 0x5EE DUP8 DUP3 DUP9 ADD PUSH2 0x584 JUMP JUMPDEST SWAP4 POP POP PUSH1 0x40 PUSH2 0x5FF DUP8 DUP3 DUP9 ADD PUSH2 0x584 JUMP JUMPDEST SWAP3 POP POP PUSH1 0x60 PUSH2 0x610 DUP8 DUP3 DUP9 ADD PUSH2 0x584 JUMP JUMPDEST SWAP2 POP POP SWAP3 SWAP6 SWAP2 SWAP5 POP SWAP3 POP JUMP JUMPDEST PUSH1 0x0 PUSH1 0x20 DUP3 DUP5 SUB SLT ISZERO PUSH2 0x632 JUMPI PUSH2 0x631 PUSH2 0x9C3 JUMP JUMPDEST JUMPDEST PUSH1 0x0 PUSH2 0x640 DUP5 DUP3 DUP6 ADD PUSH2 0x584 JUMP JUMPDEST SWAP2 POP POP SWAP3 SWAP2 POP POP JUMP JUMPDEST PUSH1 0x0 DUP1 PUSH1 0x0 DUP1 PUSH1 0x0 PUSH1 0xA0 DUP7 DUP9 SUB SLT ISZERO PUSH2 0x665 JUMPI PUSH2 0x664 PUSH2 0x9C3 JUMP JUMPDEST JUMPDEST PUSH1 0x0 PUSH2 0x673 DUP9 DUP3 DUP10 ADD PUSH2 0x584 JUMP JUMPDEST SWAP6 POP POP PUSH1 0x20 DUP7 ADD CALLDATALOAD PUSH8 0xFFFFFFFFFFFFFFFF DUP2 GT ISZERO PUSH2 0x694 JUMPI PUSH2 0x693 PUSH2 0x9BE JUMP JUMPDEST JUMPDEST PUSH2 0x6A0 DUP9 DUP3 DUP10 ADD PUSH2 0x556 JUMP JUMPDEST SWAP5 POP POP PUSH1 0x40 PUSH2 0x6B1 DUP9 DUP3 DUP10 ADD PUSH2 0x584 JUMP JUMPDEST SWAP4 POP POP PUSH1 0x60 PUSH2 0x6C2 DUP9 DUP3 DUP10 ADD PUSH2 0x584 JUMP JUMPDEST SWAP3 POP POP PUSH1 0x80 PUSH2 0x6D3 DUP9 DUP3 DUP10 ADD PUSH2 0x584 JUMP JUMPDEST SWAP2 POP POP SWAP3 SWAP6 POP SWAP3 SWAP6 SWAP1 SWAP4 POP JUMP JUMPDEST PUSH1 0x0 PUSH2 0x6EB DUP3 PUSH2 0x7CA JUMP JUMPDEST PUSH2 0x6F5 DUP2 DUP6 PUSH2 0x7D5 JUMP JUMPDEST SWAP4 POP PUSH2 0x705 DUP2 DUP6 PUSH1 0x20 DUP7 ADD PUSH2 0x833 JUMP JUMPDEST PUSH2 0x70E DUP2 PUSH2 0x9C8 JUMP JUMPDEST DUP5 ADD SWAP2 POP POP SWAP3 SWAP2 POP POP JUMP JUMPDEST PUSH2 0x722 DUP2 PUSH2 0x81A JUMP JUMPDEST DUP3 MSTORE POP POP JUMP JUMPDEST PUSH1 0x0 PUSH1 0x80 DUP3 ADD SWAP1 POP DUP2 DUP2 SUB PUSH1 0x0 DUP4 ADD MSTORE PUSH2 0x742 DUP2 DUP8 PUSH2 0x6E0 JUMP JUMPDEST SWAP1 POP PUSH2 0x751 PUSH1 0x20 DUP4 ADD DUP7 PUSH2 0x719 JUMP JUMPDEST PUSH2 0x75E PUSH1 0x40 DUP4 ADD DUP6 PUSH2 0x719 JUMP JUMPDEST PUSH2 0x76B PUSH1 0x60 DUP4 ADD DUP5 PUSH2 0x719 JUMP JUMPDEST SWAP6 SWAP5 POP POP POP POP POP JUMP JUMPDEST PUSH1 0x0 PUSH2 0x77E PUSH2 0x78F JUMP JUMPDEST SWAP1 POP PUSH2 0x78A DUP3 DUP3 PUSH2 0x898 JUMP JUMPDEST SWAP2 SWAP1 POP JUMP JUMPDEST PUSH1 0x0 PUSH1 0x40 MLOAD SWAP1 POP SWAP1 JUMP JUMPDEST PUSH1 0x0 PUSH8 0xFFFFFFFFFFFFFFFF DUP3 GT ISZERO PUSH2 0x7B4 JUMPI PUSH2 0x7B3 PUSH2 0x985 JUMP JUMPDEST JUMPDEST PUSH2 0x7BD DUP3 PUSH2 0x9C8 JUMP JUMPDEST SWAP1 POP PUSH1 0x20 DUP2 ADD SWAP1 POP SWAP2 SWAP1 POP JUMP JUMPDEST PUSH1 0x0 DUP2 MLOAD SWAP1 POP SWAP2 SWAP1 POP JUMP JUMPDEST PUSH1 0x0 DUP3 DUP3 MSTORE PUSH1 0x20 DUP3 ADD SWAP1 POP SWAP3 SWAP2 POP POP JUMP JUMPDEST PUSH1 0x0 PUSH2 0x7F1 DUP3 PUSH2 0x81A JUMP JUMPDEST SWAP2 POP PUSH2 0x7FC DUP4 PUSH2 0x81A JUMP JUMPDEST SWAP3 POP DUP3 DUP3 LT ISZERO PUSH2 0x80F JUMPI PUSH2 0x80E PUSH2 0x8C9 JUMP JUMPDEST JUMPDEST DUP3 DUP3 SUB SWAP1 POP SWAP3 SWAP2 POP POP JUMP JUMPDEST PUSH1 0x0 DUP2 SWAP1 POP SWAP2 SWAP1 POP JUMP JUMPDEST DUP3 DUP2 DUP4 CALLDATACOPY PUSH1 0x0 DUP4 DUP4 ADD MSTORE POP POP POP JUMP JUMPDEST PUSH1 0x0 JUMPDEST DUP4 DUP2 LT ISZERO PUSH2 0x851 JUMPI DUP1 DUP3 ADD MLOAD DUP2 DUP5 ADD MSTORE PUSH1 0x20 DUP2 ADD SWAP1 POP PUSH2 0x836 JUMP JUMPDEST DUP4 DUP2 GT ISZERO PUSH2 0x860 JUMPI PUSH1 0x0 DUP5 DUP5 ADD MSTORE JUMPDEST POP POP POP POP JUMP JUMPDEST PUSH1 0x0 PUSH1 0x2 DUP3 DIV SWAP1 POP PUSH1 0x1 DUP3 AND DUP1 PUSH2 0x87E JUMPI PUSH1 0x7F DUP3 AND SWAP2 POP JUMPDEST PUSH1 0x20 DUP3 LT DUP2 EQ ISZERO PUSH2 0x892 JUMPI PUSH2 0x891 PUSH2 0x8F8 JUMP JUMPDEST JUMPDEST POP SWAP2 SWAP1 POP JUMP JUMPDEST PUSH2 0x8A1 DUP3 PUSH2 0x9C8 JUMP JUMPDEST DUP2 ADD DUP2 DUP2 LT PUSH8 0xFFFFFFFFFFFFFFFF DUP3 GT OR ISZERO PUSH2 0x8C0 JUMPI PUSH2 0x8BF PUSH2 0x985 JUMP JUMPDEST JUMPDEST DUP1 PUSH1 0x40 MSTORE POP POP POP JUMP JUMPDEST PUSH32 0x4E487B7100000000000000000000000000000000000000000000000000000000 PUSH1 0x0 MSTORE PUSH1 0x11 PUSH1 0x4 MSTORE PUSH1 0x24 PUSH1 0x0 REVERT JUMPDEST PUSH32 0x4E487B7100000000000000000000000000000000000000000000000000000000 PUSH1 0x0 MSTORE PUSH1 0x22 PUSH1 0x4 MSTORE PUSH1 0x24 PUSH1 0x0 REVERT JUMPDEST PUSH32 0x4E487B7100000000000000000000000000000000000000000000000000000000 PUSH1 0x0 MSTORE PUSH1 0x31 PUSH1 0x4 MSTORE PUSH1 0x24 PUSH1 0x0 REVERT JUMPDEST PUSH32 0x4E487B7100000000000000000000000000000000000000000000000000000000 PUSH1 0x0 MSTORE PUSH1 0x32 PUSH1 0x4 MSTORE PUSH1 0x24 PUSH1 0x0 REVERT JUMPDEST PUSH32 0x4E487B7100000000000000000000000000000000000000000000000000000000 PUSH1 0x0 MSTORE PUSH1 0x41 PUSH1 0x4 MSTORE PUSH1 0x24 PUSH1 0x0 REVERT JUMPDEST PUSH1 0x0 DUP1 REVERT JUMPDEST PUSH1 0x0 DUP1 REVERT JUMPDEST PUSH1 0x0 DUP1 REVERT JUMPDEST PUSH1 0x0 DUP1 REVERT JUMPDEST PUSH1 0x0 PUSH1 0x1F NOT PUSH1 0x1F DUP4 ADD AND SWAP1 POP SWAP2 SWAP1 POP JUMP JUMPDEST PUSH2 0x9E2 DUP2 PUSH2 0x81A JUMP JUMPDEST DUP2 EQ PUSH2 0x9ED JUMPI PUSH1 0x0 DUP1 REVERT JUMPDEST POP JUMP INVALID LOG2 PUSH5 0x6970667358 0x22 SLT KECCAK256 PUSH4 0x2C8F4CE9 0xB7 0xAE 0xEB 0xC3 0xBB DUP6 0x22 SWAP15 0xE6 CHAINID CODESIZE 0xD 0xFB BASEFEE 0xD6 0xDB 0x2A CALLDATASIZE 0xAD PUSH12 0xB83294CECDDA9364736F6C63 NUMBER STOP ADDMOD SMOD STOP CALLER "
				},
				"gasEstimates": {
					"creation": {
						"codeDepositCost": "519600",
						"executionCost": "556",
						"totalCost": "520156"
					},
					"external": {
						"addtolist(string,uint256,uint256,uint256)": "infinite",
						"edittodo(uint256,string,uint256,uint256,uint256)": "infinite",
						"fromtodo(uint256)": "infinite",
						"getfromlist(uint256)": "infinite"
					}
				},
				"methodIdentifiers": {
					"addtolist(string,uint256,uint256,uint256)": "e1b7edff",
					"edittodo(uint256,string,uint256,uint256,uint256)": "7dee7666",
					"fromtodo(uint256)": "6de9715c",
					"getfromlist(uint256)": "7aadbdd3"
				}
			},
			"storageLayout": {
				"storage": [
					{
						"astId": 14,
						"contract": "Todo.sol:TodoList",
						"label": "todoarr",
						"offset": 0,
						"slot": "0",
						"type": "t_array(t_struct(Todo)10_storage)dyn_storage"
					}
				],
				"types": {
					"t_array(t_struct(Todo)10_storage)dyn_storage": {
						"base": "t_struct(Todo)10_storage",
						"encoding": "dynamic_array",
						"label": "struct TodoList.Todo[]",
						"numberOfBytes": "32"
					},
					"t_string_storage": {
						"encoding": "bytes",
						"label": "string",
						"numberOfBytes": "32"
					},
					"t_struct(Todo)10_storage": {
						"encoding": "inplace",
						"label": "struct TodoList.Todo",
						"members": [
							{
								"astId": 3,
								"contract": "Todo.sol:TodoList",
								"label": "action",
								"offset": 0,
								"slot": "0",
								"type": "t_string_storage"
							},
							{
								"astId": 5,
								"contract": "Todo.sol:TodoList",
								"label": "day",
								"offset": 0,
								"slot": "1",
								"type": "t_uint256"
							},
							{
								"astId": 7,
								"contract": "Todo.sol:TodoList",
								"label": "month",
								"offset": 0,
								"slot": "2",
								"type": "t_uint256"
							},
							{
								"astId": 9,
								"contract": "Todo.sol:TodoList",
								"label": "year",
								"offset": 0,
								"slot": "3",
								"type": "t_uint256"
							}
						],
						"numberOfBytes": "128"
					},
					"t_uint256": {
						"encoding": "inplace",
						"label": "uint256",
						"numberOfBytes": "32"
					}
				}
			},
			"userdoc": {
				"kind": "user",
				"methods": {},
				"version": 1
			}
		}
	}
}