{
	"Todo.sol": {
		"TodoList": {
			"abi": [
				{
					"inputs": [
						{
							"internalType": "string",
							"name": "_action",
							"type": "string"
						},
						{
							"internalType": "uint256",
							"name": "_day",
							"type": "uint256"
						},
						{
							"internalType": "uint256",
							"name": "_month",
							"type": "uint256"
						},
						{
							"internalType": "uint256",
							"name": "_year",
							"type": "uint256"
						}
					],
					"name": "addtolist",
					"outputs": [],
					"stateMutability": "nonpayable",
					"type": "function"
				},
				{
					"inputs": [
						{
							"internalType": "uint256",
							"name": "index",
							"type": "uint256"
						},
						{
							"internalType": "uint256",
							"name": "_day",
							"type": "uint256"
						}
					],
					"name": "editDay",
					"outputs": [],
					"stateMutability": "nonpayable",
					"type": "function"
				},
				{
					"inputs": [
						{
							"internalType": "uint256",
							"name": "index",
							"type": "uint256"
						},
						{
							"internalType": "uint256",
							"name": "_month",
							"type": "uint256"
						},
						{
							"internalType": "uint256",
							"name": "_year",
							"type": "uint256"
						}
					],
					"name": "editMonth",
					"outputs": [],
					"stateMutability": "nonpayable",
					"type": "function"
				},
				{
					"inputs": [
						{
							"internalType": "uint256",
							"name": "index",
							"type": "uint256"
						},
						{
							"internalType": "uint256",
							"name": "_year",
							"type": "uint256"
						}
					],
					"name": "editYear",
					"outputs": [],
					"stateMutability": "nonpayable",
					"type": "function"
				},
				{
					"inputs": [
						{
							"internalType": "uint256",
							"name": "index",
							"type": "uint256"
						},
						{
							"internalType": "string",
							"name": "_action",
							"type": "string"
						}
					],
					"name": "editaction",
					"outputs": [],
					"stateMutability": "nonpayable",
					"type": "function"
				},
				{
					"inputs": [
						{
							"internalType": "uint256",
							"name": "_index",
							"type": "uint256"
						}
					],
					"name": "getfromlist",
					"outputs": [
						{
							"internalType": "string",
							"name": "",
							"type": "string"
						},
						{
							"internalType": "uint256",
							"name": "",
							"type": "uint256"
						},
						{
							"internalType": "uint256",
							"name": "",
							"type": "uint256"
						},
						{
							"internalType": "uint256",
							"name": "",
							"type": "uint256"
						}
					],
					"stateMutability": "view",
					"type": "function"
				},
				{
					"inputs": [
						{
							"internalType": "uint256",
							"name": "index",
							"type": "uint256"
						}
					],
					"name": "remfromtodo",
					"outputs": [],
					"stateMutability": "nonpayable",
					"type": "function"
				}
			],
			"devdoc": {
				"kind": "dev",
				"methods": {},
				"version": 1
			},
			"evm": {
				"assembly": "    /* \"Todo.sol\":56:1189  contract TodoList{\r... */\n  mstore(0x40, 0x80)\n  callvalue\n  dup1\n  iszero\n  tag_1\n  jumpi\n  0x00\n  dup1\n  revert\ntag_1:\n  pop\n  dataSize(sub_0)\n  dup1\n  dataOffset(sub_0)\n  0x00\n  codecopy\n  0x00\n  return\nstop\n\nsub_0: assembly {\n        /* \"Todo.sol\":56:1189  contract TodoList{\r... */\n      mstore(0x40, 0x80)\n      callvalue\n      dup1\n      iszero\n      tag_1\n      jumpi\n      0x00\n      dup1\n      revert\n    tag_1:\n      pop\n      jumpi(tag_2, lt(calldatasize, 0x04))\n      shr(0xe0, calldataload(0x00))\n      dup1\n      0x82659eec\n      gt\n      tag_10\n      jumpi\n      dup1\n      0x82659eec\n      eq\n      tag_6\n      jumpi\n      dup1\n      0x9351b078\n      eq\n      tag_7\n      jumpi\n      dup1\n      0x973e2bbc\n      eq\n      tag_8\n      jumpi\n      dup1\n      0xe1b7edff\n      eq\n      tag_9\n      jumpi\n      jump(tag_2)\n    tag_10:\n      dup1\n      0x12cbb972\n      eq\n      tag_3\n      jumpi\n      dup1\n      0x2dc6a8d7\n      eq\n      tag_4\n      jumpi\n      dup1\n      0x7aadbdd3\n      eq\n      tag_5\n      jumpi\n    tag_2:\n      0x00\n      dup1\n      revert\n        /* \"Todo.sol\":700:826  function editaction(uint index,string memory _action) external{\r... */\n    tag_3:\n      tag_11\n      0x04\n      dup1\n      calldatasize\n      sub\n      dup2\n      add\n      swap1\n      tag_12\n      swap2\n      swap1\n      tag_13\n      jump\t// in\n    tag_12:\n      tag_14\n      jump\t// in\n    tag_11:\n      stop\n        /* \"Todo.sol\":828:938  function editDay(uint index,uint _day) external{\r... */\n    tag_4:\n      tag_15\n      0x04\n      dup1\n      calldatasize\n      sub\n      dup2\n      add\n      swap1\n      tag_16\n      swap2\n      swap1\n      tag_17\n      jump\t// in\n    tag_16:\n      tag_18\n      jump\t// in\n    tag_15:\n      stop\n        /* \"Todo.sol\":408:586  function getfromlist(uint _index) public view returns(string memory,uint,uint,uint){\r... */\n    tag_5:\n      tag_19\n      0x04\n      dup1\n      calldatasize\n      sub\n      dup2\n      add\n      swap1\n      tag_20\n      swap2\n      swap1\n      tag_21\n      jump\t// in\n    tag_20:\n      tag_22\n      jump\t// in\n    tag_19:\n      mload(0x40)\n      tag_23\n      swap5\n      swap4\n      swap3\n      swap2\n      swap1\n      tag_24\n      jump\t// in\n    tag_23:\n      mload(0x40)\n      dup1\n      swap2\n      sub\n      swap1\n      return\n        /* \"Todo.sol\":940:1069  function editMonth(uint index,uint _month,uint _year) external{\r... */\n    tag_6:\n      tag_25\n      0x04\n      dup1\n      calldatasize\n      sub\n      dup2\n      add\n      swap1\n      tag_26\n      swap2\n      swap1\n      tag_27\n      jump\t// in\n    tag_26:\n      tag_28\n      jump\t// in\n    tag_25:\n      stop\n        /* \"Todo.sol\":590:698  function remfromtodo(uint index) external {\r... */\n    tag_7:\n      tag_29\n      0x04\n      dup1\n      calldatasize\n      sub\n      dup2\n      add\n      swap1\n      tag_30\n      swap2\n      swap1\n      tag_21\n      jump\t// in\n    tag_30:\n      tag_31\n      jump\t// in\n    tag_29:\n      stop\n        /* \"Todo.sol\":1071:1182  function editYear(uint index,uint _year) external{\r... */\n    tag_8:\n      tag_32\n      0x04\n      dup1\n      calldatasize\n      sub\n      dup2\n      add\n      swap1\n      tag_33\n      swap2\n      swap1\n      tag_17\n      jump\t// in\n    tag_33:\n      tag_34\n      jump\t// in\n    tag_32:\n      stop\n        /* \"Todo.sol\":215:406  function addtolist(string memory _action,uint _day,uint _month,uint _year) external {\r... */\n    tag_9:\n      tag_35\n      0x04\n      dup1\n      calldatasize\n      sub\n      dup2\n      add\n      swap1\n      tag_36\n      swap2\n      swap1\n      tag_37\n      jump\t// in\n    tag_36:\n      tag_38\n      jump\t// in\n    tag_35:\n      stop\n        /* \"Todo.sol\":700:826  function editaction(uint index,string memory _action) external{\r... */\n    tag_14:\n        /* \"Todo.sol\":765:783  Todo storage todos */\n      0x00\n        /* \"Todo.sol\":785:792  todoarr */\n      dup1\n        /* \"Todo.sol\":793:798  index */\n      dup4\n        /* \"Todo.sol\":785:799  todoarr[index] */\n      dup2\n      sload\n      dup2\n      lt\n      tag_40\n      jumpi\n      tag_41\n      tag_42\n      jump\t// in\n    tag_41:\n    tag_40:\n      swap1\n      0x00\n      mstore\n      keccak256(0x00, 0x20)\n      swap1\n      0x04\n      mul\n      add\n        /* \"Todo.sol\":765:799  Todo storage todos= todoarr[index] */\n      swap1\n      pop\n        /* \"Todo.sol\":817:824  _action */\n      dup2\n        /* \"Todo.sol\":802:807  todos */\n      dup2\n        /* \"Todo.sol\":802:814  todos.action */\n      0x00\n      add\n        /* \"Todo.sol\":802:824  todos.action = _action */\n      swap1\n      dup1\n      mload\n      swap1\n      0x20\n      add\n      swap1\n      tag_44\n      swap3\n      swap2\n      swap1\n      tag_45\n      jump\t// in\n    tag_44:\n      pop\n        /* \"Todo.sol\":762:826  {\r... */\n      pop\n        /* \"Todo.sol\":700:826  function editaction(uint index,string memory _action) external{\r... */\n      pop\n      pop\n      jump\t// out\n        /* \"Todo.sol\":828:938  function editDay(uint index,uint _day) external{\r... */\n    tag_18:\n        /* \"Todo.sol\":878:896  Todo storage todos */\n      0x00\n        /* \"Todo.sol\":899:906  todoarr */\n      dup1\n        /* \"Todo.sol\":907:912  index */\n      dup4\n        /* \"Todo.sol\":899:913  todoarr[index] */\n      dup2\n      sload\n      dup2\n      lt\n      tag_47\n      jumpi\n      tag_48\n      tag_42\n      jump\t// in\n    tag_48:\n    tag_47:\n      swap1\n      0x00\n      mstore\n      keccak256(0x00, 0x20)\n      swap1\n      0x04\n      mul\n      add\n        /* \"Todo.sol\":878:913  Todo storage todos = todoarr[index] */\n      swap1\n      pop\n        /* \"Todo.sol\":928:932  _day */\n      dup2\n        /* \"Todo.sol\":916:921  todos */\n      dup2\n        /* \"Todo.sol\":916:925  todos.day */\n      0x01\n      add\n        /* \"Todo.sol\":916:932  todos.day = _day */\n      dup2\n      swap1\n      sstore\n      pop\n        /* \"Todo.sol\":875:938  {\r... */\n      pop\n        /* \"Todo.sol\":828:938  function editDay(uint index,uint _day) external{\r... */\n      pop\n      pop\n      jump\t// out\n        /* \"Todo.sol\":408:586  function getfromlist(uint _index) public view returns(string memory,uint,uint,uint){\r... */\n    tag_22:\n        /* \"Todo.sol\":462:475  string memory */\n      0x60\n        /* \"Todo.sol\":476:480  uint */\n      0x00\n        /* \"Todo.sol\":481:485  uint */\n      dup1\n        /* \"Todo.sol\":486:490  uint */\n      0x00\n        /* \"Todo.sol\":494:510  Todo memory todo */\n      dup1\n        /* \"Todo.sol\":513:520  todoarr */\n      0x00\n        /* \"Todo.sol\":521:527  _index */\n      dup7\n        /* \"Todo.sol\":513:528  todoarr[_index] */\n      dup2\n      sload\n      dup2\n      lt\n      tag_51\n      jumpi\n      tag_52\n      tag_42\n      jump\t// in\n    tag_52:\n    tag_51:\n      swap1\n      0x00\n      mstore\n      keccak256(0x00, 0x20)\n      swap1\n      0x04\n      mul\n      add\n        /* \"Todo.sol\":494:528  Todo memory todo = todoarr[_index] */\n      mload(0x40)\n      dup1\n      0x80\n      add\n      0x40\n      mstore\n      swap1\n      dup2\n      0x00\n      dup3\n      add\n      dup1\n      sload\n      tag_54\n      swap1\n      tag_55\n      jump\t// in\n    tag_54:\n      dup1\n      0x1f\n      add\n      0x20\n      dup1\n      swap2\n      div\n      mul\n      0x20\n      add\n      mload(0x40)\n      swap1\n      dup2\n      add\n      0x40\n      mstore\n      dup1\n      swap3\n      swap2\n      swap1\n      dup2\n      dup2\n      mstore\n      0x20\n      add\n      dup3\n      dup1\n      sload\n      tag_56\n      swap1\n      tag_55\n      jump\t// in\n    tag_56:\n      dup1\n      iszero\n      tag_57\n      jumpi\n      dup1\n      0x1f\n      lt\n      tag_58\n      jumpi\n      0x0100\n      dup1\n      dup4\n      sload\n      div\n      mul\n      dup4\n      mstore\n      swap2\n      0x20\n      add\n      swap2\n      jump(tag_57)\n    tag_58:\n      dup3\n      add\n      swap2\n      swap1\n      0x00\n      mstore\n      keccak256(0x00, 0x20)\n      swap1\n    tag_59:\n      dup2\n      sload\n      dup2\n      mstore\n      swap1\n      0x01\n      add\n      swap1\n      0x20\n      add\n      dup1\n      dup4\n      gt\n      tag_59\n      jumpi\n      dup3\n      swap1\n      sub\n      0x1f\n      and\n      dup3\n      add\n      swap2\n    tag_57:\n      pop\n      pop\n      pop\n      pop\n      pop\n      dup2\n      mstore\n      0x20\n      add\n      0x01\n      dup3\n      add\n      sload\n      dup2\n      mstore\n      0x20\n      add\n      0x02\n      dup3\n      add\n      sload\n      dup2\n      mstore\n      0x20\n      add\n      0x03\n      dup3\n      add\n      sload\n      dup2\n      mstore\n      pop\n      pop\n      swap1\n      pop\n        /* \"Todo.sol\":540:544  todo */\n      dup1\n        /* \"Todo.sol\":540:551  todo.action */\n      0x00\n      add\n      mload\n        /* \"Todo.sol\":552:556  todo */\n      dup2\n        /* \"Todo.sol\":552:560  todo.day */\n      0x20\n      add\n      mload\n        /* \"Todo.sol\":561:565  todo */\n      dup3\n        /* \"Todo.sol\":561:571  todo.month */\n      0x40\n      add\n      mload\n        /* \"Todo.sol\":572:576  todo */\n      dup4\n        /* \"Todo.sol\":572:581  todo.year */\n      0x60\n      add\n      mload\n        /* \"Todo.sol\":532:582  return (todo.action,todo.day,todo.month,todo.year) */\n      swap5\n      pop\n      swap5\n      pop\n      swap5\n      pop\n      swap5\n      pop\n      pop\n        /* \"Todo.sol\":408:586  function getfromlist(uint _index) public view returns(string memory,uint,uint,uint){\r... */\n      swap2\n      swap4\n      pop\n      swap2\n      swap4\n      jump\t// out\n        /* \"Todo.sol\":940:1069  function editMonth(uint index,uint _month,uint _year) external{\r... */\n    tag_28:\n        /* \"Todo.sol\":1005:1023  Todo storage todos */\n      0x00\n        /* \"Todo.sol\":1026:1033  todoarr */\n      dup1\n        /* \"Todo.sol\":1034:1039  index */\n      dup5\n        /* \"Todo.sol\":1026:1040  todoarr[index] */\n      dup2\n      sload\n      dup2\n      lt\n      tag_61\n      jumpi\n      tag_62\n      tag_42\n      jump\t// in\n    tag_62:\n    tag_61:\n      swap1\n      0x00\n      mstore\n      keccak256(0x00, 0x20)\n      swap1\n      0x04\n      mul\n      add\n        /* \"Todo.sol\":1005:1040  Todo storage todos = todoarr[index] */\n      swap1\n      pop\n        /* \"Todo.sol\":1057:1063  _month */\n      dup3\n        /* \"Todo.sol\":1043:1048  todos */\n      dup2\n        /* \"Todo.sol\":1043:1054  todos.month */\n      0x02\n      add\n        /* \"Todo.sol\":1043:1063  todos.month = _month */\n      dup2\n      swap1\n      sstore\n      pop\n        /* \"Todo.sol\":1002:1069  {\r... */\n      pop\n        /* \"Todo.sol\":940:1069  function editMonth(uint index,uint _month,uint _year) external{\r... */\n      pop\n      pop\n      pop\n      jump\t// out\n        /* \"Todo.sol\":590:698  function remfromtodo(uint index) external {\r... */\n    tag_31:\n        /* \"Todo.sol\":652:659  todoarr */\n      0x00\n        /* \"Todo.sol\":676:677  1 */\n      0x01\n        /* \"Todo.sol\":660:667  todoarr */\n      0x00\n        /* \"Todo.sol\":660:674  todoarr.length */\n      dup1\n      sload\n      swap1\n      pop\n        /* \"Todo.sol\":660:677  todoarr.length -1 */\n      tag_65\n      swap2\n      swap1\n      tag_66\n      jump\t// in\n    tag_65:\n        /* \"Todo.sol\":652:678  todoarr[todoarr.length -1] */\n      dup2\n      sload\n      dup2\n      lt\n      tag_67\n      jumpi\n      tag_68\n      tag_42\n      jump\t// in\n    tag_68:\n    tag_67:\n      swap1\n      0x00\n      mstore\n      keccak256(0x00, 0x20)\n      swap1\n      0x04\n      mul\n      add\n        /* \"Todo.sol\":635:642  todoarr */\n      0x00\n        /* \"Todo.sol\":643:648  index */\n      dup3\n        /* \"Todo.sol\":635:649  todoarr[index] */\n      dup2\n      sload\n      dup2\n      lt\n      tag_70\n      jumpi\n      tag_71\n      tag_42\n      jump\t// in\n    tag_71:\n    tag_70:\n      swap1\n      0x00\n      mstore\n      keccak256(0x00, 0x20)\n      swap1\n      0x04\n      mul\n      add\n        /* \"Todo.sol\":635:678  todoarr[index] = todoarr[todoarr.length -1] */\n      0x00\n      dup3\n      add\n      dup2\n      0x00\n      add\n      swap1\n      dup1\n      sload\n      tag_73\n      swap1\n      tag_55\n      jump\t// in\n    tag_73:\n      tag_74\n      swap3\n      swap2\n      swap1\n      tag_75\n      jump\t// in\n    tag_74:\n      pop\n      0x01\n      dup3\n      add\n      sload\n      dup2\n      0x01\n      add\n      sstore\n      0x02\n      dup3\n      add\n      sload\n      dup2\n      0x02\n      add\n      sstore\n      0x03\n      dup3\n      add\n      sload\n      dup2\n      0x03\n      add\n      sstore\n      swap1\n      pop\n      pop\n        /* \"Todo.sol\":681:688  todoarr */\n      0x00\n        /* \"Todo.sol\":681:694  todoarr.pop() */\n      dup1\n      sload\n      dup1\n      tag_76\n      jumpi\n      tag_77\n      tag_78\n      jump\t// in\n    tag_77:\n    tag_76:\n      0x01\n      swap1\n      sub\n      dup2\n      dup2\n      swap1\n      0x00\n      mstore\n      keccak256(0x00, 0x20)\n      swap1\n      0x04\n      mul\n      add\n      0x00\n      dup1\n      dup3\n      add\n      0x00\n      tag_80\n      swap2\n      swap1\n      tag_81\n      jump\t// in\n    tag_80:\n      0x01\n      dup3\n      add\n      0x00\n      swap1\n      sstore\n      0x02\n      dup3\n      add\n      0x00\n      swap1\n      sstore\n      0x03\n      dup3\n      add\n      0x00\n      swap1\n      sstore\n      pop\n      pop\n      swap1\n      sstore\n        /* \"Todo.sol\":590:698  function remfromtodo(uint index) external {\r... */\n      pop\n      jump\t// out\n        /* \"Todo.sol\":1071:1182  function editYear(uint index,uint _year) external{\r... */\n    tag_34:\n        /* \"Todo.sol\":1123:1141  Todo storage todos */\n      0x00\n        /* \"Todo.sol\":1144:1151  todoarr */\n      dup1\n        /* \"Todo.sol\":1152:1157  index */\n      dup4\n        /* \"Todo.sol\":1144:1158  todoarr[index] */\n      dup2\n      sload\n      dup2\n      lt\n      tag_83\n      jumpi\n      tag_84\n      tag_42\n      jump\t// in\n    tag_84:\n    tag_83:\n      swap1\n      0x00\n      mstore\n      keccak256(0x00, 0x20)\n      swap1\n      0x04\n      mul\n      add\n        /* \"Todo.sol\":1123:1158  Todo storage todos = todoarr[index] */\n      swap1\n      pop\n        /* \"Todo.sol\":1175:1180  _year */\n      dup2\n        /* \"Todo.sol\":1162:1167  todos */\n      dup2\n        /* \"Todo.sol\":1162:1172  todos.year */\n      0x03\n      add\n        /* \"Todo.sol\":1162:1180  todos.year = _year */\n      dup2\n      swap1\n      sstore\n      pop\n        /* \"Todo.sol\":1120:1182  {\r... */\n      pop\n        /* \"Todo.sol\":1071:1182  function editYear(uint index,uint _year) external{\r... */\n      pop\n      pop\n      jump\t// out\n        /* \"Todo.sol\":215:406  function addtolist(string memory _action,uint _day,uint _month,uint _year) external {\r... */\n    tag_38:\n        /* \"Todo.sol\":302:309  todoarr */\n      0x00\n        /* \"Todo.sol\":315:401  Todo({\r... */\n      mload(0x40)\n      dup1\n      0x80\n      add\n      0x40\n      mstore\n      dup1\n        /* \"Todo.sol\":335:342  _action */\n      dup7\n        /* \"Todo.sol\":315:401  Todo({\r... */\n      dup2\n      mstore\n      0x20\n      add\n        /* \"Todo.sol\":354:358  _day */\n      dup6\n        /* \"Todo.sol\":315:401  Todo({\r... */\n      dup2\n      mstore\n      0x20\n      add\n        /* \"Todo.sol\":372:378  _month */\n      dup5\n        /* \"Todo.sol\":315:401  Todo({\r... */\n      dup2\n      mstore\n      0x20\n      add\n        /* \"Todo.sol\":392:397  _year */\n      dup4\n        /* \"Todo.sol\":315:401  Todo({\r... */\n      dup2\n      mstore\n      pop\n        /* \"Todo.sol\":302:402  todoarr.push(Todo({\r... */\n      swap1\n      dup1\n      0x01\n      dup2\n      sload\n      add\n      dup1\n      dup3\n      sstore\n      dup1\n      swap2\n      pop\n      pop\n      0x01\n      swap1\n      sub\n      swap1\n      0x00\n      mstore\n      keccak256(0x00, 0x20)\n      swap1\n      0x04\n      mul\n      add\n      0x00\n      swap1\n      swap2\n      swap1\n      swap2\n      swap1\n      swap2\n      pop\n      0x00\n      dup3\n      add\n      mload\n      dup2\n      0x00\n      add\n      swap1\n      dup1\n      mload\n      swap1\n      0x20\n      add\n      swap1\n      tag_88\n      swap3\n      swap2\n      swap1\n      tag_45\n      jump\t// in\n    tag_88:\n      pop\n      0x20\n      dup3\n      add\n      mload\n      dup2\n      0x01\n      add\n      sstore\n      0x40\n      dup3\n      add\n      mload\n      dup2\n      0x02\n      add\n      sstore\n      0x60\n      dup3\n      add\n      mload\n      dup2\n      0x03\n      add\n      sstore\n      pop\n      pop\n        /* \"Todo.sol\":215:406  function addtolist(string memory _action,uint _day,uint _month,uint _year) external {\r... */\n      pop\n      pop\n      pop\n      pop\n      jump\t// out\n    tag_45:\n      dup3\n      dup1\n      sload\n      tag_89\n      swap1\n      tag_55\n      jump\t// in\n    tag_89:\n      swap1\n      0x00\n      mstore\n      keccak256(0x00, 0x20)\n      swap1\n      0x1f\n      add\n      0x20\n      swap1\n      div\n      dup2\n      add\n      swap3\n      dup3\n      tag_91\n      jumpi\n      0x00\n      dup6\n      sstore\n      jump(tag_90)\n    tag_91:\n      dup3\n      0x1f\n      lt\n      tag_92\n      jumpi\n      dup1\n      mload\n      not(0xff)\n      and\n      dup4\n      dup1\n      add\n      or\n      dup6\n      sstore\n      jump(tag_90)\n    tag_92:\n      dup3\n      dup1\n      add\n      0x01\n      add\n      dup6\n      sstore\n      dup3\n      iszero\n      tag_90\n      jumpi\n      swap2\n      dup3\n      add\n    tag_93:\n      dup3\n      dup2\n      gt\n      iszero\n      tag_94\n      jumpi\n      dup3\n      mload\n      dup3\n      sstore\n      swap2\n      0x20\n      add\n      swap2\n      swap1\n      0x01\n      add\n      swap1\n      jump(tag_93)\n    tag_94:\n    tag_90:\n      pop\n      swap1\n      pop\n      tag_95\n      swap2\n      swap1\n      tag_96\n      jump\t// in\n    tag_95:\n      pop\n      swap1\n      jump\t// out\n    tag_75:\n      dup3\n      dup1\n      sload\n      tag_97\n      swap1\n      tag_55\n      jump\t// in\n    tag_97:\n      swap1\n      0x00\n      mstore\n      keccak256(0x00, 0x20)\n      swap1\n      0x1f\n      add\n      0x20\n      swap1\n      div\n      dup2\n      add\n      swap3\n      dup3\n      tag_99\n      jumpi\n      0x00\n      dup6\n      sstore\n      jump(tag_98)\n    tag_99:\n      dup3\n      0x1f\n      lt\n      tag_100\n      jumpi\n      dup1\n      sload\n      dup6\n      sstore\n      jump(tag_98)\n    tag_100:\n      dup3\n      dup1\n      add\n      0x01\n      add\n      dup6\n      sstore\n      dup3\n      iszero\n      tag_98\n      jumpi\n      0x00\n      mstore\n      keccak256(0x00, 0x20)\n      swap2\n      0x1f\n      add\n      0x20\n      swap1\n      div\n      dup3\n      add\n    tag_101:\n      dup3\n      dup2\n      gt\n      iszero\n      tag_102\n      jumpi\n      dup3\n      sload\n      dup3\n      sstore\n      swap2\n      0x01\n      add\n      swap2\n      swap1\n      0x01\n      add\n      swap1\n      jump(tag_101)\n    tag_102:\n    tag_98:\n      pop\n      swap1\n      pop\n      tag_103\n      swap2\n      swap1\n      tag_96\n      jump\t// in\n    tag_103:\n      pop\n      swap1\n      jump\t// out\n    tag_81:\n      pop\n      dup1\n      sload\n      tag_104\n      swap1\n      tag_55\n      jump\t// in\n    tag_104:\n      0x00\n      dup3\n      sstore\n      dup1\n      0x1f\n      lt\n      tag_106\n      jumpi\n      pop\n      jump(tag_105)\n    tag_106:\n      0x1f\n      add\n      0x20\n      swap1\n      div\n      swap1\n      0x00\n      mstore\n      keccak256(0x00, 0x20)\n      swap1\n      dup2\n      add\n      swap1\n      tag_107\n      swap2\n      swap1\n      tag_96\n      jump\t// in\n    tag_107:\n    tag_105:\n      pop\n      jump\t// out\n    tag_96:\n    tag_108:\n      dup1\n      dup3\n      gt\n      iszero\n      tag_109\n      jumpi\n      0x00\n      dup2\n      0x00\n      swap1\n      sstore\n      pop\n      0x01\n      add\n      jump(tag_108)\n    tag_109:\n      pop\n      swap1\n      jump\t// out\n        /* \"#utility.yul\":7:419   */\n    tag_111:\n        /* \"#utility.yul\":85:90   */\n      0x00\n        /* \"#utility.yul\":110:176   */\n      tag_113\n        /* \"#utility.yul\":126:175   */\n      tag_114\n        /* \"#utility.yul\":168:174   */\n      dup5\n        /* \"#utility.yul\":126:175   */\n      tag_115\n      jump\t// in\n    tag_114:\n        /* \"#utility.yul\":110:176   */\n      tag_116\n      jump\t// in\n    tag_113:\n        /* \"#utility.yul\":101:176   */\n      swap1\n      pop\n        /* \"#utility.yul\":199:205   */\n      dup3\n        /* \"#utility.yul\":192:197   */\n      dup2\n        /* \"#utility.yul\":185:206   */\n      mstore\n        /* \"#utility.yul\":237:241   */\n      0x20\n        /* \"#utility.yul\":230:235   */\n      dup2\n        /* \"#utility.yul\":226:242   */\n      add\n        /* \"#utility.yul\":275:278   */\n      dup5\n        /* \"#utility.yul\":266:272   */\n      dup5\n        /* \"#utility.yul\":261:264   */\n      dup5\n        /* \"#utility.yul\":257:273   */\n      add\n        /* \"#utility.yul\":254:279   */\n      gt\n        /* \"#utility.yul\":251:363   */\n      iszero\n      tag_117\n      jumpi\n        /* \"#utility.yul\":282:361   */\n      tag_118\n      tag_119\n      jump\t// in\n    tag_118:\n        /* \"#utility.yul\":251:363   */\n    tag_117:\n        /* \"#utility.yul\":372:413   */\n      tag_120\n        /* \"#utility.yul\":406:412   */\n      dup5\n        /* \"#utility.yul\":401:404   */\n      dup3\n        /* \"#utility.yul\":396:399   */\n      dup6\n        /* \"#utility.yul\":372:413   */\n      tag_121\n      jump\t// in\n    tag_120:\n        /* \"#utility.yul\":91:419   */\n      pop\n        /* \"#utility.yul\":7:419   */\n      swap4\n      swap3\n      pop\n      pop\n      pop\n      jump\t// out\n        /* \"#utility.yul\":439:779   */\n    tag_122:\n        /* \"#utility.yul\":495:500   */\n      0x00\n        /* \"#utility.yul\":544:547   */\n      dup3\n        /* \"#utility.yul\":537:541   */\n      0x1f\n        /* \"#utility.yul\":529:535   */\n      dup4\n        /* \"#utility.yul\":525:542   */\n      add\n        /* \"#utility.yul\":521:548   */\n      slt\n        /* \"#utility.yul\":511:633   */\n      tag_124\n      jumpi\n        /* \"#utility.yul\":552:631   */\n      tag_125\n      tag_126\n      jump\t// in\n    tag_125:\n        /* \"#utility.yul\":511:633   */\n    tag_124:\n        /* \"#utility.yul\":669:675   */\n      dup2\n        /* \"#utility.yul\":656:676   */\n      calldataload\n        /* \"#utility.yul\":694:773   */\n      tag_127\n        /* \"#utility.yul\":769:772   */\n      dup5\n        /* \"#utility.yul\":761:767   */\n      dup3\n        /* \"#utility.yul\":754:758   */\n      0x20\n        /* \"#utility.yul\":746:752   */\n      dup7\n        /* \"#utility.yul\":742:759   */\n      add\n        /* \"#utility.yul\":694:773   */\n      tag_111\n      jump\t// in\n    tag_127:\n        /* \"#utility.yul\":685:773   */\n      swap2\n      pop\n        /* \"#utility.yul\":501:779   */\n      pop\n        /* \"#utility.yul\":439:779   */\n      swap3\n      swap2\n      pop\n      pop\n      jump\t// out\n        /* \"#utility.yul\":785:924   */\n    tag_128:\n        /* \"#utility.yul\":831:836   */\n      0x00\n        /* \"#utility.yul\":869:875   */\n      dup2\n        /* \"#utility.yul\":856:876   */\n      calldataload\n        /* \"#utility.yul\":847:876   */\n      swap1\n      pop\n        /* \"#utility.yul\":885:918   */\n      tag_130\n        /* \"#utility.yul\":912:917   */\n      dup2\n        /* \"#utility.yul\":885:918   */\n      tag_131\n      jump\t// in\n    tag_130:\n        /* \"#utility.yul\":785:924   */\n      swap3\n      swap2\n      pop\n      pop\n      jump\t// out\n        /* \"#utility.yul\":930:1875   */\n    tag_37:\n        /* \"#utility.yul\":1026:1032   */\n      0x00\n        /* \"#utility.yul\":1034:1040   */\n      dup1\n        /* \"#utility.yul\":1042:1048   */\n      0x00\n        /* \"#utility.yul\":1050:1056   */\n      dup1\n        /* \"#utility.yul\":1099:1102   */\n      0x80\n        /* \"#utility.yul\":1087:1096   */\n      dup6\n        /* \"#utility.yul\":1078:1085   */\n      dup8\n        /* \"#utility.yul\":1074:1097   */\n      sub\n        /* \"#utility.yul\":1070:1103   */\n      slt\n        /* \"#utility.yul\":1067:1187   */\n      iszero\n      tag_133\n      jumpi\n        /* \"#utility.yul\":1106:1185   */\n      tag_134\n      tag_135\n      jump\t// in\n    tag_134:\n        /* \"#utility.yul\":1067:1187   */\n    tag_133:\n        /* \"#utility.yul\":1254:1255   */\n      0x00\n        /* \"#utility.yul\":1243:1252   */\n      dup6\n        /* \"#utility.yul\":1239:1256   */\n      add\n        /* \"#utility.yul\":1226:1257   */\n      calldataload\n        /* \"#utility.yul\":1284:1302   */\n      0xffffffffffffffff\n        /* \"#utility.yul\":1276:1282   */\n      dup2\n        /* \"#utility.yul\":1273:1303   */\n      gt\n        /* \"#utility.yul\":1270:1387   */\n      iszero\n      tag_136\n      jumpi\n        /* \"#utility.yul\":1306:1385   */\n      tag_137\n      tag_138\n      jump\t// in\n    tag_137:\n        /* \"#utility.yul\":1270:1387   */\n    tag_136:\n        /* \"#utility.yul\":1411:1474   */\n      tag_139\n        /* \"#utility.yul\":1466:1473   */\n      dup8\n        /* \"#utility.yul\":1457:1463   */\n      dup3\n        /* \"#utility.yul\":1446:1455   */\n      dup9\n        /* \"#utility.yul\":1442:1464   */\n      add\n        /* \"#utility.yul\":1411:1474   */\n      tag_122\n      jump\t// in\n    tag_139:\n        /* \"#utility.yul\":1401:1474   */\n      swap5\n      pop\n        /* \"#utility.yul\":1197:1484   */\n      pop\n        /* \"#utility.yul\":1523:1525   */\n      0x20\n        /* \"#utility.yul\":1549:1602   */\n      tag_140\n        /* \"#utility.yul\":1594:1601   */\n      dup8\n        /* \"#utility.yul\":1585:1591   */\n      dup3\n        /* \"#utility.yul\":1574:1583   */\n      dup9\n        /* \"#utility.yul\":1570:1592   */\n      add\n        /* \"#utility.yul\":1549:1602   */\n      tag_128\n      jump\t// in\n    tag_140:\n        /* \"#utility.yul\":1539:1602   */\n      swap4\n      pop\n        /* \"#utility.yul\":1494:1612   */\n      pop\n        /* \"#utility.yul\":1651:1653   */\n      0x40\n        /* \"#utility.yul\":1677:1730   */\n      tag_141\n        /* \"#utility.yul\":1722:1729   */\n      dup8\n        /* \"#utility.yul\":1713:1719   */\n      dup3\n        /* \"#utility.yul\":1702:1711   */\n      dup9\n        /* \"#utility.yul\":1698:1720   */\n      add\n        /* \"#utility.yul\":1677:1730   */\n      tag_128\n      jump\t// in\n    tag_141:\n        /* \"#utility.yul\":1667:1730   */\n      swap3\n      pop\n        /* \"#utility.yul\":1622:1740   */\n      pop\n        /* \"#utility.yul\":1779:1781   */\n      0x60\n        /* \"#utility.yul\":1805:1858   */\n      tag_142\n        /* \"#utility.yul\":1850:1857   */\n      dup8\n        /* \"#utility.yul\":1841:1847   */\n      dup3\n        /* \"#utility.yul\":1830:1839   */\n      dup9\n        /* \"#utility.yul\":1826:1848   */\n      add\n        /* \"#utility.yul\":1805:1858   */\n      tag_128\n      jump\t// in\n    tag_142:\n        /* \"#utility.yul\":1795:1858   */\n      swap2\n      pop\n        /* \"#utility.yul\":1750:1868   */\n      pop\n        /* \"#utility.yul\":930:1875   */\n      swap3\n      swap6\n      swap2\n      swap5\n      pop\n      swap3\n      pop\n      jump\t// out\n        /* \"#utility.yul\":1881:2210   */\n    tag_21:\n        /* \"#utility.yul\":1940:1946   */\n      0x00\n        /* \"#utility.yul\":1989:1991   */\n      0x20\n        /* \"#utility.yul\":1977:1986   */\n      dup3\n        /* \"#utility.yul\":1968:1975   */\n      dup5\n        /* \"#utility.yul\":1964:1987   */\n      sub\n        /* \"#utility.yul\":1960:1992   */\n      slt\n        /* \"#utility.yul\":1957:2076   */\n      iszero\n      tag_144\n      jumpi\n        /* \"#utility.yul\":1995:2074   */\n      tag_145\n      tag_135\n      jump\t// in\n    tag_145:\n        /* \"#utility.yul\":1957:2076   */\n    tag_144:\n        /* \"#utility.yul\":2115:2116   */\n      0x00\n        /* \"#utility.yul\":2140:2193   */\n      tag_146\n        /* \"#utility.yul\":2185:2192   */\n      dup5\n        /* \"#utility.yul\":2176:2182   */\n      dup3\n        /* \"#utility.yul\":2165:2174   */\n      dup6\n        /* \"#utility.yul\":2161:2183   */\n      add\n        /* \"#utility.yul\":2140:2193   */\n      tag_128\n      jump\t// in\n    tag_146:\n        /* \"#utility.yul\":2130:2193   */\n      swap2\n      pop\n        /* \"#utility.yul\":2086:2203   */\n      pop\n        /* \"#utility.yul\":1881:2210   */\n      swap3\n      swap2\n      pop\n      pop\n      jump\t// out\n        /* \"#utility.yul\":2216:2870   */\n    tag_13:\n        /* \"#utility.yul\":2294:2300   */\n      0x00\n        /* \"#utility.yul\":2302:2308   */\n      dup1\n        /* \"#utility.yul\":2351:2353   */\n      0x40\n        /* \"#utility.yul\":2339:2348   */\n      dup4\n        /* \"#utility.yul\":2330:2337   */\n      dup6\n        /* \"#utility.yul\":2326:2349   */\n      sub\n        /* \"#utility.yul\":2322:2354   */\n      slt\n        /* \"#utility.yul\":2319:2438   */\n      iszero\n      tag_148\n      jumpi\n        /* \"#utility.yul\":2357:2436   */\n      tag_149\n      tag_135\n      jump\t// in\n    tag_149:\n        /* \"#utility.yul\":2319:2438   */\n    tag_148:\n        /* \"#utility.yul\":2477:2478   */\n      0x00\n        /* \"#utility.yul\":2502:2555   */\n      tag_150\n        /* \"#utility.yul\":2547:2554   */\n      dup6\n        /* \"#utility.yul\":2538:2544   */\n      dup3\n        /* \"#utility.yul\":2527:2536   */\n      dup7\n        /* \"#utility.yul\":2523:2545   */\n      add\n        /* \"#utility.yul\":2502:2555   */\n      tag_128\n      jump\t// in\n    tag_150:\n        /* \"#utility.yul\":2492:2555   */\n      swap3\n      pop\n        /* \"#utility.yul\":2448:2565   */\n      pop\n        /* \"#utility.yul\":2632:2634   */\n      0x20\n        /* \"#utility.yul\":2621:2630   */\n      dup4\n        /* \"#utility.yul\":2617:2635   */\n      add\n        /* \"#utility.yul\":2604:2636   */\n      calldataload\n        /* \"#utility.yul\":2663:2681   */\n      0xffffffffffffffff\n        /* \"#utility.yul\":2655:2661   */\n      dup2\n        /* \"#utility.yul\":2652:2682   */\n      gt\n        /* \"#utility.yul\":2649:2766   */\n      iszero\n      tag_151\n      jumpi\n        /* \"#utility.yul\":2685:2764   */\n      tag_152\n      tag_138\n      jump\t// in\n    tag_152:\n        /* \"#utility.yul\":2649:2766   */\n    tag_151:\n        /* \"#utility.yul\":2790:2853   */\n      tag_153\n        /* \"#utility.yul\":2845:2852   */\n      dup6\n        /* \"#utility.yul\":2836:2842   */\n      dup3\n        /* \"#utility.yul\":2825:2834   */\n      dup7\n        /* \"#utility.yul\":2821:2843   */\n      add\n        /* \"#utility.yul\":2790:2853   */\n      tag_122\n      jump\t// in\n    tag_153:\n        /* \"#utility.yul\":2780:2853   */\n      swap2\n      pop\n        /* \"#utility.yul\":2575:2863   */\n      pop\n        /* \"#utility.yul\":2216:2870   */\n      swap3\n      pop\n      swap3\n      swap1\n      pop\n      jump\t// out\n        /* \"#utility.yul\":2876:3350   */\n    tag_17:\n        /* \"#utility.yul\":2944:2950   */\n      0x00\n        /* \"#utility.yul\":2952:2958   */\n      dup1\n        /* \"#utility.yul\":3001:3003   */\n      0x40\n        /* \"#utility.yul\":2989:2998   */\n      dup4\n        /* \"#utility.yul\":2980:2987   */\n      dup6\n        /* \"#utility.yul\":2976:2999   */\n      sub\n        /* \"#utility.yul\":2972:3004   */\n      slt\n        /* \"#utility.yul\":2969:3088   */\n      iszero\n      tag_155\n      jumpi\n        /* \"#utility.yul\":3007:3086   */\n      tag_156\n      tag_135\n      jump\t// in\n    tag_156:\n        /* \"#utility.yul\":2969:3088   */\n    tag_155:\n        /* \"#utility.yul\":3127:3128   */\n      0x00\n        /* \"#utility.yul\":3152:3205   */\n      tag_157\n        /* \"#utility.yul\":3197:3204   */\n      dup6\n        /* \"#utility.yul\":3188:3194   */\n      dup3\n        /* \"#utility.yul\":3177:3186   */\n      dup7\n        /* \"#utility.yul\":3173:3195   */\n      add\n        /* \"#utility.yul\":3152:3205   */\n      tag_128\n      jump\t// in\n    tag_157:\n        /* \"#utility.yul\":3142:3205   */\n      swap3\n      pop\n        /* \"#utility.yul\":3098:3215   */\n      pop\n        /* \"#utility.yul\":3254:3256   */\n      0x20\n        /* \"#utility.yul\":3280:3333   */\n      tag_158\n        /* \"#utility.yul\":3325:3332   */\n      dup6\n        /* \"#utility.yul\":3316:3322   */\n      dup3\n        /* \"#utility.yul\":3305:3314   */\n      dup7\n        /* \"#utility.yul\":3301:3323   */\n      add\n        /* \"#utility.yul\":3280:3333   */\n      tag_128\n      jump\t// in\n    tag_158:\n        /* \"#utility.yul\":3270:3333   */\n      swap2\n      pop\n        /* \"#utility.yul\":3225:3343   */\n      pop\n        /* \"#utility.yul\":2876:3350   */\n      swap3\n      pop\n      swap3\n      swap1\n      pop\n      jump\t// out\n        /* \"#utility.yul\":3356:3975   */\n    tag_27:\n        /* \"#utility.yul\":3433:3439   */\n      0x00\n        /* \"#utility.yul\":3441:3447   */\n      dup1\n        /* \"#utility.yul\":3449:3455   */\n      0x00\n        /* \"#utility.yul\":3498:3500   */\n      0x60\n        /* \"#utility.yul\":3486:3495   */\n      dup5\n        /* \"#utility.yul\":3477:3484   */\n      dup7\n        /* \"#utility.yul\":3473:3496   */\n      sub\n        /* \"#utility.yul\":3469:3501   */\n      slt\n        /* \"#utility.yul\":3466:3585   */\n      iszero\n      tag_160\n      jumpi\n        /* \"#utility.yul\":3504:3583   */\n      tag_161\n      tag_135\n      jump\t// in\n    tag_161:\n        /* \"#utility.yul\":3466:3585   */\n    tag_160:\n        /* \"#utility.yul\":3624:3625   */\n      0x00\n        /* \"#utility.yul\":3649:3702   */\n      tag_162\n        /* \"#utility.yul\":3694:3701   */\n      dup7\n        /* \"#utility.yul\":3685:3691   */\n      dup3\n        /* \"#utility.yul\":3674:3683   */\n      dup8\n        /* \"#utility.yul\":3670:3692   */\n      add\n        /* \"#utility.yul\":3649:3702   */\n      tag_128\n      jump\t// in\n    tag_162:\n        /* \"#utility.yul\":3639:3702   */\n      swap4\n      pop\n        /* \"#utility.yul\":3595:3712   */\n      pop\n        /* \"#utility.yul\":3751:3753   */\n      0x20\n        /* \"#utility.yul\":3777:3830   */\n      tag_163\n        /* \"#utility.yul\":3822:3829   */\n      dup7\n        /* \"#utility.yul\":3813:3819   */\n      dup3\n        /* \"#utility.yul\":3802:3811   */\n      dup8\n        /* \"#utility.yul\":3798:3820   */\n      add\n        /* \"#utility.yul\":3777:3830   */\n      tag_128\n      jump\t// in\n    tag_163:\n        /* \"#utility.yul\":3767:3830   */\n      swap3\n      pop\n        /* \"#utility.yul\":3722:3840   */\n      pop\n        /* \"#utility.yul\":3879:3881   */\n      0x40\n        /* \"#utility.yul\":3905:3958   */\n      tag_164\n        /* \"#utility.yul\":3950:3957   */\n      dup7\n        /* \"#utility.yul\":3941:3947   */\n      dup3\n        /* \"#utility.yul\":3930:3939   */\n      dup8\n        /* \"#utility.yul\":3926:3948   */\n      add\n        /* \"#utility.yul\":3905:3958   */\n      tag_128\n      jump\t// in\n    tag_164:\n        /* \"#utility.yul\":3895:3958   */\n      swap2\n      pop\n        /* \"#utility.yul\":3850:3968   */\n      pop\n        /* \"#utility.yul\":3356:3975   */\n      swap3\n      pop\n      swap3\n      pop\n      swap3\n      jump\t// out\n        /* \"#utility.yul\":3981:4345   */\n    tag_165:\n        /* \"#utility.yul\":4069:4072   */\n      0x00\n        /* \"#utility.yul\":4097:4136   */\n      tag_167\n        /* \"#utility.yul\":4130:4135   */\n      dup3\n        /* \"#utility.yul\":4097:4136   */\n      tag_168\n      jump\t// in\n    tag_167:\n        /* \"#utility.yul\":4152:4223   */\n      tag_169\n        /* \"#utility.yul\":4216:4222   */\n      dup2\n        /* \"#utility.yul\":4211:4214   */\n      dup6\n        /* \"#utility.yul\":4152:4223   */\n      tag_170\n      jump\t// in\n    tag_169:\n        /* \"#utility.yul\":4145:4223   */\n      swap4\n      pop\n        /* \"#utility.yul\":4232:4284   */\n      tag_171\n        /* \"#utility.yul\":4277:4283   */\n      dup2\n        /* \"#utility.yul\":4272:4275   */\n      dup6\n        /* \"#utility.yul\":4265:4269   */\n      0x20\n        /* \"#utility.yul\":4258:4263   */\n      dup7\n        /* \"#utility.yul\":4254:4270   */\n      add\n        /* \"#utility.yul\":4232:4284   */\n      tag_172\n      jump\t// in\n    tag_171:\n        /* \"#utility.yul\":4309:4338   */\n      tag_173\n        /* \"#utility.yul\":4331:4337   */\n      dup2\n        /* \"#utility.yul\":4309:4338   */\n      tag_174\n      jump\t// in\n    tag_173:\n        /* \"#utility.yul\":4304:4307   */\n      dup5\n        /* \"#utility.yul\":4300:4339   */\n      add\n        /* \"#utility.yul\":4293:4339   */\n      swap2\n      pop\n        /* \"#utility.yul\":4073:4345   */\n      pop\n        /* \"#utility.yul\":3981:4345   */\n      swap3\n      swap2\n      pop\n      pop\n      jump\t// out\n        /* \"#utility.yul\":4351:4469   */\n    tag_175:\n        /* \"#utility.yul\":4438:4462   */\n      tag_177\n        /* \"#utility.yul\":4456:4461   */\n      dup2\n        /* \"#utility.yul\":4438:4462   */\n      tag_178\n      jump\t// in\n    tag_177:\n        /* \"#utility.yul\":4433:4436   */\n      dup3\n        /* \"#utility.yul\":4426:4463   */\n      mstore\n        /* \"#utility.yul\":4351:4469   */\n      pop\n      pop\n      jump\t// out\n        /* \"#utility.yul\":4475:5119   */\n    tag_24:\n        /* \"#utility.yul\":4672:4676   */\n      0x00\n        /* \"#utility.yul\":4710:4713   */\n      0x80\n        /* \"#utility.yul\":4699:4708   */\n      dup3\n        /* \"#utility.yul\":4695:4714   */\n      add\n        /* \"#utility.yul\":4687:4714   */\n      swap1\n      pop\n        /* \"#utility.yul\":4760:4769   */\n      dup2\n        /* \"#utility.yul\":4754:4758   */\n      dup2\n        /* \"#utility.yul\":4750:4770   */\n      sub\n        /* \"#utility.yul\":4746:4747   */\n      0x00\n        /* \"#utility.yul\":4735:4744   */\n      dup4\n        /* \"#utility.yul\":4731:4748   */\n      add\n        /* \"#utility.yul\":4724:4771   */\n      mstore\n        /* \"#utility.yul\":4788:4866   */\n      tag_180\n        /* \"#utility.yul\":4861:4865   */\n      dup2\n        /* \"#utility.yul\":4852:4858   */\n      dup8\n        /* \"#utility.yul\":4788:4866   */\n      tag_165\n      jump\t// in\n    tag_180:\n        /* \"#utility.yul\":4780:4866   */\n      swap1\n      pop\n        /* \"#utility.yul\":4876:4948   */\n      tag_181\n        /* \"#utility.yul\":4944:4946   */\n      0x20\n        /* \"#utility.yul\":4933:4942   */\n      dup4\n        /* \"#utility.yul\":4929:4947   */\n      add\n        /* \"#utility.yul\":4920:4926   */\n      dup7\n        /* \"#utility.yul\":4876:4948   */\n      tag_175\n      jump\t// in\n    tag_181:\n        /* \"#utility.yul\":4958:5030   */\n      tag_182\n        /* \"#utility.yul\":5026:5028   */\n      0x40\n        /* \"#utility.yul\":5015:5024   */\n      dup4\n        /* \"#utility.yul\":5011:5029   */\n      add\n        /* \"#utility.yul\":5002:5008   */\n      dup6\n        /* \"#utility.yul\":4958:5030   */\n      tag_175\n      jump\t// in\n    tag_182:\n        /* \"#utility.yul\":5040:5112   */\n      tag_183\n        /* \"#utility.yul\":5108:5110   */\n      0x60\n        /* \"#utility.yul\":5097:5106   */\n      dup4\n        /* \"#utility.yul\":5093:5111   */\n      add\n        /* \"#utility.yul\":5084:5090   */\n      dup5\n        /* \"#utility.yul\":5040:5112   */\n      tag_175\n      jump\t// in\n    tag_183:\n        /* \"#utility.yul\":4475:5119   */\n      swap6\n      swap5\n      pop\n      pop\n      pop\n      pop\n      pop\n      jump\t// out\n        /* \"#utility.yul\":5125:5254   */\n    tag_116:\n        /* \"#utility.yul\":5159:5165   */\n      0x00\n        /* \"#utility.yul\":5186:5206   */\n      tag_185\n      tag_186\n      jump\t// in\n    tag_185:\n        /* \"#utility.yul\":5176:5206   */\n      swap1\n      pop\n        /* \"#utility.yul\":5215:5248   */\n      tag_187\n        /* \"#utility.yul\":5243:5247   */\n      dup3\n        /* \"#utility.yul\":5235:5241   */\n      dup3\n        /* \"#utility.yul\":5215:5248   */\n      tag_188\n      jump\t// in\n    tag_187:\n        /* \"#utility.yul\":5125:5254   */\n      swap2\n      swap1\n      pop\n      jump\t// out\n        /* \"#utility.yul\":5260:5335   */\n    tag_186:\n        /* \"#utility.yul\":5293:5299   */\n      0x00\n        /* \"#utility.yul\":5326:5328   */\n      0x40\n        /* \"#utility.yul\":5320:5329   */\n      mload\n        /* \"#utility.yul\":5310:5329   */\n      swap1\n      pop\n        /* \"#utility.yul\":5260:5335   */\n      swap1\n      jump\t// out\n        /* \"#utility.yul\":5341:5649   */\n    tag_115:\n        /* \"#utility.yul\":5403:5407   */\n      0x00\n        /* \"#utility.yul\":5493:5511   */\n      0xffffffffffffffff\n        /* \"#utility.yul\":5485:5491   */\n      dup3\n        /* \"#utility.yul\":5482:5512   */\n      gt\n        /* \"#utility.yul\":5479:5535   */\n      iszero\n      tag_191\n      jumpi\n        /* \"#utility.yul\":5515:5533   */\n      tag_192\n      tag_193\n      jump\t// in\n    tag_192:\n        /* \"#utility.yul\":5479:5535   */\n    tag_191:\n        /* \"#utility.yul\":5553:5582   */\n      tag_194\n        /* \"#utility.yul\":5575:5581   */\n      dup3\n        /* \"#utility.yul\":5553:5582   */\n      tag_174\n      jump\t// in\n    tag_194:\n        /* \"#utility.yul\":5545:5582   */\n      swap1\n      pop\n        /* \"#utility.yul\":5637:5641   */\n      0x20\n        /* \"#utility.yul\":5631:5635   */\n      dup2\n        /* \"#utility.yul\":5627:5642   */\n      add\n        /* \"#utility.yul\":5619:5642   */\n      swap1\n      pop\n        /* \"#utility.yul\":5341:5649   */\n      swap2\n      swap1\n      pop\n      jump\t// out\n        /* \"#utility.yul\":5655:5754   */\n    tag_168:\n        /* \"#utility.yul\":5707:5713   */\n      0x00\n        /* \"#utility.yul\":5741:5746   */\n      dup2\n        /* \"#utility.yul\":5735:5747   */\n      mload\n        /* \"#utility.yul\":5725:5747   */\n      swap1\n      pop\n        /* \"#utility.yul\":5655:5754   */\n      swap2\n      swap1\n      pop\n      jump\t// out\n        /* \"#utility.yul\":5760:5929   */\n    tag_170:\n        /* \"#utility.yul\":5844:5855   */\n      0x00\n        /* \"#utility.yul\":5878:5884   */\n      dup3\n        /* \"#utility.yul\":5873:5876   */\n      dup3\n        /* \"#utility.yul\":5866:5885   */\n      mstore\n        /* \"#utility.yul\":5918:5922   */\n      0x20\n        /* \"#utility.yul\":5913:5916   */\n      dup3\n        /* \"#utility.yul\":5909:5923   */\n      add\n        /* \"#utility.yul\":5894:5923   */\n      swap1\n      pop\n        /* \"#utility.yul\":5760:5929   */\n      swap3\n      swap2\n      pop\n      pop\n      jump\t// out\n        /* \"#utility.yul\":5935:6126   */\n    tag_66:\n        /* \"#utility.yul\":5975:5979   */\n      0x00\n        /* \"#utility.yul\":5995:6015   */\n      tag_198\n        /* \"#utility.yul\":6013:6014   */\n      dup3\n        /* \"#utility.yul\":5995:6015   */\n      tag_178\n      jump\t// in\n    tag_198:\n        /* \"#utility.yul\":5990:6015   */\n      swap2\n      pop\n        /* \"#utility.yul\":6029:6049   */\n      tag_199\n        /* \"#utility.yul\":6047:6048   */\n      dup4\n        /* \"#utility.yul\":6029:6049   */\n      tag_178\n      jump\t// in\n    tag_199:\n        /* \"#utility.yul\":6024:6049   */\n      swap3\n      pop\n        /* \"#utility.yul\":6068:6069   */\n      dup3\n        /* \"#utility.yul\":6065:6066   */\n      dup3\n        /* \"#utility.yul\":6062:6070   */\n      lt\n        /* \"#utility.yul\":6059:6093   */\n      iszero\n      tag_200\n      jumpi\n        /* \"#utility.yul\":6073:6091   */\n      tag_201\n      tag_202\n      jump\t// in\n    tag_201:\n        /* \"#utility.yul\":6059:6093   */\n    tag_200:\n        /* \"#utility.yul\":6118:6119   */\n      dup3\n        /* \"#utility.yul\":6115:6116   */\n      dup3\n        /* \"#utility.yul\":6111:6120   */\n      sub\n        /* \"#utility.yul\":6103:6120   */\n      swap1\n      pop\n        /* \"#utility.yul\":5935:6126   */\n      swap3\n      swap2\n      pop\n      pop\n      jump\t// out\n        /* \"#utility.yul\":6132:6209   */\n    tag_178:\n        /* \"#utility.yul\":6169:6176   */\n      0x00\n        /* \"#utility.yul\":6198:6203   */\n      dup2\n        /* \"#utility.yul\":6187:6203   */\n      swap1\n      pop\n        /* \"#utility.yul\":6132:6209   */\n      swap2\n      swap1\n      pop\n      jump\t// out\n        /* \"#utility.yul\":6215:6369   */\n    tag_121:\n        /* \"#utility.yul\":6299:6305   */\n      dup3\n        /* \"#utility.yul\":6294:6297   */\n      dup2\n        /* \"#utility.yul\":6289:6292   */\n      dup4\n        /* \"#utility.yul\":6276:6306   */\n      calldatacopy\n        /* \"#utility.yul\":6361:6362   */\n      0x00\n        /* \"#utility.yul\":6352:6358   */\n      dup4\n        /* \"#utility.yul\":6347:6350   */\n      dup4\n        /* \"#utility.yul\":6343:6359   */\n      add\n        /* \"#utility.yul\":6336:6363   */\n      mstore\n        /* \"#utility.yul\":6215:6369   */\n      pop\n      pop\n      pop\n      jump\t// out\n        /* \"#utility.yul\":6375:6682   */\n    tag_172:\n        /* \"#utility.yul\":6443:6444   */\n      0x00\n        /* \"#utility.yul\":6453:6566   */\n    tag_206:\n        /* \"#utility.yul\":6467:6473   */\n      dup4\n        /* \"#utility.yul\":6464:6465   */\n      dup2\n        /* \"#utility.yul\":6461:6474   */\n      lt\n        /* \"#utility.yul\":6453:6566   */\n      iszero\n      tag_208\n      jumpi\n        /* \"#utility.yul\":6552:6553   */\n      dup1\n        /* \"#utility.yul\":6547:6550   */\n      dup3\n        /* \"#utility.yul\":6543:6554   */\n      add\n        /* \"#utility.yul\":6537:6555   */\n      mload\n        /* \"#utility.yul\":6533:6534   */\n      dup2\n        /* \"#utility.yul\":6528:6531   */\n      dup5\n        /* \"#utility.yul\":6524:6535   */\n      add\n        /* \"#utility.yul\":6517:6556   */\n      mstore\n        /* \"#utility.yul\":6489:6491   */\n      0x20\n        /* \"#utility.yul\":6486:6487   */\n      dup2\n        /* \"#utility.yul\":6482:6492   */\n      add\n        /* \"#utility.yul\":6477:6492   */\n      swap1\n      pop\n        /* \"#utility.yul\":6453:6566   */\n      jump(tag_206)\n    tag_208:\n        /* \"#utility.yul\":6584:6590   */\n      dup4\n        /* \"#utility.yul\":6581:6582   */\n      dup2\n        /* \"#utility.yul\":6578:6591   */\n      gt\n        /* \"#utility.yul\":6575:6676   */\n      iszero\n      tag_209\n      jumpi\n        /* \"#utility.yul\":6664:6665   */\n      0x00\n        /* \"#utility.yul\":6655:6661   */\n      dup5\n        /* \"#utility.yul\":6650:6653   */\n      dup5\n        /* \"#utility.yul\":6646:6662   */\n      add\n        /* \"#utility.yul\":6639:6666   */\n      mstore\n        /* \"#utility.yul\":6575:6676   */\n    tag_209:\n        /* \"#utility.yul\":6424:6682   */\n      pop\n        /* \"#utility.yul\":6375:6682   */\n      pop\n      pop\n      pop\n      jump\t// out\n        /* \"#utility.yul\":6688:7008   */\n    tag_55:\n        /* \"#utility.yul\":6732:6738   */\n      0x00\n        /* \"#utility.yul\":6769:6770   */\n      0x02\n        /* \"#utility.yul\":6763:6767   */\n      dup3\n        /* \"#utility.yul\":6759:6771   */\n      div\n        /* \"#utility.yul\":6749:6771   */\n      swap1\n      pop\n        /* \"#utility.yul\":6816:6817   */\n      0x01\n        /* \"#utility.yul\":6810:6814   */\n      dup3\n        /* \"#utility.yul\":6806:6818   */\n      and\n        /* \"#utility.yul\":6837:6855   */\n      dup1\n        /* \"#utility.yul\":6827:6908   */\n      tag_211\n      jumpi\n        /* \"#utility.yul\":6893:6897   */\n      0x7f\n        /* \"#utility.yul\":6885:6891   */\n      dup3\n        /* \"#utility.yul\":6881:6898   */\n      and\n        /* \"#utility.yul\":6871:6898   */\n      swap2\n      pop\n        /* \"#utility.yul\":6827:6908   */\n    tag_211:\n        /* \"#utility.yul\":6955:6957   */\n      0x20\n        /* \"#utility.yul\":6947:6953   */\n      dup3\n        /* \"#utility.yul\":6944:6958   */\n      lt\n        /* \"#utility.yul\":6924:6942   */\n      dup2\n        /* \"#utility.yul\":6921:6959   */\n      eq\n        /* \"#utility.yul\":6918:7002   */\n      iszero\n      tag_212\n      jumpi\n        /* \"#utility.yul\":6974:6992   */\n      tag_213\n      tag_214\n      jump\t// in\n    tag_213:\n        /* \"#utility.yul\":6918:7002   */\n    tag_212:\n        /* \"#utility.yul\":6739:7008   */\n      pop\n        /* \"#utility.yul\":6688:7008   */\n      swap2\n      swap1\n      pop\n      jump\t// out\n        /* \"#utility.yul\":7014:7295   */\n    tag_188:\n        /* \"#utility.yul\":7097:7124   */\n      tag_216\n        /* \"#utility.yul\":7119:7123   */\n      dup3\n        /* \"#utility.yul\":7097:7124   */\n      tag_174\n      jump\t// in\n    tag_216:\n        /* \"#utility.yul\":7089:7095   */\n      dup2\n        /* \"#utility.yul\":7085:7125   */\n      add\n        /* \"#utility.yul\":7227:7233   */\n      dup2\n        /* \"#utility.yul\":7215:7225   */\n      dup2\n        /* \"#utility.yul\":7212:7234   */\n      lt\n        /* \"#utility.yul\":7191:7209   */\n      0xffffffffffffffff\n        /* \"#utility.yul\":7179:7189   */\n      dup3\n        /* \"#utility.yul\":7176:7210   */\n      gt\n        /* \"#utility.yul\":7173:7235   */\n      or\n        /* \"#utility.yul\":7170:7258   */\n      iszero\n      tag_217\n      jumpi\n        /* \"#utility.yul\":7238:7256   */\n      tag_218\n      tag_193\n      jump\t// in\n    tag_218:\n        /* \"#utility.yul\":7170:7258   */\n    tag_217:\n        /* \"#utility.yul\":7278:7288   */\n      dup1\n        /* \"#utility.yul\":7274:7276   */\n      0x40\n        /* \"#utility.yul\":7267:7289   */\n      mstore\n        /* \"#utility.yul\":7057:7295   */\n      pop\n        /* \"#utility.yul\":7014:7295   */\n      pop\n      pop\n      jump\t// out\n        /* \"#utility.yul\":7301:7481   */\n    tag_202:\n        /* \"#utility.yul\":7349:7426   */\n      0x4e487b7100000000000000000000000000000000000000000000000000000000\n        /* \"#utility.yul\":7346:7347   */\n      0x00\n        /* \"#utility.yul\":7339:7427   */\n      mstore\n        /* \"#utility.yul\":7446:7450   */\n      0x11\n        /* \"#utility.yul\":7443:7444   */\n      0x04\n        /* \"#utility.yul\":7436:7451   */\n      mstore\n        /* \"#utility.yul\":7470:7474   */\n      0x24\n        /* \"#utility.yul\":7467:7468   */\n      0x00\n        /* \"#utility.yul\":7460:7475   */\n      revert\n        /* \"#utility.yul\":7487:7667   */\n    tag_214:\n        /* \"#utility.yul\":7535:7612   */\n      0x4e487b7100000000000000000000000000000000000000000000000000000000\n        /* \"#utility.yul\":7532:7533   */\n      0x00\n        /* \"#utility.yul\":7525:7613   */\n      mstore\n        /* \"#utility.yul\":7632:7636   */\n      0x22\n        /* \"#utility.yul\":7629:7630   */\n      0x04\n        /* \"#utility.yul\":7622:7637   */\n      mstore\n        /* \"#utility.yul\":7656:7660   */\n      0x24\n        /* \"#utility.yul\":7653:7654   */\n      0x00\n        /* \"#utility.yul\":7646:7661   */\n      revert\n        /* \"#utility.yul\":7673:7853   */\n    tag_78:\n        /* \"#utility.yul\":7721:7798   */\n      0x4e487b7100000000000000000000000000000000000000000000000000000000\n        /* \"#utility.yul\":7718:7719   */\n      0x00\n        /* \"#utility.yul\":7711:7799   */\n      mstore\n        /* \"#utility.yul\":7818:7822   */\n      0x31\n        /* \"#utility.yul\":7815:7816   */\n      0x04\n        /* \"#utility.yul\":7808:7823   */\n      mstore\n        /* \"#utility.yul\":7842:7846   */\n      0x24\n        /* \"#utility.yul\":7839:7840   */\n      0x00\n        /* \"#utility.yul\":7832:7847   */\n      revert\n        /* \"#utility.yul\":7859:8039   */\n    tag_42:\n        /* \"#utility.yul\":7907:7984   */\n      0x4e487b7100000000000000000000000000000000000000000000000000000000\n        /* \"#utility.yul\":7904:7905   */\n      0x00\n        /* \"#utility.yul\":7897:7985   */\n      mstore\n        /* \"#utility.yul\":8004:8008   */\n      0x32\n        /* \"#utility.yul\":8001:8002   */\n      0x04\n        /* \"#utility.yul\":7994:8009   */\n      mstore\n        /* \"#utility.yul\":8028:8032   */\n      0x24\n        /* \"#utility.yul\":8025:8026   */\n      0x00\n        /* \"#utility.yul\":8018:8033   */\n      revert\n        /* \"#utility.yul\":8045:8225   */\n    tag_193:\n        /* \"#utility.yul\":8093:8170   */\n      0x4e487b7100000000000000000000000000000000000000000000000000000000\n        /* \"#utility.yul\":8090:8091   */\n      0x00\n        /* \"#utility.yul\":8083:8171   */\n      mstore\n        /* \"#utility.yul\":8190:8194   */\n      0x41\n        /* \"#utility.yul\":8187:8188   */\n      0x04\n        /* \"#utility.yul\":8180:8195   */\n      mstore\n        /* \"#utility.yul\":8214:8218   */\n      0x24\n        /* \"#utility.yul\":8211:8212   */\n      0x00\n        /* \"#utility.yul\":8204:8219   */\n      revert\n        /* \"#utility.yul\":8231:8348   */\n    tag_126:\n        /* \"#utility.yul\":8340:8341   */\n      0x00\n        /* \"#utility.yul\":8337:8338   */\n      dup1\n        /* \"#utility.yul\":8330:8342   */\n      revert\n        /* \"#utility.yul\":8354:8471   */\n    tag_119:\n        /* \"#utility.yul\":8463:8464   */\n      0x00\n        /* \"#utility.yul\":8460:8461   */\n      dup1\n        /* \"#utility.yul\":8453:8465   */\n      revert\n        /* \"#utility.yul\":8477:8594   */\n    tag_138:\n        /* \"#utility.yul\":8586:8587   */\n      0x00\n        /* \"#utility.yul\":8583:8584   */\n      dup1\n        /* \"#utility.yul\":8576:8588   */\n      revert\n        /* \"#utility.yul\":8600:8717   */\n    tag_135:\n        /* \"#utility.yul\":8709:8710   */\n      0x00\n        /* \"#utility.yul\":8706:8707   */\n      dup1\n        /* \"#utility.yul\":8699:8711   */\n      revert\n        /* \"#utility.yul\":8723:8825   */\n    tag_174:\n        /* \"#utility.yul\":8764:8770   */\n      0x00\n        /* \"#utility.yul\":8815:8817   */\n      0x1f\n        /* \"#utility.yul\":8811:8818   */\n      not\n        /* \"#utility.yul\":8806:8808   */\n      0x1f\n        /* \"#utility.yul\":8799:8804   */\n      dup4\n        /* \"#utility.yul\":8795:8809   */\n      add\n        /* \"#utility.yul\":8791:8819   */\n      and\n        /* \"#utility.yul\":8781:8819   */\n      swap1\n      pop\n        /* \"#utility.yul\":8723:8825   */\n      swap2\n      swap1\n      pop\n      jump\t// out\n        /* \"#utility.yul\":8831:8953   */\n    tag_131:\n        /* \"#utility.yul\":8904:8928   */\n      tag_230\n        /* \"#utility.yul\":8922:8927   */\n      dup2\n        /* \"#utility.yul\":8904:8928   */\n      tag_178\n      jump\t// in\n    tag_230:\n        /* \"#utility.yul\":8897:8902   */\n      dup2\n        /* \"#utility.yul\":8894:8929   */\n      eq\n        /* \"#utility.yul\":8884:8947   */\n      tag_231\n      jumpi\n        /* \"#utility.yul\":8943:8944   */\n      0x00\n        /* \"#utility.yul\":8940:8941   */\n      dup1\n        /* \"#utility.yul\":8933:8945   */\n      revert\n        /* \"#utility.yul\":8884:8947   */\n    tag_231:\n        /* \"#utility.yul\":8831:8953   */\n      pop\n      jump\t// out\n\n    auxdata: 0xa26469706673582212208f7e70bea74b8efa23b53b5ab799966f3256b2676a5c0cdabc1c8e157482288564736f6c63430008070033\n}\n",
				"bytecode": {
					"linkReferences": {},
					"object": "608060405234801561001057600080fd5b50610b9a806100206000396000f3fe608060405234801561001057600080fd5b506004361061007d5760003560e01c806382659eec1161005b57806382659eec146100ed5780639351b07814610109578063973e2bbc14610125578063e1b7edff146101415761007d565b806312cbb972146100825780632dc6a8d71461009e5780637aadbdd3146100ba575b600080fd5b61009c60048036038101906100979190610765565b61015d565b005b6100b860048036038101906100b391906107c1565b6101a0565b005b6100d460048036038101906100cf9190610738565b6101d3565b6040516100e4949392919061089c565b60405180910390f35b61010760048036038101906101029190610801565b6102de565b005b610123600480360381019061011e9190610738565b610312565b005b61013f600480360381019061013a91906107c1565b6103fe565b005b61015b600480360381019061015691906106b5565b610431565b005b600080838154811061017257610171610aca565b5b906000526020600020906004020190508181600001908051906020019061019a9291906104c0565b50505050565b60008083815481106101b5576101b4610aca565b5b90600052602060002090600402019050818160010181905550505050565b6060600080600080600086815481106101ef576101ee610aca565b5b9060005260206000209060040201604051806080016040529081600082018054610218906109da565b80601f0160208091040260200160405190810160405280929190818152602001828054610244906109da565b80156102915780601f1061026657610100808354040283529160200191610291565b820191906000526020600020905b81548152906001019060200180831161027457829003601f168201915b505050505081526020016001820154815260200160028201548152602001600382015481525050905080600001518160200151826040015183606001519450945094509450509193509193565b60008084815481106102f3576102f2610aca565b5b9060005260206000209060040201905082816002018190555050505050565b60006001600080549050610326919061095a565b8154811061033757610336610aca565b5b90600052602060002090600402016000828154811061035957610358610aca565b5b9060005260206000209060040201600082018160000190805461037b906109da565b610386929190610546565b5060018201548160010155600282015481600201556003820154816003015590505060008054806103ba576103b9610a9b565b5b6001900381819060005260206000209060040201600080820160006103df91906105d3565b6001820160009055600282016000905560038201600090555050905550565b600080838154811061041357610412610aca565b5b90600052602060002090600402019050818160030181905550505050565b6000604051806080016040528086815260200185815260200184815260200183815250908060018154018082558091505060019003906000526020600020906004020160009091909190915060008201518160000190805190602001906104999291906104c0565b50602082015181600101556040820151816002015560608201518160030155505050505050565b8280546104cc906109da565b90600052602060002090601f0160209004810192826104ee5760008555610535565b82601f1061050757805160ff1916838001178555610535565b82800160010185558215610535579182015b82811115610534578251825591602001919060010190610519565b5b5090506105429190610613565b5090565b828054610552906109da565b90600052602060002090601f01602090048101928261057457600085556105c2565b82601f1061058557805485556105c2565b828001600101855582156105c257600052602060002091601f016020900482015b828111156105c15782548255916001019190600101906105a6565b5b5090506105cf9190610613565b5090565b5080546105df906109da565b6000825580601f106105f15750610610565b601f01602090049060005260206000209081019061060f9190610613565b5b50565b5b8082111561062c576000816000905550600101610614565b5090565b600061064361063e8461090d565b6108e8565b90508281526020810184848401111561065f5761065e610b2d565b5b61066a848285610998565b509392505050565b600082601f83011261068757610686610b28565b5b8135610697848260208601610630565b91505092915050565b6000813590506106af81610b4d565b92915050565b600080600080608085870312156106cf576106ce610b37565b5b600085013567ffffffffffffffff8111156106ed576106ec610b32565b5b6106f987828801610672565b945050602061070a878288016106a0565b935050604061071b878288016106a0565b925050606061072c878288016106a0565b91505092959194509250565b60006020828403121561074e5761074d610b37565b5b600061075c848285016106a0565b91505092915050565b6000806040838503121561077c5761077b610b37565b5b600061078a858286016106a0565b925050602083013567ffffffffffffffff8111156107ab576107aa610b32565b5b6107b785828601610672565b9150509250929050565b600080604083850312156107d8576107d7610b37565b5b60006107e6858286016106a0565b92505060206107f7858286016106a0565b9150509250929050565b60008060006060848603121561081a57610819610b37565b5b6000610828868287016106a0565b9350506020610839868287016106a0565b925050604061084a868287016106a0565b9150509250925092565b600061085f8261093e565b6108698185610949565b93506108798185602086016109a7565b61088281610b3c565b840191505092915050565b6108968161098e565b82525050565b600060808201905081810360008301526108b68187610854565b90506108c5602083018661088d565b6108d2604083018561088d565b6108df606083018461088d565b95945050505050565b60006108f2610903565b90506108fe8282610a0c565b919050565b6000604051905090565b600067ffffffffffffffff82111561092857610927610af9565b5b61093182610b3c565b9050602081019050919050565b600081519050919050565b600082825260208201905092915050565b60006109658261098e565b91506109708361098e565b92508282101561098357610982610a3d565b5b828203905092915050565b6000819050919050565b82818337600083830152505050565b60005b838110156109c55780820151818401526020810190506109aa565b838111156109d4576000848401525b50505050565b600060028204905060018216806109f257607f821691505b60208210811415610a0657610a05610a6c565b5b50919050565b610a1582610b3c565b810181811067ffffffffffffffff82111715610a3457610a33610af9565b5b80604052505050565b7f4e487b7100000000000000000000000000000000000000000000000000000000600052601160045260246000fd5b7f4e487b7100000000000000000000000000000000000000000000000000000000600052602260045260246000fd5b7f4e487b7100000000000000000000000000000000000000000000000000000000600052603160045260246000fd5b7f4e487b7100000000000000000000000000000000000000000000000000000000600052603260045260246000fd5b7f4e487b7100000000000000000000000000000000000000000000000000000000600052604160045260246000fd5b600080fd5b600080fd5b600080fd5b600080fd5b6000601f19601f8301169050919050565b610b568161098e565b8114610b6157600080fd5b5056fea26469706673582212208f7e70bea74b8efa23b53b5ab799966f3256b2676a5c0cdabc1c8e157482288564736f6c63430008070033",
					"opcodes": "PUSH1 0x80 PUSH1 0x40 MSTORE CALLVALUE DUP1 ISZERO PUSH2 0x10 JUMPI PUSH1 0x0 DUP1 REVERT JUMPDEST POP PUSH2 0xB9A DUP1 PUSH2 0x20 PUSH1 0x0 CODECOPY PUSH1 0x0 RETURN INVALID PUSH1 0x80 PUSH1 0x40 MSTORE CALLVALUE DUP1 ISZERO PUSH2 0x10 JUMPI PUSH1 0x0 DUP1 REVERT JUMPDEST POP PUSH1 0x4 CALLDATASIZE LT PUSH2 0x7D JUMPI PUSH1 0x0 CALLDATALOAD PUSH1 0xE0 SHR DUP1 PUSH4 0x82659EEC GT PUSH2 0x5B JUMPI DUP1 PUSH4 0x82659EEC EQ PUSH2 0xED JUMPI DUP1 PUSH4 0x9351B078 EQ PUSH2 0x109 JUMPI DUP1 PUSH4 0x973E2BBC EQ PUSH2 0x125 JUMPI DUP1 PUSH4 0xE1B7EDFF EQ PUSH2 0x141 JUMPI PUSH2 0x7D JUMP JUMPDEST DUP1 PUSH4 0x12CBB972 EQ PUSH2 0x82 JUMPI DUP1 PUSH4 0x2DC6A8D7 EQ PUSH2 0x9E JUMPI DUP1 PUSH4 0x7AADBDD3 EQ PUSH2 0xBA JUMPI JUMPDEST PUSH1 0x0 DUP1 REVERT JUMPDEST PUSH2 0x9C PUSH1 0x4 DUP1 CALLDATASIZE SUB DUP2 ADD SWAP1 PUSH2 0x97 SWAP2 SWAP1 PUSH2 0x765 JUMP JUMPDEST PUSH2 0x15D JUMP JUMPDEST STOP JUMPDEST PUSH2 0xB8 PUSH1 0x4 DUP1 CALLDATASIZE SUB DUP2 ADD SWAP1 PUSH2 0xB3 SWAP2 SWAP1 PUSH2 0x7C1 JUMP JUMPDEST PUSH2 0x1A0 JUMP JUMPDEST STOP JUMPDEST PUSH2 0xD4 PUSH1 0x4 DUP1 CALLDATASIZE SUB DUP2 ADD SWAP1 PUSH2 0xCF SWAP2 SWAP1 PUSH2 0x738 JUMP JUMPDEST PUSH2 0x1D3 JUMP JUMPDEST PUSH1 0x40 MLOAD PUSH2 0xE4 SWAP5 SWAP4 SWAP3 SWAP2 SWAP1 PUSH2 0x89C JUMP JUMPDEST PUSH1 0x40 MLOAD DUP1 SWAP2 SUB SWAP1 RETURN JUMPDEST PUSH2 0x107 PUSH1 0x4 DUP1 CALLDATASIZE SUB DUP2 ADD SWAP1 PUSH2 0x102 SWAP2 SWAP1 PUSH2 0x801 JUMP JUMPDEST PUSH2 0x2DE JUMP JUMPDEST STOP JUMPDEST PUSH2 0x123 PUSH1 0x4 DUP1 CALLDATASIZE SUB DUP2 ADD SWAP1 PUSH2 0x11E SWAP2 SWAP1 PUSH2 0x738 JUMP JUMPDEST PUSH2 0x312 JUMP JUMPDEST STOP JUMPDEST PUSH2 0x13F PUSH1 0x4 DUP1 CALLDATASIZE SUB DUP2 ADD SWAP1 PUSH2 0x13A SWAP2 SWAP1 PUSH2 0x7C1 JUMP JUMPDEST PUSH2 0x3FE JUMP JUMPDEST STOP JUMPDEST PUSH2 0x15B PUSH1 0x4 DUP1 CALLDATASIZE SUB DUP2 ADD SWAP1 PUSH2 0x156 SWAP2 SWAP1 PUSH2 0x6B5 JUMP JUMPDEST PUSH2 0x431 JUMP JUMPDEST STOP JUMPDEST PUSH1 0x0 DUP1 DUP4 DUP2 SLOAD DUP2 LT PUSH2 0x172 JUMPI PUSH2 0x171 PUSH2 0xACA JUMP JUMPDEST JUMPDEST SWAP1 PUSH1 0x0 MSTORE PUSH1 0x20 PUSH1 0x0 KECCAK256 SWAP1 PUSH1 0x4 MUL ADD SWAP1 POP DUP2 DUP2 PUSH1 0x0 ADD SWAP1 DUP1 MLOAD SWAP1 PUSH1 0x20 ADD SWAP1 PUSH2 0x19A SWAP3 SWAP2 SWAP1 PUSH2 0x4C0 JUMP JUMPDEST POP POP POP POP JUMP JUMPDEST PUSH1 0x0 DUP1 DUP4 DUP2 SLOAD DUP2 LT PUSH2 0x1B5 JUMPI PUSH2 0x1B4 PUSH2 0xACA JUMP JUMPDEST JUMPDEST SWAP1 PUSH1 0x0 MSTORE PUSH1 0x20 PUSH1 0x0 KECCAK256 SWAP1 PUSH1 0x4 MUL ADD SWAP1 POP DUP2 DUP2 PUSH1 0x1 ADD DUP2 SWAP1 SSTORE POP POP POP POP JUMP JUMPDEST PUSH1 0x60 PUSH1 0x0 DUP1 PUSH1 0x0 DUP1 PUSH1 0x0 DUP7 DUP2 SLOAD DUP2 LT PUSH2 0x1EF JUMPI PUSH2 0x1EE PUSH2 0xACA JUMP JUMPDEST JUMPDEST SWAP1 PUSH1 0x0 MSTORE PUSH1 0x20 PUSH1 0x0 KECCAK256 SWAP1 PUSH1 0x4 MUL ADD PUSH1 0x40 MLOAD DUP1 PUSH1 0x80 ADD PUSH1 0x40 MSTORE SWAP1 DUP2 PUSH1 0x0 DUP3 ADD DUP1 SLOAD PUSH2 0x218 SWAP1 PUSH2 0x9DA JUMP JUMPDEST DUP1 PUSH1 0x1F ADD PUSH1 0x20 DUP1 SWAP2 DIV MUL PUSH1 0x20 ADD PUSH1 0x40 MLOAD SWAP1 DUP2 ADD PUSH1 0x40 MSTORE DUP1 SWAP3 SWAP2 SWAP1 DUP2 DUP2 MSTORE PUSH1 0x20 ADD DUP3 DUP1 SLOAD PUSH2 0x244 SWAP1 PUSH2 0x9DA JUMP JUMPDEST DUP1 ISZERO PUSH2 0x291 JUMPI DUP1 PUSH1 0x1F LT PUSH2 0x266 JUMPI PUSH2 0x100 DUP1 DUP4 SLOAD DIV MUL DUP4 MSTORE SWAP2 PUSH1 0x20 ADD SWAP2 PUSH2 0x291 JUMP JUMPDEST DUP3 ADD SWAP2 SWAP1 PUSH1 0x0 MSTORE PUSH1 0x20 PUSH1 0x0 KECCAK256 SWAP1 JUMPDEST DUP2 SLOAD DUP2 MSTORE SWAP1 PUSH1 0x1 ADD SWAP1 PUSH1 0x20 ADD DUP1 DUP4 GT PUSH2 0x274 JUMPI DUP3 SWAP1 SUB PUSH1 0x1F AND DUP3 ADD SWAP2 JUMPDEST POP POP POP POP POP DUP2 MSTORE PUSH1 0x20 ADD PUSH1 0x1 DUP3 ADD SLOAD DUP2 MSTORE PUSH1 0x20 ADD PUSH1 0x2 DUP3 ADD SLOAD DUP2 MSTORE PUSH1 0x20 ADD PUSH1 0x3 DUP3 ADD SLOAD DUP2 MSTORE POP POP SWAP1 POP DUP1 PUSH1 0x0 ADD MLOAD DUP2 PUSH1 0x20 ADD MLOAD DUP3 PUSH1 0x40 ADD MLOAD DUP4 PUSH1 0x60 ADD MLOAD SWAP5 POP SWAP5 POP SWAP5 POP SWAP5 POP POP SWAP2 SWAP4 POP SWAP2 SWAP4 JUMP JUMPDEST PUSH1 0x0 DUP1 DUP5 DUP2 SLOAD DUP2 LT PUSH2 0x2F3 JUMPI PUSH2 0x2F2 PUSH2 0xACA JUMP JUMPDEST JUMPDEST SWAP1 PUSH1 0x0 MSTORE PUSH1 0x20 PUSH1 0x0 KECCAK256 SWAP1 PUSH1 0x4 MUL ADD SWAP1 POP DUP3 DUP2 PUSH1 0x2 ADD DUP2 SWAP1 SSTORE POP POP POP POP POP JUMP JUMPDEST PUSH1 0x0 PUSH1 0x1 PUSH1 0x0 DUP1 SLOAD SWAP1 POP PUSH2 0x326 SWAP2 SWAP1 PUSH2 0x95A JUMP JUMPDEST DUP2 SLOAD DUP2 LT PUSH2 0x337 JUMPI PUSH2 0x336 PUSH2 0xACA JUMP JUMPDEST JUMPDEST SWAP1 PUSH1 0x0 MSTORE PUSH1 0x20 PUSH1 0x0 KECCAK256 SWAP1 PUSH1 0x4 MUL ADD PUSH1 0x0 DUP3 DUP2 SLOAD DUP2 LT PUSH2 0x359 JUMPI PUSH2 0x358 PUSH2 0xACA JUMP JUMPDEST JUMPDEST SWAP1 PUSH1 0x0 MSTORE PUSH1 0x20 PUSH1 0x0 KECCAK256 SWAP1 PUSH1 0x4 MUL ADD PUSH1 0x0 DUP3 ADD DUP2 PUSH1 0x0 ADD SWAP1 DUP1 SLOAD PUSH2 0x37B SWAP1 PUSH2 0x9DA JUMP JUMPDEST PUSH2 0x386 SWAP3 SWAP2 SWAP1 PUSH2 0x546 JUMP JUMPDEST POP PUSH1 0x1 DUP3 ADD SLOAD DUP2 PUSH1 0x1 ADD SSTORE PUSH1 0x2 DUP3 ADD SLOAD DUP2 PUSH1 0x2 ADD SSTORE PUSH1 0x3 DUP3 ADD SLOAD DUP2 PUSH1 0x3 ADD SSTORE SWAP1 POP POP PUSH1 0x0 DUP1 SLOAD DUP1 PUSH2 0x3BA JUMPI PUSH2 0x3B9 PUSH2 0xA9B JUMP JUMPDEST JUMPDEST PUSH1 0x1 SWAP1 SUB DUP2 DUP2 SWAP1 PUSH1 0x0 MSTORE PUSH1 0x20 PUSH1 0x0 KECCAK256 SWAP1 PUSH1 0x4 MUL ADD PUSH1 0x0 DUP1 DUP3 ADD PUSH1 0x0 PUSH2 0x3DF SWAP2 SWAP1 PUSH2 0x5D3 JUMP JUMPDEST PUSH1 0x1 DUP3 ADD PUSH1 0x0 SWAP1 SSTORE PUSH1 0x2 DUP3 ADD PUSH1 0x0 SWAP1 SSTORE PUSH1 0x3 DUP3 ADD PUSH1 0x0 SWAP1 SSTORE POP POP SWAP1 SSTORE POP JUMP JUMPDEST PUSH1 0x0 DUP1 DUP4 DUP2 SLOAD DUP2 LT PUSH2 0x413 JUMPI PUSH2 0x412 PUSH2 0xACA JUMP JUMPDEST JUMPDEST SWAP1 PUSH1 0x0 MSTORE PUSH1 0x20 PUSH1 0x0 KECCAK256 SWAP1 PUSH1 0x4 MUL ADD SWAP1 POP DUP2 DUP2 PUSH1 0x3 ADD DUP2 SWAP1 SSTORE POP POP POP POP JUMP JUMPDEST PUSH1 0x0 PUSH1 0x40 MLOAD DUP1 PUSH1 0x80 ADD PUSH1 0x40 MSTORE DUP1 DUP7 DUP2 MSTORE PUSH1 0x20 ADD DUP6 DUP2 MSTORE PUSH1 0x20 ADD DUP5 DUP2 MSTORE PUSH1 0x20 ADD DUP4 DUP2 MSTORE POP SWAP1 DUP1 PUSH1 0x1 DUP2 SLOAD ADD DUP1 DUP3 SSTORE DUP1 SWAP2 POP POP PUSH1 0x1 SWAP1 SUB SWAP1 PUSH1 0x0 MSTORE PUSH1 0x20 PUSH1 0x0 KECCAK256 SWAP1 PUSH1 0x4 MUL ADD PUSH1 0x0 SWAP1 SWAP2 SWAP1 SWAP2 SWAP1 SWAP2 POP PUSH1 0x0 DUP3 ADD MLOAD DUP2 PUSH1 0x0 ADD SWAP1 DUP1 MLOAD SWAP1 PUSH1 0x20 ADD SWAP1 PUSH2 0x499 SWAP3 SWAP2 SWAP1 PUSH2 0x4C0 JUMP JUMPDEST POP PUSH1 0x20 DUP3 ADD MLOAD DUP2 PUSH1 0x1 ADD SSTORE PUSH1 0x40 DUP3 ADD MLOAD DUP2 PUSH1 0x2 ADD SSTORE PUSH1 0x60 DUP3 ADD MLOAD DUP2 PUSH1 0x3 ADD SSTORE POP POP POP POP POP POP JUMP JUMPDEST DUP3 DUP1 SLOAD PUSH2 0x4CC SWAP1 PUSH2 0x9DA JUMP JUMPDEST SWAP1 PUSH1 0x0 MSTORE PUSH1 0x20 PUSH1 0x0 KECCAK256 SWAP1 PUSH1 0x1F ADD PUSH1 0x20 SWAP1 DIV DUP2 ADD SWAP3 DUP3 PUSH2 0x4EE JUMPI PUSH1 0x0 DUP6 SSTORE PUSH2 0x535 JUMP JUMPDEST DUP3 PUSH1 0x1F LT PUSH2 0x507 JUMPI DUP1 MLOAD PUSH1 0xFF NOT AND DUP4 DUP1 ADD OR DUP6 SSTORE PUSH2 0x535 JUMP JUMPDEST DUP3 DUP1 ADD PUSH1 0x1 ADD DUP6 SSTORE DUP3 ISZERO PUSH2 0x535 JUMPI SWAP2 DUP3 ADD JUMPDEST DUP3 DUP2 GT ISZERO PUSH2 0x534 JUMPI DUP3 MLOAD DUP3 SSTORE SWAP2 PUSH1 0x20 ADD SWAP2 SWAP1 PUSH1 0x1 ADD SWAP1 PUSH2 0x519 JUMP JUMPDEST JUMPDEST POP SWAP1 POP PUSH2 0x542 SWAP2 SWAP1 PUSH2 0x613 JUMP JUMPDEST POP SWAP1 JUMP JUMPDEST DUP3 DUP1 SLOAD PUSH2 0x552 SWAP1 PUSH2 0x9DA JUMP JUMPDEST SWAP1 PUSH1 0x0 MSTORE PUSH1 0x20 PUSH1 0x0 KECCAK256 SWAP1 PUSH1 0x1F ADD PUSH1 0x20 SWAP1 DIV DUP2 ADD SWAP3 DUP3 PUSH2 0x574 JUMPI PUSH1 0x0 DUP6 SSTORE PUSH2 0x5C2 JUMP JUMPDEST DUP3 PUSH1 0x1F LT PUSH2 0x585 JUMPI DUP1 SLOAD DUP6 SSTORE PUSH2 0x5C2 JUMP JUMPDEST DUP3 DUP1 ADD PUSH1 0x1 ADD DUP6 SSTORE DUP3 ISZERO PUSH2 0x5C2 JUMPI PUSH1 0x0 MSTORE PUSH1 0x20 PUSH1 0x0 KECCAK256 SWAP2 PUSH1 0x1F ADD PUSH1 0x20 SWAP1 DIV DUP3 ADD JUMPDEST DUP3 DUP2 GT ISZERO PUSH2 0x5C1 JUMPI DUP3 SLOAD DUP3 SSTORE SWAP2 PUSH1 0x1 ADD SWAP2 SWAP1 PUSH1 0x1 ADD SWAP1 PUSH2 0x5A6 JUMP JUMPDEST JUMPDEST POP SWAP1 POP PUSH2 0x5CF SWAP2 SWAP1 PUSH2 0x613 JUMP JUMPDEST POP SWAP1 JUMP JUMPDEST POP DUP1 SLOAD PUSH2 0x5DF SWAP1 PUSH2 0x9DA JUMP JUMPDEST PUSH1 0x0 DUP3 SSTORE DUP1 PUSH1 0x1F LT PUSH2 0x5F1 JUMPI POP PUSH2 0x610 JUMP JUMPDEST PUSH1 0x1F ADD PUSH1 0x20 SWAP1 DIV SWAP1 PUSH1 0x0 MSTORE PUSH1 0x20 PUSH1 0x0 KECCAK256 SWAP1 DUP2 ADD SWAP1 PUSH2 0x60F SWAP2 SWAP1 PUSH2 0x613 JUMP JUMPDEST JUMPDEST POP JUMP JUMPDEST JUMPDEST DUP1 DUP3 GT ISZERO PUSH2 0x62C JUMPI PUSH1 0x0 DUP2 PUSH1 0x0 SWAP1 SSTORE POP PUSH1 0x1 ADD PUSH2 0x614 JUMP JUMPDEST POP SWAP1 JUMP JUMPDEST PUSH1 0x0 PUSH2 0x643 PUSH2 0x63E DUP5 PUSH2 0x90D JUMP JUMPDEST PUSH2 0x8E8 JUMP JUMPDEST SWAP1 POP DUP3 DUP2 MSTORE PUSH1 0x20 DUP2 ADD DUP5 DUP5 DUP5 ADD GT ISZERO PUSH2 0x65F JUMPI PUSH2 0x65E PUSH2 0xB2D JUMP JUMPDEST JUMPDEST PUSH2 0x66A DUP5 DUP3 DUP6 PUSH2 0x998 JUMP JUMPDEST POP SWAP4 SWAP3 POP POP POP JUMP JUMPDEST PUSH1 0x0 DUP3 PUSH1 0x1F DUP4 ADD SLT PUSH2 0x687 JUMPI PUSH2 0x686 PUSH2 0xB28 JUMP JUMPDEST JUMPDEST DUP2 CALLDATALOAD PUSH2 0x697 DUP5 DUP3 PUSH1 0x20 DUP7 ADD PUSH2 0x630 JUMP JUMPDEST SWAP2 POP POP SWAP3 SWAP2 POP POP JUMP JUMPDEST PUSH1 0x0 DUP2 CALLDATALOAD SWAP1 POP PUSH2 0x6AF DUP2 PUSH2 0xB4D JUMP JUMPDEST SWAP3 SWAP2 POP POP JUMP JUMPDEST PUSH1 0x0 DUP1 PUSH1 0x0 DUP1 PUSH1 0x80 DUP6 DUP8 SUB SLT ISZERO PUSH2 0x6CF JUMPI PUSH2 0x6CE PUSH2 0xB37 JUMP JUMPDEST JUMPDEST PUSH1 0x0 DUP6 ADD CALLDATALOAD PUSH8 0xFFFFFFFFFFFFFFFF DUP2 GT ISZERO PUSH2 0x6ED JUMPI PUSH2 0x6EC PUSH2 0xB32 JUMP JUMPDEST JUMPDEST PUSH2 0x6F9 DUP8 DUP3 DUP9 ADD PUSH2 0x672 JUMP JUMPDEST SWAP5 POP POP PUSH1 0x20 PUSH2 0x70A DUP8 DUP3 DUP9 ADD PUSH2 0x6A0 JUMP JUMPDEST SWAP4 POP POP PUSH1 0x40 PUSH2 0x71B DUP8 DUP3 DUP9 ADD PUSH2 0x6A0 JUMP JUMPDEST SWAP3 POP POP PUSH1 0x60 PUSH2 0x72C DUP8 DUP3 DUP9 ADD PUSH2 0x6A0 JUMP JUMPDEST SWAP2 POP POP SWAP3 SWAP6 SWAP2 SWAP5 POP SWAP3 POP JUMP JUMPDEST PUSH1 0x0 PUSH1 0x20 DUP3 DUP5 SUB SLT ISZERO PUSH2 0x74E JUMPI PUSH2 0x74D PUSH2 0xB37 JUMP JUMPDEST JUMPDEST PUSH1 0x0 PUSH2 0x75C DUP5 DUP3 DUP6 ADD PUSH2 0x6A0 JUMP JUMPDEST SWAP2 POP POP SWAP3 SWAP2 POP POP JUMP JUMPDEST PUSH1 0x0 DUP1 PUSH1 0x40 DUP4 DUP6 SUB SLT ISZERO PUSH2 0x77C JUMPI PUSH2 0x77B PUSH2 0xB37 JUMP JUMPDEST JUMPDEST PUSH1 0x0 PUSH2 0x78A DUP6 DUP3 DUP7 ADD PUSH2 0x6A0 JUMP JUMPDEST SWAP3 POP POP PUSH1 0x20 DUP4 ADD CALLDATALOAD PUSH8 0xFFFFFFFFFFFFFFFF DUP2 GT ISZERO PUSH2 0x7AB JUMPI PUSH2 0x7AA PUSH2 0xB32 JUMP JUMPDEST JUMPDEST PUSH2 0x7B7 DUP6 DUP3 DUP7 ADD PUSH2 0x672 JUMP JUMPDEST SWAP2 POP POP SWAP3 POP SWAP3 SWAP1 POP JUMP JUMPDEST PUSH1 0x0 DUP1 PUSH1 0x40 DUP4 DUP6 SUB SLT ISZERO PUSH2 0x7D8 JUMPI PUSH2 0x7D7 PUSH2 0xB37 JUMP JUMPDEST JUMPDEST PUSH1 0x0 PUSH2 0x7E6 DUP6 DUP3 DUP7 ADD PUSH2 0x6A0 JUMP JUMPDEST SWAP3 POP POP PUSH1 0x20 PUSH2 0x7F7 DUP6 DUP3 DUP7 ADD PUSH2 0x6A0 JUMP JUMPDEST SWAP2 POP POP SWAP3 POP SWAP3 SWAP1 POP JUMP JUMPDEST PUSH1 0x0 DUP1 PUSH1 0x0 PUSH1 0x60 DUP5 DUP7 SUB SLT ISZERO PUSH2 0x81A JUMPI PUSH2 0x819 PUSH2 0xB37 JUMP JUMPDEST JUMPDEST PUSH1 0x0 PUSH2 0x828 DUP7 DUP3 DUP8 ADD PUSH2 0x6A0 JUMP JUMPDEST SWAP4 POP POP PUSH1 0x20 PUSH2 0x839 DUP7 DUP3 DUP8 ADD PUSH2 0x6A0 JUMP JUMPDEST SWAP3 POP POP PUSH1 0x40 PUSH2 0x84A DUP7 DUP3 DUP8 ADD PUSH2 0x6A0 JUMP JUMPDEST SWAP2 POP POP SWAP3 POP SWAP3 POP SWAP3 JUMP JUMPDEST PUSH1 0x0 PUSH2 0x85F DUP3 PUSH2 0x93E JUMP JUMPDEST PUSH2 0x869 DUP2 DUP6 PUSH2 0x949 JUMP JUMPDEST SWAP4 POP PUSH2 0x879 DUP2 DUP6 PUSH1 0x20 DUP7 ADD PUSH2 0x9A7 JUMP JUMPDEST PUSH2 0x882 DUP2 PUSH2 0xB3C JUMP JUMPDEST DUP5 ADD SWAP2 POP POP SWAP3 SWAP2 POP POP JUMP JUMPDEST PUSH2 0x896 DUP2 PUSH2 0x98E JUMP JUMPDEST DUP3 MSTORE POP POP JUMP JUMPDEST PUSH1 0x0 PUSH1 0x80 DUP3 ADD SWAP1 POP DUP2 DUP2 SUB PUSH1 0x0 DUP4 ADD MSTORE PUSH2 0x8B6 DUP2 DUP8 PUSH2 0x854 JUMP JUMPDEST SWAP1 POP PUSH2 0x8C5 PUSH1 0x20 DUP4 ADD DUP7 PUSH2 0x88D JUMP JUMPDEST PUSH2 0x8D2 PUSH1 0x40 DUP4 ADD DUP6 PUSH2 0x88D JUMP JUMPDEST PUSH2 0x8DF PUSH1 0x60 DUP4 ADD DUP5 PUSH2 0x88D JUMP JUMPDEST SWAP6 SWAP5 POP POP POP POP POP JUMP JUMPDEST PUSH1 0x0 PUSH2 0x8F2 PUSH2 0x903 JUMP JUMPDEST SWAP1 POP PUSH2 0x8FE DUP3 DUP3 PUSH2 0xA0C JUMP JUMPDEST SWAP2 SWAP1 POP JUMP JUMPDEST PUSH1 0x0 PUSH1 0x40 MLOAD SWAP1 POP SWAP1 JUMP JUMPDEST PUSH1 0x0 PUSH8 0xFFFFFFFFFFFFFFFF DUP3 GT ISZERO PUSH2 0x928 JUMPI PUSH2 0x927 PUSH2 0xAF9 JUMP JUMPDEST JUMPDEST PUSH2 0x931 DUP3 PUSH2 0xB3C JUMP JUMPDEST SWAP1 POP PUSH1 0x20 DUP2 ADD SWAP1 POP SWAP2 SWAP1 POP JUMP JUMPDEST PUSH1 0x0 DUP2 MLOAD SWAP1 POP SWAP2 SWAP1 POP JUMP JUMPDEST PUSH1 0x0 DUP3 DUP3 MSTORE PUSH1 0x20 DUP3 ADD SWAP1 POP SWAP3 SWAP2 POP POP JUMP JUMPDEST PUSH1 0x0 PUSH2 0x965 DUP3 PUSH2 0x98E JUMP JUMPDEST SWAP2 POP PUSH2 0x970 DUP4 PUSH2 0x98E JUMP JUMPDEST SWAP3 POP DUP3 DUP3 LT ISZERO PUSH2 0x983 JUMPI PUSH2 0x982 PUSH2 0xA3D JUMP JUMPDEST JUMPDEST DUP3 DUP3 SUB SWAP1 POP SWAP3 SWAP2 POP POP JUMP JUMPDEST PUSH1 0x0 DUP2 SWAP1 POP SWAP2 SWAP1 POP JUMP JUMPDEST DUP3 DUP2 DUP4 CALLDATACOPY PUSH1 0x0 DUP4 DUP4 ADD MSTORE POP POP POP JUMP JUMPDEST PUSH1 0x0 JUMPDEST DUP4 DUP2 LT ISZERO PUSH2 0x9C5 JUMPI DUP1 DUP3 ADD MLOAD DUP2 DUP5 ADD MSTORE PUSH1 0x20 DUP2 ADD SWAP1 POP PUSH2 0x9AA JUMP JUMPDEST DUP4 DUP2 GT ISZERO PUSH2 0x9D4 JUMPI PUSH1 0x0 DUP5 DUP5 ADD MSTORE JUMPDEST POP POP POP POP JUMP JUMPDEST PUSH1 0x0 PUSH1 0x2 DUP3 DIV SWAP1 POP PUSH1 0x1 DUP3 AND DUP1 PUSH2 0x9F2 JUMPI PUSH1 0x7F DUP3 AND SWAP2 POP JUMPDEST PUSH1 0x20 DUP3 LT DUP2 EQ ISZERO PUSH2 0xA06 JUMPI PUSH2 0xA05 PUSH2 0xA6C JUMP JUMPDEST JUMPDEST POP SWAP2 SWAP1 POP JUMP JUMPDEST PUSH2 0xA15 DUP3 PUSH2 0xB3C JUMP JUMPDEST DUP2 ADD DUP2 DUP2 LT PUSH8 0xFFFFFFFFFFFFFFFF DUP3 GT OR ISZERO PUSH2 0xA34 JUMPI PUSH2 0xA33 PUSH2 0xAF9 JUMP JUMPDEST JUMPDEST DUP1 PUSH1 0x40 MSTORE POP POP POP JUMP JUMPDEST PUSH32 0x4E487B7100000000000000000000000000000000000000000000000000000000 PUSH1 0x0 MSTORE PUSH1 0x11 PUSH1 0x4 MSTORE PUSH1 0x24 PUSH1 0x0 REVERT JUMPDEST PUSH32 0x4E487B7100000000000000000000000000000000000000000000000000000000 PUSH1 0x0 MSTORE PUSH1 0x22 PUSH1 0x4 MSTORE PUSH1 0x24 PUSH1 0x0 REVERT JUMPDEST PUSH32 0x4E487B7100000000000000000000000000000000000000000000000000000000 PUSH1 0x0 MSTORE PUSH1 0x31 PUSH1 0x4 MSTORE PUSH1 0x24 PUSH1 0x0 REVERT JUMPDEST PUSH32 0x4E487B7100000000000000000000000000000000000000000000000000000000 PUSH1 0x0 MSTORE PUSH1 0x32 PUSH1 0x4 MSTORE PUSH1 0x24 PUSH1 0x0 REVERT JUMPDEST PUSH32 0x4E487B7100000000000000000000000000000000000000000000000000000000 PUSH1 0x0 MSTORE PUSH1 0x41 PUSH1 0x4 MSTORE PUSH1 0x24 PUSH1 0x0 REVERT JUMPDEST PUSH1 0x0 DUP1 REVERT JUMPDEST PUSH1 0x0 DUP1 REVERT JUMPDEST PUSH1 0x0 DUP1 REVERT JUMPDEST PUSH1 0x0 DUP1 REVERT JUMPDEST PUSH1 0x0 PUSH1 0x1F NOT PUSH1 0x1F DUP4 ADD AND SWAP1 POP SWAP2 SWAP1 POP JUMP JUMPDEST PUSH2 0xB56 DUP2 PUSH2 0x98E JUMP JUMPDEST DUP2 EQ PUSH2 0xB61 JUMPI PUSH1 0x0 DUP1 REVERT JUMPDEST POP JUMP INVALID LOG2 PUSH5 0x6970667358 0x22 SLT KECCAK256 DUP16 PUSH31 0x70BEA74B8EFA23B53B5AB799966F3256B2676A5C0CDABC1C8E157482288564 PUSH20 0x6F6C634300080700330000000000000000000000 "
				},
				"gasEstimates": {
					"creation": {
						"codeDepositCost": "594000",
						"executionCost": "625",
						"totalCost": "594625"
					},
					"external": {
						"addtolist(string,uint256,uint256,uint256)": "infinite",
						"editDay(uint256,uint256)": "infinite",
						"editMonth(uint256,uint256,uint256)": "infinite",
						"editYear(uint256,uint256)": "infinite",
						"editaction(uint256,string)": "infinite",
						"getfromlist(uint256)": "infinite",
						"remfromtodo(uint256)": "infinite"
					}
				},
				"methodIdentifiers": {
					"addtolist(string,uint256,uint256,uint256)": "e1b7edff",
					"editDay(uint256,uint256)": "2dc6a8d7",
					"editMonth(uint256,uint256,uint256)": "82659eec",
					"editYear(uint256,uint256)": "973e2bbc",
					"editaction(uint256,string)": "12cbb972",
					"getfromlist(uint256)": "7aadbdd3",
					"remfromtodo(uint256)": "9351b078"
				}
			},
			"storageLayout": {
				"storage": [
					{
						"astId": 14,
						"contract": "Todo.sol:TodoList",
						"label": "todoarr",
						"offset": 0,
						"slot": "0",
						"type": "t_array(t_struct(Todo)10_storage)dyn_storage"
					}
				],
				"types": {
					"t_array(t_struct(Todo)10_storage)dyn_storage": {
						"base": "t_struct(Todo)10_storage",
						"encoding": "dynamic_array",
						"label": "struct TodoList.Todo[]",
						"numberOfBytes": "32"
					},
					"t_string_storage": {
						"encoding": "bytes",
						"label": "string",
						"numberOfBytes": "32"
					},
					"t_struct(Todo)10_storage": {
						"encoding": "inplace",
						"label": "struct TodoList.Todo",
						"members": [
							{
								"astId": 3,
								"contract": "Todo.sol:TodoList",
								"label": "action",
								"offset": 0,
								"slot": "0",
								"type": "t_string_storage"
							},
							{
								"astId": 5,
								"contract": "Todo.sol:TodoList",
								"label": "day",
								"offset": 0,
								"slot": "1",
								"type": "t_uint256"
							},
							{
								"astId": 7,
								"contract": "Todo.sol:TodoList",
								"label": "month",
								"offset": 0,
								"slot": "2",
								"type": "t_uint256"
							},
							{
								"astId": 9,
								"contract": "Todo.sol:TodoList",
								"label": "year",
								"offset": 0,
								"slot": "3",
								"type": "t_uint256"
							}
						],
						"numberOfBytes": "128"
					},
					"t_uint256": {
						"encoding": "inplace",
						"label": "uint256",
						"numberOfBytes": "32"
					}
				}
			},
			"userdoc": {
				"kind": "user",
				"methods": {},
				"version": 1
			}
		}
	}
}