{
	"opo.sol": {
		"Counter2": {
			"abi": [
				{
					"inputs": [],
					"name": "count",
					"outputs": [
						{
							"internalType": "int256",
							"name": "",
							"type": "int256"
						}
					],
					"stateMutability": "view",
					"type": "function"
				},
				{
					"inputs": [],
					"name": "decrease",
					"outputs": [
						{
							"internalType": "int256",
							"name": "",
							"type": "int256"
						}
					],
					"stateMutability": "view",
					"type": "function"
				},
				{
					"inputs": [],
					"name": "increase",
					"outputs": [],
					"stateMutability": "nonpayable",
					"type": "function"
				}
			],
			"devdoc": {
				"kind": "dev",
				"methods": {},
				"version": 1
			},
			"evm": {
				"assembly": "    /* \"opo.sol\":56:227  contract Counter2{\r... */\n  mstore(0x40, 0x80)\n  callvalue\n  dup1\n  iszero\n  tag_1\n  jumpi\n  0x00\n  dup1\n  revert\ntag_1:\n  pop\n  dataSize(sub_0)\n  dup1\n  dataOffset(sub_0)\n  0x00\n  codecopy\n  0x00\n  return\nstop\n\nsub_0: assembly {\n        /* \"opo.sol\":56:227  contract Counter2{\r... */\n      mstore(0x40, 0x80)\n      callvalue\n      dup1\n      iszero\n      tag_1\n      jumpi\n      0x00\n      dup1\n      revert\n    tag_1:\n      pop\n      jumpi(tag_2, lt(calldatasize, 0x04))\n      shr(0xe0, calldataload(0x00))\n      dup1\n      0x06661abd\n      eq\n      tag_3\n      jumpi\n      dup1\n      0xd732d955\n      eq\n      tag_4\n      jumpi\n      dup1\n      0xe8927fbc\n      eq\n      tag_5\n      jumpi\n    tag_2:\n      0x00\n      dup1\n      revert\n        /* \"opo.sol\":76:92  int public count */\n    tag_3:\n      tag_6\n      tag_7\n      jump\t// in\n    tag_6:\n      mload(0x40)\n      tag_8\n      swap2\n      swap1\n      tag_9\n      jump\t// in\n    tag_8:\n      mload(0x40)\n      dup1\n      swap2\n      sub\n      swap1\n      return\n        /* \"opo.sol\":143:224  function decrease() external view returns(int){\r... */\n    tag_4:\n      tag_10\n      tag_11\n      jump\t// in\n    tag_10:\n      mload(0x40)\n      tag_12\n      swap2\n      swap1\n      tag_9\n      jump\t// in\n    tag_12:\n      mload(0x40)\n      dup1\n      swap2\n      sub\n      swap1\n      return\n        /* \"opo.sol\":95:141  function increase() public{\r... */\n    tag_5:\n      tag_13\n      tag_14\n      jump\t// in\n    tag_13:\n      stop\n        /* \"opo.sol\":76:92  int public count */\n    tag_7:\n      sload(0x00)\n      dup2\n      jump\t// out\n        /* \"opo.sol\":143:224  function decrease() external view returns(int){\r... */\n    tag_11:\n        /* \"opo.sol\":185:188  int */\n      0x00\n        /* \"opo.sol\":209:214  count */\n      dup1\n      sload\n        /* \"opo.sol\":202:214  return count */\n      swap1\n      pop\n        /* \"opo.sol\":143:224  function decrease() external view returns(int){\r... */\n      swap1\n      jump\t// out\n        /* \"opo.sol\":95:141  function increase() public{\r... */\n    tag_14:\n        /* \"opo.sol\":136:137  1 */\n      0x01\n        /* \"opo.sol\":128:133  count */\n      0x00\n      dup1\n        /* \"opo.sol\":128:137  count +=1 */\n      dup3\n      dup3\n      sload\n      tag_17\n      swap2\n      swap1\n      tag_18\n      jump\t// in\n    tag_17:\n      swap3\n      pop\n      pop\n      dup2\n      swap1\n      sstore\n      pop\n        /* \"opo.sol\":95:141  function increase() public{\r... */\n      jump\t// out\n        /* \"#utility.yul\":7:122   */\n    tag_20:\n        /* \"#utility.yul\":92:115   */\n      tag_22\n        /* \"#utility.yul\":109:114   */\n      dup2\n        /* \"#utility.yul\":92:115   */\n      tag_23\n      jump\t// in\n    tag_22:\n        /* \"#utility.yul\":87:90   */\n      dup3\n        /* \"#utility.yul\":80:116   */\n      mstore\n        /* \"#utility.yul\":7:122   */\n      pop\n      pop\n      jump\t// out\n        /* \"#utility.yul\":128:346   */\n    tag_9:\n        /* \"#utility.yul\":219:223   */\n      0x00\n        /* \"#utility.yul\":257:259   */\n      0x20\n        /* \"#utility.yul\":246:255   */\n      dup3\n        /* \"#utility.yul\":242:260   */\n      add\n        /* \"#utility.yul\":234:260   */\n      swap1\n      pop\n        /* \"#utility.yul\":270:339   */\n      tag_25\n        /* \"#utility.yul\":336:337   */\n      0x00\n        /* \"#utility.yul\":325:334   */\n      dup4\n        /* \"#utility.yul\":321:338   */\n      add\n        /* \"#utility.yul\":312:318   */\n      dup5\n        /* \"#utility.yul\":270:339   */\n      tag_20\n      jump\t// in\n    tag_25:\n        /* \"#utility.yul\":128:346   */\n      swap3\n      swap2\n      pop\n      pop\n      jump\t// out\n        /* \"#utility.yul\":352:877   */\n    tag_18:\n        /* \"#utility.yul\":391:394   */\n      0x00\n        /* \"#utility.yul\":410:429   */\n      tag_27\n        /* \"#utility.yul\":427:428   */\n      dup3\n        /* \"#utility.yul\":410:429   */\n      tag_23\n      jump\t// in\n    tag_27:\n        /* \"#utility.yul\":405:429   */\n      swap2\n      pop\n        /* \"#utility.yul\":443:462   */\n      tag_28\n        /* \"#utility.yul\":460:461   */\n      dup4\n        /* \"#utility.yul\":443:462   */\n      tag_23\n      jump\t// in\n    tag_28:\n        /* \"#utility.yul\":438:462   */\n      swap3\n      pop\n        /* \"#utility.yul\":631:632   */\n      dup2\n        /* \"#utility.yul\":563:629   */\n      0x7fffffffffffffffffffffffffffffffffffffffffffffffffffffffffffffff\n        /* \"#utility.yul\":559:633   */\n      sub\n        /* \"#utility.yul\":556:557   */\n      dup4\n        /* \"#utility.yul\":552:634   */\n      sgt\n        /* \"#utility.yul\":547:548   */\n      0x00\n        /* \"#utility.yul\":544:545   */\n      dup4\n        /* \"#utility.yul\":540:549   */\n      slt\n        /* \"#utility.yul\":533:550   */\n      iszero\n        /* \"#utility.yul\":529:635   */\n      and\n        /* \"#utility.yul\":526:658   */\n      iszero\n      tag_29\n      jumpi\n        /* \"#utility.yul\":638:656   */\n      tag_30\n      tag_31\n      jump\t// in\n    tag_30:\n        /* \"#utility.yul\":526:658   */\n    tag_29:\n        /* \"#utility.yul\":818:819   */\n      dup2\n        /* \"#utility.yul\":750:816   */\n      0x8000000000000000000000000000000000000000000000000000000000000000\n        /* \"#utility.yul\":746:820   */\n      sub\n        /* \"#utility.yul\":743:744   */\n      dup4\n        /* \"#utility.yul\":739:821   */\n      slt\n        /* \"#utility.yul\":735:736   */\n      0x00\n        /* \"#utility.yul\":732:733   */\n      dup4\n        /* \"#utility.yul\":728:737   */\n      slt\n        /* \"#utility.yul\":724:822   */\n      and\n        /* \"#utility.yul\":721:845   */\n      iszero\n      tag_32\n      jumpi\n        /* \"#utility.yul\":825:843   */\n      tag_33\n      tag_31\n      jump\t// in\n    tag_33:\n        /* \"#utility.yul\":721:845   */\n    tag_32:\n        /* \"#utility.yul\":869:870   */\n      dup3\n        /* \"#utility.yul\":866:867   */\n      dup3\n        /* \"#utility.yul\":862:871   */\n      add\n        /* \"#utility.yul\":855:871   */\n      swap1\n      pop\n        /* \"#utility.yul\":352:877   */\n      swap3\n      swap2\n      pop\n      pop\n      jump\t// out\n        /* \"#utility.yul\":883:959   */\n    tag_23:\n        /* \"#utility.yul\":919:926   */\n      0x00\n        /* \"#utility.yul\":948:953   */\n      dup2\n        /* \"#utility.yul\":937:953   */\n      swap1\n      pop\n        /* \"#utility.yul\":883:959   */\n      swap2\n      swap1\n      pop\n      jump\t// out\n        /* \"#utility.yul\":965:1145   */\n    tag_31:\n        /* \"#utility.yul\":1013:1090   */\n      0x4e487b7100000000000000000000000000000000000000000000000000000000\n        /* \"#utility.yul\":1010:1011   */\n      0x00\n        /* \"#utility.yul\":1003:1091   */\n      mstore\n        /* \"#utility.yul\":1110:1114   */\n      0x11\n        /* \"#utility.yul\":1107:1108   */\n      0x04\n        /* \"#utility.yul\":1100:1115   */\n      mstore\n        /* \"#utility.yul\":1134:1138   */\n      0x24\n        /* \"#utility.yul\":1131:1132   */\n      0x00\n        /* \"#utility.yul\":1124:1139   */\n      revert\n\n    auxdata: 0xa264697066735822122032300a6d0793d36bb38a08b2e0bec7f4f646d87bc92d3353c679ab7f66569ce264736f6c63430008070033\n}\n",
				"bytecode": {
					"linkReferences": {},
					"object": "608060405234801561001057600080fd5b506101e3806100206000396000f3fe608060405234801561001057600080fd5b50600436106100415760003560e01c806306661abd14610046578063d732d95514610064578063e8927fbc14610082575b600080fd5b61004e61008c565b60405161005b91906100c5565b60405180910390f35b61006c610092565b60405161007991906100c5565b60405180910390f35b61008a61009b565b005b60005481565b60008054905090565b60016000808282546100ad91906100e0565b92505081905550565b6100bf81610174565b82525050565b60006020820190506100da60008301846100b6565b92915050565b60006100eb82610174565b91506100f683610174565b9250817f7fffffffffffffffffffffffffffffffffffffffffffffffffffffffffffffff038313600083121516156101315761013061017e565b5b817f80000000000000000000000000000000000000000000000000000000000000000383126000831216156101695761016861017e565b5b828201905092915050565b6000819050919050565b7f4e487b7100000000000000000000000000000000000000000000000000000000600052601160045260246000fdfea264697066735822122032300a6d0793d36bb38a08b2e0bec7f4f646d87bc92d3353c679ab7f66569ce264736f6c63430008070033",
					"opcodes": "PUSH1 0x80 PUSH1 0x40 MSTORE CALLVALUE DUP1 ISZERO PUSH2 0x10 JUMPI PUSH1 0x0 DUP1 REVERT JUMPDEST POP PUSH2 0x1E3 DUP1 PUSH2 0x20 PUSH1 0x0 CODECOPY PUSH1 0x0 RETURN INVALID PUSH1 0x80 PUSH1 0x40 MSTORE CALLVALUE DUP1 ISZERO PUSH2 0x10 JUMPI PUSH1 0x0 DUP1 REVERT JUMPDEST POP PUSH1 0x4 CALLDATASIZE LT PUSH2 0x41 JUMPI PUSH1 0x0 CALLDATALOAD PUSH1 0xE0 SHR DUP1 PUSH4 0x6661ABD EQ PUSH2 0x46 JUMPI DUP1 PUSH4 0xD732D955 EQ PUSH2 0x64 JUMPI DUP1 PUSH4 0xE8927FBC EQ PUSH2 0x82 JUMPI JUMPDEST PUSH1 0x0 DUP1 REVERT JUMPDEST PUSH2 0x4E PUSH2 0x8C JUMP JUMPDEST PUSH1 0x40 MLOAD PUSH2 0x5B SWAP2 SWAP1 PUSH2 0xC5 JUMP JUMPDEST PUSH1 0x40 MLOAD DUP1 SWAP2 SUB SWAP1 RETURN JUMPDEST PUSH2 0x6C PUSH2 0x92 JUMP JUMPDEST PUSH1 0x40 MLOAD PUSH2 0x79 SWAP2 SWAP1 PUSH2 0xC5 JUMP JUMPDEST PUSH1 0x40 MLOAD DUP1 SWAP2 SUB SWAP1 RETURN JUMPDEST PUSH2 0x8A PUSH2 0x9B JUMP JUMPDEST STOP JUMPDEST PUSH1 0x0 SLOAD DUP2 JUMP JUMPDEST PUSH1 0x0 DUP1 SLOAD SWAP1 POP SWAP1 JUMP JUMPDEST PUSH1 0x1 PUSH1 0x0 DUP1 DUP3 DUP3 SLOAD PUSH2 0xAD SWAP2 SWAP1 PUSH2 0xE0 JUMP JUMPDEST SWAP3 POP POP DUP2 SWAP1 SSTORE POP JUMP JUMPDEST PUSH2 0xBF DUP2 PUSH2 0x174 JUMP JUMPDEST DUP3 MSTORE POP POP JUMP JUMPDEST PUSH1 0x0 PUSH1 0x20 DUP3 ADD SWAP1 POP PUSH2 0xDA PUSH1 0x0 DUP4 ADD DUP5 PUSH2 0xB6 JUMP JUMPDEST SWAP3 SWAP2 POP POP JUMP JUMPDEST PUSH1 0x0 PUSH2 0xEB DUP3 PUSH2 0x174 JUMP JUMPDEST SWAP2 POP PUSH2 0xF6 DUP4 PUSH2 0x174 JUMP JUMPDEST SWAP3 POP DUP2 PUSH32 0x7FFFFFFFFFFFFFFFFFFFFFFFFFFFFFFFFFFFFFFFFFFFFFFFFFFFFFFFFFFFFFFF SUB DUP4 SGT PUSH1 0x0 DUP4 SLT ISZERO AND ISZERO PUSH2 0x131 JUMPI PUSH2 0x130 PUSH2 0x17E JUMP JUMPDEST JUMPDEST DUP2 PUSH32 0x8000000000000000000000000000000000000000000000000000000000000000 SUB DUP4 SLT PUSH1 0x0 DUP4 SLT AND ISZERO PUSH2 0x169 JUMPI PUSH2 0x168 PUSH2 0x17E JUMP JUMPDEST JUMPDEST DUP3 DUP3 ADD SWAP1 POP SWAP3 SWAP2 POP POP JUMP JUMPDEST PUSH1 0x0 DUP2 SWAP1 POP SWAP2 SWAP1 POP JUMP JUMPDEST PUSH32 0x4E487B7100000000000000000000000000000000000000000000000000000000 PUSH1 0x0 MSTORE PUSH1 0x11 PUSH1 0x4 MSTORE PUSH1 0x24 PUSH1 0x0 REVERT INVALID LOG2 PUSH5 0x6970667358 0x22 SLT KECCAK256 ORIGIN ADDRESS EXP PUSH14 0x793D36BB38A08B2E0BEC7F4F646 0xD8 PUSH28 0xC92D3353C679AB7F66569CE264736F6C634300080700330000000000 "
				},
				"gasEstimates": {
					"creation": {
						"codeDepositCost": "96600",
						"executionCost": "147",
						"totalCost": "96747"
					},
					"external": {
						"count()": "2407",
						"decrease()": "2437",
						"increase()": "infinite"
					}
				},
				"methodIdentifiers": {
					"count()": "06661abd",
					"decrease()": "d732d955",
					"increase()": "e8927fbc"
				}
			},
			"storageLayout": {
				"storage": [
					{
						"astId": 3,
						"contract": "opo.sol:Counter2",
						"label": "count",
						"offset": 0,
						"slot": "0",
						"type": "t_int256"
					}
				],
				"types": {
					"t_int256": {
						"encoding": "inplace",
						"label": "int256",
						"numberOfBytes": "32"
					}
				}
			},
			"userdoc": {
				"kind": "user",
				"methods": {},
				"version": 1
			}
		}
	}
}