{
	"opo.sol": {
		"TodoList": {
			"abi": [
				{
					"inputs": [
						{
							"internalType": "string",
							"name": "_action",
							"type": "string"
						},
						{
							"internalType": "uint32",
							"name": "_day",
							"type": "uint32"
						},
						{
							"internalType": "uint256",
							"name": "_month",
							"type": "uint256"
						},
						{
							"internalType": "uint256",
							"name": "_year",
							"type": "uint256"
						}
					],
					"name": "addtolist",
					"outputs": [],
					"stateMutability": "nonpayable",
					"type": "function"
				},
				{
					"inputs": [
						{
							"internalType": "uint256",
							"name": "_index",
							"type": "uint256"
						}
					],
					"name": "getlist",
					"outputs": [
						{
							"internalType": "string",
							"name": "",
							"type": "string"
						},
						{
							"internalType": "uint256",
							"name": "",
							"type": "uint256"
						},
						{
							"internalType": "uint256",
							"name": "",
							"type": "uint256"
						},
						{
							"internalType": "uint256",
							"name": "",
							"type": "uint256"
						}
					],
					"stateMutability": "view",
					"type": "function"
				},
				{
					"inputs": [
						{
							"internalType": "uint256",
							"name": "",
							"type": "uint256"
						}
					],
					"name": "todoarr",
					"outputs": [
						{
							"internalType": "string",
							"name": "action",
							"type": "string"
						},
						{
							"internalType": "uint32",
							"name": "day",
							"type": "uint32"
						},
						{
							"internalType": "uint256",
							"name": "month",
							"type": "uint256"
						},
						{
							"internalType": "uint256",
							"name": "year",
							"type": "uint256"
						}
					],
					"stateMutability": "view",
					"type": "function"
				}
			],
			"devdoc": {
				"kind": "dev",
				"methods": {},
				"version": 1
			},
			"evm": {
				"assembly": "    /* \"opo.sol\":56:589  contract TodoList{\r... */\n  mstore(0x40, 0x80)\n  callvalue\n  dup1\n  iszero\n  tag_1\n  jumpi\n  0x00\n  dup1\n  revert\ntag_1:\n  pop\n  dataSize(sub_0)\n  dup1\n  dataOffset(sub_0)\n  0x00\n  codecopy\n  0x00\n  return\nstop\n\nsub_0: assembly {\n        /* \"opo.sol\":56:589  contract TodoList{\r... */\n      mstore(0x40, 0x80)\n      callvalue\n      dup1\n      iszero\n      tag_1\n      jumpi\n      0x00\n      dup1\n      revert\n    tag_1:\n      pop\n      jumpi(tag_2, lt(calldatasize, 0x04))\n      shr(0xe0, calldataload(0x00))\n      dup1\n      0x6c9958e0\n      eq\n      tag_3\n      jumpi\n      dup1\n      0xd3729ff6\n      eq\n      tag_4\n      jumpi\n      dup1\n      0xe75bcf86\n      eq\n      tag_5\n      jumpi\n    tag_2:\n      0x00\n      dup1\n      revert\n        /* \"opo.sol\":410:584  function getlist(uint _index) public view returns(string memory,uint,uint,uint){\r... */\n    tag_3:\n      tag_6\n      0x04\n      dup1\n      calldatasize\n      sub\n      dup2\n      add\n      swap1\n      tag_7\n      swap2\n      swap1\n      tag_8\n      jump\t// in\n    tag_7:\n      tag_9\n      jump\t// in\n    tag_6:\n      mload(0x40)\n      tag_10\n      swap5\n      swap4\n      swap3\n      swap2\n      swap1\n      tag_11\n      jump\t// in\n    tag_10:\n      mload(0x40)\n      dup1\n      swap2\n      sub\n      swap1\n      return\n        /* \"opo.sol\":190:211  Todo[] public todoarr */\n    tag_4:\n      tag_12\n      0x04\n      dup1\n      calldatasize\n      sub\n      dup2\n      add\n      swap1\n      tag_13\n      swap2\n      swap1\n      tag_8\n      jump\t// in\n    tag_13:\n      tag_14\n      jump\t// in\n    tag_12:\n      mload(0x40)\n      tag_15\n      swap5\n      swap4\n      swap3\n      swap2\n      swap1\n      tag_16\n      jump\t// in\n    tag_15:\n      mload(0x40)\n      dup1\n      swap2\n      sub\n      swap1\n      return\n        /* \"opo.sol\":215:408  function addtolist(string memory _action,uint32 _day,uint _month,uint _year) external {\r... */\n    tag_5:\n      tag_17\n      0x04\n      dup1\n      calldatasize\n      sub\n      dup2\n      add\n      swap1\n      tag_18\n      swap2\n      swap1\n      tag_19\n      jump\t// in\n    tag_18:\n      tag_20\n      jump\t// in\n    tag_17:\n      stop\n        /* \"opo.sol\":410:584  function getlist(uint _index) public view returns(string memory,uint,uint,uint){\r... */\n    tag_9:\n        /* \"opo.sol\":460:473  string memory */\n      0x60\n        /* \"opo.sol\":474:478  uint */\n      0x00\n        /* \"opo.sol\":479:483  uint */\n      dup1\n        /* \"opo.sol\":484:488  uint */\n      0x00\n        /* \"opo.sol\":492:508  Todo memory todo */\n      dup1\n        /* \"opo.sol\":511:518  todoarr */\n      0x00\n        /* \"opo.sol\":519:525  _index */\n      dup7\n        /* \"opo.sol\":511:526  todoarr[_index] */\n      dup2\n      sload\n      dup2\n      lt\n      tag_22\n      jumpi\n      tag_23\n      tag_24\n      jump\t// in\n    tag_23:\n    tag_22:\n      swap1\n      0x00\n      mstore\n      keccak256(0x00, 0x20)\n      swap1\n      0x04\n      mul\n      add\n        /* \"opo.sol\":492:526  Todo memory todo = todoarr[_index] */\n      mload(0x40)\n      dup1\n      0x80\n      add\n      0x40\n      mstore\n      swap1\n      dup2\n      0x00\n      dup3\n      add\n      dup1\n      sload\n      tag_26\n      swap1\n      tag_27\n      jump\t// in\n    tag_26:\n      dup1\n      0x1f\n      add\n      0x20\n      dup1\n      swap2\n      div\n      mul\n      0x20\n      add\n      mload(0x40)\n      swap1\n      dup2\n      add\n      0x40\n      mstore\n      dup1\n      swap3\n      swap2\n      swap1\n      dup2\n      dup2\n      mstore\n      0x20\n      add\n      dup3\n      dup1\n      sload\n      tag_28\n      swap1\n      tag_27\n      jump\t// in\n    tag_28:\n      dup1\n      iszero\n      tag_29\n      jumpi\n      dup1\n      0x1f\n      lt\n      tag_30\n      jumpi\n      0x0100\n      dup1\n      dup4\n      sload\n      div\n      mul\n      dup4\n      mstore\n      swap2\n      0x20\n      add\n      swap2\n      jump(tag_29)\n    tag_30:\n      dup3\n      add\n      swap2\n      swap1\n      0x00\n      mstore\n      keccak256(0x00, 0x20)\n      swap1\n    tag_31:\n      dup2\n      sload\n      dup2\n      mstore\n      swap1\n      0x01\n      add\n      swap1\n      0x20\n      add\n      dup1\n      dup4\n      gt\n      tag_31\n      jumpi\n      dup3\n      swap1\n      sub\n      0x1f\n      and\n      dup3\n      add\n      swap2\n    tag_29:\n      pop\n      pop\n      pop\n      pop\n      pop\n      dup2\n      mstore\n      0x20\n      add\n      0x01\n      dup3\n      add\n      0x00\n      swap1\n      sload\n      swap1\n      0x0100\n      exp\n      swap1\n      div\n      0xffffffff\n      and\n      0xffffffff\n      and\n      0xffffffff\n      and\n      dup2\n      mstore\n      0x20\n      add\n      0x02\n      dup3\n      add\n      sload\n      dup2\n      mstore\n      0x20\n      add\n      0x03\n      dup3\n      add\n      sload\n      dup2\n      mstore\n      pop\n      pop\n      swap1\n      pop\n        /* \"opo.sol\":538:542  todo */\n      dup1\n        /* \"opo.sol\":538:549  todo.action */\n      0x00\n      add\n      mload\n        /* \"opo.sol\":550:554  todo */\n      dup2\n        /* \"opo.sol\":550:558  todo.day */\n      0x20\n      add\n      mload\n        /* \"opo.sol\":559:563  todo */\n      dup3\n        /* \"opo.sol\":559:569  todo.month */\n      0x40\n      add\n      mload\n        /* \"opo.sol\":570:574  todo */\n      dup4\n        /* \"opo.sol\":570:579  todo.year */\n      0x60\n      add\n      mload\n        /* \"opo.sol\":530:580  return (todo.action,todo.day,todo.month,todo.year) */\n      dup3\n      0xffffffff\n      and\n      swap3\n      pop\n      swap5\n      pop\n      swap5\n      pop\n      swap5\n      pop\n      swap5\n      pop\n      pop\n        /* \"opo.sol\":410:584  function getlist(uint _index) public view returns(string memory,uint,uint,uint){\r... */\n      swap2\n      swap4\n      pop\n      swap2\n      swap4\n      jump\t// out\n        /* \"opo.sol\":190:211  Todo[] public todoarr */\n    tag_14:\n      0x00\n      dup2\n      dup2\n      sload\n      dup2\n      lt\n      tag_32\n      jumpi\n      0x00\n      dup1\n      revert\n    tag_32:\n      swap1\n      0x00\n      mstore\n      keccak256(0x00, 0x20)\n      swap1\n      0x04\n      mul\n      add\n      0x00\n      swap2\n      pop\n      swap1\n      pop\n      dup1\n      0x00\n      add\n      dup1\n      sload\n      tag_34\n      swap1\n      tag_27\n      jump\t// in\n    tag_34:\n      dup1\n      0x1f\n      add\n      0x20\n      dup1\n      swap2\n      div\n      mul\n      0x20\n      add\n      mload(0x40)\n      swap1\n      dup2\n      add\n      0x40\n      mstore\n      dup1\n      swap3\n      swap2\n      swap1\n      dup2\n      dup2\n      mstore\n      0x20\n      add\n      dup3\n      dup1\n      sload\n      tag_35\n      swap1\n      tag_27\n      jump\t// in\n    tag_35:\n      dup1\n      iszero\n      tag_36\n      jumpi\n      dup1\n      0x1f\n      lt\n      tag_37\n      jumpi\n      0x0100\n      dup1\n      dup4\n      sload\n      div\n      mul\n      dup4\n      mstore\n      swap2\n      0x20\n      add\n      swap2\n      jump(tag_36)\n    tag_37:\n      dup3\n      add\n      swap2\n      swap1\n      0x00\n      mstore\n      keccak256(0x00, 0x20)\n      swap1\n    tag_38:\n      dup2\n      sload\n      dup2\n      mstore\n      swap1\n      0x01\n      add\n      swap1\n      0x20\n      add\n      dup1\n      dup4\n      gt\n      tag_38\n      jumpi\n      dup3\n      swap1\n      sub\n      0x1f\n      and\n      dup3\n      add\n      swap2\n    tag_36:\n      pop\n      pop\n      pop\n      pop\n      pop\n      swap1\n      dup1\n      0x01\n      add\n      0x00\n      swap1\n      sload\n      swap1\n      0x0100\n      exp\n      swap1\n      div\n      0xffffffff\n      and\n      swap1\n      dup1\n      0x02\n      add\n      sload\n      swap1\n      dup1\n      0x03\n      add\n      sload\n      swap1\n      pop\n      dup5\n      jump\t// out\n        /* \"opo.sol\":215:408  function addtolist(string memory _action,uint32 _day,uint _month,uint _year) external {\r... */\n    tag_20:\n        /* \"opo.sol\":304:311  todoarr */\n      0x00\n        /* \"opo.sol\":317:403  Todo({\r... */\n      mload(0x40)\n      dup1\n      0x80\n      add\n      0x40\n      mstore\n      dup1\n        /* \"opo.sol\":337:344  _action */\n      dup7\n        /* \"opo.sol\":317:403  Todo({\r... */\n      dup2\n      mstore\n      0x20\n      add\n        /* \"opo.sol\":356:360  _day */\n      dup6\n        /* \"opo.sol\":317:403  Todo({\r... */\n      0xffffffff\n      and\n      dup2\n      mstore\n      0x20\n      add\n        /* \"opo.sol\":374:380  _month */\n      dup5\n        /* \"opo.sol\":317:403  Todo({\r... */\n      dup2\n      mstore\n      0x20\n      add\n        /* \"opo.sol\":394:399  _year */\n      dup4\n        /* \"opo.sol\":317:403  Todo({\r... */\n      dup2\n      mstore\n      pop\n        /* \"opo.sol\":304:404  todoarr.push(Todo({\r... */\n      swap1\n      dup1\n      0x01\n      dup2\n      sload\n      add\n      dup1\n      dup3\n      sstore\n      dup1\n      swap2\n      pop\n      pop\n      0x01\n      swap1\n      sub\n      swap1\n      0x00\n      mstore\n      keccak256(0x00, 0x20)\n      swap1\n      0x04\n      mul\n      add\n      0x00\n      swap1\n      swap2\n      swap1\n      swap2\n      swap1\n      swap2\n      pop\n      0x00\n      dup3\n      add\n      mload\n      dup2\n      0x00\n      add\n      swap1\n      dup1\n      mload\n      swap1\n      0x20\n      add\n      swap1\n      tag_41\n      swap3\n      swap2\n      swap1\n      tag_42\n      jump\t// in\n    tag_41:\n      pop\n      0x20\n      dup3\n      add\n      mload\n      dup2\n      0x01\n      add\n      exp(0x0100, 0x00)\n      dup2\n      sload\n      dup2\n      0xffffffff\n      mul\n      not\n      and\n      swap1\n      dup4\n      0xffffffff\n      and\n      mul\n      or\n      swap1\n      sstore\n      pop\n      0x40\n      dup3\n      add\n      mload\n      dup2\n      0x02\n      add\n      sstore\n      0x60\n      dup3\n      add\n      mload\n      dup2\n      0x03\n      add\n      sstore\n      pop\n      pop\n        /* \"opo.sol\":215:408  function addtolist(string memory _action,uint32 _day,uint _month,uint _year) external {\r... */\n      pop\n      pop\n      pop\n      pop\n      jump\t// out\n    tag_42:\n      dup3\n      dup1\n      sload\n      tag_43\n      swap1\n      tag_27\n      jump\t// in\n    tag_43:\n      swap1\n      0x00\n      mstore\n      keccak256(0x00, 0x20)\n      swap1\n      0x1f\n      add\n      0x20\n      swap1\n      div\n      dup2\n      add\n      swap3\n      dup3\n      tag_45\n      jumpi\n      0x00\n      dup6\n      sstore\n      jump(tag_44)\n    tag_45:\n      dup3\n      0x1f\n      lt\n      tag_46\n      jumpi\n      dup1\n      mload\n      not(0xff)\n      and\n      dup4\n      dup1\n      add\n      or\n      dup6\n      sstore\n      jump(tag_44)\n    tag_46:\n      dup3\n      dup1\n      add\n      0x01\n      add\n      dup6\n      sstore\n      dup3\n      iszero\n      tag_44\n      jumpi\n      swap2\n      dup3\n      add\n    tag_47:\n      dup3\n      dup2\n      gt\n      iszero\n      tag_48\n      jumpi\n      dup3\n      mload\n      dup3\n      sstore\n      swap2\n      0x20\n      add\n      swap2\n      swap1\n      0x01\n      add\n      swap1\n      jump(tag_47)\n    tag_48:\n    tag_44:\n      pop\n      swap1\n      pop\n      tag_49\n      swap2\n      swap1\n      tag_50\n      jump\t// in\n    tag_49:\n      pop\n      swap1\n      jump\t// out\n    tag_50:\n    tag_51:\n      dup1\n      dup3\n      gt\n      iszero\n      tag_52\n      jumpi\n      0x00\n      dup2\n      0x00\n      swap1\n      sstore\n      pop\n      0x01\n      add\n      jump(tag_51)\n    tag_52:\n      pop\n      swap1\n      jump\t// out\n        /* \"#utility.yul\":7:419   */\n    tag_54:\n        /* \"#utility.yul\":85:90   */\n      0x00\n        /* \"#utility.yul\":110:176   */\n      tag_56\n        /* \"#utility.yul\":126:175   */\n      tag_57\n        /* \"#utility.yul\":168:174   */\n      dup5\n        /* \"#utility.yul\":126:175   */\n      tag_58\n      jump\t// in\n    tag_57:\n        /* \"#utility.yul\":110:176   */\n      tag_59\n      jump\t// in\n    tag_56:\n        /* \"#utility.yul\":101:176   */\n      swap1\n      pop\n        /* \"#utility.yul\":199:205   */\n      dup3\n        /* \"#utility.yul\":192:197   */\n      dup2\n        /* \"#utility.yul\":185:206   */\n      mstore\n        /* \"#utility.yul\":237:241   */\n      0x20\n        /* \"#utility.yul\":230:235   */\n      dup2\n        /* \"#utility.yul\":226:242   */\n      add\n        /* \"#utility.yul\":275:278   */\n      dup5\n        /* \"#utility.yul\":266:272   */\n      dup5\n        /* \"#utility.yul\":261:264   */\n      dup5\n        /* \"#utility.yul\":257:273   */\n      add\n        /* \"#utility.yul\":254:279   */\n      gt\n        /* \"#utility.yul\":251:363   */\n      iszero\n      tag_60\n      jumpi\n        /* \"#utility.yul\":282:361   */\n      tag_61\n      tag_62\n      jump\t// in\n    tag_61:\n        /* \"#utility.yul\":251:363   */\n    tag_60:\n        /* \"#utility.yul\":372:413   */\n      tag_63\n        /* \"#utility.yul\":406:412   */\n      dup5\n        /* \"#utility.yul\":401:404   */\n      dup3\n        /* \"#utility.yul\":396:399   */\n      dup6\n        /* \"#utility.yul\":372:413   */\n      tag_64\n      jump\t// in\n    tag_63:\n        /* \"#utility.yul\":91:419   */\n      pop\n        /* \"#utility.yul\":7:419   */\n      swap4\n      swap3\n      pop\n      pop\n      pop\n      jump\t// out\n        /* \"#utility.yul\":439:779   */\n    tag_65:\n        /* \"#utility.yul\":495:500   */\n      0x00\n        /* \"#utility.yul\":544:547   */\n      dup3\n        /* \"#utility.yul\":537:541   */\n      0x1f\n        /* \"#utility.yul\":529:535   */\n      dup4\n        /* \"#utility.yul\":525:542   */\n      add\n        /* \"#utility.yul\":521:548   */\n      slt\n        /* \"#utility.yul\":511:633   */\n      tag_67\n      jumpi\n        /* \"#utility.yul\":552:631   */\n      tag_68\n      tag_69\n      jump\t// in\n    tag_68:\n        /* \"#utility.yul\":511:633   */\n    tag_67:\n        /* \"#utility.yul\":669:675   */\n      dup2\n        /* \"#utility.yul\":656:676   */\n      calldataload\n        /* \"#utility.yul\":694:773   */\n      tag_70\n        /* \"#utility.yul\":769:772   */\n      dup5\n        /* \"#utility.yul\":761:767   */\n      dup3\n        /* \"#utility.yul\":754:758   */\n      0x20\n        /* \"#utility.yul\":746:752   */\n      dup7\n        /* \"#utility.yul\":742:759   */\n      add\n        /* \"#utility.yul\":694:773   */\n      tag_54\n      jump\t// in\n    tag_70:\n        /* \"#utility.yul\":685:773   */\n      swap2\n      pop\n        /* \"#utility.yul\":501:779   */\n      pop\n        /* \"#utility.yul\":439:779   */\n      swap3\n      swap2\n      pop\n      pop\n      jump\t// out\n        /* \"#utility.yul\":785:924   */\n    tag_71:\n        /* \"#utility.yul\":831:836   */\n      0x00\n        /* \"#utility.yul\":869:875   */\n      dup2\n        /* \"#utility.yul\":856:876   */\n      calldataload\n        /* \"#utility.yul\":847:876   */\n      swap1\n      pop\n        /* \"#utility.yul\":885:918   */\n      tag_73\n        /* \"#utility.yul\":912:917   */\n      dup2\n        /* \"#utility.yul\":885:918   */\n      tag_74\n      jump\t// in\n    tag_73:\n        /* \"#utility.yul\":785:924   */\n      swap3\n      swap2\n      pop\n      pop\n      jump\t// out\n        /* \"#utility.yul\":930:1067   */\n    tag_75:\n        /* \"#utility.yul\":975:980   */\n      0x00\n        /* \"#utility.yul\":1013:1019   */\n      dup2\n        /* \"#utility.yul\":1000:1020   */\n      calldataload\n        /* \"#utility.yul\":991:1020   */\n      swap1\n      pop\n        /* \"#utility.yul\":1029:1061   */\n      tag_77\n        /* \"#utility.yul\":1055:1060   */\n      dup2\n        /* \"#utility.yul\":1029:1061   */\n      tag_78\n      jump\t// in\n    tag_77:\n        /* \"#utility.yul\":930:1067   */\n      swap3\n      swap2\n      pop\n      pop\n      jump\t// out\n        /* \"#utility.yul\":1073:2016   */\n    tag_19:\n        /* \"#utility.yul\":1168:1174   */\n      0x00\n        /* \"#utility.yul\":1176:1182   */\n      dup1\n        /* \"#utility.yul\":1184:1190   */\n      0x00\n        /* \"#utility.yul\":1192:1198   */\n      dup1\n        /* \"#utility.yul\":1241:1244   */\n      0x80\n        /* \"#utility.yul\":1229:1238   */\n      dup6\n        /* \"#utility.yul\":1220:1227   */\n      dup8\n        /* \"#utility.yul\":1216:1239   */\n      sub\n        /* \"#utility.yul\":1212:1245   */\n      slt\n        /* \"#utility.yul\":1209:1329   */\n      iszero\n      tag_80\n      jumpi\n        /* \"#utility.yul\":1248:1327   */\n      tag_81\n      tag_82\n      jump\t// in\n    tag_81:\n        /* \"#utility.yul\":1209:1329   */\n    tag_80:\n        /* \"#utility.yul\":1396:1397   */\n      0x00\n        /* \"#utility.yul\":1385:1394   */\n      dup6\n        /* \"#utility.yul\":1381:1398   */\n      add\n        /* \"#utility.yul\":1368:1399   */\n      calldataload\n        /* \"#utility.yul\":1426:1444   */\n      0xffffffffffffffff\n        /* \"#utility.yul\":1418:1424   */\n      dup2\n        /* \"#utility.yul\":1415:1445   */\n      gt\n        /* \"#utility.yul\":1412:1529   */\n      iszero\n      tag_83\n      jumpi\n        /* \"#utility.yul\":1448:1527   */\n      tag_84\n      tag_85\n      jump\t// in\n    tag_84:\n        /* \"#utility.yul\":1412:1529   */\n    tag_83:\n        /* \"#utility.yul\":1553:1616   */\n      tag_86\n        /* \"#utility.yul\":1608:1615   */\n      dup8\n        /* \"#utility.yul\":1599:1605   */\n      dup3\n        /* \"#utility.yul\":1588:1597   */\n      dup9\n        /* \"#utility.yul\":1584:1606   */\n      add\n        /* \"#utility.yul\":1553:1616   */\n      tag_65\n      jump\t// in\n    tag_86:\n        /* \"#utility.yul\":1543:1616   */\n      swap5\n      pop\n        /* \"#utility.yul\":1339:1626   */\n      pop\n        /* \"#utility.yul\":1665:1667   */\n      0x20\n        /* \"#utility.yul\":1691:1743   */\n      tag_87\n        /* \"#utility.yul\":1735:1742   */\n      dup8\n        /* \"#utility.yul\":1726:1732   */\n      dup3\n        /* \"#utility.yul\":1715:1724   */\n      dup9\n        /* \"#utility.yul\":1711:1733   */\n      add\n        /* \"#utility.yul\":1691:1743   */\n      tag_75\n      jump\t// in\n    tag_87:\n        /* \"#utility.yul\":1681:1743   */\n      swap4\n      pop\n        /* \"#utility.yul\":1636:1753   */\n      pop\n        /* \"#utility.yul\":1792:1794   */\n      0x40\n        /* \"#utility.yul\":1818:1871   */\n      tag_88\n        /* \"#utility.yul\":1863:1870   */\n      dup8\n        /* \"#utility.yul\":1854:1860   */\n      dup3\n        /* \"#utility.yul\":1843:1852   */\n      dup9\n        /* \"#utility.yul\":1839:1861   */\n      add\n        /* \"#utility.yul\":1818:1871   */\n      tag_71\n      jump\t// in\n    tag_88:\n        /* \"#utility.yul\":1808:1871   */\n      swap3\n      pop\n        /* \"#utility.yul\":1763:1881   */\n      pop\n        /* \"#utility.yul\":1920:1922   */\n      0x60\n        /* \"#utility.yul\":1946:1999   */\n      tag_89\n        /* \"#utility.yul\":1991:1998   */\n      dup8\n        /* \"#utility.yul\":1982:1988   */\n      dup3\n        /* \"#utility.yul\":1971:1980   */\n      dup9\n        /* \"#utility.yul\":1967:1989   */\n      add\n        /* \"#utility.yul\":1946:1999   */\n      tag_71\n      jump\t// in\n    tag_89:\n        /* \"#utility.yul\":1936:1999   */\n      swap2\n      pop\n        /* \"#utility.yul\":1891:2009   */\n      pop\n        /* \"#utility.yul\":1073:2016   */\n      swap3\n      swap6\n      swap2\n      swap5\n      pop\n      swap3\n      pop\n      jump\t// out\n        /* \"#utility.yul\":2022:2351   */\n    tag_8:\n        /* \"#utility.yul\":2081:2087   */\n      0x00\n        /* \"#utility.yul\":2130:2132   */\n      0x20\n        /* \"#utility.yul\":2118:2127   */\n      dup3\n        /* \"#utility.yul\":2109:2116   */\n      dup5\n        /* \"#utility.yul\":2105:2128   */\n      sub\n        /* \"#utility.yul\":2101:2133   */\n      slt\n        /* \"#utility.yul\":2098:2217   */\n      iszero\n      tag_91\n      jumpi\n        /* \"#utility.yul\":2136:2215   */\n      tag_92\n      tag_82\n      jump\t// in\n    tag_92:\n        /* \"#utility.yul\":2098:2217   */\n    tag_91:\n        /* \"#utility.yul\":2256:2257   */\n      0x00\n        /* \"#utility.yul\":2281:2334   */\n      tag_93\n        /* \"#utility.yul\":2326:2333   */\n      dup5\n        /* \"#utility.yul\":2317:2323   */\n      dup3\n        /* \"#utility.yul\":2306:2315   */\n      dup6\n        /* \"#utility.yul\":2302:2324   */\n      add\n        /* \"#utility.yul\":2281:2334   */\n      tag_71\n      jump\t// in\n    tag_93:\n        /* \"#utility.yul\":2271:2334   */\n      swap2\n      pop\n        /* \"#utility.yul\":2227:2344   */\n      pop\n        /* \"#utility.yul\":2022:2351   */\n      swap3\n      swap2\n      pop\n      pop\n      jump\t// out\n        /* \"#utility.yul\":2357:2721   */\n    tag_94:\n        /* \"#utility.yul\":2445:2448   */\n      0x00\n        /* \"#utility.yul\":2473:2512   */\n      tag_96\n        /* \"#utility.yul\":2506:2511   */\n      dup3\n        /* \"#utility.yul\":2473:2512   */\n      tag_97\n      jump\t// in\n    tag_96:\n        /* \"#utility.yul\":2528:2599   */\n      tag_98\n        /* \"#utility.yul\":2592:2598   */\n      dup2\n        /* \"#utility.yul\":2587:2590   */\n      dup6\n        /* \"#utility.yul\":2528:2599   */\n      tag_99\n      jump\t// in\n    tag_98:\n        /* \"#utility.yul\":2521:2599   */\n      swap4\n      pop\n        /* \"#utility.yul\":2608:2660   */\n      tag_100\n        /* \"#utility.yul\":2653:2659   */\n      dup2\n        /* \"#utility.yul\":2648:2651   */\n      dup6\n        /* \"#utility.yul\":2641:2645   */\n      0x20\n        /* \"#utility.yul\":2634:2639   */\n      dup7\n        /* \"#utility.yul\":2630:2646   */\n      add\n        /* \"#utility.yul\":2608:2660   */\n      tag_101\n      jump\t// in\n    tag_100:\n        /* \"#utility.yul\":2685:2714   */\n      tag_102\n        /* \"#utility.yul\":2707:2713   */\n      dup2\n        /* \"#utility.yul\":2685:2714   */\n      tag_103\n      jump\t// in\n    tag_102:\n        /* \"#utility.yul\":2680:2683   */\n      dup5\n        /* \"#utility.yul\":2676:2715   */\n      add\n        /* \"#utility.yul\":2669:2715   */\n      swap2\n      pop\n        /* \"#utility.yul\":2449:2721   */\n      pop\n        /* \"#utility.yul\":2357:2721   */\n      swap3\n      swap2\n      pop\n      pop\n      jump\t// out\n        /* \"#utility.yul\":2727:2845   */\n    tag_104:\n        /* \"#utility.yul\":2814:2838   */\n      tag_106\n        /* \"#utility.yul\":2832:2837   */\n      dup2\n        /* \"#utility.yul\":2814:2838   */\n      tag_107\n      jump\t// in\n    tag_106:\n        /* \"#utility.yul\":2809:2812   */\n      dup3\n        /* \"#utility.yul\":2802:2839   */\n      mstore\n        /* \"#utility.yul\":2727:2845   */\n      pop\n      pop\n      jump\t// out\n        /* \"#utility.yul\":2851:2966   */\n    tag_108:\n        /* \"#utility.yul\":2936:2959   */\n      tag_110\n        /* \"#utility.yul\":2953:2958   */\n      dup2\n        /* \"#utility.yul\":2936:2959   */\n      tag_111\n      jump\t// in\n    tag_110:\n        /* \"#utility.yul\":2931:2934   */\n      dup3\n        /* \"#utility.yul\":2924:2960   */\n      mstore\n        /* \"#utility.yul\":2851:2966   */\n      pop\n      pop\n      jump\t// out\n        /* \"#utility.yul\":2972:3616   */\n    tag_11:\n        /* \"#utility.yul\":3169:3173   */\n      0x00\n        /* \"#utility.yul\":3207:3210   */\n      0x80\n        /* \"#utility.yul\":3196:3205   */\n      dup3\n        /* \"#utility.yul\":3192:3211   */\n      add\n        /* \"#utility.yul\":3184:3211   */\n      swap1\n      pop\n        /* \"#utility.yul\":3257:3266   */\n      dup2\n        /* \"#utility.yul\":3251:3255   */\n      dup2\n        /* \"#utility.yul\":3247:3267   */\n      sub\n        /* \"#utility.yul\":3243:3244   */\n      0x00\n        /* \"#utility.yul\":3232:3241   */\n      dup4\n        /* \"#utility.yul\":3228:3245   */\n      add\n        /* \"#utility.yul\":3221:3268   */\n      mstore\n        /* \"#utility.yul\":3285:3363   */\n      tag_113\n        /* \"#utility.yul\":3358:3362   */\n      dup2\n        /* \"#utility.yul\":3349:3355   */\n      dup8\n        /* \"#utility.yul\":3285:3363   */\n      tag_94\n      jump\t// in\n    tag_113:\n        /* \"#utility.yul\":3277:3363   */\n      swap1\n      pop\n        /* \"#utility.yul\":3373:3445   */\n      tag_114\n        /* \"#utility.yul\":3441:3443   */\n      0x20\n        /* \"#utility.yul\":3430:3439   */\n      dup4\n        /* \"#utility.yul\":3426:3444   */\n      add\n        /* \"#utility.yul\":3417:3423   */\n      dup7\n        /* \"#utility.yul\":3373:3445   */\n      tag_104\n      jump\t// in\n    tag_114:\n        /* \"#utility.yul\":3455:3527   */\n      tag_115\n        /* \"#utility.yul\":3523:3525   */\n      0x40\n        /* \"#utility.yul\":3512:3521   */\n      dup4\n        /* \"#utility.yul\":3508:3526   */\n      add\n        /* \"#utility.yul\":3499:3505   */\n      dup6\n        /* \"#utility.yul\":3455:3527   */\n      tag_104\n      jump\t// in\n    tag_115:\n        /* \"#utility.yul\":3537:3609   */\n      tag_116\n        /* \"#utility.yul\":3605:3607   */\n      0x60\n        /* \"#utility.yul\":3594:3603   */\n      dup4\n        /* \"#utility.yul\":3590:3608   */\n      add\n        /* \"#utility.yul\":3581:3587   */\n      dup5\n        /* \"#utility.yul\":3537:3609   */\n      tag_104\n      jump\t// in\n    tag_116:\n        /* \"#utility.yul\":2972:3616   */\n      swap6\n      swap5\n      pop\n      pop\n      pop\n      pop\n      pop\n      jump\t// out\n        /* \"#utility.yul\":3622:4262   */\n    tag_16:\n        /* \"#utility.yul\":3817:3821   */\n      0x00\n        /* \"#utility.yul\":3855:3858   */\n      0x80\n        /* \"#utility.yul\":3844:3853   */\n      dup3\n        /* \"#utility.yul\":3840:3859   */\n      add\n        /* \"#utility.yul\":3832:3859   */\n      swap1\n      pop\n        /* \"#utility.yul\":3905:3914   */\n      dup2\n        /* \"#utility.yul\":3899:3903   */\n      dup2\n        /* \"#utility.yul\":3895:3915   */\n      sub\n        /* \"#utility.yul\":3891:3892   */\n      0x00\n        /* \"#utility.yul\":3880:3889   */\n      dup4\n        /* \"#utility.yul\":3876:3893   */\n      add\n        /* \"#utility.yul\":3869:3916   */\n      mstore\n        /* \"#utility.yul\":3933:4011   */\n      tag_118\n        /* \"#utility.yul\":4006:4010   */\n      dup2\n        /* \"#utility.yul\":3997:4003   */\n      dup8\n        /* \"#utility.yul\":3933:4011   */\n      tag_94\n      jump\t// in\n    tag_118:\n        /* \"#utility.yul\":3925:4011   */\n      swap1\n      pop\n        /* \"#utility.yul\":4021:4091   */\n      tag_119\n        /* \"#utility.yul\":4087:4089   */\n      0x20\n        /* \"#utility.yul\":4076:4085   */\n      dup4\n        /* \"#utility.yul\":4072:4090   */\n      add\n        /* \"#utility.yul\":4063:4069   */\n      dup7\n        /* \"#utility.yul\":4021:4091   */\n      tag_108\n      jump\t// in\n    tag_119:\n        /* \"#utility.yul\":4101:4173   */\n      tag_120\n        /* \"#utility.yul\":4169:4171   */\n      0x40\n        /* \"#utility.yul\":4158:4167   */\n      dup4\n        /* \"#utility.yul\":4154:4172   */\n      add\n        /* \"#utility.yul\":4145:4151   */\n      dup6\n        /* \"#utility.yul\":4101:4173   */\n      tag_104\n      jump\t// in\n    tag_120:\n        /* \"#utility.yul\":4183:4255   */\n      tag_121\n        /* \"#utility.yul\":4251:4253   */\n      0x60\n        /* \"#utility.yul\":4240:4249   */\n      dup4\n        /* \"#utility.yul\":4236:4254   */\n      add\n        /* \"#utility.yul\":4227:4233   */\n      dup5\n        /* \"#utility.yul\":4183:4255   */\n      tag_104\n      jump\t// in\n    tag_121:\n        /* \"#utility.yul\":3622:4262   */\n      swap6\n      swap5\n      pop\n      pop\n      pop\n      pop\n      pop\n      jump\t// out\n        /* \"#utility.yul\":4268:4397   */\n    tag_59:\n        /* \"#utility.yul\":4302:4308   */\n      0x00\n        /* \"#utility.yul\":4329:4349   */\n      tag_123\n      tag_124\n      jump\t// in\n    tag_123:\n        /* \"#utility.yul\":4319:4349   */\n      swap1\n      pop\n        /* \"#utility.yul\":4358:4391   */\n      tag_125\n        /* \"#utility.yul\":4386:4390   */\n      dup3\n        /* \"#utility.yul\":4378:4384   */\n      dup3\n        /* \"#utility.yul\":4358:4391   */\n      tag_126\n      jump\t// in\n    tag_125:\n        /* \"#utility.yul\":4268:4397   */\n      swap2\n      swap1\n      pop\n      jump\t// out\n        /* \"#utility.yul\":4403:4478   */\n    tag_124:\n        /* \"#utility.yul\":4436:4442   */\n      0x00\n        /* \"#utility.yul\":4469:4471   */\n      0x40\n        /* \"#utility.yul\":4463:4472   */\n      mload\n        /* \"#utility.yul\":4453:4472   */\n      swap1\n      pop\n        /* \"#utility.yul\":4403:4478   */\n      swap1\n      jump\t// out\n        /* \"#utility.yul\":4484:4792   */\n    tag_58:\n        /* \"#utility.yul\":4546:4550   */\n      0x00\n        /* \"#utility.yul\":4636:4654   */\n      0xffffffffffffffff\n        /* \"#utility.yul\":4628:4634   */\n      dup3\n        /* \"#utility.yul\":4625:4655   */\n      gt\n        /* \"#utility.yul\":4622:4678   */\n      iszero\n      tag_129\n      jumpi\n        /* \"#utility.yul\":4658:4676   */\n      tag_130\n      tag_131\n      jump\t// in\n    tag_130:\n        /* \"#utility.yul\":4622:4678   */\n    tag_129:\n        /* \"#utility.yul\":4696:4725   */\n      tag_132\n        /* \"#utility.yul\":4718:4724   */\n      dup3\n        /* \"#utility.yul\":4696:4725   */\n      tag_103\n      jump\t// in\n    tag_132:\n        /* \"#utility.yul\":4688:4725   */\n      swap1\n      pop\n        /* \"#utility.yul\":4780:4784   */\n      0x20\n        /* \"#utility.yul\":4774:4778   */\n      dup2\n        /* \"#utility.yul\":4770:4785   */\n      add\n        /* \"#utility.yul\":4762:4785   */\n      swap1\n      pop\n        /* \"#utility.yul\":4484:4792   */\n      swap2\n      swap1\n      pop\n      jump\t// out\n        /* \"#utility.yul\":4798:4897   */\n    tag_97:\n        /* \"#utility.yul\":4850:4856   */\n      0x00\n        /* \"#utility.yul\":4884:4889   */\n      dup2\n        /* \"#utility.yul\":4878:4890   */\n      mload\n        /* \"#utility.yul\":4868:4890   */\n      swap1\n      pop\n        /* \"#utility.yul\":4798:4897   */\n      swap2\n      swap1\n      pop\n      jump\t// out\n        /* \"#utility.yul\":4903:5072   */\n    tag_99:\n        /* \"#utility.yul\":4987:4998   */\n      0x00\n        /* \"#utility.yul\":5021:5027   */\n      dup3\n        /* \"#utility.yul\":5016:5019   */\n      dup3\n        /* \"#utility.yul\":5009:5028   */\n      mstore\n        /* \"#utility.yul\":5061:5065   */\n      0x20\n        /* \"#utility.yul\":5056:5059   */\n      dup3\n        /* \"#utility.yul\":5052:5066   */\n      add\n        /* \"#utility.yul\":5037:5066   */\n      swap1\n      pop\n        /* \"#utility.yul\":4903:5072   */\n      swap3\n      swap2\n      pop\n      pop\n      jump\t// out\n        /* \"#utility.yul\":5078:5155   */\n    tag_107:\n        /* \"#utility.yul\":5115:5122   */\n      0x00\n        /* \"#utility.yul\":5144:5149   */\n      dup2\n        /* \"#utility.yul\":5133:5149   */\n      swap1\n      pop\n        /* \"#utility.yul\":5078:5155   */\n      swap2\n      swap1\n      pop\n      jump\t// out\n        /* \"#utility.yul\":5161:5254   */\n    tag_111:\n        /* \"#utility.yul\":5197:5204   */\n      0x00\n        /* \"#utility.yul\":5237:5247   */\n      0xffffffff\n        /* \"#utility.yul\":5230:5235   */\n      dup3\n        /* \"#utility.yul\":5226:5248   */\n      and\n        /* \"#utility.yul\":5215:5248   */\n      swap1\n      pop\n        /* \"#utility.yul\":5161:5254   */\n      swap2\n      swap1\n      pop\n      jump\t// out\n        /* \"#utility.yul\":5260:5414   */\n    tag_64:\n        /* \"#utility.yul\":5344:5350   */\n      dup3\n        /* \"#utility.yul\":5339:5342   */\n      dup2\n        /* \"#utility.yul\":5334:5337   */\n      dup4\n        /* \"#utility.yul\":5321:5351   */\n      calldatacopy\n        /* \"#utility.yul\":5406:5407   */\n      0x00\n        /* \"#utility.yul\":5397:5403   */\n      dup4\n        /* \"#utility.yul\":5392:5395   */\n      dup4\n        /* \"#utility.yul\":5388:5404   */\n      add\n        /* \"#utility.yul\":5381:5408   */\n      mstore\n        /* \"#utility.yul\":5260:5414   */\n      pop\n      pop\n      pop\n      jump\t// out\n        /* \"#utility.yul\":5420:5727   */\n    tag_101:\n        /* \"#utility.yul\":5488:5489   */\n      0x00\n        /* \"#utility.yul\":5498:5611   */\n    tag_139:\n        /* \"#utility.yul\":5512:5518   */\n      dup4\n        /* \"#utility.yul\":5509:5510   */\n      dup2\n        /* \"#utility.yul\":5506:5519   */\n      lt\n        /* \"#utility.yul\":5498:5611   */\n      iszero\n      tag_141\n      jumpi\n        /* \"#utility.yul\":5597:5598   */\n      dup1\n        /* \"#utility.yul\":5592:5595   */\n      dup3\n        /* \"#utility.yul\":5588:5599   */\n      add\n        /* \"#utility.yul\":5582:5600   */\n      mload\n        /* \"#utility.yul\":5578:5579   */\n      dup2\n        /* \"#utility.yul\":5573:5576   */\n      dup5\n        /* \"#utility.yul\":5569:5580   */\n      add\n        /* \"#utility.yul\":5562:5601   */\n      mstore\n        /* \"#utility.yul\":5534:5536   */\n      0x20\n        /* \"#utility.yul\":5531:5532   */\n      dup2\n        /* \"#utility.yul\":5527:5537   */\n      add\n        /* \"#utility.yul\":5522:5537   */\n      swap1\n      pop\n        /* \"#utility.yul\":5498:5611   */\n      jump(tag_139)\n    tag_141:\n        /* \"#utility.yul\":5629:5635   */\n      dup4\n        /* \"#utility.yul\":5626:5627   */\n      dup2\n        /* \"#utility.yul\":5623:5636   */\n      gt\n        /* \"#utility.yul\":5620:5721   */\n      iszero\n      tag_142\n      jumpi\n        /* \"#utility.yul\":5709:5710   */\n      0x00\n        /* \"#utility.yul\":5700:5706   */\n      dup5\n        /* \"#utility.yul\":5695:5698   */\n      dup5\n        /* \"#utility.yul\":5691:5707   */\n      add\n        /* \"#utility.yul\":5684:5711   */\n      mstore\n        /* \"#utility.yul\":5620:5721   */\n    tag_142:\n        /* \"#utility.yul\":5469:5727   */\n      pop\n        /* \"#utility.yul\":5420:5727   */\n      pop\n      pop\n      pop\n      jump\t// out\n        /* \"#utility.yul\":5733:6053   */\n    tag_27:\n        /* \"#utility.yul\":5777:5783   */\n      0x00\n        /* \"#utility.yul\":5814:5815   */\n      0x02\n        /* \"#utility.yul\":5808:5812   */\n      dup3\n        /* \"#utility.yul\":5804:5816   */\n      div\n        /* \"#utility.yul\":5794:5816   */\n      swap1\n      pop\n        /* \"#utility.yul\":5861:5862   */\n      0x01\n        /* \"#utility.yul\":5855:5859   */\n      dup3\n        /* \"#utility.yul\":5851:5863   */\n      and\n        /* \"#utility.yul\":5882:5900   */\n      dup1\n        /* \"#utility.yul\":5872:5953   */\n      tag_144\n      jumpi\n        /* \"#utility.yul\":5938:5942   */\n      0x7f\n        /* \"#utility.yul\":5930:5936   */\n      dup3\n        /* \"#utility.yul\":5926:5943   */\n      and\n        /* \"#utility.yul\":5916:5943   */\n      swap2\n      pop\n        /* \"#utility.yul\":5872:5953   */\n    tag_144:\n        /* \"#utility.yul\":6000:6002   */\n      0x20\n        /* \"#utility.yul\":5992:5998   */\n      dup3\n        /* \"#utility.yul\":5989:6003   */\n      lt\n        /* \"#utility.yul\":5969:5987   */\n      dup2\n        /* \"#utility.yul\":5966:6004   */\n      eq\n        /* \"#utility.yul\":5963:6047   */\n      iszero\n      tag_145\n      jumpi\n        /* \"#utility.yul\":6019:6037   */\n      tag_146\n      tag_147\n      jump\t// in\n    tag_146:\n        /* \"#utility.yul\":5963:6047   */\n    tag_145:\n        /* \"#utility.yul\":5784:6053   */\n      pop\n        /* \"#utility.yul\":5733:6053   */\n      swap2\n      swap1\n      pop\n      jump\t// out\n        /* \"#utility.yul\":6059:6340   */\n    tag_126:\n        /* \"#utility.yul\":6142:6169   */\n      tag_149\n        /* \"#utility.yul\":6164:6168   */\n      dup3\n        /* \"#utility.yul\":6142:6169   */\n      tag_103\n      jump\t// in\n    tag_149:\n        /* \"#utility.yul\":6134:6140   */\n      dup2\n        /* \"#utility.yul\":6130:6170   */\n      add\n        /* \"#utility.yul\":6272:6278   */\n      dup2\n        /* \"#utility.yul\":6260:6270   */\n      dup2\n        /* \"#utility.yul\":6257:6279   */\n      lt\n        /* \"#utility.yul\":6236:6254   */\n      0xffffffffffffffff\n        /* \"#utility.yul\":6224:6234   */\n      dup3\n        /* \"#utility.yul\":6221:6255   */\n      gt\n        /* \"#utility.yul\":6218:6280   */\n      or\n        /* \"#utility.yul\":6215:6303   */\n      iszero\n      tag_150\n      jumpi\n        /* \"#utility.yul\":6283:6301   */\n      tag_151\n      tag_131\n      jump\t// in\n    tag_151:\n        /* \"#utility.yul\":6215:6303   */\n    tag_150:\n        /* \"#utility.yul\":6323:6333   */\n      dup1\n        /* \"#utility.yul\":6319:6321   */\n      0x40\n        /* \"#utility.yul\":6312:6334   */\n      mstore\n        /* \"#utility.yul\":6102:6340   */\n      pop\n        /* \"#utility.yul\":6059:6340   */\n      pop\n      pop\n      jump\t// out\n        /* \"#utility.yul\":6346:6526   */\n    tag_147:\n        /* \"#utility.yul\":6394:6471   */\n      0x4e487b7100000000000000000000000000000000000000000000000000000000\n        /* \"#utility.yul\":6391:6392   */\n      0x00\n        /* \"#utility.yul\":6384:6472   */\n      mstore\n        /* \"#utility.yul\":6491:6495   */\n      0x22\n        /* \"#utility.yul\":6488:6489   */\n      0x04\n        /* \"#utility.yul\":6481:6496   */\n      mstore\n        /* \"#utility.yul\":6515:6519   */\n      0x24\n        /* \"#utility.yul\":6512:6513   */\n      0x00\n        /* \"#utility.yul\":6505:6520   */\n      revert\n        /* \"#utility.yul\":6532:6712   */\n    tag_24:\n        /* \"#utility.yul\":6580:6657   */\n      0x4e487b7100000000000000000000000000000000000000000000000000000000\n        /* \"#utility.yul\":6577:6578   */\n      0x00\n        /* \"#utility.yul\":6570:6658   */\n      mstore\n        /* \"#utility.yul\":6677:6681   */\n      0x32\n        /* \"#utility.yul\":6674:6675   */\n      0x04\n        /* \"#utility.yul\":6667:6682   */\n      mstore\n        /* \"#utility.yul\":6701:6705   */\n      0x24\n        /* \"#utility.yul\":6698:6699   */\n      0x00\n        /* \"#utility.yul\":6691:6706   */\n      revert\n        /* \"#utility.yul\":6718:6898   */\n    tag_131:\n        /* \"#utility.yul\":6766:6843   */\n      0x4e487b7100000000000000000000000000000000000000000000000000000000\n        /* \"#utility.yul\":6763:6764   */\n      0x00\n        /* \"#utility.yul\":6756:6844   */\n      mstore\n        /* \"#utility.yul\":6863:6867   */\n      0x41\n        /* \"#utility.yul\":6860:6861   */\n      0x04\n        /* \"#utility.yul\":6853:6868   */\n      mstore\n        /* \"#utility.yul\":6887:6891   */\n      0x24\n        /* \"#utility.yul\":6884:6885   */\n      0x00\n        /* \"#utility.yul\":6877:6892   */\n      revert\n        /* \"#utility.yul\":6904:7021   */\n    tag_69:\n        /* \"#utility.yul\":7013:7014   */\n      0x00\n        /* \"#utility.yul\":7010:7011   */\n      dup1\n        /* \"#utility.yul\":7003:7015   */\n      revert\n        /* \"#utility.yul\":7027:7144   */\n    tag_62:\n        /* \"#utility.yul\":7136:7137   */\n      0x00\n        /* \"#utility.yul\":7133:7134   */\n      dup1\n        /* \"#utility.yul\":7126:7138   */\n      revert\n        /* \"#utility.yul\":7150:7267   */\n    tag_85:\n        /* \"#utility.yul\":7259:7260   */\n      0x00\n        /* \"#utility.yul\":7256:7257   */\n      dup1\n        /* \"#utility.yul\":7249:7261   */\n      revert\n        /* \"#utility.yul\":7273:7390   */\n    tag_82:\n        /* \"#utility.yul\":7382:7383   */\n      0x00\n        /* \"#utility.yul\":7379:7380   */\n      dup1\n        /* \"#utility.yul\":7372:7384   */\n      revert\n        /* \"#utility.yul\":7396:7498   */\n    tag_103:\n        /* \"#utility.yul\":7437:7443   */\n      0x00\n        /* \"#utility.yul\":7488:7490   */\n      0x1f\n        /* \"#utility.yul\":7484:7491   */\n      not\n        /* \"#utility.yul\":7479:7481   */\n      0x1f\n        /* \"#utility.yul\":7472:7477   */\n      dup4\n        /* \"#utility.yul\":7468:7482   */\n      add\n        /* \"#utility.yul\":7464:7492   */\n      and\n        /* \"#utility.yul\":7454:7492   */\n      swap1\n      pop\n        /* \"#utility.yul\":7396:7498   */\n      swap2\n      swap1\n      pop\n      jump\t// out\n        /* \"#utility.yul\":7504:7626   */\n    tag_74:\n        /* \"#utility.yul\":7577:7601   */\n      tag_161\n        /* \"#utility.yul\":7595:7600   */\n      dup2\n        /* \"#utility.yul\":7577:7601   */\n      tag_107\n      jump\t// in\n    tag_161:\n        /* \"#utility.yul\":7570:7575   */\n      dup2\n        /* \"#utility.yul\":7567:7602   */\n      eq\n        /* \"#utility.yul\":7557:7620   */\n      tag_162\n      jumpi\n        /* \"#utility.yul\":7616:7617   */\n      0x00\n        /* \"#utility.yul\":7613:7614   */\n      dup1\n        /* \"#utility.yul\":7606:7618   */\n      revert\n        /* \"#utility.yul\":7557:7620   */\n    tag_162:\n        /* \"#utility.yul\":7504:7626   */\n      pop\n      jump\t// out\n        /* \"#utility.yul\":7632:7752   */\n    tag_78:\n        /* \"#utility.yul\":7704:7727   */\n      tag_164\n        /* \"#utility.yul\":7721:7726   */\n      dup2\n        /* \"#utility.yul\":7704:7727   */\n      tag_111\n      jump\t// in\n    tag_164:\n        /* \"#utility.yul\":7697:7702   */\n      dup2\n        /* \"#utility.yul\":7694:7728   */\n      eq\n        /* \"#utility.yul\":7684:7746   */\n      tag_165\n      jumpi\n        /* \"#utility.yul\":7742:7743   */\n      0x00\n        /* \"#utility.yul\":7739:7740   */\n      dup1\n        /* \"#utility.yul\":7732:7744   */\n      revert\n        /* \"#utility.yul\":7684:7746   */\n    tag_165:\n        /* \"#utility.yul\":7632:7752   */\n      pop\n      jump\t// out\n\n    auxdata: 0xa2646970667358221220528ead31379d80d19080b196dfe61fdced193db5614da8324c715e2f3d5b1c3664736f6c63430008070033\n}\n",
				"bytecode": {
					"linkReferences": {},
					"object": "608060405234801561001057600080fd5b506108a5806100206000396000f3fe608060405234801561001057600080fd5b50600436106100415760003560e01c80636c9958e014610046578063d3729ff614610079578063e75bcf86146100ac575b600080fd5b610060600480360381019061005b9190610542565b6100c8565b60405161007094939291906105c6565b60405180910390f35b610093600480360381019061008e9190610542565b6101f8565b6040516100a39493929190610612565b60405180910390f35b6100c660048036038101906100c191906104bf565b6102d0565b005b6060600080600080600086815481106100e4576100e36107be565b5b906000526020600020906004020160405180608001604052908160008201805461010d9061072c565b80601f01602080910402602001604051908101604052809291908181526020018280546101399061072c565b80156101865780601f1061015b57610100808354040283529160200191610186565b820191906000526020600020905b81548152906001019060200180831161016957829003601f168201915b505050505081526020016001820160009054906101000a900463ffffffff1663ffffffff1663ffffffff16815260200160028201548152602001600382015481525050905080600001518160200151826040015183606001518263ffffffff1692509450945094509450509193509193565b6000818154811061020857600080fd5b906000526020600020906004020160009150905080600001805461022b9061072c565b80601f01602080910402602001604051908101604052809291908181526020018280546102579061072c565b80156102a45780601f10610279576101008083540402835291602001916102a4565b820191906000526020600020905b81548152906001019060200180831161028757829003601f168201915b5050505050908060010160009054906101000a900463ffffffff16908060020154908060030154905084565b600060405180608001604052808681526020018563ffffffff168152602001848152602001838152509080600181540180825580915050600190039060005260206000209060040201600090919091909150600082015181600001908051906020019061033e929190610382565b5060208201518160010160006101000a81548163ffffffff021916908363ffffffff1602179055506040820151816002015560608201518160030155505050505050565b82805461038e9061072c565b90600052602060002090601f0160209004810192826103b057600085556103f7565b82601f106103c957805160ff19168380011785556103f7565b828001600101855582156103f7579182015b828111156103f65782518255916020019190600101906103db565b5b5090506104049190610408565b5090565b5b80821115610421576000816000905550600101610409565b5090565b600061043861043384610683565b61065e565b90508281526020810184848401111561045457610453610821565b5b61045f8482856106ea565b509392505050565b600082601f83011261047c5761047b61081c565b5b813561048c848260208601610425565b91505092915050565b6000813590506104a481610841565b92915050565b6000813590506104b981610858565b92915050565b600080600080608085870312156104d9576104d861082b565b5b600085013567ffffffffffffffff8111156104f7576104f6610826565b5b61050387828801610467565b9450506020610514878288016104aa565b935050604061052587828801610495565b925050606061053687828801610495565b91505092959194509250565b6000602082840312156105585761055761082b565b5b600061056684828501610495565b91505092915050565b600061057a826106b4565b61058481856106bf565b93506105948185602086016106f9565b61059d81610830565b840191505092915050565b6105b1816106d0565b82525050565b6105c0816106da565b82525050565b600060808201905081810360008301526105e0818761056f565b90506105ef60208301866105a8565b6105fc60408301856105a8565b61060960608301846105a8565b95945050505050565b6000608082019050818103600083015261062c818761056f565b905061063b60208301866105b7565b61064860408301856105a8565b61065560608301846105a8565b95945050505050565b6000610668610679565b9050610674828261075e565b919050565b6000604051905090565b600067ffffffffffffffff82111561069e5761069d6107ed565b5b6106a782610830565b9050602081019050919050565b600081519050919050565b600082825260208201905092915050565b6000819050919050565b600063ffffffff82169050919050565b82818337600083830152505050565b60005b838110156107175780820151818401526020810190506106fc565b83811115610726576000848401525b50505050565b6000600282049050600182168061074457607f821691505b602082108114156107585761075761078f565b5b50919050565b61076782610830565b810181811067ffffffffffffffff82111715610786576107856107ed565b5b80604052505050565b7f4e487b7100000000000000000000000000000000000000000000000000000000600052602260045260246000fd5b7f4e487b7100000000000000000000000000000000000000000000000000000000600052603260045260246000fd5b7f4e487b7100000000000000000000000000000000000000000000000000000000600052604160045260246000fd5b600080fd5b600080fd5b600080fd5b600080fd5b6000601f19601f8301169050919050565b61084a816106d0565b811461085557600080fd5b50565b610861816106da565b811461086c57600080fd5b5056fea2646970667358221220528ead31379d80d19080b196dfe61fdced193db5614da8324c715e2f3d5b1c3664736f6c63430008070033",
					"opcodes": "PUSH1 0x80 PUSH1 0x40 MSTORE CALLVALUE DUP1 ISZERO PUSH2 0x10 JUMPI PUSH1 0x0 DUP1 REVERT JUMPDEST POP PUSH2 0x8A5 DUP1 PUSH2 0x20 PUSH1 0x0 CODECOPY PUSH1 0x0 RETURN INVALID PUSH1 0x80 PUSH1 0x40 MSTORE CALLVALUE DUP1 ISZERO PUSH2 0x10 JUMPI PUSH1 0x0 DUP1 REVERT JUMPDEST POP PUSH1 0x4 CALLDATASIZE LT PUSH2 0x41 JUMPI PUSH1 0x0 CALLDATALOAD PUSH1 0xE0 SHR DUP1 PUSH4 0x6C9958E0 EQ PUSH2 0x46 JUMPI DUP1 PUSH4 0xD3729FF6 EQ PUSH2 0x79 JUMPI DUP1 PUSH4 0xE75BCF86 EQ PUSH2 0xAC JUMPI JUMPDEST PUSH1 0x0 DUP1 REVERT JUMPDEST PUSH2 0x60 PUSH1 0x4 DUP1 CALLDATASIZE SUB DUP2 ADD SWAP1 PUSH2 0x5B SWAP2 SWAP1 PUSH2 0x542 JUMP JUMPDEST PUSH2 0xC8 JUMP JUMPDEST PUSH1 0x40 MLOAD PUSH2 0x70 SWAP5 SWAP4 SWAP3 SWAP2 SWAP1 PUSH2 0x5C6 JUMP JUMPDEST PUSH1 0x40 MLOAD DUP1 SWAP2 SUB SWAP1 RETURN JUMPDEST PUSH2 0x93 PUSH1 0x4 DUP1 CALLDATASIZE SUB DUP2 ADD SWAP1 PUSH2 0x8E SWAP2 SWAP1 PUSH2 0x542 JUMP JUMPDEST PUSH2 0x1F8 JUMP JUMPDEST PUSH1 0x40 MLOAD PUSH2 0xA3 SWAP5 SWAP4 SWAP3 SWAP2 SWAP1 PUSH2 0x612 JUMP JUMPDEST PUSH1 0x40 MLOAD DUP1 SWAP2 SUB SWAP1 RETURN JUMPDEST PUSH2 0xC6 PUSH1 0x4 DUP1 CALLDATASIZE SUB DUP2 ADD SWAP1 PUSH2 0xC1 SWAP2 SWAP1 PUSH2 0x4BF JUMP JUMPDEST PUSH2 0x2D0 JUMP JUMPDEST STOP JUMPDEST PUSH1 0x60 PUSH1 0x0 DUP1 PUSH1 0x0 DUP1 PUSH1 0x0 DUP7 DUP2 SLOAD DUP2 LT PUSH2 0xE4 JUMPI PUSH2 0xE3 PUSH2 0x7BE JUMP JUMPDEST JUMPDEST SWAP1 PUSH1 0x0 MSTORE PUSH1 0x20 PUSH1 0x0 KECCAK256 SWAP1 PUSH1 0x4 MUL ADD PUSH1 0x40 MLOAD DUP1 PUSH1 0x80 ADD PUSH1 0x40 MSTORE SWAP1 DUP2 PUSH1 0x0 DUP3 ADD DUP1 SLOAD PUSH2 0x10D SWAP1 PUSH2 0x72C JUMP JUMPDEST DUP1 PUSH1 0x1F ADD PUSH1 0x20 DUP1 SWAP2 DIV MUL PUSH1 0x20 ADD PUSH1 0x40 MLOAD SWAP1 DUP2 ADD PUSH1 0x40 MSTORE DUP1 SWAP3 SWAP2 SWAP1 DUP2 DUP2 MSTORE PUSH1 0x20 ADD DUP3 DUP1 SLOAD PUSH2 0x139 SWAP1 PUSH2 0x72C JUMP JUMPDEST DUP1 ISZERO PUSH2 0x186 JUMPI DUP1 PUSH1 0x1F LT PUSH2 0x15B JUMPI PUSH2 0x100 DUP1 DUP4 SLOAD DIV MUL DUP4 MSTORE SWAP2 PUSH1 0x20 ADD SWAP2 PUSH2 0x186 JUMP JUMPDEST DUP3 ADD SWAP2 SWAP1 PUSH1 0x0 MSTORE PUSH1 0x20 PUSH1 0x0 KECCAK256 SWAP1 JUMPDEST DUP2 SLOAD DUP2 MSTORE SWAP1 PUSH1 0x1 ADD SWAP1 PUSH1 0x20 ADD DUP1 DUP4 GT PUSH2 0x169 JUMPI DUP3 SWAP1 SUB PUSH1 0x1F AND DUP3 ADD SWAP2 JUMPDEST POP POP POP POP POP DUP2 MSTORE PUSH1 0x20 ADD PUSH1 0x1 DUP3 ADD PUSH1 0x0 SWAP1 SLOAD SWAP1 PUSH2 0x100 EXP SWAP1 DIV PUSH4 0xFFFFFFFF AND PUSH4 0xFFFFFFFF AND PUSH4 0xFFFFFFFF AND DUP2 MSTORE PUSH1 0x20 ADD PUSH1 0x2 DUP3 ADD SLOAD DUP2 MSTORE PUSH1 0x20 ADD PUSH1 0x3 DUP3 ADD SLOAD DUP2 MSTORE POP POP SWAP1 POP DUP1 PUSH1 0x0 ADD MLOAD DUP2 PUSH1 0x20 ADD MLOAD DUP3 PUSH1 0x40 ADD MLOAD DUP4 PUSH1 0x60 ADD MLOAD DUP3 PUSH4 0xFFFFFFFF AND SWAP3 POP SWAP5 POP SWAP5 POP SWAP5 POP SWAP5 POP POP SWAP2 SWAP4 POP SWAP2 SWAP4 JUMP JUMPDEST PUSH1 0x0 DUP2 DUP2 SLOAD DUP2 LT PUSH2 0x208 JUMPI PUSH1 0x0 DUP1 REVERT JUMPDEST SWAP1 PUSH1 0x0 MSTORE PUSH1 0x20 PUSH1 0x0 KECCAK256 SWAP1 PUSH1 0x4 MUL ADD PUSH1 0x0 SWAP2 POP SWAP1 POP DUP1 PUSH1 0x0 ADD DUP1 SLOAD PUSH2 0x22B SWAP1 PUSH2 0x72C JUMP JUMPDEST DUP1 PUSH1 0x1F ADD PUSH1 0x20 DUP1 SWAP2 DIV MUL PUSH1 0x20 ADD PUSH1 0x40 MLOAD SWAP1 DUP2 ADD PUSH1 0x40 MSTORE DUP1 SWAP3 SWAP2 SWAP1 DUP2 DUP2 MSTORE PUSH1 0x20 ADD DUP3 DUP1 SLOAD PUSH2 0x257 SWAP1 PUSH2 0x72C JUMP JUMPDEST DUP1 ISZERO PUSH2 0x2A4 JUMPI DUP1 PUSH1 0x1F LT PUSH2 0x279 JUMPI PUSH2 0x100 DUP1 DUP4 SLOAD DIV MUL DUP4 MSTORE SWAP2 PUSH1 0x20 ADD SWAP2 PUSH2 0x2A4 JUMP JUMPDEST DUP3 ADD SWAP2 SWAP1 PUSH1 0x0 MSTORE PUSH1 0x20 PUSH1 0x0 KECCAK256 SWAP1 JUMPDEST DUP2 SLOAD DUP2 MSTORE SWAP1 PUSH1 0x1 ADD SWAP1 PUSH1 0x20 ADD DUP1 DUP4 GT PUSH2 0x287 JUMPI DUP3 SWAP1 SUB PUSH1 0x1F AND DUP3 ADD SWAP2 JUMPDEST POP POP POP POP POP SWAP1 DUP1 PUSH1 0x1 ADD PUSH1 0x0 SWAP1 SLOAD SWAP1 PUSH2 0x100 EXP SWAP1 DIV PUSH4 0xFFFFFFFF AND SWAP1 DUP1 PUSH1 0x2 ADD SLOAD SWAP1 DUP1 PUSH1 0x3 ADD SLOAD SWAP1 POP DUP5 JUMP JUMPDEST PUSH1 0x0 PUSH1 0x40 MLOAD DUP1 PUSH1 0x80 ADD PUSH1 0x40 MSTORE DUP1 DUP7 DUP2 MSTORE PUSH1 0x20 ADD DUP6 PUSH4 0xFFFFFFFF AND DUP2 MSTORE PUSH1 0x20 ADD DUP5 DUP2 MSTORE PUSH1 0x20 ADD DUP4 DUP2 MSTORE POP SWAP1 DUP1 PUSH1 0x1 DUP2 SLOAD ADD DUP1 DUP3 SSTORE DUP1 SWAP2 POP POP PUSH1 0x1 SWAP1 SUB SWAP1 PUSH1 0x0 MSTORE PUSH1 0x20 PUSH1 0x0 KECCAK256 SWAP1 PUSH1 0x4 MUL ADD PUSH1 0x0 SWAP1 SWAP2 SWAP1 SWAP2 SWAP1 SWAP2 POP PUSH1 0x0 DUP3 ADD MLOAD DUP2 PUSH1 0x0 ADD SWAP1 DUP1 MLOAD SWAP1 PUSH1 0x20 ADD SWAP1 PUSH2 0x33E SWAP3 SWAP2 SWAP1 PUSH2 0x382 JUMP JUMPDEST POP PUSH1 0x20 DUP3 ADD MLOAD DUP2 PUSH1 0x1 ADD PUSH1 0x0 PUSH2 0x100 EXP DUP2 SLOAD DUP2 PUSH4 0xFFFFFFFF MUL NOT AND SWAP1 DUP4 PUSH4 0xFFFFFFFF AND MUL OR SWAP1 SSTORE POP PUSH1 0x40 DUP3 ADD MLOAD DUP2 PUSH1 0x2 ADD SSTORE PUSH1 0x60 DUP3 ADD MLOAD DUP2 PUSH1 0x3 ADD SSTORE POP POP POP POP POP POP JUMP JUMPDEST DUP3 DUP1 SLOAD PUSH2 0x38E SWAP1 PUSH2 0x72C JUMP JUMPDEST SWAP1 PUSH1 0x0 MSTORE PUSH1 0x20 PUSH1 0x0 KECCAK256 SWAP1 PUSH1 0x1F ADD PUSH1 0x20 SWAP1 DIV DUP2 ADD SWAP3 DUP3 PUSH2 0x3B0 JUMPI PUSH1 0x0 DUP6 SSTORE PUSH2 0x3F7 JUMP JUMPDEST DUP3 PUSH1 0x1F LT PUSH2 0x3C9 JUMPI DUP1 MLOAD PUSH1 0xFF NOT AND DUP4 DUP1 ADD OR DUP6 SSTORE PUSH2 0x3F7 JUMP JUMPDEST DUP3 DUP1 ADD PUSH1 0x1 ADD DUP6 SSTORE DUP3 ISZERO PUSH2 0x3F7 JUMPI SWAP2 DUP3 ADD JUMPDEST DUP3 DUP2 GT ISZERO PUSH2 0x3F6 JUMPI DUP3 MLOAD DUP3 SSTORE SWAP2 PUSH1 0x20 ADD SWAP2 SWAP1 PUSH1 0x1 ADD SWAP1 PUSH2 0x3DB JUMP JUMPDEST JUMPDEST POP SWAP1 POP PUSH2 0x404 SWAP2 SWAP1 PUSH2 0x408 JUMP JUMPDEST POP SWAP1 JUMP JUMPDEST JUMPDEST DUP1 DUP3 GT ISZERO PUSH2 0x421 JUMPI PUSH1 0x0 DUP2 PUSH1 0x0 SWAP1 SSTORE POP PUSH1 0x1 ADD PUSH2 0x409 JUMP JUMPDEST POP SWAP1 JUMP JUMPDEST PUSH1 0x0 PUSH2 0x438 PUSH2 0x433 DUP5 PUSH2 0x683 JUMP JUMPDEST PUSH2 0x65E JUMP JUMPDEST SWAP1 POP DUP3 DUP2 MSTORE PUSH1 0x20 DUP2 ADD DUP5 DUP5 DUP5 ADD GT ISZERO PUSH2 0x454 JUMPI PUSH2 0x453 PUSH2 0x821 JUMP JUMPDEST JUMPDEST PUSH2 0x45F DUP5 DUP3 DUP6 PUSH2 0x6EA JUMP JUMPDEST POP SWAP4 SWAP3 POP POP POP JUMP JUMPDEST PUSH1 0x0 DUP3 PUSH1 0x1F DUP4 ADD SLT PUSH2 0x47C JUMPI PUSH2 0x47B PUSH2 0x81C JUMP JUMPDEST JUMPDEST DUP2 CALLDATALOAD PUSH2 0x48C DUP5 DUP3 PUSH1 0x20 DUP7 ADD PUSH2 0x425 JUMP JUMPDEST SWAP2 POP POP SWAP3 SWAP2 POP POP JUMP JUMPDEST PUSH1 0x0 DUP2 CALLDATALOAD SWAP1 POP PUSH2 0x4A4 DUP2 PUSH2 0x841 JUMP JUMPDEST SWAP3 SWAP2 POP POP JUMP JUMPDEST PUSH1 0x0 DUP2 CALLDATALOAD SWAP1 POP PUSH2 0x4B9 DUP2 PUSH2 0x858 JUMP JUMPDEST SWAP3 SWAP2 POP POP JUMP JUMPDEST PUSH1 0x0 DUP1 PUSH1 0x0 DUP1 PUSH1 0x80 DUP6 DUP8 SUB SLT ISZERO PUSH2 0x4D9 JUMPI PUSH2 0x4D8 PUSH2 0x82B JUMP JUMPDEST JUMPDEST PUSH1 0x0 DUP6 ADD CALLDATALOAD PUSH8 0xFFFFFFFFFFFFFFFF DUP2 GT ISZERO PUSH2 0x4F7 JUMPI PUSH2 0x4F6 PUSH2 0x826 JUMP JUMPDEST JUMPDEST PUSH2 0x503 DUP8 DUP3 DUP9 ADD PUSH2 0x467 JUMP JUMPDEST SWAP5 POP POP PUSH1 0x20 PUSH2 0x514 DUP8 DUP3 DUP9 ADD PUSH2 0x4AA JUMP JUMPDEST SWAP4 POP POP PUSH1 0x40 PUSH2 0x525 DUP8 DUP3 DUP9 ADD PUSH2 0x495 JUMP JUMPDEST SWAP3 POP POP PUSH1 0x60 PUSH2 0x536 DUP8 DUP3 DUP9 ADD PUSH2 0x495 JUMP JUMPDEST SWAP2 POP POP SWAP3 SWAP6 SWAP2 SWAP5 POP SWAP3 POP JUMP JUMPDEST PUSH1 0x0 PUSH1 0x20 DUP3 DUP5 SUB SLT ISZERO PUSH2 0x558 JUMPI PUSH2 0x557 PUSH2 0x82B JUMP JUMPDEST JUMPDEST PUSH1 0x0 PUSH2 0x566 DUP5 DUP3 DUP6 ADD PUSH2 0x495 JUMP JUMPDEST SWAP2 POP POP SWAP3 SWAP2 POP POP JUMP JUMPDEST PUSH1 0x0 PUSH2 0x57A DUP3 PUSH2 0x6B4 JUMP JUMPDEST PUSH2 0x584 DUP2 DUP6 PUSH2 0x6BF JUMP JUMPDEST SWAP4 POP PUSH2 0x594 DUP2 DUP6 PUSH1 0x20 DUP7 ADD PUSH2 0x6F9 JUMP JUMPDEST PUSH2 0x59D DUP2 PUSH2 0x830 JUMP JUMPDEST DUP5 ADD SWAP2 POP POP SWAP3 SWAP2 POP POP JUMP JUMPDEST PUSH2 0x5B1 DUP2 PUSH2 0x6D0 JUMP JUMPDEST DUP3 MSTORE POP POP JUMP JUMPDEST PUSH2 0x5C0 DUP2 PUSH2 0x6DA JUMP JUMPDEST DUP3 MSTORE POP POP JUMP JUMPDEST PUSH1 0x0 PUSH1 0x80 DUP3 ADD SWAP1 POP DUP2 DUP2 SUB PUSH1 0x0 DUP4 ADD MSTORE PUSH2 0x5E0 DUP2 DUP8 PUSH2 0x56F JUMP JUMPDEST SWAP1 POP PUSH2 0x5EF PUSH1 0x20 DUP4 ADD DUP7 PUSH2 0x5A8 JUMP JUMPDEST PUSH2 0x5FC PUSH1 0x40 DUP4 ADD DUP6 PUSH2 0x5A8 JUMP JUMPDEST PUSH2 0x609 PUSH1 0x60 DUP4 ADD DUP5 PUSH2 0x5A8 JUMP JUMPDEST SWAP6 SWAP5 POP POP POP POP POP JUMP JUMPDEST PUSH1 0x0 PUSH1 0x80 DUP3 ADD SWAP1 POP DUP2 DUP2 SUB PUSH1 0x0 DUP4 ADD MSTORE PUSH2 0x62C DUP2 DUP8 PUSH2 0x56F JUMP JUMPDEST SWAP1 POP PUSH2 0x63B PUSH1 0x20 DUP4 ADD DUP7 PUSH2 0x5B7 JUMP JUMPDEST PUSH2 0x648 PUSH1 0x40 DUP4 ADD DUP6 PUSH2 0x5A8 JUMP JUMPDEST PUSH2 0x655 PUSH1 0x60 DUP4 ADD DUP5 PUSH2 0x5A8 JUMP JUMPDEST SWAP6 SWAP5 POP POP POP POP POP JUMP JUMPDEST PUSH1 0x0 PUSH2 0x668 PUSH2 0x679 JUMP JUMPDEST SWAP1 POP PUSH2 0x674 DUP3 DUP3 PUSH2 0x75E JUMP JUMPDEST SWAP2 SWAP1 POP JUMP JUMPDEST PUSH1 0x0 PUSH1 0x40 MLOAD SWAP1 POP SWAP1 JUMP JUMPDEST PUSH1 0x0 PUSH8 0xFFFFFFFFFFFFFFFF DUP3 GT ISZERO PUSH2 0x69E JUMPI PUSH2 0x69D PUSH2 0x7ED JUMP JUMPDEST JUMPDEST PUSH2 0x6A7 DUP3 PUSH2 0x830 JUMP JUMPDEST SWAP1 POP PUSH1 0x20 DUP2 ADD SWAP1 POP SWAP2 SWAP1 POP JUMP JUMPDEST PUSH1 0x0 DUP2 MLOAD SWAP1 POP SWAP2 SWAP1 POP JUMP JUMPDEST PUSH1 0x0 DUP3 DUP3 MSTORE PUSH1 0x20 DUP3 ADD SWAP1 POP SWAP3 SWAP2 POP POP JUMP JUMPDEST PUSH1 0x0 DUP2 SWAP1 POP SWAP2 SWAP1 POP JUMP JUMPDEST PUSH1 0x0 PUSH4 0xFFFFFFFF DUP3 AND SWAP1 POP SWAP2 SWAP1 POP JUMP JUMPDEST DUP3 DUP2 DUP4 CALLDATACOPY PUSH1 0x0 DUP4 DUP4 ADD MSTORE POP POP POP JUMP JUMPDEST PUSH1 0x0 JUMPDEST DUP4 DUP2 LT ISZERO PUSH2 0x717 JUMPI DUP1 DUP3 ADD MLOAD DUP2 DUP5 ADD MSTORE PUSH1 0x20 DUP2 ADD SWAP1 POP PUSH2 0x6FC JUMP JUMPDEST DUP4 DUP2 GT ISZERO PUSH2 0x726 JUMPI PUSH1 0x0 DUP5 DUP5 ADD MSTORE JUMPDEST POP POP POP POP JUMP JUMPDEST PUSH1 0x0 PUSH1 0x2 DUP3 DIV SWAP1 POP PUSH1 0x1 DUP3 AND DUP1 PUSH2 0x744 JUMPI PUSH1 0x7F DUP3 AND SWAP2 POP JUMPDEST PUSH1 0x20 DUP3 LT DUP2 EQ ISZERO PUSH2 0x758 JUMPI PUSH2 0x757 PUSH2 0x78F JUMP JUMPDEST JUMPDEST POP SWAP2 SWAP1 POP JUMP JUMPDEST PUSH2 0x767 DUP3 PUSH2 0x830 JUMP JUMPDEST DUP2 ADD DUP2 DUP2 LT PUSH8 0xFFFFFFFFFFFFFFFF DUP3 GT OR ISZERO PUSH2 0x786 JUMPI PUSH2 0x785 PUSH2 0x7ED JUMP JUMPDEST JUMPDEST DUP1 PUSH1 0x40 MSTORE POP POP POP JUMP JUMPDEST PUSH32 0x4E487B7100000000000000000000000000000000000000000000000000000000 PUSH1 0x0 MSTORE PUSH1 0x22 PUSH1 0x4 MSTORE PUSH1 0x24 PUSH1 0x0 REVERT JUMPDEST PUSH32 0x4E487B7100000000000000000000000000000000000000000000000000000000 PUSH1 0x0 MSTORE PUSH1 0x32 PUSH1 0x4 MSTORE PUSH1 0x24 PUSH1 0x0 REVERT JUMPDEST PUSH32 0x4E487B7100000000000000000000000000000000000000000000000000000000 PUSH1 0x0 MSTORE PUSH1 0x41 PUSH1 0x4 MSTORE PUSH1 0x24 PUSH1 0x0 REVERT JUMPDEST PUSH1 0x0 DUP1 REVERT JUMPDEST PUSH1 0x0 DUP1 REVERT JUMPDEST PUSH1 0x0 DUP1 REVERT JUMPDEST PUSH1 0x0 DUP1 REVERT JUMPDEST PUSH1 0x0 PUSH1 0x1F NOT PUSH1 0x1F DUP4 ADD AND SWAP1 POP SWAP2 SWAP1 POP JUMP JUMPDEST PUSH2 0x84A DUP2 PUSH2 0x6D0 JUMP JUMPDEST DUP2 EQ PUSH2 0x855 JUMPI PUSH1 0x0 DUP1 REVERT JUMPDEST POP JUMP JUMPDEST PUSH2 0x861 DUP2 PUSH2 0x6DA JUMP JUMPDEST DUP2 EQ PUSH2 0x86C JUMPI PUSH1 0x0 DUP1 REVERT JUMPDEST POP JUMP INVALID LOG2 PUSH5 0x6970667358 0x22 SLT KECCAK256 MSTORE DUP15 0xAD BALANCE CALLDATACOPY SWAP14 DUP1 0xD1 SWAP1 DUP1 0xB1 SWAP7 0xDF 0xE6 0x1F 0xDC 0xED NOT RETURNDATASIZE 0xB5 PUSH2 0x4DA8 ORIGIN 0x4C PUSH18 0x5E2F3D5B1C3664736F6C6343000807003300 "
				},
				"gasEstimates": {
					"creation": {
						"codeDepositCost": "442600",
						"executionCost": "480",
						"totalCost": "443080"
					},
					"external": {
						"addtolist(string,uint32,uint256,uint256)": "infinite",
						"getlist(uint256)": "infinite",
						"todoarr(uint256)": "infinite"
					}
				},
				"methodIdentifiers": {
					"addtolist(string,uint32,uint256,uint256)": "e75bcf86",
					"getlist(uint256)": "6c9958e0",
					"todoarr(uint256)": "d3729ff6"
				}
			},
			"storageLayout": {
				"storage": [
					{
						"astId": 14,
						"contract": "opo.sol:TodoList",
						"label": "todoarr",
						"offset": 0,
						"slot": "0",
						"type": "t_array(t_struct(Todo)10_storage)dyn_storage"
					}
				],
				"types": {
					"t_array(t_struct(Todo)10_storage)dyn_storage": {
						"base": "t_struct(Todo)10_storage",
						"encoding": "dynamic_array",
						"label": "struct TodoList.Todo[]",
						"numberOfBytes": "32"
					},
					"t_string_storage": {
						"encoding": "bytes",
						"label": "string",
						"numberOfBytes": "32"
					},
					"t_struct(Todo)10_storage": {
						"encoding": "inplace",
						"label": "struct TodoList.Todo",
						"members": [
							{
								"astId": 3,
								"contract": "opo.sol:TodoList",
								"label": "action",
								"offset": 0,
								"slot": "0",
								"type": "t_string_storage"
							},
							{
								"astId": 5,
								"contract": "opo.sol:TodoList",
								"label": "day",
								"offset": 0,
								"slot": "1",
								"type": "t_uint32"
							},
							{
								"astId": 7,
								"contract": "opo.sol:TodoList",
								"label": "month",
								"offset": 0,
								"slot": "2",
								"type": "t_uint256"
							},
							{
								"astId": 9,
								"contract": "opo.sol:TodoList",
								"label": "year",
								"offset": 0,
								"slot": "3",
								"type": "t_uint256"
							}
						],
						"numberOfBytes": "128"
					},
					"t_uint256": {
						"encoding": "inplace",
						"label": "uint256",
						"numberOfBytes": "32"
					},
					"t_uint32": {
						"encoding": "inplace",
						"label": "uint32",
						"numberOfBytes": "4"
					}
				}
			},
			"userdoc": {
				"kind": "user",
				"methods": {},
				"version": 1
			}
		}
	}
}