{
	"Todo.sol": {
		"TodoList": {
			"abi": [
				{
					"inputs": [
						{
							"internalType": "string",
							"name": "_action",
							"type": "string"
						},
						{
							"internalType": "uint256",
							"name": "_day",
							"type": "uint256"
						},
						{
							"internalType": "uint256",
							"name": "_month",
							"type": "uint256"
						},
						{
							"internalType": "uint256",
							"name": "_year",
							"type": "uint256"
						}
					],
					"name": "addtolist",
					"outputs": [],
					"stateMutability": "nonpayable",
					"type": "function"
				},
				{
					"inputs": [
						{
							"internalType": "uint256",
							"name": "index",
							"type": "uint256"
						},
						{
							"internalType": "uint256",
							"name": "_day",
							"type": "uint256"
						},
						{
							"internalType": "uint256",
							"name": "_month",
							"type": "uint256"
						},
						{
							"internalType": "uint256",
							"name": "_year",
							"type": "uint256"
						}
					],
					"name": "editDay",
					"outputs": [],
					"stateMutability": "nonpayable",
					"type": "function"
				},
				{
					"inputs": [
						{
							"internalType": "uint256",
							"name": "index",
							"type": "uint256"
						},
						{
							"internalType": "uint256",
							"name": "_month",
							"type": "uint256"
						},
						{
							"internalType": "uint256",
							"name": "_year",
							"type": "uint256"
						}
					],
					"name": "editMonth",
					"outputs": [],
					"stateMutability": "nonpayable",
					"type": "function"
				},
				{
					"inputs": [
						{
							"internalType": "uint256",
							"name": "index",
							"type": "uint256"
						},
						{
							"internalType": "uint256",
							"name": "_month",
							"type": "uint256"
						},
						{
							"internalType": "uint256",
							"name": "_year",
							"type": "uint256"
						}
					],
					"name": "editYea",
					"outputs": [],
					"stateMutability": "nonpayable",
					"type": "function"
				},
				{
					"inputs": [
						{
							"internalType": "uint256",
							"name": "index",
							"type": "uint256"
						},
						{
							"internalType": "string",
							"name": "_action",
							"type": "string"
						}
					],
					"name": "editaction",
					"outputs": [],
					"stateMutability": "nonpayable",
					"type": "function"
				},
				{
					"inputs": [
						{
							"internalType": "uint256",
							"name": "_index",
							"type": "uint256"
						}
					],
					"name": "getfromlist",
					"outputs": [
						{
							"internalType": "string",
							"name": "",
							"type": "string"
						},
						{
							"internalType": "uint256",
							"name": "",
							"type": "uint256"
						},
						{
							"internalType": "uint256",
							"name": "",
							"type": "uint256"
						},
						{
							"internalType": "uint256",
							"name": "",
							"type": "uint256"
						}
					],
					"stateMutability": "view",
					"type": "function"
				},
				{
					"inputs": [
						{
							"internalType": "uint256",
							"name": "index",
							"type": "uint256"
						}
					],
					"name": "remfromtodo",
					"outputs": [],
					"stateMutability": "nonpayable",
					"type": "function"
				}
			],
			"devdoc": {
				"kind": "dev",
				"methods": {},
				"version": 1
			},
			"evm": {
				"assembly": "    /* \"Todo.sol\":56:1397  contract TodoList{\r... */\n  mstore(0x40, 0x80)\n  callvalue\n  dup1\n  iszero\n  tag_1\n  jumpi\n  0x00\n  dup1\n  revert\ntag_1:\n  pop\n  dataSize(sub_0)\n  dup1\n  dataOffset(sub_0)\n  0x00\n  codecopy\n  0x00\n  return\nstop\n\nsub_0: assembly {\n        /* \"Todo.sol\":56:1397  contract TodoList{\r... */\n      mstore(0x40, 0x80)\n      callvalue\n      dup1\n      iszero\n      tag_1\n      jumpi\n      0x00\n      dup1\n      revert\n    tag_1:\n      pop\n      jumpi(tag_2, lt(calldatasize, 0x04))\n      shr(0xe0, calldataload(0x00))\n      dup1\n      0x7aadbdd3\n      gt\n      tag_10\n      jumpi\n      dup1\n      0x7aadbdd3\n      eq\n      tag_6\n      jumpi\n      dup1\n      0x82659eec\n      eq\n      tag_7\n      jumpi\n      dup1\n      0x9351b078\n      eq\n      tag_8\n      jumpi\n      dup1\n      0xe1b7edff\n      eq\n      tag_9\n      jumpi\n      jump(tag_2)\n    tag_10:\n      dup1\n      0x12cbb972\n      eq\n      tag_3\n      jumpi\n      dup1\n      0x3659e4d3\n      eq\n      tag_4\n      jumpi\n      dup1\n      0x56b08f10\n      eq\n      tag_5\n      jumpi\n    tag_2:\n      0x00\n      dup1\n      revert\n        /* \"Todo.sol\":700:903  function editaction(uint index,string memory _action) external{\r... */\n    tag_3:\n      tag_11\n      0x04\n      dup1\n      calldatasize\n      sub\n      dup2\n      add\n      swap1\n      tag_12\n      swap2\n      swap1\n      tag_13\n      jump\t// in\n    tag_12:\n      tag_14\n      jump\t// in\n    tag_11:\n      stop\n        /* \"Todo.sol\":1241:1390  function editYea(uint index,uint _month,uint _year) external{\r... */\n    tag_4:\n      tag_15\n      0x04\n      dup1\n      calldatasize\n      sub\n      dup2\n      add\n      swap1\n      tag_16\n      swap2\n      swap1\n      tag_17\n      jump\t// in\n    tag_16:\n      tag_18\n      jump\t// in\n    tag_15:\n      stop\n        /* \"Todo.sol\":905:1086  function editDay(uint index,uint _day,uint _month,uint _year) external{\r... */\n    tag_5:\n      tag_19\n      0x04\n      dup1\n      calldatasize\n      sub\n      dup2\n      add\n      swap1\n      tag_20\n      swap2\n      swap1\n      tag_21\n      jump\t// in\n    tag_20:\n      tag_22\n      jump\t// in\n    tag_19:\n      stop\n        /* \"Todo.sol\":408:586  function getfromlist(uint _index) public view returns(string memory,uint,uint,uint){\r... */\n    tag_6:\n      tag_23\n      0x04\n      dup1\n      calldatasize\n      sub\n      dup2\n      add\n      swap1\n      tag_24\n      swap2\n      swap1\n      tag_25\n      jump\t// in\n    tag_24:\n      tag_26\n      jump\t// in\n    tag_23:\n      mload(0x40)\n      tag_27\n      swap5\n      swap4\n      swap3\n      swap2\n      swap1\n      tag_28\n      jump\t// in\n    tag_27:\n      mload(0x40)\n      dup1\n      swap2\n      sub\n      swap1\n      return\n        /* \"Todo.sol\":1088:1239  function editMonth(uint index,uint _month,uint _year) external{\r... */\n    tag_7:\n      tag_29\n      0x04\n      dup1\n      calldatasize\n      sub\n      dup2\n      add\n      swap1\n      tag_30\n      swap2\n      swap1\n      tag_17\n      jump\t// in\n    tag_30:\n      tag_31\n      jump\t// in\n    tag_29:\n      stop\n        /* \"Todo.sol\":590:698  function remfromtodo(uint index) external {\r... */\n    tag_8:\n      tag_32\n      0x04\n      dup1\n      calldatasize\n      sub\n      dup2\n      add\n      swap1\n      tag_33\n      swap2\n      swap1\n      tag_25\n      jump\t// in\n    tag_33:\n      tag_34\n      jump\t// in\n    tag_32:\n      stop\n        /* \"Todo.sol\":215:406  function addtolist(string memory _action,uint _day,uint _month,uint _year) external {\r... */\n    tag_9:\n      tag_35\n      0x04\n      dup1\n      calldatasize\n      sub\n      dup2\n      add\n      swap1\n      tag_36\n      swap2\n      swap1\n      tag_37\n      jump\t// in\n    tag_36:\n      tag_38\n      jump\t// in\n    tag_35:\n      stop\n        /* \"Todo.sol\":700:903  function editaction(uint index,string memory _action) external{\r... */\n    tag_14:\n        /* \"Todo.sol\":765:783  Todo storage todos */\n      0x00\n        /* \"Todo.sol\":786:793  todoarr */\n      dup1\n        /* \"Todo.sol\":794:799  index */\n      dup4\n        /* \"Todo.sol\":786:800  todoarr[index] */\n      dup2\n      sload\n      dup2\n      lt\n      tag_40\n      jumpi\n      tag_41\n      tag_42\n      jump\t// in\n    tag_41:\n    tag_40:\n      swap1\n      0x00\n      mstore\n      keccak256(0x00, 0x20)\n      swap1\n      0x04\n      mul\n      add\n        /* \"Todo.sol\":765:800  Todo storage todos = todoarr[index] */\n      swap1\n      pop\n        /* \"Todo.sol\":818:825  _action */\n      dup2\n        /* \"Todo.sol\":803:808  todos */\n      dup2\n        /* \"Todo.sol\":803:815  todos.action */\n      0x00\n      add\n        /* \"Todo.sol\":803:825  todos.action = _action */\n      swap1\n      dup1\n      mload\n      swap1\n      0x20\n      add\n      swap1\n      tag_44\n      swap3\n      swap2\n      swap1\n      tag_45\n      jump\t// in\n    tag_44:\n      pop\n        /* \"Todo.sol\":762:903  {\r... */\n      pop\n        /* \"Todo.sol\":700:903  function editaction(uint index,string memory _action) external{\r... */\n      pop\n      pop\n      jump\t// out\n        /* \"Todo.sol\":1241:1390  function editYea(uint index,uint _month,uint _year) external{\r... */\n    tag_18:\n        /* \"Todo.sol\":1304:1322  Todo storage todos */\n      0x00\n        /* \"Todo.sol\":1325:1332  todoarr */\n      dup1\n        /* \"Todo.sol\":1333:1338  index */\n      dup5\n        /* \"Todo.sol\":1325:1339  todoarr[index] */\n      dup2\n      sload\n      dup2\n      lt\n      tag_47\n      jumpi\n      tag_48\n      tag_42\n      jump\t// in\n    tag_48:\n    tag_47:\n      swap1\n      0x00\n      mstore\n      keccak256(0x00, 0x20)\n      swap1\n      0x04\n      mul\n      add\n        /* \"Todo.sol\":1304:1339  Todo storage todos = todoarr[index] */\n      swap1\n      pop\n        /* \"Todo.sol\":1356:1362  _month */\n      dup3\n        /* \"Todo.sol\":1342:1347  todos */\n      dup2\n        /* \"Todo.sol\":1342:1353  todos.month */\n      0x02\n      add\n        /* \"Todo.sol\":1342:1362  todos.month = _month */\n      dup2\n      swap1\n      sstore\n      pop\n        /* \"Todo.sol\":1301:1390  {\r... */\n      pop\n        /* \"Todo.sol\":1241:1390  function editYea(uint index,uint _month,uint _year) external{\r... */\n      pop\n      pop\n      pop\n      jump\t// out\n        /* \"Todo.sol\":905:1086  function editDay(uint index,uint _day,uint _month,uint _year) external{\r... */\n    tag_22:\n        /* \"Todo.sol\":978:996  Todo storage todos */\n      0x00\n        /* \"Todo.sol\":999:1006  todoarr */\n      dup1\n        /* \"Todo.sol\":1007:1012  index */\n      dup6\n        /* \"Todo.sol\":999:1013  todoarr[index] */\n      dup2\n      sload\n      dup2\n      lt\n      tag_51\n      jumpi\n      tag_52\n      tag_42\n      jump\t// in\n    tag_52:\n    tag_51:\n      swap1\n      0x00\n      mstore\n      keccak256(0x00, 0x20)\n      swap1\n      0x04\n      mul\n      add\n        /* \"Todo.sol\":978:1013  Todo storage todos = todoarr[index] */\n      swap1\n      pop\n        /* \"Todo.sol\":1028:1032  _day */\n      dup4\n        /* \"Todo.sol\":1016:1021  todos */\n      dup2\n        /* \"Todo.sol\":1016:1025  todos.day */\n      0x01\n      add\n        /* \"Todo.sol\":1016:1032  todos.day = _day */\n      dup2\n      swap1\n      sstore\n      pop\n        /* \"Todo.sol\":975:1086  {\r... */\n      pop\n        /* \"Todo.sol\":905:1086  function editDay(uint index,uint _day,uint _month,uint _year) external{\r... */\n      pop\n      pop\n      pop\n      pop\n      jump\t// out\n        /* \"Todo.sol\":408:586  function getfromlist(uint _index) public view returns(string memory,uint,uint,uint){\r... */\n    tag_26:\n        /* \"Todo.sol\":462:475  string memory */\n      0x60\n        /* \"Todo.sol\":476:480  uint */\n      0x00\n        /* \"Todo.sol\":481:485  uint */\n      dup1\n        /* \"Todo.sol\":486:490  uint */\n      0x00\n        /* \"Todo.sol\":494:510  Todo memory todo */\n      dup1\n        /* \"Todo.sol\":513:520  todoarr */\n      0x00\n        /* \"Todo.sol\":521:527  _index */\n      dup7\n        /* \"Todo.sol\":513:528  todoarr[_index] */\n      dup2\n      sload\n      dup2\n      lt\n      tag_55\n      jumpi\n      tag_56\n      tag_42\n      jump\t// in\n    tag_56:\n    tag_55:\n      swap1\n      0x00\n      mstore\n      keccak256(0x00, 0x20)\n      swap1\n      0x04\n      mul\n      add\n        /* \"Todo.sol\":494:528  Todo memory todo = todoarr[_index] */\n      mload(0x40)\n      dup1\n      0x80\n      add\n      0x40\n      mstore\n      swap1\n      dup2\n      0x00\n      dup3\n      add\n      dup1\n      sload\n      tag_58\n      swap1\n      tag_59\n      jump\t// in\n    tag_58:\n      dup1\n      0x1f\n      add\n      0x20\n      dup1\n      swap2\n      div\n      mul\n      0x20\n      add\n      mload(0x40)\n      swap1\n      dup2\n      add\n      0x40\n      mstore\n      dup1\n      swap3\n      swap2\n      swap1\n      dup2\n      dup2\n      mstore\n      0x20\n      add\n      dup3\n      dup1\n      sload\n      tag_60\n      swap1\n      tag_59\n      jump\t// in\n    tag_60:\n      dup1\n      iszero\n      tag_61\n      jumpi\n      dup1\n      0x1f\n      lt\n      tag_62\n      jumpi\n      0x0100\n      dup1\n      dup4\n      sload\n      div\n      mul\n      dup4\n      mstore\n      swap2\n      0x20\n      add\n      swap2\n      jump(tag_61)\n    tag_62:\n      dup3\n      add\n      swap2\n      swap1\n      0x00\n      mstore\n      keccak256(0x00, 0x20)\n      swap1\n    tag_63:\n      dup2\n      sload\n      dup2\n      mstore\n      swap1\n      0x01\n      add\n      swap1\n      0x20\n      add\n      dup1\n      dup4\n      gt\n      tag_63\n      jumpi\n      dup3\n      swap1\n      sub\n      0x1f\n      and\n      dup3\n      add\n      swap2\n    tag_61:\n      pop\n      pop\n      pop\n      pop\n      pop\n      dup2\n      mstore\n      0x20\n      add\n      0x01\n      dup3\n      add\n      sload\n      dup2\n      mstore\n      0x20\n      add\n      0x02\n      dup3\n      add\n      sload\n      dup2\n      mstore\n      0x20\n      add\n      0x03\n      dup3\n      add\n      sload\n      dup2\n      mstore\n      pop\n      pop\n      swap1\n      pop\n        /* \"Todo.sol\":540:544  todo */\n      dup1\n        /* \"Todo.sol\":540:551  todo.action */\n      0x00\n      add\n      mload\n        /* \"Todo.sol\":552:556  todo */\n      dup2\n        /* \"Todo.sol\":552:560  todo.day */\n      0x20\n      add\n      mload\n        /* \"Todo.sol\":561:565  todo */\n      dup3\n        /* \"Todo.sol\":561:571  todo.month */\n      0x40\n      add\n      mload\n        /* \"Todo.sol\":572:576  todo */\n      dup4\n        /* \"Todo.sol\":572:581  todo.year */\n      0x60\n      add\n      mload\n        /* \"Todo.sol\":532:582  return (todo.action,todo.day,todo.month,todo.year) */\n      swap5\n      pop\n      swap5\n      pop\n      swap5\n      pop\n      swap5\n      pop\n      pop\n        /* \"Todo.sol\":408:586  function getfromlist(uint _index) public view returns(string memory,uint,uint,uint){\r... */\n      swap2\n      swap4\n      pop\n      swap2\n      swap4\n      jump\t// out\n        /* \"Todo.sol\":1088:1239  function editMonth(uint index,uint _month,uint _year) external{\r... */\n    tag_31:\n        /* \"Todo.sol\":1153:1171  Todo storage todos */\n      0x00\n        /* \"Todo.sol\":1174:1181  todoarr */\n      dup1\n        /* \"Todo.sol\":1182:1187  index */\n      dup5\n        /* \"Todo.sol\":1174:1188  todoarr[index] */\n      dup2\n      sload\n      dup2\n      lt\n      tag_65\n      jumpi\n      tag_66\n      tag_42\n      jump\t// in\n    tag_66:\n    tag_65:\n      swap1\n      0x00\n      mstore\n      keccak256(0x00, 0x20)\n      swap1\n      0x04\n      mul\n      add\n        /* \"Todo.sol\":1153:1188  Todo storage todos = todoarr[index] */\n      swap1\n      pop\n        /* \"Todo.sol\":1205:1211  _month */\n      dup3\n        /* \"Todo.sol\":1191:1196  todos */\n      dup2\n        /* \"Todo.sol\":1191:1202  todos.month */\n      0x02\n      add\n        /* \"Todo.sol\":1191:1211  todos.month = _month */\n      dup2\n      swap1\n      sstore\n      pop\n        /* \"Todo.sol\":1150:1239  {\r... */\n      pop\n        /* \"Todo.sol\":1088:1239  function editMonth(uint index,uint _month,uint _year) external{\r... */\n      pop\n      pop\n      pop\n      jump\t// out\n        /* \"Todo.sol\":590:698  function remfromtodo(uint index) external {\r... */\n    tag_34:\n        /* \"Todo.sol\":652:659  todoarr */\n      0x00\n        /* \"Todo.sol\":676:677  1 */\n      0x01\n        /* \"Todo.sol\":660:667  todoarr */\n      0x00\n        /* \"Todo.sol\":660:674  todoarr.length */\n      dup1\n      sload\n      swap1\n      pop\n        /* \"Todo.sol\":660:677  todoarr.length -1 */\n      tag_69\n      swap2\n      swap1\n      tag_70\n      jump\t// in\n    tag_69:\n        /* \"Todo.sol\":652:678  todoarr[todoarr.length -1] */\n      dup2\n      sload\n      dup2\n      lt\n      tag_71\n      jumpi\n      tag_72\n      tag_42\n      jump\t// in\n    tag_72:\n    tag_71:\n      swap1\n      0x00\n      mstore\n      keccak256(0x00, 0x20)\n      swap1\n      0x04\n      mul\n      add\n        /* \"Todo.sol\":635:642  todoarr */\n      0x00\n        /* \"Todo.sol\":643:648  index */\n      dup3\n        /* \"Todo.sol\":635:649  todoarr[index] */\n      dup2\n      sload\n      dup2\n      lt\n      tag_74\n      jumpi\n      tag_75\n      tag_42\n      jump\t// in\n    tag_75:\n    tag_74:\n      swap1\n      0x00\n      mstore\n      keccak256(0x00, 0x20)\n      swap1\n      0x04\n      mul\n      add\n        /* \"Todo.sol\":635:678  todoarr[index] = todoarr[todoarr.length -1] */\n      0x00\n      dup3\n      add\n      dup2\n      0x00\n      add\n      swap1\n      dup1\n      sload\n      tag_77\n      swap1\n      tag_59\n      jump\t// in\n    tag_77:\n      tag_78\n      swap3\n      swap2\n      swap1\n      tag_79\n      jump\t// in\n    tag_78:\n      pop\n      0x01\n      dup3\n      add\n      sload\n      dup2\n      0x01\n      add\n      sstore\n      0x02\n      dup3\n      add\n      sload\n      dup2\n      0x02\n      add\n      sstore\n      0x03\n      dup3\n      add\n      sload\n      dup2\n      0x03\n      add\n      sstore\n      swap1\n      pop\n      pop\n        /* \"Todo.sol\":681:688  todoarr */\n      0x00\n        /* \"Todo.sol\":681:694  todoarr.pop() */\n      dup1\n      sload\n      dup1\n      tag_80\n      jumpi\n      tag_81\n      tag_82\n      jump\t// in\n    tag_81:\n    tag_80:\n      0x01\n      swap1\n      sub\n      dup2\n      dup2\n      swap1\n      0x00\n      mstore\n      keccak256(0x00, 0x20)\n      swap1\n      0x04\n      mul\n      add\n      0x00\n      dup1\n      dup3\n      add\n      0x00\n      tag_84\n      swap2\n      swap1\n      tag_85\n      jump\t// in\n    tag_84:\n      0x01\n      dup3\n      add\n      0x00\n      swap1\n      sstore\n      0x02\n      dup3\n      add\n      0x00\n      swap1\n      sstore\n      0x03\n      dup3\n      add\n      0x00\n      swap1\n      sstore\n      pop\n      pop\n      swap1\n      sstore\n        /* \"Todo.sol\":590:698  function remfromtodo(uint index) external {\r... */\n      pop\n      jump\t// out\n        /* \"Todo.sol\":215:406  function addtolist(string memory _action,uint _day,uint _month,uint _year) external {\r... */\n    tag_38:\n        /* \"Todo.sol\":302:309  todoarr */\n      0x00\n        /* \"Todo.sol\":315:401  Todo({\r... */\n      mload(0x40)\n      dup1\n      0x80\n      add\n      0x40\n      mstore\n      dup1\n        /* \"Todo.sol\":335:342  _action */\n      dup7\n        /* \"Todo.sol\":315:401  Todo({\r... */\n      dup2\n      mstore\n      0x20\n      add\n        /* \"Todo.sol\":354:358  _day */\n      dup6\n        /* \"Todo.sol\":315:401  Todo({\r... */\n      dup2\n      mstore\n      0x20\n      add\n        /* \"Todo.sol\":372:378  _month */\n      dup5\n        /* \"Todo.sol\":315:401  Todo({\r... */\n      dup2\n      mstore\n      0x20\n      add\n        /* \"Todo.sol\":392:397  _year */\n      dup4\n        /* \"Todo.sol\":315:401  Todo({\r... */\n      dup2\n      mstore\n      pop\n        /* \"Todo.sol\":302:402  todoarr.push(Todo({\r... */\n      swap1\n      dup1\n      0x01\n      dup2\n      sload\n      add\n      dup1\n      dup3\n      sstore\n      dup1\n      swap2\n      pop\n      pop\n      0x01\n      swap1\n      sub\n      swap1\n      0x00\n      mstore\n      keccak256(0x00, 0x20)\n      swap1\n      0x04\n      mul\n      add\n      0x00\n      swap1\n      swap2\n      swap1\n      swap2\n      swap1\n      swap2\n      pop\n      0x00\n      dup3\n      add\n      mload\n      dup2\n      0x00\n      add\n      swap1\n      dup1\n      mload\n      swap1\n      0x20\n      add\n      swap1\n      tag_88\n      swap3\n      swap2\n      swap1\n      tag_45\n      jump\t// in\n    tag_88:\n      pop\n      0x20\n      dup3\n      add\n      mload\n      dup2\n      0x01\n      add\n      sstore\n      0x40\n      dup3\n      add\n      mload\n      dup2\n      0x02\n      add\n      sstore\n      0x60\n      dup3\n      add\n      mload\n      dup2\n      0x03\n      add\n      sstore\n      pop\n      pop\n        /* \"Todo.sol\":215:406  function addtolist(string memory _action,uint _day,uint _month,uint _year) external {\r... */\n      pop\n      pop\n      pop\n      pop\n      jump\t// out\n    tag_45:\n      dup3\n      dup1\n      sload\n      tag_89\n      swap1\n      tag_59\n      jump\t// in\n    tag_89:\n      swap1\n      0x00\n      mstore\n      keccak256(0x00, 0x20)\n      swap1\n      0x1f\n      add\n      0x20\n      swap1\n      div\n      dup2\n      add\n      swap3\n      dup3\n      tag_91\n      jumpi\n      0x00\n      dup6\n      sstore\n      jump(tag_90)\n    tag_91:\n      dup3\n      0x1f\n      lt\n      tag_92\n      jumpi\n      dup1\n      mload\n      not(0xff)\n      and\n      dup4\n      dup1\n      add\n      or\n      dup6\n      sstore\n      jump(tag_90)\n    tag_92:\n      dup3\n      dup1\n      add\n      0x01\n      add\n      dup6\n      sstore\n      dup3\n      iszero\n      tag_90\n      jumpi\n      swap2\n      dup3\n      add\n    tag_93:\n      dup3\n      dup2\n      gt\n      iszero\n      tag_94\n      jumpi\n      dup3\n      mload\n      dup3\n      sstore\n      swap2\n      0x20\n      add\n      swap2\n      swap1\n      0x01\n      add\n      swap1\n      jump(tag_93)\n    tag_94:\n    tag_90:\n      pop\n      swap1\n      pop\n      tag_95\n      swap2\n      swap1\n      tag_96\n      jump\t// in\n    tag_95:\n      pop\n      swap1\n      jump\t// out\n    tag_79:\n      dup3\n      dup1\n      sload\n      tag_97\n      swap1\n      tag_59\n      jump\t// in\n    tag_97:\n      swap1\n      0x00\n      mstore\n      keccak256(0x00, 0x20)\n      swap1\n      0x1f\n      add\n      0x20\n      swap1\n      div\n      dup2\n      add\n      swap3\n      dup3\n      tag_99\n      jumpi\n      0x00\n      dup6\n      sstore\n      jump(tag_98)\n    tag_99:\n      dup3\n      0x1f\n      lt\n      tag_100\n      jumpi\n      dup1\n      sload\n      dup6\n      sstore\n      jump(tag_98)\n    tag_100:\n      dup3\n      dup1\n      add\n      0x01\n      add\n      dup6\n      sstore\n      dup3\n      iszero\n      tag_98\n      jumpi\n      0x00\n      mstore\n      keccak256(0x00, 0x20)\n      swap2\n      0x1f\n      add\n      0x20\n      swap1\n      div\n      dup3\n      add\n    tag_101:\n      dup3\n      dup2\n      gt\n      iszero\n      tag_102\n      jumpi\n      dup3\n      sload\n      dup3\n      sstore\n      swap2\n      0x01\n      add\n      swap2\n      swap1\n      0x01\n      add\n      swap1\n      jump(tag_101)\n    tag_102:\n    tag_98:\n      pop\n      swap1\n      pop\n      tag_103\n      swap2\n      swap1\n      tag_96\n      jump\t// in\n    tag_103:\n      pop\n      swap1\n      jump\t// out\n    tag_85:\n      pop\n      dup1\n      sload\n      tag_104\n      swap1\n      tag_59\n      jump\t// in\n    tag_104:\n      0x00\n      dup3\n      sstore\n      dup1\n      0x1f\n      lt\n      tag_106\n      jumpi\n      pop\n      jump(tag_105)\n    tag_106:\n      0x1f\n      add\n      0x20\n      swap1\n      div\n      swap1\n      0x00\n      mstore\n      keccak256(0x00, 0x20)\n      swap1\n      dup2\n      add\n      swap1\n      tag_107\n      swap2\n      swap1\n      tag_96\n      jump\t// in\n    tag_107:\n    tag_105:\n      pop\n      jump\t// out\n    tag_96:\n    tag_108:\n      dup1\n      dup3\n      gt\n      iszero\n      tag_109\n      jumpi\n      0x00\n      dup2\n      0x00\n      swap1\n      sstore\n      pop\n      0x01\n      add\n      jump(tag_108)\n    tag_109:\n      pop\n      swap1\n      jump\t// out\n        /* \"#utility.yul\":7:419   */\n    tag_111:\n        /* \"#utility.yul\":85:90   */\n      0x00\n        /* \"#utility.yul\":110:176   */\n      tag_113\n        /* \"#utility.yul\":126:175   */\n      tag_114\n        /* \"#utility.yul\":168:174   */\n      dup5\n        /* \"#utility.yul\":126:175   */\n      tag_115\n      jump\t// in\n    tag_114:\n        /* \"#utility.yul\":110:176   */\n      tag_116\n      jump\t// in\n    tag_113:\n        /* \"#utility.yul\":101:176   */\n      swap1\n      pop\n        /* \"#utility.yul\":199:205   */\n      dup3\n        /* \"#utility.yul\":192:197   */\n      dup2\n        /* \"#utility.yul\":185:206   */\n      mstore\n        /* \"#utility.yul\":237:241   */\n      0x20\n        /* \"#utility.yul\":230:235   */\n      dup2\n        /* \"#utility.yul\":226:242   */\n      add\n        /* \"#utility.yul\":275:278   */\n      dup5\n        /* \"#utility.yul\":266:272   */\n      dup5\n        /* \"#utility.yul\":261:264   */\n      dup5\n        /* \"#utility.yul\":257:273   */\n      add\n        /* \"#utility.yul\":254:279   */\n      gt\n        /* \"#utility.yul\":251:363   */\n      iszero\n      tag_117\n      jumpi\n        /* \"#utility.yul\":282:361   */\n      tag_118\n      tag_119\n      jump\t// in\n    tag_118:\n        /* \"#utility.yul\":251:363   */\n    tag_117:\n        /* \"#utility.yul\":372:413   */\n      tag_120\n        /* \"#utility.yul\":406:412   */\n      dup5\n        /* \"#utility.yul\":401:404   */\n      dup3\n        /* \"#utility.yul\":396:399   */\n      dup6\n        /* \"#utility.yul\":372:413   */\n      tag_121\n      jump\t// in\n    tag_120:\n        /* \"#utility.yul\":91:419   */\n      pop\n        /* \"#utility.yul\":7:419   */\n      swap4\n      swap3\n      pop\n      pop\n      pop\n      jump\t// out\n        /* \"#utility.yul\":439:779   */\n    tag_122:\n        /* \"#utility.yul\":495:500   */\n      0x00\n        /* \"#utility.yul\":544:547   */\n      dup3\n        /* \"#utility.yul\":537:541   */\n      0x1f\n        /* \"#utility.yul\":529:535   */\n      dup4\n        /* \"#utility.yul\":525:542   */\n      add\n        /* \"#utility.yul\":521:548   */\n      slt\n        /* \"#utility.yul\":511:633   */\n      tag_124\n      jumpi\n        /* \"#utility.yul\":552:631   */\n      tag_125\n      tag_126\n      jump\t// in\n    tag_125:\n        /* \"#utility.yul\":511:633   */\n    tag_124:\n        /* \"#utility.yul\":669:675   */\n      dup2\n        /* \"#utility.yul\":656:676   */\n      calldataload\n        /* \"#utility.yul\":694:773   */\n      tag_127\n        /* \"#utility.yul\":769:772   */\n      dup5\n        /* \"#utility.yul\":761:767   */\n      dup3\n        /* \"#utility.yul\":754:758   */\n      0x20\n        /* \"#utility.yul\":746:752   */\n      dup7\n        /* \"#utility.yul\":742:759   */\n      add\n        /* \"#utility.yul\":694:773   */\n      tag_111\n      jump\t// in\n    tag_127:\n        /* \"#utility.yul\":685:773   */\n      swap2\n      pop\n        /* \"#utility.yul\":501:779   */\n      pop\n        /* \"#utility.yul\":439:779   */\n      swap3\n      swap2\n      pop\n      pop\n      jump\t// out\n        /* \"#utility.yul\":785:924   */\n    tag_128:\n        /* \"#utility.yul\":831:836   */\n      0x00\n        /* \"#utility.yul\":869:875   */\n      dup2\n        /* \"#utility.yul\":856:876   */\n      calldataload\n        /* \"#utility.yul\":847:876   */\n      swap1\n      pop\n        /* \"#utility.yul\":885:918   */\n      tag_130\n        /* \"#utility.yul\":912:917   */\n      dup2\n        /* \"#utility.yul\":885:918   */\n      tag_131\n      jump\t// in\n    tag_130:\n        /* \"#utility.yul\":785:924   */\n      swap3\n      swap2\n      pop\n      pop\n      jump\t// out\n        /* \"#utility.yul\":930:1875   */\n    tag_37:\n        /* \"#utility.yul\":1026:1032   */\n      0x00\n        /* \"#utility.yul\":1034:1040   */\n      dup1\n        /* \"#utility.yul\":1042:1048   */\n      0x00\n        /* \"#utility.yul\":1050:1056   */\n      dup1\n        /* \"#utility.yul\":1099:1102   */\n      0x80\n        /* \"#utility.yul\":1087:1096   */\n      dup6\n        /* \"#utility.yul\":1078:1085   */\n      dup8\n        /* \"#utility.yul\":1074:1097   */\n      sub\n        /* \"#utility.yul\":1070:1103   */\n      slt\n        /* \"#utility.yul\":1067:1187   */\n      iszero\n      tag_133\n      jumpi\n        /* \"#utility.yul\":1106:1185   */\n      tag_134\n      tag_135\n      jump\t// in\n    tag_134:\n        /* \"#utility.yul\":1067:1187   */\n    tag_133:\n        /* \"#utility.yul\":1254:1255   */\n      0x00\n        /* \"#utility.yul\":1243:1252   */\n      dup6\n        /* \"#utility.yul\":1239:1256   */\n      add\n        /* \"#utility.yul\":1226:1257   */\n      calldataload\n        /* \"#utility.yul\":1284:1302   */\n      0xffffffffffffffff\n        /* \"#utility.yul\":1276:1282   */\n      dup2\n        /* \"#utility.yul\":1273:1303   */\n      gt\n        /* \"#utility.yul\":1270:1387   */\n      iszero\n      tag_136\n      jumpi\n        /* \"#utility.yul\":1306:1385   */\n      tag_137\n      tag_138\n      jump\t// in\n    tag_137:\n        /* \"#utility.yul\":1270:1387   */\n    tag_136:\n        /* \"#utility.yul\":1411:1474   */\n      tag_139\n        /* \"#utility.yul\":1466:1473   */\n      dup8\n        /* \"#utility.yul\":1457:1463   */\n      dup3\n        /* \"#utility.yul\":1446:1455   */\n      dup9\n        /* \"#utility.yul\":1442:1464   */\n      add\n        /* \"#utility.yul\":1411:1474   */\n      tag_122\n      jump\t// in\n    tag_139:\n        /* \"#utility.yul\":1401:1474   */\n      swap5\n      pop\n        /* \"#utility.yul\":1197:1484   */\n      pop\n        /* \"#utility.yul\":1523:1525   */\n      0x20\n        /* \"#utility.yul\":1549:1602   */\n      tag_140\n        /* \"#utility.yul\":1594:1601   */\n      dup8\n        /* \"#utility.yul\":1585:1591   */\n      dup3\n        /* \"#utility.yul\":1574:1583   */\n      dup9\n        /* \"#utility.yul\":1570:1592   */\n      add\n        /* \"#utility.yul\":1549:1602   */\n      tag_128\n      jump\t// in\n    tag_140:\n        /* \"#utility.yul\":1539:1602   */\n      swap4\n      pop\n        /* \"#utility.yul\":1494:1612   */\n      pop\n        /* \"#utility.yul\":1651:1653   */\n      0x40\n        /* \"#utility.yul\":1677:1730   */\n      tag_141\n        /* \"#utility.yul\":1722:1729   */\n      dup8\n        /* \"#utility.yul\":1713:1719   */\n      dup3\n        /* \"#utility.yul\":1702:1711   */\n      dup9\n        /* \"#utility.yul\":1698:1720   */\n      add\n        /* \"#utility.yul\":1677:1730   */\n      tag_128\n      jump\t// in\n    tag_141:\n        /* \"#utility.yul\":1667:1730   */\n      swap3\n      pop\n        /* \"#utility.yul\":1622:1740   */\n      pop\n        /* \"#utility.yul\":1779:1781   */\n      0x60\n        /* \"#utility.yul\":1805:1858   */\n      tag_142\n        /* \"#utility.yul\":1850:1857   */\n      dup8\n        /* \"#utility.yul\":1841:1847   */\n      dup3\n        /* \"#utility.yul\":1830:1839   */\n      dup9\n        /* \"#utility.yul\":1826:1848   */\n      add\n        /* \"#utility.yul\":1805:1858   */\n      tag_128\n      jump\t// in\n    tag_142:\n        /* \"#utility.yul\":1795:1858   */\n      swap2\n      pop\n        /* \"#utility.yul\":1750:1868   */\n      pop\n        /* \"#utility.yul\":930:1875   */\n      swap3\n      swap6\n      swap2\n      swap5\n      pop\n      swap3\n      pop\n      jump\t// out\n        /* \"#utility.yul\":1881:2210   */\n    tag_25:\n        /* \"#utility.yul\":1940:1946   */\n      0x00\n        /* \"#utility.yul\":1989:1991   */\n      0x20\n        /* \"#utility.yul\":1977:1986   */\n      dup3\n        /* \"#utility.yul\":1968:1975   */\n      dup5\n        /* \"#utility.yul\":1964:1987   */\n      sub\n        /* \"#utility.yul\":1960:1992   */\n      slt\n        /* \"#utility.yul\":1957:2076   */\n      iszero\n      tag_144\n      jumpi\n        /* \"#utility.yul\":1995:2074   */\n      tag_145\n      tag_135\n      jump\t// in\n    tag_145:\n        /* \"#utility.yul\":1957:2076   */\n    tag_144:\n        /* \"#utility.yul\":2115:2116   */\n      0x00\n        /* \"#utility.yul\":2140:2193   */\n      tag_146\n        /* \"#utility.yul\":2185:2192   */\n      dup5\n        /* \"#utility.yul\":2176:2182   */\n      dup3\n        /* \"#utility.yul\":2165:2174   */\n      dup6\n        /* \"#utility.yul\":2161:2183   */\n      add\n        /* \"#utility.yul\":2140:2193   */\n      tag_128\n      jump\t// in\n    tag_146:\n        /* \"#utility.yul\":2130:2193   */\n      swap2\n      pop\n        /* \"#utility.yul\":2086:2203   */\n      pop\n        /* \"#utility.yul\":1881:2210   */\n      swap3\n      swap2\n      pop\n      pop\n      jump\t// out\n        /* \"#utility.yul\":2216:2870   */\n    tag_13:\n        /* \"#utility.yul\":2294:2300   */\n      0x00\n        /* \"#utility.yul\":2302:2308   */\n      dup1\n        /* \"#utility.yul\":2351:2353   */\n      0x40\n        /* \"#utility.yul\":2339:2348   */\n      dup4\n        /* \"#utility.yul\":2330:2337   */\n      dup6\n        /* \"#utility.yul\":2326:2349   */\n      sub\n        /* \"#utility.yul\":2322:2354   */\n      slt\n        /* \"#utility.yul\":2319:2438   */\n      iszero\n      tag_148\n      jumpi\n        /* \"#utility.yul\":2357:2436   */\n      tag_149\n      tag_135\n      jump\t// in\n    tag_149:\n        /* \"#utility.yul\":2319:2438   */\n    tag_148:\n        /* \"#utility.yul\":2477:2478   */\n      0x00\n        /* \"#utility.yul\":2502:2555   */\n      tag_150\n        /* \"#utility.yul\":2547:2554   */\n      dup6\n        /* \"#utility.yul\":2538:2544   */\n      dup3\n        /* \"#utility.yul\":2527:2536   */\n      dup7\n        /* \"#utility.yul\":2523:2545   */\n      add\n        /* \"#utility.yul\":2502:2555   */\n      tag_128\n      jump\t// in\n    tag_150:\n        /* \"#utility.yul\":2492:2555   */\n      swap3\n      pop\n        /* \"#utility.yul\":2448:2565   */\n      pop\n        /* \"#utility.yul\":2632:2634   */\n      0x20\n        /* \"#utility.yul\":2621:2630   */\n      dup4\n        /* \"#utility.yul\":2617:2635   */\n      add\n        /* \"#utility.yul\":2604:2636   */\n      calldataload\n        /* \"#utility.yul\":2663:2681   */\n      0xffffffffffffffff\n        /* \"#utility.yul\":2655:2661   */\n      dup2\n        /* \"#utility.yul\":2652:2682   */\n      gt\n        /* \"#utility.yul\":2649:2766   */\n      iszero\n      tag_151\n      jumpi\n        /* \"#utility.yul\":2685:2764   */\n      tag_152\n      tag_138\n      jump\t// in\n    tag_152:\n        /* \"#utility.yul\":2649:2766   */\n    tag_151:\n        /* \"#utility.yul\":2790:2853   */\n      tag_153\n        /* \"#utility.yul\":2845:2852   */\n      dup6\n        /* \"#utility.yul\":2836:2842   */\n      dup3\n        /* \"#utility.yul\":2825:2834   */\n      dup7\n        /* \"#utility.yul\":2821:2843   */\n      add\n        /* \"#utility.yul\":2790:2853   */\n      tag_122\n      jump\t// in\n    tag_153:\n        /* \"#utility.yul\":2780:2853   */\n      swap2\n      pop\n        /* \"#utility.yul\":2575:2863   */\n      pop\n        /* \"#utility.yul\":2216:2870   */\n      swap3\n      pop\n      swap3\n      swap1\n      pop\n      jump\t// out\n        /* \"#utility.yul\":2876:3495   */\n    tag_17:\n        /* \"#utility.yul\":2953:2959   */\n      0x00\n        /* \"#utility.yul\":2961:2967   */\n      dup1\n        /* \"#utility.yul\":2969:2975   */\n      0x00\n        /* \"#utility.yul\":3018:3020   */\n      0x60\n        /* \"#utility.yul\":3006:3015   */\n      dup5\n        /* \"#utility.yul\":2997:3004   */\n      dup7\n        /* \"#utility.yul\":2993:3016   */\n      sub\n        /* \"#utility.yul\":2989:3021   */\n      slt\n        /* \"#utility.yul\":2986:3105   */\n      iszero\n      tag_155\n      jumpi\n        /* \"#utility.yul\":3024:3103   */\n      tag_156\n      tag_135\n      jump\t// in\n    tag_156:\n        /* \"#utility.yul\":2986:3105   */\n    tag_155:\n        /* \"#utility.yul\":3144:3145   */\n      0x00\n        /* \"#utility.yul\":3169:3222   */\n      tag_157\n        /* \"#utility.yul\":3214:3221   */\n      dup7\n        /* \"#utility.yul\":3205:3211   */\n      dup3\n        /* \"#utility.yul\":3194:3203   */\n      dup8\n        /* \"#utility.yul\":3190:3212   */\n      add\n        /* \"#utility.yul\":3169:3222   */\n      tag_128\n      jump\t// in\n    tag_157:\n        /* \"#utility.yul\":3159:3222   */\n      swap4\n      pop\n        /* \"#utility.yul\":3115:3232   */\n      pop\n        /* \"#utility.yul\":3271:3273   */\n      0x20\n        /* \"#utility.yul\":3297:3350   */\n      tag_158\n        /* \"#utility.yul\":3342:3349   */\n      dup7\n        /* \"#utility.yul\":3333:3339   */\n      dup3\n        /* \"#utility.yul\":3322:3331   */\n      dup8\n        /* \"#utility.yul\":3318:3340   */\n      add\n        /* \"#utility.yul\":3297:3350   */\n      tag_128\n      jump\t// in\n    tag_158:\n        /* \"#utility.yul\":3287:3350   */\n      swap3\n      pop\n        /* \"#utility.yul\":3242:3360   */\n      pop\n        /* \"#utility.yul\":3399:3401   */\n      0x40\n        /* \"#utility.yul\":3425:3478   */\n      tag_159\n        /* \"#utility.yul\":3470:3477   */\n      dup7\n        /* \"#utility.yul\":3461:3467   */\n      dup3\n        /* \"#utility.yul\":3450:3459   */\n      dup8\n        /* \"#utility.yul\":3446:3468   */\n      add\n        /* \"#utility.yul\":3425:3478   */\n      tag_128\n      jump\t// in\n    tag_159:\n        /* \"#utility.yul\":3415:3478   */\n      swap2\n      pop\n        /* \"#utility.yul\":3370:3488   */\n      pop\n        /* \"#utility.yul\":2876:3495   */\n      swap3\n      pop\n      swap3\n      pop\n      swap3\n      jump\t// out\n        /* \"#utility.yul\":3501:4266   */\n    tag_21:\n        /* \"#utility.yul\":3587:3593   */\n      0x00\n        /* \"#utility.yul\":3595:3601   */\n      dup1\n        /* \"#utility.yul\":3603:3609   */\n      0x00\n        /* \"#utility.yul\":3611:3617   */\n      dup1\n        /* \"#utility.yul\":3660:3663   */\n      0x80\n        /* \"#utility.yul\":3648:3657   */\n      dup6\n        /* \"#utility.yul\":3639:3646   */\n      dup8\n        /* \"#utility.yul\":3635:3658   */\n      sub\n        /* \"#utility.yul\":3631:3664   */\n      slt\n        /* \"#utility.yul\":3628:3748   */\n      iszero\n      tag_161\n      jumpi\n        /* \"#utility.yul\":3667:3746   */\n      tag_162\n      tag_135\n      jump\t// in\n    tag_162:\n        /* \"#utility.yul\":3628:3748   */\n    tag_161:\n        /* \"#utility.yul\":3787:3788   */\n      0x00\n        /* \"#utility.yul\":3812:3865   */\n      tag_163\n        /* \"#utility.yul\":3857:3864   */\n      dup8\n        /* \"#utility.yul\":3848:3854   */\n      dup3\n        /* \"#utility.yul\":3837:3846   */\n      dup9\n        /* \"#utility.yul\":3833:3855   */\n      add\n        /* \"#utility.yul\":3812:3865   */\n      tag_128\n      jump\t// in\n    tag_163:\n        /* \"#utility.yul\":3802:3865   */\n      swap5\n      pop\n        /* \"#utility.yul\":3758:3875   */\n      pop\n        /* \"#utility.yul\":3914:3916   */\n      0x20\n        /* \"#utility.yul\":3940:3993   */\n      tag_164\n        /* \"#utility.yul\":3985:3992   */\n      dup8\n        /* \"#utility.yul\":3976:3982   */\n      dup3\n        /* \"#utility.yul\":3965:3974   */\n      dup9\n        /* \"#utility.yul\":3961:3983   */\n      add\n        /* \"#utility.yul\":3940:3993   */\n      tag_128\n      jump\t// in\n    tag_164:\n        /* \"#utility.yul\":3930:3993   */\n      swap4\n      pop\n        /* \"#utility.yul\":3885:4003   */\n      pop\n        /* \"#utility.yul\":4042:4044   */\n      0x40\n        /* \"#utility.yul\":4068:4121   */\n      tag_165\n        /* \"#utility.yul\":4113:4120   */\n      dup8\n        /* \"#utility.yul\":4104:4110   */\n      dup3\n        /* \"#utility.yul\":4093:4102   */\n      dup9\n        /* \"#utility.yul\":4089:4111   */\n      add\n        /* \"#utility.yul\":4068:4121   */\n      tag_128\n      jump\t// in\n    tag_165:\n        /* \"#utility.yul\":4058:4121   */\n      swap3\n      pop\n        /* \"#utility.yul\":4013:4131   */\n      pop\n        /* \"#utility.yul\":4170:4172   */\n      0x60\n        /* \"#utility.yul\":4196:4249   */\n      tag_166\n        /* \"#utility.yul\":4241:4248   */\n      dup8\n        /* \"#utility.yul\":4232:4238   */\n      dup3\n        /* \"#utility.yul\":4221:4230   */\n      dup9\n        /* \"#utility.yul\":4217:4239   */\n      add\n        /* \"#utility.yul\":4196:4249   */\n      tag_128\n      jump\t// in\n    tag_166:\n        /* \"#utility.yul\":4186:4249   */\n      swap2\n      pop\n        /* \"#utility.yul\":4141:4259   */\n      pop\n        /* \"#utility.yul\":3501:4266   */\n      swap3\n      swap6\n      swap2\n      swap5\n      pop\n      swap3\n      pop\n      jump\t// out\n        /* \"#utility.yul\":4272:4636   */\n    tag_167:\n        /* \"#utility.yul\":4360:4363   */\n      0x00\n        /* \"#utility.yul\":4388:4427   */\n      tag_169\n        /* \"#utility.yul\":4421:4426   */\n      dup3\n        /* \"#utility.yul\":4388:4427   */\n      tag_170\n      jump\t// in\n    tag_169:\n        /* \"#utility.yul\":4443:4514   */\n      tag_171\n        /* \"#utility.yul\":4507:4513   */\n      dup2\n        /* \"#utility.yul\":4502:4505   */\n      dup6\n        /* \"#utility.yul\":4443:4514   */\n      tag_172\n      jump\t// in\n    tag_171:\n        /* \"#utility.yul\":4436:4514   */\n      swap4\n      pop\n        /* \"#utility.yul\":4523:4575   */\n      tag_173\n        /* \"#utility.yul\":4568:4574   */\n      dup2\n        /* \"#utility.yul\":4563:4566   */\n      dup6\n        /* \"#utility.yul\":4556:4560   */\n      0x20\n        /* \"#utility.yul\":4549:4554   */\n      dup7\n        /* \"#utility.yul\":4545:4561   */\n      add\n        /* \"#utility.yul\":4523:4575   */\n      tag_174\n      jump\t// in\n    tag_173:\n        /* \"#utility.yul\":4600:4629   */\n      tag_175\n        /* \"#utility.yul\":4622:4628   */\n      dup2\n        /* \"#utility.yul\":4600:4629   */\n      tag_176\n      jump\t// in\n    tag_175:\n        /* \"#utility.yul\":4595:4598   */\n      dup5\n        /* \"#utility.yul\":4591:4630   */\n      add\n        /* \"#utility.yul\":4584:4630   */\n      swap2\n      pop\n        /* \"#utility.yul\":4364:4636   */\n      pop\n        /* \"#utility.yul\":4272:4636   */\n      swap3\n      swap2\n      pop\n      pop\n      jump\t// out\n        /* \"#utility.yul\":4642:4760   */\n    tag_177:\n        /* \"#utility.yul\":4729:4753   */\n      tag_179\n        /* \"#utility.yul\":4747:4752   */\n      dup2\n        /* \"#utility.yul\":4729:4753   */\n      tag_180\n      jump\t// in\n    tag_179:\n        /* \"#utility.yul\":4724:4727   */\n      dup3\n        /* \"#utility.yul\":4717:4754   */\n      mstore\n        /* \"#utility.yul\":4642:4760   */\n      pop\n      pop\n      jump\t// out\n        /* \"#utility.yul\":4766:5410   */\n    tag_28:\n        /* \"#utility.yul\":4963:4967   */\n      0x00\n        /* \"#utility.yul\":5001:5004   */\n      0x80\n        /* \"#utility.yul\":4990:4999   */\n      dup3\n        /* \"#utility.yul\":4986:5005   */\n      add\n        /* \"#utility.yul\":4978:5005   */\n      swap1\n      pop\n        /* \"#utility.yul\":5051:5060   */\n      dup2\n        /* \"#utility.yul\":5045:5049   */\n      dup2\n        /* \"#utility.yul\":5041:5061   */\n      sub\n        /* \"#utility.yul\":5037:5038   */\n      0x00\n        /* \"#utility.yul\":5026:5035   */\n      dup4\n        /* \"#utility.yul\":5022:5039   */\n      add\n        /* \"#utility.yul\":5015:5062   */\n      mstore\n        /* \"#utility.yul\":5079:5157   */\n      tag_182\n        /* \"#utility.yul\":5152:5156   */\n      dup2\n        /* \"#utility.yul\":5143:5149   */\n      dup8\n        /* \"#utility.yul\":5079:5157   */\n      tag_167\n      jump\t// in\n    tag_182:\n        /* \"#utility.yul\":5071:5157   */\n      swap1\n      pop\n        /* \"#utility.yul\":5167:5239   */\n      tag_183\n        /* \"#utility.yul\":5235:5237   */\n      0x20\n        /* \"#utility.yul\":5224:5233   */\n      dup4\n        /* \"#utility.yul\":5220:5238   */\n      add\n        /* \"#utility.yul\":5211:5217   */\n      dup7\n        /* \"#utility.yul\":5167:5239   */\n      tag_177\n      jump\t// in\n    tag_183:\n        /* \"#utility.yul\":5249:5321   */\n      tag_184\n        /* \"#utility.yul\":5317:5319   */\n      0x40\n        /* \"#utility.yul\":5306:5315   */\n      dup4\n        /* \"#utility.yul\":5302:5320   */\n      add\n        /* \"#utility.yul\":5293:5299   */\n      dup6\n        /* \"#utility.yul\":5249:5321   */\n      tag_177\n      jump\t// in\n    tag_184:\n        /* \"#utility.yul\":5331:5403   */\n      tag_185\n        /* \"#utility.yul\":5399:5401   */\n      0x60\n        /* \"#utility.yul\":5388:5397   */\n      dup4\n        /* \"#utility.yul\":5384:5402   */\n      add\n        /* \"#utility.yul\":5375:5381   */\n      dup5\n        /* \"#utility.yul\":5331:5403   */\n      tag_177\n      jump\t// in\n    tag_185:\n        /* \"#utility.yul\":4766:5410   */\n      swap6\n      swap5\n      pop\n      pop\n      pop\n      pop\n      pop\n      jump\t// out\n        /* \"#utility.yul\":5416:5545   */\n    tag_116:\n        /* \"#utility.yul\":5450:5456   */\n      0x00\n        /* \"#utility.yul\":5477:5497   */\n      tag_187\n      tag_188\n      jump\t// in\n    tag_187:\n        /* \"#utility.yul\":5467:5497   */\n      swap1\n      pop\n        /* \"#utility.yul\":5506:5539   */\n      tag_189\n        /* \"#utility.yul\":5534:5538   */\n      dup3\n        /* \"#utility.yul\":5526:5532   */\n      dup3\n        /* \"#utility.yul\":5506:5539   */\n      tag_190\n      jump\t// in\n    tag_189:\n        /* \"#utility.yul\":5416:5545   */\n      swap2\n      swap1\n      pop\n      jump\t// out\n        /* \"#utility.yul\":5551:5626   */\n    tag_188:\n        /* \"#utility.yul\":5584:5590   */\n      0x00\n        /* \"#utility.yul\":5617:5619   */\n      0x40\n        /* \"#utility.yul\":5611:5620   */\n      mload\n        /* \"#utility.yul\":5601:5620   */\n      swap1\n      pop\n        /* \"#utility.yul\":5551:5626   */\n      swap1\n      jump\t// out\n        /* \"#utility.yul\":5632:5940   */\n    tag_115:\n        /* \"#utility.yul\":5694:5698   */\n      0x00\n        /* \"#utility.yul\":5784:5802   */\n      0xffffffffffffffff\n        /* \"#utility.yul\":5776:5782   */\n      dup3\n        /* \"#utility.yul\":5773:5803   */\n      gt\n        /* \"#utility.yul\":5770:5826   */\n      iszero\n      tag_193\n      jumpi\n        /* \"#utility.yul\":5806:5824   */\n      tag_194\n      tag_195\n      jump\t// in\n    tag_194:\n        /* \"#utility.yul\":5770:5826   */\n    tag_193:\n        /* \"#utility.yul\":5844:5873   */\n      tag_196\n        /* \"#utility.yul\":5866:5872   */\n      dup3\n        /* \"#utility.yul\":5844:5873   */\n      tag_176\n      jump\t// in\n    tag_196:\n        /* \"#utility.yul\":5836:5873   */\n      swap1\n      pop\n        /* \"#utility.yul\":5928:5932   */\n      0x20\n        /* \"#utility.yul\":5922:5926   */\n      dup2\n        /* \"#utility.yul\":5918:5933   */\n      add\n        /* \"#utility.yul\":5910:5933   */\n      swap1\n      pop\n        /* \"#utility.yul\":5632:5940   */\n      swap2\n      swap1\n      pop\n      jump\t// out\n        /* \"#utility.yul\":5946:6045   */\n    tag_170:\n        /* \"#utility.yul\":5998:6004   */\n      0x00\n        /* \"#utility.yul\":6032:6037   */\n      dup2\n        /* \"#utility.yul\":6026:6038   */\n      mload\n        /* \"#utility.yul\":6016:6038   */\n      swap1\n      pop\n        /* \"#utility.yul\":5946:6045   */\n      swap2\n      swap1\n      pop\n      jump\t// out\n        /* \"#utility.yul\":6051:6220   */\n    tag_172:\n        /* \"#utility.yul\":6135:6146   */\n      0x00\n        /* \"#utility.yul\":6169:6175   */\n      dup3\n        /* \"#utility.yul\":6164:6167   */\n      dup3\n        /* \"#utility.yul\":6157:6176   */\n      mstore\n        /* \"#utility.yul\":6209:6213   */\n      0x20\n        /* \"#utility.yul\":6204:6207   */\n      dup3\n        /* \"#utility.yul\":6200:6214   */\n      add\n        /* \"#utility.yul\":6185:6214   */\n      swap1\n      pop\n        /* \"#utility.yul\":6051:6220   */\n      swap3\n      swap2\n      pop\n      pop\n      jump\t// out\n        /* \"#utility.yul\":6226:6417   */\n    tag_70:\n        /* \"#utility.yul\":6266:6270   */\n      0x00\n        /* \"#utility.yul\":6286:6306   */\n      tag_200\n        /* \"#utility.yul\":6304:6305   */\n      dup3\n        /* \"#utility.yul\":6286:6306   */\n      tag_180\n      jump\t// in\n    tag_200:\n        /* \"#utility.yul\":6281:6306   */\n      swap2\n      pop\n        /* \"#utility.yul\":6320:6340   */\n      tag_201\n        /* \"#utility.yul\":6338:6339   */\n      dup4\n        /* \"#utility.yul\":6320:6340   */\n      tag_180\n      jump\t// in\n    tag_201:\n        /* \"#utility.yul\":6315:6340   */\n      swap3\n      pop\n        /* \"#utility.yul\":6359:6360   */\n      dup3\n        /* \"#utility.yul\":6356:6357   */\n      dup3\n        /* \"#utility.yul\":6353:6361   */\n      lt\n        /* \"#utility.yul\":6350:6384   */\n      iszero\n      tag_202\n      jumpi\n        /* \"#utility.yul\":6364:6382   */\n      tag_203\n      tag_204\n      jump\t// in\n    tag_203:\n        /* \"#utility.yul\":6350:6384   */\n    tag_202:\n        /* \"#utility.yul\":6409:6410   */\n      dup3\n        /* \"#utility.yul\":6406:6407   */\n      dup3\n        /* \"#utility.yul\":6402:6411   */\n      sub\n        /* \"#utility.yul\":6394:6411   */\n      swap1\n      pop\n        /* \"#utility.yul\":6226:6417   */\n      swap3\n      swap2\n      pop\n      pop\n      jump\t// out\n        /* \"#utility.yul\":6423:6500   */\n    tag_180:\n        /* \"#utility.yul\":6460:6467   */\n      0x00\n        /* \"#utility.yul\":6489:6494   */\n      dup2\n        /* \"#utility.yul\":6478:6494   */\n      swap1\n      pop\n        /* \"#utility.yul\":6423:6500   */\n      swap2\n      swap1\n      pop\n      jump\t// out\n        /* \"#utility.yul\":6506:6660   */\n    tag_121:\n        /* \"#utility.yul\":6590:6596   */\n      dup3\n        /* \"#utility.yul\":6585:6588   */\n      dup2\n        /* \"#utility.yul\":6580:6583   */\n      dup4\n        /* \"#utility.yul\":6567:6597   */\n      calldatacopy\n        /* \"#utility.yul\":6652:6653   */\n      0x00\n        /* \"#utility.yul\":6643:6649   */\n      dup4\n        /* \"#utility.yul\":6638:6641   */\n      dup4\n        /* \"#utility.yul\":6634:6650   */\n      add\n        /* \"#utility.yul\":6627:6654   */\n      mstore\n        /* \"#utility.yul\":6506:6660   */\n      pop\n      pop\n      pop\n      jump\t// out\n        /* \"#utility.yul\":6666:6973   */\n    tag_174:\n        /* \"#utility.yul\":6734:6735   */\n      0x00\n        /* \"#utility.yul\":6744:6857   */\n    tag_208:\n        /* \"#utility.yul\":6758:6764   */\n      dup4\n        /* \"#utility.yul\":6755:6756   */\n      dup2\n        /* \"#utility.yul\":6752:6765   */\n      lt\n        /* \"#utility.yul\":6744:6857   */\n      iszero\n      tag_210\n      jumpi\n        /* \"#utility.yul\":6843:6844   */\n      dup1\n        /* \"#utility.yul\":6838:6841   */\n      dup3\n        /* \"#utility.yul\":6834:6845   */\n      add\n        /* \"#utility.yul\":6828:6846   */\n      mload\n        /* \"#utility.yul\":6824:6825   */\n      dup2\n        /* \"#utility.yul\":6819:6822   */\n      dup5\n        /* \"#utility.yul\":6815:6826   */\n      add\n        /* \"#utility.yul\":6808:6847   */\n      mstore\n        /* \"#utility.yul\":6780:6782   */\n      0x20\n        /* \"#utility.yul\":6777:6778   */\n      dup2\n        /* \"#utility.yul\":6773:6783   */\n      add\n        /* \"#utility.yul\":6768:6783   */\n      swap1\n      pop\n        /* \"#utility.yul\":6744:6857   */\n      jump(tag_208)\n    tag_210:\n        /* \"#utility.yul\":6875:6881   */\n      dup4\n        /* \"#utility.yul\":6872:6873   */\n      dup2\n        /* \"#utility.yul\":6869:6882   */\n      gt\n        /* \"#utility.yul\":6866:6967   */\n      iszero\n      tag_211\n      jumpi\n        /* \"#utility.yul\":6955:6956   */\n      0x00\n        /* \"#utility.yul\":6946:6952   */\n      dup5\n        /* \"#utility.yul\":6941:6944   */\n      dup5\n        /* \"#utility.yul\":6937:6953   */\n      add\n        /* \"#utility.yul\":6930:6957   */\n      mstore\n        /* \"#utility.yul\":6866:6967   */\n    tag_211:\n        /* \"#utility.yul\":6715:6973   */\n      pop\n        /* \"#utility.yul\":6666:6973   */\n      pop\n      pop\n      pop\n      jump\t// out\n        /* \"#utility.yul\":6979:7299   */\n    tag_59:\n        /* \"#utility.yul\":7023:7029   */\n      0x00\n        /* \"#utility.yul\":7060:7061   */\n      0x02\n        /* \"#utility.yul\":7054:7058   */\n      dup3\n        /* \"#utility.yul\":7050:7062   */\n      div\n        /* \"#utility.yul\":7040:7062   */\n      swap1\n      pop\n        /* \"#utility.yul\":7107:7108   */\n      0x01\n        /* \"#utility.yul\":7101:7105   */\n      dup3\n        /* \"#utility.yul\":7097:7109   */\n      and\n        /* \"#utility.yul\":7128:7146   */\n      dup1\n        /* \"#utility.yul\":7118:7199   */\n      tag_213\n      jumpi\n        /* \"#utility.yul\":7184:7188   */\n      0x7f\n        /* \"#utility.yul\":7176:7182   */\n      dup3\n        /* \"#utility.yul\":7172:7189   */\n      and\n        /* \"#utility.yul\":7162:7189   */\n      swap2\n      pop\n        /* \"#utility.yul\":7118:7199   */\n    tag_213:\n        /* \"#utility.yul\":7246:7248   */\n      0x20\n        /* \"#utility.yul\":7238:7244   */\n      dup3\n        /* \"#utility.yul\":7235:7249   */\n      lt\n        /* \"#utility.yul\":7215:7233   */\n      dup2\n        /* \"#utility.yul\":7212:7250   */\n      eq\n        /* \"#utility.yul\":7209:7293   */\n      iszero\n      tag_214\n      jumpi\n        /* \"#utility.yul\":7265:7283   */\n      tag_215\n      tag_216\n      jump\t// in\n    tag_215:\n        /* \"#utility.yul\":7209:7293   */\n    tag_214:\n        /* \"#utility.yul\":7030:7299   */\n      pop\n        /* \"#utility.yul\":6979:7299   */\n      swap2\n      swap1\n      pop\n      jump\t// out\n        /* \"#utility.yul\":7305:7586   */\n    tag_190:\n        /* \"#utility.yul\":7388:7415   */\n      tag_218\n        /* \"#utility.yul\":7410:7414   */\n      dup3\n        /* \"#utility.yul\":7388:7415   */\n      tag_176\n      jump\t// in\n    tag_218:\n        /* \"#utility.yul\":7380:7386   */\n      dup2\n        /* \"#utility.yul\":7376:7416   */\n      add\n        /* \"#utility.yul\":7518:7524   */\n      dup2\n        /* \"#utility.yul\":7506:7516   */\n      dup2\n        /* \"#utility.yul\":7503:7525   */\n      lt\n        /* \"#utility.yul\":7482:7500   */\n      0xffffffffffffffff\n        /* \"#utility.yul\":7470:7480   */\n      dup3\n        /* \"#utility.yul\":7467:7501   */\n      gt\n        /* \"#utility.yul\":7464:7526   */\n      or\n        /* \"#utility.yul\":7461:7549   */\n      iszero\n      tag_219\n      jumpi\n        /* \"#utility.yul\":7529:7547   */\n      tag_220\n      tag_195\n      jump\t// in\n    tag_220:\n        /* \"#utility.yul\":7461:7549   */\n    tag_219:\n        /* \"#utility.yul\":7569:7579   */\n      dup1\n        /* \"#utility.yul\":7565:7567   */\n      0x40\n        /* \"#utility.yul\":7558:7580   */\n      mstore\n        /* \"#utility.yul\":7348:7586   */\n      pop\n        /* \"#utility.yul\":7305:7586   */\n      pop\n      pop\n      jump\t// out\n        /* \"#utility.yul\":7592:7772   */\n    tag_204:\n        /* \"#utility.yul\":7640:7717   */\n      0x4e487b7100000000000000000000000000000000000000000000000000000000\n        /* \"#utility.yul\":7637:7638   */\n      0x00\n        /* \"#utility.yul\":7630:7718   */\n      mstore\n        /* \"#utility.yul\":7737:7741   */\n      0x11\n        /* \"#utility.yul\":7734:7735   */\n      0x04\n        /* \"#utility.yul\":7727:7742   */\n      mstore\n        /* \"#utility.yul\":7761:7765   */\n      0x24\n        /* \"#utility.yul\":7758:7759   */\n      0x00\n        /* \"#utility.yul\":7751:7766   */\n      revert\n        /* \"#utility.yul\":7778:7958   */\n    tag_216:\n        /* \"#utility.yul\":7826:7903   */\n      0x4e487b7100000000000000000000000000000000000000000000000000000000\n        /* \"#utility.yul\":7823:7824   */\n      0x00\n        /* \"#utility.yul\":7816:7904   */\n      mstore\n        /* \"#utility.yul\":7923:7927   */\n      0x22\n        /* \"#utility.yul\":7920:7921   */\n      0x04\n        /* \"#utility.yul\":7913:7928   */\n      mstore\n        /* \"#utility.yul\":7947:7951   */\n      0x24\n        /* \"#utility.yul\":7944:7945   */\n      0x00\n        /* \"#utility.yul\":7937:7952   */\n      revert\n        /* \"#utility.yul\":7964:8144   */\n    tag_82:\n        /* \"#utility.yul\":8012:8089   */\n      0x4e487b7100000000000000000000000000000000000000000000000000000000\n        /* \"#utility.yul\":8009:8010   */\n      0x00\n        /* \"#utility.yul\":8002:8090   */\n      mstore\n        /* \"#utility.yul\":8109:8113   */\n      0x31\n        /* \"#utility.yul\":8106:8107   */\n      0x04\n        /* \"#utility.yul\":8099:8114   */\n      mstore\n        /* \"#utility.yul\":8133:8137   */\n      0x24\n        /* \"#utility.yul\":8130:8131   */\n      0x00\n        /* \"#utility.yul\":8123:8138   */\n      revert\n        /* \"#utility.yul\":8150:8330   */\n    tag_42:\n        /* \"#utility.yul\":8198:8275   */\n      0x4e487b7100000000000000000000000000000000000000000000000000000000\n        /* \"#utility.yul\":8195:8196   */\n      0x00\n        /* \"#utility.yul\":8188:8276   */\n      mstore\n        /* \"#utility.yul\":8295:8299   */\n      0x32\n        /* \"#utility.yul\":8292:8293   */\n      0x04\n        /* \"#utility.yul\":8285:8300   */\n      mstore\n        /* \"#utility.yul\":8319:8323   */\n      0x24\n        /* \"#utility.yul\":8316:8317   */\n      0x00\n        /* \"#utility.yul\":8309:8324   */\n      revert\n        /* \"#utility.yul\":8336:8516   */\n    tag_195:\n        /* \"#utility.yul\":8384:8461   */\n      0x4e487b7100000000000000000000000000000000000000000000000000000000\n        /* \"#utility.yul\":8381:8382   */\n      0x00\n        /* \"#utility.yul\":8374:8462   */\n      mstore\n        /* \"#utility.yul\":8481:8485   */\n      0x41\n        /* \"#utility.yul\":8478:8479   */\n      0x04\n        /* \"#utility.yul\":8471:8486   */\n      mstore\n        /* \"#utility.yul\":8505:8509   */\n      0x24\n        /* \"#utility.yul\":8502:8503   */\n      0x00\n        /* \"#utility.yul\":8495:8510   */\n      revert\n        /* \"#utility.yul\":8522:8639   */\n    tag_126:\n        /* \"#utility.yul\":8631:8632   */\n      0x00\n        /* \"#utility.yul\":8628:8629   */\n      dup1\n        /* \"#utility.yul\":8621:8633   */\n      revert\n        /* \"#utility.yul\":8645:8762   */\n    tag_119:\n        /* \"#utility.yul\":8754:8755   */\n      0x00\n        /* \"#utility.yul\":8751:8752   */\n      dup1\n        /* \"#utility.yul\":8744:8756   */\n      revert\n        /* \"#utility.yul\":8768:8885   */\n    tag_138:\n        /* \"#utility.yul\":8877:8878   */\n      0x00\n        /* \"#utility.yul\":8874:8875   */\n      dup1\n        /* \"#utility.yul\":8867:8879   */\n      revert\n        /* \"#utility.yul\":8891:9008   */\n    tag_135:\n        /* \"#utility.yul\":9000:9001   */\n      0x00\n        /* \"#utility.yul\":8997:8998   */\n      dup1\n        /* \"#utility.yul\":8990:9002   */\n      revert\n        /* \"#utility.yul\":9014:9116   */\n    tag_176:\n        /* \"#utility.yul\":9055:9061   */\n      0x00\n        /* \"#utility.yul\":9106:9108   */\n      0x1f\n        /* \"#utility.yul\":9102:9109   */\n      not\n        /* \"#utility.yul\":9097:9099   */\n      0x1f\n        /* \"#utility.yul\":9090:9095   */\n      dup4\n        /* \"#utility.yul\":9086:9100   */\n      add\n        /* \"#utility.yul\":9082:9110   */\n      and\n        /* \"#utility.yul\":9072:9110   */\n      swap1\n      pop\n        /* \"#utility.yul\":9014:9116   */\n      swap2\n      swap1\n      pop\n      jump\t// out\n        /* \"#utility.yul\":9122:9244   */\n    tag_131:\n        /* \"#utility.yul\":9195:9219   */\n      tag_232\n        /* \"#utility.yul\":9213:9218   */\n      dup2\n        /* \"#utility.yul\":9195:9219   */\n      tag_180\n      jump\t// in\n    tag_232:\n        /* \"#utility.yul\":9188:9193   */\n      dup2\n        /* \"#utility.yul\":9185:9220   */\n      eq\n        /* \"#utility.yul\":9175:9238   */\n      tag_233\n      jumpi\n        /* \"#utility.yul\":9234:9235   */\n      0x00\n        /* \"#utility.yul\":9231:9232   */\n      dup1\n        /* \"#utility.yul\":9224:9236   */\n      revert\n        /* \"#utility.yul\":9175:9238   */\n    tag_233:\n        /* \"#utility.yul\":9122:9244   */\n      pop\n      jump\t// out\n\n    auxdata: 0xa2646970667358221220b973a73d2a9d2cdf0319178cb4e5fcf3a10f0386c02575d31e46ca875fa7237164736f6c63430008070033\n}\n",
				"bytecode": {
					"linkReferences": {},
					"object": "608060405234801561001057600080fd5b50610bc4806100206000396000f3fe608060405234801561001057600080fd5b506004361061007d5760003560e01c80637aadbdd31161005b5780637aadbdd3146100d657806382659eec146101095780639351b07814610125578063e1b7edff146101415761007d565b806312cbb972146100825780633659e4d31461009e57806356b08f10146100ba575b600080fd5b61009c60048036038101906100979190610768565b61015d565b005b6100b860048036038101906100b391906107c4565b6101a0565b005b6100d460048036038101906100cf9190610817565b6101d4565b005b6100f060048036038101906100eb919061073b565b610209565b60405161010094939291906108c6565b60405180910390f35b610123600480360381019061011e91906107c4565b610314565b005b61013f600480360381019061013a919061073b565b610348565b005b61015b600480360381019061015691906106b8565b610434565b005b600080838154811061017257610171610af4565b5b906000526020600020906004020190508181600001908051906020019061019a9291906104c3565b50505050565b60008084815481106101b5576101b4610af4565b5b9060005260206000209060040201905082816002018190555050505050565b60008085815481106101e9576101e8610af4565b5b906000526020600020906004020190508381600101819055505050505050565b60606000806000806000868154811061022557610224610af4565b5b906000526020600020906004020160405180608001604052908160008201805461024e90610a04565b80601f016020809104026020016040519081016040528092919081815260200182805461027a90610a04565b80156102c75780601f1061029c576101008083540402835291602001916102c7565b820191906000526020600020905b8154815290600101906020018083116102aa57829003601f168201915b505050505081526020016001820154815260200160028201548152602001600382015481525050905080600001518160200151826040015183606001519450945094509450509193509193565b600080848154811061032957610328610af4565b5b9060005260206000209060040201905082816002018190555050505050565b6000600160008054905061035c9190610984565b8154811061036d5761036c610af4565b5b90600052602060002090600402016000828154811061038f5761038e610af4565b5b906000526020600020906004020160008201816000019080546103b190610a04565b6103bc929190610549565b5060018201548160010155600282015481600201556003820154816003015590505060008054806103f0576103ef610ac5565b5b60019003818190600052602060002090600402016000808201600061041591906105d6565b6001820160009055600282016000905560038201600090555050905550565b60006040518060800160405280868152602001858152602001848152602001838152509080600181540180825580915050600190039060005260206000209060040201600090919091909150600082015181600001908051906020019061049c9291906104c3565b50602082015181600101556040820151816002015560608201518160030155505050505050565b8280546104cf90610a04565b90600052602060002090601f0160209004810192826104f15760008555610538565b82601f1061050a57805160ff1916838001178555610538565b82800160010185558215610538579182015b8281111561053757825182559160200191906001019061051c565b5b5090506105459190610616565b5090565b82805461055590610a04565b90600052602060002090601f01602090048101928261057757600085556105c5565b82601f1061058857805485556105c5565b828001600101855582156105c557600052602060002091601f016020900482015b828111156105c45782548255916001019190600101906105a9565b5b5090506105d29190610616565b5090565b5080546105e290610a04565b6000825580601f106105f45750610613565b601f0160209004906000526020600020908101906106129190610616565b5b50565b5b8082111561062f576000816000905550600101610617565b5090565b600061064661064184610937565b610912565b90508281526020810184848401111561066257610661610b57565b5b61066d8482856109c2565b509392505050565b600082601f83011261068a57610689610b52565b5b813561069a848260208601610633565b91505092915050565b6000813590506106b281610b77565b92915050565b600080600080608085870312156106d2576106d1610b61565b5b600085013567ffffffffffffffff8111156106f0576106ef610b5c565b5b6106fc87828801610675565b945050602061070d878288016106a3565b935050604061071e878288016106a3565b925050606061072f878288016106a3565b91505092959194509250565b60006020828403121561075157610750610b61565b5b600061075f848285016106a3565b91505092915050565b6000806040838503121561077f5761077e610b61565b5b600061078d858286016106a3565b925050602083013567ffffffffffffffff8111156107ae576107ad610b5c565b5b6107ba85828601610675565b9150509250929050565b6000806000606084860312156107dd576107dc610b61565b5b60006107eb868287016106a3565b93505060206107fc868287016106a3565b925050604061080d868287016106a3565b9150509250925092565b6000806000806080858703121561083157610830610b61565b5b600061083f878288016106a3565b9450506020610850878288016106a3565b9350506040610861878288016106a3565b9250506060610872878288016106a3565b91505092959194509250565b600061088982610968565b6108938185610973565b93506108a38185602086016109d1565b6108ac81610b66565b840191505092915050565b6108c0816109b8565b82525050565b600060808201905081810360008301526108e0818761087e565b90506108ef60208301866108b7565b6108fc60408301856108b7565b61090960608301846108b7565b95945050505050565b600061091c61092d565b90506109288282610a36565b919050565b6000604051905090565b600067ffffffffffffffff82111561095257610951610b23565b5b61095b82610b66565b9050602081019050919050565b600081519050919050565b600082825260208201905092915050565b600061098f826109b8565b915061099a836109b8565b9250828210156109ad576109ac610a67565b5b828203905092915050565b6000819050919050565b82818337600083830152505050565b60005b838110156109ef5780820151818401526020810190506109d4565b838111156109fe576000848401525b50505050565b60006002820490506001821680610a1c57607f821691505b60208210811415610a3057610a2f610a96565b5b50919050565b610a3f82610b66565b810181811067ffffffffffffffff82111715610a5e57610a5d610b23565b5b80604052505050565b7f4e487b7100000000000000000000000000000000000000000000000000000000600052601160045260246000fd5b7f4e487b7100000000000000000000000000000000000000000000000000000000600052602260045260246000fd5b7f4e487b7100000000000000000000000000000000000000000000000000000000600052603160045260246000fd5b7f4e487b7100000000000000000000000000000000000000000000000000000000600052603260045260246000fd5b7f4e487b7100000000000000000000000000000000000000000000000000000000600052604160045260246000fd5b600080fd5b600080fd5b600080fd5b600080fd5b6000601f19601f8301169050919050565b610b80816109b8565b8114610b8b57600080fd5b5056fea2646970667358221220b973a73d2a9d2cdf0319178cb4e5fcf3a10f0386c02575d31e46ca875fa7237164736f6c63430008070033",
					"opcodes": "PUSH1 0x80 PUSH1 0x40 MSTORE CALLVALUE DUP1 ISZERO PUSH2 0x10 JUMPI PUSH1 0x0 DUP1 REVERT JUMPDEST POP PUSH2 0xBC4 DUP1 PUSH2 0x20 PUSH1 0x0 CODECOPY PUSH1 0x0 RETURN INVALID PUSH1 0x80 PUSH1 0x40 MSTORE CALLVALUE DUP1 ISZERO PUSH2 0x10 JUMPI PUSH1 0x0 DUP1 REVERT JUMPDEST POP PUSH1 0x4 CALLDATASIZE LT PUSH2 0x7D JUMPI PUSH1 0x0 CALLDATALOAD PUSH1 0xE0 SHR DUP1 PUSH4 0x7AADBDD3 GT PUSH2 0x5B JUMPI DUP1 PUSH4 0x7AADBDD3 EQ PUSH2 0xD6 JUMPI DUP1 PUSH4 0x82659EEC EQ PUSH2 0x109 JUMPI DUP1 PUSH4 0x9351B078 EQ PUSH2 0x125 JUMPI DUP1 PUSH4 0xE1B7EDFF EQ PUSH2 0x141 JUMPI PUSH2 0x7D JUMP JUMPDEST DUP1 PUSH4 0x12CBB972 EQ PUSH2 0x82 JUMPI DUP1 PUSH4 0x3659E4D3 EQ PUSH2 0x9E JUMPI DUP1 PUSH4 0x56B08F10 EQ PUSH2 0xBA JUMPI JUMPDEST PUSH1 0x0 DUP1 REVERT JUMPDEST PUSH2 0x9C PUSH1 0x4 DUP1 CALLDATASIZE SUB DUP2 ADD SWAP1 PUSH2 0x97 SWAP2 SWAP1 PUSH2 0x768 JUMP JUMPDEST PUSH2 0x15D JUMP JUMPDEST STOP JUMPDEST PUSH2 0xB8 PUSH1 0x4 DUP1 CALLDATASIZE SUB DUP2 ADD SWAP1 PUSH2 0xB3 SWAP2 SWAP1 PUSH2 0x7C4 JUMP JUMPDEST PUSH2 0x1A0 JUMP JUMPDEST STOP JUMPDEST PUSH2 0xD4 PUSH1 0x4 DUP1 CALLDATASIZE SUB DUP2 ADD SWAP1 PUSH2 0xCF SWAP2 SWAP1 PUSH2 0x817 JUMP JUMPDEST PUSH2 0x1D4 JUMP JUMPDEST STOP JUMPDEST PUSH2 0xF0 PUSH1 0x4 DUP1 CALLDATASIZE SUB DUP2 ADD SWAP1 PUSH2 0xEB SWAP2 SWAP1 PUSH2 0x73B JUMP JUMPDEST PUSH2 0x209 JUMP JUMPDEST PUSH1 0x40 MLOAD PUSH2 0x100 SWAP5 SWAP4 SWAP3 SWAP2 SWAP1 PUSH2 0x8C6 JUMP JUMPDEST PUSH1 0x40 MLOAD DUP1 SWAP2 SUB SWAP1 RETURN JUMPDEST PUSH2 0x123 PUSH1 0x4 DUP1 CALLDATASIZE SUB DUP2 ADD SWAP1 PUSH2 0x11E SWAP2 SWAP1 PUSH2 0x7C4 JUMP JUMPDEST PUSH2 0x314 JUMP JUMPDEST STOP JUMPDEST PUSH2 0x13F PUSH1 0x4 DUP1 CALLDATASIZE SUB DUP2 ADD SWAP1 PUSH2 0x13A SWAP2 SWAP1 PUSH2 0x73B JUMP JUMPDEST PUSH2 0x348 JUMP JUMPDEST STOP JUMPDEST PUSH2 0x15B PUSH1 0x4 DUP1 CALLDATASIZE SUB DUP2 ADD SWAP1 PUSH2 0x156 SWAP2 SWAP1 PUSH2 0x6B8 JUMP JUMPDEST PUSH2 0x434 JUMP JUMPDEST STOP JUMPDEST PUSH1 0x0 DUP1 DUP4 DUP2 SLOAD DUP2 LT PUSH2 0x172 JUMPI PUSH2 0x171 PUSH2 0xAF4 JUMP JUMPDEST JUMPDEST SWAP1 PUSH1 0x0 MSTORE PUSH1 0x20 PUSH1 0x0 KECCAK256 SWAP1 PUSH1 0x4 MUL ADD SWAP1 POP DUP2 DUP2 PUSH1 0x0 ADD SWAP1 DUP1 MLOAD SWAP1 PUSH1 0x20 ADD SWAP1 PUSH2 0x19A SWAP3 SWAP2 SWAP1 PUSH2 0x4C3 JUMP JUMPDEST POP POP POP POP JUMP JUMPDEST PUSH1 0x0 DUP1 DUP5 DUP2 SLOAD DUP2 LT PUSH2 0x1B5 JUMPI PUSH2 0x1B4 PUSH2 0xAF4 JUMP JUMPDEST JUMPDEST SWAP1 PUSH1 0x0 MSTORE PUSH1 0x20 PUSH1 0x0 KECCAK256 SWAP1 PUSH1 0x4 MUL ADD SWAP1 POP DUP3 DUP2 PUSH1 0x2 ADD DUP2 SWAP1 SSTORE POP POP POP POP POP JUMP JUMPDEST PUSH1 0x0 DUP1 DUP6 DUP2 SLOAD DUP2 LT PUSH2 0x1E9 JUMPI PUSH2 0x1E8 PUSH2 0xAF4 JUMP JUMPDEST JUMPDEST SWAP1 PUSH1 0x0 MSTORE PUSH1 0x20 PUSH1 0x0 KECCAK256 SWAP1 PUSH1 0x4 MUL ADD SWAP1 POP DUP4 DUP2 PUSH1 0x1 ADD DUP2 SWAP1 SSTORE POP POP POP POP POP POP JUMP JUMPDEST PUSH1 0x60 PUSH1 0x0 DUP1 PUSH1 0x0 DUP1 PUSH1 0x0 DUP7 DUP2 SLOAD DUP2 LT PUSH2 0x225 JUMPI PUSH2 0x224 PUSH2 0xAF4 JUMP JUMPDEST JUMPDEST SWAP1 PUSH1 0x0 MSTORE PUSH1 0x20 PUSH1 0x0 KECCAK256 SWAP1 PUSH1 0x4 MUL ADD PUSH1 0x40 MLOAD DUP1 PUSH1 0x80 ADD PUSH1 0x40 MSTORE SWAP1 DUP2 PUSH1 0x0 DUP3 ADD DUP1 SLOAD PUSH2 0x24E SWAP1 PUSH2 0xA04 JUMP JUMPDEST DUP1 PUSH1 0x1F ADD PUSH1 0x20 DUP1 SWAP2 DIV MUL PUSH1 0x20 ADD PUSH1 0x40 MLOAD SWAP1 DUP2 ADD PUSH1 0x40 MSTORE DUP1 SWAP3 SWAP2 SWAP1 DUP2 DUP2 MSTORE PUSH1 0x20 ADD DUP3 DUP1 SLOAD PUSH2 0x27A SWAP1 PUSH2 0xA04 JUMP JUMPDEST DUP1 ISZERO PUSH2 0x2C7 JUMPI DUP1 PUSH1 0x1F LT PUSH2 0x29C JUMPI PUSH2 0x100 DUP1 DUP4 SLOAD DIV MUL DUP4 MSTORE SWAP2 PUSH1 0x20 ADD SWAP2 PUSH2 0x2C7 JUMP JUMPDEST DUP3 ADD SWAP2 SWAP1 PUSH1 0x0 MSTORE PUSH1 0x20 PUSH1 0x0 KECCAK256 SWAP1 JUMPDEST DUP2 SLOAD DUP2 MSTORE SWAP1 PUSH1 0x1 ADD SWAP1 PUSH1 0x20 ADD DUP1 DUP4 GT PUSH2 0x2AA JUMPI DUP3 SWAP1 SUB PUSH1 0x1F AND DUP3 ADD SWAP2 JUMPDEST POP POP POP POP POP DUP2 MSTORE PUSH1 0x20 ADD PUSH1 0x1 DUP3 ADD SLOAD DUP2 MSTORE PUSH1 0x20 ADD PUSH1 0x2 DUP3 ADD SLOAD DUP2 MSTORE PUSH1 0x20 ADD PUSH1 0x3 DUP3 ADD SLOAD DUP2 MSTORE POP POP SWAP1 POP DUP1 PUSH1 0x0 ADD MLOAD DUP2 PUSH1 0x20 ADD MLOAD DUP3 PUSH1 0x40 ADD MLOAD DUP4 PUSH1 0x60 ADD MLOAD SWAP5 POP SWAP5 POP SWAP5 POP SWAP5 POP POP SWAP2 SWAP4 POP SWAP2 SWAP4 JUMP JUMPDEST PUSH1 0x0 DUP1 DUP5 DUP2 SLOAD DUP2 LT PUSH2 0x329 JUMPI PUSH2 0x328 PUSH2 0xAF4 JUMP JUMPDEST JUMPDEST SWAP1 PUSH1 0x0 MSTORE PUSH1 0x20 PUSH1 0x0 KECCAK256 SWAP1 PUSH1 0x4 MUL ADD SWAP1 POP DUP3 DUP2 PUSH1 0x2 ADD DUP2 SWAP1 SSTORE POP POP POP POP POP JUMP JUMPDEST PUSH1 0x0 PUSH1 0x1 PUSH1 0x0 DUP1 SLOAD SWAP1 POP PUSH2 0x35C SWAP2 SWAP1 PUSH2 0x984 JUMP JUMPDEST DUP2 SLOAD DUP2 LT PUSH2 0x36D JUMPI PUSH2 0x36C PUSH2 0xAF4 JUMP JUMPDEST JUMPDEST SWAP1 PUSH1 0x0 MSTORE PUSH1 0x20 PUSH1 0x0 KECCAK256 SWAP1 PUSH1 0x4 MUL ADD PUSH1 0x0 DUP3 DUP2 SLOAD DUP2 LT PUSH2 0x38F JUMPI PUSH2 0x38E PUSH2 0xAF4 JUMP JUMPDEST JUMPDEST SWAP1 PUSH1 0x0 MSTORE PUSH1 0x20 PUSH1 0x0 KECCAK256 SWAP1 PUSH1 0x4 MUL ADD PUSH1 0x0 DUP3 ADD DUP2 PUSH1 0x0 ADD SWAP1 DUP1 SLOAD PUSH2 0x3B1 SWAP1 PUSH2 0xA04 JUMP JUMPDEST PUSH2 0x3BC SWAP3 SWAP2 SWAP1 PUSH2 0x549 JUMP JUMPDEST POP PUSH1 0x1 DUP3 ADD SLOAD DUP2 PUSH1 0x1 ADD SSTORE PUSH1 0x2 DUP3 ADD SLOAD DUP2 PUSH1 0x2 ADD SSTORE PUSH1 0x3 DUP3 ADD SLOAD DUP2 PUSH1 0x3 ADD SSTORE SWAP1 POP POP PUSH1 0x0 DUP1 SLOAD DUP1 PUSH2 0x3F0 JUMPI PUSH2 0x3EF PUSH2 0xAC5 JUMP JUMPDEST JUMPDEST PUSH1 0x1 SWAP1 SUB DUP2 DUP2 SWAP1 PUSH1 0x0 MSTORE PUSH1 0x20 PUSH1 0x0 KECCAK256 SWAP1 PUSH1 0x4 MUL ADD PUSH1 0x0 DUP1 DUP3 ADD PUSH1 0x0 PUSH2 0x415 SWAP2 SWAP1 PUSH2 0x5D6 JUMP JUMPDEST PUSH1 0x1 DUP3 ADD PUSH1 0x0 SWAP1 SSTORE PUSH1 0x2 DUP3 ADD PUSH1 0x0 SWAP1 SSTORE PUSH1 0x3 DUP3 ADD PUSH1 0x0 SWAP1 SSTORE POP POP SWAP1 SSTORE POP JUMP JUMPDEST PUSH1 0x0 PUSH1 0x40 MLOAD DUP1 PUSH1 0x80 ADD PUSH1 0x40 MSTORE DUP1 DUP7 DUP2 MSTORE PUSH1 0x20 ADD DUP6 DUP2 MSTORE PUSH1 0x20 ADD DUP5 DUP2 MSTORE PUSH1 0x20 ADD DUP4 DUP2 MSTORE POP SWAP1 DUP1 PUSH1 0x1 DUP2 SLOAD ADD DUP1 DUP3 SSTORE DUP1 SWAP2 POP POP PUSH1 0x1 SWAP1 SUB SWAP1 PUSH1 0x0 MSTORE PUSH1 0x20 PUSH1 0x0 KECCAK256 SWAP1 PUSH1 0x4 MUL ADD PUSH1 0x0 SWAP1 SWAP2 SWAP1 SWAP2 SWAP1 SWAP2 POP PUSH1 0x0 DUP3 ADD MLOAD DUP2 PUSH1 0x0 ADD SWAP1 DUP1 MLOAD SWAP1 PUSH1 0x20 ADD SWAP1 PUSH2 0x49C SWAP3 SWAP2 SWAP1 PUSH2 0x4C3 JUMP JUMPDEST POP PUSH1 0x20 DUP3 ADD MLOAD DUP2 PUSH1 0x1 ADD SSTORE PUSH1 0x40 DUP3 ADD MLOAD DUP2 PUSH1 0x2 ADD SSTORE PUSH1 0x60 DUP3 ADD MLOAD DUP2 PUSH1 0x3 ADD SSTORE POP POP POP POP POP POP JUMP JUMPDEST DUP3 DUP1 SLOAD PUSH2 0x4CF SWAP1 PUSH2 0xA04 JUMP JUMPDEST SWAP1 PUSH1 0x0 MSTORE PUSH1 0x20 PUSH1 0x0 KECCAK256 SWAP1 PUSH1 0x1F ADD PUSH1 0x20 SWAP1 DIV DUP2 ADD SWAP3 DUP3 PUSH2 0x4F1 JUMPI PUSH1 0x0 DUP6 SSTORE PUSH2 0x538 JUMP JUMPDEST DUP3 PUSH1 0x1F LT PUSH2 0x50A JUMPI DUP1 MLOAD PUSH1 0xFF NOT AND DUP4 DUP1 ADD OR DUP6 SSTORE PUSH2 0x538 JUMP JUMPDEST DUP3 DUP1 ADD PUSH1 0x1 ADD DUP6 SSTORE DUP3 ISZERO PUSH2 0x538 JUMPI SWAP2 DUP3 ADD JUMPDEST DUP3 DUP2 GT ISZERO PUSH2 0x537 JUMPI DUP3 MLOAD DUP3 SSTORE SWAP2 PUSH1 0x20 ADD SWAP2 SWAP1 PUSH1 0x1 ADD SWAP1 PUSH2 0x51C JUMP JUMPDEST JUMPDEST POP SWAP1 POP PUSH2 0x545 SWAP2 SWAP1 PUSH2 0x616 JUMP JUMPDEST POP SWAP1 JUMP JUMPDEST DUP3 DUP1 SLOAD PUSH2 0x555 SWAP1 PUSH2 0xA04 JUMP JUMPDEST SWAP1 PUSH1 0x0 MSTORE PUSH1 0x20 PUSH1 0x0 KECCAK256 SWAP1 PUSH1 0x1F ADD PUSH1 0x20 SWAP1 DIV DUP2 ADD SWAP3 DUP3 PUSH2 0x577 JUMPI PUSH1 0x0 DUP6 SSTORE PUSH2 0x5C5 JUMP JUMPDEST DUP3 PUSH1 0x1F LT PUSH2 0x588 JUMPI DUP1 SLOAD DUP6 SSTORE PUSH2 0x5C5 JUMP JUMPDEST DUP3 DUP1 ADD PUSH1 0x1 ADD DUP6 SSTORE DUP3 ISZERO PUSH2 0x5C5 JUMPI PUSH1 0x0 MSTORE PUSH1 0x20 PUSH1 0x0 KECCAK256 SWAP2 PUSH1 0x1F ADD PUSH1 0x20 SWAP1 DIV DUP3 ADD JUMPDEST DUP3 DUP2 GT ISZERO PUSH2 0x5C4 JUMPI DUP3 SLOAD DUP3 SSTORE SWAP2 PUSH1 0x1 ADD SWAP2 SWAP1 PUSH1 0x1 ADD SWAP1 PUSH2 0x5A9 JUMP JUMPDEST JUMPDEST POP SWAP1 POP PUSH2 0x5D2 SWAP2 SWAP1 PUSH2 0x616 JUMP JUMPDEST POP SWAP1 JUMP JUMPDEST POP DUP1 SLOAD PUSH2 0x5E2 SWAP1 PUSH2 0xA04 JUMP JUMPDEST PUSH1 0x0 DUP3 SSTORE DUP1 PUSH1 0x1F LT PUSH2 0x5F4 JUMPI POP PUSH2 0x613 JUMP JUMPDEST PUSH1 0x1F ADD PUSH1 0x20 SWAP1 DIV SWAP1 PUSH1 0x0 MSTORE PUSH1 0x20 PUSH1 0x0 KECCAK256 SWAP1 DUP2 ADD SWAP1 PUSH2 0x612 SWAP2 SWAP1 PUSH2 0x616 JUMP JUMPDEST JUMPDEST POP JUMP JUMPDEST JUMPDEST DUP1 DUP3 GT ISZERO PUSH2 0x62F JUMPI PUSH1 0x0 DUP2 PUSH1 0x0 SWAP1 SSTORE POP PUSH1 0x1 ADD PUSH2 0x617 JUMP JUMPDEST POP SWAP1 JUMP JUMPDEST PUSH1 0x0 PUSH2 0x646 PUSH2 0x641 DUP5 PUSH2 0x937 JUMP JUMPDEST PUSH2 0x912 JUMP JUMPDEST SWAP1 POP DUP3 DUP2 MSTORE PUSH1 0x20 DUP2 ADD DUP5 DUP5 DUP5 ADD GT ISZERO PUSH2 0x662 JUMPI PUSH2 0x661 PUSH2 0xB57 JUMP JUMPDEST JUMPDEST PUSH2 0x66D DUP5 DUP3 DUP6 PUSH2 0x9C2 JUMP JUMPDEST POP SWAP4 SWAP3 POP POP POP JUMP JUMPDEST PUSH1 0x0 DUP3 PUSH1 0x1F DUP4 ADD SLT PUSH2 0x68A JUMPI PUSH2 0x689 PUSH2 0xB52 JUMP JUMPDEST JUMPDEST DUP2 CALLDATALOAD PUSH2 0x69A DUP5 DUP3 PUSH1 0x20 DUP7 ADD PUSH2 0x633 JUMP JUMPDEST SWAP2 POP POP SWAP3 SWAP2 POP POP JUMP JUMPDEST PUSH1 0x0 DUP2 CALLDATALOAD SWAP1 POP PUSH2 0x6B2 DUP2 PUSH2 0xB77 JUMP JUMPDEST SWAP3 SWAP2 POP POP JUMP JUMPDEST PUSH1 0x0 DUP1 PUSH1 0x0 DUP1 PUSH1 0x80 DUP6 DUP8 SUB SLT ISZERO PUSH2 0x6D2 JUMPI PUSH2 0x6D1 PUSH2 0xB61 JUMP JUMPDEST JUMPDEST PUSH1 0x0 DUP6 ADD CALLDATALOAD PUSH8 0xFFFFFFFFFFFFFFFF DUP2 GT ISZERO PUSH2 0x6F0 JUMPI PUSH2 0x6EF PUSH2 0xB5C JUMP JUMPDEST JUMPDEST PUSH2 0x6FC DUP8 DUP3 DUP9 ADD PUSH2 0x675 JUMP JUMPDEST SWAP5 POP POP PUSH1 0x20 PUSH2 0x70D DUP8 DUP3 DUP9 ADD PUSH2 0x6A3 JUMP JUMPDEST SWAP4 POP POP PUSH1 0x40 PUSH2 0x71E DUP8 DUP3 DUP9 ADD PUSH2 0x6A3 JUMP JUMPDEST SWAP3 POP POP PUSH1 0x60 PUSH2 0x72F DUP8 DUP3 DUP9 ADD PUSH2 0x6A3 JUMP JUMPDEST SWAP2 POP POP SWAP3 SWAP6 SWAP2 SWAP5 POP SWAP3 POP JUMP JUMPDEST PUSH1 0x0 PUSH1 0x20 DUP3 DUP5 SUB SLT ISZERO PUSH2 0x751 JUMPI PUSH2 0x750 PUSH2 0xB61 JUMP JUMPDEST JUMPDEST PUSH1 0x0 PUSH2 0x75F DUP5 DUP3 DUP6 ADD PUSH2 0x6A3 JUMP JUMPDEST SWAP2 POP POP SWAP3 SWAP2 POP POP JUMP JUMPDEST PUSH1 0x0 DUP1 PUSH1 0x40 DUP4 DUP6 SUB SLT ISZERO PUSH2 0x77F JUMPI PUSH2 0x77E PUSH2 0xB61 JUMP JUMPDEST JUMPDEST PUSH1 0x0 PUSH2 0x78D DUP6 DUP3 DUP7 ADD PUSH2 0x6A3 JUMP JUMPDEST SWAP3 POP POP PUSH1 0x20 DUP4 ADD CALLDATALOAD PUSH8 0xFFFFFFFFFFFFFFFF DUP2 GT ISZERO PUSH2 0x7AE JUMPI PUSH2 0x7AD PUSH2 0xB5C JUMP JUMPDEST JUMPDEST PUSH2 0x7BA DUP6 DUP3 DUP7 ADD PUSH2 0x675 JUMP JUMPDEST SWAP2 POP POP SWAP3 POP SWAP3 SWAP1 POP JUMP JUMPDEST PUSH1 0x0 DUP1 PUSH1 0x0 PUSH1 0x60 DUP5 DUP7 SUB SLT ISZERO PUSH2 0x7DD JUMPI PUSH2 0x7DC PUSH2 0xB61 JUMP JUMPDEST JUMPDEST PUSH1 0x0 PUSH2 0x7EB DUP7 DUP3 DUP8 ADD PUSH2 0x6A3 JUMP JUMPDEST SWAP4 POP POP PUSH1 0x20 PUSH2 0x7FC DUP7 DUP3 DUP8 ADD PUSH2 0x6A3 JUMP JUMPDEST SWAP3 POP POP PUSH1 0x40 PUSH2 0x80D DUP7 DUP3 DUP8 ADD PUSH2 0x6A3 JUMP JUMPDEST SWAP2 POP POP SWAP3 POP SWAP3 POP SWAP3 JUMP JUMPDEST PUSH1 0x0 DUP1 PUSH1 0x0 DUP1 PUSH1 0x80 DUP6 DUP8 SUB SLT ISZERO PUSH2 0x831 JUMPI PUSH2 0x830 PUSH2 0xB61 JUMP JUMPDEST JUMPDEST PUSH1 0x0 PUSH2 0x83F DUP8 DUP3 DUP9 ADD PUSH2 0x6A3 JUMP JUMPDEST SWAP5 POP POP PUSH1 0x20 PUSH2 0x850 DUP8 DUP3 DUP9 ADD PUSH2 0x6A3 JUMP JUMPDEST SWAP4 POP POP PUSH1 0x40 PUSH2 0x861 DUP8 DUP3 DUP9 ADD PUSH2 0x6A3 JUMP JUMPDEST SWAP3 POP POP PUSH1 0x60 PUSH2 0x872 DUP8 DUP3 DUP9 ADD PUSH2 0x6A3 JUMP JUMPDEST SWAP2 POP POP SWAP3 SWAP6 SWAP2 SWAP5 POP SWAP3 POP JUMP JUMPDEST PUSH1 0x0 PUSH2 0x889 DUP3 PUSH2 0x968 JUMP JUMPDEST PUSH2 0x893 DUP2 DUP6 PUSH2 0x973 JUMP JUMPDEST SWAP4 POP PUSH2 0x8A3 DUP2 DUP6 PUSH1 0x20 DUP7 ADD PUSH2 0x9D1 JUMP JUMPDEST PUSH2 0x8AC DUP2 PUSH2 0xB66 JUMP JUMPDEST DUP5 ADD SWAP2 POP POP SWAP3 SWAP2 POP POP JUMP JUMPDEST PUSH2 0x8C0 DUP2 PUSH2 0x9B8 JUMP JUMPDEST DUP3 MSTORE POP POP JUMP JUMPDEST PUSH1 0x0 PUSH1 0x80 DUP3 ADD SWAP1 POP DUP2 DUP2 SUB PUSH1 0x0 DUP4 ADD MSTORE PUSH2 0x8E0 DUP2 DUP8 PUSH2 0x87E JUMP JUMPDEST SWAP1 POP PUSH2 0x8EF PUSH1 0x20 DUP4 ADD DUP7 PUSH2 0x8B7 JUMP JUMPDEST PUSH2 0x8FC PUSH1 0x40 DUP4 ADD DUP6 PUSH2 0x8B7 JUMP JUMPDEST PUSH2 0x909 PUSH1 0x60 DUP4 ADD DUP5 PUSH2 0x8B7 JUMP JUMPDEST SWAP6 SWAP5 POP POP POP POP POP JUMP JUMPDEST PUSH1 0x0 PUSH2 0x91C PUSH2 0x92D JUMP JUMPDEST SWAP1 POP PUSH2 0x928 DUP3 DUP3 PUSH2 0xA36 JUMP JUMPDEST SWAP2 SWAP1 POP JUMP JUMPDEST PUSH1 0x0 PUSH1 0x40 MLOAD SWAP1 POP SWAP1 JUMP JUMPDEST PUSH1 0x0 PUSH8 0xFFFFFFFFFFFFFFFF DUP3 GT ISZERO PUSH2 0x952 JUMPI PUSH2 0x951 PUSH2 0xB23 JUMP JUMPDEST JUMPDEST PUSH2 0x95B DUP3 PUSH2 0xB66 JUMP JUMPDEST SWAP1 POP PUSH1 0x20 DUP2 ADD SWAP1 POP SWAP2 SWAP1 POP JUMP JUMPDEST PUSH1 0x0 DUP2 MLOAD SWAP1 POP SWAP2 SWAP1 POP JUMP JUMPDEST PUSH1 0x0 DUP3 DUP3 MSTORE PUSH1 0x20 DUP3 ADD SWAP1 POP SWAP3 SWAP2 POP POP JUMP JUMPDEST PUSH1 0x0 PUSH2 0x98F DUP3 PUSH2 0x9B8 JUMP JUMPDEST SWAP2 POP PUSH2 0x99A DUP4 PUSH2 0x9B8 JUMP JUMPDEST SWAP3 POP DUP3 DUP3 LT ISZERO PUSH2 0x9AD JUMPI PUSH2 0x9AC PUSH2 0xA67 JUMP JUMPDEST JUMPDEST DUP3 DUP3 SUB SWAP1 POP SWAP3 SWAP2 POP POP JUMP JUMPDEST PUSH1 0x0 DUP2 SWAP1 POP SWAP2 SWAP1 POP JUMP JUMPDEST DUP3 DUP2 DUP4 CALLDATACOPY PUSH1 0x0 DUP4 DUP4 ADD MSTORE POP POP POP JUMP JUMPDEST PUSH1 0x0 JUMPDEST DUP4 DUP2 LT ISZERO PUSH2 0x9EF JUMPI DUP1 DUP3 ADD MLOAD DUP2 DUP5 ADD MSTORE PUSH1 0x20 DUP2 ADD SWAP1 POP PUSH2 0x9D4 JUMP JUMPDEST DUP4 DUP2 GT ISZERO PUSH2 0x9FE JUMPI PUSH1 0x0 DUP5 DUP5 ADD MSTORE JUMPDEST POP POP POP POP JUMP JUMPDEST PUSH1 0x0 PUSH1 0x2 DUP3 DIV SWAP1 POP PUSH1 0x1 DUP3 AND DUP1 PUSH2 0xA1C JUMPI PUSH1 0x7F DUP3 AND SWAP2 POP JUMPDEST PUSH1 0x20 DUP3 LT DUP2 EQ ISZERO PUSH2 0xA30 JUMPI PUSH2 0xA2F PUSH2 0xA96 JUMP JUMPDEST JUMPDEST POP SWAP2 SWAP1 POP JUMP JUMPDEST PUSH2 0xA3F DUP3 PUSH2 0xB66 JUMP JUMPDEST DUP2 ADD DUP2 DUP2 LT PUSH8 0xFFFFFFFFFFFFFFFF DUP3 GT OR ISZERO PUSH2 0xA5E JUMPI PUSH2 0xA5D PUSH2 0xB23 JUMP JUMPDEST JUMPDEST DUP1 PUSH1 0x40 MSTORE POP POP POP JUMP JUMPDEST PUSH32 0x4E487B7100000000000000000000000000000000000000000000000000000000 PUSH1 0x0 MSTORE PUSH1 0x11 PUSH1 0x4 MSTORE PUSH1 0x24 PUSH1 0x0 REVERT JUMPDEST PUSH32 0x4E487B7100000000000000000000000000000000000000000000000000000000 PUSH1 0x0 MSTORE PUSH1 0x22 PUSH1 0x4 MSTORE PUSH1 0x24 PUSH1 0x0 REVERT JUMPDEST PUSH32 0x4E487B7100000000000000000000000000000000000000000000000000000000 PUSH1 0x0 MSTORE PUSH1 0x31 PUSH1 0x4 MSTORE PUSH1 0x24 PUSH1 0x0 REVERT JUMPDEST PUSH32 0x4E487B7100000000000000000000000000000000000000000000000000000000 PUSH1 0x0 MSTORE PUSH1 0x32 PUSH1 0x4 MSTORE PUSH1 0x24 PUSH1 0x0 REVERT JUMPDEST PUSH32 0x4E487B7100000000000000000000000000000000000000000000000000000000 PUSH1 0x0 MSTORE PUSH1 0x41 PUSH1 0x4 MSTORE PUSH1 0x24 PUSH1 0x0 REVERT JUMPDEST PUSH1 0x0 DUP1 REVERT JUMPDEST PUSH1 0x0 DUP1 REVERT JUMPDEST PUSH1 0x0 DUP1 REVERT JUMPDEST PUSH1 0x0 DUP1 REVERT JUMPDEST PUSH1 0x0 PUSH1 0x1F NOT PUSH1 0x1F DUP4 ADD AND SWAP1 POP SWAP2 SWAP1 POP JUMP JUMPDEST PUSH2 0xB80 DUP2 PUSH2 0x9B8 JUMP JUMPDEST DUP2 EQ PUSH2 0xB8B JUMPI PUSH1 0x0 DUP1 REVERT JUMPDEST POP JUMP INVALID LOG2 PUSH5 0x6970667358 0x22 SLT KECCAK256 0xB9 PUSH20 0xA73D2A9D2CDF0319178CB4E5FCF3A10F0386C025 PUSH22 0xD31E46CA875FA7237164736F6C634300080700330000 "
				},
				"gasEstimates": {
					"creation": {
						"codeDepositCost": "602400",
						"executionCost": "638",
						"totalCost": "603038"
					},
					"external": {
						"addtolist(string,uint256,uint256,uint256)": "infinite",
						"editDay(uint256,uint256,uint256,uint256)": "infinite",
						"editMonth(uint256,uint256,uint256)": "infinite",
						"editYea(uint256,uint256,uint256)": "infinite",
						"editaction(uint256,string)": "infinite",
						"getfromlist(uint256)": "infinite",
						"remfromtodo(uint256)": "infinite"
					}
				},
				"methodIdentifiers": {
					"addtolist(string,uint256,uint256,uint256)": "e1b7edff",
					"editDay(uint256,uint256,uint256,uint256)": "56b08f10",
					"editMonth(uint256,uint256,uint256)": "82659eec",
					"editYea(uint256,uint256,uint256)": "3659e4d3",
					"editaction(uint256,string)": "12cbb972",
					"getfromlist(uint256)": "7aadbdd3",
					"remfromtodo(uint256)": "9351b078"
				}
			},
			"storageLayout": {
				"storage": [
					{
						"astId": 14,
						"contract": "Todo.sol:TodoList",
						"label": "todoarr",
						"offset": 0,
						"slot": "0",
						"type": "t_array(t_struct(Todo)10_storage)dyn_storage"
					}
				],
				"types": {
					"t_array(t_struct(Todo)10_storage)dyn_storage": {
						"base": "t_struct(Todo)10_storage",
						"encoding": "dynamic_array",
						"label": "struct TodoList.Todo[]",
						"numberOfBytes": "32"
					},
					"t_string_storage": {
						"encoding": "bytes",
						"label": "string",
						"numberOfBytes": "32"
					},
					"t_struct(Todo)10_storage": {
						"encoding": "inplace",
						"label": "struct TodoList.Todo",
						"members": [
							{
								"astId": 3,
								"contract": "Todo.sol:TodoList",
								"label": "action",
								"offset": 0,
								"slot": "0",
								"type": "t_string_storage"
							},
							{
								"astId": 5,
								"contract": "Todo.sol:TodoList",
								"label": "day",
								"offset": 0,
								"slot": "1",
								"type": "t_uint256"
							},
							{
								"astId": 7,
								"contract": "Todo.sol:TodoList",
								"label": "month",
								"offset": 0,
								"slot": "2",
								"type": "t_uint256"
							},
							{
								"astId": 9,
								"contract": "Todo.sol:TodoList",
								"label": "year",
								"offset": 0,
								"slot": "3",
								"type": "t_uint256"
							}
						],
						"numberOfBytes": "128"
					},
					"t_uint256": {
						"encoding": "inplace",
						"label": "uint256",
						"numberOfBytes": "32"
					}
				}
			},
			"userdoc": {
				"kind": "user",
				"methods": {},
				"version": 1
			}
		}
	}
}