{
	"Todo.sol": {
		"TodoList": {
			"abi": [
				{
					"inputs": [
						{
							"internalType": "string",
							"name": "_action",
							"type": "string"
						},
						{
							"internalType": "uint256",
							"name": "_day",
							"type": "uint256"
						},
						{
							"internalType": "uint256",
							"name": "_month",
							"type": "uint256"
						},
						{
							"internalType": "uint256",
							"name": "_year",
							"type": "uint256"
						}
					],
					"name": "addtolist",
					"outputs": [],
					"stateMutability": "nonpayable",
					"type": "function"
				},
				{
					"inputs": [
						{
							"internalType": "uint256",
							"name": "index",
							"type": "uint256"
						},
						{
							"internalType": "uint256",
							"name": "_day",
							"type": "uint256"
						},
						{
							"internalType": "uint256",
							"name": "_month",
							"type": "uint256"
						},
						{
							"internalType": "uint256",
							"name": "_year",
							"type": "uint256"
						}
					],
					"name": "editDay",
					"outputs": [],
					"stateMutability": "nonpayable",
					"type": "function"
				},
				{
					"inputs": [
						{
							"internalType": "uint256",
							"name": "index",
							"type": "uint256"
						},
						{
							"internalType": "uint256",
							"name": "_month",
							"type": "uint256"
						},
						{
							"internalType": "uint256",
							"name": "_year",
							"type": "uint256"
						}
					],
					"name": "editMonth",
					"outputs": [],
					"stateMutability": "nonpayable",
					"type": "function"
				},
				{
					"inputs": [
						{
							"internalType": "uint256",
							"name": "index",
							"type": "uint256"
						},
						{
							"internalType": "uint256",
							"name": "_year",
							"type": "uint256"
						}
					],
					"name": "editYear",
					"outputs": [],
					"stateMutability": "nonpayable",
					"type": "function"
				},
				{
					"inputs": [
						{
							"internalType": "uint256",
							"name": "index",
							"type": "uint256"
						},
						{
							"internalType": "string",
							"name": "_action",
							"type": "string"
						}
					],
					"name": "editaction",
					"outputs": [],
					"stateMutability": "nonpayable",
					"type": "function"
				},
				{
					"inputs": [
						{
							"internalType": "uint256",
							"name": "_index",
							"type": "uint256"
						}
					],
					"name": "getfromlist",
					"outputs": [
						{
							"internalType": "string",
							"name": "",
							"type": "string"
						},
						{
							"internalType": "uint256",
							"name": "",
							"type": "uint256"
						},
						{
							"internalType": "uint256",
							"name": "",
							"type": "uint256"
						},
						{
							"internalType": "uint256",
							"name": "",
							"type": "uint256"
						}
					],
					"stateMutability": "view",
					"type": "function"
				},
				{
					"inputs": [
						{
							"internalType": "uint256",
							"name": "index",
							"type": "uint256"
						}
					],
					"name": "remfromtodo",
					"outputs": [],
					"stateMutability": "nonpayable",
					"type": "function"
				}
			],
			"devdoc": {
				"kind": "dev",
				"methods": {},
				"version": 1
			},
			"evm": {
				"assembly": "    /* \"Todo.sol\":56:1363  contract TodoList{\r... */\n  mstore(0x40, 0x80)\n  callvalue\n  dup1\n  iszero\n  tag_1\n  jumpi\n  0x00\n  dup1\n  revert\ntag_1:\n  pop\n  dataSize(sub_0)\n  dup1\n  dataOffset(sub_0)\n  0x00\n  codecopy\n  0x00\n  return\nstop\n\nsub_0: assembly {\n        /* \"Todo.sol\":56:1363  contract TodoList{\r... */\n      mstore(0x40, 0x80)\n      callvalue\n      dup1\n      iszero\n      tag_1\n      jumpi\n      0x00\n      dup1\n      revert\n    tag_1:\n      pop\n      jumpi(tag_2, lt(calldatasize, 0x04))\n      shr(0xe0, calldataload(0x00))\n      dup1\n      0x82659eec\n      gt\n      tag_10\n      jumpi\n      dup1\n      0x82659eec\n      eq\n      tag_6\n      jumpi\n      dup1\n      0x9351b078\n      eq\n      tag_7\n      jumpi\n      dup1\n      0x973e2bbc\n      eq\n      tag_8\n      jumpi\n      dup1\n      0xe1b7edff\n      eq\n      tag_9\n      jumpi\n      jump(tag_2)\n    tag_10:\n      dup1\n      0x12cbb972\n      eq\n      tag_3\n      jumpi\n      dup1\n      0x56b08f10\n      eq\n      tag_4\n      jumpi\n      dup1\n      0x7aadbdd3\n      eq\n      tag_5\n      jumpi\n    tag_2:\n      0x00\n      dup1\n      revert\n        /* \"Todo.sol\":700:903  function editaction(uint index,string memory _action) external{\r... */\n    tag_3:\n      tag_11\n      0x04\n      dup1\n      calldatasize\n      sub\n      dup2\n      add\n      swap1\n      tag_12\n      swap2\n      swap1\n      tag_13\n      jump\t// in\n    tag_12:\n      tag_14\n      jump\t// in\n    tag_11:\n      stop\n        /* \"Todo.sol\":905:1086  function editDay(uint index,uint _day,uint _month,uint _year) external{\r... */\n    tag_4:\n      tag_15\n      0x04\n      dup1\n      calldatasize\n      sub\n      dup2\n      add\n      swap1\n      tag_16\n      swap2\n      swap1\n      tag_17\n      jump\t// in\n    tag_16:\n      tag_18\n      jump\t// in\n    tag_15:\n      stop\n        /* \"Todo.sol\":408:586  function getfromlist(uint _index) public view returns(string memory,uint,uint,uint){\r... */\n    tag_5:\n      tag_19\n      0x04\n      dup1\n      calldatasize\n      sub\n      dup2\n      add\n      swap1\n      tag_20\n      swap2\n      swap1\n      tag_21\n      jump\t// in\n    tag_20:\n      tag_22\n      jump\t// in\n    tag_19:\n      mload(0x40)\n      tag_23\n      swap5\n      swap4\n      swap3\n      swap2\n      swap1\n      tag_24\n      jump\t// in\n    tag_23:\n      mload(0x40)\n      dup1\n      swap2\n      sub\n      swap1\n      return\n        /* \"Todo.sol\":1088:1239  function editMonth(uint index,uint _month,uint _year) external{\r... */\n    tag_6:\n      tag_25\n      0x04\n      dup1\n      calldatasize\n      sub\n      dup2\n      add\n      swap1\n      tag_26\n      swap2\n      swap1\n      tag_27\n      jump\t// in\n    tag_26:\n      tag_28\n      jump\t// in\n    tag_25:\n      stop\n        /* \"Todo.sol\":590:698  function remfromtodo(uint index) external {\r... */\n    tag_7:\n      tag_29\n      0x04\n      dup1\n      calldatasize\n      sub\n      dup2\n      add\n      swap1\n      tag_30\n      swap2\n      swap1\n      tag_21\n      jump\t// in\n    tag_30:\n      tag_31\n      jump\t// in\n    tag_29:\n      stop\n        /* \"Todo.sol\":1241:1356  function editYear(uint index,uint _year) external{\r... */\n    tag_8:\n      tag_32\n      0x04\n      dup1\n      calldatasize\n      sub\n      dup2\n      add\n      swap1\n      tag_33\n      swap2\n      swap1\n      tag_34\n      jump\t// in\n    tag_33:\n      tag_35\n      jump\t// in\n    tag_32:\n      stop\n        /* \"Todo.sol\":215:406  function addtolist(string memory _action,uint _day,uint _month,uint _year) external {\r... */\n    tag_9:\n      tag_36\n      0x04\n      dup1\n      calldatasize\n      sub\n      dup2\n      add\n      swap1\n      tag_37\n      swap2\n      swap1\n      tag_38\n      jump\t// in\n    tag_37:\n      tag_39\n      jump\t// in\n    tag_36:\n      stop\n        /* \"Todo.sol\":700:903  function editaction(uint index,string memory _action) external{\r... */\n    tag_14:\n        /* \"Todo.sol\":765:783  Todo storage todos */\n      0x00\n        /* \"Todo.sol\":786:793  todoarr */\n      dup1\n        /* \"Todo.sol\":794:799  index */\n      dup4\n        /* \"Todo.sol\":786:800  todoarr[index] */\n      dup2\n      sload\n      dup2\n      lt\n      tag_41\n      jumpi\n      tag_42\n      tag_43\n      jump\t// in\n    tag_42:\n    tag_41:\n      swap1\n      0x00\n      mstore\n      keccak256(0x00, 0x20)\n      swap1\n      0x04\n      mul\n      add\n        /* \"Todo.sol\":765:800  Todo storage todos = todoarr[index] */\n      swap1\n      pop\n        /* \"Todo.sol\":818:825  _action */\n      dup2\n        /* \"Todo.sol\":803:808  todos */\n      dup2\n        /* \"Todo.sol\":803:815  todos.action */\n      0x00\n      add\n        /* \"Todo.sol\":803:825  todos.action = _action */\n      swap1\n      dup1\n      mload\n      swap1\n      0x20\n      add\n      swap1\n      tag_45\n      swap3\n      swap2\n      swap1\n      tag_46\n      jump\t// in\n    tag_45:\n      pop\n        /* \"Todo.sol\":762:903  {\r... */\n      pop\n        /* \"Todo.sol\":700:903  function editaction(uint index,string memory _action) external{\r... */\n      pop\n      pop\n      jump\t// out\n        /* \"Todo.sol\":905:1086  function editDay(uint index,uint _day,uint _month,uint _year) external{\r... */\n    tag_18:\n        /* \"Todo.sol\":978:996  Todo storage todos */\n      0x00\n        /* \"Todo.sol\":999:1006  todoarr */\n      dup1\n        /* \"Todo.sol\":1007:1012  index */\n      dup6\n        /* \"Todo.sol\":999:1013  todoarr[index] */\n      dup2\n      sload\n      dup2\n      lt\n      tag_48\n      jumpi\n      tag_49\n      tag_43\n      jump\t// in\n    tag_49:\n    tag_48:\n      swap1\n      0x00\n      mstore\n      keccak256(0x00, 0x20)\n      swap1\n      0x04\n      mul\n      add\n        /* \"Todo.sol\":978:1013  Todo storage todos = todoarr[index] */\n      swap1\n      pop\n        /* \"Todo.sol\":1028:1032  _day */\n      dup4\n        /* \"Todo.sol\":1016:1021  todos */\n      dup2\n        /* \"Todo.sol\":1016:1025  todos.day */\n      0x01\n      add\n        /* \"Todo.sol\":1016:1032  todos.day = _day */\n      dup2\n      swap1\n      sstore\n      pop\n        /* \"Todo.sol\":975:1086  {\r... */\n      pop\n        /* \"Todo.sol\":905:1086  function editDay(uint index,uint _day,uint _month,uint _year) external{\r... */\n      pop\n      pop\n      pop\n      pop\n      jump\t// out\n        /* \"Todo.sol\":408:586  function getfromlist(uint _index) public view returns(string memory,uint,uint,uint){\r... */\n    tag_22:\n        /* \"Todo.sol\":462:475  string memory */\n      0x60\n        /* \"Todo.sol\":476:480  uint */\n      0x00\n        /* \"Todo.sol\":481:485  uint */\n      dup1\n        /* \"Todo.sol\":486:490  uint */\n      0x00\n        /* \"Todo.sol\":494:510  Todo memory todo */\n      dup1\n        /* \"Todo.sol\":513:520  todoarr */\n      0x00\n        /* \"Todo.sol\":521:527  _index */\n      dup7\n        /* \"Todo.sol\":513:528  todoarr[_index] */\n      dup2\n      sload\n      dup2\n      lt\n      tag_52\n      jumpi\n      tag_53\n      tag_43\n      jump\t// in\n    tag_53:\n    tag_52:\n      swap1\n      0x00\n      mstore\n      keccak256(0x00, 0x20)\n      swap1\n      0x04\n      mul\n      add\n        /* \"Todo.sol\":494:528  Todo memory todo = todoarr[_index] */\n      mload(0x40)\n      dup1\n      0x80\n      add\n      0x40\n      mstore\n      swap1\n      dup2\n      0x00\n      dup3\n      add\n      dup1\n      sload\n      tag_55\n      swap1\n      tag_56\n      jump\t// in\n    tag_55:\n      dup1\n      0x1f\n      add\n      0x20\n      dup1\n      swap2\n      div\n      mul\n      0x20\n      add\n      mload(0x40)\n      swap1\n      dup2\n      add\n      0x40\n      mstore\n      dup1\n      swap3\n      swap2\n      swap1\n      dup2\n      dup2\n      mstore\n      0x20\n      add\n      dup3\n      dup1\n      sload\n      tag_57\n      swap1\n      tag_56\n      jump\t// in\n    tag_57:\n      dup1\n      iszero\n      tag_58\n      jumpi\n      dup1\n      0x1f\n      lt\n      tag_59\n      jumpi\n      0x0100\n      dup1\n      dup4\n      sload\n      div\n      mul\n      dup4\n      mstore\n      swap2\n      0x20\n      add\n      swap2\n      jump(tag_58)\n    tag_59:\n      dup3\n      add\n      swap2\n      swap1\n      0x00\n      mstore\n      keccak256(0x00, 0x20)\n      swap1\n    tag_60:\n      dup2\n      sload\n      dup2\n      mstore\n      swap1\n      0x01\n      add\n      swap1\n      0x20\n      add\n      dup1\n      dup4\n      gt\n      tag_60\n      jumpi\n      dup3\n      swap1\n      sub\n      0x1f\n      and\n      dup3\n      add\n      swap2\n    tag_58:\n      pop\n      pop\n      pop\n      pop\n      pop\n      dup2\n      mstore\n      0x20\n      add\n      0x01\n      dup3\n      add\n      sload\n      dup2\n      mstore\n      0x20\n      add\n      0x02\n      dup3\n      add\n      sload\n      dup2\n      mstore\n      0x20\n      add\n      0x03\n      dup3\n      add\n      sload\n      dup2\n      mstore\n      pop\n      pop\n      swap1\n      pop\n        /* \"Todo.sol\":540:544  todo */\n      dup1\n        /* \"Todo.sol\":540:551  todo.action */\n      0x00\n      add\n      mload\n        /* \"Todo.sol\":552:556  todo */\n      dup2\n        /* \"Todo.sol\":552:560  todo.day */\n      0x20\n      add\n      mload\n        /* \"Todo.sol\":561:565  todo */\n      dup3\n        /* \"Todo.sol\":561:571  todo.month */\n      0x40\n      add\n      mload\n        /* \"Todo.sol\":572:576  todo */\n      dup4\n        /* \"Todo.sol\":572:581  todo.year */\n      0x60\n      add\n      mload\n        /* \"Todo.sol\":532:582  return (todo.action,todo.day,todo.month,todo.year) */\n      swap5\n      pop\n      swap5\n      pop\n      swap5\n      pop\n      swap5\n      pop\n      pop\n        /* \"Todo.sol\":408:586  function getfromlist(uint _index) public view returns(string memory,uint,uint,uint){\r... */\n      swap2\n      swap4\n      pop\n      swap2\n      swap4\n      jump\t// out\n        /* \"Todo.sol\":1088:1239  function editMonth(uint index,uint _month,uint _year) external{\r... */\n    tag_28:\n        /* \"Todo.sol\":1153:1171  Todo storage todos */\n      0x00\n        /* \"Todo.sol\":1174:1181  todoarr */\n      dup1\n        /* \"Todo.sol\":1182:1187  index */\n      dup5\n        /* \"Todo.sol\":1174:1188  todoarr[index] */\n      dup2\n      sload\n      dup2\n      lt\n      tag_62\n      jumpi\n      tag_63\n      tag_43\n      jump\t// in\n    tag_63:\n    tag_62:\n      swap1\n      0x00\n      mstore\n      keccak256(0x00, 0x20)\n      swap1\n      0x04\n      mul\n      add\n        /* \"Todo.sol\":1153:1188  Todo storage todos = todoarr[index] */\n      swap1\n      pop\n        /* \"Todo.sol\":1205:1211  _month */\n      dup3\n        /* \"Todo.sol\":1191:1196  todos */\n      dup2\n        /* \"Todo.sol\":1191:1202  todos.month */\n      0x02\n      add\n        /* \"Todo.sol\":1191:1211  todos.month = _month */\n      dup2\n      swap1\n      sstore\n      pop\n        /* \"Todo.sol\":1150:1239  {\r... */\n      pop\n        /* \"Todo.sol\":1088:1239  function editMonth(uint index,uint _month,uint _year) external{\r... */\n      pop\n      pop\n      pop\n      jump\t// out\n        /* \"Todo.sol\":590:698  function remfromtodo(uint index) external {\r... */\n    tag_31:\n        /* \"Todo.sol\":652:659  todoarr */\n      0x00\n        /* \"Todo.sol\":676:677  1 */\n      0x01\n        /* \"Todo.sol\":660:667  todoarr */\n      0x00\n        /* \"Todo.sol\":660:674  todoarr.length */\n      dup1\n      sload\n      swap1\n      pop\n        /* \"Todo.sol\":660:677  todoarr.length -1 */\n      tag_66\n      swap2\n      swap1\n      tag_67\n      jump\t// in\n    tag_66:\n        /* \"Todo.sol\":652:678  todoarr[todoarr.length -1] */\n      dup2\n      sload\n      dup2\n      lt\n      tag_68\n      jumpi\n      tag_69\n      tag_43\n      jump\t// in\n    tag_69:\n    tag_68:\n      swap1\n      0x00\n      mstore\n      keccak256(0x00, 0x20)\n      swap1\n      0x04\n      mul\n      add\n        /* \"Todo.sol\":635:642  todoarr */\n      0x00\n        /* \"Todo.sol\":643:648  index */\n      dup3\n        /* \"Todo.sol\":635:649  todoarr[index] */\n      dup2\n      sload\n      dup2\n      lt\n      tag_71\n      jumpi\n      tag_72\n      tag_43\n      jump\t// in\n    tag_72:\n    tag_71:\n      swap1\n      0x00\n      mstore\n      keccak256(0x00, 0x20)\n      swap1\n      0x04\n      mul\n      add\n        /* \"Todo.sol\":635:678  todoarr[index] = todoarr[todoarr.length -1] */\n      0x00\n      dup3\n      add\n      dup2\n      0x00\n      add\n      swap1\n      dup1\n      sload\n      tag_74\n      swap1\n      tag_56\n      jump\t// in\n    tag_74:\n      tag_75\n      swap3\n      swap2\n      swap1\n      tag_76\n      jump\t// in\n    tag_75:\n      pop\n      0x01\n      dup3\n      add\n      sload\n      dup2\n      0x01\n      add\n      sstore\n      0x02\n      dup3\n      add\n      sload\n      dup2\n      0x02\n      add\n      sstore\n      0x03\n      dup3\n      add\n      sload\n      dup2\n      0x03\n      add\n      sstore\n      swap1\n      pop\n      pop\n        /* \"Todo.sol\":681:688  todoarr */\n      0x00\n        /* \"Todo.sol\":681:694  todoarr.pop() */\n      dup1\n      sload\n      dup1\n      tag_77\n      jumpi\n      tag_78\n      tag_79\n      jump\t// in\n    tag_78:\n    tag_77:\n      0x01\n      swap1\n      sub\n      dup2\n      dup2\n      swap1\n      0x00\n      mstore\n      keccak256(0x00, 0x20)\n      swap1\n      0x04\n      mul\n      add\n      0x00\n      dup1\n      dup3\n      add\n      0x00\n      tag_81\n      swap2\n      swap1\n      tag_82\n      jump\t// in\n    tag_81:\n      0x01\n      dup3\n      add\n      0x00\n      swap1\n      sstore\n      0x02\n      dup3\n      add\n      0x00\n      swap1\n      sstore\n      0x03\n      dup3\n      add\n      0x00\n      swap1\n      sstore\n      pop\n      pop\n      swap1\n      sstore\n        /* \"Todo.sol\":590:698  function remfromtodo(uint index) external {\r... */\n      pop\n      jump\t// out\n        /* \"Todo.sol\":1241:1356  function editYear(uint index,uint _year) external{\r... */\n    tag_35:\n        /* \"Todo.sol\":1293:1311  Todo storage todos */\n      0x00\n        /* \"Todo.sol\":1314:1321  todoarr */\n      dup1\n        /* \"Todo.sol\":1322:1327  index */\n      dup4\n        /* \"Todo.sol\":1314:1328  todoarr[index] */\n      dup2\n      sload\n      dup2\n      lt\n      tag_84\n      jumpi\n      tag_85\n      tag_43\n      jump\t// in\n    tag_85:\n    tag_84:\n      swap1\n      0x00\n      mstore\n      keccak256(0x00, 0x20)\n      swap1\n      0x04\n      mul\n      add\n        /* \"Todo.sol\":1293:1328  Todo storage todos = todoarr[index] */\n      swap1\n      pop\n        /* \"Todo.sol\":1347:1352  _year */\n      dup2\n        /* \"Todo.sol\":1334:1339  todos */\n      dup2\n        /* \"Todo.sol\":1334:1344  todos.year */\n      0x03\n      add\n        /* \"Todo.sol\":1334:1352  todos.year = _year */\n      dup2\n      swap1\n      sstore\n      pop\n        /* \"Todo.sol\":1290:1356  {\r... */\n      pop\n        /* \"Todo.sol\":1241:1356  function editYear(uint index,uint _year) external{\r... */\n      pop\n      pop\n      jump\t// out\n        /* \"Todo.sol\":215:406  function addtolist(string memory _action,uint _day,uint _month,uint _year) external {\r... */\n    tag_39:\n        /* \"Todo.sol\":302:309  todoarr */\n      0x00\n        /* \"Todo.sol\":315:401  Todo({\r... */\n      mload(0x40)\n      dup1\n      0x80\n      add\n      0x40\n      mstore\n      dup1\n        /* \"Todo.sol\":335:342  _action */\n      dup7\n        /* \"Todo.sol\":315:401  Todo({\r... */\n      dup2\n      mstore\n      0x20\n      add\n        /* \"Todo.sol\":354:358  _day */\n      dup6\n        /* \"Todo.sol\":315:401  Todo({\r... */\n      dup2\n      mstore\n      0x20\n      add\n        /* \"Todo.sol\":372:378  _month */\n      dup5\n        /* \"Todo.sol\":315:401  Todo({\r... */\n      dup2\n      mstore\n      0x20\n      add\n        /* \"Todo.sol\":392:397  _year */\n      dup4\n        /* \"Todo.sol\":315:401  Todo({\r... */\n      dup2\n      mstore\n      pop\n        /* \"Todo.sol\":302:402  todoarr.push(Todo({\r... */\n      swap1\n      dup1\n      0x01\n      dup2\n      sload\n      add\n      dup1\n      dup3\n      sstore\n      dup1\n      swap2\n      pop\n      pop\n      0x01\n      swap1\n      sub\n      swap1\n      0x00\n      mstore\n      keccak256(0x00, 0x20)\n      swap1\n      0x04\n      mul\n      add\n      0x00\n      swap1\n      swap2\n      swap1\n      swap2\n      swap1\n      swap2\n      pop\n      0x00\n      dup3\n      add\n      mload\n      dup2\n      0x00\n      add\n      swap1\n      dup1\n      mload\n      swap1\n      0x20\n      add\n      swap1\n      tag_89\n      swap3\n      swap2\n      swap1\n      tag_46\n      jump\t// in\n    tag_89:\n      pop\n      0x20\n      dup3\n      add\n      mload\n      dup2\n      0x01\n      add\n      sstore\n      0x40\n      dup3\n      add\n      mload\n      dup2\n      0x02\n      add\n      sstore\n      0x60\n      dup3\n      add\n      mload\n      dup2\n      0x03\n      add\n      sstore\n      pop\n      pop\n        /* \"Todo.sol\":215:406  function addtolist(string memory _action,uint _day,uint _month,uint _year) external {\r... */\n      pop\n      pop\n      pop\n      pop\n      jump\t// out\n    tag_46:\n      dup3\n      dup1\n      sload\n      tag_90\n      swap1\n      tag_56\n      jump\t// in\n    tag_90:\n      swap1\n      0x00\n      mstore\n      keccak256(0x00, 0x20)\n      swap1\n      0x1f\n      add\n      0x20\n      swap1\n      div\n      dup2\n      add\n      swap3\n      dup3\n      tag_92\n      jumpi\n      0x00\n      dup6\n      sstore\n      jump(tag_91)\n    tag_92:\n      dup3\n      0x1f\n      lt\n      tag_93\n      jumpi\n      dup1\n      mload\n      not(0xff)\n      and\n      dup4\n      dup1\n      add\n      or\n      dup6\n      sstore\n      jump(tag_91)\n    tag_93:\n      dup3\n      dup1\n      add\n      0x01\n      add\n      dup6\n      sstore\n      dup3\n      iszero\n      tag_91\n      jumpi\n      swap2\n      dup3\n      add\n    tag_94:\n      dup3\n      dup2\n      gt\n      iszero\n      tag_95\n      jumpi\n      dup3\n      mload\n      dup3\n      sstore\n      swap2\n      0x20\n      add\n      swap2\n      swap1\n      0x01\n      add\n      swap1\n      jump(tag_94)\n    tag_95:\n    tag_91:\n      pop\n      swap1\n      pop\n      tag_96\n      swap2\n      swap1\n      tag_97\n      jump\t// in\n    tag_96:\n      pop\n      swap1\n      jump\t// out\n    tag_76:\n      dup3\n      dup1\n      sload\n      tag_98\n      swap1\n      tag_56\n      jump\t// in\n    tag_98:\n      swap1\n      0x00\n      mstore\n      keccak256(0x00, 0x20)\n      swap1\n      0x1f\n      add\n      0x20\n      swap1\n      div\n      dup2\n      add\n      swap3\n      dup3\n      tag_100\n      jumpi\n      0x00\n      dup6\n      sstore\n      jump(tag_99)\n    tag_100:\n      dup3\n      0x1f\n      lt\n      tag_101\n      jumpi\n      dup1\n      sload\n      dup6\n      sstore\n      jump(tag_99)\n    tag_101:\n      dup3\n      dup1\n      add\n      0x01\n      add\n      dup6\n      sstore\n      dup3\n      iszero\n      tag_99\n      jumpi\n      0x00\n      mstore\n      keccak256(0x00, 0x20)\n      swap2\n      0x1f\n      add\n      0x20\n      swap1\n      div\n      dup3\n      add\n    tag_102:\n      dup3\n      dup2\n      gt\n      iszero\n      tag_103\n      jumpi\n      dup3\n      sload\n      dup3\n      sstore\n      swap2\n      0x01\n      add\n      swap2\n      swap1\n      0x01\n      add\n      swap1\n      jump(tag_102)\n    tag_103:\n    tag_99:\n      pop\n      swap1\n      pop\n      tag_104\n      swap2\n      swap1\n      tag_97\n      jump\t// in\n    tag_104:\n      pop\n      swap1\n      jump\t// out\n    tag_82:\n      pop\n      dup1\n      sload\n      tag_105\n      swap1\n      tag_56\n      jump\t// in\n    tag_105:\n      0x00\n      dup3\n      sstore\n      dup1\n      0x1f\n      lt\n      tag_107\n      jumpi\n      pop\n      jump(tag_106)\n    tag_107:\n      0x1f\n      add\n      0x20\n      swap1\n      div\n      swap1\n      0x00\n      mstore\n      keccak256(0x00, 0x20)\n      swap1\n      dup2\n      add\n      swap1\n      tag_108\n      swap2\n      swap1\n      tag_97\n      jump\t// in\n    tag_108:\n    tag_106:\n      pop\n      jump\t// out\n    tag_97:\n    tag_109:\n      dup1\n      dup3\n      gt\n      iszero\n      tag_110\n      jumpi\n      0x00\n      dup2\n      0x00\n      swap1\n      sstore\n      pop\n      0x01\n      add\n      jump(tag_109)\n    tag_110:\n      pop\n      swap1\n      jump\t// out\n        /* \"#utility.yul\":7:419   */\n    tag_112:\n        /* \"#utility.yul\":85:90   */\n      0x00\n        /* \"#utility.yul\":110:176   */\n      tag_114\n        /* \"#utility.yul\":126:175   */\n      tag_115\n        /* \"#utility.yul\":168:174   */\n      dup5\n        /* \"#utility.yul\":126:175   */\n      tag_116\n      jump\t// in\n    tag_115:\n        /* \"#utility.yul\":110:176   */\n      tag_117\n      jump\t// in\n    tag_114:\n        /* \"#utility.yul\":101:176   */\n      swap1\n      pop\n        /* \"#utility.yul\":199:205   */\n      dup3\n        /* \"#utility.yul\":192:197   */\n      dup2\n        /* \"#utility.yul\":185:206   */\n      mstore\n        /* \"#utility.yul\":237:241   */\n      0x20\n        /* \"#utility.yul\":230:235   */\n      dup2\n        /* \"#utility.yul\":226:242   */\n      add\n        /* \"#utility.yul\":275:278   */\n      dup5\n        /* \"#utility.yul\":266:272   */\n      dup5\n        /* \"#utility.yul\":261:264   */\n      dup5\n        /* \"#utility.yul\":257:273   */\n      add\n        /* \"#utility.yul\":254:279   */\n      gt\n        /* \"#utility.yul\":251:363   */\n      iszero\n      tag_118\n      jumpi\n        /* \"#utility.yul\":282:361   */\n      tag_119\n      tag_120\n      jump\t// in\n    tag_119:\n        /* \"#utility.yul\":251:363   */\n    tag_118:\n        /* \"#utility.yul\":372:413   */\n      tag_121\n        /* \"#utility.yul\":406:412   */\n      dup5\n        /* \"#utility.yul\":401:404   */\n      dup3\n        /* \"#utility.yul\":396:399   */\n      dup6\n        /* \"#utility.yul\":372:413   */\n      tag_122\n      jump\t// in\n    tag_121:\n        /* \"#utility.yul\":91:419   */\n      pop\n        /* \"#utility.yul\":7:419   */\n      swap4\n      swap3\n      pop\n      pop\n      pop\n      jump\t// out\n        /* \"#utility.yul\":439:779   */\n    tag_123:\n        /* \"#utility.yul\":495:500   */\n      0x00\n        /* \"#utility.yul\":544:547   */\n      dup3\n        /* \"#utility.yul\":537:541   */\n      0x1f\n        /* \"#utility.yul\":529:535   */\n      dup4\n        /* \"#utility.yul\":525:542   */\n      add\n        /* \"#utility.yul\":521:548   */\n      slt\n        /* \"#utility.yul\":511:633   */\n      tag_125\n      jumpi\n        /* \"#utility.yul\":552:631   */\n      tag_126\n      tag_127\n      jump\t// in\n    tag_126:\n        /* \"#utility.yul\":511:633   */\n    tag_125:\n        /* \"#utility.yul\":669:675   */\n      dup2\n        /* \"#utility.yul\":656:676   */\n      calldataload\n        /* \"#utility.yul\":694:773   */\n      tag_128\n        /* \"#utility.yul\":769:772   */\n      dup5\n        /* \"#utility.yul\":761:767   */\n      dup3\n        /* \"#utility.yul\":754:758   */\n      0x20\n        /* \"#utility.yul\":746:752   */\n      dup7\n        /* \"#utility.yul\":742:759   */\n      add\n        /* \"#utility.yul\":694:773   */\n      tag_112\n      jump\t// in\n    tag_128:\n        /* \"#utility.yul\":685:773   */\n      swap2\n      pop\n        /* \"#utility.yul\":501:779   */\n      pop\n        /* \"#utility.yul\":439:779   */\n      swap3\n      swap2\n      pop\n      pop\n      jump\t// out\n        /* \"#utility.yul\":785:924   */\n    tag_129:\n        /* \"#utility.yul\":831:836   */\n      0x00\n        /* \"#utility.yul\":869:875   */\n      dup2\n        /* \"#utility.yul\":856:876   */\n      calldataload\n        /* \"#utility.yul\":847:876   */\n      swap1\n      pop\n        /* \"#utility.yul\":885:918   */\n      tag_131\n        /* \"#utility.yul\":912:917   */\n      dup2\n        /* \"#utility.yul\":885:918   */\n      tag_132\n      jump\t// in\n    tag_131:\n        /* \"#utility.yul\":785:924   */\n      swap3\n      swap2\n      pop\n      pop\n      jump\t// out\n        /* \"#utility.yul\":930:1875   */\n    tag_38:\n        /* \"#utility.yul\":1026:1032   */\n      0x00\n        /* \"#utility.yul\":1034:1040   */\n      dup1\n        /* \"#utility.yul\":1042:1048   */\n      0x00\n        /* \"#utility.yul\":1050:1056   */\n      dup1\n        /* \"#utility.yul\":1099:1102   */\n      0x80\n        /* \"#utility.yul\":1087:1096   */\n      dup6\n        /* \"#utility.yul\":1078:1085   */\n      dup8\n        /* \"#utility.yul\":1074:1097   */\n      sub\n        /* \"#utility.yul\":1070:1103   */\n      slt\n        /* \"#utility.yul\":1067:1187   */\n      iszero\n      tag_134\n      jumpi\n        /* \"#utility.yul\":1106:1185   */\n      tag_135\n      tag_136\n      jump\t// in\n    tag_135:\n        /* \"#utility.yul\":1067:1187   */\n    tag_134:\n        /* \"#utility.yul\":1254:1255   */\n      0x00\n        /* \"#utility.yul\":1243:1252   */\n      dup6\n        /* \"#utility.yul\":1239:1256   */\n      add\n        /* \"#utility.yul\":1226:1257   */\n      calldataload\n        /* \"#utility.yul\":1284:1302   */\n      0xffffffffffffffff\n        /* \"#utility.yul\":1276:1282   */\n      dup2\n        /* \"#utility.yul\":1273:1303   */\n      gt\n        /* \"#utility.yul\":1270:1387   */\n      iszero\n      tag_137\n      jumpi\n        /* \"#utility.yul\":1306:1385   */\n      tag_138\n      tag_139\n      jump\t// in\n    tag_138:\n        /* \"#utility.yul\":1270:1387   */\n    tag_137:\n        /* \"#utility.yul\":1411:1474   */\n      tag_140\n        /* \"#utility.yul\":1466:1473   */\n      dup8\n        /* \"#utility.yul\":1457:1463   */\n      dup3\n        /* \"#utility.yul\":1446:1455   */\n      dup9\n        /* \"#utility.yul\":1442:1464   */\n      add\n        /* \"#utility.yul\":1411:1474   */\n      tag_123\n      jump\t// in\n    tag_140:\n        /* \"#utility.yul\":1401:1474   */\n      swap5\n      pop\n        /* \"#utility.yul\":1197:1484   */\n      pop\n        /* \"#utility.yul\":1523:1525   */\n      0x20\n        /* \"#utility.yul\":1549:1602   */\n      tag_141\n        /* \"#utility.yul\":1594:1601   */\n      dup8\n        /* \"#utility.yul\":1585:1591   */\n      dup3\n        /* \"#utility.yul\":1574:1583   */\n      dup9\n        /* \"#utility.yul\":1570:1592   */\n      add\n        /* \"#utility.yul\":1549:1602   */\n      tag_129\n      jump\t// in\n    tag_141:\n        /* \"#utility.yul\":1539:1602   */\n      swap4\n      pop\n        /* \"#utility.yul\":1494:1612   */\n      pop\n        /* \"#utility.yul\":1651:1653   */\n      0x40\n        /* \"#utility.yul\":1677:1730   */\n      tag_142\n        /* \"#utility.yul\":1722:1729   */\n      dup8\n        /* \"#utility.yul\":1713:1719   */\n      dup3\n        /* \"#utility.yul\":1702:1711   */\n      dup9\n        /* \"#utility.yul\":1698:1720   */\n      add\n        /* \"#utility.yul\":1677:1730   */\n      tag_129\n      jump\t// in\n    tag_142:\n        /* \"#utility.yul\":1667:1730   */\n      swap3\n      pop\n        /* \"#utility.yul\":1622:1740   */\n      pop\n        /* \"#utility.yul\":1779:1781   */\n      0x60\n        /* \"#utility.yul\":1805:1858   */\n      tag_143\n        /* \"#utility.yul\":1850:1857   */\n      dup8\n        /* \"#utility.yul\":1841:1847   */\n      dup3\n        /* \"#utility.yul\":1830:1839   */\n      dup9\n        /* \"#utility.yul\":1826:1848   */\n      add\n        /* \"#utility.yul\":1805:1858   */\n      tag_129\n      jump\t// in\n    tag_143:\n        /* \"#utility.yul\":1795:1858   */\n      swap2\n      pop\n        /* \"#utility.yul\":1750:1868   */\n      pop\n        /* \"#utility.yul\":930:1875   */\n      swap3\n      swap6\n      swap2\n      swap5\n      pop\n      swap3\n      pop\n      jump\t// out\n        /* \"#utility.yul\":1881:2210   */\n    tag_21:\n        /* \"#utility.yul\":1940:1946   */\n      0x00\n        /* \"#utility.yul\":1989:1991   */\n      0x20\n        /* \"#utility.yul\":1977:1986   */\n      dup3\n        /* \"#utility.yul\":1968:1975   */\n      dup5\n        /* \"#utility.yul\":1964:1987   */\n      sub\n        /* \"#utility.yul\":1960:1992   */\n      slt\n        /* \"#utility.yul\":1957:2076   */\n      iszero\n      tag_145\n      jumpi\n        /* \"#utility.yul\":1995:2074   */\n      tag_146\n      tag_136\n      jump\t// in\n    tag_146:\n        /* \"#utility.yul\":1957:2076   */\n    tag_145:\n        /* \"#utility.yul\":2115:2116   */\n      0x00\n        /* \"#utility.yul\":2140:2193   */\n      tag_147\n        /* \"#utility.yul\":2185:2192   */\n      dup5\n        /* \"#utility.yul\":2176:2182   */\n      dup3\n        /* \"#utility.yul\":2165:2174   */\n      dup6\n        /* \"#utility.yul\":2161:2183   */\n      add\n        /* \"#utility.yul\":2140:2193   */\n      tag_129\n      jump\t// in\n    tag_147:\n        /* \"#utility.yul\":2130:2193   */\n      swap2\n      pop\n        /* \"#utility.yul\":2086:2203   */\n      pop\n        /* \"#utility.yul\":1881:2210   */\n      swap3\n      swap2\n      pop\n      pop\n      jump\t// out\n        /* \"#utility.yul\":2216:2870   */\n    tag_13:\n        /* \"#utility.yul\":2294:2300   */\n      0x00\n        /* \"#utility.yul\":2302:2308   */\n      dup1\n        /* \"#utility.yul\":2351:2353   */\n      0x40\n        /* \"#utility.yul\":2339:2348   */\n      dup4\n        /* \"#utility.yul\":2330:2337   */\n      dup6\n        /* \"#utility.yul\":2326:2349   */\n      sub\n        /* \"#utility.yul\":2322:2354   */\n      slt\n        /* \"#utility.yul\":2319:2438   */\n      iszero\n      tag_149\n      jumpi\n        /* \"#utility.yul\":2357:2436   */\n      tag_150\n      tag_136\n      jump\t// in\n    tag_150:\n        /* \"#utility.yul\":2319:2438   */\n    tag_149:\n        /* \"#utility.yul\":2477:2478   */\n      0x00\n        /* \"#utility.yul\":2502:2555   */\n      tag_151\n        /* \"#utility.yul\":2547:2554   */\n      dup6\n        /* \"#utility.yul\":2538:2544   */\n      dup3\n        /* \"#utility.yul\":2527:2536   */\n      dup7\n        /* \"#utility.yul\":2523:2545   */\n      add\n        /* \"#utility.yul\":2502:2555   */\n      tag_129\n      jump\t// in\n    tag_151:\n        /* \"#utility.yul\":2492:2555   */\n      swap3\n      pop\n        /* \"#utility.yul\":2448:2565   */\n      pop\n        /* \"#utility.yul\":2632:2634   */\n      0x20\n        /* \"#utility.yul\":2621:2630   */\n      dup4\n        /* \"#utility.yul\":2617:2635   */\n      add\n        /* \"#utility.yul\":2604:2636   */\n      calldataload\n        /* \"#utility.yul\":2663:2681   */\n      0xffffffffffffffff\n        /* \"#utility.yul\":2655:2661   */\n      dup2\n        /* \"#utility.yul\":2652:2682   */\n      gt\n        /* \"#utility.yul\":2649:2766   */\n      iszero\n      tag_152\n      jumpi\n        /* \"#utility.yul\":2685:2764   */\n      tag_153\n      tag_139\n      jump\t// in\n    tag_153:\n        /* \"#utility.yul\":2649:2766   */\n    tag_152:\n        /* \"#utility.yul\":2790:2853   */\n      tag_154\n        /* \"#utility.yul\":2845:2852   */\n      dup6\n        /* \"#utility.yul\":2836:2842   */\n      dup3\n        /* \"#utility.yul\":2825:2834   */\n      dup7\n        /* \"#utility.yul\":2821:2843   */\n      add\n        /* \"#utility.yul\":2790:2853   */\n      tag_123\n      jump\t// in\n    tag_154:\n        /* \"#utility.yul\":2780:2853   */\n      swap2\n      pop\n        /* \"#utility.yul\":2575:2863   */\n      pop\n        /* \"#utility.yul\":2216:2870   */\n      swap3\n      pop\n      swap3\n      swap1\n      pop\n      jump\t// out\n        /* \"#utility.yul\":2876:3350   */\n    tag_34:\n        /* \"#utility.yul\":2944:2950   */\n      0x00\n        /* \"#utility.yul\":2952:2958   */\n      dup1\n        /* \"#utility.yul\":3001:3003   */\n      0x40\n        /* \"#utility.yul\":2989:2998   */\n      dup4\n        /* \"#utility.yul\":2980:2987   */\n      dup6\n        /* \"#utility.yul\":2976:2999   */\n      sub\n        /* \"#utility.yul\":2972:3004   */\n      slt\n        /* \"#utility.yul\":2969:3088   */\n      iszero\n      tag_156\n      jumpi\n        /* \"#utility.yul\":3007:3086   */\n      tag_157\n      tag_136\n      jump\t// in\n    tag_157:\n        /* \"#utility.yul\":2969:3088   */\n    tag_156:\n        /* \"#utility.yul\":3127:3128   */\n      0x00\n        /* \"#utility.yul\":3152:3205   */\n      tag_158\n        /* \"#utility.yul\":3197:3204   */\n      dup6\n        /* \"#utility.yul\":3188:3194   */\n      dup3\n        /* \"#utility.yul\":3177:3186   */\n      dup7\n        /* \"#utility.yul\":3173:3195   */\n      add\n        /* \"#utility.yul\":3152:3205   */\n      tag_129\n      jump\t// in\n    tag_158:\n        /* \"#utility.yul\":3142:3205   */\n      swap3\n      pop\n        /* \"#utility.yul\":3098:3215   */\n      pop\n        /* \"#utility.yul\":3254:3256   */\n      0x20\n        /* \"#utility.yul\":3280:3333   */\n      tag_159\n        /* \"#utility.yul\":3325:3332   */\n      dup6\n        /* \"#utility.yul\":3316:3322   */\n      dup3\n        /* \"#utility.yul\":3305:3314   */\n      dup7\n        /* \"#utility.yul\":3301:3323   */\n      add\n        /* \"#utility.yul\":3280:3333   */\n      tag_129\n      jump\t// in\n    tag_159:\n        /* \"#utility.yul\":3270:3333   */\n      swap2\n      pop\n        /* \"#utility.yul\":3225:3343   */\n      pop\n        /* \"#utility.yul\":2876:3350   */\n      swap3\n      pop\n      swap3\n      swap1\n      pop\n      jump\t// out\n        /* \"#utility.yul\":3356:3975   */\n    tag_27:\n        /* \"#utility.yul\":3433:3439   */\n      0x00\n        /* \"#utility.yul\":3441:3447   */\n      dup1\n        /* \"#utility.yul\":3449:3455   */\n      0x00\n        /* \"#utility.yul\":3498:3500   */\n      0x60\n        /* \"#utility.yul\":3486:3495   */\n      dup5\n        /* \"#utility.yul\":3477:3484   */\n      dup7\n        /* \"#utility.yul\":3473:3496   */\n      sub\n        /* \"#utility.yul\":3469:3501   */\n      slt\n        /* \"#utility.yul\":3466:3585   */\n      iszero\n      tag_161\n      jumpi\n        /* \"#utility.yul\":3504:3583   */\n      tag_162\n      tag_136\n      jump\t// in\n    tag_162:\n        /* \"#utility.yul\":3466:3585   */\n    tag_161:\n        /* \"#utility.yul\":3624:3625   */\n      0x00\n        /* \"#utility.yul\":3649:3702   */\n      tag_163\n        /* \"#utility.yul\":3694:3701   */\n      dup7\n        /* \"#utility.yul\":3685:3691   */\n      dup3\n        /* \"#utility.yul\":3674:3683   */\n      dup8\n        /* \"#utility.yul\":3670:3692   */\n      add\n        /* \"#utility.yul\":3649:3702   */\n      tag_129\n      jump\t// in\n    tag_163:\n        /* \"#utility.yul\":3639:3702   */\n      swap4\n      pop\n        /* \"#utility.yul\":3595:3712   */\n      pop\n        /* \"#utility.yul\":3751:3753   */\n      0x20\n        /* \"#utility.yul\":3777:3830   */\n      tag_164\n        /* \"#utility.yul\":3822:3829   */\n      dup7\n        /* \"#utility.yul\":3813:3819   */\n      dup3\n        /* \"#utility.yul\":3802:3811   */\n      dup8\n        /* \"#utility.yul\":3798:3820   */\n      add\n        /* \"#utility.yul\":3777:3830   */\n      tag_129\n      jump\t// in\n    tag_164:\n        /* \"#utility.yul\":3767:3830   */\n      swap3\n      pop\n        /* \"#utility.yul\":3722:3840   */\n      pop\n        /* \"#utility.yul\":3879:3881   */\n      0x40\n        /* \"#utility.yul\":3905:3958   */\n      tag_165\n        /* \"#utility.yul\":3950:3957   */\n      dup7\n        /* \"#utility.yul\":3941:3947   */\n      dup3\n        /* \"#utility.yul\":3930:3939   */\n      dup8\n        /* \"#utility.yul\":3926:3948   */\n      add\n        /* \"#utility.yul\":3905:3958   */\n      tag_129\n      jump\t// in\n    tag_165:\n        /* \"#utility.yul\":3895:3958   */\n      swap2\n      pop\n        /* \"#utility.yul\":3850:3968   */\n      pop\n        /* \"#utility.yul\":3356:3975   */\n      swap3\n      pop\n      swap3\n      pop\n      swap3\n      jump\t// out\n        /* \"#utility.yul\":3981:4746   */\n    tag_17:\n        /* \"#utility.yul\":4067:4073   */\n      0x00\n        /* \"#utility.yul\":4075:4081   */\n      dup1\n        /* \"#utility.yul\":4083:4089   */\n      0x00\n        /* \"#utility.yul\":4091:4097   */\n      dup1\n        /* \"#utility.yul\":4140:4143   */\n      0x80\n        /* \"#utility.yul\":4128:4137   */\n      dup6\n        /* \"#utility.yul\":4119:4126   */\n      dup8\n        /* \"#utility.yul\":4115:4138   */\n      sub\n        /* \"#utility.yul\":4111:4144   */\n      slt\n        /* \"#utility.yul\":4108:4228   */\n      iszero\n      tag_167\n      jumpi\n        /* \"#utility.yul\":4147:4226   */\n      tag_168\n      tag_136\n      jump\t// in\n    tag_168:\n        /* \"#utility.yul\":4108:4228   */\n    tag_167:\n        /* \"#utility.yul\":4267:4268   */\n      0x00\n        /* \"#utility.yul\":4292:4345   */\n      tag_169\n        /* \"#utility.yul\":4337:4344   */\n      dup8\n        /* \"#utility.yul\":4328:4334   */\n      dup3\n        /* \"#utility.yul\":4317:4326   */\n      dup9\n        /* \"#utility.yul\":4313:4335   */\n      add\n        /* \"#utility.yul\":4292:4345   */\n      tag_129\n      jump\t// in\n    tag_169:\n        /* \"#utility.yul\":4282:4345   */\n      swap5\n      pop\n        /* \"#utility.yul\":4238:4355   */\n      pop\n        /* \"#utility.yul\":4394:4396   */\n      0x20\n        /* \"#utility.yul\":4420:4473   */\n      tag_170\n        /* \"#utility.yul\":4465:4472   */\n      dup8\n        /* \"#utility.yul\":4456:4462   */\n      dup3\n        /* \"#utility.yul\":4445:4454   */\n      dup9\n        /* \"#utility.yul\":4441:4463   */\n      add\n        /* \"#utility.yul\":4420:4473   */\n      tag_129\n      jump\t// in\n    tag_170:\n        /* \"#utility.yul\":4410:4473   */\n      swap4\n      pop\n        /* \"#utility.yul\":4365:4483   */\n      pop\n        /* \"#utility.yul\":4522:4524   */\n      0x40\n        /* \"#utility.yul\":4548:4601   */\n      tag_171\n        /* \"#utility.yul\":4593:4600   */\n      dup8\n        /* \"#utility.yul\":4584:4590   */\n      dup3\n        /* \"#utility.yul\":4573:4582   */\n      dup9\n        /* \"#utility.yul\":4569:4591   */\n      add\n        /* \"#utility.yul\":4548:4601   */\n      tag_129\n      jump\t// in\n    tag_171:\n        /* \"#utility.yul\":4538:4601   */\n      swap3\n      pop\n        /* \"#utility.yul\":4493:4611   */\n      pop\n        /* \"#utility.yul\":4650:4652   */\n      0x60\n        /* \"#utility.yul\":4676:4729   */\n      tag_172\n        /* \"#utility.yul\":4721:4728   */\n      dup8\n        /* \"#utility.yul\":4712:4718   */\n      dup3\n        /* \"#utility.yul\":4701:4710   */\n      dup9\n        /* \"#utility.yul\":4697:4719   */\n      add\n        /* \"#utility.yul\":4676:4729   */\n      tag_129\n      jump\t// in\n    tag_172:\n        /* \"#utility.yul\":4666:4729   */\n      swap2\n      pop\n        /* \"#utility.yul\":4621:4739   */\n      pop\n        /* \"#utility.yul\":3981:4746   */\n      swap3\n      swap6\n      swap2\n      swap5\n      pop\n      swap3\n      pop\n      jump\t// out\n        /* \"#utility.yul\":4752:5116   */\n    tag_173:\n        /* \"#utility.yul\":4840:4843   */\n      0x00\n        /* \"#utility.yul\":4868:4907   */\n      tag_175\n        /* \"#utility.yul\":4901:4906   */\n      dup3\n        /* \"#utility.yul\":4868:4907   */\n      tag_176\n      jump\t// in\n    tag_175:\n        /* \"#utility.yul\":4923:4994   */\n      tag_177\n        /* \"#utility.yul\":4987:4993   */\n      dup2\n        /* \"#utility.yul\":4982:4985   */\n      dup6\n        /* \"#utility.yul\":4923:4994   */\n      tag_178\n      jump\t// in\n    tag_177:\n        /* \"#utility.yul\":4916:4994   */\n      swap4\n      pop\n        /* \"#utility.yul\":5003:5055   */\n      tag_179\n        /* \"#utility.yul\":5048:5054   */\n      dup2\n        /* \"#utility.yul\":5043:5046   */\n      dup6\n        /* \"#utility.yul\":5036:5040   */\n      0x20\n        /* \"#utility.yul\":5029:5034   */\n      dup7\n        /* \"#utility.yul\":5025:5041   */\n      add\n        /* \"#utility.yul\":5003:5055   */\n      tag_180\n      jump\t// in\n    tag_179:\n        /* \"#utility.yul\":5080:5109   */\n      tag_181\n        /* \"#utility.yul\":5102:5108   */\n      dup2\n        /* \"#utility.yul\":5080:5109   */\n      tag_182\n      jump\t// in\n    tag_181:\n        /* \"#utility.yul\":5075:5078   */\n      dup5\n        /* \"#utility.yul\":5071:5110   */\n      add\n        /* \"#utility.yul\":5064:5110   */\n      swap2\n      pop\n        /* \"#utility.yul\":4844:5116   */\n      pop\n        /* \"#utility.yul\":4752:5116   */\n      swap3\n      swap2\n      pop\n      pop\n      jump\t// out\n        /* \"#utility.yul\":5122:5240   */\n    tag_183:\n        /* \"#utility.yul\":5209:5233   */\n      tag_185\n        /* \"#utility.yul\":5227:5232   */\n      dup2\n        /* \"#utility.yul\":5209:5233   */\n      tag_186\n      jump\t// in\n    tag_185:\n        /* \"#utility.yul\":5204:5207   */\n      dup3\n        /* \"#utility.yul\":5197:5234   */\n      mstore\n        /* \"#utility.yul\":5122:5240   */\n      pop\n      pop\n      jump\t// out\n        /* \"#utility.yul\":5246:5890   */\n    tag_24:\n        /* \"#utility.yul\":5443:5447   */\n      0x00\n        /* \"#utility.yul\":5481:5484   */\n      0x80\n        /* \"#utility.yul\":5470:5479   */\n      dup3\n        /* \"#utility.yul\":5466:5485   */\n      add\n        /* \"#utility.yul\":5458:5485   */\n      swap1\n      pop\n        /* \"#utility.yul\":5531:5540   */\n      dup2\n        /* \"#utility.yul\":5525:5529   */\n      dup2\n        /* \"#utility.yul\":5521:5541   */\n      sub\n        /* \"#utility.yul\":5517:5518   */\n      0x00\n        /* \"#utility.yul\":5506:5515   */\n      dup4\n        /* \"#utility.yul\":5502:5519   */\n      add\n        /* \"#utility.yul\":5495:5542   */\n      mstore\n        /* \"#utility.yul\":5559:5637   */\n      tag_188\n        /* \"#utility.yul\":5632:5636   */\n      dup2\n        /* \"#utility.yul\":5623:5629   */\n      dup8\n        /* \"#utility.yul\":5559:5637   */\n      tag_173\n      jump\t// in\n    tag_188:\n        /* \"#utility.yul\":5551:5637   */\n      swap1\n      pop\n        /* \"#utility.yul\":5647:5719   */\n      tag_189\n        /* \"#utility.yul\":5715:5717   */\n      0x20\n        /* \"#utility.yul\":5704:5713   */\n      dup4\n        /* \"#utility.yul\":5700:5718   */\n      add\n        /* \"#utility.yul\":5691:5697   */\n      dup7\n        /* \"#utility.yul\":5647:5719   */\n      tag_183\n      jump\t// in\n    tag_189:\n        /* \"#utility.yul\":5729:5801   */\n      tag_190\n        /* \"#utility.yul\":5797:5799   */\n      0x40\n        /* \"#utility.yul\":5786:5795   */\n      dup4\n        /* \"#utility.yul\":5782:5800   */\n      add\n        /* \"#utility.yul\":5773:5779   */\n      dup6\n        /* \"#utility.yul\":5729:5801   */\n      tag_183\n      jump\t// in\n    tag_190:\n        /* \"#utility.yul\":5811:5883   */\n      tag_191\n        /* \"#utility.yul\":5879:5881   */\n      0x60\n        /* \"#utility.yul\":5868:5877   */\n      dup4\n        /* \"#utility.yul\":5864:5882   */\n      add\n        /* \"#utility.yul\":5855:5861   */\n      dup5\n        /* \"#utility.yul\":5811:5883   */\n      tag_183\n      jump\t// in\n    tag_191:\n        /* \"#utility.yul\":5246:5890   */\n      swap6\n      swap5\n      pop\n      pop\n      pop\n      pop\n      pop\n      jump\t// out\n        /* \"#utility.yul\":5896:6025   */\n    tag_117:\n        /* \"#utility.yul\":5930:5936   */\n      0x00\n        /* \"#utility.yul\":5957:5977   */\n      tag_193\n      tag_194\n      jump\t// in\n    tag_193:\n        /* \"#utility.yul\":5947:5977   */\n      swap1\n      pop\n        /* \"#utility.yul\":5986:6019   */\n      tag_195\n        /* \"#utility.yul\":6014:6018   */\n      dup3\n        /* \"#utility.yul\":6006:6012   */\n      dup3\n        /* \"#utility.yul\":5986:6019   */\n      tag_196\n      jump\t// in\n    tag_195:\n        /* \"#utility.yul\":5896:6025   */\n      swap2\n      swap1\n      pop\n      jump\t// out\n        /* \"#utility.yul\":6031:6106   */\n    tag_194:\n        /* \"#utility.yul\":6064:6070   */\n      0x00\n        /* \"#utility.yul\":6097:6099   */\n      0x40\n        /* \"#utility.yul\":6091:6100   */\n      mload\n        /* \"#utility.yul\":6081:6100   */\n      swap1\n      pop\n        /* \"#utility.yul\":6031:6106   */\n      swap1\n      jump\t// out\n        /* \"#utility.yul\":6112:6420   */\n    tag_116:\n        /* \"#utility.yul\":6174:6178   */\n      0x00\n        /* \"#utility.yul\":6264:6282   */\n      0xffffffffffffffff\n        /* \"#utility.yul\":6256:6262   */\n      dup3\n        /* \"#utility.yul\":6253:6283   */\n      gt\n        /* \"#utility.yul\":6250:6306   */\n      iszero\n      tag_199\n      jumpi\n        /* \"#utility.yul\":6286:6304   */\n      tag_200\n      tag_201\n      jump\t// in\n    tag_200:\n        /* \"#utility.yul\":6250:6306   */\n    tag_199:\n        /* \"#utility.yul\":6324:6353   */\n      tag_202\n        /* \"#utility.yul\":6346:6352   */\n      dup3\n        /* \"#utility.yul\":6324:6353   */\n      tag_182\n      jump\t// in\n    tag_202:\n        /* \"#utility.yul\":6316:6353   */\n      swap1\n      pop\n        /* \"#utility.yul\":6408:6412   */\n      0x20\n        /* \"#utility.yul\":6402:6406   */\n      dup2\n        /* \"#utility.yul\":6398:6413   */\n      add\n        /* \"#utility.yul\":6390:6413   */\n      swap1\n      pop\n        /* \"#utility.yul\":6112:6420   */\n      swap2\n      swap1\n      pop\n      jump\t// out\n        /* \"#utility.yul\":6426:6525   */\n    tag_176:\n        /* \"#utility.yul\":6478:6484   */\n      0x00\n        /* \"#utility.yul\":6512:6517   */\n      dup2\n        /* \"#utility.yul\":6506:6518   */\n      mload\n        /* \"#utility.yul\":6496:6518   */\n      swap1\n      pop\n        /* \"#utility.yul\":6426:6525   */\n      swap2\n      swap1\n      pop\n      jump\t// out\n        /* \"#utility.yul\":6531:6700   */\n    tag_178:\n        /* \"#utility.yul\":6615:6626   */\n      0x00\n        /* \"#utility.yul\":6649:6655   */\n      dup3\n        /* \"#utility.yul\":6644:6647   */\n      dup3\n        /* \"#utility.yul\":6637:6656   */\n      mstore\n        /* \"#utility.yul\":6689:6693   */\n      0x20\n        /* \"#utility.yul\":6684:6687   */\n      dup3\n        /* \"#utility.yul\":6680:6694   */\n      add\n        /* \"#utility.yul\":6665:6694   */\n      swap1\n      pop\n        /* \"#utility.yul\":6531:6700   */\n      swap3\n      swap2\n      pop\n      pop\n      jump\t// out\n        /* \"#utility.yul\":6706:6897   */\n    tag_67:\n        /* \"#utility.yul\":6746:6750   */\n      0x00\n        /* \"#utility.yul\":6766:6786   */\n      tag_206\n        /* \"#utility.yul\":6784:6785   */\n      dup3\n        /* \"#utility.yul\":6766:6786   */\n      tag_186\n      jump\t// in\n    tag_206:\n        /* \"#utility.yul\":6761:6786   */\n      swap2\n      pop\n        /* \"#utility.yul\":6800:6820   */\n      tag_207\n        /* \"#utility.yul\":6818:6819   */\n      dup4\n        /* \"#utility.yul\":6800:6820   */\n      tag_186\n      jump\t// in\n    tag_207:\n        /* \"#utility.yul\":6795:6820   */\n      swap3\n      pop\n        /* \"#utility.yul\":6839:6840   */\n      dup3\n        /* \"#utility.yul\":6836:6837   */\n      dup3\n        /* \"#utility.yul\":6833:6841   */\n      lt\n        /* \"#utility.yul\":6830:6864   */\n      iszero\n      tag_208\n      jumpi\n        /* \"#utility.yul\":6844:6862   */\n      tag_209\n      tag_210\n      jump\t// in\n    tag_209:\n        /* \"#utility.yul\":6830:6864   */\n    tag_208:\n        /* \"#utility.yul\":6889:6890   */\n      dup3\n        /* \"#utility.yul\":6886:6887   */\n      dup3\n        /* \"#utility.yul\":6882:6891   */\n      sub\n        /* \"#utility.yul\":6874:6891   */\n      swap1\n      pop\n        /* \"#utility.yul\":6706:6897   */\n      swap3\n      swap2\n      pop\n      pop\n      jump\t// out\n        /* \"#utility.yul\":6903:6980   */\n    tag_186:\n        /* \"#utility.yul\":6940:6947   */\n      0x00\n        /* \"#utility.yul\":6969:6974   */\n      dup2\n        /* \"#utility.yul\":6958:6974   */\n      swap1\n      pop\n        /* \"#utility.yul\":6903:6980   */\n      swap2\n      swap1\n      pop\n      jump\t// out\n        /* \"#utility.yul\":6986:7140   */\n    tag_122:\n        /* \"#utility.yul\":7070:7076   */\n      dup3\n        /* \"#utility.yul\":7065:7068   */\n      dup2\n        /* \"#utility.yul\":7060:7063   */\n      dup4\n        /* \"#utility.yul\":7047:7077   */\n      calldatacopy\n        /* \"#utility.yul\":7132:7133   */\n      0x00\n        /* \"#utility.yul\":7123:7129   */\n      dup4\n        /* \"#utility.yul\":7118:7121   */\n      dup4\n        /* \"#utility.yul\":7114:7130   */\n      add\n        /* \"#utility.yul\":7107:7134   */\n      mstore\n        /* \"#utility.yul\":6986:7140   */\n      pop\n      pop\n      pop\n      jump\t// out\n        /* \"#utility.yul\":7146:7453   */\n    tag_180:\n        /* \"#utility.yul\":7214:7215   */\n      0x00\n        /* \"#utility.yul\":7224:7337   */\n    tag_214:\n        /* \"#utility.yul\":7238:7244   */\n      dup4\n        /* \"#utility.yul\":7235:7236   */\n      dup2\n        /* \"#utility.yul\":7232:7245   */\n      lt\n        /* \"#utility.yul\":7224:7337   */\n      iszero\n      tag_216\n      jumpi\n        /* \"#utility.yul\":7323:7324   */\n      dup1\n        /* \"#utility.yul\":7318:7321   */\n      dup3\n        /* \"#utility.yul\":7314:7325   */\n      add\n        /* \"#utility.yul\":7308:7326   */\n      mload\n        /* \"#utility.yul\":7304:7305   */\n      dup2\n        /* \"#utility.yul\":7299:7302   */\n      dup5\n        /* \"#utility.yul\":7295:7306   */\n      add\n        /* \"#utility.yul\":7288:7327   */\n      mstore\n        /* \"#utility.yul\":7260:7262   */\n      0x20\n        /* \"#utility.yul\":7257:7258   */\n      dup2\n        /* \"#utility.yul\":7253:7263   */\n      add\n        /* \"#utility.yul\":7248:7263   */\n      swap1\n      pop\n        /* \"#utility.yul\":7224:7337   */\n      jump(tag_214)\n    tag_216:\n        /* \"#utility.yul\":7355:7361   */\n      dup4\n        /* \"#utility.yul\":7352:7353   */\n      dup2\n        /* \"#utility.yul\":7349:7362   */\n      gt\n        /* \"#utility.yul\":7346:7447   */\n      iszero\n      tag_217\n      jumpi\n        /* \"#utility.yul\":7435:7436   */\n      0x00\n        /* \"#utility.yul\":7426:7432   */\n      dup5\n        /* \"#utility.yul\":7421:7424   */\n      dup5\n        /* \"#utility.yul\":7417:7433   */\n      add\n        /* \"#utility.yul\":7410:7437   */\n      mstore\n        /* \"#utility.yul\":7346:7447   */\n    tag_217:\n        /* \"#utility.yul\":7195:7453   */\n      pop\n        /* \"#utility.yul\":7146:7453   */\n      pop\n      pop\n      pop\n      jump\t// out\n        /* \"#utility.yul\":7459:7779   */\n    tag_56:\n        /* \"#utility.yul\":7503:7509   */\n      0x00\n        /* \"#utility.yul\":7540:7541   */\n      0x02\n        /* \"#utility.yul\":7534:7538   */\n      dup3\n        /* \"#utility.yul\":7530:7542   */\n      div\n        /* \"#utility.yul\":7520:7542   */\n      swap1\n      pop\n        /* \"#utility.yul\":7587:7588   */\n      0x01\n        /* \"#utility.yul\":7581:7585   */\n      dup3\n        /* \"#utility.yul\":7577:7589   */\n      and\n        /* \"#utility.yul\":7608:7626   */\n      dup1\n        /* \"#utility.yul\":7598:7679   */\n      tag_219\n      jumpi\n        /* \"#utility.yul\":7664:7668   */\n      0x7f\n        /* \"#utility.yul\":7656:7662   */\n      dup3\n        /* \"#utility.yul\":7652:7669   */\n      and\n        /* \"#utility.yul\":7642:7669   */\n      swap2\n      pop\n        /* \"#utility.yul\":7598:7679   */\n    tag_219:\n        /* \"#utility.yul\":7726:7728   */\n      0x20\n        /* \"#utility.yul\":7718:7724   */\n      dup3\n        /* \"#utility.yul\":7715:7729   */\n      lt\n        /* \"#utility.yul\":7695:7713   */\n      dup2\n        /* \"#utility.yul\":7692:7730   */\n      eq\n        /* \"#utility.yul\":7689:7773   */\n      iszero\n      tag_220\n      jumpi\n        /* \"#utility.yul\":7745:7763   */\n      tag_221\n      tag_222\n      jump\t// in\n    tag_221:\n        /* \"#utility.yul\":7689:7773   */\n    tag_220:\n        /* \"#utility.yul\":7510:7779   */\n      pop\n        /* \"#utility.yul\":7459:7779   */\n      swap2\n      swap1\n      pop\n      jump\t// out\n        /* \"#utility.yul\":7785:8066   */\n    tag_196:\n        /* \"#utility.yul\":7868:7895   */\n      tag_224\n        /* \"#utility.yul\":7890:7894   */\n      dup3\n        /* \"#utility.yul\":7868:7895   */\n      tag_182\n      jump\t// in\n    tag_224:\n        /* \"#utility.yul\":7860:7866   */\n      dup2\n        /* \"#utility.yul\":7856:7896   */\n      add\n        /* \"#utility.yul\":7998:8004   */\n      dup2\n        /* \"#utility.yul\":7986:7996   */\n      dup2\n        /* \"#utility.yul\":7983:8005   */\n      lt\n        /* \"#utility.yul\":7962:7980   */\n      0xffffffffffffffff\n        /* \"#utility.yul\":7950:7960   */\n      dup3\n        /* \"#utility.yul\":7947:7981   */\n      gt\n        /* \"#utility.yul\":7944:8006   */\n      or\n        /* \"#utility.yul\":7941:8029   */\n      iszero\n      tag_225\n      jumpi\n        /* \"#utility.yul\":8009:8027   */\n      tag_226\n      tag_201\n      jump\t// in\n    tag_226:\n        /* \"#utility.yul\":7941:8029   */\n    tag_225:\n        /* \"#utility.yul\":8049:8059   */\n      dup1\n        /* \"#utility.yul\":8045:8047   */\n      0x40\n        /* \"#utility.yul\":8038:8060   */\n      mstore\n        /* \"#utility.yul\":7828:8066   */\n      pop\n        /* \"#utility.yul\":7785:8066   */\n      pop\n      pop\n      jump\t// out\n        /* \"#utility.yul\":8072:8252   */\n    tag_210:\n        /* \"#utility.yul\":8120:8197   */\n      0x4e487b7100000000000000000000000000000000000000000000000000000000\n        /* \"#utility.yul\":8117:8118   */\n      0x00\n        /* \"#utility.yul\":8110:8198   */\n      mstore\n        /* \"#utility.yul\":8217:8221   */\n      0x11\n        /* \"#utility.yul\":8214:8215   */\n      0x04\n        /* \"#utility.yul\":8207:8222   */\n      mstore\n        /* \"#utility.yul\":8241:8245   */\n      0x24\n        /* \"#utility.yul\":8238:8239   */\n      0x00\n        /* \"#utility.yul\":8231:8246   */\n      revert\n        /* \"#utility.yul\":8258:8438   */\n    tag_222:\n        /* \"#utility.yul\":8306:8383   */\n      0x4e487b7100000000000000000000000000000000000000000000000000000000\n        /* \"#utility.yul\":8303:8304   */\n      0x00\n        /* \"#utility.yul\":8296:8384   */\n      mstore\n        /* \"#utility.yul\":8403:8407   */\n      0x22\n        /* \"#utility.yul\":8400:8401   */\n      0x04\n        /* \"#utility.yul\":8393:8408   */\n      mstore\n        /* \"#utility.yul\":8427:8431   */\n      0x24\n        /* \"#utility.yul\":8424:8425   */\n      0x00\n        /* \"#utility.yul\":8417:8432   */\n      revert\n        /* \"#utility.yul\":8444:8624   */\n    tag_79:\n        /* \"#utility.yul\":8492:8569   */\n      0x4e487b7100000000000000000000000000000000000000000000000000000000\n        /* \"#utility.yul\":8489:8490   */\n      0x00\n        /* \"#utility.yul\":8482:8570   */\n      mstore\n        /* \"#utility.yul\":8589:8593   */\n      0x31\n        /* \"#utility.yul\":8586:8587   */\n      0x04\n        /* \"#utility.yul\":8579:8594   */\n      mstore\n        /* \"#utility.yul\":8613:8617   */\n      0x24\n        /* \"#utility.yul\":8610:8611   */\n      0x00\n        /* \"#utility.yul\":8603:8618   */\n      revert\n        /* \"#utility.yul\":8630:8810   */\n    tag_43:\n        /* \"#utility.yul\":8678:8755   */\n      0x4e487b7100000000000000000000000000000000000000000000000000000000\n        /* \"#utility.yul\":8675:8676   */\n      0x00\n        /* \"#utility.yul\":8668:8756   */\n      mstore\n        /* \"#utility.yul\":8775:8779   */\n      0x32\n        /* \"#utility.yul\":8772:8773   */\n      0x04\n        /* \"#utility.yul\":8765:8780   */\n      mstore\n        /* \"#utility.yul\":8799:8803   */\n      0x24\n        /* \"#utility.yul\":8796:8797   */\n      0x00\n        /* \"#utility.yul\":8789:8804   */\n      revert\n        /* \"#utility.yul\":8816:8996   */\n    tag_201:\n        /* \"#utility.yul\":8864:8941   */\n      0x4e487b7100000000000000000000000000000000000000000000000000000000\n        /* \"#utility.yul\":8861:8862   */\n      0x00\n        /* \"#utility.yul\":8854:8942   */\n      mstore\n        /* \"#utility.yul\":8961:8965   */\n      0x41\n        /* \"#utility.yul\":8958:8959   */\n      0x04\n        /* \"#utility.yul\":8951:8966   */\n      mstore\n        /* \"#utility.yul\":8985:8989   */\n      0x24\n        /* \"#utility.yul\":8982:8983   */\n      0x00\n        /* \"#utility.yul\":8975:8990   */\n      revert\n        /* \"#utility.yul\":9002:9119   */\n    tag_127:\n        /* \"#utility.yul\":9111:9112   */\n      0x00\n        /* \"#utility.yul\":9108:9109   */\n      dup1\n        /* \"#utility.yul\":9101:9113   */\n      revert\n        /* \"#utility.yul\":9125:9242   */\n    tag_120:\n        /* \"#utility.yul\":9234:9235   */\n      0x00\n        /* \"#utility.yul\":9231:9232   */\n      dup1\n        /* \"#utility.yul\":9224:9236   */\n      revert\n        /* \"#utility.yul\":9248:9365   */\n    tag_139:\n        /* \"#utility.yul\":9357:9358   */\n      0x00\n        /* \"#utility.yul\":9354:9355   */\n      dup1\n        /* \"#utility.yul\":9347:9359   */\n      revert\n        /* \"#utility.yul\":9371:9488   */\n    tag_136:\n        /* \"#utility.yul\":9480:9481   */\n      0x00\n        /* \"#utility.yul\":9477:9478   */\n      dup1\n        /* \"#utility.yul\":9470:9482   */\n      revert\n        /* \"#utility.yul\":9494:9596   */\n    tag_182:\n        /* \"#utility.yul\":9535:9541   */\n      0x00\n        /* \"#utility.yul\":9586:9588   */\n      0x1f\n        /* \"#utility.yul\":9582:9589   */\n      not\n        /* \"#utility.yul\":9577:9579   */\n      0x1f\n        /* \"#utility.yul\":9570:9575   */\n      dup4\n        /* \"#utility.yul\":9566:9580   */\n      add\n        /* \"#utility.yul\":9562:9590   */\n      and\n        /* \"#utility.yul\":9552:9590   */\n      swap1\n      pop\n        /* \"#utility.yul\":9494:9596   */\n      swap2\n      swap1\n      pop\n      jump\t// out\n        /* \"#utility.yul\":9602:9724   */\n    tag_132:\n        /* \"#utility.yul\":9675:9699   */\n      tag_238\n        /* \"#utility.yul\":9693:9698   */\n      dup2\n        /* \"#utility.yul\":9675:9699   */\n      tag_186\n      jump\t// in\n    tag_238:\n        /* \"#utility.yul\":9668:9673   */\n      dup2\n        /* \"#utility.yul\":9665:9700   */\n      eq\n        /* \"#utility.yul\":9655:9718   */\n      tag_239\n      jumpi\n        /* \"#utility.yul\":9714:9715   */\n      0x00\n        /* \"#utility.yul\":9711:9712   */\n      dup1\n        /* \"#utility.yul\":9704:9716   */\n      revert\n        /* \"#utility.yul\":9655:9718   */\n    tag_239:\n        /* \"#utility.yul\":9602:9724   */\n      pop\n      jump\t// out\n\n    auxdata: 0xa2646970667358221220c8362836859d7016d461e43ca6dc9818efbe6971b1e7a0f68a3a8312c50a4e4964736f6c63430008070033\n}\n",
				"bytecode": {
					"linkReferences": {},
					"object": "608060405234801561001057600080fd5b50610c03806100206000396000f3fe608060405234801561001057600080fd5b506004361061007d5760003560e01c806382659eec1161005b57806382659eec146100ed5780639351b07814610109578063973e2bbc14610125578063e1b7edff146101415761007d565b806312cbb9721461008257806356b08f101461009e5780637aadbdd3146100ba575b600080fd5b61009c60048036038101906100979190610767565b61015d565b005b6100b860048036038101906100b39190610856565b6101a0565b005b6100d460048036038101906100cf919061073a565b6101d5565b6040516100e49493929190610905565b60405180910390f35b61010760048036038101906101029190610803565b6102e0565b005b610123600480360381019061011e919061073a565b610314565b005b61013f600480360381019061013a91906107c3565b610400565b005b61015b600480360381019061015691906106b7565b610433565b005b600080838154811061017257610171610b33565b5b906000526020600020906004020190508181600001908051906020019061019a9291906104c2565b50505050565b60008085815481106101b5576101b4610b33565b5b906000526020600020906004020190508381600101819055505050505050565b6060600080600080600086815481106101f1576101f0610b33565b5b906000526020600020906004020160405180608001604052908160008201805461021a90610a43565b80601f016020809104026020016040519081016040528092919081815260200182805461024690610a43565b80156102935780601f1061026857610100808354040283529160200191610293565b820191906000526020600020905b81548152906001019060200180831161027657829003601f168201915b505050505081526020016001820154815260200160028201548152602001600382015481525050905080600001518160200151826040015183606001519450945094509450509193509193565b60008084815481106102f5576102f4610b33565b5b9060005260206000209060040201905082816002018190555050505050565b6000600160008054905061032891906109c3565b8154811061033957610338610b33565b5b90600052602060002090600402016000828154811061035b5761035a610b33565b5b9060005260206000209060040201600082018160000190805461037d90610a43565b610388929190610548565b5060018201548160010155600282015481600201556003820154816003015590505060008054806103bc576103bb610b04565b5b6001900381819060005260206000209060040201600080820160006103e191906105d5565b6001820160009055600282016000905560038201600090555050905550565b600080838154811061041557610414610b33565b5b90600052602060002090600402019050818160030181905550505050565b60006040518060800160405280868152602001858152602001848152602001838152509080600181540180825580915050600190039060005260206000209060040201600090919091909150600082015181600001908051906020019061049b9291906104c2565b50602082015181600101556040820151816002015560608201518160030155505050505050565b8280546104ce90610a43565b90600052602060002090601f0160209004810192826104f05760008555610537565b82601f1061050957805160ff1916838001178555610537565b82800160010185558215610537579182015b8281111561053657825182559160200191906001019061051b565b5b5090506105449190610615565b5090565b82805461055490610a43565b90600052602060002090601f01602090048101928261057657600085556105c4565b82601f1061058757805485556105c4565b828001600101855582156105c457600052602060002091601f016020900482015b828111156105c35782548255916001019190600101906105a8565b5b5090506105d19190610615565b5090565b5080546105e190610a43565b6000825580601f106105f35750610612565b601f0160209004906000526020600020908101906106119190610615565b5b50565b5b8082111561062e576000816000905550600101610616565b5090565b600061064561064084610976565b610951565b90508281526020810184848401111561066157610660610b96565b5b61066c848285610a01565b509392505050565b600082601f83011261068957610688610b91565b5b8135610699848260208601610632565b91505092915050565b6000813590506106b181610bb6565b92915050565b600080600080608085870312156106d1576106d0610ba0565b5b600085013567ffffffffffffffff8111156106ef576106ee610b9b565b5b6106fb87828801610674565b945050602061070c878288016106a2565b935050604061071d878288016106a2565b925050606061072e878288016106a2565b91505092959194509250565b6000602082840312156107505761074f610ba0565b5b600061075e848285016106a2565b91505092915050565b6000806040838503121561077e5761077d610ba0565b5b600061078c858286016106a2565b925050602083013567ffffffffffffffff8111156107ad576107ac610b9b565b5b6107b985828601610674565b9150509250929050565b600080604083850312156107da576107d9610ba0565b5b60006107e8858286016106a2565b92505060206107f9858286016106a2565b9150509250929050565b60008060006060848603121561081c5761081b610ba0565b5b600061082a868287016106a2565b935050602061083b868287016106a2565b925050604061084c868287016106a2565b9150509250925092565b600080600080608085870312156108705761086f610ba0565b5b600061087e878288016106a2565b945050602061088f878288016106a2565b93505060406108a0878288016106a2565b92505060606108b1878288016106a2565b91505092959194509250565b60006108c8826109a7565b6108d281856109b2565b93506108e2818560208601610a10565b6108eb81610ba5565b840191505092915050565b6108ff816109f7565b82525050565b6000608082019050818103600083015261091f81876108bd565b905061092e60208301866108f6565b61093b60408301856108f6565b61094860608301846108f6565b95945050505050565b600061095b61096c565b90506109678282610a75565b919050565b6000604051905090565b600067ffffffffffffffff82111561099157610990610b62565b5b61099a82610ba5565b9050602081019050919050565b600081519050919050565b600082825260208201905092915050565b60006109ce826109f7565b91506109d9836109f7565b9250828210156109ec576109eb610aa6565b5b828203905092915050565b6000819050919050565b82818337600083830152505050565b60005b83811015610a2e578082015181840152602081019050610a13565b83811115610a3d576000848401525b50505050565b60006002820490506001821680610a5b57607f821691505b60208210811415610a6f57610a6e610ad5565b5b50919050565b610a7e82610ba5565b810181811067ffffffffffffffff82111715610a9d57610a9c610b62565b5b80604052505050565b7f4e487b7100000000000000000000000000000000000000000000000000000000600052601160045260246000fd5b7f4e487b7100000000000000000000000000000000000000000000000000000000600052602260045260246000fd5b7f4e487b7100000000000000000000000000000000000000000000000000000000600052603160045260246000fd5b7f4e487b7100000000000000000000000000000000000000000000000000000000600052603260045260246000fd5b7f4e487b7100000000000000000000000000000000000000000000000000000000600052604160045260246000fd5b600080fd5b600080fd5b600080fd5b600080fd5b6000601f19601f8301169050919050565b610bbf816109f7565b8114610bca57600080fd5b5056fea2646970667358221220c8362836859d7016d461e43ca6dc9818efbe6971b1e7a0f68a3a8312c50a4e4964736f6c63430008070033",
					"opcodes": "PUSH1 0x80 PUSH1 0x40 MSTORE CALLVALUE DUP1 ISZERO PUSH2 0x10 JUMPI PUSH1 0x0 DUP1 REVERT JUMPDEST POP PUSH2 0xC03 DUP1 PUSH2 0x20 PUSH1 0x0 CODECOPY PUSH1 0x0 RETURN INVALID PUSH1 0x80 PUSH1 0x40 MSTORE CALLVALUE DUP1 ISZERO PUSH2 0x10 JUMPI PUSH1 0x0 DUP1 REVERT JUMPDEST POP PUSH1 0x4 CALLDATASIZE LT PUSH2 0x7D JUMPI PUSH1 0x0 CALLDATALOAD PUSH1 0xE0 SHR DUP1 PUSH4 0x82659EEC GT PUSH2 0x5B JUMPI DUP1 PUSH4 0x82659EEC EQ PUSH2 0xED JUMPI DUP1 PUSH4 0x9351B078 EQ PUSH2 0x109 JUMPI DUP1 PUSH4 0x973E2BBC EQ PUSH2 0x125 JUMPI DUP1 PUSH4 0xE1B7EDFF EQ PUSH2 0x141 JUMPI PUSH2 0x7D JUMP JUMPDEST DUP1 PUSH4 0x12CBB972 EQ PUSH2 0x82 JUMPI DUP1 PUSH4 0x56B08F10 EQ PUSH2 0x9E JUMPI DUP1 PUSH4 0x7AADBDD3 EQ PUSH2 0xBA JUMPI JUMPDEST PUSH1 0x0 DUP1 REVERT JUMPDEST PUSH2 0x9C PUSH1 0x4 DUP1 CALLDATASIZE SUB DUP2 ADD SWAP1 PUSH2 0x97 SWAP2 SWAP1 PUSH2 0x767 JUMP JUMPDEST PUSH2 0x15D JUMP JUMPDEST STOP JUMPDEST PUSH2 0xB8 PUSH1 0x4 DUP1 CALLDATASIZE SUB DUP2 ADD SWAP1 PUSH2 0xB3 SWAP2 SWAP1 PUSH2 0x856 JUMP JUMPDEST PUSH2 0x1A0 JUMP JUMPDEST STOP JUMPDEST PUSH2 0xD4 PUSH1 0x4 DUP1 CALLDATASIZE SUB DUP2 ADD SWAP1 PUSH2 0xCF SWAP2 SWAP1 PUSH2 0x73A JUMP JUMPDEST PUSH2 0x1D5 JUMP JUMPDEST PUSH1 0x40 MLOAD PUSH2 0xE4 SWAP5 SWAP4 SWAP3 SWAP2 SWAP1 PUSH2 0x905 JUMP JUMPDEST PUSH1 0x40 MLOAD DUP1 SWAP2 SUB SWAP1 RETURN JUMPDEST PUSH2 0x107 PUSH1 0x4 DUP1 CALLDATASIZE SUB DUP2 ADD SWAP1 PUSH2 0x102 SWAP2 SWAP1 PUSH2 0x803 JUMP JUMPDEST PUSH2 0x2E0 JUMP JUMPDEST STOP JUMPDEST PUSH2 0x123 PUSH1 0x4 DUP1 CALLDATASIZE SUB DUP2 ADD SWAP1 PUSH2 0x11E SWAP2 SWAP1 PUSH2 0x73A JUMP JUMPDEST PUSH2 0x314 JUMP JUMPDEST STOP JUMPDEST PUSH2 0x13F PUSH1 0x4 DUP1 CALLDATASIZE SUB DUP2 ADD SWAP1 PUSH2 0x13A SWAP2 SWAP1 PUSH2 0x7C3 JUMP JUMPDEST PUSH2 0x400 JUMP JUMPDEST STOP JUMPDEST PUSH2 0x15B PUSH1 0x4 DUP1 CALLDATASIZE SUB DUP2 ADD SWAP1 PUSH2 0x156 SWAP2 SWAP1 PUSH2 0x6B7 JUMP JUMPDEST PUSH2 0x433 JUMP JUMPDEST STOP JUMPDEST PUSH1 0x0 DUP1 DUP4 DUP2 SLOAD DUP2 LT PUSH2 0x172 JUMPI PUSH2 0x171 PUSH2 0xB33 JUMP JUMPDEST JUMPDEST SWAP1 PUSH1 0x0 MSTORE PUSH1 0x20 PUSH1 0x0 KECCAK256 SWAP1 PUSH1 0x4 MUL ADD SWAP1 POP DUP2 DUP2 PUSH1 0x0 ADD SWAP1 DUP1 MLOAD SWAP1 PUSH1 0x20 ADD SWAP1 PUSH2 0x19A SWAP3 SWAP2 SWAP1 PUSH2 0x4C2 JUMP JUMPDEST POP POP POP POP JUMP JUMPDEST PUSH1 0x0 DUP1 DUP6 DUP2 SLOAD DUP2 LT PUSH2 0x1B5 JUMPI PUSH2 0x1B4 PUSH2 0xB33 JUMP JUMPDEST JUMPDEST SWAP1 PUSH1 0x0 MSTORE PUSH1 0x20 PUSH1 0x0 KECCAK256 SWAP1 PUSH1 0x4 MUL ADD SWAP1 POP DUP4 DUP2 PUSH1 0x1 ADD DUP2 SWAP1 SSTORE POP POP POP POP POP POP JUMP JUMPDEST PUSH1 0x60 PUSH1 0x0 DUP1 PUSH1 0x0 DUP1 PUSH1 0x0 DUP7 DUP2 SLOAD DUP2 LT PUSH2 0x1F1 JUMPI PUSH2 0x1F0 PUSH2 0xB33 JUMP JUMPDEST JUMPDEST SWAP1 PUSH1 0x0 MSTORE PUSH1 0x20 PUSH1 0x0 KECCAK256 SWAP1 PUSH1 0x4 MUL ADD PUSH1 0x40 MLOAD DUP1 PUSH1 0x80 ADD PUSH1 0x40 MSTORE SWAP1 DUP2 PUSH1 0x0 DUP3 ADD DUP1 SLOAD PUSH2 0x21A SWAP1 PUSH2 0xA43 JUMP JUMPDEST DUP1 PUSH1 0x1F ADD PUSH1 0x20 DUP1 SWAP2 DIV MUL PUSH1 0x20 ADD PUSH1 0x40 MLOAD SWAP1 DUP2 ADD PUSH1 0x40 MSTORE DUP1 SWAP3 SWAP2 SWAP1 DUP2 DUP2 MSTORE PUSH1 0x20 ADD DUP3 DUP1 SLOAD PUSH2 0x246 SWAP1 PUSH2 0xA43 JUMP JUMPDEST DUP1 ISZERO PUSH2 0x293 JUMPI DUP1 PUSH1 0x1F LT PUSH2 0x268 JUMPI PUSH2 0x100 DUP1 DUP4 SLOAD DIV MUL DUP4 MSTORE SWAP2 PUSH1 0x20 ADD SWAP2 PUSH2 0x293 JUMP JUMPDEST DUP3 ADD SWAP2 SWAP1 PUSH1 0x0 MSTORE PUSH1 0x20 PUSH1 0x0 KECCAK256 SWAP1 JUMPDEST DUP2 SLOAD DUP2 MSTORE SWAP1 PUSH1 0x1 ADD SWAP1 PUSH1 0x20 ADD DUP1 DUP4 GT PUSH2 0x276 JUMPI DUP3 SWAP1 SUB PUSH1 0x1F AND DUP3 ADD SWAP2 JUMPDEST POP POP POP POP POP DUP2 MSTORE PUSH1 0x20 ADD PUSH1 0x1 DUP3 ADD SLOAD DUP2 MSTORE PUSH1 0x20 ADD PUSH1 0x2 DUP3 ADD SLOAD DUP2 MSTORE PUSH1 0x20 ADD PUSH1 0x3 DUP3 ADD SLOAD DUP2 MSTORE POP POP SWAP1 POP DUP1 PUSH1 0x0 ADD MLOAD DUP2 PUSH1 0x20 ADD MLOAD DUP3 PUSH1 0x40 ADD MLOAD DUP4 PUSH1 0x60 ADD MLOAD SWAP5 POP SWAP5 POP SWAP5 POP SWAP5 POP POP SWAP2 SWAP4 POP SWAP2 SWAP4 JUMP JUMPDEST PUSH1 0x0 DUP1 DUP5 DUP2 SLOAD DUP2 LT PUSH2 0x2F5 JUMPI PUSH2 0x2F4 PUSH2 0xB33 JUMP JUMPDEST JUMPDEST SWAP1 PUSH1 0x0 MSTORE PUSH1 0x20 PUSH1 0x0 KECCAK256 SWAP1 PUSH1 0x4 MUL ADD SWAP1 POP DUP3 DUP2 PUSH1 0x2 ADD DUP2 SWAP1 SSTORE POP POP POP POP POP JUMP JUMPDEST PUSH1 0x0 PUSH1 0x1 PUSH1 0x0 DUP1 SLOAD SWAP1 POP PUSH2 0x328 SWAP2 SWAP1 PUSH2 0x9C3 JUMP JUMPDEST DUP2 SLOAD DUP2 LT PUSH2 0x339 JUMPI PUSH2 0x338 PUSH2 0xB33 JUMP JUMPDEST JUMPDEST SWAP1 PUSH1 0x0 MSTORE PUSH1 0x20 PUSH1 0x0 KECCAK256 SWAP1 PUSH1 0x4 MUL ADD PUSH1 0x0 DUP3 DUP2 SLOAD DUP2 LT PUSH2 0x35B JUMPI PUSH2 0x35A PUSH2 0xB33 JUMP JUMPDEST JUMPDEST SWAP1 PUSH1 0x0 MSTORE PUSH1 0x20 PUSH1 0x0 KECCAK256 SWAP1 PUSH1 0x4 MUL ADD PUSH1 0x0 DUP3 ADD DUP2 PUSH1 0x0 ADD SWAP1 DUP1 SLOAD PUSH2 0x37D SWAP1 PUSH2 0xA43 JUMP JUMPDEST PUSH2 0x388 SWAP3 SWAP2 SWAP1 PUSH2 0x548 JUMP JUMPDEST POP PUSH1 0x1 DUP3 ADD SLOAD DUP2 PUSH1 0x1 ADD SSTORE PUSH1 0x2 DUP3 ADD SLOAD DUP2 PUSH1 0x2 ADD SSTORE PUSH1 0x3 DUP3 ADD SLOAD DUP2 PUSH1 0x3 ADD SSTORE SWAP1 POP POP PUSH1 0x0 DUP1 SLOAD DUP1 PUSH2 0x3BC JUMPI PUSH2 0x3BB PUSH2 0xB04 JUMP JUMPDEST JUMPDEST PUSH1 0x1 SWAP1 SUB DUP2 DUP2 SWAP1 PUSH1 0x0 MSTORE PUSH1 0x20 PUSH1 0x0 KECCAK256 SWAP1 PUSH1 0x4 MUL ADD PUSH1 0x0 DUP1 DUP3 ADD PUSH1 0x0 PUSH2 0x3E1 SWAP2 SWAP1 PUSH2 0x5D5 JUMP JUMPDEST PUSH1 0x1 DUP3 ADD PUSH1 0x0 SWAP1 SSTORE PUSH1 0x2 DUP3 ADD PUSH1 0x0 SWAP1 SSTORE PUSH1 0x3 DUP3 ADD PUSH1 0x0 SWAP1 SSTORE POP POP SWAP1 SSTORE POP JUMP JUMPDEST PUSH1 0x0 DUP1 DUP4 DUP2 SLOAD DUP2 LT PUSH2 0x415 JUMPI PUSH2 0x414 PUSH2 0xB33 JUMP JUMPDEST JUMPDEST SWAP1 PUSH1 0x0 MSTORE PUSH1 0x20 PUSH1 0x0 KECCAK256 SWAP1 PUSH1 0x4 MUL ADD SWAP1 POP DUP2 DUP2 PUSH1 0x3 ADD DUP2 SWAP1 SSTORE POP POP POP POP JUMP JUMPDEST PUSH1 0x0 PUSH1 0x40 MLOAD DUP1 PUSH1 0x80 ADD PUSH1 0x40 MSTORE DUP1 DUP7 DUP2 MSTORE PUSH1 0x20 ADD DUP6 DUP2 MSTORE PUSH1 0x20 ADD DUP5 DUP2 MSTORE PUSH1 0x20 ADD DUP4 DUP2 MSTORE POP SWAP1 DUP1 PUSH1 0x1 DUP2 SLOAD ADD DUP1 DUP3 SSTORE DUP1 SWAP2 POP POP PUSH1 0x1 SWAP1 SUB SWAP1 PUSH1 0x0 MSTORE PUSH1 0x20 PUSH1 0x0 KECCAK256 SWAP1 PUSH1 0x4 MUL ADD PUSH1 0x0 SWAP1 SWAP2 SWAP1 SWAP2 SWAP1 SWAP2 POP PUSH1 0x0 DUP3 ADD MLOAD DUP2 PUSH1 0x0 ADD SWAP1 DUP1 MLOAD SWAP1 PUSH1 0x20 ADD SWAP1 PUSH2 0x49B SWAP3 SWAP2 SWAP1 PUSH2 0x4C2 JUMP JUMPDEST POP PUSH1 0x20 DUP3 ADD MLOAD DUP2 PUSH1 0x1 ADD SSTORE PUSH1 0x40 DUP3 ADD MLOAD DUP2 PUSH1 0x2 ADD SSTORE PUSH1 0x60 DUP3 ADD MLOAD DUP2 PUSH1 0x3 ADD SSTORE POP POP POP POP POP POP JUMP JUMPDEST DUP3 DUP1 SLOAD PUSH2 0x4CE SWAP1 PUSH2 0xA43 JUMP JUMPDEST SWAP1 PUSH1 0x0 MSTORE PUSH1 0x20 PUSH1 0x0 KECCAK256 SWAP1 PUSH1 0x1F ADD PUSH1 0x20 SWAP1 DIV DUP2 ADD SWAP3 DUP3 PUSH2 0x4F0 JUMPI PUSH1 0x0 DUP6 SSTORE PUSH2 0x537 JUMP JUMPDEST DUP3 PUSH1 0x1F LT PUSH2 0x509 JUMPI DUP1 MLOAD PUSH1 0xFF NOT AND DUP4 DUP1 ADD OR DUP6 SSTORE PUSH2 0x537 JUMP JUMPDEST DUP3 DUP1 ADD PUSH1 0x1 ADD DUP6 SSTORE DUP3 ISZERO PUSH2 0x537 JUMPI SWAP2 DUP3 ADD JUMPDEST DUP3 DUP2 GT ISZERO PUSH2 0x536 JUMPI DUP3 MLOAD DUP3 SSTORE SWAP2 PUSH1 0x20 ADD SWAP2 SWAP1 PUSH1 0x1 ADD SWAP1 PUSH2 0x51B JUMP JUMPDEST JUMPDEST POP SWAP1 POP PUSH2 0x544 SWAP2 SWAP1 PUSH2 0x615 JUMP JUMPDEST POP SWAP1 JUMP JUMPDEST DUP3 DUP1 SLOAD PUSH2 0x554 SWAP1 PUSH2 0xA43 JUMP JUMPDEST SWAP1 PUSH1 0x0 MSTORE PUSH1 0x20 PUSH1 0x0 KECCAK256 SWAP1 PUSH1 0x1F ADD PUSH1 0x20 SWAP1 DIV DUP2 ADD SWAP3 DUP3 PUSH2 0x576 JUMPI PUSH1 0x0 DUP6 SSTORE PUSH2 0x5C4 JUMP JUMPDEST DUP3 PUSH1 0x1F LT PUSH2 0x587 JUMPI DUP1 SLOAD DUP6 SSTORE PUSH2 0x5C4 JUMP JUMPDEST DUP3 DUP1 ADD PUSH1 0x1 ADD DUP6 SSTORE DUP3 ISZERO PUSH2 0x5C4 JUMPI PUSH1 0x0 MSTORE PUSH1 0x20 PUSH1 0x0 KECCAK256 SWAP2 PUSH1 0x1F ADD PUSH1 0x20 SWAP1 DIV DUP3 ADD JUMPDEST DUP3 DUP2 GT ISZERO PUSH2 0x5C3 JUMPI DUP3 SLOAD DUP3 SSTORE SWAP2 PUSH1 0x1 ADD SWAP2 SWAP1 PUSH1 0x1 ADD SWAP1 PUSH2 0x5A8 JUMP JUMPDEST JUMPDEST POP SWAP1 POP PUSH2 0x5D1 SWAP2 SWAP1 PUSH2 0x615 JUMP JUMPDEST POP SWAP1 JUMP JUMPDEST POP DUP1 SLOAD PUSH2 0x5E1 SWAP1 PUSH2 0xA43 JUMP JUMPDEST PUSH1 0x0 DUP3 SSTORE DUP1 PUSH1 0x1F LT PUSH2 0x5F3 JUMPI POP PUSH2 0x612 JUMP JUMPDEST PUSH1 0x1F ADD PUSH1 0x20 SWAP1 DIV SWAP1 PUSH1 0x0 MSTORE PUSH1 0x20 PUSH1 0x0 KECCAK256 SWAP1 DUP2 ADD SWAP1 PUSH2 0x611 SWAP2 SWAP1 PUSH2 0x615 JUMP JUMPDEST JUMPDEST POP JUMP JUMPDEST JUMPDEST DUP1 DUP3 GT ISZERO PUSH2 0x62E JUMPI PUSH1 0x0 DUP2 PUSH1 0x0 SWAP1 SSTORE POP PUSH1 0x1 ADD PUSH2 0x616 JUMP JUMPDEST POP SWAP1 JUMP JUMPDEST PUSH1 0x0 PUSH2 0x645 PUSH2 0x640 DUP5 PUSH2 0x976 JUMP JUMPDEST PUSH2 0x951 JUMP JUMPDEST SWAP1 POP DUP3 DUP2 MSTORE PUSH1 0x20 DUP2 ADD DUP5 DUP5 DUP5 ADD GT ISZERO PUSH2 0x661 JUMPI PUSH2 0x660 PUSH2 0xB96 JUMP JUMPDEST JUMPDEST PUSH2 0x66C DUP5 DUP3 DUP6 PUSH2 0xA01 JUMP JUMPDEST POP SWAP4 SWAP3 POP POP POP JUMP JUMPDEST PUSH1 0x0 DUP3 PUSH1 0x1F DUP4 ADD SLT PUSH2 0x689 JUMPI PUSH2 0x688 PUSH2 0xB91 JUMP JUMPDEST JUMPDEST DUP2 CALLDATALOAD PUSH2 0x699 DUP5 DUP3 PUSH1 0x20 DUP7 ADD PUSH2 0x632 JUMP JUMPDEST SWAP2 POP POP SWAP3 SWAP2 POP POP JUMP JUMPDEST PUSH1 0x0 DUP2 CALLDATALOAD SWAP1 POP PUSH2 0x6B1 DUP2 PUSH2 0xBB6 JUMP JUMPDEST SWAP3 SWAP2 POP POP JUMP JUMPDEST PUSH1 0x0 DUP1 PUSH1 0x0 DUP1 PUSH1 0x80 DUP6 DUP8 SUB SLT ISZERO PUSH2 0x6D1 JUMPI PUSH2 0x6D0 PUSH2 0xBA0 JUMP JUMPDEST JUMPDEST PUSH1 0x0 DUP6 ADD CALLDATALOAD PUSH8 0xFFFFFFFFFFFFFFFF DUP2 GT ISZERO PUSH2 0x6EF JUMPI PUSH2 0x6EE PUSH2 0xB9B JUMP JUMPDEST JUMPDEST PUSH2 0x6FB DUP8 DUP3 DUP9 ADD PUSH2 0x674 JUMP JUMPDEST SWAP5 POP POP PUSH1 0x20 PUSH2 0x70C DUP8 DUP3 DUP9 ADD PUSH2 0x6A2 JUMP JUMPDEST SWAP4 POP POP PUSH1 0x40 PUSH2 0x71D DUP8 DUP3 DUP9 ADD PUSH2 0x6A2 JUMP JUMPDEST SWAP3 POP POP PUSH1 0x60 PUSH2 0x72E DUP8 DUP3 DUP9 ADD PUSH2 0x6A2 JUMP JUMPDEST SWAP2 POP POP SWAP3 SWAP6 SWAP2 SWAP5 POP SWAP3 POP JUMP JUMPDEST PUSH1 0x0 PUSH1 0x20 DUP3 DUP5 SUB SLT ISZERO PUSH2 0x750 JUMPI PUSH2 0x74F PUSH2 0xBA0 JUMP JUMPDEST JUMPDEST PUSH1 0x0 PUSH2 0x75E DUP5 DUP3 DUP6 ADD PUSH2 0x6A2 JUMP JUMPDEST SWAP2 POP POP SWAP3 SWAP2 POP POP JUMP JUMPDEST PUSH1 0x0 DUP1 PUSH1 0x40 DUP4 DUP6 SUB SLT ISZERO PUSH2 0x77E JUMPI PUSH2 0x77D PUSH2 0xBA0 JUMP JUMPDEST JUMPDEST PUSH1 0x0 PUSH2 0x78C DUP6 DUP3 DUP7 ADD PUSH2 0x6A2 JUMP JUMPDEST SWAP3 POP POP PUSH1 0x20 DUP4 ADD CALLDATALOAD PUSH8 0xFFFFFFFFFFFFFFFF DUP2 GT ISZERO PUSH2 0x7AD JUMPI PUSH2 0x7AC PUSH2 0xB9B JUMP JUMPDEST JUMPDEST PUSH2 0x7B9 DUP6 DUP3 DUP7 ADD PUSH2 0x674 JUMP JUMPDEST SWAP2 POP POP SWAP3 POP SWAP3 SWAP1 POP JUMP JUMPDEST PUSH1 0x0 DUP1 PUSH1 0x40 DUP4 DUP6 SUB SLT ISZERO PUSH2 0x7DA JUMPI PUSH2 0x7D9 PUSH2 0xBA0 JUMP JUMPDEST JUMPDEST PUSH1 0x0 PUSH2 0x7E8 DUP6 DUP3 DUP7 ADD PUSH2 0x6A2 JUMP JUMPDEST SWAP3 POP POP PUSH1 0x20 PUSH2 0x7F9 DUP6 DUP3 DUP7 ADD PUSH2 0x6A2 JUMP JUMPDEST SWAP2 POP POP SWAP3 POP SWAP3 SWAP1 POP JUMP JUMPDEST PUSH1 0x0 DUP1 PUSH1 0x0 PUSH1 0x60 DUP5 DUP7 SUB SLT ISZERO PUSH2 0x81C JUMPI PUSH2 0x81B PUSH2 0xBA0 JUMP JUMPDEST JUMPDEST PUSH1 0x0 PUSH2 0x82A DUP7 DUP3 DUP8 ADD PUSH2 0x6A2 JUMP JUMPDEST SWAP4 POP POP PUSH1 0x20 PUSH2 0x83B DUP7 DUP3 DUP8 ADD PUSH2 0x6A2 JUMP JUMPDEST SWAP3 POP POP PUSH1 0x40 PUSH2 0x84C DUP7 DUP3 DUP8 ADD PUSH2 0x6A2 JUMP JUMPDEST SWAP2 POP POP SWAP3 POP SWAP3 POP SWAP3 JUMP JUMPDEST PUSH1 0x0 DUP1 PUSH1 0x0 DUP1 PUSH1 0x80 DUP6 DUP8 SUB SLT ISZERO PUSH2 0x870 JUMPI PUSH2 0x86F PUSH2 0xBA0 JUMP JUMPDEST JUMPDEST PUSH1 0x0 PUSH2 0x87E DUP8 DUP3 DUP9 ADD PUSH2 0x6A2 JUMP JUMPDEST SWAP5 POP POP PUSH1 0x20 PUSH2 0x88F DUP8 DUP3 DUP9 ADD PUSH2 0x6A2 JUMP JUMPDEST SWAP4 POP POP PUSH1 0x40 PUSH2 0x8A0 DUP8 DUP3 DUP9 ADD PUSH2 0x6A2 JUMP JUMPDEST SWAP3 POP POP PUSH1 0x60 PUSH2 0x8B1 DUP8 DUP3 DUP9 ADD PUSH2 0x6A2 JUMP JUMPDEST SWAP2 POP POP SWAP3 SWAP6 SWAP2 SWAP5 POP SWAP3 POP JUMP JUMPDEST PUSH1 0x0 PUSH2 0x8C8 DUP3 PUSH2 0x9A7 JUMP JUMPDEST PUSH2 0x8D2 DUP2 DUP6 PUSH2 0x9B2 JUMP JUMPDEST SWAP4 POP PUSH2 0x8E2 DUP2 DUP6 PUSH1 0x20 DUP7 ADD PUSH2 0xA10 JUMP JUMPDEST PUSH2 0x8EB DUP2 PUSH2 0xBA5 JUMP JUMPDEST DUP5 ADD SWAP2 POP POP SWAP3 SWAP2 POP POP JUMP JUMPDEST PUSH2 0x8FF DUP2 PUSH2 0x9F7 JUMP JUMPDEST DUP3 MSTORE POP POP JUMP JUMPDEST PUSH1 0x0 PUSH1 0x80 DUP3 ADD SWAP1 POP DUP2 DUP2 SUB PUSH1 0x0 DUP4 ADD MSTORE PUSH2 0x91F DUP2 DUP8 PUSH2 0x8BD JUMP JUMPDEST SWAP1 POP PUSH2 0x92E PUSH1 0x20 DUP4 ADD DUP7 PUSH2 0x8F6 JUMP JUMPDEST PUSH2 0x93B PUSH1 0x40 DUP4 ADD DUP6 PUSH2 0x8F6 JUMP JUMPDEST PUSH2 0x948 PUSH1 0x60 DUP4 ADD DUP5 PUSH2 0x8F6 JUMP JUMPDEST SWAP6 SWAP5 POP POP POP POP POP JUMP JUMPDEST PUSH1 0x0 PUSH2 0x95B PUSH2 0x96C JUMP JUMPDEST SWAP1 POP PUSH2 0x967 DUP3 DUP3 PUSH2 0xA75 JUMP JUMPDEST SWAP2 SWAP1 POP JUMP JUMPDEST PUSH1 0x0 PUSH1 0x40 MLOAD SWAP1 POP SWAP1 JUMP JUMPDEST PUSH1 0x0 PUSH8 0xFFFFFFFFFFFFFFFF DUP3 GT ISZERO PUSH2 0x991 JUMPI PUSH2 0x990 PUSH2 0xB62 JUMP JUMPDEST JUMPDEST PUSH2 0x99A DUP3 PUSH2 0xBA5 JUMP JUMPDEST SWAP1 POP PUSH1 0x20 DUP2 ADD SWAP1 POP SWAP2 SWAP1 POP JUMP JUMPDEST PUSH1 0x0 DUP2 MLOAD SWAP1 POP SWAP2 SWAP1 POP JUMP JUMPDEST PUSH1 0x0 DUP3 DUP3 MSTORE PUSH1 0x20 DUP3 ADD SWAP1 POP SWAP3 SWAP2 POP POP JUMP JUMPDEST PUSH1 0x0 PUSH2 0x9CE DUP3 PUSH2 0x9F7 JUMP JUMPDEST SWAP2 POP PUSH2 0x9D9 DUP4 PUSH2 0x9F7 JUMP JUMPDEST SWAP3 POP DUP3 DUP3 LT ISZERO PUSH2 0x9EC JUMPI PUSH2 0x9EB PUSH2 0xAA6 JUMP JUMPDEST JUMPDEST DUP3 DUP3 SUB SWAP1 POP SWAP3 SWAP2 POP POP JUMP JUMPDEST PUSH1 0x0 DUP2 SWAP1 POP SWAP2 SWAP1 POP JUMP JUMPDEST DUP3 DUP2 DUP4 CALLDATACOPY PUSH1 0x0 DUP4 DUP4 ADD MSTORE POP POP POP JUMP JUMPDEST PUSH1 0x0 JUMPDEST DUP4 DUP2 LT ISZERO PUSH2 0xA2E JUMPI DUP1 DUP3 ADD MLOAD DUP2 DUP5 ADD MSTORE PUSH1 0x20 DUP2 ADD SWAP1 POP PUSH2 0xA13 JUMP JUMPDEST DUP4 DUP2 GT ISZERO PUSH2 0xA3D JUMPI PUSH1 0x0 DUP5 DUP5 ADD MSTORE JUMPDEST POP POP POP POP JUMP JUMPDEST PUSH1 0x0 PUSH1 0x2 DUP3 DIV SWAP1 POP PUSH1 0x1 DUP3 AND DUP1 PUSH2 0xA5B JUMPI PUSH1 0x7F DUP3 AND SWAP2 POP JUMPDEST PUSH1 0x20 DUP3 LT DUP2 EQ ISZERO PUSH2 0xA6F JUMPI PUSH2 0xA6E PUSH2 0xAD5 JUMP JUMPDEST JUMPDEST POP SWAP2 SWAP1 POP JUMP JUMPDEST PUSH2 0xA7E DUP3 PUSH2 0xBA5 JUMP JUMPDEST DUP2 ADD DUP2 DUP2 LT PUSH8 0xFFFFFFFFFFFFFFFF DUP3 GT OR ISZERO PUSH2 0xA9D JUMPI PUSH2 0xA9C PUSH2 0xB62 JUMP JUMPDEST JUMPDEST DUP1 PUSH1 0x40 MSTORE POP POP POP JUMP JUMPDEST PUSH32 0x4E487B7100000000000000000000000000000000000000000000000000000000 PUSH1 0x0 MSTORE PUSH1 0x11 PUSH1 0x4 MSTORE PUSH1 0x24 PUSH1 0x0 REVERT JUMPDEST PUSH32 0x4E487B7100000000000000000000000000000000000000000000000000000000 PUSH1 0x0 MSTORE PUSH1 0x22 PUSH1 0x4 MSTORE PUSH1 0x24 PUSH1 0x0 REVERT JUMPDEST PUSH32 0x4E487B7100000000000000000000000000000000000000000000000000000000 PUSH1 0x0 MSTORE PUSH1 0x31 PUSH1 0x4 MSTORE PUSH1 0x24 PUSH1 0x0 REVERT JUMPDEST PUSH32 0x4E487B7100000000000000000000000000000000000000000000000000000000 PUSH1 0x0 MSTORE PUSH1 0x32 PUSH1 0x4 MSTORE PUSH1 0x24 PUSH1 0x0 REVERT JUMPDEST PUSH32 0x4E487B7100000000000000000000000000000000000000000000000000000000 PUSH1 0x0 MSTORE PUSH1 0x41 PUSH1 0x4 MSTORE PUSH1 0x24 PUSH1 0x0 REVERT JUMPDEST PUSH1 0x0 DUP1 REVERT JUMPDEST PUSH1 0x0 DUP1 REVERT JUMPDEST PUSH1 0x0 DUP1 REVERT JUMPDEST PUSH1 0x0 DUP1 REVERT JUMPDEST PUSH1 0x0 PUSH1 0x1F NOT PUSH1 0x1F DUP4 ADD AND SWAP1 POP SWAP2 SWAP1 POP JUMP JUMPDEST PUSH2 0xBBF DUP2 PUSH2 0x9F7 JUMP JUMPDEST DUP2 EQ PUSH2 0xBCA JUMPI PUSH1 0x0 DUP1 REVERT JUMPDEST POP JUMP INVALID LOG2 PUSH5 0x6970667358 0x22 SLT KECCAK256 0xC8 CALLDATASIZE 0x28 CALLDATASIZE DUP6 SWAP14 PUSH17 0x16D461E43CA6DC9818EFBE6971B1E7A0F6 DUP11 GASPRICE DUP4 SLT 0xC5 EXP 0x4E 0x49 PUSH5 0x736F6C6343 STOP ADDMOD SMOD STOP CALLER "
				},
				"gasEstimates": {
					"creation": {
						"codeDepositCost": "615000",
						"executionCost": "651",
						"totalCost": "615651"
					},
					"external": {
						"addtolist(string,uint256,uint256,uint256)": "infinite",
						"editDay(uint256,uint256,uint256,uint256)": "infinite",
						"editMonth(uint256,uint256,uint256)": "infinite",
						"editYear(uint256,uint256)": "infinite",
						"editaction(uint256,string)": "infinite",
						"getfromlist(uint256)": "infinite",
						"remfromtodo(uint256)": "infinite"
					}
				},
				"methodIdentifiers": {
					"addtolist(string,uint256,uint256,uint256)": "e1b7edff",
					"editDay(uint256,uint256,uint256,uint256)": "56b08f10",
					"editMonth(uint256,uint256,uint256)": "82659eec",
					"editYear(uint256,uint256)": "973e2bbc",
					"editaction(uint256,string)": "12cbb972",
					"getfromlist(uint256)": "7aadbdd3",
					"remfromtodo(uint256)": "9351b078"
				}
			},
			"storageLayout": {
				"storage": [
					{
						"astId": 14,
						"contract": "Todo.sol:TodoList",
						"label": "todoarr",
						"offset": 0,
						"slot": "0",
						"type": "t_array(t_struct(Todo)10_storage)dyn_storage"
					}
				],
				"types": {
					"t_array(t_struct(Todo)10_storage)dyn_storage": {
						"base": "t_struct(Todo)10_storage",
						"encoding": "dynamic_array",
						"label": "struct TodoList.Todo[]",
						"numberOfBytes": "32"
					},
					"t_string_storage": {
						"encoding": "bytes",
						"label": "string",
						"numberOfBytes": "32"
					},
					"t_struct(Todo)10_storage": {
						"encoding": "inplace",
						"label": "struct TodoList.Todo",
						"members": [
							{
								"astId": 3,
								"contract": "Todo.sol:TodoList",
								"label": "action",
								"offset": 0,
								"slot": "0",
								"type": "t_string_storage"
							},
							{
								"astId": 5,
								"contract": "Todo.sol:TodoList",
								"label": "day",
								"offset": 0,
								"slot": "1",
								"type": "t_uint256"
							},
							{
								"astId": 7,
								"contract": "Todo.sol:TodoList",
								"label": "month",
								"offset": 0,
								"slot": "2",
								"type": "t_uint256"
							},
							{
								"astId": 9,
								"contract": "Todo.sol:TodoList",
								"label": "year",
								"offset": 0,
								"slot": "3",
								"type": "t_uint256"
							}
						],
						"numberOfBytes": "128"
					},
					"t_uint256": {
						"encoding": "inplace",
						"label": "uint256",
						"numberOfBytes": "32"
					}
				}
			},
			"userdoc": {
				"kind": "user",
				"methods": {},
				"version": 1
			}
		}
	}
}