{
	"Todo.sol": {
		"TodoList": {
			"abi": [
				{
					"inputs": [
						{
							"internalType": "string",
							"name": "_action",
							"type": "string"
						},
						{
							"internalType": "uint256",
							"name": "_day",
							"type": "uint256"
						},
						{
							"internalType": "uint256",
							"name": "_month",
							"type": "uint256"
						},
						{
							"internalType": "uint256",
							"name": "_year",
							"type": "uint256"
						}
					],
					"name": "addtolist",
					"outputs": [],
					"stateMutability": "nonpayable",
					"type": "function"
				},
				{
					"inputs": [
						{
							"internalType": "uint256",
							"name": "index",
							"type": "uint256"
						}
					],
					"name": "deletefromtodo",
					"outputs": [],
					"stateMutability": "nonpayable",
					"type": "function"
				},
				{
					"inputs": [],
					"name": "edittodo",
					"outputs": [],
					"stateMutability": "nonpayable",
					"type": "function"
				},
				{
					"inputs": [
						{
							"internalType": "uint256",
							"name": "_index",
							"type": "uint256"
						}
					],
					"name": "getfromlist",
					"outputs": [
						{
							"internalType": "string",
							"name": "",
							"type": "string"
						},
						{
							"internalType": "uint256",
							"name": "",
							"type": "uint256"
						},
						{
							"internalType": "uint256",
							"name": "",
							"type": "uint256"
						},
						{
							"internalType": "uint256",
							"name": "",
							"type": "uint256"
						}
					],
					"stateMutability": "view",
					"type": "function"
				}
			],
			"devdoc": {
				"kind": "dev",
				"methods": {},
				"version": 1
			},
			"evm": {
				"assembly": "    /* \"Todo.sol\":56:738  contract TodoList{\r... */\n  mstore(0x40, 0x80)\n  callvalue\n  dup1\n  iszero\n  tag_1\n  jumpi\n  0x00\n  dup1\n  revert\ntag_1:\n  pop\n  dataSize(sub_0)\n  dup1\n  dataOffset(sub_0)\n  0x00\n  codecopy\n  0x00\n  return\nstop\n\nsub_0: assembly {\n        /* \"Todo.sol\":56:738  contract TodoList{\r... */\n      mstore(0x40, 0x80)\n      callvalue\n      dup1\n      iszero\n      tag_1\n      jumpi\n      0x00\n      dup1\n      revert\n    tag_1:\n      pop\n      jumpi(tag_2, lt(calldatasize, 0x04))\n      shr(0xe0, calldataload(0x00))\n      dup1\n      0x7aadbdd3\n      eq\n      tag_3\n      jumpi\n      dup1\n      0xa67b3fdd\n      eq\n      tag_4\n      jumpi\n      dup1\n      0xdfa36c8b\n      eq\n      tag_5\n      jumpi\n      dup1\n      0xe1b7edff\n      eq\n      tag_6\n      jumpi\n    tag_2:\n      0x00\n      dup1\n      revert\n        /* \"Todo.sol\":408:586  function getfromlist(uint _index) public view returns(string memory,uint,uint,uint){\r... */\n    tag_3:\n      tag_7\n      0x04\n      dup1\n      calldatasize\n      sub\n      dup2\n      add\n      swap1\n      tag_8\n      swap2\n      swap1\n      tag_9\n      jump\t// in\n    tag_8:\n      tag_10\n      jump\t// in\n    tag_7:\n      mload(0x40)\n      tag_11\n      swap5\n      swap4\n      swap3\n      swap2\n      swap1\n      tag_12\n      jump\t// in\n    tag_11:\n      mload(0x40)\n      dup1\n      swap2\n      sub\n      swap1\n      return\n        /* \"Todo.sol\":703:733  function edittodo() external{} */\n    tag_4:\n      tag_13\n      tag_14\n      jump\t// in\n    tag_13:\n      stop\n        /* \"Todo.sol\":590:701  function deletefromtodo(uint index) external {\r... */\n    tag_5:\n      tag_15\n      0x04\n      dup1\n      calldatasize\n      sub\n      dup2\n      add\n      swap1\n      tag_16\n      swap2\n      swap1\n      tag_9\n      jump\t// in\n    tag_16:\n      tag_17\n      jump\t// in\n    tag_15:\n      stop\n        /* \"Todo.sol\":215:406  function addtolist(string memory _action,uint _day,uint _month,uint _year) external {\r... */\n    tag_6:\n      tag_18\n      0x04\n      dup1\n      calldatasize\n      sub\n      dup2\n      add\n      swap1\n      tag_19\n      swap2\n      swap1\n      tag_20\n      jump\t// in\n    tag_19:\n      tag_21\n      jump\t// in\n    tag_18:\n      stop\n        /* \"Todo.sol\":408:586  function getfromlist(uint _index) public view returns(string memory,uint,uint,uint){\r... */\n    tag_10:\n        /* \"Todo.sol\":462:475  string memory */\n      0x60\n        /* \"Todo.sol\":476:480  uint */\n      0x00\n        /* \"Todo.sol\":481:485  uint */\n      dup1\n        /* \"Todo.sol\":486:490  uint */\n      0x00\n        /* \"Todo.sol\":494:510  Todo memory todo */\n      dup1\n        /* \"Todo.sol\":513:520  todoarr */\n      0x00\n        /* \"Todo.sol\":521:527  _index */\n      dup7\n        /* \"Todo.sol\":513:528  todoarr[_index] */\n      dup2\n      sload\n      dup2\n      lt\n      tag_23\n      jumpi\n      tag_24\n      tag_25\n      jump\t// in\n    tag_24:\n    tag_23:\n      swap1\n      0x00\n      mstore\n      keccak256(0x00, 0x20)\n      swap1\n      0x04\n      mul\n      add\n        /* \"Todo.sol\":494:528  Todo memory todo = todoarr[_index] */\n      mload(0x40)\n      dup1\n      0x80\n      add\n      0x40\n      mstore\n      swap1\n      dup2\n      0x00\n      dup3\n      add\n      dup1\n      sload\n      tag_27\n      swap1\n      tag_28\n      jump\t// in\n    tag_27:\n      dup1\n      0x1f\n      add\n      0x20\n      dup1\n      swap2\n      div\n      mul\n      0x20\n      add\n      mload(0x40)\n      swap1\n      dup2\n      add\n      0x40\n      mstore\n      dup1\n      swap3\n      swap2\n      swap1\n      dup2\n      dup2\n      mstore\n      0x20\n      add\n      dup3\n      dup1\n      sload\n      tag_29\n      swap1\n      tag_28\n      jump\t// in\n    tag_29:\n      dup1\n      iszero\n      tag_30\n      jumpi\n      dup1\n      0x1f\n      lt\n      tag_31\n      jumpi\n      0x0100\n      dup1\n      dup4\n      sload\n      div\n      mul\n      dup4\n      mstore\n      swap2\n      0x20\n      add\n      swap2\n      jump(tag_30)\n    tag_31:\n      dup3\n      add\n      swap2\n      swap1\n      0x00\n      mstore\n      keccak256(0x00, 0x20)\n      swap1\n    tag_32:\n      dup2\n      sload\n      dup2\n      mstore\n      swap1\n      0x01\n      add\n      swap1\n      0x20\n      add\n      dup1\n      dup4\n      gt\n      tag_32\n      jumpi\n      dup3\n      swap1\n      sub\n      0x1f\n      and\n      dup3\n      add\n      swap2\n    tag_30:\n      pop\n      pop\n      pop\n      pop\n      pop\n      dup2\n      mstore\n      0x20\n      add\n      0x01\n      dup3\n      add\n      sload\n      dup2\n      mstore\n      0x20\n      add\n      0x02\n      dup3\n      add\n      sload\n      dup2\n      mstore\n      0x20\n      add\n      0x03\n      dup3\n      add\n      sload\n      dup2\n      mstore\n      pop\n      pop\n      swap1\n      pop\n        /* \"Todo.sol\":540:544  todo */\n      dup1\n        /* \"Todo.sol\":540:551  todo.action */\n      0x00\n      add\n      mload\n        /* \"Todo.sol\":552:556  todo */\n      dup2\n        /* \"Todo.sol\":552:560  todo.day */\n      0x20\n      add\n      mload\n        /* \"Todo.sol\":561:565  todo */\n      dup3\n        /* \"Todo.sol\":561:571  todo.month */\n      0x40\n      add\n      mload\n        /* \"Todo.sol\":572:576  todo */\n      dup4\n        /* \"Todo.sol\":572:581  todo.year */\n      0x60\n      add\n      mload\n        /* \"Todo.sol\":532:582  return (todo.action,todo.day,todo.month,todo.year) */\n      swap5\n      pop\n      swap5\n      pop\n      swap5\n      pop\n      swap5\n      pop\n      pop\n        /* \"Todo.sol\":408:586  function getfromlist(uint _index) public view returns(string memory,uint,uint,uint){\r... */\n      swap2\n      swap4\n      pop\n      swap2\n      swap4\n      jump\t// out\n        /* \"Todo.sol\":703:733  function edittodo() external{} */\n    tag_14:\n      jump\t// out\n        /* \"Todo.sol\":590:701  function deletefromtodo(uint index) external {\r... */\n    tag_17:\n        /* \"Todo.sol\":655:662  todoarr */\n      0x00\n        /* \"Todo.sol\":679:680  1 */\n      0x01\n        /* \"Todo.sol\":663:670  todoarr */\n      0x00\n        /* \"Todo.sol\":663:677  todoarr.length */\n      dup1\n      sload\n      swap1\n      pop\n        /* \"Todo.sol\":663:680  todoarr.length -1 */\n      tag_35\n      swap2\n      swap1\n      tag_36\n      jump\t// in\n    tag_35:\n        /* \"Todo.sol\":655:681  todoarr[todoarr.length -1] */\n      dup2\n      sload\n      dup2\n      lt\n      tag_37\n      jumpi\n      tag_38\n      tag_25\n      jump\t// in\n    tag_38:\n    tag_37:\n      swap1\n      0x00\n      mstore\n      keccak256(0x00, 0x20)\n      swap1\n      0x04\n      mul\n      add\n        /* \"Todo.sol\":638:645  todoarr */\n      0x00\n        /* \"Todo.sol\":646:651  index */\n      dup3\n        /* \"Todo.sol\":638:652  todoarr[index] */\n      dup2\n      sload\n      dup2\n      lt\n      tag_40\n      jumpi\n      tag_41\n      tag_25\n      jump\t// in\n    tag_41:\n    tag_40:\n      swap1\n      0x00\n      mstore\n      keccak256(0x00, 0x20)\n      swap1\n      0x04\n      mul\n      add\n        /* \"Todo.sol\":638:681  todoarr[index] = todoarr[todoarr.length -1] */\n      0x00\n      dup3\n      add\n      dup2\n      0x00\n      add\n      swap1\n      dup1\n      sload\n      tag_43\n      swap1\n      tag_28\n      jump\t// in\n    tag_43:\n      tag_44\n      swap3\n      swap2\n      swap1\n      tag_45\n      jump\t// in\n    tag_44:\n      pop\n      0x01\n      dup3\n      add\n      sload\n      dup2\n      0x01\n      add\n      sstore\n      0x02\n      dup3\n      add\n      sload\n      dup2\n      0x02\n      add\n      sstore\n      0x03\n      dup3\n      add\n      sload\n      dup2\n      0x03\n      add\n      sstore\n      swap1\n      pop\n      pop\n        /* \"Todo.sol\":684:691  todoarr */\n      0x00\n        /* \"Todo.sol\":684:697  todoarr.pop() */\n      dup1\n      sload\n      dup1\n      tag_46\n      jumpi\n      tag_47\n      tag_48\n      jump\t// in\n    tag_47:\n    tag_46:\n      0x01\n      swap1\n      sub\n      dup2\n      dup2\n      swap1\n      0x00\n      mstore\n      keccak256(0x00, 0x20)\n      swap1\n      0x04\n      mul\n      add\n      0x00\n      dup1\n      dup3\n      add\n      0x00\n      tag_50\n      swap2\n      swap1\n      tag_51\n      jump\t// in\n    tag_50:\n      0x01\n      dup3\n      add\n      0x00\n      swap1\n      sstore\n      0x02\n      dup3\n      add\n      0x00\n      swap1\n      sstore\n      0x03\n      dup3\n      add\n      0x00\n      swap1\n      sstore\n      pop\n      pop\n      swap1\n      sstore\n        /* \"Todo.sol\":590:701  function deletefromtodo(uint index) external {\r... */\n      pop\n      jump\t// out\n        /* \"Todo.sol\":215:406  function addtolist(string memory _action,uint _day,uint _month,uint _year) external {\r... */\n    tag_21:\n        /* \"Todo.sol\":302:309  todoarr */\n      0x00\n        /* \"Todo.sol\":315:401  Todo({\r... */\n      mload(0x40)\n      dup1\n      0x80\n      add\n      0x40\n      mstore\n      dup1\n        /* \"Todo.sol\":335:342  _action */\n      dup7\n        /* \"Todo.sol\":315:401  Todo({\r... */\n      dup2\n      mstore\n      0x20\n      add\n        /* \"Todo.sol\":354:358  _day */\n      dup6\n        /* \"Todo.sol\":315:401  Todo({\r... */\n      dup2\n      mstore\n      0x20\n      add\n        /* \"Todo.sol\":372:378  _month */\n      dup5\n        /* \"Todo.sol\":315:401  Todo({\r... */\n      dup2\n      mstore\n      0x20\n      add\n        /* \"Todo.sol\":392:397  _year */\n      dup4\n        /* \"Todo.sol\":315:401  Todo({\r... */\n      dup2\n      mstore\n      pop\n        /* \"Todo.sol\":302:402  todoarr.push(Todo({\r... */\n      swap1\n      dup1\n      0x01\n      dup2\n      sload\n      add\n      dup1\n      dup3\n      sstore\n      dup1\n      swap2\n      pop\n      pop\n      0x01\n      swap1\n      sub\n      swap1\n      0x00\n      mstore\n      keccak256(0x00, 0x20)\n      swap1\n      0x04\n      mul\n      add\n      0x00\n      swap1\n      swap2\n      swap1\n      swap2\n      swap1\n      swap2\n      pop\n      0x00\n      dup3\n      add\n      mload\n      dup2\n      0x00\n      add\n      swap1\n      dup1\n      mload\n      swap1\n      0x20\n      add\n      swap1\n      tag_54\n      swap3\n      swap2\n      swap1\n      tag_55\n      jump\t// in\n    tag_54:\n      pop\n      0x20\n      dup3\n      add\n      mload\n      dup2\n      0x01\n      add\n      sstore\n      0x40\n      dup3\n      add\n      mload\n      dup2\n      0x02\n      add\n      sstore\n      0x60\n      dup3\n      add\n      mload\n      dup2\n      0x03\n      add\n      sstore\n      pop\n      pop\n        /* \"Todo.sol\":215:406  function addtolist(string memory _action,uint _day,uint _month,uint _year) external {\r... */\n      pop\n      pop\n      pop\n      pop\n      jump\t// out\n    tag_45:\n      dup3\n      dup1\n      sload\n      tag_56\n      swap1\n      tag_28\n      jump\t// in\n    tag_56:\n      swap1\n      0x00\n      mstore\n      keccak256(0x00, 0x20)\n      swap1\n      0x1f\n      add\n      0x20\n      swap1\n      div\n      dup2\n      add\n      swap3\n      dup3\n      tag_58\n      jumpi\n      0x00\n      dup6\n      sstore\n      jump(tag_57)\n    tag_58:\n      dup3\n      0x1f\n      lt\n      tag_59\n      jumpi\n      dup1\n      sload\n      dup6\n      sstore\n      jump(tag_57)\n    tag_59:\n      dup3\n      dup1\n      add\n      0x01\n      add\n      dup6\n      sstore\n      dup3\n      iszero\n      tag_57\n      jumpi\n      0x00\n      mstore\n      keccak256(0x00, 0x20)\n      swap2\n      0x1f\n      add\n      0x20\n      swap1\n      div\n      dup3\n      add\n    tag_60:\n      dup3\n      dup2\n      gt\n      iszero\n      tag_61\n      jumpi\n      dup3\n      sload\n      dup3\n      sstore\n      swap2\n      0x01\n      add\n      swap2\n      swap1\n      0x01\n      add\n      swap1\n      jump(tag_60)\n    tag_61:\n    tag_57:\n      pop\n      swap1\n      pop\n      tag_62\n      swap2\n      swap1\n      tag_63\n      jump\t// in\n    tag_62:\n      pop\n      swap1\n      jump\t// out\n    tag_51:\n      pop\n      dup1\n      sload\n      tag_64\n      swap1\n      tag_28\n      jump\t// in\n    tag_64:\n      0x00\n      dup3\n      sstore\n      dup1\n      0x1f\n      lt\n      tag_66\n      jumpi\n      pop\n      jump(tag_65)\n    tag_66:\n      0x1f\n      add\n      0x20\n      swap1\n      div\n      swap1\n      0x00\n      mstore\n      keccak256(0x00, 0x20)\n      swap1\n      dup2\n      add\n      swap1\n      tag_67\n      swap2\n      swap1\n      tag_63\n      jump\t// in\n    tag_67:\n    tag_65:\n      pop\n      jump\t// out\n    tag_55:\n      dup3\n      dup1\n      sload\n      tag_68\n      swap1\n      tag_28\n      jump\t// in\n    tag_68:\n      swap1\n      0x00\n      mstore\n      keccak256(0x00, 0x20)\n      swap1\n      0x1f\n      add\n      0x20\n      swap1\n      div\n      dup2\n      add\n      swap3\n      dup3\n      tag_70\n      jumpi\n      0x00\n      dup6\n      sstore\n      jump(tag_69)\n    tag_70:\n      dup3\n      0x1f\n      lt\n      tag_71\n      jumpi\n      dup1\n      mload\n      not(0xff)\n      and\n      dup4\n      dup1\n      add\n      or\n      dup6\n      sstore\n      jump(tag_69)\n    tag_71:\n      dup3\n      dup1\n      add\n      0x01\n      add\n      dup6\n      sstore\n      dup3\n      iszero\n      tag_69\n      jumpi\n      swap2\n      dup3\n      add\n    tag_72:\n      dup3\n      dup2\n      gt\n      iszero\n      tag_73\n      jumpi\n      dup3\n      mload\n      dup3\n      sstore\n      swap2\n      0x20\n      add\n      swap2\n      swap1\n      0x01\n      add\n      swap1\n      jump(tag_72)\n    tag_73:\n    tag_69:\n      pop\n      swap1\n      pop\n      tag_74\n      swap2\n      swap1\n      tag_63\n      jump\t// in\n    tag_74:\n      pop\n      swap1\n      jump\t// out\n    tag_63:\n    tag_75:\n      dup1\n      dup3\n      gt\n      iszero\n      tag_76\n      jumpi\n      0x00\n      dup2\n      0x00\n      swap1\n      sstore\n      pop\n      0x01\n      add\n      jump(tag_75)\n    tag_76:\n      pop\n      swap1\n      jump\t// out\n        /* \"#utility.yul\":7:419   */\n    tag_78:\n        /* \"#utility.yul\":85:90   */\n      0x00\n        /* \"#utility.yul\":110:176   */\n      tag_80\n        /* \"#utility.yul\":126:175   */\n      tag_81\n        /* \"#utility.yul\":168:174   */\n      dup5\n        /* \"#utility.yul\":126:175   */\n      tag_82\n      jump\t// in\n    tag_81:\n        /* \"#utility.yul\":110:176   */\n      tag_83\n      jump\t// in\n    tag_80:\n        /* \"#utility.yul\":101:176   */\n      swap1\n      pop\n        /* \"#utility.yul\":199:205   */\n      dup3\n        /* \"#utility.yul\":192:197   */\n      dup2\n        /* \"#utility.yul\":185:206   */\n      mstore\n        /* \"#utility.yul\":237:241   */\n      0x20\n        /* \"#utility.yul\":230:235   */\n      dup2\n        /* \"#utility.yul\":226:242   */\n      add\n        /* \"#utility.yul\":275:278   */\n      dup5\n        /* \"#utility.yul\":266:272   */\n      dup5\n        /* \"#utility.yul\":261:264   */\n      dup5\n        /* \"#utility.yul\":257:273   */\n      add\n        /* \"#utility.yul\":254:279   */\n      gt\n        /* \"#utility.yul\":251:363   */\n      iszero\n      tag_84\n      jumpi\n        /* \"#utility.yul\":282:361   */\n      tag_85\n      tag_86\n      jump\t// in\n    tag_85:\n        /* \"#utility.yul\":251:363   */\n    tag_84:\n        /* \"#utility.yul\":372:413   */\n      tag_87\n        /* \"#utility.yul\":406:412   */\n      dup5\n        /* \"#utility.yul\":401:404   */\n      dup3\n        /* \"#utility.yul\":396:399   */\n      dup6\n        /* \"#utility.yul\":372:413   */\n      tag_88\n      jump\t// in\n    tag_87:\n        /* \"#utility.yul\":91:419   */\n      pop\n        /* \"#utility.yul\":7:419   */\n      swap4\n      swap3\n      pop\n      pop\n      pop\n      jump\t// out\n        /* \"#utility.yul\":439:779   */\n    tag_89:\n        /* \"#utility.yul\":495:500   */\n      0x00\n        /* \"#utility.yul\":544:547   */\n      dup3\n        /* \"#utility.yul\":537:541   */\n      0x1f\n        /* \"#utility.yul\":529:535   */\n      dup4\n        /* \"#utility.yul\":525:542   */\n      add\n        /* \"#utility.yul\":521:548   */\n      slt\n        /* \"#utility.yul\":511:633   */\n      tag_91\n      jumpi\n        /* \"#utility.yul\":552:631   */\n      tag_92\n      tag_93\n      jump\t// in\n    tag_92:\n        /* \"#utility.yul\":511:633   */\n    tag_91:\n        /* \"#utility.yul\":669:675   */\n      dup2\n        /* \"#utility.yul\":656:676   */\n      calldataload\n        /* \"#utility.yul\":694:773   */\n      tag_94\n        /* \"#utility.yul\":769:772   */\n      dup5\n        /* \"#utility.yul\":761:767   */\n      dup3\n        /* \"#utility.yul\":754:758   */\n      0x20\n        /* \"#utility.yul\":746:752   */\n      dup7\n        /* \"#utility.yul\":742:759   */\n      add\n        /* \"#utility.yul\":694:773   */\n      tag_78\n      jump\t// in\n    tag_94:\n        /* \"#utility.yul\":685:773   */\n      swap2\n      pop\n        /* \"#utility.yul\":501:779   */\n      pop\n        /* \"#utility.yul\":439:779   */\n      swap3\n      swap2\n      pop\n      pop\n      jump\t// out\n        /* \"#utility.yul\":785:924   */\n    tag_95:\n        /* \"#utility.yul\":831:836   */\n      0x00\n        /* \"#utility.yul\":869:875   */\n      dup2\n        /* \"#utility.yul\":856:876   */\n      calldataload\n        /* \"#utility.yul\":847:876   */\n      swap1\n      pop\n        /* \"#utility.yul\":885:918   */\n      tag_97\n        /* \"#utility.yul\":912:917   */\n      dup2\n        /* \"#utility.yul\":885:918   */\n      tag_98\n      jump\t// in\n    tag_97:\n        /* \"#utility.yul\":785:924   */\n      swap3\n      swap2\n      pop\n      pop\n      jump\t// out\n        /* \"#utility.yul\":930:1875   */\n    tag_20:\n        /* \"#utility.yul\":1026:1032   */\n      0x00\n        /* \"#utility.yul\":1034:1040   */\n      dup1\n        /* \"#utility.yul\":1042:1048   */\n      0x00\n        /* \"#utility.yul\":1050:1056   */\n      dup1\n        /* \"#utility.yul\":1099:1102   */\n      0x80\n        /* \"#utility.yul\":1087:1096   */\n      dup6\n        /* \"#utility.yul\":1078:1085   */\n      dup8\n        /* \"#utility.yul\":1074:1097   */\n      sub\n        /* \"#utility.yul\":1070:1103   */\n      slt\n        /* \"#utility.yul\":1067:1187   */\n      iszero\n      tag_100\n      jumpi\n        /* \"#utility.yul\":1106:1185   */\n      tag_101\n      tag_102\n      jump\t// in\n    tag_101:\n        /* \"#utility.yul\":1067:1187   */\n    tag_100:\n        /* \"#utility.yul\":1254:1255   */\n      0x00\n        /* \"#utility.yul\":1243:1252   */\n      dup6\n        /* \"#utility.yul\":1239:1256   */\n      add\n        /* \"#utility.yul\":1226:1257   */\n      calldataload\n        /* \"#utility.yul\":1284:1302   */\n      0xffffffffffffffff\n        /* \"#utility.yul\":1276:1282   */\n      dup2\n        /* \"#utility.yul\":1273:1303   */\n      gt\n        /* \"#utility.yul\":1270:1387   */\n      iszero\n      tag_103\n      jumpi\n        /* \"#utility.yul\":1306:1385   */\n      tag_104\n      tag_105\n      jump\t// in\n    tag_104:\n        /* \"#utility.yul\":1270:1387   */\n    tag_103:\n        /* \"#utility.yul\":1411:1474   */\n      tag_106\n        /* \"#utility.yul\":1466:1473   */\n      dup8\n        /* \"#utility.yul\":1457:1463   */\n      dup3\n        /* \"#utility.yul\":1446:1455   */\n      dup9\n        /* \"#utility.yul\":1442:1464   */\n      add\n        /* \"#utility.yul\":1411:1474   */\n      tag_89\n      jump\t// in\n    tag_106:\n        /* \"#utility.yul\":1401:1474   */\n      swap5\n      pop\n        /* \"#utility.yul\":1197:1484   */\n      pop\n        /* \"#utility.yul\":1523:1525   */\n      0x20\n        /* \"#utility.yul\":1549:1602   */\n      tag_107\n        /* \"#utility.yul\":1594:1601   */\n      dup8\n        /* \"#utility.yul\":1585:1591   */\n      dup3\n        /* \"#utility.yul\":1574:1583   */\n      dup9\n        /* \"#utility.yul\":1570:1592   */\n      add\n        /* \"#utility.yul\":1549:1602   */\n      tag_95\n      jump\t// in\n    tag_107:\n        /* \"#utility.yul\":1539:1602   */\n      swap4\n      pop\n        /* \"#utility.yul\":1494:1612   */\n      pop\n        /* \"#utility.yul\":1651:1653   */\n      0x40\n        /* \"#utility.yul\":1677:1730   */\n      tag_108\n        /* \"#utility.yul\":1722:1729   */\n      dup8\n        /* \"#utility.yul\":1713:1719   */\n      dup3\n        /* \"#utility.yul\":1702:1711   */\n      dup9\n        /* \"#utility.yul\":1698:1720   */\n      add\n        /* \"#utility.yul\":1677:1730   */\n      tag_95\n      jump\t// in\n    tag_108:\n        /* \"#utility.yul\":1667:1730   */\n      swap3\n      pop\n        /* \"#utility.yul\":1622:1740   */\n      pop\n        /* \"#utility.yul\":1779:1781   */\n      0x60\n        /* \"#utility.yul\":1805:1858   */\n      tag_109\n        /* \"#utility.yul\":1850:1857   */\n      dup8\n        /* \"#utility.yul\":1841:1847   */\n      dup3\n        /* \"#utility.yul\":1830:1839   */\n      dup9\n        /* \"#utility.yul\":1826:1848   */\n      add\n        /* \"#utility.yul\":1805:1858   */\n      tag_95\n      jump\t// in\n    tag_109:\n        /* \"#utility.yul\":1795:1858   */\n      swap2\n      pop\n        /* \"#utility.yul\":1750:1868   */\n      pop\n        /* \"#utility.yul\":930:1875   */\n      swap3\n      swap6\n      swap2\n      swap5\n      pop\n      swap3\n      pop\n      jump\t// out\n        /* \"#utility.yul\":1881:2210   */\n    tag_9:\n        /* \"#utility.yul\":1940:1946   */\n      0x00\n        /* \"#utility.yul\":1989:1991   */\n      0x20\n        /* \"#utility.yul\":1977:1986   */\n      dup3\n        /* \"#utility.yul\":1968:1975   */\n      dup5\n        /* \"#utility.yul\":1964:1987   */\n      sub\n        /* \"#utility.yul\":1960:1992   */\n      slt\n        /* \"#utility.yul\":1957:2076   */\n      iszero\n      tag_111\n      jumpi\n        /* \"#utility.yul\":1995:2074   */\n      tag_112\n      tag_102\n      jump\t// in\n    tag_112:\n        /* \"#utility.yul\":1957:2076   */\n    tag_111:\n        /* \"#utility.yul\":2115:2116   */\n      0x00\n        /* \"#utility.yul\":2140:2193   */\n      tag_113\n        /* \"#utility.yul\":2185:2192   */\n      dup5\n        /* \"#utility.yul\":2176:2182   */\n      dup3\n        /* \"#utility.yul\":2165:2174   */\n      dup6\n        /* \"#utility.yul\":2161:2183   */\n      add\n        /* \"#utility.yul\":2140:2193   */\n      tag_95\n      jump\t// in\n    tag_113:\n        /* \"#utility.yul\":2130:2193   */\n      swap2\n      pop\n        /* \"#utility.yul\":2086:2203   */\n      pop\n        /* \"#utility.yul\":1881:2210   */\n      swap3\n      swap2\n      pop\n      pop\n      jump\t// out\n        /* \"#utility.yul\":2216:2580   */\n    tag_114:\n        /* \"#utility.yul\":2304:2307   */\n      0x00\n        /* \"#utility.yul\":2332:2371   */\n      tag_116\n        /* \"#utility.yul\":2365:2370   */\n      dup3\n        /* \"#utility.yul\":2332:2371   */\n      tag_117\n      jump\t// in\n    tag_116:\n        /* \"#utility.yul\":2387:2458   */\n      tag_118\n        /* \"#utility.yul\":2451:2457   */\n      dup2\n        /* \"#utility.yul\":2446:2449   */\n      dup6\n        /* \"#utility.yul\":2387:2458   */\n      tag_119\n      jump\t// in\n    tag_118:\n        /* \"#utility.yul\":2380:2458   */\n      swap4\n      pop\n        /* \"#utility.yul\":2467:2519   */\n      tag_120\n        /* \"#utility.yul\":2512:2518   */\n      dup2\n        /* \"#utility.yul\":2507:2510   */\n      dup6\n        /* \"#utility.yul\":2500:2504   */\n      0x20\n        /* \"#utility.yul\":2493:2498   */\n      dup7\n        /* \"#utility.yul\":2489:2505   */\n      add\n        /* \"#utility.yul\":2467:2519   */\n      tag_121\n      jump\t// in\n    tag_120:\n        /* \"#utility.yul\":2544:2573   */\n      tag_122\n        /* \"#utility.yul\":2566:2572   */\n      dup2\n        /* \"#utility.yul\":2544:2573   */\n      tag_123\n      jump\t// in\n    tag_122:\n        /* \"#utility.yul\":2539:2542   */\n      dup5\n        /* \"#utility.yul\":2535:2574   */\n      add\n        /* \"#utility.yul\":2528:2574   */\n      swap2\n      pop\n        /* \"#utility.yul\":2308:2580   */\n      pop\n        /* \"#utility.yul\":2216:2580   */\n      swap3\n      swap2\n      pop\n      pop\n      jump\t// out\n        /* \"#utility.yul\":2586:2704   */\n    tag_124:\n        /* \"#utility.yul\":2673:2697   */\n      tag_126\n        /* \"#utility.yul\":2691:2696   */\n      dup2\n        /* \"#utility.yul\":2673:2697   */\n      tag_127\n      jump\t// in\n    tag_126:\n        /* \"#utility.yul\":2668:2671   */\n      dup3\n        /* \"#utility.yul\":2661:2698   */\n      mstore\n        /* \"#utility.yul\":2586:2704   */\n      pop\n      pop\n      jump\t// out\n        /* \"#utility.yul\":2710:3354   */\n    tag_12:\n        /* \"#utility.yul\":2907:2911   */\n      0x00\n        /* \"#utility.yul\":2945:2948   */\n      0x80\n        /* \"#utility.yul\":2934:2943   */\n      dup3\n        /* \"#utility.yul\":2930:2949   */\n      add\n        /* \"#utility.yul\":2922:2949   */\n      swap1\n      pop\n        /* \"#utility.yul\":2995:3004   */\n      dup2\n        /* \"#utility.yul\":2989:2993   */\n      dup2\n        /* \"#utility.yul\":2985:3005   */\n      sub\n        /* \"#utility.yul\":2981:2982   */\n      0x00\n        /* \"#utility.yul\":2970:2979   */\n      dup4\n        /* \"#utility.yul\":2966:2983   */\n      add\n        /* \"#utility.yul\":2959:3006   */\n      mstore\n        /* \"#utility.yul\":3023:3101   */\n      tag_129\n        /* \"#utility.yul\":3096:3100   */\n      dup2\n        /* \"#utility.yul\":3087:3093   */\n      dup8\n        /* \"#utility.yul\":3023:3101   */\n      tag_114\n      jump\t// in\n    tag_129:\n        /* \"#utility.yul\":3015:3101   */\n      swap1\n      pop\n        /* \"#utility.yul\":3111:3183   */\n      tag_130\n        /* \"#utility.yul\":3179:3181   */\n      0x20\n        /* \"#utility.yul\":3168:3177   */\n      dup4\n        /* \"#utility.yul\":3164:3182   */\n      add\n        /* \"#utility.yul\":3155:3161   */\n      dup7\n        /* \"#utility.yul\":3111:3183   */\n      tag_124\n      jump\t// in\n    tag_130:\n        /* \"#utility.yul\":3193:3265   */\n      tag_131\n        /* \"#utility.yul\":3261:3263   */\n      0x40\n        /* \"#utility.yul\":3250:3259   */\n      dup4\n        /* \"#utility.yul\":3246:3264   */\n      add\n        /* \"#utility.yul\":3237:3243   */\n      dup6\n        /* \"#utility.yul\":3193:3265   */\n      tag_124\n      jump\t// in\n    tag_131:\n        /* \"#utility.yul\":3275:3347   */\n      tag_132\n        /* \"#utility.yul\":3343:3345   */\n      0x60\n        /* \"#utility.yul\":3332:3341   */\n      dup4\n        /* \"#utility.yul\":3328:3346   */\n      add\n        /* \"#utility.yul\":3319:3325   */\n      dup5\n        /* \"#utility.yul\":3275:3347   */\n      tag_124\n      jump\t// in\n    tag_132:\n        /* \"#utility.yul\":2710:3354   */\n      swap6\n      swap5\n      pop\n      pop\n      pop\n      pop\n      pop\n      jump\t// out\n        /* \"#utility.yul\":3360:3489   */\n    tag_83:\n        /* \"#utility.yul\":3394:3400   */\n      0x00\n        /* \"#utility.yul\":3421:3441   */\n      tag_134\n      tag_135\n      jump\t// in\n    tag_134:\n        /* \"#utility.yul\":3411:3441   */\n      swap1\n      pop\n        /* \"#utility.yul\":3450:3483   */\n      tag_136\n        /* \"#utility.yul\":3478:3482   */\n      dup3\n        /* \"#utility.yul\":3470:3476   */\n      dup3\n        /* \"#utility.yul\":3450:3483   */\n      tag_137\n      jump\t// in\n    tag_136:\n        /* \"#utility.yul\":3360:3489   */\n      swap2\n      swap1\n      pop\n      jump\t// out\n        /* \"#utility.yul\":3495:3570   */\n    tag_135:\n        /* \"#utility.yul\":3528:3534   */\n      0x00\n        /* \"#utility.yul\":3561:3563   */\n      0x40\n        /* \"#utility.yul\":3555:3564   */\n      mload\n        /* \"#utility.yul\":3545:3564   */\n      swap1\n      pop\n        /* \"#utility.yul\":3495:3570   */\n      swap1\n      jump\t// out\n        /* \"#utility.yul\":3576:3884   */\n    tag_82:\n        /* \"#utility.yul\":3638:3642   */\n      0x00\n        /* \"#utility.yul\":3728:3746   */\n      0xffffffffffffffff\n        /* \"#utility.yul\":3720:3726   */\n      dup3\n        /* \"#utility.yul\":3717:3747   */\n      gt\n        /* \"#utility.yul\":3714:3770   */\n      iszero\n      tag_140\n      jumpi\n        /* \"#utility.yul\":3750:3768   */\n      tag_141\n      tag_142\n      jump\t// in\n    tag_141:\n        /* \"#utility.yul\":3714:3770   */\n    tag_140:\n        /* \"#utility.yul\":3788:3817   */\n      tag_143\n        /* \"#utility.yul\":3810:3816   */\n      dup3\n        /* \"#utility.yul\":3788:3817   */\n      tag_123\n      jump\t// in\n    tag_143:\n        /* \"#utility.yul\":3780:3817   */\n      swap1\n      pop\n        /* \"#utility.yul\":3872:3876   */\n      0x20\n        /* \"#utility.yul\":3866:3870   */\n      dup2\n        /* \"#utility.yul\":3862:3877   */\n      add\n        /* \"#utility.yul\":3854:3877   */\n      swap1\n      pop\n        /* \"#utility.yul\":3576:3884   */\n      swap2\n      swap1\n      pop\n      jump\t// out\n        /* \"#utility.yul\":3890:3989   */\n    tag_117:\n        /* \"#utility.yul\":3942:3948   */\n      0x00\n        /* \"#utility.yul\":3976:3981   */\n      dup2\n        /* \"#utility.yul\":3970:3982   */\n      mload\n        /* \"#utility.yul\":3960:3982   */\n      swap1\n      pop\n        /* \"#utility.yul\":3890:3989   */\n      swap2\n      swap1\n      pop\n      jump\t// out\n        /* \"#utility.yul\":3995:4164   */\n    tag_119:\n        /* \"#utility.yul\":4079:4090   */\n      0x00\n        /* \"#utility.yul\":4113:4119   */\n      dup3\n        /* \"#utility.yul\":4108:4111   */\n      dup3\n        /* \"#utility.yul\":4101:4120   */\n      mstore\n        /* \"#utility.yul\":4153:4157   */\n      0x20\n        /* \"#utility.yul\":4148:4151   */\n      dup3\n        /* \"#utility.yul\":4144:4158   */\n      add\n        /* \"#utility.yul\":4129:4158   */\n      swap1\n      pop\n        /* \"#utility.yul\":3995:4164   */\n      swap3\n      swap2\n      pop\n      pop\n      jump\t// out\n        /* \"#utility.yul\":4170:4361   */\n    tag_36:\n        /* \"#utility.yul\":4210:4214   */\n      0x00\n        /* \"#utility.yul\":4230:4250   */\n      tag_147\n        /* \"#utility.yul\":4248:4249   */\n      dup3\n        /* \"#utility.yul\":4230:4250   */\n      tag_127\n      jump\t// in\n    tag_147:\n        /* \"#utility.yul\":4225:4250   */\n      swap2\n      pop\n        /* \"#utility.yul\":4264:4284   */\n      tag_148\n        /* \"#utility.yul\":4282:4283   */\n      dup4\n        /* \"#utility.yul\":4264:4284   */\n      tag_127\n      jump\t// in\n    tag_148:\n        /* \"#utility.yul\":4259:4284   */\n      swap3\n      pop\n        /* \"#utility.yul\":4303:4304   */\n      dup3\n        /* \"#utility.yul\":4300:4301   */\n      dup3\n        /* \"#utility.yul\":4297:4305   */\n      lt\n        /* \"#utility.yul\":4294:4328   */\n      iszero\n      tag_149\n      jumpi\n        /* \"#utility.yul\":4308:4326   */\n      tag_150\n      tag_151\n      jump\t// in\n    tag_150:\n        /* \"#utility.yul\":4294:4328   */\n    tag_149:\n        /* \"#utility.yul\":4353:4354   */\n      dup3\n        /* \"#utility.yul\":4350:4351   */\n      dup3\n        /* \"#utility.yul\":4346:4355   */\n      sub\n        /* \"#utility.yul\":4338:4355   */\n      swap1\n      pop\n        /* \"#utility.yul\":4170:4361   */\n      swap3\n      swap2\n      pop\n      pop\n      jump\t// out\n        /* \"#utility.yul\":4367:4444   */\n    tag_127:\n        /* \"#utility.yul\":4404:4411   */\n      0x00\n        /* \"#utility.yul\":4433:4438   */\n      dup2\n        /* \"#utility.yul\":4422:4438   */\n      swap1\n      pop\n        /* \"#utility.yul\":4367:4444   */\n      swap2\n      swap1\n      pop\n      jump\t// out\n        /* \"#utility.yul\":4450:4604   */\n    tag_88:\n        /* \"#utility.yul\":4534:4540   */\n      dup3\n        /* \"#utility.yul\":4529:4532   */\n      dup2\n        /* \"#utility.yul\":4524:4527   */\n      dup4\n        /* \"#utility.yul\":4511:4541   */\n      calldatacopy\n        /* \"#utility.yul\":4596:4597   */\n      0x00\n        /* \"#utility.yul\":4587:4593   */\n      dup4\n        /* \"#utility.yul\":4582:4585   */\n      dup4\n        /* \"#utility.yul\":4578:4594   */\n      add\n        /* \"#utility.yul\":4571:4598   */\n      mstore\n        /* \"#utility.yul\":4450:4604   */\n      pop\n      pop\n      pop\n      jump\t// out\n        /* \"#utility.yul\":4610:4917   */\n    tag_121:\n        /* \"#utility.yul\":4678:4679   */\n      0x00\n        /* \"#utility.yul\":4688:4801   */\n    tag_155:\n        /* \"#utility.yul\":4702:4708   */\n      dup4\n        /* \"#utility.yul\":4699:4700   */\n      dup2\n        /* \"#utility.yul\":4696:4709   */\n      lt\n        /* \"#utility.yul\":4688:4801   */\n      iszero\n      tag_157\n      jumpi\n        /* \"#utility.yul\":4787:4788   */\n      dup1\n        /* \"#utility.yul\":4782:4785   */\n      dup3\n        /* \"#utility.yul\":4778:4789   */\n      add\n        /* \"#utility.yul\":4772:4790   */\n      mload\n        /* \"#utility.yul\":4768:4769   */\n      dup2\n        /* \"#utility.yul\":4763:4766   */\n      dup5\n        /* \"#utility.yul\":4759:4770   */\n      add\n        /* \"#utility.yul\":4752:4791   */\n      mstore\n        /* \"#utility.yul\":4724:4726   */\n      0x20\n        /* \"#utility.yul\":4721:4722   */\n      dup2\n        /* \"#utility.yul\":4717:4727   */\n      add\n        /* \"#utility.yul\":4712:4727   */\n      swap1\n      pop\n        /* \"#utility.yul\":4688:4801   */\n      jump(tag_155)\n    tag_157:\n        /* \"#utility.yul\":4819:4825   */\n      dup4\n        /* \"#utility.yul\":4816:4817   */\n      dup2\n        /* \"#utility.yul\":4813:4826   */\n      gt\n        /* \"#utility.yul\":4810:4911   */\n      iszero\n      tag_158\n      jumpi\n        /* \"#utility.yul\":4899:4900   */\n      0x00\n        /* \"#utility.yul\":4890:4896   */\n      dup5\n        /* \"#utility.yul\":4885:4888   */\n      dup5\n        /* \"#utility.yul\":4881:4897   */\n      add\n        /* \"#utility.yul\":4874:4901   */\n      mstore\n        /* \"#utility.yul\":4810:4911   */\n    tag_158:\n        /* \"#utility.yul\":4659:4917   */\n      pop\n        /* \"#utility.yul\":4610:4917   */\n      pop\n      pop\n      pop\n      jump\t// out\n        /* \"#utility.yul\":4923:5243   */\n    tag_28:\n        /* \"#utility.yul\":4967:4973   */\n      0x00\n        /* \"#utility.yul\":5004:5005   */\n      0x02\n        /* \"#utility.yul\":4998:5002   */\n      dup3\n        /* \"#utility.yul\":4994:5006   */\n      div\n        /* \"#utility.yul\":4984:5006   */\n      swap1\n      pop\n        /* \"#utility.yul\":5051:5052   */\n      0x01\n        /* \"#utility.yul\":5045:5049   */\n      dup3\n        /* \"#utility.yul\":5041:5053   */\n      and\n        /* \"#utility.yul\":5072:5090   */\n      dup1\n        /* \"#utility.yul\":5062:5143   */\n      tag_160\n      jumpi\n        /* \"#utility.yul\":5128:5132   */\n      0x7f\n        /* \"#utility.yul\":5120:5126   */\n      dup3\n        /* \"#utility.yul\":5116:5133   */\n      and\n        /* \"#utility.yul\":5106:5133   */\n      swap2\n      pop\n        /* \"#utility.yul\":5062:5143   */\n    tag_160:\n        /* \"#utility.yul\":5190:5192   */\n      0x20\n        /* \"#utility.yul\":5182:5188   */\n      dup3\n        /* \"#utility.yul\":5179:5193   */\n      lt\n        /* \"#utility.yul\":5159:5177   */\n      dup2\n        /* \"#utility.yul\":5156:5194   */\n      eq\n        /* \"#utility.yul\":5153:5237   */\n      iszero\n      tag_161\n      jumpi\n        /* \"#utility.yul\":5209:5227   */\n      tag_162\n      tag_163\n      jump\t// in\n    tag_162:\n        /* \"#utility.yul\":5153:5237   */\n    tag_161:\n        /* \"#utility.yul\":4974:5243   */\n      pop\n        /* \"#utility.yul\":4923:5243   */\n      swap2\n      swap1\n      pop\n      jump\t// out\n        /* \"#utility.yul\":5249:5530   */\n    tag_137:\n        /* \"#utility.yul\":5332:5359   */\n      tag_165\n        /* \"#utility.yul\":5354:5358   */\n      dup3\n        /* \"#utility.yul\":5332:5359   */\n      tag_123\n      jump\t// in\n    tag_165:\n        /* \"#utility.yul\":5324:5330   */\n      dup2\n        /* \"#utility.yul\":5320:5360   */\n      add\n        /* \"#utility.yul\":5462:5468   */\n      dup2\n        /* \"#utility.yul\":5450:5460   */\n      dup2\n        /* \"#utility.yul\":5447:5469   */\n      lt\n        /* \"#utility.yul\":5426:5444   */\n      0xffffffffffffffff\n        /* \"#utility.yul\":5414:5424   */\n      dup3\n        /* \"#utility.yul\":5411:5445   */\n      gt\n        /* \"#utility.yul\":5408:5470   */\n      or\n        /* \"#utility.yul\":5405:5493   */\n      iszero\n      tag_166\n      jumpi\n        /* \"#utility.yul\":5473:5491   */\n      tag_167\n      tag_142\n      jump\t// in\n    tag_167:\n        /* \"#utility.yul\":5405:5493   */\n    tag_166:\n        /* \"#utility.yul\":5513:5523   */\n      dup1\n        /* \"#utility.yul\":5509:5511   */\n      0x40\n        /* \"#utility.yul\":5502:5524   */\n      mstore\n        /* \"#utility.yul\":5292:5530   */\n      pop\n        /* \"#utility.yul\":5249:5530   */\n      pop\n      pop\n      jump\t// out\n        /* \"#utility.yul\":5536:5716   */\n    tag_151:\n        /* \"#utility.yul\":5584:5661   */\n      0x4e487b7100000000000000000000000000000000000000000000000000000000\n        /* \"#utility.yul\":5581:5582   */\n      0x00\n        /* \"#utility.yul\":5574:5662   */\n      mstore\n        /* \"#utility.yul\":5681:5685   */\n      0x11\n        /* \"#utility.yul\":5678:5679   */\n      0x04\n        /* \"#utility.yul\":5671:5686   */\n      mstore\n        /* \"#utility.yul\":5705:5709   */\n      0x24\n        /* \"#utility.yul\":5702:5703   */\n      0x00\n        /* \"#utility.yul\":5695:5710   */\n      revert\n        /* \"#utility.yul\":5722:5902   */\n    tag_163:\n        /* \"#utility.yul\":5770:5847   */\n      0x4e487b7100000000000000000000000000000000000000000000000000000000\n        /* \"#utility.yul\":5767:5768   */\n      0x00\n        /* \"#utility.yul\":5760:5848   */\n      mstore\n        /* \"#utility.yul\":5867:5871   */\n      0x22\n        /* \"#utility.yul\":5864:5865   */\n      0x04\n        /* \"#utility.yul\":5857:5872   */\n      mstore\n        /* \"#utility.yul\":5891:5895   */\n      0x24\n        /* \"#utility.yul\":5888:5889   */\n      0x00\n        /* \"#utility.yul\":5881:5896   */\n      revert\n        /* \"#utility.yul\":5908:6088   */\n    tag_48:\n        /* \"#utility.yul\":5956:6033   */\n      0x4e487b7100000000000000000000000000000000000000000000000000000000\n        /* \"#utility.yul\":5953:5954   */\n      0x00\n        /* \"#utility.yul\":5946:6034   */\n      mstore\n        /* \"#utility.yul\":6053:6057   */\n      0x31\n        /* \"#utility.yul\":6050:6051   */\n      0x04\n        /* \"#utility.yul\":6043:6058   */\n      mstore\n        /* \"#utility.yul\":6077:6081   */\n      0x24\n        /* \"#utility.yul\":6074:6075   */\n      0x00\n        /* \"#utility.yul\":6067:6082   */\n      revert\n        /* \"#utility.yul\":6094:6274   */\n    tag_25:\n        /* \"#utility.yul\":6142:6219   */\n      0x4e487b7100000000000000000000000000000000000000000000000000000000\n        /* \"#utility.yul\":6139:6140   */\n      0x00\n        /* \"#utility.yul\":6132:6220   */\n      mstore\n        /* \"#utility.yul\":6239:6243   */\n      0x32\n        /* \"#utility.yul\":6236:6237   */\n      0x04\n        /* \"#utility.yul\":6229:6244   */\n      mstore\n        /* \"#utility.yul\":6263:6267   */\n      0x24\n        /* \"#utility.yul\":6260:6261   */\n      0x00\n        /* \"#utility.yul\":6253:6268   */\n      revert\n        /* \"#utility.yul\":6280:6460   */\n    tag_142:\n        /* \"#utility.yul\":6328:6405   */\n      0x4e487b7100000000000000000000000000000000000000000000000000000000\n        /* \"#utility.yul\":6325:6326   */\n      0x00\n        /* \"#utility.yul\":6318:6406   */\n      mstore\n        /* \"#utility.yul\":6425:6429   */\n      0x41\n        /* \"#utility.yul\":6422:6423   */\n      0x04\n        /* \"#utility.yul\":6415:6430   */\n      mstore\n        /* \"#utility.yul\":6449:6453   */\n      0x24\n        /* \"#utility.yul\":6446:6447   */\n      0x00\n        /* \"#utility.yul\":6439:6454   */\n      revert\n        /* \"#utility.yul\":6466:6583   */\n    tag_93:\n        /* \"#utility.yul\":6575:6576   */\n      0x00\n        /* \"#utility.yul\":6572:6573   */\n      dup1\n        /* \"#utility.yul\":6565:6577   */\n      revert\n        /* \"#utility.yul\":6589:6706   */\n    tag_86:\n        /* \"#utility.yul\":6698:6699   */\n      0x00\n        /* \"#utility.yul\":6695:6696   */\n      dup1\n        /* \"#utility.yul\":6688:6700   */\n      revert\n        /* \"#utility.yul\":6712:6829   */\n    tag_105:\n        /* \"#utility.yul\":6821:6822   */\n      0x00\n        /* \"#utility.yul\":6818:6819   */\n      dup1\n        /* \"#utility.yul\":6811:6823   */\n      revert\n        /* \"#utility.yul\":6835:6952   */\n    tag_102:\n        /* \"#utility.yul\":6944:6945   */\n      0x00\n        /* \"#utility.yul\":6941:6942   */\n      dup1\n        /* \"#utility.yul\":6934:6946   */\n      revert\n        /* \"#utility.yul\":6958:7060   */\n    tag_123:\n        /* \"#utility.yul\":6999:7005   */\n      0x00\n        /* \"#utility.yul\":7050:7052   */\n      0x1f\n        /* \"#utility.yul\":7046:7053   */\n      not\n        /* \"#utility.yul\":7041:7043   */\n      0x1f\n        /* \"#utility.yul\":7034:7039   */\n      dup4\n        /* \"#utility.yul\":7030:7044   */\n      add\n        /* \"#utility.yul\":7026:7054   */\n      and\n        /* \"#utility.yul\":7016:7054   */\n      swap1\n      pop\n        /* \"#utility.yul\":6958:7060   */\n      swap2\n      swap1\n      pop\n      jump\t// out\n        /* \"#utility.yul\":7066:7188   */\n    tag_98:\n        /* \"#utility.yul\":7139:7163   */\n      tag_179\n        /* \"#utility.yul\":7157:7162   */\n      dup2\n        /* \"#utility.yul\":7139:7163   */\n      tag_127\n      jump\t// in\n    tag_179:\n        /* \"#utility.yul\":7132:7137   */\n      dup2\n        /* \"#utility.yul\":7129:7164   */\n      eq\n        /* \"#utility.yul\":7119:7182   */\n      tag_180\n      jumpi\n        /* \"#utility.yul\":7178:7179   */\n      0x00\n        /* \"#utility.yul\":7175:7176   */\n      dup1\n        /* \"#utility.yul\":7168:7180   */\n      revert\n        /* \"#utility.yul\":7119:7182   */\n    tag_180:\n        /* \"#utility.yul\":7066:7188   */\n      pop\n      jump\t// out\n\n    auxdata: 0xa264697066735822122026c19b1ea0db64986a6863998b45485849f7388be0c37b350b62a30a7cf985ee64736f6c63430008070033\n}\n",
				"bytecode": {
					"linkReferences": {},
					"object": "608060405234801561001057600080fd5b50610939806100206000396000f3fe608060405234801561001057600080fd5b506004361061004c5760003560e01c80637aadbdd314610051578063a67b3fdd14610084578063dfa36c8b1461008e578063e1b7edff146100aa575b600080fd5b61006b600480360381019061006691906105c6565b6100c6565b60405161007b949392919061063b565b60405180910390f35b61008c6101d1565b005b6100a860048036038101906100a391906105c6565b6101d3565b005b6100c460048036038101906100bf9190610543565b6102bf565b005b6060600080600080600086815481106100e2576100e1610869565b5b906000526020600020906004020160405180608001604052908160008201805461010b90610779565b80601f016020809104026020016040519081016040528092919081815260200182805461013790610779565b80156101845780601f1061015957610100808354040283529160200191610184565b820191906000526020600020905b81548152906001019060200180831161016757829003601f168201915b505050505081526020016001820154815260200160028201548152602001600382015481525050905080600001518160200151826040015183606001519450945094509450509193509193565b565b600060016000805490506101e791906106f9565b815481106101f8576101f7610869565b5b90600052602060002090600402016000828154811061021a57610219610869565b5b9060005260206000209060040201600082018160000190805461023c90610779565b61024792919061034e565b50600182015481600101556002820154816002015560038201548160030155905050600080548061027b5761027a61083a565b5b6001900381819060005260206000209060040201600080820160006102a091906103db565b6001820160009055600282016000905560038201600090555050905550565b60006040518060800160405280868152602001858152602001848152602001838152509080600181540180825580915050600190039060005260206000209060040201600090919091909150600082015181600001908051906020019061032792919061041b565b50602082015181600101556040820151816002015560608201518160030155505050505050565b82805461035a90610779565b90600052602060002090601f01602090048101928261037c57600085556103ca565b82601f1061038d57805485556103ca565b828001600101855582156103ca57600052602060002091601f016020900482015b828111156103c95782548255916001019190600101906103ae565b5b5090506103d791906104a1565b5090565b5080546103e790610779565b6000825580601f106103f95750610418565b601f01602090049060005260206000209081019061041791906104a1565b5b50565b82805461042790610779565b90600052602060002090601f0160209004810192826104495760008555610490565b82601f1061046257805160ff1916838001178555610490565b82800160010185558215610490579182015b8281111561048f578251825591602001919060010190610474565b5b50905061049d91906104a1565b5090565b5b808211156104ba5760008160009055506001016104a2565b5090565b60006104d16104cc846106ac565b610687565b9050828152602081018484840111156104ed576104ec6108cc565b5b6104f8848285610737565b509392505050565b600082601f830112610515576105146108c7565b5b81356105258482602086016104be565b91505092915050565b60008135905061053d816108ec565b92915050565b6000806000806080858703121561055d5761055c6108d6565b5b600085013567ffffffffffffffff81111561057b5761057a6108d1565b5b61058787828801610500565b94505060206105988782880161052e565b93505060406105a98782880161052e565b92505060606105ba8782880161052e565b91505092959194509250565b6000602082840312156105dc576105db6108d6565b5b60006105ea8482850161052e565b91505092915050565b60006105fe826106dd565b61060881856106e8565b9350610618818560208601610746565b610621816108db565b840191505092915050565b6106358161072d565b82525050565b6000608082019050818103600083015261065581876105f3565b9050610664602083018661062c565b610671604083018561062c565b61067e606083018461062c565b95945050505050565b60006106916106a2565b905061069d82826107ab565b919050565b6000604051905090565b600067ffffffffffffffff8211156106c7576106c6610898565b5b6106d0826108db565b9050602081019050919050565b600081519050919050565b600082825260208201905092915050565b60006107048261072d565b915061070f8361072d565b925082821015610722576107216107dc565b5b828203905092915050565b6000819050919050565b82818337600083830152505050565b60005b83811015610764578082015181840152602081019050610749565b83811115610773576000848401525b50505050565b6000600282049050600182168061079157607f821691505b602082108114156107a5576107a461080b565b5b50919050565b6107b4826108db565b810181811067ffffffffffffffff821117156107d3576107d2610898565b5b80604052505050565b7f4e487b7100000000000000000000000000000000000000000000000000000000600052601160045260246000fd5b7f4e487b7100000000000000000000000000000000000000000000000000000000600052602260045260246000fd5b7f4e487b7100000000000000000000000000000000000000000000000000000000600052603160045260246000fd5b7f4e487b7100000000000000000000000000000000000000000000000000000000600052603260045260246000fd5b7f4e487b7100000000000000000000000000000000000000000000000000000000600052604160045260246000fd5b600080fd5b600080fd5b600080fd5b600080fd5b6000601f19601f8301169050919050565b6108f58161072d565b811461090057600080fd5b5056fea264697066735822122026c19b1ea0db64986a6863998b45485849f7388be0c37b350b62a30a7cf985ee64736f6c63430008070033",
					"opcodes": "PUSH1 0x80 PUSH1 0x40 MSTORE CALLVALUE DUP1 ISZERO PUSH2 0x10 JUMPI PUSH1 0x0 DUP1 REVERT JUMPDEST POP PUSH2 0x939 DUP1 PUSH2 0x20 PUSH1 0x0 CODECOPY PUSH1 0x0 RETURN INVALID PUSH1 0x80 PUSH1 0x40 MSTORE CALLVALUE DUP1 ISZERO PUSH2 0x10 JUMPI PUSH1 0x0 DUP1 REVERT JUMPDEST POP PUSH1 0x4 CALLDATASIZE LT PUSH2 0x4C JUMPI PUSH1 0x0 CALLDATALOAD PUSH1 0xE0 SHR DUP1 PUSH4 0x7AADBDD3 EQ PUSH2 0x51 JUMPI DUP1 PUSH4 0xA67B3FDD EQ PUSH2 0x84 JUMPI DUP1 PUSH4 0xDFA36C8B EQ PUSH2 0x8E JUMPI DUP1 PUSH4 0xE1B7EDFF EQ PUSH2 0xAA JUMPI JUMPDEST PUSH1 0x0 DUP1 REVERT JUMPDEST PUSH2 0x6B PUSH1 0x4 DUP1 CALLDATASIZE SUB DUP2 ADD SWAP1 PUSH2 0x66 SWAP2 SWAP1 PUSH2 0x5C6 JUMP JUMPDEST PUSH2 0xC6 JUMP JUMPDEST PUSH1 0x40 MLOAD PUSH2 0x7B SWAP5 SWAP4 SWAP3 SWAP2 SWAP1 PUSH2 0x63B JUMP JUMPDEST PUSH1 0x40 MLOAD DUP1 SWAP2 SUB SWAP1 RETURN JUMPDEST PUSH2 0x8C PUSH2 0x1D1 JUMP JUMPDEST STOP JUMPDEST PUSH2 0xA8 PUSH1 0x4 DUP1 CALLDATASIZE SUB DUP2 ADD SWAP1 PUSH2 0xA3 SWAP2 SWAP1 PUSH2 0x5C6 JUMP JUMPDEST PUSH2 0x1D3 JUMP JUMPDEST STOP JUMPDEST PUSH2 0xC4 PUSH1 0x4 DUP1 CALLDATASIZE SUB DUP2 ADD SWAP1 PUSH2 0xBF SWAP2 SWAP1 PUSH2 0x543 JUMP JUMPDEST PUSH2 0x2BF JUMP JUMPDEST STOP JUMPDEST PUSH1 0x60 PUSH1 0x0 DUP1 PUSH1 0x0 DUP1 PUSH1 0x0 DUP7 DUP2 SLOAD DUP2 LT PUSH2 0xE2 JUMPI PUSH2 0xE1 PUSH2 0x869 JUMP JUMPDEST JUMPDEST SWAP1 PUSH1 0x0 MSTORE PUSH1 0x20 PUSH1 0x0 KECCAK256 SWAP1 PUSH1 0x4 MUL ADD PUSH1 0x40 MLOAD DUP1 PUSH1 0x80 ADD PUSH1 0x40 MSTORE SWAP1 DUP2 PUSH1 0x0 DUP3 ADD DUP1 SLOAD PUSH2 0x10B SWAP1 PUSH2 0x779 JUMP JUMPDEST DUP1 PUSH1 0x1F ADD PUSH1 0x20 DUP1 SWAP2 DIV MUL PUSH1 0x20 ADD PUSH1 0x40 MLOAD SWAP1 DUP2 ADD PUSH1 0x40 MSTORE DUP1 SWAP3 SWAP2 SWAP1 DUP2 DUP2 MSTORE PUSH1 0x20 ADD DUP3 DUP1 SLOAD PUSH2 0x137 SWAP1 PUSH2 0x779 JUMP JUMPDEST DUP1 ISZERO PUSH2 0x184 JUMPI DUP1 PUSH1 0x1F LT PUSH2 0x159 JUMPI PUSH2 0x100 DUP1 DUP4 SLOAD DIV MUL DUP4 MSTORE SWAP2 PUSH1 0x20 ADD SWAP2 PUSH2 0x184 JUMP JUMPDEST DUP3 ADD SWAP2 SWAP1 PUSH1 0x0 MSTORE PUSH1 0x20 PUSH1 0x0 KECCAK256 SWAP1 JUMPDEST DUP2 SLOAD DUP2 MSTORE SWAP1 PUSH1 0x1 ADD SWAP1 PUSH1 0x20 ADD DUP1 DUP4 GT PUSH2 0x167 JUMPI DUP3 SWAP1 SUB PUSH1 0x1F AND DUP3 ADD SWAP2 JUMPDEST POP POP POP POP POP DUP2 MSTORE PUSH1 0x20 ADD PUSH1 0x1 DUP3 ADD SLOAD DUP2 MSTORE PUSH1 0x20 ADD PUSH1 0x2 DUP3 ADD SLOAD DUP2 MSTORE PUSH1 0x20 ADD PUSH1 0x3 DUP3 ADD SLOAD DUP2 MSTORE POP POP SWAP1 POP DUP1 PUSH1 0x0 ADD MLOAD DUP2 PUSH1 0x20 ADD MLOAD DUP3 PUSH1 0x40 ADD MLOAD DUP4 PUSH1 0x60 ADD MLOAD SWAP5 POP SWAP5 POP SWAP5 POP SWAP5 POP POP SWAP2 SWAP4 POP SWAP2 SWAP4 JUMP JUMPDEST JUMP JUMPDEST PUSH1 0x0 PUSH1 0x1 PUSH1 0x0 DUP1 SLOAD SWAP1 POP PUSH2 0x1E7 SWAP2 SWAP1 PUSH2 0x6F9 JUMP JUMPDEST DUP2 SLOAD DUP2 LT PUSH2 0x1F8 JUMPI PUSH2 0x1F7 PUSH2 0x869 JUMP JUMPDEST JUMPDEST SWAP1 PUSH1 0x0 MSTORE PUSH1 0x20 PUSH1 0x0 KECCAK256 SWAP1 PUSH1 0x4 MUL ADD PUSH1 0x0 DUP3 DUP2 SLOAD DUP2 LT PUSH2 0x21A JUMPI PUSH2 0x219 PUSH2 0x869 JUMP JUMPDEST JUMPDEST SWAP1 PUSH1 0x0 MSTORE PUSH1 0x20 PUSH1 0x0 KECCAK256 SWAP1 PUSH1 0x4 MUL ADD PUSH1 0x0 DUP3 ADD DUP2 PUSH1 0x0 ADD SWAP1 DUP1 SLOAD PUSH2 0x23C SWAP1 PUSH2 0x779 JUMP JUMPDEST PUSH2 0x247 SWAP3 SWAP2 SWAP1 PUSH2 0x34E JUMP JUMPDEST POP PUSH1 0x1 DUP3 ADD SLOAD DUP2 PUSH1 0x1 ADD SSTORE PUSH1 0x2 DUP3 ADD SLOAD DUP2 PUSH1 0x2 ADD SSTORE PUSH1 0x3 DUP3 ADD SLOAD DUP2 PUSH1 0x3 ADD SSTORE SWAP1 POP POP PUSH1 0x0 DUP1 SLOAD DUP1 PUSH2 0x27B JUMPI PUSH2 0x27A PUSH2 0x83A JUMP JUMPDEST JUMPDEST PUSH1 0x1 SWAP1 SUB DUP2 DUP2 SWAP1 PUSH1 0x0 MSTORE PUSH1 0x20 PUSH1 0x0 KECCAK256 SWAP1 PUSH1 0x4 MUL ADD PUSH1 0x0 DUP1 DUP3 ADD PUSH1 0x0 PUSH2 0x2A0 SWAP2 SWAP1 PUSH2 0x3DB JUMP JUMPDEST PUSH1 0x1 DUP3 ADD PUSH1 0x0 SWAP1 SSTORE PUSH1 0x2 DUP3 ADD PUSH1 0x0 SWAP1 SSTORE PUSH1 0x3 DUP3 ADD PUSH1 0x0 SWAP1 SSTORE POP POP SWAP1 SSTORE POP JUMP JUMPDEST PUSH1 0x0 PUSH1 0x40 MLOAD DUP1 PUSH1 0x80 ADD PUSH1 0x40 MSTORE DUP1 DUP7 DUP2 MSTORE PUSH1 0x20 ADD DUP6 DUP2 MSTORE PUSH1 0x20 ADD DUP5 DUP2 MSTORE PUSH1 0x20 ADD DUP4 DUP2 MSTORE POP SWAP1 DUP1 PUSH1 0x1 DUP2 SLOAD ADD DUP1 DUP3 SSTORE DUP1 SWAP2 POP POP PUSH1 0x1 SWAP1 SUB SWAP1 PUSH1 0x0 MSTORE PUSH1 0x20 PUSH1 0x0 KECCAK256 SWAP1 PUSH1 0x4 MUL ADD PUSH1 0x0 SWAP1 SWAP2 SWAP1 SWAP2 SWAP1 SWAP2 POP PUSH1 0x0 DUP3 ADD MLOAD DUP2 PUSH1 0x0 ADD SWAP1 DUP1 MLOAD SWAP1 PUSH1 0x20 ADD SWAP1 PUSH2 0x327 SWAP3 SWAP2 SWAP1 PUSH2 0x41B JUMP JUMPDEST POP PUSH1 0x20 DUP3 ADD MLOAD DUP2 PUSH1 0x1 ADD SSTORE PUSH1 0x40 DUP3 ADD MLOAD DUP2 PUSH1 0x2 ADD SSTORE PUSH1 0x60 DUP3 ADD MLOAD DUP2 PUSH1 0x3 ADD SSTORE POP POP POP POP POP POP JUMP JUMPDEST DUP3 DUP1 SLOAD PUSH2 0x35A SWAP1 PUSH2 0x779 JUMP JUMPDEST SWAP1 PUSH1 0x0 MSTORE PUSH1 0x20 PUSH1 0x0 KECCAK256 SWAP1 PUSH1 0x1F ADD PUSH1 0x20 SWAP1 DIV DUP2 ADD SWAP3 DUP3 PUSH2 0x37C JUMPI PUSH1 0x0 DUP6 SSTORE PUSH2 0x3CA JUMP JUMPDEST DUP3 PUSH1 0x1F LT PUSH2 0x38D JUMPI DUP1 SLOAD DUP6 SSTORE PUSH2 0x3CA JUMP JUMPDEST DUP3 DUP1 ADD PUSH1 0x1 ADD DUP6 SSTORE DUP3 ISZERO PUSH2 0x3CA JUMPI PUSH1 0x0 MSTORE PUSH1 0x20 PUSH1 0x0 KECCAK256 SWAP2 PUSH1 0x1F ADD PUSH1 0x20 SWAP1 DIV DUP3 ADD JUMPDEST DUP3 DUP2 GT ISZERO PUSH2 0x3C9 JUMPI DUP3 SLOAD DUP3 SSTORE SWAP2 PUSH1 0x1 ADD SWAP2 SWAP1 PUSH1 0x1 ADD SWAP1 PUSH2 0x3AE JUMP JUMPDEST JUMPDEST POP SWAP1 POP PUSH2 0x3D7 SWAP2 SWAP1 PUSH2 0x4A1 JUMP JUMPDEST POP SWAP1 JUMP JUMPDEST POP DUP1 SLOAD PUSH2 0x3E7 SWAP1 PUSH2 0x779 JUMP JUMPDEST PUSH1 0x0 DUP3 SSTORE DUP1 PUSH1 0x1F LT PUSH2 0x3F9 JUMPI POP PUSH2 0x418 JUMP JUMPDEST PUSH1 0x1F ADD PUSH1 0x20 SWAP1 DIV SWAP1 PUSH1 0x0 MSTORE PUSH1 0x20 PUSH1 0x0 KECCAK256 SWAP1 DUP2 ADD SWAP1 PUSH2 0x417 SWAP2 SWAP1 PUSH2 0x4A1 JUMP JUMPDEST JUMPDEST POP JUMP JUMPDEST DUP3 DUP1 SLOAD PUSH2 0x427 SWAP1 PUSH2 0x779 JUMP JUMPDEST SWAP1 PUSH1 0x0 MSTORE PUSH1 0x20 PUSH1 0x0 KECCAK256 SWAP1 PUSH1 0x1F ADD PUSH1 0x20 SWAP1 DIV DUP2 ADD SWAP3 DUP3 PUSH2 0x449 JUMPI PUSH1 0x0 DUP6 SSTORE PUSH2 0x490 JUMP JUMPDEST DUP3 PUSH1 0x1F LT PUSH2 0x462 JUMPI DUP1 MLOAD PUSH1 0xFF NOT AND DUP4 DUP1 ADD OR DUP6 SSTORE PUSH2 0x490 JUMP JUMPDEST DUP3 DUP1 ADD PUSH1 0x1 ADD DUP6 SSTORE DUP3 ISZERO PUSH2 0x490 JUMPI SWAP2 DUP3 ADD JUMPDEST DUP3 DUP2 GT ISZERO PUSH2 0x48F JUMPI DUP3 MLOAD DUP3 SSTORE SWAP2 PUSH1 0x20 ADD SWAP2 SWAP1 PUSH1 0x1 ADD SWAP1 PUSH2 0x474 JUMP JUMPDEST JUMPDEST POP SWAP1 POP PUSH2 0x49D SWAP2 SWAP1 PUSH2 0x4A1 JUMP JUMPDEST POP SWAP1 JUMP JUMPDEST JUMPDEST DUP1 DUP3 GT ISZERO PUSH2 0x4BA JUMPI PUSH1 0x0 DUP2 PUSH1 0x0 SWAP1 SSTORE POP PUSH1 0x1 ADD PUSH2 0x4A2 JUMP JUMPDEST POP SWAP1 JUMP JUMPDEST PUSH1 0x0 PUSH2 0x4D1 PUSH2 0x4CC DUP5 PUSH2 0x6AC JUMP JUMPDEST PUSH2 0x687 JUMP JUMPDEST SWAP1 POP DUP3 DUP2 MSTORE PUSH1 0x20 DUP2 ADD DUP5 DUP5 DUP5 ADD GT ISZERO PUSH2 0x4ED JUMPI PUSH2 0x4EC PUSH2 0x8CC JUMP JUMPDEST JUMPDEST PUSH2 0x4F8 DUP5 DUP3 DUP6 PUSH2 0x737 JUMP JUMPDEST POP SWAP4 SWAP3 POP POP POP JUMP JUMPDEST PUSH1 0x0 DUP3 PUSH1 0x1F DUP4 ADD SLT PUSH2 0x515 JUMPI PUSH2 0x514 PUSH2 0x8C7 JUMP JUMPDEST JUMPDEST DUP2 CALLDATALOAD PUSH2 0x525 DUP5 DUP3 PUSH1 0x20 DUP7 ADD PUSH2 0x4BE JUMP JUMPDEST SWAP2 POP POP SWAP3 SWAP2 POP POP JUMP JUMPDEST PUSH1 0x0 DUP2 CALLDATALOAD SWAP1 POP PUSH2 0x53D DUP2 PUSH2 0x8EC JUMP JUMPDEST SWAP3 SWAP2 POP POP JUMP JUMPDEST PUSH1 0x0 DUP1 PUSH1 0x0 DUP1 PUSH1 0x80 DUP6 DUP8 SUB SLT ISZERO PUSH2 0x55D JUMPI PUSH2 0x55C PUSH2 0x8D6 JUMP JUMPDEST JUMPDEST PUSH1 0x0 DUP6 ADD CALLDATALOAD PUSH8 0xFFFFFFFFFFFFFFFF DUP2 GT ISZERO PUSH2 0x57B JUMPI PUSH2 0x57A PUSH2 0x8D1 JUMP JUMPDEST JUMPDEST PUSH2 0x587 DUP8 DUP3 DUP9 ADD PUSH2 0x500 JUMP JUMPDEST SWAP5 POP POP PUSH1 0x20 PUSH2 0x598 DUP8 DUP3 DUP9 ADD PUSH2 0x52E JUMP JUMPDEST SWAP4 POP POP PUSH1 0x40 PUSH2 0x5A9 DUP8 DUP3 DUP9 ADD PUSH2 0x52E JUMP JUMPDEST SWAP3 POP POP PUSH1 0x60 PUSH2 0x5BA DUP8 DUP3 DUP9 ADD PUSH2 0x52E JUMP JUMPDEST SWAP2 POP POP SWAP3 SWAP6 SWAP2 SWAP5 POP SWAP3 POP JUMP JUMPDEST PUSH1 0x0 PUSH1 0x20 DUP3 DUP5 SUB SLT ISZERO PUSH2 0x5DC JUMPI PUSH2 0x5DB PUSH2 0x8D6 JUMP JUMPDEST JUMPDEST PUSH1 0x0 PUSH2 0x5EA DUP5 DUP3 DUP6 ADD PUSH2 0x52E JUMP JUMPDEST SWAP2 POP POP SWAP3 SWAP2 POP POP JUMP JUMPDEST PUSH1 0x0 PUSH2 0x5FE DUP3 PUSH2 0x6DD JUMP JUMPDEST PUSH2 0x608 DUP2 DUP6 PUSH2 0x6E8 JUMP JUMPDEST SWAP4 POP PUSH2 0x618 DUP2 DUP6 PUSH1 0x20 DUP7 ADD PUSH2 0x746 JUMP JUMPDEST PUSH2 0x621 DUP2 PUSH2 0x8DB JUMP JUMPDEST DUP5 ADD SWAP2 POP POP SWAP3 SWAP2 POP POP JUMP JUMPDEST PUSH2 0x635 DUP2 PUSH2 0x72D JUMP JUMPDEST DUP3 MSTORE POP POP JUMP JUMPDEST PUSH1 0x0 PUSH1 0x80 DUP3 ADD SWAP1 POP DUP2 DUP2 SUB PUSH1 0x0 DUP4 ADD MSTORE PUSH2 0x655 DUP2 DUP8 PUSH2 0x5F3 JUMP JUMPDEST SWAP1 POP PUSH2 0x664 PUSH1 0x20 DUP4 ADD DUP7 PUSH2 0x62C JUMP JUMPDEST PUSH2 0x671 PUSH1 0x40 DUP4 ADD DUP6 PUSH2 0x62C JUMP JUMPDEST PUSH2 0x67E PUSH1 0x60 DUP4 ADD DUP5 PUSH2 0x62C JUMP JUMPDEST SWAP6 SWAP5 POP POP POP POP POP JUMP JUMPDEST PUSH1 0x0 PUSH2 0x691 PUSH2 0x6A2 JUMP JUMPDEST SWAP1 POP PUSH2 0x69D DUP3 DUP3 PUSH2 0x7AB JUMP JUMPDEST SWAP2 SWAP1 POP JUMP JUMPDEST PUSH1 0x0 PUSH1 0x40 MLOAD SWAP1 POP SWAP1 JUMP JUMPDEST PUSH1 0x0 PUSH8 0xFFFFFFFFFFFFFFFF DUP3 GT ISZERO PUSH2 0x6C7 JUMPI PUSH2 0x6C6 PUSH2 0x898 JUMP JUMPDEST JUMPDEST PUSH2 0x6D0 DUP3 PUSH2 0x8DB JUMP JUMPDEST SWAP1 POP PUSH1 0x20 DUP2 ADD SWAP1 POP SWAP2 SWAP1 POP JUMP JUMPDEST PUSH1 0x0 DUP2 MLOAD SWAP1 POP SWAP2 SWAP1 POP JUMP JUMPDEST PUSH1 0x0 DUP3 DUP3 MSTORE PUSH1 0x20 DUP3 ADD SWAP1 POP SWAP3 SWAP2 POP POP JUMP JUMPDEST PUSH1 0x0 PUSH2 0x704 DUP3 PUSH2 0x72D JUMP JUMPDEST SWAP2 POP PUSH2 0x70F DUP4 PUSH2 0x72D JUMP JUMPDEST SWAP3 POP DUP3 DUP3 LT ISZERO PUSH2 0x722 JUMPI PUSH2 0x721 PUSH2 0x7DC JUMP JUMPDEST JUMPDEST DUP3 DUP3 SUB SWAP1 POP SWAP3 SWAP2 POP POP JUMP JUMPDEST PUSH1 0x0 DUP2 SWAP1 POP SWAP2 SWAP1 POP JUMP JUMPDEST DUP3 DUP2 DUP4 CALLDATACOPY PUSH1 0x0 DUP4 DUP4 ADD MSTORE POP POP POP JUMP JUMPDEST PUSH1 0x0 JUMPDEST DUP4 DUP2 LT ISZERO PUSH2 0x764 JUMPI DUP1 DUP3 ADD MLOAD DUP2 DUP5 ADD MSTORE PUSH1 0x20 DUP2 ADD SWAP1 POP PUSH2 0x749 JUMP JUMPDEST DUP4 DUP2 GT ISZERO PUSH2 0x773 JUMPI PUSH1 0x0 DUP5 DUP5 ADD MSTORE JUMPDEST POP POP POP POP JUMP JUMPDEST PUSH1 0x0 PUSH1 0x2 DUP3 DIV SWAP1 POP PUSH1 0x1 DUP3 AND DUP1 PUSH2 0x791 JUMPI PUSH1 0x7F DUP3 AND SWAP2 POP JUMPDEST PUSH1 0x20 DUP3 LT DUP2 EQ ISZERO PUSH2 0x7A5 JUMPI PUSH2 0x7A4 PUSH2 0x80B JUMP JUMPDEST JUMPDEST POP SWAP2 SWAP1 POP JUMP JUMPDEST PUSH2 0x7B4 DUP3 PUSH2 0x8DB JUMP JUMPDEST DUP2 ADD DUP2 DUP2 LT PUSH8 0xFFFFFFFFFFFFFFFF DUP3 GT OR ISZERO PUSH2 0x7D3 JUMPI PUSH2 0x7D2 PUSH2 0x898 JUMP JUMPDEST JUMPDEST DUP1 PUSH1 0x40 MSTORE POP POP POP JUMP JUMPDEST PUSH32 0x4E487B7100000000000000000000000000000000000000000000000000000000 PUSH1 0x0 MSTORE PUSH1 0x11 PUSH1 0x4 MSTORE PUSH1 0x24 PUSH1 0x0 REVERT JUMPDEST PUSH32 0x4E487B7100000000000000000000000000000000000000000000000000000000 PUSH1 0x0 MSTORE PUSH1 0x22 PUSH1 0x4 MSTORE PUSH1 0x24 PUSH1 0x0 REVERT JUMPDEST PUSH32 0x4E487B7100000000000000000000000000000000000000000000000000000000 PUSH1 0x0 MSTORE PUSH1 0x31 PUSH1 0x4 MSTORE PUSH1 0x24 PUSH1 0x0 REVERT JUMPDEST PUSH32 0x4E487B7100000000000000000000000000000000000000000000000000000000 PUSH1 0x0 MSTORE PUSH1 0x32 PUSH1 0x4 MSTORE PUSH1 0x24 PUSH1 0x0 REVERT JUMPDEST PUSH32 0x4E487B7100000000000000000000000000000000000000000000000000000000 PUSH1 0x0 MSTORE PUSH1 0x41 PUSH1 0x4 MSTORE PUSH1 0x24 PUSH1 0x0 REVERT JUMPDEST PUSH1 0x0 DUP1 REVERT JUMPDEST PUSH1 0x0 DUP1 REVERT JUMPDEST PUSH1 0x0 DUP1 REVERT JUMPDEST PUSH1 0x0 DUP1 REVERT JUMPDEST PUSH1 0x0 PUSH1 0x1F NOT PUSH1 0x1F DUP4 ADD AND SWAP1 POP SWAP2 SWAP1 POP JUMP JUMPDEST PUSH2 0x8F5 DUP2 PUSH2 0x72D JUMP JUMPDEST DUP2 EQ PUSH2 0x900 JUMPI PUSH1 0x0 DUP1 REVERT JUMPDEST POP JUMP INVALID LOG2 PUSH5 0x6970667358 0x22 SLT KECCAK256 0x26 0xC1 SWAP12 0x1E LOG0 0xDB PUSH5 0x986A686399 DUP12 GASLIMIT BASEFEE PC 0x49 0xF7 CODESIZE DUP12 0xE0 0xC3 PUSH28 0x350B62A30A7CF985EE64736F6C634300080700330000000000000000 "
				},
				"gasEstimates": {
					"creation": {
						"codeDepositCost": "472200",
						"executionCost": "505",
						"totalCost": "472705"
					},
					"external": {
						"addtolist(string,uint256,uint256,uint256)": "infinite",
						"deletefromtodo(uint256)": "infinite",
						"edittodo()": "144",
						"getfromlist(uint256)": "infinite"
					}
				},
				"methodIdentifiers": {
					"addtolist(string,uint256,uint256,uint256)": "e1b7edff",
					"deletefromtodo(uint256)": "dfa36c8b",
					"edittodo()": "a67b3fdd",
					"getfromlist(uint256)": "7aadbdd3"
				}
			},
			"storageLayout": {
				"storage": [
					{
						"astId": 14,
						"contract": "Todo.sol:TodoList",
						"label": "todoarr",
						"offset": 0,
						"slot": "0",
						"type": "t_array(t_struct(Todo)10_storage)dyn_storage"
					}
				],
				"types": {
					"t_array(t_struct(Todo)10_storage)dyn_storage": {
						"base": "t_struct(Todo)10_storage",
						"encoding": "dynamic_array",
						"label": "struct TodoList.Todo[]",
						"numberOfBytes": "32"
					},
					"t_string_storage": {
						"encoding": "bytes",
						"label": "string",
						"numberOfBytes": "32"
					},
					"t_struct(Todo)10_storage": {
						"encoding": "inplace",
						"label": "struct TodoList.Todo",
						"members": [
							{
								"astId": 3,
								"contract": "Todo.sol:TodoList",
								"label": "action",
								"offset": 0,
								"slot": "0",
								"type": "t_string_storage"
							},
							{
								"astId": 5,
								"contract": "Todo.sol:TodoList",
								"label": "day",
								"offset": 0,
								"slot": "1",
								"type": "t_uint256"
							},
							{
								"astId": 7,
								"contract": "Todo.sol:TodoList",
								"label": "month",
								"offset": 0,
								"slot": "2",
								"type": "t_uint256"
							},
							{
								"astId": 9,
								"contract": "Todo.sol:TodoList",
								"label": "year",
								"offset": 0,
								"slot": "3",
								"type": "t_uint256"
							}
						],
						"numberOfBytes": "128"
					},
					"t_uint256": {
						"encoding": "inplace",
						"label": "uint256",
						"numberOfBytes": "32"
					}
				}
			},
			"userdoc": {
				"kind": "user",
				"methods": {},
				"version": 1
			}
		}
	}
}