{
	"pnum.sol": {
		"Primenum": {
			"abi": [
				{
					"inputs": [
						{
							"internalType": "int256",
							"name": "num",
							"type": "int256"
						}
					],
					"name": "Pnum",
					"outputs": [
						{
							"internalType": "bool",
							"name": "",
							"type": "bool"
						}
					],
					"stateMutability": "pure",
					"type": "function"
				},
				{
					"inputs": [
						{
							"internalType": "int256",
							"name": "num",
							"type": "int256"
						}
					],
					"name": "ifPrime",
					"outputs": [
						{
							"internalType": "bool",
							"name": "",
							"type": "bool"
						}
					],
					"stateMutability": "pure",
					"type": "function"
				}
			],
			"devdoc": {
				"kind": "dev",
				"methods": {},
				"version": 1
			},
			"evm": {
				"assembly": "    /* \"pnum.sol\":56:572  contract Primenum{\r... */\n  mstore(0x40, 0x80)\n  callvalue\n  dup1\n  iszero\n  tag_1\n  jumpi\n  0x00\n  dup1\n  revert\ntag_1:\n  pop\n  dataSize(sub_0)\n  dup1\n  dataOffset(sub_0)\n  0x00\n  codecopy\n  0x00\n  return\nstop\n\nsub_0: assembly {\n        /* \"pnum.sol\":56:572  contract Primenum{\r... */\n      mstore(0x40, 0x80)\n      callvalue\n      dup1\n      iszero\n      tag_1\n      jumpi\n      0x00\n      dup1\n      revert\n    tag_1:\n      pop\n      jumpi(tag_2, lt(calldatasize, 0x04))\n      shr(0xe0, calldataload(0x00))\n      dup1\n      0x47b78e4a\n      eq\n      tag_3\n      jumpi\n      dup1\n      0x5655a896\n      eq\n      tag_4\n      jumpi\n    tag_2:\n      0x00\n      dup1\n      revert\n        /* \"pnum.sol\":335:565  function ifPrime(int num) public pure returns (bool){\r... */\n    tag_3:\n      tag_5\n      0x04\n      dup1\n      calldatasize\n      sub\n      dup2\n      add\n      swap1\n      tag_6\n      swap2\n      swap1\n      tag_7\n      jump\t// in\n    tag_6:\n      tag_8\n      jump\t// in\n    tag_5:\n      mload(0x40)\n      tag_9\n      swap2\n      swap1\n      tag_10\n      jump\t// in\n    tag_9:\n      mload(0x40)\n      dup1\n      swap2\n      sub\n      swap1\n      return\n        /* \"pnum.sol\":76:332  function Pnum(int num) public pure returns(bool){\r... */\n    tag_4:\n      tag_11\n      0x04\n      dup1\n      calldatasize\n      sub\n      dup2\n      add\n      swap1\n      tag_12\n      swap2\n      swap1\n      tag_7\n      jump\t// in\n    tag_12:\n      tag_13\n      jump\t// in\n    tag_11:\n      mload(0x40)\n      tag_14\n      swap2\n      swap1\n      tag_10\n      jump\t// in\n    tag_14:\n      mload(0x40)\n      dup1\n      swap2\n      sub\n      swap1\n      return\n        /* \"pnum.sol\":335:565  function ifPrime(int num) public pure returns (bool){\r... */\n    tag_8:\n        /* \"pnum.sol\":382:386  bool */\n      0x00\n        /* \"pnum.sol\":409:410  1 */\n      0x01\n        /* \"pnum.sol\":402:405  num */\n      dup3\n        /* \"pnum.sol\":402:410  num == 1 */\n      eq\n        /* \"pnum.sol\":398:424  if (num == 1) return false */\n      iszero\n      tag_16\n      jumpi\n        /* \"pnum.sol\":419:424  false */\n      0x00\n        /* \"pnum.sol\":412:424  return false */\n      swap1\n      pop\n      jump(tag_15)\n        /* \"pnum.sol\":398:424  if (num == 1) return false */\n    tag_16:\n        /* \"pnum.sol\":439:444  int i */\n      0x00\n        /* \"pnum.sol\":447:448  2 */\n      0x02\n        /* \"pnum.sol\":439:448  int i = 2 */\n      swap1\n      pop\n        /* \"pnum.sol\":435:536  for(int i = 2; i < num; i++){\r... */\n    tag_17:\n        /* \"pnum.sol\":454:457  num */\n      dup3\n        /* \"pnum.sol\":450:451  i */\n      dup2\n        /* \"pnum.sol\":450:457  i < num */\n      slt\n        /* \"pnum.sol\":435:536  for(int i = 2; i < num; i++){\r... */\n      iszero\n      tag_18\n      jumpi\n        /* \"pnum.sol\":492:493  0 */\n      0x00\n        /* \"pnum.sol\":487:488  i */\n      dup2\n        /* \"pnum.sol\":481:484  num */\n      dup5\n        /* \"pnum.sol\":481:488  num % i */\n      tag_20\n      swap2\n      swap1\n      tag_21\n      jump\t// in\n    tag_20:\n        /* \"pnum.sol\":481:493  num % i == 0 */\n      eq\n        /* \"pnum.sol\":478:524  if(num % i == 0)\r... */\n      iszero\n      tag_22\n      jumpi\n        /* \"pnum.sol\":519:524  false */\n      0x00\n        /* \"pnum.sol\":512:524  return false */\n      swap2\n      pop\n      pop\n      jump(tag_15)\n        /* \"pnum.sol\":478:524  if(num % i == 0)\r... */\n    tag_22:\n        /* \"pnum.sol\":459:462  i++ */\n      dup1\n      dup1\n      tag_23\n      swap1\n      tag_24\n      jump\t// in\n    tag_23:\n      swap2\n      pop\n      pop\n        /* \"pnum.sol\":435:536  for(int i = 2; i < num; i++){\r... */\n      jump(tag_17)\n    tag_18:\n      pop\n        /* \"pnum.sol\":553:557  true */\n      0x01\n        /* \"pnum.sol\":546:557  return true */\n      swap1\n      pop\n        /* \"pnum.sol\":335:565  function ifPrime(int num) public pure returns (bool){\r... */\n    tag_15:\n      swap2\n      swap1\n      pop\n      jump\t// out\n        /* \"pnum.sol\":76:332  function Pnum(int num) public pure returns(bool){\r... */\n    tag_13:\n        /* \"pnum.sol\":119:123  bool */\n      0x00\n        /* \"pnum.sol\":140:141  1 */\n      0x01\n        /* \"pnum.sol\":135:138  num */\n      dup3\n        /* \"pnum.sol\":135:141  num==1 */\n      eq\n        /* \"pnum.sol\":131:155  if (num==1) return false */\n      iszero\n      tag_26\n      jumpi\n        /* \"pnum.sol\":150:155  false */\n      0x00\n        /* \"pnum.sol\":143:155  return false */\n      swap1\n      pop\n      jump(tag_25)\n        /* \"pnum.sol\":131:155  if (num==1) return false */\n    tag_26:\n        /* \"pnum.sol\":171:176  int i */\n      0x00\n        /* \"pnum.sol\":177:178  2 */\n      0x02\n        /* \"pnum.sol\":171:178  int i=2 */\n      swap1\n      pop\n        /* \"pnum.sol\":166:299  for (int i=2; i <= num;i++){\r... */\n    tag_27:\n        /* \"pnum.sol\":185:188  num */\n      dup3\n        /* \"pnum.sol\":180:181  i */\n      dup2\n        /* \"pnum.sol\":180:188  i <= num */\n      sgt\n        /* \"pnum.sol\":166:299  for (int i=2; i <= num;i++){\r... */\n      tag_28\n      jumpi\n        /* \"pnum.sol\":221:222  0 */\n      0x00\n        /* \"pnum.sol\":217:218  i */\n      dup2\n        /* \"pnum.sol\":211:214  num */\n      dup5\n        /* \"pnum.sol\":211:218  num % i */\n      tag_30\n      swap2\n      swap1\n      tag_21\n      jump\t// in\n    tag_30:\n        /* \"pnum.sol\":211:222  num % i== 0 */\n      eq\n        /* \"pnum.sol\":208:288  if(num % i== 0){\r... */\n      iszero\n      tag_31\n      jumpi\n        /* \"pnum.sol\":267:272  false */\n      0x00\n        /* \"pnum.sol\":260:272  return false */\n      swap2\n      pop\n      pop\n      jump(tag_25)\n        /* \"pnum.sol\":208:288  if(num % i== 0){\r... */\n    tag_31:\n        /* \"pnum.sol\":189:192  i++ */\n      dup1\n      dup1\n      tag_32\n      swap1\n      tag_24\n      jump\t// in\n    tag_32:\n      swap2\n      pop\n      pop\n        /* \"pnum.sol\":166:299  for (int i=2; i <= num;i++){\r... */\n      jump(tag_27)\n    tag_28:\n      pop\n        /* \"pnum.sol\":324:328  true */\n      0x01\n        /* \"pnum.sol\":317:328  return true */\n      swap1\n      pop\n        /* \"pnum.sol\":76:332  function Pnum(int num) public pure returns(bool){\r... */\n    tag_25:\n      swap2\n      swap1\n      pop\n      jump\t// out\n        /* \"#utility.yul\":7:144   */\n    tag_34:\n        /* \"#utility.yul\":52:57   */\n      0x00\n        /* \"#utility.yul\":90:96   */\n      dup2\n        /* \"#utility.yul\":77:97   */\n      calldataload\n        /* \"#utility.yul\":68:97   */\n      swap1\n      pop\n        /* \"#utility.yul\":106:138   */\n      tag_36\n        /* \"#utility.yul\":132:137   */\n      dup2\n        /* \"#utility.yul\":106:138   */\n      tag_37\n      jump\t// in\n    tag_36:\n        /* \"#utility.yul\":7:144   */\n      swap3\n      swap2\n      pop\n      pop\n      jump\t// out\n        /* \"#utility.yul\":150:477   */\n    tag_7:\n        /* \"#utility.yul\":208:214   */\n      0x00\n        /* \"#utility.yul\":257:259   */\n      0x20\n        /* \"#utility.yul\":245:254   */\n      dup3\n        /* \"#utility.yul\":236:243   */\n      dup5\n        /* \"#utility.yul\":232:255   */\n      sub\n        /* \"#utility.yul\":228:260   */\n      slt\n        /* \"#utility.yul\":225:344   */\n      iszero\n      tag_39\n      jumpi\n        /* \"#utility.yul\":263:342   */\n      tag_40\n      tag_41\n      jump\t// in\n    tag_40:\n        /* \"#utility.yul\":225:344   */\n    tag_39:\n        /* \"#utility.yul\":383:384   */\n      0x00\n        /* \"#utility.yul\":408:460   */\n      tag_42\n        /* \"#utility.yul\":452:459   */\n      dup5\n        /* \"#utility.yul\":443:449   */\n      dup3\n        /* \"#utility.yul\":432:441   */\n      dup6\n        /* \"#utility.yul\":428:450   */\n      add\n        /* \"#utility.yul\":408:460   */\n      tag_34\n      jump\t// in\n    tag_42:\n        /* \"#utility.yul\":398:460   */\n      swap2\n      pop\n        /* \"#utility.yul\":354:470   */\n      pop\n        /* \"#utility.yul\":150:477   */\n      swap3\n      swap2\n      pop\n      pop\n      jump\t// out\n        /* \"#utility.yul\":483:592   */\n    tag_43:\n        /* \"#utility.yul\":564:585   */\n      tag_45\n        /* \"#utility.yul\":579:584   */\n      dup2\n        /* \"#utility.yul\":564:585   */\n      tag_46\n      jump\t// in\n    tag_45:\n        /* \"#utility.yul\":559:562   */\n      dup3\n        /* \"#utility.yul\":552:586   */\n      mstore\n        /* \"#utility.yul\":483:592   */\n      pop\n      pop\n      jump\t// out\n        /* \"#utility.yul\":598:808   */\n    tag_10:\n        /* \"#utility.yul\":685:689   */\n      0x00\n        /* \"#utility.yul\":723:725   */\n      0x20\n        /* \"#utility.yul\":712:721   */\n      dup3\n        /* \"#utility.yul\":708:726   */\n      add\n        /* \"#utility.yul\":700:726   */\n      swap1\n      pop\n        /* \"#utility.yul\":736:801   */\n      tag_48\n        /* \"#utility.yul\":798:799   */\n      0x00\n        /* \"#utility.yul\":787:796   */\n      dup4\n        /* \"#utility.yul\":783:800   */\n      add\n        /* \"#utility.yul\":774:780   */\n      dup5\n        /* \"#utility.yul\":736:801   */\n      tag_43\n      jump\t// in\n    tag_48:\n        /* \"#utility.yul\":598:808   */\n      swap3\n      swap2\n      pop\n      pop\n      jump\t// out\n        /* \"#utility.yul\":895:985   */\n    tag_46:\n        /* \"#utility.yul\":929:936   */\n      0x00\n        /* \"#utility.yul\":972:977   */\n      dup2\n        /* \"#utility.yul\":965:978   */\n      iszero\n        /* \"#utility.yul\":958:979   */\n      iszero\n        /* \"#utility.yul\":947:979   */\n      swap1\n      pop\n        /* \"#utility.yul\":895:985   */\n      swap2\n      swap1\n      pop\n      jump\t// out\n        /* \"#utility.yul\":991:1067   */\n    tag_52:\n        /* \"#utility.yul\":1027:1034   */\n      0x00\n        /* \"#utility.yul\":1056:1061   */\n      dup2\n        /* \"#utility.yul\":1045:1061   */\n      swap1\n      pop\n        /* \"#utility.yul\":991:1067   */\n      swap2\n      swap1\n      pop\n      jump\t// out\n        /* \"#utility.yul\":1073:1304   */\n    tag_24:\n        /* \"#utility.yul\":1111:1114   */\n      0x00\n        /* \"#utility.yul\":1134:1157   */\n      tag_55\n        /* \"#utility.yul\":1151:1156   */\n      dup3\n        /* \"#utility.yul\":1134:1157   */\n      tag_52\n      jump\t// in\n    tag_55:\n        /* \"#utility.yul\":1125:1157   */\n      swap2\n      pop\n        /* \"#utility.yul\":1179:1245   */\n      0x7fffffffffffffffffffffffffffffffffffffffffffffffffffffffffffffff\n        /* \"#utility.yul\":1172:1177   */\n      dup3\n        /* \"#utility.yul\":1169:1246   */\n      eq\n        /* \"#utility.yul\":1166:1269   */\n      iszero\n      tag_56\n      jumpi\n        /* \"#utility.yul\":1249:1267   */\n      tag_57\n      tag_58\n      jump\t// in\n    tag_57:\n        /* \"#utility.yul\":1166:1269   */\n    tag_56:\n        /* \"#utility.yul\":1296:1297   */\n      0x01\n        /* \"#utility.yul\":1289:1294   */\n      dup3\n        /* \"#utility.yul\":1285:1298   */\n      add\n        /* \"#utility.yul\":1278:1298   */\n      swap1\n      pop\n        /* \"#utility.yul\":1073:1304   */\n      swap2\n      swap1\n      pop\n      jump\t// out\n        /* \"#utility.yul\":1310:1484   */\n    tag_21:\n        /* \"#utility.yul\":1341:1342   */\n      0x00\n        /* \"#utility.yul\":1358:1377   */\n      tag_60\n        /* \"#utility.yul\":1375:1376   */\n      dup3\n        /* \"#utility.yul\":1358:1377   */\n      tag_52\n      jump\t// in\n    tag_60:\n        /* \"#utility.yul\":1353:1377   */\n      swap2\n      pop\n        /* \"#utility.yul\":1391:1410   */\n      tag_61\n        /* \"#utility.yul\":1408:1409   */\n      dup4\n        /* \"#utility.yul\":1391:1410   */\n      tag_52\n      jump\t// in\n    tag_61:\n        /* \"#utility.yul\":1386:1410   */\n      swap3\n      pop\n        /* \"#utility.yul\":1429:1430   */\n      dup3\n        /* \"#utility.yul\":1419:1454   */\n      tag_62\n      jumpi\n        /* \"#utility.yul\":1434:1452   */\n      tag_63\n      tag_64\n      jump\t// in\n    tag_63:\n        /* \"#utility.yul\":1419:1454   */\n    tag_62:\n        /* \"#utility.yul\":1476:1477   */\n      dup3\n        /* \"#utility.yul\":1473:1474   */\n      dup3\n        /* \"#utility.yul\":1468:1478   */\n      smod\n        /* \"#utility.yul\":1463:1478   */\n      swap1\n      pop\n        /* \"#utility.yul\":1310:1484   */\n      swap3\n      swap2\n      pop\n      pop\n      jump\t// out\n        /* \"#utility.yul\":1490:1670   */\n    tag_58:\n        /* \"#utility.yul\":1538:1615   */\n      0x4e487b7100000000000000000000000000000000000000000000000000000000\n        /* \"#utility.yul\":1535:1536   */\n      0x00\n        /* \"#utility.yul\":1528:1616   */\n      mstore\n        /* \"#utility.yul\":1635:1639   */\n      0x11\n        /* \"#utility.yul\":1632:1633   */\n      0x04\n        /* \"#utility.yul\":1625:1640   */\n      mstore\n        /* \"#utility.yul\":1659:1663   */\n      0x24\n        /* \"#utility.yul\":1656:1657   */\n      0x00\n        /* \"#utility.yul\":1649:1664   */\n      revert\n        /* \"#utility.yul\":1676:1856   */\n    tag_64:\n        /* \"#utility.yul\":1724:1801   */\n      0x4e487b7100000000000000000000000000000000000000000000000000000000\n        /* \"#utility.yul\":1721:1722   */\n      0x00\n        /* \"#utility.yul\":1714:1802   */\n      mstore\n        /* \"#utility.yul\":1821:1825   */\n      0x12\n        /* \"#utility.yul\":1818:1819   */\n      0x04\n        /* \"#utility.yul\":1811:1826   */\n      mstore\n        /* \"#utility.yul\":1845:1849   */\n      0x24\n        /* \"#utility.yul\":1842:1843   */\n      0x00\n        /* \"#utility.yul\":1835:1850   */\n      revert\n        /* \"#utility.yul\":1985:2102   */\n    tag_41:\n        /* \"#utility.yul\":2094:2095   */\n      0x00\n        /* \"#utility.yul\":2091:2092   */\n      dup1\n        /* \"#utility.yul\":2084:2096   */\n      revert\n        /* \"#utility.yul\":2108:2228   */\n    tag_37:\n        /* \"#utility.yul\":2180:2203   */\n      tag_71\n        /* \"#utility.yul\":2197:2202   */\n      dup2\n        /* \"#utility.yul\":2180:2203   */\n      tag_52\n      jump\t// in\n    tag_71:\n        /* \"#utility.yul\":2173:2178   */\n      dup2\n        /* \"#utility.yul\":2170:2204   */\n      eq\n        /* \"#utility.yul\":2160:2222   */\n      tag_72\n      jumpi\n        /* \"#utility.yul\":2218:2219   */\n      0x00\n        /* \"#utility.yul\":2215:2216   */\n      dup1\n        /* \"#utility.yul\":2208:2220   */\n      revert\n        /* \"#utility.yul\":2160:2222   */\n    tag_72:\n        /* \"#utility.yul\":2108:2228   */\n      pop\n      jump\t// out\n\n    auxdata: 0xa26469706673582212203da4ac3a5d957c83e2abc12ba90e5e1b8a06f8b8173a7b595d25f6af7bc27dc564736f6c63430008070033\n}\n",
				"bytecode": {
					"linkReferences": {},
					"object": "608060405234801561001057600080fd5b50610304806100206000396000f3fe608060405234801561001057600080fd5b50600436106100365760003560e01c806347b78e4a1461003b5780635655a8961461006b575b600080fd5b6100556004803603810190610050919061016d565b61009b565b60405161006291906101a9565b60405180910390f35b6100856004803603810190610080919061016d565b6100fa565b60405161009291906101a9565b60405180910390f35b600060018214156100af57600090506100f5565b6000600290505b828112156100ef57600081846100cc9190610223565b14156100dc5760009150506100f5565b80806100e7906101da565b9150506100b6565b50600190505b919050565b6000600182141561010e5760009050610153565b6000600290505b82811361014d576000818461012a9190610223565b141561013a576000915050610153565b8080610145906101da565b915050610115565b50600190505b919050565b600081359050610167816102b7565b92915050565b600060208284031215610183576101826102b2565b5b600061019184828501610158565b91505092915050565b6101a3816101c4565b82525050565b60006020820190506101be600083018461019a565b92915050565b60008115159050919050565b6000819050919050565b60006101e5826101d0565b91507f7fffffffffffffffffffffffffffffffffffffffffffffffffffffffffffffff82141561021857610217610254565b5b600182019050919050565b600061022e826101d0565b9150610239836101d0565b92508261024957610248610283565b5b828207905092915050565b7f4e487b7100000000000000000000000000000000000000000000000000000000600052601160045260246000fd5b7f4e487b7100000000000000000000000000000000000000000000000000000000600052601260045260246000fd5b600080fd5b6102c0816101d0565b81146102cb57600080fd5b5056fea26469706673582212203da4ac3a5d957c83e2abc12ba90e5e1b8a06f8b8173a7b595d25f6af7bc27dc564736f6c63430008070033",
					"opcodes": "PUSH1 0x80 PUSH1 0x40 MSTORE CALLVALUE DUP1 ISZERO PUSH2 0x10 JUMPI PUSH1 0x0 DUP1 REVERT JUMPDEST POP PUSH2 0x304 DUP1 PUSH2 0x20 PUSH1 0x0 CODECOPY PUSH1 0x0 RETURN INVALID PUSH1 0x80 PUSH1 0x40 MSTORE CALLVALUE DUP1 ISZERO PUSH2 0x10 JUMPI PUSH1 0x0 DUP1 REVERT JUMPDEST POP PUSH1 0x4 CALLDATASIZE LT PUSH2 0x36 JUMPI PUSH1 0x0 CALLDATALOAD PUSH1 0xE0 SHR DUP1 PUSH4 0x47B78E4A EQ PUSH2 0x3B JUMPI DUP1 PUSH4 0x5655A896 EQ PUSH2 0x6B JUMPI JUMPDEST PUSH1 0x0 DUP1 REVERT JUMPDEST PUSH2 0x55 PUSH1 0x4 DUP1 CALLDATASIZE SUB DUP2 ADD SWAP1 PUSH2 0x50 SWAP2 SWAP1 PUSH2 0x16D JUMP JUMPDEST PUSH2 0x9B JUMP JUMPDEST PUSH1 0x40 MLOAD PUSH2 0x62 SWAP2 SWAP1 PUSH2 0x1A9 JUMP JUMPDEST PUSH1 0x40 MLOAD DUP1 SWAP2 SUB SWAP1 RETURN JUMPDEST PUSH2 0x85 PUSH1 0x4 DUP1 CALLDATASIZE SUB DUP2 ADD SWAP1 PUSH2 0x80 SWAP2 SWAP1 PUSH2 0x16D JUMP JUMPDEST PUSH2 0xFA JUMP JUMPDEST PUSH1 0x40 MLOAD PUSH2 0x92 SWAP2 SWAP1 PUSH2 0x1A9 JUMP JUMPDEST PUSH1 0x40 MLOAD DUP1 SWAP2 SUB SWAP1 RETURN JUMPDEST PUSH1 0x0 PUSH1 0x1 DUP3 EQ ISZERO PUSH2 0xAF JUMPI PUSH1 0x0 SWAP1 POP PUSH2 0xF5 JUMP JUMPDEST PUSH1 0x0 PUSH1 0x2 SWAP1 POP JUMPDEST DUP3 DUP2 SLT ISZERO PUSH2 0xEF JUMPI PUSH1 0x0 DUP2 DUP5 PUSH2 0xCC SWAP2 SWAP1 PUSH2 0x223 JUMP JUMPDEST EQ ISZERO PUSH2 0xDC JUMPI PUSH1 0x0 SWAP2 POP POP PUSH2 0xF5 JUMP JUMPDEST DUP1 DUP1 PUSH2 0xE7 SWAP1 PUSH2 0x1DA JUMP JUMPDEST SWAP2 POP POP PUSH2 0xB6 JUMP JUMPDEST POP PUSH1 0x1 SWAP1 POP JUMPDEST SWAP2 SWAP1 POP JUMP JUMPDEST PUSH1 0x0 PUSH1 0x1 DUP3 EQ ISZERO PUSH2 0x10E JUMPI PUSH1 0x0 SWAP1 POP PUSH2 0x153 JUMP JUMPDEST PUSH1 0x0 PUSH1 0x2 SWAP1 POP JUMPDEST DUP3 DUP2 SGT PUSH2 0x14D JUMPI PUSH1 0x0 DUP2 DUP5 PUSH2 0x12A SWAP2 SWAP1 PUSH2 0x223 JUMP JUMPDEST EQ ISZERO PUSH2 0x13A JUMPI PUSH1 0x0 SWAP2 POP POP PUSH2 0x153 JUMP JUMPDEST DUP1 DUP1 PUSH2 0x145 SWAP1 PUSH2 0x1DA JUMP JUMPDEST SWAP2 POP POP PUSH2 0x115 JUMP JUMPDEST POP PUSH1 0x1 SWAP1 POP JUMPDEST SWAP2 SWAP1 POP JUMP JUMPDEST PUSH1 0x0 DUP2 CALLDATALOAD SWAP1 POP PUSH2 0x167 DUP2 PUSH2 0x2B7 JUMP JUMPDEST SWAP3 SWAP2 POP POP JUMP JUMPDEST PUSH1 0x0 PUSH1 0x20 DUP3 DUP5 SUB SLT ISZERO PUSH2 0x183 JUMPI PUSH2 0x182 PUSH2 0x2B2 JUMP JUMPDEST JUMPDEST PUSH1 0x0 PUSH2 0x191 DUP5 DUP3 DUP6 ADD PUSH2 0x158 JUMP JUMPDEST SWAP2 POP POP SWAP3 SWAP2 POP POP JUMP JUMPDEST PUSH2 0x1A3 DUP2 PUSH2 0x1C4 JUMP JUMPDEST DUP3 MSTORE POP POP JUMP JUMPDEST PUSH1 0x0 PUSH1 0x20 DUP3 ADD SWAP1 POP PUSH2 0x1BE PUSH1 0x0 DUP4 ADD DUP5 PUSH2 0x19A JUMP JUMPDEST SWAP3 SWAP2 POP POP JUMP JUMPDEST PUSH1 0x0 DUP2 ISZERO ISZERO SWAP1 POP SWAP2 SWAP1 POP JUMP JUMPDEST PUSH1 0x0 DUP2 SWAP1 POP SWAP2 SWAP1 POP JUMP JUMPDEST PUSH1 0x0 PUSH2 0x1E5 DUP3 PUSH2 0x1D0 JUMP JUMPDEST SWAP2 POP PUSH32 0x7FFFFFFFFFFFFFFFFFFFFFFFFFFFFFFFFFFFFFFFFFFFFFFFFFFFFFFFFFFFFFFF DUP3 EQ ISZERO PUSH2 0x218 JUMPI PUSH2 0x217 PUSH2 0x254 JUMP JUMPDEST JUMPDEST PUSH1 0x1 DUP3 ADD SWAP1 POP SWAP2 SWAP1 POP JUMP JUMPDEST PUSH1 0x0 PUSH2 0x22E DUP3 PUSH2 0x1D0 JUMP JUMPDEST SWAP2 POP PUSH2 0x239 DUP4 PUSH2 0x1D0 JUMP JUMPDEST SWAP3 POP DUP3 PUSH2 0x249 JUMPI PUSH2 0x248 PUSH2 0x283 JUMP JUMPDEST JUMPDEST DUP3 DUP3 SMOD SWAP1 POP SWAP3 SWAP2 POP POP JUMP JUMPDEST PUSH32 0x4E487B7100000000000000000000000000000000000000000000000000000000 PUSH1 0x0 MSTORE PUSH1 0x11 PUSH1 0x4 MSTORE PUSH1 0x24 PUSH1 0x0 REVERT JUMPDEST PUSH32 0x4E487B7100000000000000000000000000000000000000000000000000000000 PUSH1 0x0 MSTORE PUSH1 0x12 PUSH1 0x4 MSTORE PUSH1 0x24 PUSH1 0x0 REVERT JUMPDEST PUSH1 0x0 DUP1 REVERT JUMPDEST PUSH2 0x2C0 DUP2 PUSH2 0x1D0 JUMP JUMPDEST DUP2 EQ PUSH2 0x2CB JUMPI PUSH1 0x0 DUP1 REVERT JUMPDEST POP JUMP INVALID LOG2 PUSH5 0x6970667358 0x22 SLT KECCAK256 RETURNDATASIZE LOG4 0xAC GASPRICE 0x5D SWAP6 PUSH29 0x83E2ABC12BA90E5E1B8A06F8B8173A7B595D25F6AF7BC27DC564736F6C PUSH4 0x43000807 STOP CALLER "
				},
				"gasEstimates": {
					"creation": {
						"codeDepositCost": "154400",
						"executionCost": "202",
						"totalCost": "154602"
					},
					"external": {
						"Pnum(int256)": "infinite",
						"ifPrime(int256)": "infinite"
					}
				},
				"methodIdentifiers": {
					"Pnum(int256)": "5655a896",
					"ifPrime(int256)": "47b78e4a"
				}
			},
			"storageLayout": {
				"storage": [],
				"types": null
			},
			"userdoc": {
				"kind": "user",
				"methods": {},
				"version": 1
			}
		}
	}
}