{
	"Todo.sol": {
		"TodoList": {
			"abi": [
				{
					"inputs": [
						{
							"internalType": "string",
							"name": "_action",
							"type": "string"
						},
						{
							"internalType": "uint256",
							"name": "_day",
							"type": "uint256"
						},
						{
							"internalType": "uint256",
							"name": "_month",
							"type": "uint256"
						},
						{
							"internalType": "uint256",
							"name": "_year",
							"type": "uint256"
						}
					],
					"name": "addtolist",
					"outputs": [],
					"stateMutability": "nonpayable",
					"type": "function"
				},
				{
					"inputs": [
						{
							"internalType": "uint256",
							"name": "index",
							"type": "uint256"
						},
						{
							"internalType": "uint256",
							"name": "_day",
							"type": "uint256"
						}
					],
					"name": "editDay",
					"outputs": [],
					"stateMutability": "nonpayable",
					"type": "function"
				},
				{
					"inputs": [
						{
							"internalType": "uint256",
							"name": "index",
							"type": "uint256"
						},
						{
							"internalType": "uint256",
							"name": "_month",
							"type": "uint256"
						}
					],
					"name": "editMonth",
					"outputs": [],
					"stateMutability": "nonpayable",
					"type": "function"
				},
				{
					"inputs": [
						{
							"internalType": "uint256",
							"name": "index",
							"type": "uint256"
						},
						{
							"internalType": "uint256",
							"name": "_year",
							"type": "uint256"
						}
					],
					"name": "editYear",
					"outputs": [],
					"stateMutability": "nonpayable",
					"type": "function"
				},
				{
					"inputs": [
						{
							"internalType": "uint256",
							"name": "index",
							"type": "uint256"
						},
						{
							"internalType": "string",
							"name": "_action",
							"type": "string"
						}
					],
					"name": "editaction",
					"outputs": [],
					"stateMutability": "nonpayable",
					"type": "function"
				},
				{
					"inputs": [
						{
							"internalType": "uint256",
							"name": "_index",
							"type": "uint256"
						}
					],
					"name": "getfromlist",
					"outputs": [
						{
							"internalType": "string",
							"name": "",
							"type": "string"
						},
						{
							"internalType": "uint256",
							"name": "",
							"type": "uint256"
						},
						{
							"internalType": "uint256",
							"name": "",
							"type": "uint256"
						},
						{
							"internalType": "uint256",
							"name": "",
							"type": "uint256"
						}
					],
					"stateMutability": "view",
					"type": "function"
				},
				{
					"inputs": [
						{
							"internalType": "uint256",
							"name": "index",
							"type": "uint256"
						}
					],
					"name": "remfromtodo",
					"outputs": [],
					"stateMutability": "nonpayable",
					"type": "function"
				},
				{
					"inputs": [],
					"name": "test",
					"outputs": [
						{
							"components": [
								{
									"internalType": "string",
									"name": "action",
									"type": "string"
								},
								{
									"internalType": "uint256",
									"name": "day",
									"type": "uint256"
								},
								{
									"internalType": "uint256",
									"name": "month",
									"type": "uint256"
								},
								{
									"internalType": "uint256",
									"name": "year",
									"type": "uint256"
								}
							],
							"internalType": "struct TodoList.Todo[]",
							"name": "",
							"type": "tuple[]"
						}
					],
					"stateMutability": "nonpayable",
					"type": "function"
				}
			],
			"devdoc": {
				"kind": "dev",
				"methods": {},
				"version": 1
			},
			"evm": {
				"assembly": "    /* \"Todo.sol\":56:1241  contract TodoList{\r... */\n  mstore(0x40, 0x80)\n  callvalue\n  dup1\n  iszero\n  tag_1\n  jumpi\n  0x00\n  dup1\n  revert\ntag_1:\n  pop\n  dataSize(sub_0)\n  dup1\n  dataOffset(sub_0)\n  0x00\n  codecopy\n  0x00\n  return\nstop\n\nsub_0: assembly {\n        /* \"Todo.sol\":56:1241  contract TodoList{\r... */\n      mstore(0x40, 0x80)\n      callvalue\n      dup1\n      iszero\n      tag_1\n      jumpi\n      0x00\n      dup1\n      revert\n    tag_1:\n      pop\n      jumpi(tag_2, lt(calldatasize, 0x04))\n      shr(0xe0, calldataload(0x00))\n      dup1\n      0x9351b078\n      gt\n      tag_11\n      jumpi\n      dup1\n      0x9351b078\n      eq\n      tag_7\n      jumpi\n      dup1\n      0x973e2bbc\n      eq\n      tag_8\n      jumpi\n      dup1\n      0xe1b7edff\n      eq\n      tag_9\n      jumpi\n      dup1\n      0xf8a8fd6d\n      eq\n      tag_10\n      jumpi\n      jump(tag_2)\n    tag_11:\n      dup1\n      0x12cbb972\n      eq\n      tag_3\n      jumpi\n      dup1\n      0x27503a82\n      eq\n      tag_4\n      jumpi\n      dup1\n      0x2dc6a8d7\n      eq\n      tag_5\n      jumpi\n      dup1\n      0x7aadbdd3\n      eq\n      tag_6\n      jumpi\n    tag_2:\n      0x00\n      dup1\n      revert\n        /* \"Todo.sol\":702:828  function editaction(uint index,string memory _action) external{\r... */\n    tag_3:\n      tag_12\n      0x04\n      dup1\n      calldatasize\n      sub\n      dup2\n      add\n      swap1\n      tag_13\n      swap2\n      swap1\n      tag_14\n      jump\t// in\n    tag_13:\n      tag_15\n      jump\t// in\n    tag_12:\n      stop\n        /* \"Todo.sol\":942:1056  function editMonth(uint index,uint _month) external{\r... */\n    tag_4:\n      tag_16\n      0x04\n      dup1\n      calldatasize\n      sub\n      dup2\n      add\n      swap1\n      tag_17\n      swap2\n      swap1\n      tag_18\n      jump\t// in\n    tag_17:\n      tag_19\n      jump\t// in\n    tag_16:\n      stop\n        /* \"Todo.sol\":832:938  function editDay(uint index,uint _day) external{\r... */\n    tag_5:\n      tag_20\n      0x04\n      dup1\n      calldatasize\n      sub\n      dup2\n      add\n      swap1\n      tag_21\n      swap2\n      swap1\n      tag_18\n      jump\t// in\n    tag_21:\n      tag_22\n      jump\t// in\n    tag_20:\n      stop\n        /* \"Todo.sol\":410:586  function getfromlist(uint _index) public view returns(string memory,uint,uint ,uint){\r... */\n    tag_6:\n      tag_23\n      0x04\n      dup1\n      calldatasize\n      sub\n      dup2\n      add\n      swap1\n      tag_24\n      swap2\n      swap1\n      tag_25\n      jump\t// in\n    tag_24:\n      tag_26\n      jump\t// in\n    tag_23:\n      mload(0x40)\n      tag_27\n      swap5\n      swap4\n      swap3\n      swap2\n      swap1\n      tag_28\n      jump\t// in\n    tag_27:\n      mload(0x40)\n      dup1\n      swap2\n      sub\n      swap1\n      return\n        /* \"Todo.sol\":592:698  function remfromtodo(uint index) external {\r... */\n    tag_7:\n      tag_29\n      0x04\n      dup1\n      calldatasize\n      sub\n      dup2\n      add\n      swap1\n      tag_30\n      swap2\n      swap1\n      tag_25\n      jump\t// in\n    tag_30:\n      tag_31\n      jump\t// in\n    tag_29:\n      stop\n        /* \"Todo.sol\":1060:1171  function editYear(uint index,uint _year) external{\r... */\n    tag_8:\n      tag_32\n      0x04\n      dup1\n      calldatasize\n      sub\n      dup2\n      add\n      swap1\n      tag_33\n      swap2\n      swap1\n      tag_18\n      jump\t// in\n    tag_33:\n      tag_34\n      jump\t// in\n    tag_32:\n      stop\n        /* \"Todo.sol\":215:406  function addtolist(string memory _action,uint _day,uint _month,uint _year) external {\r... */\n    tag_9:\n      tag_35\n      0x04\n      dup1\n      calldatasize\n      sub\n      dup2\n      add\n      swap1\n      tag_36\n      swap2\n      swap1\n      tag_37\n      jump\t// in\n    tag_36:\n      tag_38\n      jump\t// in\n    tag_35:\n      stop\n        /* \"Todo.sol\":1173:1236  function test() external returns(Todo[] memory){\r... */\n    tag_10:\n      tag_39\n      tag_40\n      jump\t// in\n    tag_39:\n      mload(0x40)\n      tag_41\n      swap2\n      swap1\n      tag_42\n      jump\t// in\n    tag_41:\n      mload(0x40)\n      dup1\n      swap2\n      sub\n      swap1\n      return\n        /* \"Todo.sol\":702:828  function editaction(uint index,string memory _action) external{\r... */\n    tag_15:\n        /* \"Todo.sol\":767:785  Todo storage todos */\n      0x00\n        /* \"Todo.sol\":787:794  todoarr */\n      dup1\n        /* \"Todo.sol\":795:800  index */\n      dup4\n        /* \"Todo.sol\":787:801  todoarr[index] */\n      dup2\n      sload\n      dup2\n      lt\n      tag_44\n      jumpi\n      tag_45\n      tag_46\n      jump\t// in\n    tag_45:\n    tag_44:\n      swap1\n      0x00\n      mstore\n      keccak256(0x00, 0x20)\n      swap1\n      0x04\n      mul\n      add\n        /* \"Todo.sol\":767:801  Todo storage todos= todoarr[index] */\n      swap1\n      pop\n        /* \"Todo.sol\":819:826  _action */\n      dup2\n        /* \"Todo.sol\":804:809  todos */\n      dup2\n        /* \"Todo.sol\":804:816  todos.action */\n      0x00\n      add\n        /* \"Todo.sol\":804:826  todos.action = _action */\n      swap1\n      dup1\n      mload\n      swap1\n      0x20\n      add\n      swap1\n      tag_48\n      swap3\n      swap2\n      swap1\n      tag_49\n      jump\t// in\n    tag_48:\n      pop\n        /* \"Todo.sol\":764:828  {\r... */\n      pop\n        /* \"Todo.sol\":702:828  function editaction(uint index,string memory _action) external{\r... */\n      pop\n      pop\n      jump\t// out\n        /* \"Todo.sol\":942:1056  function editMonth(uint index,uint _month) external{\r... */\n    tag_19:\n        /* \"Todo.sol\":996:1014  Todo storage todos */\n      0x00\n        /* \"Todo.sol\":1017:1024  todoarr */\n      dup1\n        /* \"Todo.sol\":1025:1030  index */\n      dup4\n        /* \"Todo.sol\":1017:1031  todoarr[index] */\n      dup2\n      sload\n      dup2\n      lt\n      tag_51\n      jumpi\n      tag_52\n      tag_46\n      jump\t// in\n    tag_52:\n    tag_51:\n      swap1\n      0x00\n      mstore\n      keccak256(0x00, 0x20)\n      swap1\n      0x04\n      mul\n      add\n        /* \"Todo.sol\":996:1031  Todo storage todos = todoarr[index] */\n      swap1\n      pop\n        /* \"Todo.sol\":1048:1054  _month */\n      dup2\n        /* \"Todo.sol\":1034:1039  todos */\n      dup2\n        /* \"Todo.sol\":1034:1045  todos.month */\n      0x02\n      add\n        /* \"Todo.sol\":1034:1054  todos.month = _month */\n      dup2\n      swap1\n      sstore\n      pop\n        /* \"Todo.sol\":993:1056  {\r... */\n      pop\n        /* \"Todo.sol\":942:1056  function editMonth(uint index,uint _month) external{\r... */\n      pop\n      pop\n      jump\t// out\n        /* \"Todo.sol\":832:938  function editDay(uint index,uint _day) external{\r... */\n    tag_22:\n        /* \"Todo.sol\":882:900  Todo storage todos */\n      0x00\n        /* \"Todo.sol\":903:910  todoarr */\n      dup1\n        /* \"Todo.sol\":911:916  index */\n      dup4\n        /* \"Todo.sol\":903:917  todoarr[index] */\n      dup2\n      sload\n      dup2\n      lt\n      tag_55\n      jumpi\n      tag_56\n      tag_46\n      jump\t// in\n    tag_56:\n    tag_55:\n      swap1\n      0x00\n      mstore\n      keccak256(0x00, 0x20)\n      swap1\n      0x04\n      mul\n      add\n        /* \"Todo.sol\":882:917  Todo storage todos = todoarr[index] */\n      swap1\n      pop\n        /* \"Todo.sol\":932:936  _day */\n      dup2\n        /* \"Todo.sol\":920:925  todos */\n      dup2\n        /* \"Todo.sol\":920:929  todos.day */\n      0x01\n      add\n        /* \"Todo.sol\":920:936  todos.day = _day */\n      dup2\n      swap1\n      sstore\n      pop\n        /* \"Todo.sol\":879:938  {\r... */\n      pop\n        /* \"Todo.sol\":832:938  function editDay(uint index,uint _day) external{\r... */\n      pop\n      pop\n      jump\t// out\n        /* \"Todo.sol\":410:586  function getfromlist(uint _index) public view returns(string memory,uint,uint ,uint){\r... */\n    tag_26:\n        /* \"Todo.sol\":464:477  string memory */\n      0x60\n        /* \"Todo.sol\":478:482  uint */\n      0x00\n        /* \"Todo.sol\":483:487  uint */\n      dup1\n        /* \"Todo.sol\":489:493  uint */\n      0x00\n        /* \"Todo.sol\":497:513  Todo memory todo */\n      dup1\n        /* \"Todo.sol\":516:523  todoarr */\n      0x00\n        /* \"Todo.sol\":524:530  _index */\n      dup7\n        /* \"Todo.sol\":516:531  todoarr[_index] */\n      dup2\n      sload\n      dup2\n      lt\n      tag_59\n      jumpi\n      tag_60\n      tag_46\n      jump\t// in\n    tag_60:\n    tag_59:\n      swap1\n      0x00\n      mstore\n      keccak256(0x00, 0x20)\n      swap1\n      0x04\n      mul\n      add\n        /* \"Todo.sol\":497:531  Todo memory todo = todoarr[_index] */\n      mload(0x40)\n      dup1\n      0x80\n      add\n      0x40\n      mstore\n      swap1\n      dup2\n      0x00\n      dup3\n      add\n      dup1\n      sload\n      tag_62\n      swap1\n      tag_63\n      jump\t// in\n    tag_62:\n      dup1\n      0x1f\n      add\n      0x20\n      dup1\n      swap2\n      div\n      mul\n      0x20\n      add\n      mload(0x40)\n      swap1\n      dup2\n      add\n      0x40\n      mstore\n      dup1\n      swap3\n      swap2\n      swap1\n      dup2\n      dup2\n      mstore\n      0x20\n      add\n      dup3\n      dup1\n      sload\n      tag_64\n      swap1\n      tag_63\n      jump\t// in\n    tag_64:\n      dup1\n      iszero\n      tag_65\n      jumpi\n      dup1\n      0x1f\n      lt\n      tag_66\n      jumpi\n      0x0100\n      dup1\n      dup4\n      sload\n      div\n      mul\n      dup4\n      mstore\n      swap2\n      0x20\n      add\n      swap2\n      jump(tag_65)\n    tag_66:\n      dup3\n      add\n      swap2\n      swap1\n      0x00\n      mstore\n      keccak256(0x00, 0x20)\n      swap1\n    tag_67:\n      dup2\n      sload\n      dup2\n      mstore\n      swap1\n      0x01\n      add\n      swap1\n      0x20\n      add\n      dup1\n      dup4\n      gt\n      tag_67\n      jumpi\n      dup3\n      swap1\n      sub\n      0x1f\n      and\n      dup3\n      add\n      swap2\n    tag_65:\n      pop\n      pop\n      pop\n      pop\n      pop\n      dup2\n      mstore\n      0x20\n      add\n      0x01\n      dup3\n      add\n      sload\n      dup2\n      mstore\n      0x20\n      add\n      0x02\n      dup3\n      add\n      sload\n      dup2\n      mstore\n      0x20\n      add\n      0x03\n      dup3\n      add\n      sload\n      dup2\n      mstore\n      pop\n      pop\n      swap1\n      pop\n        /* \"Todo.sol\":542:546  todo */\n      dup1\n        /* \"Todo.sol\":542:553  todo.action */\n      0x00\n      add\n      mload\n        /* \"Todo.sol\":554:558  todo */\n      dup2\n        /* \"Todo.sol\":554:562  todo.day */\n      0x20\n      add\n      mload\n        /* \"Todo.sol\":563:567  todo */\n      dup3\n        /* \"Todo.sol\":563:573  todo.month */\n      0x40\n      add\n      mload\n        /* \"Todo.sol\":574:578  todo */\n      dup4\n        /* \"Todo.sol\":574:583  todo.year */\n      0x60\n      add\n      mload\n        /* \"Todo.sol\":534:584  return (todo.action,todo.day,todo.month,todo.year) */\n      swap5\n      pop\n      swap5\n      pop\n      swap5\n      pop\n      swap5\n      pop\n      pop\n        /* \"Todo.sol\":410:586  function getfromlist(uint _index) public view returns(string memory,uint,uint ,uint){\r... */\n      swap2\n      swap4\n      pop\n      swap2\n      swap4\n      jump\t// out\n        /* \"Todo.sol\":592:698  function remfromtodo(uint index) external {\r... */\n    tag_31:\n        /* \"Todo.sol\":654:661  todoarr */\n      0x00\n        /* \"Todo.sol\":678:679  1 */\n      0x01\n        /* \"Todo.sol\":662:669  todoarr */\n      0x00\n        /* \"Todo.sol\":662:676  todoarr.length */\n      dup1\n      sload\n      swap1\n      pop\n        /* \"Todo.sol\":662:679  todoarr.length -1 */\n      tag_69\n      swap2\n      swap1\n      tag_70\n      jump\t// in\n    tag_69:\n        /* \"Todo.sol\":654:680  todoarr[todoarr.length -1] */\n      dup2\n      sload\n      dup2\n      lt\n      tag_71\n      jumpi\n      tag_72\n      tag_46\n      jump\t// in\n    tag_72:\n    tag_71:\n      swap1\n      0x00\n      mstore\n      keccak256(0x00, 0x20)\n      swap1\n      0x04\n      mul\n      add\n        /* \"Todo.sol\":637:644  todoarr */\n      0x00\n        /* \"Todo.sol\":645:650  index */\n      dup3\n        /* \"Todo.sol\":637:651  todoarr[index] */\n      dup2\n      sload\n      dup2\n      lt\n      tag_74\n      jumpi\n      tag_75\n      tag_46\n      jump\t// in\n    tag_75:\n    tag_74:\n      swap1\n      0x00\n      mstore\n      keccak256(0x00, 0x20)\n      swap1\n      0x04\n      mul\n      add\n        /* \"Todo.sol\":637:680  todoarr[index] = todoarr[todoarr.length -1] */\n      0x00\n      dup3\n      add\n      dup2\n      0x00\n      add\n      swap1\n      dup1\n      sload\n      tag_77\n      swap1\n      tag_63\n      jump\t// in\n    tag_77:\n      tag_78\n      swap3\n      swap2\n      swap1\n      tag_79\n      jump\t// in\n    tag_78:\n      pop\n      0x01\n      dup3\n      add\n      sload\n      dup2\n      0x01\n      add\n      sstore\n      0x02\n      dup3\n      add\n      sload\n      dup2\n      0x02\n      add\n      sstore\n      0x03\n      dup3\n      add\n      sload\n      dup2\n      0x03\n      add\n      sstore\n      swap1\n      pop\n      pop\n        /* \"Todo.sol\":683:690  todoarr */\n      0x00\n        /* \"Todo.sol\":683:696  todoarr.pop() */\n      dup1\n      sload\n      dup1\n      tag_80\n      jumpi\n      tag_81\n      tag_82\n      jump\t// in\n    tag_81:\n    tag_80:\n      0x01\n      swap1\n      sub\n      dup2\n      dup2\n      swap1\n      0x00\n      mstore\n      keccak256(0x00, 0x20)\n      swap1\n      0x04\n      mul\n      add\n      0x00\n      dup1\n      dup3\n      add\n      0x00\n      tag_84\n      swap2\n      swap1\n      tag_85\n      jump\t// in\n    tag_84:\n      0x01\n      dup3\n      add\n      0x00\n      swap1\n      sstore\n      0x02\n      dup3\n      add\n      0x00\n      swap1\n      sstore\n      0x03\n      dup3\n      add\n      0x00\n      swap1\n      sstore\n      pop\n      pop\n      swap1\n      sstore\n        /* \"Todo.sol\":592:698  function remfromtodo(uint index) external {\r... */\n      pop\n      jump\t// out\n        /* \"Todo.sol\":1060:1171  function editYear(uint index,uint _year) external{\r... */\n    tag_34:\n        /* \"Todo.sol\":1112:1130  Todo storage todos */\n      0x00\n        /* \"Todo.sol\":1133:1140  todoarr */\n      dup1\n        /* \"Todo.sol\":1141:1146  index */\n      dup4\n        /* \"Todo.sol\":1133:1147  todoarr[index] */\n      dup2\n      sload\n      dup2\n      lt\n      tag_87\n      jumpi\n      tag_88\n      tag_46\n      jump\t// in\n    tag_88:\n    tag_87:\n      swap1\n      0x00\n      mstore\n      keccak256(0x00, 0x20)\n      swap1\n      0x04\n      mul\n      add\n        /* \"Todo.sol\":1112:1147  Todo storage todos = todoarr[index] */\n      swap1\n      pop\n        /* \"Todo.sol\":1164:1169  _year */\n      dup2\n        /* \"Todo.sol\":1151:1156  todos */\n      dup2\n        /* \"Todo.sol\":1151:1161  todos.year */\n      0x03\n      add\n        /* \"Todo.sol\":1151:1169  todos.year = _year */\n      dup2\n      swap1\n      sstore\n      pop\n        /* \"Todo.sol\":1109:1171  {\r... */\n      pop\n        /* \"Todo.sol\":1060:1171  function editYear(uint index,uint _year) external{\r... */\n      pop\n      pop\n      jump\t// out\n        /* \"Todo.sol\":215:406  function addtolist(string memory _action,uint _day,uint _month,uint _year) external {\r... */\n    tag_38:\n        /* \"Todo.sol\":302:309  todoarr */\n      0x00\n        /* \"Todo.sol\":315:401  Todo({\r... */\n      mload(0x40)\n      dup1\n      0x80\n      add\n      0x40\n      mstore\n      dup1\n        /* \"Todo.sol\":335:342  _action */\n      dup7\n        /* \"Todo.sol\":315:401  Todo({\r... */\n      dup2\n      mstore\n      0x20\n      add\n        /* \"Todo.sol\":354:358  _day */\n      dup6\n        /* \"Todo.sol\":315:401  Todo({\r... */\n      dup2\n      mstore\n      0x20\n      add\n        /* \"Todo.sol\":372:378  _month */\n      dup5\n        /* \"Todo.sol\":315:401  Todo({\r... */\n      dup2\n      mstore\n      0x20\n      add\n        /* \"Todo.sol\":392:397  _year */\n      dup4\n        /* \"Todo.sol\":315:401  Todo({\r... */\n      dup2\n      mstore\n      pop\n        /* \"Todo.sol\":302:402  todoarr.push(Todo({\r... */\n      swap1\n      dup1\n      0x01\n      dup2\n      sload\n      add\n      dup1\n      dup3\n      sstore\n      dup1\n      swap2\n      pop\n      pop\n      0x01\n      swap1\n      sub\n      swap1\n      0x00\n      mstore\n      keccak256(0x00, 0x20)\n      swap1\n      0x04\n      mul\n      add\n      0x00\n      swap1\n      swap2\n      swap1\n      swap2\n      swap1\n      swap2\n      pop\n      0x00\n      dup3\n      add\n      mload\n      dup2\n      0x00\n      add\n      swap1\n      dup1\n      mload\n      swap1\n      0x20\n      add\n      swap1\n      tag_92\n      swap3\n      swap2\n      swap1\n      tag_49\n      jump\t// in\n    tag_92:\n      pop\n      0x20\n      dup3\n      add\n      mload\n      dup2\n      0x01\n      add\n      sstore\n      0x40\n      dup3\n      add\n      mload\n      dup2\n      0x02\n      add\n      sstore\n      0x60\n      dup3\n      add\n      mload\n      dup2\n      0x03\n      add\n      sstore\n      pop\n      pop\n        /* \"Todo.sol\":215:406  function addtolist(string memory _action,uint _day,uint _month,uint _year) external {\r... */\n      pop\n      pop\n      pop\n      pop\n      jump\t// out\n        /* \"Todo.sol\":1173:1236  function test() external returns(Todo[] memory){\r... */\n    tag_40:\n        /* \"Todo.sol\":1206:1219  Todo[] memory */\n      0x60\n        /* \"Todo.sol\":1173:1236  function test() external returns(Todo[] memory){\r... */\n      swap1\n      jump\t// out\n    tag_49:\n      dup3\n      dup1\n      sload\n      tag_94\n      swap1\n      tag_63\n      jump\t// in\n    tag_94:\n      swap1\n      0x00\n      mstore\n      keccak256(0x00, 0x20)\n      swap1\n      0x1f\n      add\n      0x20\n      swap1\n      div\n      dup2\n      add\n      swap3\n      dup3\n      tag_96\n      jumpi\n      0x00\n      dup6\n      sstore\n      jump(tag_95)\n    tag_96:\n      dup3\n      0x1f\n      lt\n      tag_97\n      jumpi\n      dup1\n      mload\n      not(0xff)\n      and\n      dup4\n      dup1\n      add\n      or\n      dup6\n      sstore\n      jump(tag_95)\n    tag_97:\n      dup3\n      dup1\n      add\n      0x01\n      add\n      dup6\n      sstore\n      dup3\n      iszero\n      tag_95\n      jumpi\n      swap2\n      dup3\n      add\n    tag_98:\n      dup3\n      dup2\n      gt\n      iszero\n      tag_99\n      jumpi\n      dup3\n      mload\n      dup3\n      sstore\n      swap2\n      0x20\n      add\n      swap2\n      swap1\n      0x01\n      add\n      swap1\n      jump(tag_98)\n    tag_99:\n    tag_95:\n      pop\n      swap1\n      pop\n      tag_100\n      swap2\n      swap1\n      tag_101\n      jump\t// in\n    tag_100:\n      pop\n      swap1\n      jump\t// out\n    tag_79:\n      dup3\n      dup1\n      sload\n      tag_102\n      swap1\n      tag_63\n      jump\t// in\n    tag_102:\n      swap1\n      0x00\n      mstore\n      keccak256(0x00, 0x20)\n      swap1\n      0x1f\n      add\n      0x20\n      swap1\n      div\n      dup2\n      add\n      swap3\n      dup3\n      tag_104\n      jumpi\n      0x00\n      dup6\n      sstore\n      jump(tag_103)\n    tag_104:\n      dup3\n      0x1f\n      lt\n      tag_105\n      jumpi\n      dup1\n      sload\n      dup6\n      sstore\n      jump(tag_103)\n    tag_105:\n      dup3\n      dup1\n      add\n      0x01\n      add\n      dup6\n      sstore\n      dup3\n      iszero\n      tag_103\n      jumpi\n      0x00\n      mstore\n      keccak256(0x00, 0x20)\n      swap2\n      0x1f\n      add\n      0x20\n      swap1\n      div\n      dup3\n      add\n    tag_106:\n      dup3\n      dup2\n      gt\n      iszero\n      tag_107\n      jumpi\n      dup3\n      sload\n      dup3\n      sstore\n      swap2\n      0x01\n      add\n      swap2\n      swap1\n      0x01\n      add\n      swap1\n      jump(tag_106)\n    tag_107:\n    tag_103:\n      pop\n      swap1\n      pop\n      tag_108\n      swap2\n      swap1\n      tag_101\n      jump\t// in\n    tag_108:\n      pop\n      swap1\n      jump\t// out\n    tag_85:\n      pop\n      dup1\n      sload\n      tag_109\n      swap1\n      tag_63\n      jump\t// in\n    tag_109:\n      0x00\n      dup3\n      sstore\n      dup1\n      0x1f\n      lt\n      tag_111\n      jumpi\n      pop\n      jump(tag_110)\n    tag_111:\n      0x1f\n      add\n      0x20\n      swap1\n      div\n      swap1\n      0x00\n      mstore\n      keccak256(0x00, 0x20)\n      swap1\n      dup2\n      add\n      swap1\n      tag_112\n      swap2\n      swap1\n      tag_101\n      jump\t// in\n    tag_112:\n    tag_110:\n      pop\n      jump\t// out\n    tag_101:\n    tag_113:\n      dup1\n      dup3\n      gt\n      iszero\n      tag_114\n      jumpi\n      0x00\n      dup2\n      0x00\n      swap1\n      sstore\n      pop\n      0x01\n      add\n      jump(tag_113)\n    tag_114:\n      pop\n      swap1\n      jump\t// out\n        /* \"#utility.yul\":7:419   */\n    tag_116:\n        /* \"#utility.yul\":85:90   */\n      0x00\n        /* \"#utility.yul\":110:176   */\n      tag_118\n        /* \"#utility.yul\":126:175   */\n      tag_119\n        /* \"#utility.yul\":168:174   */\n      dup5\n        /* \"#utility.yul\":126:175   */\n      tag_120\n      jump\t// in\n    tag_119:\n        /* \"#utility.yul\":110:176   */\n      tag_121\n      jump\t// in\n    tag_118:\n        /* \"#utility.yul\":101:176   */\n      swap1\n      pop\n        /* \"#utility.yul\":199:205   */\n      dup3\n        /* \"#utility.yul\":192:197   */\n      dup2\n        /* \"#utility.yul\":185:206   */\n      mstore\n        /* \"#utility.yul\":237:241   */\n      0x20\n        /* \"#utility.yul\":230:235   */\n      dup2\n        /* \"#utility.yul\":226:242   */\n      add\n        /* \"#utility.yul\":275:278   */\n      dup5\n        /* \"#utility.yul\":266:272   */\n      dup5\n        /* \"#utility.yul\":261:264   */\n      dup5\n        /* \"#utility.yul\":257:273   */\n      add\n        /* \"#utility.yul\":254:279   */\n      gt\n        /* \"#utility.yul\":251:363   */\n      iszero\n      tag_122\n      jumpi\n        /* \"#utility.yul\":282:361   */\n      tag_123\n      tag_124\n      jump\t// in\n    tag_123:\n        /* \"#utility.yul\":251:363   */\n    tag_122:\n        /* \"#utility.yul\":372:413   */\n      tag_125\n        /* \"#utility.yul\":406:412   */\n      dup5\n        /* \"#utility.yul\":401:404   */\n      dup3\n        /* \"#utility.yul\":396:399   */\n      dup6\n        /* \"#utility.yul\":372:413   */\n      tag_126\n      jump\t// in\n    tag_125:\n        /* \"#utility.yul\":91:419   */\n      pop\n        /* \"#utility.yul\":7:419   */\n      swap4\n      swap3\n      pop\n      pop\n      pop\n      jump\t// out\n        /* \"#utility.yul\":439:779   */\n    tag_127:\n        /* \"#utility.yul\":495:500   */\n      0x00\n        /* \"#utility.yul\":544:547   */\n      dup3\n        /* \"#utility.yul\":537:541   */\n      0x1f\n        /* \"#utility.yul\":529:535   */\n      dup4\n        /* \"#utility.yul\":525:542   */\n      add\n        /* \"#utility.yul\":521:548   */\n      slt\n        /* \"#utility.yul\":511:633   */\n      tag_129\n      jumpi\n        /* \"#utility.yul\":552:631   */\n      tag_130\n      tag_131\n      jump\t// in\n    tag_130:\n        /* \"#utility.yul\":511:633   */\n    tag_129:\n        /* \"#utility.yul\":669:675   */\n      dup2\n        /* \"#utility.yul\":656:676   */\n      calldataload\n        /* \"#utility.yul\":694:773   */\n      tag_132\n        /* \"#utility.yul\":769:772   */\n      dup5\n        /* \"#utility.yul\":761:767   */\n      dup3\n        /* \"#utility.yul\":754:758   */\n      0x20\n        /* \"#utility.yul\":746:752   */\n      dup7\n        /* \"#utility.yul\":742:759   */\n      add\n        /* \"#utility.yul\":694:773   */\n      tag_116\n      jump\t// in\n    tag_132:\n        /* \"#utility.yul\":685:773   */\n      swap2\n      pop\n        /* \"#utility.yul\":501:779   */\n      pop\n        /* \"#utility.yul\":439:779   */\n      swap3\n      swap2\n      pop\n      pop\n      jump\t// out\n        /* \"#utility.yul\":785:924   */\n    tag_133:\n        /* \"#utility.yul\":831:836   */\n      0x00\n        /* \"#utility.yul\":869:875   */\n      dup2\n        /* \"#utility.yul\":856:876   */\n      calldataload\n        /* \"#utility.yul\":847:876   */\n      swap1\n      pop\n        /* \"#utility.yul\":885:918   */\n      tag_135\n        /* \"#utility.yul\":912:917   */\n      dup2\n        /* \"#utility.yul\":885:918   */\n      tag_136\n      jump\t// in\n    tag_135:\n        /* \"#utility.yul\":785:924   */\n      swap3\n      swap2\n      pop\n      pop\n      jump\t// out\n        /* \"#utility.yul\":930:1875   */\n    tag_37:\n        /* \"#utility.yul\":1026:1032   */\n      0x00\n        /* \"#utility.yul\":1034:1040   */\n      dup1\n        /* \"#utility.yul\":1042:1048   */\n      0x00\n        /* \"#utility.yul\":1050:1056   */\n      dup1\n        /* \"#utility.yul\":1099:1102   */\n      0x80\n        /* \"#utility.yul\":1087:1096   */\n      dup6\n        /* \"#utility.yul\":1078:1085   */\n      dup8\n        /* \"#utility.yul\":1074:1097   */\n      sub\n        /* \"#utility.yul\":1070:1103   */\n      slt\n        /* \"#utility.yul\":1067:1187   */\n      iszero\n      tag_138\n      jumpi\n        /* \"#utility.yul\":1106:1185   */\n      tag_139\n      tag_140\n      jump\t// in\n    tag_139:\n        /* \"#utility.yul\":1067:1187   */\n    tag_138:\n        /* \"#utility.yul\":1254:1255   */\n      0x00\n        /* \"#utility.yul\":1243:1252   */\n      dup6\n        /* \"#utility.yul\":1239:1256   */\n      add\n        /* \"#utility.yul\":1226:1257   */\n      calldataload\n        /* \"#utility.yul\":1284:1302   */\n      0xffffffffffffffff\n        /* \"#utility.yul\":1276:1282   */\n      dup2\n        /* \"#utility.yul\":1273:1303   */\n      gt\n        /* \"#utility.yul\":1270:1387   */\n      iszero\n      tag_141\n      jumpi\n        /* \"#utility.yul\":1306:1385   */\n      tag_142\n      tag_143\n      jump\t// in\n    tag_142:\n        /* \"#utility.yul\":1270:1387   */\n    tag_141:\n        /* \"#utility.yul\":1411:1474   */\n      tag_144\n        /* \"#utility.yul\":1466:1473   */\n      dup8\n        /* \"#utility.yul\":1457:1463   */\n      dup3\n        /* \"#utility.yul\":1446:1455   */\n      dup9\n        /* \"#utility.yul\":1442:1464   */\n      add\n        /* \"#utility.yul\":1411:1474   */\n      tag_127\n      jump\t// in\n    tag_144:\n        /* \"#utility.yul\":1401:1474   */\n      swap5\n      pop\n        /* \"#utility.yul\":1197:1484   */\n      pop\n        /* \"#utility.yul\":1523:1525   */\n      0x20\n        /* \"#utility.yul\":1549:1602   */\n      tag_145\n        /* \"#utility.yul\":1594:1601   */\n      dup8\n        /* \"#utility.yul\":1585:1591   */\n      dup3\n        /* \"#utility.yul\":1574:1583   */\n      dup9\n        /* \"#utility.yul\":1570:1592   */\n      add\n        /* \"#utility.yul\":1549:1602   */\n      tag_133\n      jump\t// in\n    tag_145:\n        /* \"#utility.yul\":1539:1602   */\n      swap4\n      pop\n        /* \"#utility.yul\":1494:1612   */\n      pop\n        /* \"#utility.yul\":1651:1653   */\n      0x40\n        /* \"#utility.yul\":1677:1730   */\n      tag_146\n        /* \"#utility.yul\":1722:1729   */\n      dup8\n        /* \"#utility.yul\":1713:1719   */\n      dup3\n        /* \"#utility.yul\":1702:1711   */\n      dup9\n        /* \"#utility.yul\":1698:1720   */\n      add\n        /* \"#utility.yul\":1677:1730   */\n      tag_133\n      jump\t// in\n    tag_146:\n        /* \"#utility.yul\":1667:1730   */\n      swap3\n      pop\n        /* \"#utility.yul\":1622:1740   */\n      pop\n        /* \"#utility.yul\":1779:1781   */\n      0x60\n        /* \"#utility.yul\":1805:1858   */\n      tag_147\n        /* \"#utility.yul\":1850:1857   */\n      dup8\n        /* \"#utility.yul\":1841:1847   */\n      dup3\n        /* \"#utility.yul\":1830:1839   */\n      dup9\n        /* \"#utility.yul\":1826:1848   */\n      add\n        /* \"#utility.yul\":1805:1858   */\n      tag_133\n      jump\t// in\n    tag_147:\n        /* \"#utility.yul\":1795:1858   */\n      swap2\n      pop\n        /* \"#utility.yul\":1750:1868   */\n      pop\n        /* \"#utility.yul\":930:1875   */\n      swap3\n      swap6\n      swap2\n      swap5\n      pop\n      swap3\n      pop\n      jump\t// out\n        /* \"#utility.yul\":1881:2210   */\n    tag_25:\n        /* \"#utility.yul\":1940:1946   */\n      0x00\n        /* \"#utility.yul\":1989:1991   */\n      0x20\n        /* \"#utility.yul\":1977:1986   */\n      dup3\n        /* \"#utility.yul\":1968:1975   */\n      dup5\n        /* \"#utility.yul\":1964:1987   */\n      sub\n        /* \"#utility.yul\":1960:1992   */\n      slt\n        /* \"#utility.yul\":1957:2076   */\n      iszero\n      tag_149\n      jumpi\n        /* \"#utility.yul\":1995:2074   */\n      tag_150\n      tag_140\n      jump\t// in\n    tag_150:\n        /* \"#utility.yul\":1957:2076   */\n    tag_149:\n        /* \"#utility.yul\":2115:2116   */\n      0x00\n        /* \"#utility.yul\":2140:2193   */\n      tag_151\n        /* \"#utility.yul\":2185:2192   */\n      dup5\n        /* \"#utility.yul\":2176:2182   */\n      dup3\n        /* \"#utility.yul\":2165:2174   */\n      dup6\n        /* \"#utility.yul\":2161:2183   */\n      add\n        /* \"#utility.yul\":2140:2193   */\n      tag_133\n      jump\t// in\n    tag_151:\n        /* \"#utility.yul\":2130:2193   */\n      swap2\n      pop\n        /* \"#utility.yul\":2086:2203   */\n      pop\n        /* \"#utility.yul\":1881:2210   */\n      swap3\n      swap2\n      pop\n      pop\n      jump\t// out\n        /* \"#utility.yul\":2216:2870   */\n    tag_14:\n        /* \"#utility.yul\":2294:2300   */\n      0x00\n        /* \"#utility.yul\":2302:2308   */\n      dup1\n        /* \"#utility.yul\":2351:2353   */\n      0x40\n        /* \"#utility.yul\":2339:2348   */\n      dup4\n        /* \"#utility.yul\":2330:2337   */\n      dup6\n        /* \"#utility.yul\":2326:2349   */\n      sub\n        /* \"#utility.yul\":2322:2354   */\n      slt\n        /* \"#utility.yul\":2319:2438   */\n      iszero\n      tag_153\n      jumpi\n        /* \"#utility.yul\":2357:2436   */\n      tag_154\n      tag_140\n      jump\t// in\n    tag_154:\n        /* \"#utility.yul\":2319:2438   */\n    tag_153:\n        /* \"#utility.yul\":2477:2478   */\n      0x00\n        /* \"#utility.yul\":2502:2555   */\n      tag_155\n        /* \"#utility.yul\":2547:2554   */\n      dup6\n        /* \"#utility.yul\":2538:2544   */\n      dup3\n        /* \"#utility.yul\":2527:2536   */\n      dup7\n        /* \"#utility.yul\":2523:2545   */\n      add\n        /* \"#utility.yul\":2502:2555   */\n      tag_133\n      jump\t// in\n    tag_155:\n        /* \"#utility.yul\":2492:2555   */\n      swap3\n      pop\n        /* \"#utility.yul\":2448:2565   */\n      pop\n        /* \"#utility.yul\":2632:2634   */\n      0x20\n        /* \"#utility.yul\":2621:2630   */\n      dup4\n        /* \"#utility.yul\":2617:2635   */\n      add\n        /* \"#utility.yul\":2604:2636   */\n      calldataload\n        /* \"#utility.yul\":2663:2681   */\n      0xffffffffffffffff\n        /* \"#utility.yul\":2655:2661   */\n      dup2\n        /* \"#utility.yul\":2652:2682   */\n      gt\n        /* \"#utility.yul\":2649:2766   */\n      iszero\n      tag_156\n      jumpi\n        /* \"#utility.yul\":2685:2764   */\n      tag_157\n      tag_143\n      jump\t// in\n    tag_157:\n        /* \"#utility.yul\":2649:2766   */\n    tag_156:\n        /* \"#utility.yul\":2790:2853   */\n      tag_158\n        /* \"#utility.yul\":2845:2852   */\n      dup6\n        /* \"#utility.yul\":2836:2842   */\n      dup3\n        /* \"#utility.yul\":2825:2834   */\n      dup7\n        /* \"#utility.yul\":2821:2843   */\n      add\n        /* \"#utility.yul\":2790:2853   */\n      tag_127\n      jump\t// in\n    tag_158:\n        /* \"#utility.yul\":2780:2853   */\n      swap2\n      pop\n        /* \"#utility.yul\":2575:2863   */\n      pop\n        /* \"#utility.yul\":2216:2870   */\n      swap3\n      pop\n      swap3\n      swap1\n      pop\n      jump\t// out\n        /* \"#utility.yul\":2876:3350   */\n    tag_18:\n        /* \"#utility.yul\":2944:2950   */\n      0x00\n        /* \"#utility.yul\":2952:2958   */\n      dup1\n        /* \"#utility.yul\":3001:3003   */\n      0x40\n        /* \"#utility.yul\":2989:2998   */\n      dup4\n        /* \"#utility.yul\":2980:2987   */\n      dup6\n        /* \"#utility.yul\":2976:2999   */\n      sub\n        /* \"#utility.yul\":2972:3004   */\n      slt\n        /* \"#utility.yul\":2969:3088   */\n      iszero\n      tag_160\n      jumpi\n        /* \"#utility.yul\":3007:3086   */\n      tag_161\n      tag_140\n      jump\t// in\n    tag_161:\n        /* \"#utility.yul\":2969:3088   */\n    tag_160:\n        /* \"#utility.yul\":3127:3128   */\n      0x00\n        /* \"#utility.yul\":3152:3205   */\n      tag_162\n        /* \"#utility.yul\":3197:3204   */\n      dup6\n        /* \"#utility.yul\":3188:3194   */\n      dup3\n        /* \"#utility.yul\":3177:3186   */\n      dup7\n        /* \"#utility.yul\":3173:3195   */\n      add\n        /* \"#utility.yul\":3152:3205   */\n      tag_133\n      jump\t// in\n    tag_162:\n        /* \"#utility.yul\":3142:3205   */\n      swap3\n      pop\n        /* \"#utility.yul\":3098:3215   */\n      pop\n        /* \"#utility.yul\":3254:3256   */\n      0x20\n        /* \"#utility.yul\":3280:3333   */\n      tag_163\n        /* \"#utility.yul\":3325:3332   */\n      dup6\n        /* \"#utility.yul\":3316:3322   */\n      dup3\n        /* \"#utility.yul\":3305:3314   */\n      dup7\n        /* \"#utility.yul\":3301:3323   */\n      add\n        /* \"#utility.yul\":3280:3333   */\n      tag_133\n      jump\t// in\n    tag_163:\n        /* \"#utility.yul\":3270:3333   */\n      swap2\n      pop\n        /* \"#utility.yul\":3225:3343   */\n      pop\n        /* \"#utility.yul\":2876:3350   */\n      swap3\n      pop\n      swap3\n      swap1\n      pop\n      jump\t// out\n        /* \"#utility.yul\":3356:3592   */\n    tag_164:\n        /* \"#utility.yul\":3465:3475   */\n      0x00\n        /* \"#utility.yul\":3500:3586   */\n      tag_166\n        /* \"#utility.yul\":3582:3585   */\n      dup4\n        /* \"#utility.yul\":3574:3580   */\n      dup4\n        /* \"#utility.yul\":3500:3586   */\n      tag_167\n      jump\t// in\n    tag_166:\n        /* \"#utility.yul\":3486:3586   */\n      swap1\n      pop\n        /* \"#utility.yul\":3356:3592   */\n      swap3\n      swap2\n      pop\n      pop\n      jump\t// out\n        /* \"#utility.yul\":3654:4725   */\n    tag_168:\n        /* \"#utility.yul\":3813:3816   */\n      0x00\n        /* \"#utility.yul\":3842:3916   */\n      tag_170\n        /* \"#utility.yul\":3910:3915   */\n      dup3\n        /* \"#utility.yul\":3842:3916   */\n      tag_171\n      jump\t// in\n    tag_170:\n        /* \"#utility.yul\":3932:4038   */\n      tag_172\n        /* \"#utility.yul\":4031:4037   */\n      dup2\n        /* \"#utility.yul\":4026:4029   */\n      dup6\n        /* \"#utility.yul\":3932:4038   */\n      tag_173\n      jump\t// in\n    tag_172:\n        /* \"#utility.yul\":3925:4038   */\n      swap4\n      pop\n        /* \"#utility.yul\":4064:4067   */\n      dup4\n        /* \"#utility.yul\":4109:4113   */\n      0x20\n        /* \"#utility.yul\":4101:4107   */\n      dup3\n        /* \"#utility.yul\":4097:4114   */\n      mul\n        /* \"#utility.yul\":4092:4095   */\n      dup6\n        /* \"#utility.yul\":4088:4115   */\n      add\n        /* \"#utility.yul\":4139:4215   */\n      tag_174\n        /* \"#utility.yul\":4209:4214   */\n      dup6\n        /* \"#utility.yul\":4139:4215   */\n      tag_175\n      jump\t// in\n    tag_174:\n        /* \"#utility.yul\":4238:4245   */\n      dup1\n        /* \"#utility.yul\":4269:4270   */\n      0x00\n        /* \"#utility.yul\":4254:4680   */\n    tag_176:\n        /* \"#utility.yul\":4279:4285   */\n      dup6\n        /* \"#utility.yul\":4276:4277   */\n      dup2\n        /* \"#utility.yul\":4273:4286   */\n      lt\n        /* \"#utility.yul\":4254:4680   */\n      iszero\n      tag_178\n      jumpi\n        /* \"#utility.yul\":4350:4359   */\n      dup5\n        /* \"#utility.yul\":4344:4348   */\n      dup5\n        /* \"#utility.yul\":4340:4360   */\n      sub\n        /* \"#utility.yul\":4335:4338   */\n      dup10\n        /* \"#utility.yul\":4328:4361   */\n      mstore\n        /* \"#utility.yul\":4401:4407   */\n      dup2\n        /* \"#utility.yul\":4395:4408   */\n      mload\n        /* \"#utility.yul\":4429:4533   */\n      tag_179\n        /* \"#utility.yul\":4528:4532   */\n      dup6\n        /* \"#utility.yul\":4513:4526   */\n      dup3\n        /* \"#utility.yul\":4429:4533   */\n      tag_164\n      jump\t// in\n    tag_179:\n        /* \"#utility.yul\":4421:4533   */\n      swap5\n      pop\n        /* \"#utility.yul\":4556:4636   */\n      tag_180\n        /* \"#utility.yul\":4629:4635   */\n      dup4\n        /* \"#utility.yul\":4556:4636   */\n      tag_181\n      jump\t// in\n    tag_180:\n        /* \"#utility.yul\":4546:4636   */\n      swap3\n      pop\n        /* \"#utility.yul\":4665:4669   */\n      0x20\n        /* \"#utility.yul\":4660:4663   */\n      dup11\n        /* \"#utility.yul\":4656:4670   */\n      add\n        /* \"#utility.yul\":4649:4670   */\n      swap10\n      pop\n        /* \"#utility.yul\":4314:4680   */\n      pop\n        /* \"#utility.yul\":4301:4302   */\n      0x01\n        /* \"#utility.yul\":4298:4299   */\n      dup2\n        /* \"#utility.yul\":4294:4303   */\n      add\n        /* \"#utility.yul\":4289:4303   */\n      swap1\n      pop\n        /* \"#utility.yul\":4254:4680   */\n      jump(tag_176)\n    tag_178:\n        /* \"#utility.yul\":4258:4272   */\n      pop\n        /* \"#utility.yul\":4696:4700   */\n      dup3\n        /* \"#utility.yul\":4689:4700   */\n      swap8\n      pop\n        /* \"#utility.yul\":4716:4719   */\n      dup8\n        /* \"#utility.yul\":4709:4719   */\n      swap6\n      pop\n        /* \"#utility.yul\":3818:4725   */\n      pop\n      pop\n      pop\n      pop\n      pop\n        /* \"#utility.yul\":3654:4725   */\n      swap3\n      swap2\n      pop\n      pop\n      jump\t// out\n        /* \"#utility.yul\":4731:5075   */\n    tag_182:\n        /* \"#utility.yul\":4809:4812   */\n      0x00\n        /* \"#utility.yul\":4837:4876   */\n      tag_184\n        /* \"#utility.yul\":4870:4875   */\n      dup3\n        /* \"#utility.yul\":4837:4876   */\n      tag_185\n      jump\t// in\n    tag_184:\n        /* \"#utility.yul\":4892:4953   */\n      tag_186\n        /* \"#utility.yul\":4946:4952   */\n      dup2\n        /* \"#utility.yul\":4941:4944   */\n      dup6\n        /* \"#utility.yul\":4892:4953   */\n      tag_187\n      jump\t// in\n    tag_186:\n        /* \"#utility.yul\":4885:4953   */\n      swap4\n      pop\n        /* \"#utility.yul\":4962:5014   */\n      tag_188\n        /* \"#utility.yul\":5007:5013   */\n      dup2\n        /* \"#utility.yul\":5002:5005   */\n      dup6\n        /* \"#utility.yul\":4995:4999   */\n      0x20\n        /* \"#utility.yul\":4988:4993   */\n      dup7\n        /* \"#utility.yul\":4984:5000   */\n      add\n        /* \"#utility.yul\":4962:5014   */\n      tag_189\n      jump\t// in\n    tag_188:\n        /* \"#utility.yul\":5039:5068   */\n      tag_190\n        /* \"#utility.yul\":5061:5067   */\n      dup2\n        /* \"#utility.yul\":5039:5068   */\n      tag_191\n      jump\t// in\n    tag_190:\n        /* \"#utility.yul\":5034:5037   */\n      dup5\n        /* \"#utility.yul\":5030:5069   */\n      add\n        /* \"#utility.yul\":5023:5069   */\n      swap2\n      pop\n        /* \"#utility.yul\":4813:5075   */\n      pop\n        /* \"#utility.yul\":4731:5075   */\n      swap3\n      swap2\n      pop\n      pop\n      jump\t// out\n        /* \"#utility.yul\":5081:5445   */\n    tag_192:\n        /* \"#utility.yul\":5169:5172   */\n      0x00\n        /* \"#utility.yul\":5197:5236   */\n      tag_194\n        /* \"#utility.yul\":5230:5235   */\n      dup3\n        /* \"#utility.yul\":5197:5236   */\n      tag_185\n      jump\t// in\n    tag_194:\n        /* \"#utility.yul\":5252:5323   */\n      tag_195\n        /* \"#utility.yul\":5316:5322   */\n      dup2\n        /* \"#utility.yul\":5311:5314   */\n      dup6\n        /* \"#utility.yul\":5252:5323   */\n      tag_196\n      jump\t// in\n    tag_195:\n        /* \"#utility.yul\":5245:5323   */\n      swap4\n      pop\n        /* \"#utility.yul\":5332:5384   */\n      tag_197\n        /* \"#utility.yul\":5377:5383   */\n      dup2\n        /* \"#utility.yul\":5372:5375   */\n      dup6\n        /* \"#utility.yul\":5365:5369   */\n      0x20\n        /* \"#utility.yul\":5358:5363   */\n      dup7\n        /* \"#utility.yul\":5354:5370   */\n      add\n        /* \"#utility.yul\":5332:5384   */\n      tag_189\n      jump\t// in\n    tag_197:\n        /* \"#utility.yul\":5409:5438   */\n      tag_198\n        /* \"#utility.yul\":5431:5437   */\n      dup2\n        /* \"#utility.yul\":5409:5438   */\n      tag_191\n      jump\t// in\n    tag_198:\n        /* \"#utility.yul\":5404:5407   */\n      dup5\n        /* \"#utility.yul\":5400:5439   */\n      add\n        /* \"#utility.yul\":5393:5439   */\n      swap2\n      pop\n        /* \"#utility.yul\":5173:5445   */\n      pop\n        /* \"#utility.yul\":5081:5445   */\n      swap3\n      swap2\n      pop\n      pop\n      jump\t// out\n        /* \"#utility.yul\":5503:6439   */\n    tag_167:\n        /* \"#utility.yul\":5602:5605   */\n      0x00\n        /* \"#utility.yul\":5638:5642   */\n      0x80\n        /* \"#utility.yul\":5633:5636   */\n      dup4\n        /* \"#utility.yul\":5629:5643   */\n      add\n        /* \"#utility.yul\":5727:5731   */\n      0x00\n        /* \"#utility.yul\":5720:5725   */\n      dup4\n        /* \"#utility.yul\":5716:5732   */\n      add\n        /* \"#utility.yul\":5710:5733   */\n      mload\n        /* \"#utility.yul\":5780:5783   */\n      dup5\n        /* \"#utility.yul\":5774:5778   */\n      dup3\n        /* \"#utility.yul\":5770:5784   */\n      sub\n        /* \"#utility.yul\":5763:5767   */\n      0x00\n        /* \"#utility.yul\":5758:5761   */\n      dup7\n        /* \"#utility.yul\":5754:5768   */\n      add\n        /* \"#utility.yul\":5747:5785   */\n      mstore\n        /* \"#utility.yul\":5806:5879   */\n      tag_200\n        /* \"#utility.yul\":5874:5878   */\n      dup3\n        /* \"#utility.yul\":5860:5872   */\n      dup3\n        /* \"#utility.yul\":5806:5879   */\n      tag_182\n      jump\t// in\n    tag_200:\n        /* \"#utility.yul\":5798:5879   */\n      swap2\n      pop\n        /* \"#utility.yul\":5653:5890   */\n      pop\n        /* \"#utility.yul\":5971:5975   */\n      0x20\n        /* \"#utility.yul\":5964:5969   */\n      dup4\n        /* \"#utility.yul\":5960:5976   */\n      add\n        /* \"#utility.yul\":5954:5977   */\n      mload\n        /* \"#utility.yul\":5990:6053   */\n      tag_201\n        /* \"#utility.yul\":6047:6051   */\n      0x20\n        /* \"#utility.yul\":6042:6045   */\n      dup7\n        /* \"#utility.yul\":6038:6052   */\n      add\n        /* \"#utility.yul\":6024:6036   */\n      dup3\n        /* \"#utility.yul\":5990:6053   */\n      tag_202\n      jump\t// in\n    tag_201:\n        /* \"#utility.yul\":5900:6063   */\n      pop\n        /* \"#utility.yul\":6146:6150   */\n      0x40\n        /* \"#utility.yul\":6139:6144   */\n      dup4\n        /* \"#utility.yul\":6135:6151   */\n      add\n        /* \"#utility.yul\":6129:6152   */\n      mload\n        /* \"#utility.yul\":6165:6228   */\n      tag_203\n        /* \"#utility.yul\":6222:6226   */\n      0x40\n        /* \"#utility.yul\":6217:6220   */\n      dup7\n        /* \"#utility.yul\":6213:6227   */\n      add\n        /* \"#utility.yul\":6199:6211   */\n      dup3\n        /* \"#utility.yul\":6165:6228   */\n      tag_202\n      jump\t// in\n    tag_203:\n        /* \"#utility.yul\":6073:6238   */\n      pop\n        /* \"#utility.yul\":6320:6324   */\n      0x60\n        /* \"#utility.yul\":6313:6318   */\n      dup4\n        /* \"#utility.yul\":6309:6325   */\n      add\n        /* \"#utility.yul\":6303:6326   */\n      mload\n        /* \"#utility.yul\":6339:6402   */\n      tag_204\n        /* \"#utility.yul\":6396:6400   */\n      0x60\n        /* \"#utility.yul\":6391:6394   */\n      dup7\n        /* \"#utility.yul\":6387:6401   */\n      add\n        /* \"#utility.yul\":6373:6385   */\n      dup3\n        /* \"#utility.yul\":6339:6402   */\n      tag_202\n      jump\t// in\n    tag_204:\n        /* \"#utility.yul\":6248:6412   */\n      pop\n        /* \"#utility.yul\":6429:6433   */\n      dup1\n        /* \"#utility.yul\":6422:6433   */\n      swap2\n      pop\n        /* \"#utility.yul\":5607:6439   */\n      pop\n        /* \"#utility.yul\":5503:6439   */\n      swap3\n      swap2\n      pop\n      pop\n      jump\t// out\n        /* \"#utility.yul\":6445:6553   */\n    tag_202:\n        /* \"#utility.yul\":6522:6546   */\n      tag_206\n        /* \"#utility.yul\":6540:6545   */\n      dup2\n        /* \"#utility.yul\":6522:6546   */\n      tag_207\n      jump\t// in\n    tag_206:\n        /* \"#utility.yul\":6517:6520   */\n      dup3\n        /* \"#utility.yul\":6510:6547   */\n      mstore\n        /* \"#utility.yul\":6445:6553   */\n      pop\n      pop\n      jump\t// out\n        /* \"#utility.yul\":6559:6677   */\n    tag_208:\n        /* \"#utility.yul\":6646:6670   */\n      tag_210\n        /* \"#utility.yul\":6664:6669   */\n      dup2\n        /* \"#utility.yul\":6646:6670   */\n      tag_207\n      jump\t// in\n    tag_210:\n        /* \"#utility.yul\":6641:6644   */\n      dup3\n        /* \"#utility.yul\":6634:6671   */\n      mstore\n        /* \"#utility.yul\":6559:6677   */\n      pop\n      pop\n      jump\t// out\n        /* \"#utility.yul\":6683:7136   */\n    tag_42:\n        /* \"#utility.yul\":6866:6870   */\n      0x00\n        /* \"#utility.yul\":6904:6906   */\n      0x20\n        /* \"#utility.yul\":6893:6902   */\n      dup3\n        /* \"#utility.yul\":6889:6907   */\n      add\n        /* \"#utility.yul\":6881:6907   */\n      swap1\n      pop\n        /* \"#utility.yul\":6953:6962   */\n      dup2\n        /* \"#utility.yul\":6947:6951   */\n      dup2\n        /* \"#utility.yul\":6943:6963   */\n      sub\n        /* \"#utility.yul\":6939:6940   */\n      0x00\n        /* \"#utility.yul\":6928:6937   */\n      dup4\n        /* \"#utility.yul\":6924:6941   */\n      add\n        /* \"#utility.yul\":6917:6964   */\n      mstore\n        /* \"#utility.yul\":6981:7129   */\n      tag_212\n        /* \"#utility.yul\":7124:7128   */\n      dup2\n        /* \"#utility.yul\":7115:7121   */\n      dup5\n        /* \"#utility.yul\":6981:7129   */\n      tag_168\n      jump\t// in\n    tag_212:\n        /* \"#utility.yul\":6973:7129   */\n      swap1\n      pop\n        /* \"#utility.yul\":6683:7136   */\n      swap3\n      swap2\n      pop\n      pop\n      jump\t// out\n        /* \"#utility.yul\":7142:7786   */\n    tag_28:\n        /* \"#utility.yul\":7339:7343   */\n      0x00\n        /* \"#utility.yul\":7377:7380   */\n      0x80\n        /* \"#utility.yul\":7366:7375   */\n      dup3\n        /* \"#utility.yul\":7362:7381   */\n      add\n        /* \"#utility.yul\":7354:7381   */\n      swap1\n      pop\n        /* \"#utility.yul\":7427:7436   */\n      dup2\n        /* \"#utility.yul\":7421:7425   */\n      dup2\n        /* \"#utility.yul\":7417:7437   */\n      sub\n        /* \"#utility.yul\":7413:7414   */\n      0x00\n        /* \"#utility.yul\":7402:7411   */\n      dup4\n        /* \"#utility.yul\":7398:7415   */\n      add\n        /* \"#utility.yul\":7391:7438   */\n      mstore\n        /* \"#utility.yul\":7455:7533   */\n      tag_214\n        /* \"#utility.yul\":7528:7532   */\n      dup2\n        /* \"#utility.yul\":7519:7525   */\n      dup8\n        /* \"#utility.yul\":7455:7533   */\n      tag_192\n      jump\t// in\n    tag_214:\n        /* \"#utility.yul\":7447:7533   */\n      swap1\n      pop\n        /* \"#utility.yul\":7543:7615   */\n      tag_215\n        /* \"#utility.yul\":7611:7613   */\n      0x20\n        /* \"#utility.yul\":7600:7609   */\n      dup4\n        /* \"#utility.yul\":7596:7614   */\n      add\n        /* \"#utility.yul\":7587:7593   */\n      dup7\n        /* \"#utility.yul\":7543:7615   */\n      tag_208\n      jump\t// in\n    tag_215:\n        /* \"#utility.yul\":7625:7697   */\n      tag_216\n        /* \"#utility.yul\":7693:7695   */\n      0x40\n        /* \"#utility.yul\":7682:7691   */\n      dup4\n        /* \"#utility.yul\":7678:7696   */\n      add\n        /* \"#utility.yul\":7669:7675   */\n      dup6\n        /* \"#utility.yul\":7625:7697   */\n      tag_208\n      jump\t// in\n    tag_216:\n        /* \"#utility.yul\":7707:7779   */\n      tag_217\n        /* \"#utility.yul\":7775:7777   */\n      0x60\n        /* \"#utility.yul\":7764:7773   */\n      dup4\n        /* \"#utility.yul\":7760:7778   */\n      add\n        /* \"#utility.yul\":7751:7757   */\n      dup5\n        /* \"#utility.yul\":7707:7779   */\n      tag_208\n      jump\t// in\n    tag_217:\n        /* \"#utility.yul\":7142:7786   */\n      swap6\n      swap5\n      pop\n      pop\n      pop\n      pop\n      pop\n      jump\t// out\n        /* \"#utility.yul\":7792:7921   */\n    tag_121:\n        /* \"#utility.yul\":7826:7832   */\n      0x00\n        /* \"#utility.yul\":7853:7873   */\n      tag_219\n      tag_220\n      jump\t// in\n    tag_219:\n        /* \"#utility.yul\":7843:7873   */\n      swap1\n      pop\n        /* \"#utility.yul\":7882:7915   */\n      tag_221\n        /* \"#utility.yul\":7910:7914   */\n      dup3\n        /* \"#utility.yul\":7902:7908   */\n      dup3\n        /* \"#utility.yul\":7882:7915   */\n      tag_222\n      jump\t// in\n    tag_221:\n        /* \"#utility.yul\":7792:7921   */\n      swap2\n      swap1\n      pop\n      jump\t// out\n        /* \"#utility.yul\":7927:8002   */\n    tag_220:\n        /* \"#utility.yul\":7960:7966   */\n      0x00\n        /* \"#utility.yul\":7993:7995   */\n      0x40\n        /* \"#utility.yul\":7987:7996   */\n      mload\n        /* \"#utility.yul\":7977:7996   */\n      swap1\n      pop\n        /* \"#utility.yul\":7927:8002   */\n      swap1\n      jump\t// out\n        /* \"#utility.yul\":8008:8316   */\n    tag_120:\n        /* \"#utility.yul\":8070:8074   */\n      0x00\n        /* \"#utility.yul\":8160:8178   */\n      0xffffffffffffffff\n        /* \"#utility.yul\":8152:8158   */\n      dup3\n        /* \"#utility.yul\":8149:8179   */\n      gt\n        /* \"#utility.yul\":8146:8202   */\n      iszero\n      tag_225\n      jumpi\n        /* \"#utility.yul\":8182:8200   */\n      tag_226\n      tag_227\n      jump\t// in\n    tag_226:\n        /* \"#utility.yul\":8146:8202   */\n    tag_225:\n        /* \"#utility.yul\":8220:8249   */\n      tag_228\n        /* \"#utility.yul\":8242:8248   */\n      dup3\n        /* \"#utility.yul\":8220:8249   */\n      tag_191\n      jump\t// in\n    tag_228:\n        /* \"#utility.yul\":8212:8249   */\n      swap1\n      pop\n        /* \"#utility.yul\":8304:8308   */\n      0x20\n        /* \"#utility.yul\":8298:8302   */\n      dup2\n        /* \"#utility.yul\":8294:8309   */\n      add\n        /* \"#utility.yul\":8286:8309   */\n      swap1\n      pop\n        /* \"#utility.yul\":8008:8316   */\n      swap2\n      swap1\n      pop\n      jump\t// out\n        /* \"#utility.yul\":8322:8474   */\n    tag_175:\n        /* \"#utility.yul\":8409:8413   */\n      0x00\n        /* \"#utility.yul\":8432:8435   */\n      dup2\n        /* \"#utility.yul\":8424:8435   */\n      swap1\n      pop\n        /* \"#utility.yul\":8462:8466   */\n      0x20\n        /* \"#utility.yul\":8457:8460   */\n      dup3\n        /* \"#utility.yul\":8453:8467   */\n      add\n        /* \"#utility.yul\":8445:8467   */\n      swap1\n      pop\n        /* \"#utility.yul\":8322:8474   */\n      swap2\n      swap1\n      pop\n      jump\t// out\n        /* \"#utility.yul\":8480:8614   */\n    tag_171:\n        /* \"#utility.yul\":8567:8573   */\n      0x00\n        /* \"#utility.yul\":8601:8606   */\n      dup2\n        /* \"#utility.yul\":8595:8607   */\n      mload\n        /* \"#utility.yul\":8585:8607   */\n      swap1\n      pop\n        /* \"#utility.yul\":8480:8614   */\n      swap2\n      swap1\n      pop\n      jump\t// out\n        /* \"#utility.yul\":8620:8719   */\n    tag_185:\n        /* \"#utility.yul\":8672:8678   */\n      0x00\n        /* \"#utility.yul\":8706:8711   */\n      dup2\n        /* \"#utility.yul\":8700:8712   */\n      mload\n        /* \"#utility.yul\":8690:8712   */\n      swap1\n      pop\n        /* \"#utility.yul\":8620:8719   */\n      swap2\n      swap1\n      pop\n      jump\t// out\n        /* \"#utility.yul\":8725:8858   */\n    tag_181:\n        /* \"#utility.yul\":8815:8819   */\n      0x00\n        /* \"#utility.yul\":8847:8851   */\n      0x20\n        /* \"#utility.yul\":8842:8845   */\n      dup3\n        /* \"#utility.yul\":8838:8852   */\n      add\n        /* \"#utility.yul\":8830:8852   */\n      swap1\n      pop\n        /* \"#utility.yul\":8725:8858   */\n      swap2\n      swap1\n      pop\n      jump\t// out\n        /* \"#utility.yul\":8864:9068   */\n    tag_173:\n        /* \"#utility.yul\":8983:8994   */\n      0x00\n        /* \"#utility.yul\":9017:9023   */\n      dup3\n        /* \"#utility.yul\":9012:9015   */\n      dup3\n        /* \"#utility.yul\":9005:9024   */\n      mstore\n        /* \"#utility.yul\":9057:9061   */\n      0x20\n        /* \"#utility.yul\":9052:9055   */\n      dup3\n        /* \"#utility.yul\":9048:9062   */\n      add\n        /* \"#utility.yul\":9033:9062   */\n      swap1\n      pop\n        /* \"#utility.yul\":8864:9068   */\n      swap3\n      swap2\n      pop\n      pop\n      jump\t// out\n        /* \"#utility.yul\":9074:9233   */\n    tag_187:\n        /* \"#utility.yul\":9148:9159   */\n      0x00\n        /* \"#utility.yul\":9182:9188   */\n      dup3\n        /* \"#utility.yul\":9177:9180   */\n      dup3\n        /* \"#utility.yul\":9170:9189   */\n      mstore\n        /* \"#utility.yul\":9222:9226   */\n      0x20\n        /* \"#utility.yul\":9217:9220   */\n      dup3\n        /* \"#utility.yul\":9213:9227   */\n      add\n        /* \"#utility.yul\":9198:9227   */\n      swap1\n      pop\n        /* \"#utility.yul\":9074:9233   */\n      swap3\n      swap2\n      pop\n      pop\n      jump\t// out\n        /* \"#utility.yul\":9239:9408   */\n    tag_196:\n        /* \"#utility.yul\":9323:9334   */\n      0x00\n        /* \"#utility.yul\":9357:9363   */\n      dup3\n        /* \"#utility.yul\":9352:9355   */\n      dup3\n        /* \"#utility.yul\":9345:9364   */\n      mstore\n        /* \"#utility.yul\":9397:9401   */\n      0x20\n        /* \"#utility.yul\":9392:9395   */\n      dup3\n        /* \"#utility.yul\":9388:9402   */\n      add\n        /* \"#utility.yul\":9373:9402   */\n      swap1\n      pop\n        /* \"#utility.yul\":9239:9408   */\n      swap3\n      swap2\n      pop\n      pop\n      jump\t// out\n        /* \"#utility.yul\":9414:9605   */\n    tag_70:\n        /* \"#utility.yul\":9454:9458   */\n      0x00\n        /* \"#utility.yul\":9474:9494   */\n      tag_237\n        /* \"#utility.yul\":9492:9493   */\n      dup3\n        /* \"#utility.yul\":9474:9494   */\n      tag_207\n      jump\t// in\n    tag_237:\n        /* \"#utility.yul\":9469:9494   */\n      swap2\n      pop\n        /* \"#utility.yul\":9508:9528   */\n      tag_238\n        /* \"#utility.yul\":9526:9527   */\n      dup4\n        /* \"#utility.yul\":9508:9528   */\n      tag_207\n      jump\t// in\n    tag_238:\n        /* \"#utility.yul\":9503:9528   */\n      swap3\n      pop\n        /* \"#utility.yul\":9547:9548   */\n      dup3\n        /* \"#utility.yul\":9544:9545   */\n      dup3\n        /* \"#utility.yul\":9541:9549   */\n      lt\n        /* \"#utility.yul\":9538:9572   */\n      iszero\n      tag_239\n      jumpi\n        /* \"#utility.yul\":9552:9570   */\n      tag_240\n      tag_241\n      jump\t// in\n    tag_240:\n        /* \"#utility.yul\":9538:9572   */\n    tag_239:\n        /* \"#utility.yul\":9597:9598   */\n      dup3\n        /* \"#utility.yul\":9594:9595   */\n      dup3\n        /* \"#utility.yul\":9590:9599   */\n      sub\n        /* \"#utility.yul\":9582:9599   */\n      swap1\n      pop\n        /* \"#utility.yul\":9414:9605   */\n      swap3\n      swap2\n      pop\n      pop\n      jump\t// out\n        /* \"#utility.yul\":9611:9688   */\n    tag_207:\n        /* \"#utility.yul\":9648:9655   */\n      0x00\n        /* \"#utility.yul\":9677:9682   */\n      dup2\n        /* \"#utility.yul\":9666:9682   */\n      swap1\n      pop\n        /* \"#utility.yul\":9611:9688   */\n      swap2\n      swap1\n      pop\n      jump\t// out\n        /* \"#utility.yul\":9694:9848   */\n    tag_126:\n        /* \"#utility.yul\":9778:9784   */\n      dup3\n        /* \"#utility.yul\":9773:9776   */\n      dup2\n        /* \"#utility.yul\":9768:9771   */\n      dup4\n        /* \"#utility.yul\":9755:9785   */\n      calldatacopy\n        /* \"#utility.yul\":9840:9841   */\n      0x00\n        /* \"#utility.yul\":9831:9837   */\n      dup4\n        /* \"#utility.yul\":9826:9829   */\n      dup4\n        /* \"#utility.yul\":9822:9838   */\n      add\n        /* \"#utility.yul\":9815:9842   */\n      mstore\n        /* \"#utility.yul\":9694:9848   */\n      pop\n      pop\n      pop\n      jump\t// out\n        /* \"#utility.yul\":9854:10161   */\n    tag_189:\n        /* \"#utility.yul\":9922:9923   */\n      0x00\n        /* \"#utility.yul\":9932:10045   */\n    tag_245:\n        /* \"#utility.yul\":9946:9952   */\n      dup4\n        /* \"#utility.yul\":9943:9944   */\n      dup2\n        /* \"#utility.yul\":9940:9953   */\n      lt\n        /* \"#utility.yul\":9932:10045   */\n      iszero\n      tag_247\n      jumpi\n        /* \"#utility.yul\":10031:10032   */\n      dup1\n        /* \"#utility.yul\":10026:10029   */\n      dup3\n        /* \"#utility.yul\":10022:10033   */\n      add\n        /* \"#utility.yul\":10016:10034   */\n      mload\n        /* \"#utility.yul\":10012:10013   */\n      dup2\n        /* \"#utility.yul\":10007:10010   */\n      dup5\n        /* \"#utility.yul\":10003:10014   */\n      add\n        /* \"#utility.yul\":9996:10035   */\n      mstore\n        /* \"#utility.yul\":9968:9970   */\n      0x20\n        /* \"#utility.yul\":9965:9966   */\n      dup2\n        /* \"#utility.yul\":9961:9971   */\n      add\n        /* \"#utility.yul\":9956:9971   */\n      swap1\n      pop\n        /* \"#utility.yul\":9932:10045   */\n      jump(tag_245)\n    tag_247:\n        /* \"#utility.yul\":10063:10069   */\n      dup4\n        /* \"#utility.yul\":10060:10061   */\n      dup2\n        /* \"#utility.yul\":10057:10070   */\n      gt\n        /* \"#utility.yul\":10054:10155   */\n      iszero\n      tag_248\n      jumpi\n        /* \"#utility.yul\":10143:10144   */\n      0x00\n        /* \"#utility.yul\":10134:10140   */\n      dup5\n        /* \"#utility.yul\":10129:10132   */\n      dup5\n        /* \"#utility.yul\":10125:10141   */\n      add\n        /* \"#utility.yul\":10118:10145   */\n      mstore\n        /* \"#utility.yul\":10054:10155   */\n    tag_248:\n        /* \"#utility.yul\":9903:10161   */\n      pop\n        /* \"#utility.yul\":9854:10161   */\n      pop\n      pop\n      pop\n      jump\t// out\n        /* \"#utility.yul\":10167:10487   */\n    tag_63:\n        /* \"#utility.yul\":10211:10217   */\n      0x00\n        /* \"#utility.yul\":10248:10249   */\n      0x02\n        /* \"#utility.yul\":10242:10246   */\n      dup3\n        /* \"#utility.yul\":10238:10250   */\n      div\n        /* \"#utility.yul\":10228:10250   */\n      swap1\n      pop\n        /* \"#utility.yul\":10295:10296   */\n      0x01\n        /* \"#utility.yul\":10289:10293   */\n      dup3\n        /* \"#utility.yul\":10285:10297   */\n      and\n        /* \"#utility.yul\":10316:10334   */\n      dup1\n        /* \"#utility.yul\":10306:10387   */\n      tag_250\n      jumpi\n        /* \"#utility.yul\":10372:10376   */\n      0x7f\n        /* \"#utility.yul\":10364:10370   */\n      dup3\n        /* \"#utility.yul\":10360:10377   */\n      and\n        /* \"#utility.yul\":10350:10377   */\n      swap2\n      pop\n        /* \"#utility.yul\":10306:10387   */\n    tag_250:\n        /* \"#utility.yul\":10434:10436   */\n      0x20\n        /* \"#utility.yul\":10426:10432   */\n      dup3\n        /* \"#utility.yul\":10423:10437   */\n      lt\n        /* \"#utility.yul\":10403:10421   */\n      dup2\n        /* \"#utility.yul\":10400:10438   */\n      eq\n        /* \"#utility.yul\":10397:10481   */\n      iszero\n      tag_251\n      jumpi\n        /* \"#utility.yul\":10453:10471   */\n      tag_252\n      tag_253\n      jump\t// in\n    tag_252:\n        /* \"#utility.yul\":10397:10481   */\n    tag_251:\n        /* \"#utility.yul\":10218:10487   */\n      pop\n        /* \"#utility.yul\":10167:10487   */\n      swap2\n      swap1\n      pop\n      jump\t// out\n        /* \"#utility.yul\":10493:10774   */\n    tag_222:\n        /* \"#utility.yul\":10576:10603   */\n      tag_255\n        /* \"#utility.yul\":10598:10602   */\n      dup3\n        /* \"#utility.yul\":10576:10603   */\n      tag_191\n      jump\t// in\n    tag_255:\n        /* \"#utility.yul\":10568:10574   */\n      dup2\n        /* \"#utility.yul\":10564:10604   */\n      add\n        /* \"#utility.yul\":10706:10712   */\n      dup2\n        /* \"#utility.yul\":10694:10704   */\n      dup2\n        /* \"#utility.yul\":10691:10713   */\n      lt\n        /* \"#utility.yul\":10670:10688   */\n      0xffffffffffffffff\n        /* \"#utility.yul\":10658:10668   */\n      dup3\n        /* \"#utility.yul\":10655:10689   */\n      gt\n        /* \"#utility.yul\":10652:10714   */\n      or\n        /* \"#utility.yul\":10649:10737   */\n      iszero\n      tag_256\n      jumpi\n        /* \"#utility.yul\":10717:10735   */\n      tag_257\n      tag_227\n      jump\t// in\n    tag_257:\n        /* \"#utility.yul\":10649:10737   */\n    tag_256:\n        /* \"#utility.yul\":10757:10767   */\n      dup1\n        /* \"#utility.yul\":10753:10755   */\n      0x40\n        /* \"#utility.yul\":10746:10768   */\n      mstore\n        /* \"#utility.yul\":10536:10774   */\n      pop\n        /* \"#utility.yul\":10493:10774   */\n      pop\n      pop\n      jump\t// out\n        /* \"#utility.yul\":10780:10960   */\n    tag_241:\n        /* \"#utility.yul\":10828:10905   */\n      0x4e487b7100000000000000000000000000000000000000000000000000000000\n        /* \"#utility.yul\":10825:10826   */\n      0x00\n        /* \"#utility.yul\":10818:10906   */\n      mstore\n        /* \"#utility.yul\":10925:10929   */\n      0x11\n        /* \"#utility.yul\":10922:10923   */\n      0x04\n        /* \"#utility.yul\":10915:10930   */\n      mstore\n        /* \"#utility.yul\":10949:10953   */\n      0x24\n        /* \"#utility.yul\":10946:10947   */\n      0x00\n        /* \"#utility.yul\":10939:10954   */\n      revert\n        /* \"#utility.yul\":10966:11146   */\n    tag_253:\n        /* \"#utility.yul\":11014:11091   */\n      0x4e487b7100000000000000000000000000000000000000000000000000000000\n        /* \"#utility.yul\":11011:11012   */\n      0x00\n        /* \"#utility.yul\":11004:11092   */\n      mstore\n        /* \"#utility.yul\":11111:11115   */\n      0x22\n        /* \"#utility.yul\":11108:11109   */\n      0x04\n        /* \"#utility.yul\":11101:11116   */\n      mstore\n        /* \"#utility.yul\":11135:11139   */\n      0x24\n        /* \"#utility.yul\":11132:11133   */\n      0x00\n        /* \"#utility.yul\":11125:11140   */\n      revert\n        /* \"#utility.yul\":11152:11332   */\n    tag_82:\n        /* \"#utility.yul\":11200:11277   */\n      0x4e487b7100000000000000000000000000000000000000000000000000000000\n        /* \"#utility.yul\":11197:11198   */\n      0x00\n        /* \"#utility.yul\":11190:11278   */\n      mstore\n        /* \"#utility.yul\":11297:11301   */\n      0x31\n        /* \"#utility.yul\":11294:11295   */\n      0x04\n        /* \"#utility.yul\":11287:11302   */\n      mstore\n        /* \"#utility.yul\":11321:11325   */\n      0x24\n        /* \"#utility.yul\":11318:11319   */\n      0x00\n        /* \"#utility.yul\":11311:11326   */\n      revert\n        /* \"#utility.yul\":11338:11518   */\n    tag_46:\n        /* \"#utility.yul\":11386:11463   */\n      0x4e487b7100000000000000000000000000000000000000000000000000000000\n        /* \"#utility.yul\":11383:11384   */\n      0x00\n        /* \"#utility.yul\":11376:11464   */\n      mstore\n        /* \"#utility.yul\":11483:11487   */\n      0x32\n        /* \"#utility.yul\":11480:11481   */\n      0x04\n        /* \"#utility.yul\":11473:11488   */\n      mstore\n        /* \"#utility.yul\":11507:11511   */\n      0x24\n        /* \"#utility.yul\":11504:11505   */\n      0x00\n        /* \"#utility.yul\":11497:11512   */\n      revert\n        /* \"#utility.yul\":11524:11704   */\n    tag_227:\n        /* \"#utility.yul\":11572:11649   */\n      0x4e487b7100000000000000000000000000000000000000000000000000000000\n        /* \"#utility.yul\":11569:11570   */\n      0x00\n        /* \"#utility.yul\":11562:11650   */\n      mstore\n        /* \"#utility.yul\":11669:11673   */\n      0x41\n        /* \"#utility.yul\":11666:11667   */\n      0x04\n        /* \"#utility.yul\":11659:11674   */\n      mstore\n        /* \"#utility.yul\":11693:11697   */\n      0x24\n        /* \"#utility.yul\":11690:11691   */\n      0x00\n        /* \"#utility.yul\":11683:11698   */\n      revert\n        /* \"#utility.yul\":11710:11827   */\n    tag_131:\n        /* \"#utility.yul\":11819:11820   */\n      0x00\n        /* \"#utility.yul\":11816:11817   */\n      dup1\n        /* \"#utility.yul\":11809:11821   */\n      revert\n        /* \"#utility.yul\":11833:11950   */\n    tag_124:\n        /* \"#utility.yul\":11942:11943   */\n      0x00\n        /* \"#utility.yul\":11939:11940   */\n      dup1\n        /* \"#utility.yul\":11932:11944   */\n      revert\n        /* \"#utility.yul\":11956:12073   */\n    tag_143:\n        /* \"#utility.yul\":12065:12066   */\n      0x00\n        /* \"#utility.yul\":12062:12063   */\n      dup1\n        /* \"#utility.yul\":12055:12067   */\n      revert\n        /* \"#utility.yul\":12079:12196   */\n    tag_140:\n        /* \"#utility.yul\":12188:12189   */\n      0x00\n        /* \"#utility.yul\":12185:12186   */\n      dup1\n        /* \"#utility.yul\":12178:12190   */\n      revert\n        /* \"#utility.yul\":12202:12304   */\n    tag_191:\n        /* \"#utility.yul\":12243:12249   */\n      0x00\n        /* \"#utility.yul\":12294:12296   */\n      0x1f\n        /* \"#utility.yul\":12290:12297   */\n      not\n        /* \"#utility.yul\":12285:12287   */\n      0x1f\n        /* \"#utility.yul\":12278:12283   */\n      dup4\n        /* \"#utility.yul\":12274:12288   */\n      add\n        /* \"#utility.yul\":12270:12298   */\n      and\n        /* \"#utility.yul\":12260:12298   */\n      swap1\n      pop\n        /* \"#utility.yul\":12202:12304   */\n      swap2\n      swap1\n      pop\n      jump\t// out\n        /* \"#utility.yul\":12310:12432   */\n    tag_136:\n        /* \"#utility.yul\":12383:12407   */\n      tag_269\n        /* \"#utility.yul\":12401:12406   */\n      dup2\n        /* \"#utility.yul\":12383:12407   */\n      tag_207\n      jump\t// in\n    tag_269:\n        /* \"#utility.yul\":12376:12381   */\n      dup2\n        /* \"#utility.yul\":12373:12408   */\n      eq\n        /* \"#utility.yul\":12363:12426   */\n      tag_270\n      jumpi\n        /* \"#utility.yul\":12422:12423   */\n      0x00\n        /* \"#utility.yul\":12419:12420   */\n      dup1\n        /* \"#utility.yul\":12412:12424   */\n      revert\n        /* \"#utility.yul\":12363:12426   */\n    tag_270:\n        /* \"#utility.yul\":12310:12432   */\n      pop\n      jump\t// out\n\n    auxdata: 0xa2646970667358221220bc27ec8ba18a7a4280891a902d34174a8c7e180832e03089a4ed27583c6a7f6364736f6c63430008070033\n}\n",
				"bytecode": {
					"linkReferences": {},
					"object": "608060405234801561001057600080fd5b50610d14806100206000396000f3fe608060405234801561001057600080fd5b50600436106100885760003560e01c80639351b0781161005b5780639351b07814610114578063973e2bbc14610130578063e1b7edff1461014c578063f8a8fd6d1461016857610088565b806312cbb9721461008d57806327503a82146100a95780632dc6a8d7146100c55780637aadbdd3146100e1575b600080fd5b6100a760048036038101906100a29190610792565b610186565b005b6100c360048036038101906100be91906107ee565b6101c9565b005b6100df60048036038101906100da91906107ee565b6101fc565b005b6100fb60048036038101906100f69190610765565b61022f565b60405161010b94939291906109cc565b60405180910390f35b61012e60048036038101906101299190610765565b61033a565b005b61014a600480360381019061014591906107ee565b610426565b005b610166600480360381019061016191906106e2565b610459565b005b6101706104e8565b60405161017d91906109aa565b60405180910390f35b600080838154811061019b5761019a610c44565b5b90600052602060002090600402019050818160000190805190602001906101c39291906104ed565b50505050565b60008083815481106101de576101dd610c44565b5b90600052602060002090600402019050818160020181905550505050565b600080838154811061021157610210610c44565b5b90600052602060002090600402019050818160010181905550505050565b60606000806000806000868154811061024b5761024a610c44565b5b906000526020600020906004020160405180608001604052908160008201805461027490610b54565b80601f01602080910402602001604051908101604052809291908181526020018280546102a090610b54565b80156102ed5780601f106102c2576101008083540402835291602001916102ed565b820191906000526020600020905b8154815290600101906020018083116102d057829003601f168201915b505050505081526020016001820154815260200160028201548152602001600382015481525050905080600001518160200151826040015183606001519450945094509450509193509193565b6000600160008054905061034e9190610ad4565b8154811061035f5761035e610c44565b5b90600052602060002090600402016000828154811061038157610380610c44565b5b906000526020600020906004020160008201816000019080546103a390610b54565b6103ae929190610573565b5060018201548160010155600282015481600201556003820154816003015590505060008054806103e2576103e1610c15565b5b6001900381819060005260206000209060040201600080820160006104079190610600565b6001820160009055600282016000905560038201600090555050905550565b600080838154811061043b5761043a610c44565b5b90600052602060002090600402019050818160030181905550505050565b6000604051806080016040528086815260200185815260200184815260200183815250908060018154018082558091505060019003906000526020600020906004020160009091909190915060008201518160000190805190602001906104c19291906104ed565b50602082015181600101556040820151816002015560608201518160030155505050505050565b606090565b8280546104f990610b54565b90600052602060002090601f01602090048101928261051b5760008555610562565b82601f1061053457805160ff1916838001178555610562565b82800160010185558215610562579182015b82811115610561578251825591602001919060010190610546565b5b50905061056f9190610640565b5090565b82805461057f90610b54565b90600052602060002090601f0160209004810192826105a157600085556105ef565b82601f106105b257805485556105ef565b828001600101855582156105ef57600052602060002091601f016020900482015b828111156105ee5782548255916001019190600101906105d3565b5b5090506105fc9190610640565b5090565b50805461060c90610b54565b6000825580601f1061061e575061063d565b601f01602090049060005260206000209081019061063c9190610640565b5b50565b5b80821115610659576000816000905550600101610641565b5090565b600061067061066b84610a3d565b610a18565b90508281526020810184848401111561068c5761068b610ca7565b5b610697848285610b12565b509392505050565b600082601f8301126106b4576106b3610ca2565b5b81356106c484826020860161065d565b91505092915050565b6000813590506106dc81610cc7565b92915050565b600080600080608085870312156106fc576106fb610cb1565b5b600085013567ffffffffffffffff81111561071a57610719610cac565b5b6107268782880161069f565b9450506020610737878288016106cd565b9350506040610748878288016106cd565b9250506060610759878288016106cd565b91505092959194509250565b60006020828403121561077b5761077a610cb1565b5b6000610789848285016106cd565b91505092915050565b600080604083850312156107a9576107a8610cb1565b5b60006107b7858286016106cd565b925050602083013567ffffffffffffffff8111156107d8576107d7610cac565b5b6107e48582860161069f565b9150509250929050565b6000806040838503121561080557610804610cb1565b5b6000610813858286016106cd565b9250506020610824858286016106cd565b9150509250929050565b600061083a8383610929565b905092915050565b600061084d82610a7e565b6108578185610aa1565b93508360208202850161086985610a6e565b8060005b858110156108a55784840389528151610886858261082e565b945061089183610a94565b925060208a0199505060018101905061086d565b50829750879550505050505092915050565b60006108c282610a89565b6108cc8185610ab2565b93506108dc818560208601610b21565b6108e581610cb6565b840191505092915050565b60006108fb82610a89565b6109058185610ac3565b9350610915818560208601610b21565b61091e81610cb6565b840191505092915050565b6000608083016000830151848203600086015261094682826108b7565b915050602083015161095b602086018261098c565b50604083015161096e604086018261098c565b506060830151610981606086018261098c565b508091505092915050565b61099581610b08565b82525050565b6109a481610b08565b82525050565b600060208201905081810360008301526109c48184610842565b905092915050565b600060808201905081810360008301526109e681876108f0565b90506109f5602083018661099b565b610a02604083018561099b565b610a0f606083018461099b565b95945050505050565b6000610a22610a33565b9050610a2e8282610b86565b919050565b6000604051905090565b600067ffffffffffffffff821115610a5857610a57610c73565b5b610a6182610cb6565b9050602081019050919050565b6000819050602082019050919050565b600081519050919050565b600081519050919050565b6000602082019050919050565b600082825260208201905092915050565b600082825260208201905092915050565b600082825260208201905092915050565b6000610adf82610b08565b9150610aea83610b08565b925082821015610afd57610afc610bb7565b5b828203905092915050565b6000819050919050565b82818337600083830152505050565b60005b83811015610b3f578082015181840152602081019050610b24565b83811115610b4e576000848401525b50505050565b60006002820490506001821680610b6c57607f821691505b60208210811415610b8057610b7f610be6565b5b50919050565b610b8f82610cb6565b810181811067ffffffffffffffff82111715610bae57610bad610c73565b5b80604052505050565b7f4e487b7100000000000000000000000000000000000000000000000000000000600052601160045260246000fd5b7f4e487b7100000000000000000000000000000000000000000000000000000000600052602260045260246000fd5b7f4e487b7100000000000000000000000000000000000000000000000000000000600052603160045260246000fd5b7f4e487b7100000000000000000000000000000000000000000000000000000000600052603260045260246000fd5b7f4e487b7100000000000000000000000000000000000000000000000000000000600052604160045260246000fd5b600080fd5b600080fd5b600080fd5b600080fd5b6000601f19601f8301169050919050565b610cd081610b08565b8114610cdb57600080fd5b5056fea2646970667358221220bc27ec8ba18a7a4280891a902d34174a8c7e180832e03089a4ed27583c6a7f6364736f6c63430008070033",
					"opcodes": "PUSH1 0x80 PUSH1 0x40 MSTORE CALLVALUE DUP1 ISZERO PUSH2 0x10 JUMPI PUSH1 0x0 DUP1 REVERT JUMPDEST POP PUSH2 0xD14 DUP1 PUSH2 0x20 PUSH1 0x0 CODECOPY PUSH1 0x0 RETURN INVALID PUSH1 0x80 PUSH1 0x40 MSTORE CALLVALUE DUP1 ISZERO PUSH2 0x10 JUMPI PUSH1 0x0 DUP1 REVERT JUMPDEST POP PUSH1 0x4 CALLDATASIZE LT PUSH2 0x88 JUMPI PUSH1 0x0 CALLDATALOAD PUSH1 0xE0 SHR DUP1 PUSH4 0x9351B078 GT PUSH2 0x5B JUMPI DUP1 PUSH4 0x9351B078 EQ PUSH2 0x114 JUMPI DUP1 PUSH4 0x973E2BBC EQ PUSH2 0x130 JUMPI DUP1 PUSH4 0xE1B7EDFF EQ PUSH2 0x14C JUMPI DUP1 PUSH4 0xF8A8FD6D EQ PUSH2 0x168 JUMPI PUSH2 0x88 JUMP JUMPDEST DUP1 PUSH4 0x12CBB972 EQ PUSH2 0x8D JUMPI DUP1 PUSH4 0x27503A82 EQ PUSH2 0xA9 JUMPI DUP1 PUSH4 0x2DC6A8D7 EQ PUSH2 0xC5 JUMPI DUP1 PUSH4 0x7AADBDD3 EQ PUSH2 0xE1 JUMPI JUMPDEST PUSH1 0x0 DUP1 REVERT JUMPDEST PUSH2 0xA7 PUSH1 0x4 DUP1 CALLDATASIZE SUB DUP2 ADD SWAP1 PUSH2 0xA2 SWAP2 SWAP1 PUSH2 0x792 JUMP JUMPDEST PUSH2 0x186 JUMP JUMPDEST STOP JUMPDEST PUSH2 0xC3 PUSH1 0x4 DUP1 CALLDATASIZE SUB DUP2 ADD SWAP1 PUSH2 0xBE SWAP2 SWAP1 PUSH2 0x7EE JUMP JUMPDEST PUSH2 0x1C9 JUMP JUMPDEST STOP JUMPDEST PUSH2 0xDF PUSH1 0x4 DUP1 CALLDATASIZE SUB DUP2 ADD SWAP1 PUSH2 0xDA SWAP2 SWAP1 PUSH2 0x7EE JUMP JUMPDEST PUSH2 0x1FC JUMP JUMPDEST STOP JUMPDEST PUSH2 0xFB PUSH1 0x4 DUP1 CALLDATASIZE SUB DUP2 ADD SWAP1 PUSH2 0xF6 SWAP2 SWAP1 PUSH2 0x765 JUMP JUMPDEST PUSH2 0x22F JUMP JUMPDEST PUSH1 0x40 MLOAD PUSH2 0x10B SWAP5 SWAP4 SWAP3 SWAP2 SWAP1 PUSH2 0x9CC JUMP JUMPDEST PUSH1 0x40 MLOAD DUP1 SWAP2 SUB SWAP1 RETURN JUMPDEST PUSH2 0x12E PUSH1 0x4 DUP1 CALLDATASIZE SUB DUP2 ADD SWAP1 PUSH2 0x129 SWAP2 SWAP1 PUSH2 0x765 JUMP JUMPDEST PUSH2 0x33A JUMP JUMPDEST STOP JUMPDEST PUSH2 0x14A PUSH1 0x4 DUP1 CALLDATASIZE SUB DUP2 ADD SWAP1 PUSH2 0x145 SWAP2 SWAP1 PUSH2 0x7EE JUMP JUMPDEST PUSH2 0x426 JUMP JUMPDEST STOP JUMPDEST PUSH2 0x166 PUSH1 0x4 DUP1 CALLDATASIZE SUB DUP2 ADD SWAP1 PUSH2 0x161 SWAP2 SWAP1 PUSH2 0x6E2 JUMP JUMPDEST PUSH2 0x459 JUMP JUMPDEST STOP JUMPDEST PUSH2 0x170 PUSH2 0x4E8 JUMP JUMPDEST PUSH1 0x40 MLOAD PUSH2 0x17D SWAP2 SWAP1 PUSH2 0x9AA JUMP JUMPDEST PUSH1 0x40 MLOAD DUP1 SWAP2 SUB SWAP1 RETURN JUMPDEST PUSH1 0x0 DUP1 DUP4 DUP2 SLOAD DUP2 LT PUSH2 0x19B JUMPI PUSH2 0x19A PUSH2 0xC44 JUMP JUMPDEST JUMPDEST SWAP1 PUSH1 0x0 MSTORE PUSH1 0x20 PUSH1 0x0 KECCAK256 SWAP1 PUSH1 0x4 MUL ADD SWAP1 POP DUP2 DUP2 PUSH1 0x0 ADD SWAP1 DUP1 MLOAD SWAP1 PUSH1 0x20 ADD SWAP1 PUSH2 0x1C3 SWAP3 SWAP2 SWAP1 PUSH2 0x4ED JUMP JUMPDEST POP POP POP POP JUMP JUMPDEST PUSH1 0x0 DUP1 DUP4 DUP2 SLOAD DUP2 LT PUSH2 0x1DE JUMPI PUSH2 0x1DD PUSH2 0xC44 JUMP JUMPDEST JUMPDEST SWAP1 PUSH1 0x0 MSTORE PUSH1 0x20 PUSH1 0x0 KECCAK256 SWAP1 PUSH1 0x4 MUL ADD SWAP1 POP DUP2 DUP2 PUSH1 0x2 ADD DUP2 SWAP1 SSTORE POP POP POP POP JUMP JUMPDEST PUSH1 0x0 DUP1 DUP4 DUP2 SLOAD DUP2 LT PUSH2 0x211 JUMPI PUSH2 0x210 PUSH2 0xC44 JUMP JUMPDEST JUMPDEST SWAP1 PUSH1 0x0 MSTORE PUSH1 0x20 PUSH1 0x0 KECCAK256 SWAP1 PUSH1 0x4 MUL ADD SWAP1 POP DUP2 DUP2 PUSH1 0x1 ADD DUP2 SWAP1 SSTORE POP POP POP POP JUMP JUMPDEST PUSH1 0x60 PUSH1 0x0 DUP1 PUSH1 0x0 DUP1 PUSH1 0x0 DUP7 DUP2 SLOAD DUP2 LT PUSH2 0x24B JUMPI PUSH2 0x24A PUSH2 0xC44 JUMP JUMPDEST JUMPDEST SWAP1 PUSH1 0x0 MSTORE PUSH1 0x20 PUSH1 0x0 KECCAK256 SWAP1 PUSH1 0x4 MUL ADD PUSH1 0x40 MLOAD DUP1 PUSH1 0x80 ADD PUSH1 0x40 MSTORE SWAP1 DUP2 PUSH1 0x0 DUP3 ADD DUP1 SLOAD PUSH2 0x274 SWAP1 PUSH2 0xB54 JUMP JUMPDEST DUP1 PUSH1 0x1F ADD PUSH1 0x20 DUP1 SWAP2 DIV MUL PUSH1 0x20 ADD PUSH1 0x40 MLOAD SWAP1 DUP2 ADD PUSH1 0x40 MSTORE DUP1 SWAP3 SWAP2 SWAP1 DUP2 DUP2 MSTORE PUSH1 0x20 ADD DUP3 DUP1 SLOAD PUSH2 0x2A0 SWAP1 PUSH2 0xB54 JUMP JUMPDEST DUP1 ISZERO PUSH2 0x2ED JUMPI DUP1 PUSH1 0x1F LT PUSH2 0x2C2 JUMPI PUSH2 0x100 DUP1 DUP4 SLOAD DIV MUL DUP4 MSTORE SWAP2 PUSH1 0x20 ADD SWAP2 PUSH2 0x2ED JUMP JUMPDEST DUP3 ADD SWAP2 SWAP1 PUSH1 0x0 MSTORE PUSH1 0x20 PUSH1 0x0 KECCAK256 SWAP1 JUMPDEST DUP2 SLOAD DUP2 MSTORE SWAP1 PUSH1 0x1 ADD SWAP1 PUSH1 0x20 ADD DUP1 DUP4 GT PUSH2 0x2D0 JUMPI DUP3 SWAP1 SUB PUSH1 0x1F AND DUP3 ADD SWAP2 JUMPDEST POP POP POP POP POP DUP2 MSTORE PUSH1 0x20 ADD PUSH1 0x1 DUP3 ADD SLOAD DUP2 MSTORE PUSH1 0x20 ADD PUSH1 0x2 DUP3 ADD SLOAD DUP2 MSTORE PUSH1 0x20 ADD PUSH1 0x3 DUP3 ADD SLOAD DUP2 MSTORE POP POP SWAP1 POP DUP1 PUSH1 0x0 ADD MLOAD DUP2 PUSH1 0x20 ADD MLOAD DUP3 PUSH1 0x40 ADD MLOAD DUP4 PUSH1 0x60 ADD MLOAD SWAP5 POP SWAP5 POP SWAP5 POP SWAP5 POP POP SWAP2 SWAP4 POP SWAP2 SWAP4 JUMP JUMPDEST PUSH1 0x0 PUSH1 0x1 PUSH1 0x0 DUP1 SLOAD SWAP1 POP PUSH2 0x34E SWAP2 SWAP1 PUSH2 0xAD4 JUMP JUMPDEST DUP2 SLOAD DUP2 LT PUSH2 0x35F JUMPI PUSH2 0x35E PUSH2 0xC44 JUMP JUMPDEST JUMPDEST SWAP1 PUSH1 0x0 MSTORE PUSH1 0x20 PUSH1 0x0 KECCAK256 SWAP1 PUSH1 0x4 MUL ADD PUSH1 0x0 DUP3 DUP2 SLOAD DUP2 LT PUSH2 0x381 JUMPI PUSH2 0x380 PUSH2 0xC44 JUMP JUMPDEST JUMPDEST SWAP1 PUSH1 0x0 MSTORE PUSH1 0x20 PUSH1 0x0 KECCAK256 SWAP1 PUSH1 0x4 MUL ADD PUSH1 0x0 DUP3 ADD DUP2 PUSH1 0x0 ADD SWAP1 DUP1 SLOAD PUSH2 0x3A3 SWAP1 PUSH2 0xB54 JUMP JUMPDEST PUSH2 0x3AE SWAP3 SWAP2 SWAP1 PUSH2 0x573 JUMP JUMPDEST POP PUSH1 0x1 DUP3 ADD SLOAD DUP2 PUSH1 0x1 ADD SSTORE PUSH1 0x2 DUP3 ADD SLOAD DUP2 PUSH1 0x2 ADD SSTORE PUSH1 0x3 DUP3 ADD SLOAD DUP2 PUSH1 0x3 ADD SSTORE SWAP1 POP POP PUSH1 0x0 DUP1 SLOAD DUP1 PUSH2 0x3E2 JUMPI PUSH2 0x3E1 PUSH2 0xC15 JUMP JUMPDEST JUMPDEST PUSH1 0x1 SWAP1 SUB DUP2 DUP2 SWAP1 PUSH1 0x0 MSTORE PUSH1 0x20 PUSH1 0x0 KECCAK256 SWAP1 PUSH1 0x4 MUL ADD PUSH1 0x0 DUP1 DUP3 ADD PUSH1 0x0 PUSH2 0x407 SWAP2 SWAP1 PUSH2 0x600 JUMP JUMPDEST PUSH1 0x1 DUP3 ADD PUSH1 0x0 SWAP1 SSTORE PUSH1 0x2 DUP3 ADD PUSH1 0x0 SWAP1 SSTORE PUSH1 0x3 DUP3 ADD PUSH1 0x0 SWAP1 SSTORE POP POP SWAP1 SSTORE POP JUMP JUMPDEST PUSH1 0x0 DUP1 DUP4 DUP2 SLOAD DUP2 LT PUSH2 0x43B JUMPI PUSH2 0x43A PUSH2 0xC44 JUMP JUMPDEST JUMPDEST SWAP1 PUSH1 0x0 MSTORE PUSH1 0x20 PUSH1 0x0 KECCAK256 SWAP1 PUSH1 0x4 MUL ADD SWAP1 POP DUP2 DUP2 PUSH1 0x3 ADD DUP2 SWAP1 SSTORE POP POP POP POP JUMP JUMPDEST PUSH1 0x0 PUSH1 0x40 MLOAD DUP1 PUSH1 0x80 ADD PUSH1 0x40 MSTORE DUP1 DUP7 DUP2 MSTORE PUSH1 0x20 ADD DUP6 DUP2 MSTORE PUSH1 0x20 ADD DUP5 DUP2 MSTORE PUSH1 0x20 ADD DUP4 DUP2 MSTORE POP SWAP1 DUP1 PUSH1 0x1 DUP2 SLOAD ADD DUP1 DUP3 SSTORE DUP1 SWAP2 POP POP PUSH1 0x1 SWAP1 SUB SWAP1 PUSH1 0x0 MSTORE PUSH1 0x20 PUSH1 0x0 KECCAK256 SWAP1 PUSH1 0x4 MUL ADD PUSH1 0x0 SWAP1 SWAP2 SWAP1 SWAP2 SWAP1 SWAP2 POP PUSH1 0x0 DUP3 ADD MLOAD DUP2 PUSH1 0x0 ADD SWAP1 DUP1 MLOAD SWAP1 PUSH1 0x20 ADD SWAP1 PUSH2 0x4C1 SWAP3 SWAP2 SWAP1 PUSH2 0x4ED JUMP JUMPDEST POP PUSH1 0x20 DUP3 ADD MLOAD DUP2 PUSH1 0x1 ADD SSTORE PUSH1 0x40 DUP3 ADD MLOAD DUP2 PUSH1 0x2 ADD SSTORE PUSH1 0x60 DUP3 ADD MLOAD DUP2 PUSH1 0x3 ADD SSTORE POP POP POP POP POP POP JUMP JUMPDEST PUSH1 0x60 SWAP1 JUMP JUMPDEST DUP3 DUP1 SLOAD PUSH2 0x4F9 SWAP1 PUSH2 0xB54 JUMP JUMPDEST SWAP1 PUSH1 0x0 MSTORE PUSH1 0x20 PUSH1 0x0 KECCAK256 SWAP1 PUSH1 0x1F ADD PUSH1 0x20 SWAP1 DIV DUP2 ADD SWAP3 DUP3 PUSH2 0x51B JUMPI PUSH1 0x0 DUP6 SSTORE PUSH2 0x562 JUMP JUMPDEST DUP3 PUSH1 0x1F LT PUSH2 0x534 JUMPI DUP1 MLOAD PUSH1 0xFF NOT AND DUP4 DUP1 ADD OR DUP6 SSTORE PUSH2 0x562 JUMP JUMPDEST DUP3 DUP1 ADD PUSH1 0x1 ADD DUP6 SSTORE DUP3 ISZERO PUSH2 0x562 JUMPI SWAP2 DUP3 ADD JUMPDEST DUP3 DUP2 GT ISZERO PUSH2 0x561 JUMPI DUP3 MLOAD DUP3 SSTORE SWAP2 PUSH1 0x20 ADD SWAP2 SWAP1 PUSH1 0x1 ADD SWAP1 PUSH2 0x546 JUMP JUMPDEST JUMPDEST POP SWAP1 POP PUSH2 0x56F SWAP2 SWAP1 PUSH2 0x640 JUMP JUMPDEST POP SWAP1 JUMP JUMPDEST DUP3 DUP1 SLOAD PUSH2 0x57F SWAP1 PUSH2 0xB54 JUMP JUMPDEST SWAP1 PUSH1 0x0 MSTORE PUSH1 0x20 PUSH1 0x0 KECCAK256 SWAP1 PUSH1 0x1F ADD PUSH1 0x20 SWAP1 DIV DUP2 ADD SWAP3 DUP3 PUSH2 0x5A1 JUMPI PUSH1 0x0 DUP6 SSTORE PUSH2 0x5EF JUMP JUMPDEST DUP3 PUSH1 0x1F LT PUSH2 0x5B2 JUMPI DUP1 SLOAD DUP6 SSTORE PUSH2 0x5EF JUMP JUMPDEST DUP3 DUP1 ADD PUSH1 0x1 ADD DUP6 SSTORE DUP3 ISZERO PUSH2 0x5EF JUMPI PUSH1 0x0 MSTORE PUSH1 0x20 PUSH1 0x0 KECCAK256 SWAP2 PUSH1 0x1F ADD PUSH1 0x20 SWAP1 DIV DUP3 ADD JUMPDEST DUP3 DUP2 GT ISZERO PUSH2 0x5EE JUMPI DUP3 SLOAD DUP3 SSTORE SWAP2 PUSH1 0x1 ADD SWAP2 SWAP1 PUSH1 0x1 ADD SWAP1 PUSH2 0x5D3 JUMP JUMPDEST JUMPDEST POP SWAP1 POP PUSH2 0x5FC SWAP2 SWAP1 PUSH2 0x640 JUMP JUMPDEST POP SWAP1 JUMP JUMPDEST POP DUP1 SLOAD PUSH2 0x60C SWAP1 PUSH2 0xB54 JUMP JUMPDEST PUSH1 0x0 DUP3 SSTORE DUP1 PUSH1 0x1F LT PUSH2 0x61E JUMPI POP PUSH2 0x63D JUMP JUMPDEST PUSH1 0x1F ADD PUSH1 0x20 SWAP1 DIV SWAP1 PUSH1 0x0 MSTORE PUSH1 0x20 PUSH1 0x0 KECCAK256 SWAP1 DUP2 ADD SWAP1 PUSH2 0x63C SWAP2 SWAP1 PUSH2 0x640 JUMP JUMPDEST JUMPDEST POP JUMP JUMPDEST JUMPDEST DUP1 DUP3 GT ISZERO PUSH2 0x659 JUMPI PUSH1 0x0 DUP2 PUSH1 0x0 SWAP1 SSTORE POP PUSH1 0x1 ADD PUSH2 0x641 JUMP JUMPDEST POP SWAP1 JUMP JUMPDEST PUSH1 0x0 PUSH2 0x670 PUSH2 0x66B DUP5 PUSH2 0xA3D JUMP JUMPDEST PUSH2 0xA18 JUMP JUMPDEST SWAP1 POP DUP3 DUP2 MSTORE PUSH1 0x20 DUP2 ADD DUP5 DUP5 DUP5 ADD GT ISZERO PUSH2 0x68C JUMPI PUSH2 0x68B PUSH2 0xCA7 JUMP JUMPDEST JUMPDEST PUSH2 0x697 DUP5 DUP3 DUP6 PUSH2 0xB12 JUMP JUMPDEST POP SWAP4 SWAP3 POP POP POP JUMP JUMPDEST PUSH1 0x0 DUP3 PUSH1 0x1F DUP4 ADD SLT PUSH2 0x6B4 JUMPI PUSH2 0x6B3 PUSH2 0xCA2 JUMP JUMPDEST JUMPDEST DUP2 CALLDATALOAD PUSH2 0x6C4 DUP5 DUP3 PUSH1 0x20 DUP7 ADD PUSH2 0x65D JUMP JUMPDEST SWAP2 POP POP SWAP3 SWAP2 POP POP JUMP JUMPDEST PUSH1 0x0 DUP2 CALLDATALOAD SWAP1 POP PUSH2 0x6DC DUP2 PUSH2 0xCC7 JUMP JUMPDEST SWAP3 SWAP2 POP POP JUMP JUMPDEST PUSH1 0x0 DUP1 PUSH1 0x0 DUP1 PUSH1 0x80 DUP6 DUP8 SUB SLT ISZERO PUSH2 0x6FC JUMPI PUSH2 0x6FB PUSH2 0xCB1 JUMP JUMPDEST JUMPDEST PUSH1 0x0 DUP6 ADD CALLDATALOAD PUSH8 0xFFFFFFFFFFFFFFFF DUP2 GT ISZERO PUSH2 0x71A JUMPI PUSH2 0x719 PUSH2 0xCAC JUMP JUMPDEST JUMPDEST PUSH2 0x726 DUP8 DUP3 DUP9 ADD PUSH2 0x69F JUMP JUMPDEST SWAP5 POP POP PUSH1 0x20 PUSH2 0x737 DUP8 DUP3 DUP9 ADD PUSH2 0x6CD JUMP JUMPDEST SWAP4 POP POP PUSH1 0x40 PUSH2 0x748 DUP8 DUP3 DUP9 ADD PUSH2 0x6CD JUMP JUMPDEST SWAP3 POP POP PUSH1 0x60 PUSH2 0x759 DUP8 DUP3 DUP9 ADD PUSH2 0x6CD JUMP JUMPDEST SWAP2 POP POP SWAP3 SWAP6 SWAP2 SWAP5 POP SWAP3 POP JUMP JUMPDEST PUSH1 0x0 PUSH1 0x20 DUP3 DUP5 SUB SLT ISZERO PUSH2 0x77B JUMPI PUSH2 0x77A PUSH2 0xCB1 JUMP JUMPDEST JUMPDEST PUSH1 0x0 PUSH2 0x789 DUP5 DUP3 DUP6 ADD PUSH2 0x6CD JUMP JUMPDEST SWAP2 POP POP SWAP3 SWAP2 POP POP JUMP JUMPDEST PUSH1 0x0 DUP1 PUSH1 0x40 DUP4 DUP6 SUB SLT ISZERO PUSH2 0x7A9 JUMPI PUSH2 0x7A8 PUSH2 0xCB1 JUMP JUMPDEST JUMPDEST PUSH1 0x0 PUSH2 0x7B7 DUP6 DUP3 DUP7 ADD PUSH2 0x6CD JUMP JUMPDEST SWAP3 POP POP PUSH1 0x20 DUP4 ADD CALLDATALOAD PUSH8 0xFFFFFFFFFFFFFFFF DUP2 GT ISZERO PUSH2 0x7D8 JUMPI PUSH2 0x7D7 PUSH2 0xCAC JUMP JUMPDEST JUMPDEST PUSH2 0x7E4 DUP6 DUP3 DUP7 ADD PUSH2 0x69F JUMP JUMPDEST SWAP2 POP POP SWAP3 POP SWAP3 SWAP1 POP JUMP JUMPDEST PUSH1 0x0 DUP1 PUSH1 0x40 DUP4 DUP6 SUB SLT ISZERO PUSH2 0x805 JUMPI PUSH2 0x804 PUSH2 0xCB1 JUMP JUMPDEST JUMPDEST PUSH1 0x0 PUSH2 0x813 DUP6 DUP3 DUP7 ADD PUSH2 0x6CD JUMP JUMPDEST SWAP3 POP POP PUSH1 0x20 PUSH2 0x824 DUP6 DUP3 DUP7 ADD PUSH2 0x6CD JUMP JUMPDEST SWAP2 POP POP SWAP3 POP SWAP3 SWAP1 POP JUMP JUMPDEST PUSH1 0x0 PUSH2 0x83A DUP4 DUP4 PUSH2 0x929 JUMP JUMPDEST SWAP1 POP SWAP3 SWAP2 POP POP JUMP JUMPDEST PUSH1 0x0 PUSH2 0x84D DUP3 PUSH2 0xA7E JUMP JUMPDEST PUSH2 0x857 DUP2 DUP6 PUSH2 0xAA1 JUMP JUMPDEST SWAP4 POP DUP4 PUSH1 0x20 DUP3 MUL DUP6 ADD PUSH2 0x869 DUP6 PUSH2 0xA6E JUMP JUMPDEST DUP1 PUSH1 0x0 JUMPDEST DUP6 DUP2 LT ISZERO PUSH2 0x8A5 JUMPI DUP5 DUP5 SUB DUP10 MSTORE DUP2 MLOAD PUSH2 0x886 DUP6 DUP3 PUSH2 0x82E JUMP JUMPDEST SWAP5 POP PUSH2 0x891 DUP4 PUSH2 0xA94 JUMP JUMPDEST SWAP3 POP PUSH1 0x20 DUP11 ADD SWAP10 POP POP PUSH1 0x1 DUP2 ADD SWAP1 POP PUSH2 0x86D JUMP JUMPDEST POP DUP3 SWAP8 POP DUP8 SWAP6 POP POP POP POP POP POP SWAP3 SWAP2 POP POP JUMP JUMPDEST PUSH1 0x0 PUSH2 0x8C2 DUP3 PUSH2 0xA89 JUMP JUMPDEST PUSH2 0x8CC DUP2 DUP6 PUSH2 0xAB2 JUMP JUMPDEST SWAP4 POP PUSH2 0x8DC DUP2 DUP6 PUSH1 0x20 DUP7 ADD PUSH2 0xB21 JUMP JUMPDEST PUSH2 0x8E5 DUP2 PUSH2 0xCB6 JUMP JUMPDEST DUP5 ADD SWAP2 POP POP SWAP3 SWAP2 POP POP JUMP JUMPDEST PUSH1 0x0 PUSH2 0x8FB DUP3 PUSH2 0xA89 JUMP JUMPDEST PUSH2 0x905 DUP2 DUP6 PUSH2 0xAC3 JUMP JUMPDEST SWAP4 POP PUSH2 0x915 DUP2 DUP6 PUSH1 0x20 DUP7 ADD PUSH2 0xB21 JUMP JUMPDEST PUSH2 0x91E DUP2 PUSH2 0xCB6 JUMP JUMPDEST DUP5 ADD SWAP2 POP POP SWAP3 SWAP2 POP POP JUMP JUMPDEST PUSH1 0x0 PUSH1 0x80 DUP4 ADD PUSH1 0x0 DUP4 ADD MLOAD DUP5 DUP3 SUB PUSH1 0x0 DUP7 ADD MSTORE PUSH2 0x946 DUP3 DUP3 PUSH2 0x8B7 JUMP JUMPDEST SWAP2 POP POP PUSH1 0x20 DUP4 ADD MLOAD PUSH2 0x95B PUSH1 0x20 DUP7 ADD DUP3 PUSH2 0x98C JUMP JUMPDEST POP PUSH1 0x40 DUP4 ADD MLOAD PUSH2 0x96E PUSH1 0x40 DUP7 ADD DUP3 PUSH2 0x98C JUMP JUMPDEST POP PUSH1 0x60 DUP4 ADD MLOAD PUSH2 0x981 PUSH1 0x60 DUP7 ADD DUP3 PUSH2 0x98C JUMP JUMPDEST POP DUP1 SWAP2 POP POP SWAP3 SWAP2 POP POP JUMP JUMPDEST PUSH2 0x995 DUP2 PUSH2 0xB08 JUMP JUMPDEST DUP3 MSTORE POP POP JUMP JUMPDEST PUSH2 0x9A4 DUP2 PUSH2 0xB08 JUMP JUMPDEST DUP3 MSTORE POP POP JUMP JUMPDEST PUSH1 0x0 PUSH1 0x20 DUP3 ADD SWAP1 POP DUP2 DUP2 SUB PUSH1 0x0 DUP4 ADD MSTORE PUSH2 0x9C4 DUP2 DUP5 PUSH2 0x842 JUMP JUMPDEST SWAP1 POP SWAP3 SWAP2 POP POP JUMP JUMPDEST PUSH1 0x0 PUSH1 0x80 DUP3 ADD SWAP1 POP DUP2 DUP2 SUB PUSH1 0x0 DUP4 ADD MSTORE PUSH2 0x9E6 DUP2 DUP8 PUSH2 0x8F0 JUMP JUMPDEST SWAP1 POP PUSH2 0x9F5 PUSH1 0x20 DUP4 ADD DUP7 PUSH2 0x99B JUMP JUMPDEST PUSH2 0xA02 PUSH1 0x40 DUP4 ADD DUP6 PUSH2 0x99B JUMP JUMPDEST PUSH2 0xA0F PUSH1 0x60 DUP4 ADD DUP5 PUSH2 0x99B JUMP JUMPDEST SWAP6 SWAP5 POP POP POP POP POP JUMP JUMPDEST PUSH1 0x0 PUSH2 0xA22 PUSH2 0xA33 JUMP JUMPDEST SWAP1 POP PUSH2 0xA2E DUP3 DUP3 PUSH2 0xB86 JUMP JUMPDEST SWAP2 SWAP1 POP JUMP JUMPDEST PUSH1 0x0 PUSH1 0x40 MLOAD SWAP1 POP SWAP1 JUMP JUMPDEST PUSH1 0x0 PUSH8 0xFFFFFFFFFFFFFFFF DUP3 GT ISZERO PUSH2 0xA58 JUMPI PUSH2 0xA57 PUSH2 0xC73 JUMP JUMPDEST JUMPDEST PUSH2 0xA61 DUP3 PUSH2 0xCB6 JUMP JUMPDEST SWAP1 POP PUSH1 0x20 DUP2 ADD SWAP1 POP SWAP2 SWAP1 POP JUMP JUMPDEST PUSH1 0x0 DUP2 SWAP1 POP PUSH1 0x20 DUP3 ADD SWAP1 POP SWAP2 SWAP1 POP JUMP JUMPDEST PUSH1 0x0 DUP2 MLOAD SWAP1 POP SWAP2 SWAP1 POP JUMP JUMPDEST PUSH1 0x0 DUP2 MLOAD SWAP1 POP SWAP2 SWAP1 POP JUMP JUMPDEST PUSH1 0x0 PUSH1 0x20 DUP3 ADD SWAP1 POP SWAP2 SWAP1 POP JUMP JUMPDEST PUSH1 0x0 DUP3 DUP3 MSTORE PUSH1 0x20 DUP3 ADD SWAP1 POP SWAP3 SWAP2 POP POP JUMP JUMPDEST PUSH1 0x0 DUP3 DUP3 MSTORE PUSH1 0x20 DUP3 ADD SWAP1 POP SWAP3 SWAP2 POP POP JUMP JUMPDEST PUSH1 0x0 DUP3 DUP3 MSTORE PUSH1 0x20 DUP3 ADD SWAP1 POP SWAP3 SWAP2 POP POP JUMP JUMPDEST PUSH1 0x0 PUSH2 0xADF DUP3 PUSH2 0xB08 JUMP JUMPDEST SWAP2 POP PUSH2 0xAEA DUP4 PUSH2 0xB08 JUMP JUMPDEST SWAP3 POP DUP3 DUP3 LT ISZERO PUSH2 0xAFD JUMPI PUSH2 0xAFC PUSH2 0xBB7 JUMP JUMPDEST JUMPDEST DUP3 DUP3 SUB SWAP1 POP SWAP3 SWAP2 POP POP JUMP JUMPDEST PUSH1 0x0 DUP2 SWAP1 POP SWAP2 SWAP1 POP JUMP JUMPDEST DUP3 DUP2 DUP4 CALLDATACOPY PUSH1 0x0 DUP4 DUP4 ADD MSTORE POP POP POP JUMP JUMPDEST PUSH1 0x0 JUMPDEST DUP4 DUP2 LT ISZERO PUSH2 0xB3F JUMPI DUP1 DUP3 ADD MLOAD DUP2 DUP5 ADD MSTORE PUSH1 0x20 DUP2 ADD SWAP1 POP PUSH2 0xB24 JUMP JUMPDEST DUP4 DUP2 GT ISZERO PUSH2 0xB4E JUMPI PUSH1 0x0 DUP5 DUP5 ADD MSTORE JUMPDEST POP POP POP POP JUMP JUMPDEST PUSH1 0x0 PUSH1 0x2 DUP3 DIV SWAP1 POP PUSH1 0x1 DUP3 AND DUP1 PUSH2 0xB6C JUMPI PUSH1 0x7F DUP3 AND SWAP2 POP JUMPDEST PUSH1 0x20 DUP3 LT DUP2 EQ ISZERO PUSH2 0xB80 JUMPI PUSH2 0xB7F PUSH2 0xBE6 JUMP JUMPDEST JUMPDEST POP SWAP2 SWAP1 POP JUMP JUMPDEST PUSH2 0xB8F DUP3 PUSH2 0xCB6 JUMP JUMPDEST DUP2 ADD DUP2 DUP2 LT PUSH8 0xFFFFFFFFFFFFFFFF DUP3 GT OR ISZERO PUSH2 0xBAE JUMPI PUSH2 0xBAD PUSH2 0xC73 JUMP JUMPDEST JUMPDEST DUP1 PUSH1 0x40 MSTORE POP POP POP JUMP JUMPDEST PUSH32 0x4E487B7100000000000000000000000000000000000000000000000000000000 PUSH1 0x0 MSTORE PUSH1 0x11 PUSH1 0x4 MSTORE PUSH1 0x24 PUSH1 0x0 REVERT JUMPDEST PUSH32 0x4E487B7100000000000000000000000000000000000000000000000000000000 PUSH1 0x0 MSTORE PUSH1 0x22 PUSH1 0x4 MSTORE PUSH1 0x24 PUSH1 0x0 REVERT JUMPDEST PUSH32 0x4E487B7100000000000000000000000000000000000000000000000000000000 PUSH1 0x0 MSTORE PUSH1 0x31 PUSH1 0x4 MSTORE PUSH1 0x24 PUSH1 0x0 REVERT JUMPDEST PUSH32 0x4E487B7100000000000000000000000000000000000000000000000000000000 PUSH1 0x0 MSTORE PUSH1 0x32 PUSH1 0x4 MSTORE PUSH1 0x24 PUSH1 0x0 REVERT JUMPDEST PUSH32 0x4E487B7100000000000000000000000000000000000000000000000000000000 PUSH1 0x0 MSTORE PUSH1 0x41 PUSH1 0x4 MSTORE PUSH1 0x24 PUSH1 0x0 REVERT JUMPDEST PUSH1 0x0 DUP1 REVERT JUMPDEST PUSH1 0x0 DUP1 REVERT JUMPDEST PUSH1 0x0 DUP1 REVERT JUMPDEST PUSH1 0x0 DUP1 REVERT JUMPDEST PUSH1 0x0 PUSH1 0x1F NOT PUSH1 0x1F DUP4 ADD AND SWAP1 POP SWAP2 SWAP1 POP JUMP JUMPDEST PUSH2 0xCD0 DUP2 PUSH2 0xB08 JUMP JUMPDEST DUP2 EQ PUSH2 0xCDB JUMPI PUSH1 0x0 DUP1 REVERT JUMPDEST POP JUMP INVALID LOG2 PUSH5 0x6970667358 0x22 SLT KECCAK256 0xBC 0x27 0xEC DUP12 LOG1 DUP11 PUSH27 0x4280891A902D34174A8C7E180832E03089A4ED27583C6A7F636473 PUSH16 0x6C634300080700330000000000000000 "
				},
				"gasEstimates": {
					"creation": {
						"codeDepositCost": "669600",
						"executionCost": "702",
						"totalCost": "670302"
					},
					"external": {
						"addtolist(string,uint256,uint256,uint256)": "infinite",
						"editDay(uint256,uint256)": "infinite",
						"editMonth(uint256,uint256)": "infinite",
						"editYear(uint256,uint256)": "infinite",
						"editaction(uint256,string)": "infinite",
						"getfromlist(uint256)": "infinite",
						"remfromtodo(uint256)": "infinite",
						"test()": "infinite"
					}
				},
				"methodIdentifiers": {
					"addtolist(string,uint256,uint256,uint256)": "e1b7edff",
					"editDay(uint256,uint256)": "2dc6a8d7",
					"editMonth(uint256,uint256)": "27503a82",
					"editYear(uint256,uint256)": "973e2bbc",
					"editaction(uint256,string)": "12cbb972",
					"getfromlist(uint256)": "7aadbdd3",
					"remfromtodo(uint256)": "9351b078",
					"test()": "f8a8fd6d"
				}
			},
			"storageLayout": {
				"storage": [
					{
						"astId": 14,
						"contract": "Todo.sol:TodoList",
						"label": "todoarr",
						"offset": 0,
						"slot": "0",
						"type": "t_array(t_struct(Todo)10_storage)dyn_storage"
					}
				],
				"types": {
					"t_array(t_struct(Todo)10_storage)dyn_storage": {
						"base": "t_struct(Todo)10_storage",
						"encoding": "dynamic_array",
						"label": "struct TodoList.Todo[]",
						"numberOfBytes": "32"
					},
					"t_string_storage": {
						"encoding": "bytes",
						"label": "string",
						"numberOfBytes": "32"
					},
					"t_struct(Todo)10_storage": {
						"encoding": "inplace",
						"label": "struct TodoList.Todo",
						"members": [
							{
								"astId": 3,
								"contract": "Todo.sol:TodoList",
								"label": "action",
								"offset": 0,
								"slot": "0",
								"type": "t_string_storage"
							},
							{
								"astId": 5,
								"contract": "Todo.sol:TodoList",
								"label": "day",
								"offset": 0,
								"slot": "1",
								"type": "t_uint256"
							},
							{
								"astId": 7,
								"contract": "Todo.sol:TodoList",
								"label": "month",
								"offset": 0,
								"slot": "2",
								"type": "t_uint256"
							},
							{
								"astId": 9,
								"contract": "Todo.sol:TodoList",
								"label": "year",
								"offset": 0,
								"slot": "3",
								"type": "t_uint256"
							}
						],
						"numberOfBytes": "128"
					},
					"t_uint256": {
						"encoding": "inplace",
						"label": "uint256",
						"numberOfBytes": "32"
					}
				}
			},
			"userdoc": {
				"kind": "user",
				"methods": {},
				"version": 1
			}
		}
	}
}