{
	"Piggybank.sol": {
		"Pggybank": {
			"abi": [
				{
					"inputs": [],
					"stateMutability": "nonpayable",
					"type": "constructor"
				},
				{
					"anonymous": false,
					"inputs": [
						{
							"indexed": false,
							"internalType": "uint256",
							"name": "amount",
							"type": "uint256"
						}
					],
					"name": "Deposit",
					"type": "event"
				},
				{
					"anonymous": false,
					"inputs": [
						{
							"indexed": false,
							"internalType": "uint256",
							"name": "amount",
							"type": "uint256"
						}
					],
					"name": "Withdraw",
					"type": "event"
				},
				{
					"inputs": [],
					"name": "withdraw",
					"outputs": [],
					"stateMutability": "payable",
					"type": "function"
				},
				{
					"stateMutability": "payable",
					"type": "receive"
				}
			],
			"devdoc": {
				"kind": "dev",
				"methods": {},
				"version": 1
			},
			"evm": {
				"assembly": "    /* \"Piggybank.sol\":55:468  contract Pggybank{\r... */\n  mstore(0x40, 0x80)\n    /* \"Piggybank.sol\":174:232  constructor(){\r... */\n  callvalue\n  dup1\n  iszero\n  tag_1\n  jumpi\n  0x00\n  dup1\n  revert\ntag_1:\n  pop\n    /* \"Piggybank.sol\":213:223  msg.sender */\n  caller\n    /* \"Piggybank.sol\":198:203  owner */\n  0x00\n  dup1\n    /* \"Piggybank.sol\":198:224  owner= payable(msg.sender) */\n  0x0100\n  exp\n  dup2\n  sload\n  dup2\n  0xffffffffffffffffffffffffffffffffffffffff\n  mul\n  not\n  and\n  swap1\n  dup4\n  0xffffffffffffffffffffffffffffffffffffffff\n  and\n  mul\n  or\n  swap1\n  sstore\n  pop\n    /* \"Piggybank.sol\":55:468  contract Pggybank{\r... */\n  dataSize(sub_0)\n  dup1\n  dataOffset(sub_0)\n  0x00\n  codecopy\n  0x00\n  return\nstop\n\nsub_0: assembly {\n        /* \"Piggybank.sol\":55:468  contract Pggybank{\r... */\n      mstore(0x40, 0x80)\n      jumpi(tag_1, lt(calldatasize, 0x04))\n      shr(0xe0, calldataload(0x00))\n      dup1\n      0x3ccfd60b\n      eq\n      tag_3\n      jumpi\n      jump(tag_2)\n    tag_1:\n      jumpi(tag_2, calldatasize)\n        /* \"Piggybank.sol\":280:298  Deposit(msg.value) */\n      0x4d6ce1e535dbade1c23defba91e23b8f791ce5edc0cc320257a2b364e4e38426\n        /* \"Piggybank.sol\":288:297  msg.value */\n      callvalue\n        /* \"Piggybank.sol\":280:298  Deposit(msg.value) */\n      mload(0x40)\n      tag_6\n      swap2\n      swap1\n      tag_7\n      jump\t// in\n    tag_6:\n      mload(0x40)\n      dup1\n      swap2\n      sub\n      swap1\n      log1\n        /* \"Piggybank.sol\":55:468  contract Pggybank{\r... */\n      stop\n    tag_2:\n      0x00\n      dup1\n      revert\n        /* \"Piggybank.sol\":314:463  function withdraw() payable external{\r... */\n    tag_3:\n      tag_8\n      tag_9\n      jump\t// in\n    tag_8:\n      stop\n    tag_9:\n        /* \"Piggybank.sol\":382:387  owner */\n      0x00\n      dup1\n      sload\n      swap1\n      0x0100\n      exp\n      swap1\n      div\n      0xffffffffffffffffffffffffffffffffffffffff\n      and\n        /* \"Piggybank.sol\":369:387  msg.sender== owner */\n      0xffffffffffffffffffffffffffffffffffffffff\n      and\n        /* \"Piggybank.sol\":369:379  msg.sender */\n      caller\n        /* \"Piggybank.sol\":369:387  msg.sender== owner */\n      0xffffffffffffffffffffffffffffffffffffffff\n      and\n      eq\n        /* \"Piggybank.sol\":361:405  require(msg.sender== owner, \"Not the owner\") */\n      tag_11\n      jumpi\n      mload(0x40)\n      0x08c379a000000000000000000000000000000000000000000000000000000000\n      dup2\n      mstore\n      0x04\n      add\n      tag_12\n      swap1\n      tag_13\n      jump\t// in\n    tag_12:\n      mload(0x40)\n      dup1\n      swap2\n      sub\n      swap1\n      revert\n    tag_11:\n        /* \"Piggybank.sol\":424:434  msg.sender */\n      caller\n        /* \"Piggybank.sol\":416:444  payable(msg.sender).transfer */\n      0xffffffffffffffffffffffffffffffffffffffff\n      and\n        /* \"Piggybank.sol\":416:455  payable(msg.sender).transfer(msg.value) */\n      0x08fc\n        /* \"Piggybank.sol\":445:454  msg.value */\n      callvalue\n        /* \"Piggybank.sol\":416:455  payable(msg.sender).transfer(msg.value) */\n      swap1\n      dup2\n      iszero\n      mul\n      swap1\n      mload(0x40)\n      0x00\n      mload(0x40)\n      dup1\n      dup4\n      sub\n      dup2\n      dup6\n      dup9\n      dup9\n      call\n      swap4\n      pop\n      pop\n      pop\n      pop\n      iszero\n      dup1\n      iszero\n      tag_15\n      jumpi\n      returndatasize\n      0x00\n      dup1\n      returndatacopy\n      revert(0x00, returndatasize)\n    tag_15:\n      pop\n        /* \"Piggybank.sol\":314:463  function withdraw() payable external{\r... */\n      jump\t// out\n        /* \"#utility.yul\":7:373   */\n    tag_17:\n        /* \"#utility.yul\":149:152   */\n      0x00\n        /* \"#utility.yul\":170:237   */\n      tag_19\n        /* \"#utility.yul\":234:236   */\n      0x0d\n        /* \"#utility.yul\":229:232   */\n      dup4\n        /* \"#utility.yul\":170:237   */\n      tag_20\n      jump\t// in\n    tag_19:\n        /* \"#utility.yul\":163:237   */\n      swap2\n      pop\n        /* \"#utility.yul\":246:339   */\n      tag_21\n        /* \"#utility.yul\":335:338   */\n      dup3\n        /* \"#utility.yul\":246:339   */\n      tag_22\n      jump\t// in\n    tag_21:\n        /* \"#utility.yul\":364:366   */\n      0x20\n        /* \"#utility.yul\":359:362   */\n      dup3\n        /* \"#utility.yul\":355:367   */\n      add\n        /* \"#utility.yul\":348:367   */\n      swap1\n      pop\n        /* \"#utility.yul\":7:373   */\n      swap2\n      swap1\n      pop\n      jump\t// out\n        /* \"#utility.yul\":379:497   */\n    tag_23:\n        /* \"#utility.yul\":466:490   */\n      tag_25\n        /* \"#utility.yul\":484:489   */\n      dup2\n        /* \"#utility.yul\":466:490   */\n      tag_26\n      jump\t// in\n    tag_25:\n        /* \"#utility.yul\":461:464   */\n      dup3\n        /* \"#utility.yul\":454:491   */\n      mstore\n        /* \"#utility.yul\":379:497   */\n      pop\n      pop\n      jump\t// out\n        /* \"#utility.yul\":503:922   */\n    tag_13:\n        /* \"#utility.yul\":669:673   */\n      0x00\n        /* \"#utility.yul\":707:709   */\n      0x20\n        /* \"#utility.yul\":696:705   */\n      dup3\n        /* \"#utility.yul\":692:710   */\n      add\n        /* \"#utility.yul\":684:710   */\n      swap1\n      pop\n        /* \"#utility.yul\":756:765   */\n      dup2\n        /* \"#utility.yul\":750:754   */\n      dup2\n        /* \"#utility.yul\":746:766   */\n      sub\n        /* \"#utility.yul\":742:743   */\n      0x00\n        /* \"#utility.yul\":731:740   */\n      dup4\n        /* \"#utility.yul\":727:744   */\n      add\n        /* \"#utility.yul\":720:767   */\n      mstore\n        /* \"#utility.yul\":784:915   */\n      tag_28\n        /* \"#utility.yul\":910:914   */\n      dup2\n        /* \"#utility.yul\":784:915   */\n      tag_17\n      jump\t// in\n    tag_28:\n        /* \"#utility.yul\":776:915   */\n      swap1\n      pop\n        /* \"#utility.yul\":503:922   */\n      swap2\n      swap1\n      pop\n      jump\t// out\n        /* \"#utility.yul\":928:1150   */\n    tag_7:\n        /* \"#utility.yul\":1021:1025   */\n      0x00\n        /* \"#utility.yul\":1059:1061   */\n      0x20\n        /* \"#utility.yul\":1048:1057   */\n      dup3\n        /* \"#utility.yul\":1044:1062   */\n      add\n        /* \"#utility.yul\":1036:1062   */\n      swap1\n      pop\n        /* \"#utility.yul\":1072:1143   */\n      tag_30\n        /* \"#utility.yul\":1140:1141   */\n      0x00\n        /* \"#utility.yul\":1129:1138   */\n      dup4\n        /* \"#utility.yul\":1125:1142   */\n      add\n        /* \"#utility.yul\":1116:1122   */\n      dup5\n        /* \"#utility.yul\":1072:1143   */\n      tag_23\n      jump\t// in\n    tag_30:\n        /* \"#utility.yul\":928:1150   */\n      swap3\n      swap2\n      pop\n      pop\n      jump\t// out\n        /* \"#utility.yul\":1156:1325   */\n    tag_20:\n        /* \"#utility.yul\":1240:1251   */\n      0x00\n        /* \"#utility.yul\":1274:1280   */\n      dup3\n        /* \"#utility.yul\":1269:1272   */\n      dup3\n        /* \"#utility.yul\":1262:1281   */\n      mstore\n        /* \"#utility.yul\":1314:1318   */\n      0x20\n        /* \"#utility.yul\":1309:1312   */\n      dup3\n        /* \"#utility.yul\":1305:1319   */\n      add\n        /* \"#utility.yul\":1290:1319   */\n      swap1\n      pop\n        /* \"#utility.yul\":1156:1325   */\n      swap3\n      swap2\n      pop\n      pop\n      jump\t// out\n        /* \"#utility.yul\":1331:1408   */\n    tag_26:\n        /* \"#utility.yul\":1368:1375   */\n      0x00\n        /* \"#utility.yul\":1397:1402   */\n      dup2\n        /* \"#utility.yul\":1386:1402   */\n      swap1\n      pop\n        /* \"#utility.yul\":1331:1408   */\n      swap2\n      swap1\n      pop\n      jump\t// out\n        /* \"#utility.yul\":1414:1577   */\n    tag_22:\n        /* \"#utility.yul\":1554:1569   */\n      0x4e6f7420746865206f776e657200000000000000000000000000000000000000\n        /* \"#utility.yul\":1550:1551   */\n      0x00\n        /* \"#utility.yul\":1542:1548   */\n      dup3\n        /* \"#utility.yul\":1538:1552   */\n      add\n        /* \"#utility.yul\":1531:1570   */\n      mstore\n        /* \"#utility.yul\":1414:1577   */\n      pop\n      jump\t// out\n\n    auxdata: 0xa2646970667358221220ebe18a10af01b4b0e6a51a9b510949daaf6b8423a86452eeca8aa045661ee61764736f6c63430008070033\n}\n",
				"bytecode": {
					"linkReferences": {},
					"object": "608060405234801561001057600080fd5b50336000806101000a81548173ffffffffffffffffffffffffffffffffffffffff021916908373ffffffffffffffffffffffffffffffffffffffff16021790555061022d806100606000396000f3fe6080604052600436106100225760003560e01c80633ccfd60b1461006557610060565b36610060577f4d6ce1e535dbade1c23defba91e23b8f791ce5edc0cc320257a2b364e4e38426346040516100569190610198565b60405180910390a1005b600080fd5b61006d61006f565b005b60008054906101000a900473ffffffffffffffffffffffffffffffffffffffff1673ffffffffffffffffffffffffffffffffffffffff163373ffffffffffffffffffffffffffffffffffffffff16146100fd576040517f08c379a00000000000000000000000000000000000000000000000000000000081526004016100f490610178565b60405180910390fd5b3373ffffffffffffffffffffffffffffffffffffffff166108fc349081150290604051600060405180830381858888f19350505050158015610143573d6000803e3d6000fd5b50565b6000610153600d836101b3565b915061015e826101ce565b602082019050919050565b610172816101c4565b82525050565b6000602082019050818103600083015261019181610146565b9050919050565b60006020820190506101ad6000830184610169565b92915050565b600082825260208201905092915050565b6000819050919050565b7f4e6f7420746865206f776e65720000000000000000000000000000000000000060008201525056fea2646970667358221220ebe18a10af01b4b0e6a51a9b510949daaf6b8423a86452eeca8aa045661ee61764736f6c63430008070033",
					"opcodes": "PUSH1 0x80 PUSH1 0x40 MSTORE CALLVALUE DUP1 ISZERO PUSH2 0x10 JUMPI PUSH1 0x0 DUP1 REVERT JUMPDEST POP CALLER PUSH1 0x0 DUP1 PUSH2 0x100 EXP DUP2 SLOAD DUP2 PUSH20 0xFFFFFFFFFFFFFFFFFFFFFFFFFFFFFFFFFFFFFFFF MUL NOT AND SWAP1 DUP4 PUSH20 0xFFFFFFFFFFFFFFFFFFFFFFFFFFFFFFFFFFFFFFFF AND MUL OR SWAP1 SSTORE POP PUSH2 0x22D DUP1 PUSH2 0x60 PUSH1 0x0 CODECOPY PUSH1 0x0 RETURN INVALID PUSH1 0x80 PUSH1 0x40 MSTORE PUSH1 0x4 CALLDATASIZE LT PUSH2 0x22 JUMPI PUSH1 0x0 CALLDATALOAD PUSH1 0xE0 SHR DUP1 PUSH4 0x3CCFD60B EQ PUSH2 0x65 JUMPI PUSH2 0x60 JUMP JUMPDEST CALLDATASIZE PUSH2 0x60 JUMPI PUSH32 0x4D6CE1E535DBADE1C23DEFBA91E23B8F791CE5EDC0CC320257A2B364E4E38426 CALLVALUE PUSH1 0x40 MLOAD PUSH2 0x56 SWAP2 SWAP1 PUSH2 0x198 JUMP JUMPDEST PUSH1 0x40 MLOAD DUP1 SWAP2 SUB SWAP1 LOG1 STOP JUMPDEST PUSH1 0x0 DUP1 REVERT JUMPDEST PUSH2 0x6D PUSH2 0x6F JUMP JUMPDEST STOP JUMPDEST PUSH1 0x0 DUP1 SLOAD SWAP1 PUSH2 0x100 EXP SWAP1 DIV PUSH20 0xFFFFFFFFFFFFFFFFFFFFFFFFFFFFFFFFFFFFFFFF AND PUSH20 0xFFFFFFFFFFFFFFFFFFFFFFFFFFFFFFFFFFFFFFFF AND CALLER PUSH20 0xFFFFFFFFFFFFFFFFFFFFFFFFFFFFFFFFFFFFFFFF AND EQ PUSH2 0xFD JUMPI PUSH1 0x40 MLOAD PUSH32 0x8C379A000000000000000000000000000000000000000000000000000000000 DUP2 MSTORE PUSH1 0x4 ADD PUSH2 0xF4 SWAP1 PUSH2 0x178 JUMP JUMPDEST PUSH1 0x40 MLOAD DUP1 SWAP2 SUB SWAP1 REVERT JUMPDEST CALLER PUSH20 0xFFFFFFFFFFFFFFFFFFFFFFFFFFFFFFFFFFFFFFFF AND PUSH2 0x8FC CALLVALUE SWAP1 DUP2 ISZERO MUL SWAP1 PUSH1 0x40 MLOAD PUSH1 0x0 PUSH1 0x40 MLOAD DUP1 DUP4 SUB DUP2 DUP6 DUP9 DUP9 CALL SWAP4 POP POP POP POP ISZERO DUP1 ISZERO PUSH2 0x143 JUMPI RETURNDATASIZE PUSH1 0x0 DUP1 RETURNDATACOPY RETURNDATASIZE PUSH1 0x0 REVERT JUMPDEST POP JUMP JUMPDEST PUSH1 0x0 PUSH2 0x153 PUSH1 0xD DUP4 PUSH2 0x1B3 JUMP JUMPDEST SWAP2 POP PUSH2 0x15E DUP3 PUSH2 0x1CE JUMP JUMPDEST PUSH1 0x20 DUP3 ADD SWAP1 POP SWAP2 SWAP1 POP JUMP JUMPDEST PUSH2 0x172 DUP2 PUSH2 0x1C4 JUMP JUMPDEST DUP3 MSTORE POP POP JUMP JUMPDEST PUSH1 0x0 PUSH1 0x20 DUP3 ADD SWAP1 POP DUP2 DUP2 SUB PUSH1 0x0 DUP4 ADD MSTORE PUSH2 0x191 DUP2 PUSH2 0x146 JUMP JUMPDEST SWAP1 POP SWAP2 SWAP1 POP JUMP JUMPDEST PUSH1 0x0 PUSH1 0x20 DUP3 ADD SWAP1 POP PUSH2 0x1AD PUSH1 0x0 DUP4 ADD DUP5 PUSH2 0x169 JUMP JUMPDEST SWAP3 SWAP2 POP POP JUMP JUMPDEST PUSH1 0x0 DUP3 DUP3 MSTORE PUSH1 0x20 DUP3 ADD SWAP1 POP SWAP3 SWAP2 POP POP JUMP JUMPDEST PUSH1 0x0 DUP2 SWAP1 POP SWAP2 SWAP1 POP JUMP JUMPDEST PUSH32 0x4E6F7420746865206F776E657200000000000000000000000000000000000000 PUSH1 0x0 DUP3 ADD MSTORE POP JUMP INVALID LOG2 PUSH5 0x6970667358 0x22 SLT KECCAK256 0xEB 0xE1 DUP11 LT 0xAF ADD 0xB4 0xB0 0xE6 0xA5 BYTE SWAP12 MLOAD MULMOD 0x49 0xDA 0xAF PUSH12 0x8423A86452EECA8AA045661E 0xE6 OR PUSH5 0x736F6C6343 STOP ADDMOD SMOD STOP CALLER "
				},
				"gasEstimates": {
					"creation": {
						"codeDepositCost": "111400",
						"executionCost": "24425",
						"totalCost": "135825"
					},
					"external": {
						"withdraw()": "infinite"
					}
				},
				"methodIdentifiers": {
					"withdraw()": "3ccfd60b"
				}
			},
			"storageLayout": {
				"storage": [
					{
						"astId": 3,
						"contract": "Piggybank.sol:Pggybank",
						"label": "owner",
						"offset": 0,
						"slot": "0",
						"type": "t_address"
					}
				],
				"types": {
					"t_address": {
						"encoding": "inplace",
						"label": "address",
						"numberOfBytes": "20"
					}
				}
			},
			"userdoc": {
				"kind": "user",
				"methods": {},
				"version": 1
			}
		}
	}
}