{
	"opo.sol": {
		"TodoList": {
			"abi": [
				{
					"inputs": [
						{
							"internalType": "string",
							"name": "_action",
							"type": "string"
						},
						{
							"internalType": "uint32",
							"name": "_day",
							"type": "uint32"
						},
						{
							"internalType": "uint16",
							"name": "_month",
							"type": "uint16"
						},
						{
							"internalType": "uint256",
							"name": "_year",
							"type": "uint256"
						}
					],
					"name": "addtolist",
					"outputs": [],
					"stateMutability": "nonpayable",
					"type": "function"
				},
				{
					"inputs": [
						{
							"internalType": "uint256",
							"name": "_index",
							"type": "uint256"
						}
					],
					"name": "getlist",
					"outputs": [
						{
							"internalType": "string",
							"name": "",
							"type": "string"
						},
						{
							"internalType": "uint256",
							"name": "",
							"type": "uint256"
						},
						{
							"internalType": "uint256",
							"name": "",
							"type": "uint256"
						},
						{
							"internalType": "uint256",
							"name": "",
							"type": "uint256"
						}
					],
					"stateMutability": "view",
					"type": "function"
				},
				{
					"inputs": [
						{
							"internalType": "uint256",
							"name": "",
							"type": "uint256"
						}
					],
					"name": "todoarr",
					"outputs": [
						{
							"internalType": "string",
							"name": "action",
							"type": "string"
						},
						{
							"internalType": "uint32",
							"name": "day",
							"type": "uint32"
						},
						{
							"internalType": "uint16",
							"name": "month",
							"type": "uint16"
						},
						{
							"internalType": "uint256",
							"name": "year",
							"type": "uint256"
						}
					],
					"stateMutability": "view",
					"type": "function"
				}
			],
			"devdoc": {
				"kind": "dev",
				"methods": {},
				"version": 1
			},
			"evm": {
				"assembly": "    /* \"opo.sol\":56:593  contract TodoList{\r... */\n  mstore(0x40, 0x80)\n  callvalue\n  dup1\n  iszero\n  tag_1\n  jumpi\n  0x00\n  dup1\n  revert\ntag_1:\n  pop\n  dataSize(sub_0)\n  dup1\n  dataOffset(sub_0)\n  0x00\n  codecopy\n  0x00\n  return\nstop\n\nsub_0: assembly {\n        /* \"opo.sol\":56:593  contract TodoList{\r... */\n      mstore(0x40, 0x80)\n      callvalue\n      dup1\n      iszero\n      tag_1\n      jumpi\n      0x00\n      dup1\n      revert\n    tag_1:\n      pop\n      jumpi(tag_2, lt(calldatasize, 0x04))\n      shr(0xe0, calldataload(0x00))\n      dup1\n      0x2eecfcda\n      eq\n      tag_3\n      jumpi\n      dup1\n      0x6c9958e0\n      eq\n      tag_4\n      jumpi\n      dup1\n      0xd3729ff6\n      eq\n      tag_5\n      jumpi\n    tag_2:\n      0x00\n      dup1\n      revert\n        /* \"opo.sol\":217:412  function addtolist(string memory _action,uint32 _day,uint16 _month,uint _year) external {\r... */\n    tag_3:\n      tag_6\n      0x04\n      dup1\n      calldatasize\n      sub\n      dup2\n      add\n      swap1\n      tag_7\n      swap2\n      swap1\n      tag_8\n      jump\t// in\n    tag_7:\n      tag_9\n      jump\t// in\n    tag_6:\n      stop\n        /* \"opo.sol\":414:588  function getlist(uint _index) public view returns(string memory,uint,uint,uint){\r... */\n    tag_4:\n      tag_10\n      0x04\n      dup1\n      calldatasize\n      sub\n      dup2\n      add\n      swap1\n      tag_11\n      swap2\n      swap1\n      tag_12\n      jump\t// in\n    tag_11:\n      tag_13\n      jump\t// in\n    tag_10:\n      mload(0x40)\n      tag_14\n      swap5\n      swap4\n      swap3\n      swap2\n      swap1\n      tag_15\n      jump\t// in\n    tag_14:\n      mload(0x40)\n      dup1\n      swap2\n      sub\n      swap1\n      return\n        /* \"opo.sol\":192:213  Todo[] public todoarr */\n    tag_5:\n      tag_16\n      0x04\n      dup1\n      calldatasize\n      sub\n      dup2\n      add\n      swap1\n      tag_17\n      swap2\n      swap1\n      tag_12\n      jump\t// in\n    tag_17:\n      tag_18\n      jump\t// in\n    tag_16:\n      mload(0x40)\n      tag_19\n      swap5\n      swap4\n      swap3\n      swap2\n      swap1\n      tag_20\n      jump\t// in\n    tag_19:\n      mload(0x40)\n      dup1\n      swap2\n      sub\n      swap1\n      return\n        /* \"opo.sol\":217:412  function addtolist(string memory _action,uint32 _day,uint16 _month,uint _year) external {\r... */\n    tag_9:\n        /* \"opo.sol\":308:315  todoarr */\n      0x00\n        /* \"opo.sol\":321:407  Todo({\r... */\n      mload(0x40)\n      dup1\n      0x80\n      add\n      0x40\n      mstore\n      dup1\n        /* \"opo.sol\":341:348  _action */\n      dup7\n        /* \"opo.sol\":321:407  Todo({\r... */\n      dup2\n      mstore\n      0x20\n      add\n        /* \"opo.sol\":360:364  _day */\n      dup6\n        /* \"opo.sol\":321:407  Todo({\r... */\n      0xffffffff\n      and\n      dup2\n      mstore\n      0x20\n      add\n        /* \"opo.sol\":378:384  _month */\n      dup5\n        /* \"opo.sol\":321:407  Todo({\r... */\n      0xffff\n      and\n      dup2\n      mstore\n      0x20\n      add\n        /* \"opo.sol\":398:403  _year */\n      dup4\n        /* \"opo.sol\":321:407  Todo({\r... */\n      dup2\n      mstore\n      pop\n        /* \"opo.sol\":308:408  todoarr.push(Todo({\r... */\n      swap1\n      dup1\n      0x01\n      dup2\n      sload\n      add\n      dup1\n      dup3\n      sstore\n      dup1\n      swap2\n      pop\n      pop\n      0x01\n      swap1\n      sub\n      swap1\n      0x00\n      mstore\n      keccak256(0x00, 0x20)\n      swap1\n      0x03\n      mul\n      add\n      0x00\n      swap1\n      swap2\n      swap1\n      swap2\n      swap1\n      swap2\n      pop\n      0x00\n      dup3\n      add\n      mload\n      dup2\n      0x00\n      add\n      swap1\n      dup1\n      mload\n      swap1\n      0x20\n      add\n      swap1\n      tag_23\n      swap3\n      swap2\n      swap1\n      tag_24\n      jump\t// in\n    tag_23:\n      pop\n      0x20\n      dup3\n      add\n      mload\n      dup2\n      0x01\n      add\n      exp(0x0100, 0x00)\n      dup2\n      sload\n      dup2\n      0xffffffff\n      mul\n      not\n      and\n      swap1\n      dup4\n      0xffffffff\n      and\n      mul\n      or\n      swap1\n      sstore\n      pop\n      0x40\n      dup3\n      add\n      mload\n      dup2\n      0x01\n      add\n      exp(0x0100, 0x04)\n      dup2\n      sload\n      dup2\n      0xffff\n      mul\n      not\n      and\n      swap1\n      dup4\n      0xffff\n      and\n      mul\n      or\n      swap1\n      sstore\n      pop\n      0x60\n      dup3\n      add\n      mload\n      dup2\n      0x02\n      add\n      sstore\n      pop\n      pop\n        /* \"opo.sol\":217:412  function addtolist(string memory _action,uint32 _day,uint16 _month,uint _year) external {\r... */\n      pop\n      pop\n      pop\n      pop\n      jump\t// out\n        /* \"opo.sol\":414:588  function getlist(uint _index) public view returns(string memory,uint,uint,uint){\r... */\n    tag_13:\n        /* \"opo.sol\":464:477  string memory */\n      0x60\n        /* \"opo.sol\":478:482  uint */\n      0x00\n        /* \"opo.sol\":483:487  uint */\n      dup1\n        /* \"opo.sol\":488:492  uint */\n      0x00\n        /* \"opo.sol\":496:512  Todo memory todo */\n      dup1\n        /* \"opo.sol\":515:522  todoarr */\n      0x00\n        /* \"opo.sol\":523:529  _index */\n      dup7\n        /* \"opo.sol\":515:530  todoarr[_index] */\n      dup2\n      sload\n      dup2\n      lt\n      tag_26\n      jumpi\n      tag_27\n      tag_28\n      jump\t// in\n    tag_27:\n    tag_26:\n      swap1\n      0x00\n      mstore\n      keccak256(0x00, 0x20)\n      swap1\n      0x03\n      mul\n      add\n        /* \"opo.sol\":496:530  Todo memory todo = todoarr[_index] */\n      mload(0x40)\n      dup1\n      0x80\n      add\n      0x40\n      mstore\n      swap1\n      dup2\n      0x00\n      dup3\n      add\n      dup1\n      sload\n      tag_30\n      swap1\n      tag_31\n      jump\t// in\n    tag_30:\n      dup1\n      0x1f\n      add\n      0x20\n      dup1\n      swap2\n      div\n      mul\n      0x20\n      add\n      mload(0x40)\n      swap1\n      dup2\n      add\n      0x40\n      mstore\n      dup1\n      swap3\n      swap2\n      swap1\n      dup2\n      dup2\n      mstore\n      0x20\n      add\n      dup3\n      dup1\n      sload\n      tag_32\n      swap1\n      tag_31\n      jump\t// in\n    tag_32:\n      dup1\n      iszero\n      tag_33\n      jumpi\n      dup1\n      0x1f\n      lt\n      tag_34\n      jumpi\n      0x0100\n      dup1\n      dup4\n      sload\n      div\n      mul\n      dup4\n      mstore\n      swap2\n      0x20\n      add\n      swap2\n      jump(tag_33)\n    tag_34:\n      dup3\n      add\n      swap2\n      swap1\n      0x00\n      mstore\n      keccak256(0x00, 0x20)\n      swap1\n    tag_35:\n      dup2\n      sload\n      dup2\n      mstore\n      swap1\n      0x01\n      add\n      swap1\n      0x20\n      add\n      dup1\n      dup4\n      gt\n      tag_35\n      jumpi\n      dup3\n      swap1\n      sub\n      0x1f\n      and\n      dup3\n      add\n      swap2\n    tag_33:\n      pop\n      pop\n      pop\n      pop\n      pop\n      dup2\n      mstore\n      0x20\n      add\n      0x01\n      dup3\n      add\n      0x00\n      swap1\n      sload\n      swap1\n      0x0100\n      exp\n      swap1\n      div\n      0xffffffff\n      and\n      0xffffffff\n      and\n      0xffffffff\n      and\n      dup2\n      mstore\n      0x20\n      add\n      0x01\n      dup3\n      add\n      0x04\n      swap1\n      sload\n      swap1\n      0x0100\n      exp\n      swap1\n      div\n      0xffff\n      and\n      0xffff\n      and\n      0xffff\n      and\n      dup2\n      mstore\n      0x20\n      add\n      0x02\n      dup3\n      add\n      sload\n      dup2\n      mstore\n      pop\n      pop\n      swap1\n      pop\n        /* \"opo.sol\":542:546  todo */\n      dup1\n        /* \"opo.sol\":542:553  todo.action */\n      0x00\n      add\n      mload\n        /* \"opo.sol\":554:558  todo */\n      dup2\n        /* \"opo.sol\":554:562  todo.day */\n      0x20\n      add\n      mload\n        /* \"opo.sol\":563:567  todo */\n      dup3\n        /* \"opo.sol\":563:573  todo.month */\n      0x40\n      add\n      mload\n        /* \"opo.sol\":574:578  todo */\n      dup4\n        /* \"opo.sol\":574:583  todo.year */\n      0x60\n      add\n      mload\n        /* \"opo.sol\":534:584  return (todo.action,todo.day,todo.month,todo.year) */\n      dup3\n      0xffffffff\n      and\n      swap3\n      pop\n      dup2\n      0xffff\n      and\n      swap2\n      pop\n      swap5\n      pop\n      swap5\n      pop\n      swap5\n      pop\n      swap5\n      pop\n      pop\n        /* \"opo.sol\":414:588  function getlist(uint _index) public view returns(string memory,uint,uint,uint){\r... */\n      swap2\n      swap4\n      pop\n      swap2\n      swap4\n      jump\t// out\n        /* \"opo.sol\":192:213  Todo[] public todoarr */\n    tag_18:\n      0x00\n      dup2\n      dup2\n      sload\n      dup2\n      lt\n      tag_36\n      jumpi\n      0x00\n      dup1\n      revert\n    tag_36:\n      swap1\n      0x00\n      mstore\n      keccak256(0x00, 0x20)\n      swap1\n      0x03\n      mul\n      add\n      0x00\n      swap2\n      pop\n      swap1\n      pop\n      dup1\n      0x00\n      add\n      dup1\n      sload\n      tag_38\n      swap1\n      tag_31\n      jump\t// in\n    tag_38:\n      dup1\n      0x1f\n      add\n      0x20\n      dup1\n      swap2\n      div\n      mul\n      0x20\n      add\n      mload(0x40)\n      swap1\n      dup2\n      add\n      0x40\n      mstore\n      dup1\n      swap3\n      swap2\n      swap1\n      dup2\n      dup2\n      mstore\n      0x20\n      add\n      dup3\n      dup1\n      sload\n      tag_39\n      swap1\n      tag_31\n      jump\t// in\n    tag_39:\n      dup1\n      iszero\n      tag_40\n      jumpi\n      dup1\n      0x1f\n      lt\n      tag_41\n      jumpi\n      0x0100\n      dup1\n      dup4\n      sload\n      div\n      mul\n      dup4\n      mstore\n      swap2\n      0x20\n      add\n      swap2\n      jump(tag_40)\n    tag_41:\n      dup3\n      add\n      swap2\n      swap1\n      0x00\n      mstore\n      keccak256(0x00, 0x20)\n      swap1\n    tag_42:\n      dup2\n      sload\n      dup2\n      mstore\n      swap1\n      0x01\n      add\n      swap1\n      0x20\n      add\n      dup1\n      dup4\n      gt\n      tag_42\n      jumpi\n      dup3\n      swap1\n      sub\n      0x1f\n      and\n      dup3\n      add\n      swap2\n    tag_40:\n      pop\n      pop\n      pop\n      pop\n      pop\n      swap1\n      dup1\n      0x01\n      add\n      0x00\n      swap1\n      sload\n      swap1\n      0x0100\n      exp\n      swap1\n      div\n      0xffffffff\n      and\n      swap1\n      dup1\n      0x01\n      add\n      0x04\n      swap1\n      sload\n      swap1\n      0x0100\n      exp\n      swap1\n      div\n      0xffff\n      and\n      swap1\n      dup1\n      0x02\n      add\n      sload\n      swap1\n      pop\n      dup5\n      jump\t// out\n    tag_24:\n      dup3\n      dup1\n      sload\n      tag_43\n      swap1\n      tag_31\n      jump\t// in\n    tag_43:\n      swap1\n      0x00\n      mstore\n      keccak256(0x00, 0x20)\n      swap1\n      0x1f\n      add\n      0x20\n      swap1\n      div\n      dup2\n      add\n      swap3\n      dup3\n      tag_45\n      jumpi\n      0x00\n      dup6\n      sstore\n      jump(tag_44)\n    tag_45:\n      dup3\n      0x1f\n      lt\n      tag_46\n      jumpi\n      dup1\n      mload\n      not(0xff)\n      and\n      dup4\n      dup1\n      add\n      or\n      dup6\n      sstore\n      jump(tag_44)\n    tag_46:\n      dup3\n      dup1\n      add\n      0x01\n      add\n      dup6\n      sstore\n      dup3\n      iszero\n      tag_44\n      jumpi\n      swap2\n      dup3\n      add\n    tag_47:\n      dup3\n      dup2\n      gt\n      iszero\n      tag_48\n      jumpi\n      dup3\n      mload\n      dup3\n      sstore\n      swap2\n      0x20\n      add\n      swap2\n      swap1\n      0x01\n      add\n      swap1\n      jump(tag_47)\n    tag_48:\n    tag_44:\n      pop\n      swap1\n      pop\n      tag_49\n      swap2\n      swap1\n      tag_50\n      jump\t// in\n    tag_49:\n      pop\n      swap1\n      jump\t// out\n    tag_50:\n    tag_51:\n      dup1\n      dup3\n      gt\n      iszero\n      tag_52\n      jumpi\n      0x00\n      dup2\n      0x00\n      swap1\n      sstore\n      pop\n      0x01\n      add\n      jump(tag_51)\n    tag_52:\n      pop\n      swap1\n      jump\t// out\n        /* \"#utility.yul\":7:419   */\n    tag_54:\n        /* \"#utility.yul\":85:90   */\n      0x00\n        /* \"#utility.yul\":110:176   */\n      tag_56\n        /* \"#utility.yul\":126:175   */\n      tag_57\n        /* \"#utility.yul\":168:174   */\n      dup5\n        /* \"#utility.yul\":126:175   */\n      tag_58\n      jump\t// in\n    tag_57:\n        /* \"#utility.yul\":110:176   */\n      tag_59\n      jump\t// in\n    tag_56:\n        /* \"#utility.yul\":101:176   */\n      swap1\n      pop\n        /* \"#utility.yul\":199:205   */\n      dup3\n        /* \"#utility.yul\":192:197   */\n      dup2\n        /* \"#utility.yul\":185:206   */\n      mstore\n        /* \"#utility.yul\":237:241   */\n      0x20\n        /* \"#utility.yul\":230:235   */\n      dup2\n        /* \"#utility.yul\":226:242   */\n      add\n        /* \"#utility.yul\":275:278   */\n      dup5\n        /* \"#utility.yul\":266:272   */\n      dup5\n        /* \"#utility.yul\":261:264   */\n      dup5\n        /* \"#utility.yul\":257:273   */\n      add\n        /* \"#utility.yul\":254:279   */\n      gt\n        /* \"#utility.yul\":251:363   */\n      iszero\n      tag_60\n      jumpi\n        /* \"#utility.yul\":282:361   */\n      tag_61\n      tag_62\n      jump\t// in\n    tag_61:\n        /* \"#utility.yul\":251:363   */\n    tag_60:\n        /* \"#utility.yul\":372:413   */\n      tag_63\n        /* \"#utility.yul\":406:412   */\n      dup5\n        /* \"#utility.yul\":401:404   */\n      dup3\n        /* \"#utility.yul\":396:399   */\n      dup6\n        /* \"#utility.yul\":372:413   */\n      tag_64\n      jump\t// in\n    tag_63:\n        /* \"#utility.yul\":91:419   */\n      pop\n        /* \"#utility.yul\":7:419   */\n      swap4\n      swap3\n      pop\n      pop\n      pop\n      jump\t// out\n        /* \"#utility.yul\":439:779   */\n    tag_65:\n        /* \"#utility.yul\":495:500   */\n      0x00\n        /* \"#utility.yul\":544:547   */\n      dup3\n        /* \"#utility.yul\":537:541   */\n      0x1f\n        /* \"#utility.yul\":529:535   */\n      dup4\n        /* \"#utility.yul\":525:542   */\n      add\n        /* \"#utility.yul\":521:548   */\n      slt\n        /* \"#utility.yul\":511:633   */\n      tag_67\n      jumpi\n        /* \"#utility.yul\":552:631   */\n      tag_68\n      tag_69\n      jump\t// in\n    tag_68:\n        /* \"#utility.yul\":511:633   */\n    tag_67:\n        /* \"#utility.yul\":669:675   */\n      dup2\n        /* \"#utility.yul\":656:676   */\n      calldataload\n        /* \"#utility.yul\":694:773   */\n      tag_70\n        /* \"#utility.yul\":769:772   */\n      dup5\n        /* \"#utility.yul\":761:767   */\n      dup3\n        /* \"#utility.yul\":754:758   */\n      0x20\n        /* \"#utility.yul\":746:752   */\n      dup7\n        /* \"#utility.yul\":742:759   */\n      add\n        /* \"#utility.yul\":694:773   */\n      tag_54\n      jump\t// in\n    tag_70:\n        /* \"#utility.yul\":685:773   */\n      swap2\n      pop\n        /* \"#utility.yul\":501:779   */\n      pop\n        /* \"#utility.yul\":439:779   */\n      swap3\n      swap2\n      pop\n      pop\n      jump\t// out\n        /* \"#utility.yul\":785:922   */\n    tag_71:\n        /* \"#utility.yul\":830:835   */\n      0x00\n        /* \"#utility.yul\":868:874   */\n      dup2\n        /* \"#utility.yul\":855:875   */\n      calldataload\n        /* \"#utility.yul\":846:875   */\n      swap1\n      pop\n        /* \"#utility.yul\":884:916   */\n      tag_73\n        /* \"#utility.yul\":910:915   */\n      dup2\n        /* \"#utility.yul\":884:916   */\n      tag_74\n      jump\t// in\n    tag_73:\n        /* \"#utility.yul\":785:922   */\n      swap3\n      swap2\n      pop\n      pop\n      jump\t// out\n        /* \"#utility.yul\":928:1067   */\n    tag_75:\n        /* \"#utility.yul\":974:979   */\n      0x00\n        /* \"#utility.yul\":1012:1018   */\n      dup2\n        /* \"#utility.yul\":999:1019   */\n      calldataload\n        /* \"#utility.yul\":990:1019   */\n      swap1\n      pop\n        /* \"#utility.yul\":1028:1061   */\n      tag_77\n        /* \"#utility.yul\":1055:1060   */\n      dup2\n        /* \"#utility.yul\":1028:1061   */\n      tag_78\n      jump\t// in\n    tag_77:\n        /* \"#utility.yul\":928:1067   */\n      swap3\n      swap2\n      pop\n      pop\n      jump\t// out\n        /* \"#utility.yul\":1073:1210   */\n    tag_79:\n        /* \"#utility.yul\":1118:1123   */\n      0x00\n        /* \"#utility.yul\":1156:1162   */\n      dup2\n        /* \"#utility.yul\":1143:1163   */\n      calldataload\n        /* \"#utility.yul\":1134:1163   */\n      swap1\n      pop\n        /* \"#utility.yul\":1172:1204   */\n      tag_81\n        /* \"#utility.yul\":1198:1203   */\n      dup2\n        /* \"#utility.yul\":1172:1204   */\n      tag_82\n      jump\t// in\n    tag_81:\n        /* \"#utility.yul\":1073:1210   */\n      swap3\n      swap2\n      pop\n      pop\n      jump\t// out\n        /* \"#utility.yul\":1216:2157   */\n    tag_8:\n        /* \"#utility.yul\":1310:1316   */\n      0x00\n        /* \"#utility.yul\":1318:1324   */\n      dup1\n        /* \"#utility.yul\":1326:1332   */\n      0x00\n        /* \"#utility.yul\":1334:1340   */\n      dup1\n        /* \"#utility.yul\":1383:1386   */\n      0x80\n        /* \"#utility.yul\":1371:1380   */\n      dup6\n        /* \"#utility.yul\":1362:1369   */\n      dup8\n        /* \"#utility.yul\":1358:1381   */\n      sub\n        /* \"#utility.yul\":1354:1387   */\n      slt\n        /* \"#utility.yul\":1351:1471   */\n      iszero\n      tag_84\n      jumpi\n        /* \"#utility.yul\":1390:1469   */\n      tag_85\n      tag_86\n      jump\t// in\n    tag_85:\n        /* \"#utility.yul\":1351:1471   */\n    tag_84:\n        /* \"#utility.yul\":1538:1539   */\n      0x00\n        /* \"#utility.yul\":1527:1536   */\n      dup6\n        /* \"#utility.yul\":1523:1540   */\n      add\n        /* \"#utility.yul\":1510:1541   */\n      calldataload\n        /* \"#utility.yul\":1568:1586   */\n      0xffffffffffffffff\n        /* \"#utility.yul\":1560:1566   */\n      dup2\n        /* \"#utility.yul\":1557:1587   */\n      gt\n        /* \"#utility.yul\":1554:1671   */\n      iszero\n      tag_87\n      jumpi\n        /* \"#utility.yul\":1590:1669   */\n      tag_88\n      tag_89\n      jump\t// in\n    tag_88:\n        /* \"#utility.yul\":1554:1671   */\n    tag_87:\n        /* \"#utility.yul\":1695:1758   */\n      tag_90\n        /* \"#utility.yul\":1750:1757   */\n      dup8\n        /* \"#utility.yul\":1741:1747   */\n      dup3\n        /* \"#utility.yul\":1730:1739   */\n      dup9\n        /* \"#utility.yul\":1726:1748   */\n      add\n        /* \"#utility.yul\":1695:1758   */\n      tag_65\n      jump\t// in\n    tag_90:\n        /* \"#utility.yul\":1685:1758   */\n      swap5\n      pop\n        /* \"#utility.yul\":1481:1768   */\n      pop\n        /* \"#utility.yul\":1807:1809   */\n      0x20\n        /* \"#utility.yul\":1833:1885   */\n      tag_91\n        /* \"#utility.yul\":1877:1884   */\n      dup8\n        /* \"#utility.yul\":1868:1874   */\n      dup3\n        /* \"#utility.yul\":1857:1866   */\n      dup9\n        /* \"#utility.yul\":1853:1875   */\n      add\n        /* \"#utility.yul\":1833:1885   */\n      tag_79\n      jump\t// in\n    tag_91:\n        /* \"#utility.yul\":1823:1885   */\n      swap4\n      pop\n        /* \"#utility.yul\":1778:1895   */\n      pop\n        /* \"#utility.yul\":1934:1936   */\n      0x40\n        /* \"#utility.yul\":1960:2012   */\n      tag_92\n        /* \"#utility.yul\":2004:2011   */\n      dup8\n        /* \"#utility.yul\":1995:2001   */\n      dup3\n        /* \"#utility.yul\":1984:1993   */\n      dup9\n        /* \"#utility.yul\":1980:2002   */\n      add\n        /* \"#utility.yul\":1960:2012   */\n      tag_71\n      jump\t// in\n    tag_92:\n        /* \"#utility.yul\":1950:2012   */\n      swap3\n      pop\n        /* \"#utility.yul\":1905:2022   */\n      pop\n        /* \"#utility.yul\":2061:2063   */\n      0x60\n        /* \"#utility.yul\":2087:2140   */\n      tag_93\n        /* \"#utility.yul\":2132:2139   */\n      dup8\n        /* \"#utility.yul\":2123:2129   */\n      dup3\n        /* \"#utility.yul\":2112:2121   */\n      dup9\n        /* \"#utility.yul\":2108:2130   */\n      add\n        /* \"#utility.yul\":2087:2140   */\n      tag_75\n      jump\t// in\n    tag_93:\n        /* \"#utility.yul\":2077:2140   */\n      swap2\n      pop\n        /* \"#utility.yul\":2032:2150   */\n      pop\n        /* \"#utility.yul\":1216:2157   */\n      swap3\n      swap6\n      swap2\n      swap5\n      pop\n      swap3\n      pop\n      jump\t// out\n        /* \"#utility.yul\":2163:2492   */\n    tag_12:\n        /* \"#utility.yul\":2222:2228   */\n      0x00\n        /* \"#utility.yul\":2271:2273   */\n      0x20\n        /* \"#utility.yul\":2259:2268   */\n      dup3\n        /* \"#utility.yul\":2250:2257   */\n      dup5\n        /* \"#utility.yul\":2246:2269   */\n      sub\n        /* \"#utility.yul\":2242:2274   */\n      slt\n        /* \"#utility.yul\":2239:2358   */\n      iszero\n      tag_95\n      jumpi\n        /* \"#utility.yul\":2277:2356   */\n      tag_96\n      tag_86\n      jump\t// in\n    tag_96:\n        /* \"#utility.yul\":2239:2358   */\n    tag_95:\n        /* \"#utility.yul\":2397:2398   */\n      0x00\n        /* \"#utility.yul\":2422:2475   */\n      tag_97\n        /* \"#utility.yul\":2467:2474   */\n      dup5\n        /* \"#utility.yul\":2458:2464   */\n      dup3\n        /* \"#utility.yul\":2447:2456   */\n      dup6\n        /* \"#utility.yul\":2443:2465   */\n      add\n        /* \"#utility.yul\":2422:2475   */\n      tag_75\n      jump\t// in\n    tag_97:\n        /* \"#utility.yul\":2412:2475   */\n      swap2\n      pop\n        /* \"#utility.yul\":2368:2485   */\n      pop\n        /* \"#utility.yul\":2163:2492   */\n      swap3\n      swap2\n      pop\n      pop\n      jump\t// out\n        /* \"#utility.yul\":2498:2862   */\n    tag_98:\n        /* \"#utility.yul\":2586:2589   */\n      0x00\n        /* \"#utility.yul\":2614:2653   */\n      tag_100\n        /* \"#utility.yul\":2647:2652   */\n      dup3\n        /* \"#utility.yul\":2614:2653   */\n      tag_101\n      jump\t// in\n    tag_100:\n        /* \"#utility.yul\":2669:2740   */\n      tag_102\n        /* \"#utility.yul\":2733:2739   */\n      dup2\n        /* \"#utility.yul\":2728:2731   */\n      dup6\n        /* \"#utility.yul\":2669:2740   */\n      tag_103\n      jump\t// in\n    tag_102:\n        /* \"#utility.yul\":2662:2740   */\n      swap4\n      pop\n        /* \"#utility.yul\":2749:2801   */\n      tag_104\n        /* \"#utility.yul\":2794:2800   */\n      dup2\n        /* \"#utility.yul\":2789:2792   */\n      dup6\n        /* \"#utility.yul\":2782:2786   */\n      0x20\n        /* \"#utility.yul\":2775:2780   */\n      dup7\n        /* \"#utility.yul\":2771:2787   */\n      add\n        /* \"#utility.yul\":2749:2801   */\n      tag_105\n      jump\t// in\n    tag_104:\n        /* \"#utility.yul\":2826:2855   */\n      tag_106\n        /* \"#utility.yul\":2848:2854   */\n      dup2\n        /* \"#utility.yul\":2826:2855   */\n      tag_107\n      jump\t// in\n    tag_106:\n        /* \"#utility.yul\":2821:2824   */\n      dup5\n        /* \"#utility.yul\":2817:2856   */\n      add\n        /* \"#utility.yul\":2810:2856   */\n      swap2\n      pop\n        /* \"#utility.yul\":2590:2862   */\n      pop\n        /* \"#utility.yul\":2498:2862   */\n      swap3\n      swap2\n      pop\n      pop\n      jump\t// out\n        /* \"#utility.yul\":2868:2983   */\n    tag_108:\n        /* \"#utility.yul\":2953:2976   */\n      tag_110\n        /* \"#utility.yul\":2970:2975   */\n      dup2\n        /* \"#utility.yul\":2953:2976   */\n      tag_111\n      jump\t// in\n    tag_110:\n        /* \"#utility.yul\":2948:2951   */\n      dup3\n        /* \"#utility.yul\":2941:2977   */\n      mstore\n        /* \"#utility.yul\":2868:2983   */\n      pop\n      pop\n      jump\t// out\n        /* \"#utility.yul\":2989:3107   */\n    tag_112:\n        /* \"#utility.yul\":3076:3100   */\n      tag_114\n        /* \"#utility.yul\":3094:3099   */\n      dup2\n        /* \"#utility.yul\":3076:3100   */\n      tag_115\n      jump\t// in\n    tag_114:\n        /* \"#utility.yul\":3071:3074   */\n      dup3\n        /* \"#utility.yul\":3064:3101   */\n      mstore\n        /* \"#utility.yul\":2989:3107   */\n      pop\n      pop\n      jump\t// out\n        /* \"#utility.yul\":3113:3228   */\n    tag_116:\n        /* \"#utility.yul\":3198:3221   */\n      tag_118\n        /* \"#utility.yul\":3215:3220   */\n      dup2\n        /* \"#utility.yul\":3198:3221   */\n      tag_119\n      jump\t// in\n    tag_118:\n        /* \"#utility.yul\":3193:3196   */\n      dup3\n        /* \"#utility.yul\":3186:3222   */\n      mstore\n        /* \"#utility.yul\":3113:3228   */\n      pop\n      pop\n      jump\t// out\n        /* \"#utility.yul\":3234:3878   */\n    tag_15:\n        /* \"#utility.yul\":3431:3435   */\n      0x00\n        /* \"#utility.yul\":3469:3472   */\n      0x80\n        /* \"#utility.yul\":3458:3467   */\n      dup3\n        /* \"#utility.yul\":3454:3473   */\n      add\n        /* \"#utility.yul\":3446:3473   */\n      swap1\n      pop\n        /* \"#utility.yul\":3519:3528   */\n      dup2\n        /* \"#utility.yul\":3513:3517   */\n      dup2\n        /* \"#utility.yul\":3509:3529   */\n      sub\n        /* \"#utility.yul\":3505:3506   */\n      0x00\n        /* \"#utility.yul\":3494:3503   */\n      dup4\n        /* \"#utility.yul\":3490:3507   */\n      add\n        /* \"#utility.yul\":3483:3530   */\n      mstore\n        /* \"#utility.yul\":3547:3625   */\n      tag_121\n        /* \"#utility.yul\":3620:3624   */\n      dup2\n        /* \"#utility.yul\":3611:3617   */\n      dup8\n        /* \"#utility.yul\":3547:3625   */\n      tag_98\n      jump\t// in\n    tag_121:\n        /* \"#utility.yul\":3539:3625   */\n      swap1\n      pop\n        /* \"#utility.yul\":3635:3707   */\n      tag_122\n        /* \"#utility.yul\":3703:3705   */\n      0x20\n        /* \"#utility.yul\":3692:3701   */\n      dup4\n        /* \"#utility.yul\":3688:3706   */\n      add\n        /* \"#utility.yul\":3679:3685   */\n      dup7\n        /* \"#utility.yul\":3635:3707   */\n      tag_112\n      jump\t// in\n    tag_122:\n        /* \"#utility.yul\":3717:3789   */\n      tag_123\n        /* \"#utility.yul\":3785:3787   */\n      0x40\n        /* \"#utility.yul\":3774:3783   */\n      dup4\n        /* \"#utility.yul\":3770:3788   */\n      add\n        /* \"#utility.yul\":3761:3767   */\n      dup6\n        /* \"#utility.yul\":3717:3789   */\n      tag_112\n      jump\t// in\n    tag_123:\n        /* \"#utility.yul\":3799:3871   */\n      tag_124\n        /* \"#utility.yul\":3867:3869   */\n      0x60\n        /* \"#utility.yul\":3856:3865   */\n      dup4\n        /* \"#utility.yul\":3852:3870   */\n      add\n        /* \"#utility.yul\":3843:3849   */\n      dup5\n        /* \"#utility.yul\":3799:3871   */\n      tag_112\n      jump\t// in\n    tag_124:\n        /* \"#utility.yul\":3234:3878   */\n      swap6\n      swap5\n      pop\n      pop\n      pop\n      pop\n      pop\n      jump\t// out\n        /* \"#utility.yul\":3884:4520   */\n    tag_20:\n        /* \"#utility.yul\":4077:4081   */\n      0x00\n        /* \"#utility.yul\":4115:4118   */\n      0x80\n        /* \"#utility.yul\":4104:4113   */\n      dup3\n        /* \"#utility.yul\":4100:4119   */\n      add\n        /* \"#utility.yul\":4092:4119   */\n      swap1\n      pop\n        /* \"#utility.yul\":4165:4174   */\n      dup2\n        /* \"#utility.yul\":4159:4163   */\n      dup2\n        /* \"#utility.yul\":4155:4175   */\n      sub\n        /* \"#utility.yul\":4151:4152   */\n      0x00\n        /* \"#utility.yul\":4140:4149   */\n      dup4\n        /* \"#utility.yul\":4136:4153   */\n      add\n        /* \"#utility.yul\":4129:4176   */\n      mstore\n        /* \"#utility.yul\":4193:4271   */\n      tag_126\n        /* \"#utility.yul\":4266:4270   */\n      dup2\n        /* \"#utility.yul\":4257:4263   */\n      dup8\n        /* \"#utility.yul\":4193:4271   */\n      tag_98\n      jump\t// in\n    tag_126:\n        /* \"#utility.yul\":4185:4271   */\n      swap1\n      pop\n        /* \"#utility.yul\":4281:4351   */\n      tag_127\n        /* \"#utility.yul\":4347:4349   */\n      0x20\n        /* \"#utility.yul\":4336:4345   */\n      dup4\n        /* \"#utility.yul\":4332:4350   */\n      add\n        /* \"#utility.yul\":4323:4329   */\n      dup7\n        /* \"#utility.yul\":4281:4351   */\n      tag_116\n      jump\t// in\n    tag_127:\n        /* \"#utility.yul\":4361:4431   */\n      tag_128\n        /* \"#utility.yul\":4427:4429   */\n      0x40\n        /* \"#utility.yul\":4416:4425   */\n      dup4\n        /* \"#utility.yul\":4412:4430   */\n      add\n        /* \"#utility.yul\":4403:4409   */\n      dup6\n        /* \"#utility.yul\":4361:4431   */\n      tag_108\n      jump\t// in\n    tag_128:\n        /* \"#utility.yul\":4441:4513   */\n      tag_129\n        /* \"#utility.yul\":4509:4511   */\n      0x60\n        /* \"#utility.yul\":4498:4507   */\n      dup4\n        /* \"#utility.yul\":4494:4512   */\n      add\n        /* \"#utility.yul\":4485:4491   */\n      dup5\n        /* \"#utility.yul\":4441:4513   */\n      tag_112\n      jump\t// in\n    tag_129:\n        /* \"#utility.yul\":3884:4520   */\n      swap6\n      swap5\n      pop\n      pop\n      pop\n      pop\n      pop\n      jump\t// out\n        /* \"#utility.yul\":4526:4655   */\n    tag_59:\n        /* \"#utility.yul\":4560:4566   */\n      0x00\n        /* \"#utility.yul\":4587:4607   */\n      tag_131\n      tag_132\n      jump\t// in\n    tag_131:\n        /* \"#utility.yul\":4577:4607   */\n      swap1\n      pop\n        /* \"#utility.yul\":4616:4649   */\n      tag_133\n        /* \"#utility.yul\":4644:4648   */\n      dup3\n        /* \"#utility.yul\":4636:4642   */\n      dup3\n        /* \"#utility.yul\":4616:4649   */\n      tag_134\n      jump\t// in\n    tag_133:\n        /* \"#utility.yul\":4526:4655   */\n      swap2\n      swap1\n      pop\n      jump\t// out\n        /* \"#utility.yul\":4661:4736   */\n    tag_132:\n        /* \"#utility.yul\":4694:4700   */\n      0x00\n        /* \"#utility.yul\":4727:4729   */\n      0x40\n        /* \"#utility.yul\":4721:4730   */\n      mload\n        /* \"#utility.yul\":4711:4730   */\n      swap1\n      pop\n        /* \"#utility.yul\":4661:4736   */\n      swap1\n      jump\t// out\n        /* \"#utility.yul\":4742:5050   */\n    tag_58:\n        /* \"#utility.yul\":4804:4808   */\n      0x00\n        /* \"#utility.yul\":4894:4912   */\n      0xffffffffffffffff\n        /* \"#utility.yul\":4886:4892   */\n      dup3\n        /* \"#utility.yul\":4883:4913   */\n      gt\n        /* \"#utility.yul\":4880:4936   */\n      iszero\n      tag_137\n      jumpi\n        /* \"#utility.yul\":4916:4934   */\n      tag_138\n      tag_139\n      jump\t// in\n    tag_138:\n        /* \"#utility.yul\":4880:4936   */\n    tag_137:\n        /* \"#utility.yul\":4954:4983   */\n      tag_140\n        /* \"#utility.yul\":4976:4982   */\n      dup3\n        /* \"#utility.yul\":4954:4983   */\n      tag_107\n      jump\t// in\n    tag_140:\n        /* \"#utility.yul\":4946:4983   */\n      swap1\n      pop\n        /* \"#utility.yul\":5038:5042   */\n      0x20\n        /* \"#utility.yul\":5032:5036   */\n      dup2\n        /* \"#utility.yul\":5028:5043   */\n      add\n        /* \"#utility.yul\":5020:5043   */\n      swap1\n      pop\n        /* \"#utility.yul\":4742:5050   */\n      swap2\n      swap1\n      pop\n      jump\t// out\n        /* \"#utility.yul\":5056:5155   */\n    tag_101:\n        /* \"#utility.yul\":5108:5114   */\n      0x00\n        /* \"#utility.yul\":5142:5147   */\n      dup2\n        /* \"#utility.yul\":5136:5148   */\n      mload\n        /* \"#utility.yul\":5126:5148   */\n      swap1\n      pop\n        /* \"#utility.yul\":5056:5155   */\n      swap2\n      swap1\n      pop\n      jump\t// out\n        /* \"#utility.yul\":5161:5330   */\n    tag_103:\n        /* \"#utility.yul\":5245:5256   */\n      0x00\n        /* \"#utility.yul\":5279:5285   */\n      dup3\n        /* \"#utility.yul\":5274:5277   */\n      dup3\n        /* \"#utility.yul\":5267:5286   */\n      mstore\n        /* \"#utility.yul\":5319:5323   */\n      0x20\n        /* \"#utility.yul\":5314:5317   */\n      dup3\n        /* \"#utility.yul\":5310:5324   */\n      add\n        /* \"#utility.yul\":5295:5324   */\n      swap1\n      pop\n        /* \"#utility.yul\":5161:5330   */\n      swap3\n      swap2\n      pop\n      pop\n      jump\t// out\n        /* \"#utility.yul\":5336:5425   */\n    tag_111:\n        /* \"#utility.yul\":5372:5379   */\n      0x00\n        /* \"#utility.yul\":5412:5418   */\n      0xffff\n        /* \"#utility.yul\":5405:5410   */\n      dup3\n        /* \"#utility.yul\":5401:5419   */\n      and\n        /* \"#utility.yul\":5390:5419   */\n      swap1\n      pop\n        /* \"#utility.yul\":5336:5425   */\n      swap2\n      swap1\n      pop\n      jump\t// out\n        /* \"#utility.yul\":5431:5508   */\n    tag_115:\n        /* \"#utility.yul\":5468:5475   */\n      0x00\n        /* \"#utility.yul\":5497:5502   */\n      dup2\n        /* \"#utility.yul\":5486:5502   */\n      swap1\n      pop\n        /* \"#utility.yul\":5431:5508   */\n      swap2\n      swap1\n      pop\n      jump\t// out\n        /* \"#utility.yul\":5514:5607   */\n    tag_119:\n        /* \"#utility.yul\":5550:5557   */\n      0x00\n        /* \"#utility.yul\":5590:5600   */\n      0xffffffff\n        /* \"#utility.yul\":5583:5588   */\n      dup3\n        /* \"#utility.yul\":5579:5601   */\n      and\n        /* \"#utility.yul\":5568:5601   */\n      swap1\n      pop\n        /* \"#utility.yul\":5514:5607   */\n      swap2\n      swap1\n      pop\n      jump\t// out\n        /* \"#utility.yul\":5613:5767   */\n    tag_64:\n        /* \"#utility.yul\":5697:5703   */\n      dup3\n        /* \"#utility.yul\":5692:5695   */\n      dup2\n        /* \"#utility.yul\":5687:5690   */\n      dup4\n        /* \"#utility.yul\":5674:5704   */\n      calldatacopy\n        /* \"#utility.yul\":5759:5760   */\n      0x00\n        /* \"#utility.yul\":5750:5756   */\n      dup4\n        /* \"#utility.yul\":5745:5748   */\n      dup4\n        /* \"#utility.yul\":5741:5757   */\n      add\n        /* \"#utility.yul\":5734:5761   */\n      mstore\n        /* \"#utility.yul\":5613:5767   */\n      pop\n      pop\n      pop\n      jump\t// out\n        /* \"#utility.yul\":5773:6080   */\n    tag_105:\n        /* \"#utility.yul\":5841:5842   */\n      0x00\n        /* \"#utility.yul\":5851:5964   */\n    tag_148:\n        /* \"#utility.yul\":5865:5871   */\n      dup4\n        /* \"#utility.yul\":5862:5863   */\n      dup2\n        /* \"#utility.yul\":5859:5872   */\n      lt\n        /* \"#utility.yul\":5851:5964   */\n      iszero\n      tag_150\n      jumpi\n        /* \"#utility.yul\":5950:5951   */\n      dup1\n        /* \"#utility.yul\":5945:5948   */\n      dup3\n        /* \"#utility.yul\":5941:5952   */\n      add\n        /* \"#utility.yul\":5935:5953   */\n      mload\n        /* \"#utility.yul\":5931:5932   */\n      dup2\n        /* \"#utility.yul\":5926:5929   */\n      dup5\n        /* \"#utility.yul\":5922:5933   */\n      add\n        /* \"#utility.yul\":5915:5954   */\n      mstore\n        /* \"#utility.yul\":5887:5889   */\n      0x20\n        /* \"#utility.yul\":5884:5885   */\n      dup2\n        /* \"#utility.yul\":5880:5890   */\n      add\n        /* \"#utility.yul\":5875:5890   */\n      swap1\n      pop\n        /* \"#utility.yul\":5851:5964   */\n      jump(tag_148)\n    tag_150:\n        /* \"#utility.yul\":5982:5988   */\n      dup4\n        /* \"#utility.yul\":5979:5980   */\n      dup2\n        /* \"#utility.yul\":5976:5989   */\n      gt\n        /* \"#utility.yul\":5973:6074   */\n      iszero\n      tag_151\n      jumpi\n        /* \"#utility.yul\":6062:6063   */\n      0x00\n        /* \"#utility.yul\":6053:6059   */\n      dup5\n        /* \"#utility.yul\":6048:6051   */\n      dup5\n        /* \"#utility.yul\":6044:6060   */\n      add\n        /* \"#utility.yul\":6037:6064   */\n      mstore\n        /* \"#utility.yul\":5973:6074   */\n    tag_151:\n        /* \"#utility.yul\":5822:6080   */\n      pop\n        /* \"#utility.yul\":5773:6080   */\n      pop\n      pop\n      pop\n      jump\t// out\n        /* \"#utility.yul\":6086:6406   */\n    tag_31:\n        /* \"#utility.yul\":6130:6136   */\n      0x00\n        /* \"#utility.yul\":6167:6168   */\n      0x02\n        /* \"#utility.yul\":6161:6165   */\n      dup3\n        /* \"#utility.yul\":6157:6169   */\n      div\n        /* \"#utility.yul\":6147:6169   */\n      swap1\n      pop\n        /* \"#utility.yul\":6214:6215   */\n      0x01\n        /* \"#utility.yul\":6208:6212   */\n      dup3\n        /* \"#utility.yul\":6204:6216   */\n      and\n        /* \"#utility.yul\":6235:6253   */\n      dup1\n        /* \"#utility.yul\":6225:6306   */\n      tag_153\n      jumpi\n        /* \"#utility.yul\":6291:6295   */\n      0x7f\n        /* \"#utility.yul\":6283:6289   */\n      dup3\n        /* \"#utility.yul\":6279:6296   */\n      and\n        /* \"#utility.yul\":6269:6296   */\n      swap2\n      pop\n        /* \"#utility.yul\":6225:6306   */\n    tag_153:\n        /* \"#utility.yul\":6353:6355   */\n      0x20\n        /* \"#utility.yul\":6345:6351   */\n      dup3\n        /* \"#utility.yul\":6342:6356   */\n      lt\n        /* \"#utility.yul\":6322:6340   */\n      dup2\n        /* \"#utility.yul\":6319:6357   */\n      eq\n        /* \"#utility.yul\":6316:6400   */\n      iszero\n      tag_154\n      jumpi\n        /* \"#utility.yul\":6372:6390   */\n      tag_155\n      tag_156\n      jump\t// in\n    tag_155:\n        /* \"#utility.yul\":6316:6400   */\n    tag_154:\n        /* \"#utility.yul\":6137:6406   */\n      pop\n        /* \"#utility.yul\":6086:6406   */\n      swap2\n      swap1\n      pop\n      jump\t// out\n        /* \"#utility.yul\":6412:6693   */\n    tag_134:\n        /* \"#utility.yul\":6495:6522   */\n      tag_158\n        /* \"#utility.yul\":6517:6521   */\n      dup3\n        /* \"#utility.yul\":6495:6522   */\n      tag_107\n      jump\t// in\n    tag_158:\n        /* \"#utility.yul\":6487:6493   */\n      dup2\n        /* \"#utility.yul\":6483:6523   */\n      add\n        /* \"#utility.yul\":6625:6631   */\n      dup2\n        /* \"#utility.yul\":6613:6623   */\n      dup2\n        /* \"#utility.yul\":6610:6632   */\n      lt\n        /* \"#utility.yul\":6589:6607   */\n      0xffffffffffffffff\n        /* \"#utility.yul\":6577:6587   */\n      dup3\n        /* \"#utility.yul\":6574:6608   */\n      gt\n        /* \"#utility.yul\":6571:6633   */\n      or\n        /* \"#utility.yul\":6568:6656   */\n      iszero\n      tag_159\n      jumpi\n        /* \"#utility.yul\":6636:6654   */\n      tag_160\n      tag_139\n      jump\t// in\n    tag_160:\n        /* \"#utility.yul\":6568:6656   */\n    tag_159:\n        /* \"#utility.yul\":6676:6686   */\n      dup1\n        /* \"#utility.yul\":6672:6674   */\n      0x40\n        /* \"#utility.yul\":6665:6687   */\n      mstore\n        /* \"#utility.yul\":6455:6693   */\n      pop\n        /* \"#utility.yul\":6412:6693   */\n      pop\n      pop\n      jump\t// out\n        /* \"#utility.yul\":6699:6879   */\n    tag_156:\n        /* \"#utility.yul\":6747:6824   */\n      0x4e487b7100000000000000000000000000000000000000000000000000000000\n        /* \"#utility.yul\":6744:6745   */\n      0x00\n        /* \"#utility.yul\":6737:6825   */\n      mstore\n        /* \"#utility.yul\":6844:6848   */\n      0x22\n        /* \"#utility.yul\":6841:6842   */\n      0x04\n        /* \"#utility.yul\":6834:6849   */\n      mstore\n        /* \"#utility.yul\":6868:6872   */\n      0x24\n        /* \"#utility.yul\":6865:6866   */\n      0x00\n        /* \"#utility.yul\":6858:6873   */\n      revert\n        /* \"#utility.yul\":6885:7065   */\n    tag_28:\n        /* \"#utility.yul\":6933:7010   */\n      0x4e487b7100000000000000000000000000000000000000000000000000000000\n        /* \"#utility.yul\":6930:6931   */\n      0x00\n        /* \"#utility.yul\":6923:7011   */\n      mstore\n        /* \"#utility.yul\":7030:7034   */\n      0x32\n        /* \"#utility.yul\":7027:7028   */\n      0x04\n        /* \"#utility.yul\":7020:7035   */\n      mstore\n        /* \"#utility.yul\":7054:7058   */\n      0x24\n        /* \"#utility.yul\":7051:7052   */\n      0x00\n        /* \"#utility.yul\":7044:7059   */\n      revert\n        /* \"#utility.yul\":7071:7251   */\n    tag_139:\n        /* \"#utility.yul\":7119:7196   */\n      0x4e487b7100000000000000000000000000000000000000000000000000000000\n        /* \"#utility.yul\":7116:7117   */\n      0x00\n        /* \"#utility.yul\":7109:7197   */\n      mstore\n        /* \"#utility.yul\":7216:7220   */\n      0x41\n        /* \"#utility.yul\":7213:7214   */\n      0x04\n        /* \"#utility.yul\":7206:7221   */\n      mstore\n        /* \"#utility.yul\":7240:7244   */\n      0x24\n        /* \"#utility.yul\":7237:7238   */\n      0x00\n        /* \"#utility.yul\":7230:7245   */\n      revert\n        /* \"#utility.yul\":7257:7374   */\n    tag_69:\n        /* \"#utility.yul\":7366:7367   */\n      0x00\n        /* \"#utility.yul\":7363:7364   */\n      dup1\n        /* \"#utility.yul\":7356:7368   */\n      revert\n        /* \"#utility.yul\":7380:7497   */\n    tag_62:\n        /* \"#utility.yul\":7489:7490   */\n      0x00\n        /* \"#utility.yul\":7486:7487   */\n      dup1\n        /* \"#utility.yul\":7479:7491   */\n      revert\n        /* \"#utility.yul\":7503:7620   */\n    tag_89:\n        /* \"#utility.yul\":7612:7613   */\n      0x00\n        /* \"#utility.yul\":7609:7610   */\n      dup1\n        /* \"#utility.yul\":7602:7614   */\n      revert\n        /* \"#utility.yul\":7626:7743   */\n    tag_86:\n        /* \"#utility.yul\":7735:7736   */\n      0x00\n        /* \"#utility.yul\":7732:7733   */\n      dup1\n        /* \"#utility.yul\":7725:7737   */\n      revert\n        /* \"#utility.yul\":7749:7851   */\n    tag_107:\n        /* \"#utility.yul\":7790:7796   */\n      0x00\n        /* \"#utility.yul\":7841:7843   */\n      0x1f\n        /* \"#utility.yul\":7837:7844   */\n      not\n        /* \"#utility.yul\":7832:7834   */\n      0x1f\n        /* \"#utility.yul\":7825:7830   */\n      dup4\n        /* \"#utility.yul\":7821:7835   */\n      add\n        /* \"#utility.yul\":7817:7845   */\n      and\n        /* \"#utility.yul\":7807:7845   */\n      swap1\n      pop\n        /* \"#utility.yul\":7749:7851   */\n      swap2\n      swap1\n      pop\n      jump\t// out\n        /* \"#utility.yul\":7857:7977   */\n    tag_74:\n        /* \"#utility.yul\":7929:7952   */\n      tag_170\n        /* \"#utility.yul\":7946:7951   */\n      dup2\n        /* \"#utility.yul\":7929:7952   */\n      tag_111\n      jump\t// in\n    tag_170:\n        /* \"#utility.yul\":7922:7927   */\n      dup2\n        /* \"#utility.yul\":7919:7953   */\n      eq\n        /* \"#utility.yul\":7909:7971   */\n      tag_171\n      jumpi\n        /* \"#utility.yul\":7967:7968   */\n      0x00\n        /* \"#utility.yul\":7964:7965   */\n      dup1\n        /* \"#utility.yul\":7957:7969   */\n      revert\n        /* \"#utility.yul\":7909:7971   */\n    tag_171:\n        /* \"#utility.yul\":7857:7977   */\n      pop\n      jump\t// out\n        /* \"#utility.yul\":7983:8105   */\n    tag_78:\n        /* \"#utility.yul\":8056:8080   */\n      tag_173\n        /* \"#utility.yul\":8074:8079   */\n      dup2\n        /* \"#utility.yul\":8056:8080   */\n      tag_115\n      jump\t// in\n    tag_173:\n        /* \"#utility.yul\":8049:8054   */\n      dup2\n        /* \"#utility.yul\":8046:8081   */\n      eq\n        /* \"#utility.yul\":8036:8099   */\n      tag_174\n      jumpi\n        /* \"#utility.yul\":8095:8096   */\n      0x00\n        /* \"#utility.yul\":8092:8093   */\n      dup1\n        /* \"#utility.yul\":8085:8097   */\n      revert\n        /* \"#utility.yul\":8036:8099   */\n    tag_174:\n        /* \"#utility.yul\":7983:8105   */\n      pop\n      jump\t// out\n        /* \"#utility.yul\":8111:8231   */\n    tag_82:\n        /* \"#utility.yul\":8183:8206   */\n      tag_176\n        /* \"#utility.yul\":8200:8205   */\n      dup2\n        /* \"#utility.yul\":8183:8206   */\n      tag_119\n      jump\t// in\n    tag_176:\n        /* \"#utility.yul\":8176:8181   */\n      dup2\n        /* \"#utility.yul\":8173:8207   */\n      eq\n        /* \"#utility.yul\":8163:8225   */\n      tag_177\n      jumpi\n        /* \"#utility.yul\":8221:8222   */\n      0x00\n        /* \"#utility.yul\":8218:8219   */\n      dup1\n        /* \"#utility.yul\":8211:8223   */\n      revert\n        /* \"#utility.yul\":8163:8225   */\n    tag_177:\n        /* \"#utility.yul\":8111:8231   */\n      pop\n      jump\t// out\n\n    auxdata: 0xa2646970667358221220411868106733e5174bce7075addfbd2b394fbc6a5fced4342b9622b7bc2105be64736f6c63430008070033\n}\n",
				"bytecode": {
					"linkReferences": {},
					"object": "608060405234801561001057600080fd5b50610936806100206000396000f3fe608060405234801561001057600080fd5b50600436106100415760003560e01c80632eecfcda146100465780636c9958e014610062578063d3729ff614610095575b600080fd5b610060600480360381019061005b919061051c565b6100c8565b005b61007c6004803603810190610077919061059f565b610197565b60405161008c9493929190610632565b60405180910390f35b6100af60048036038101906100aa919061059f565b6102e4565b6040516100bf949392919061067e565b60405180910390f35b600060405180608001604052808681526020018563ffffffff1681526020018461ffff168152602001838152509080600181540180825580915050600190039060005260206000209060030201600090919091909150600082015181600001908051906020019061013a9291906103ca565b5060208201518160010160006101000a81548163ffffffff021916908363ffffffff16021790555060408201518160010160046101000a81548161ffff021916908361ffff16021790555060608201518160020155505050505050565b6060600080600080600086815481106101b3576101b2610838565b5b90600052602060002090600302016040518060800160405290816000820180546101dc906107a6565b80601f0160208091040260200160405190810160405280929190818152602001828054610208906107a6565b80156102555780601f1061022a57610100808354040283529160200191610255565b820191906000526020600020905b81548152906001019060200180831161023857829003601f168201915b505050505081526020016001820160009054906101000a900463ffffffff1663ffffffff1663ffffffff1681526020016001820160049054906101000a900461ffff1661ffff1661ffff168152602001600282015481525050905080600001518160200151826040015183606001518263ffffffff1692508161ffff1691509450945094509450509193509193565b600081815481106102f457600080fd5b9060005260206000209060030201600091509050806000018054610317906107a6565b80601f0160208091040260200160405190810160405280929190818152602001828054610343906107a6565b80156103905780601f1061036557610100808354040283529160200191610390565b820191906000526020600020905b81548152906001019060200180831161037357829003601f168201915b5050505050908060010160009054906101000a900463ffffffff16908060010160049054906101000a900461ffff16908060020154905084565b8280546103d6906107a6565b90600052602060002090601f0160209004810192826103f8576000855561043f565b82601f1061041157805160ff191683800117855561043f565b8280016001018555821561043f579182015b8281111561043e578251825591602001919060010190610423565b5b50905061044c9190610450565b5090565b5b80821115610469576000816000905550600101610451565b5090565b600061048061047b846106ef565b6106ca565b90508281526020810184848401111561049c5761049b61089b565b5b6104a7848285610764565b509392505050565b600082601f8301126104c4576104c3610896565b5b81356104d484826020860161046d565b91505092915050565b6000813590506104ec816108bb565b92915050565b600081359050610501816108d2565b92915050565b600081359050610516816108e9565b92915050565b60008060008060808587031215610536576105356108a5565b5b600085013567ffffffffffffffff811115610554576105536108a0565b5b610560878288016104af565b945050602061057187828801610507565b9350506040610582878288016104dd565b9250506060610593878288016104f2565b91505092959194509250565b6000602082840312156105b5576105b46108a5565b5b60006105c3848285016104f2565b91505092915050565b60006105d782610720565b6105e1818561072b565b93506105f1818560208601610773565b6105fa816108aa565b840191505092915050565b61060e8161073c565b82525050565b61061d8161074a565b82525050565b61062c81610754565b82525050565b6000608082019050818103600083015261064c81876105cc565b905061065b6020830186610614565b6106686040830185610614565b6106756060830184610614565b95945050505050565b6000608082019050818103600083015261069881876105cc565b90506106a76020830186610623565b6106b46040830185610605565b6106c16060830184610614565b95945050505050565b60006106d46106e5565b90506106e082826107d8565b919050565b6000604051905090565b600067ffffffffffffffff82111561070a57610709610867565b5b610713826108aa565b9050602081019050919050565b600081519050919050565b600082825260208201905092915050565b600061ffff82169050919050565b6000819050919050565b600063ffffffff82169050919050565b82818337600083830152505050565b60005b83811015610791578082015181840152602081019050610776565b838111156107a0576000848401525b50505050565b600060028204905060018216806107be57607f821691505b602082108114156107d2576107d1610809565b5b50919050565b6107e1826108aa565b810181811067ffffffffffffffff82111715610800576107ff610867565b5b80604052505050565b7f4e487b7100000000000000000000000000000000000000000000000000000000600052602260045260246000fd5b7f4e487b7100000000000000000000000000000000000000000000000000000000600052603260045260246000fd5b7f4e487b7100000000000000000000000000000000000000000000000000000000600052604160045260246000fd5b600080fd5b600080fd5b600080fd5b600080fd5b6000601f19601f8301169050919050565b6108c48161073c565b81146108cf57600080fd5b50565b6108db8161074a565b81146108e657600080fd5b50565b6108f281610754565b81146108fd57600080fd5b5056fea2646970667358221220411868106733e5174bce7075addfbd2b394fbc6a5fced4342b9622b7bc2105be64736f6c63430008070033",
					"opcodes": "PUSH1 0x80 PUSH1 0x40 MSTORE CALLVALUE DUP1 ISZERO PUSH2 0x10 JUMPI PUSH1 0x0 DUP1 REVERT JUMPDEST POP PUSH2 0x936 DUP1 PUSH2 0x20 PUSH1 0x0 CODECOPY PUSH1 0x0 RETURN INVALID PUSH1 0x80 PUSH1 0x40 MSTORE CALLVALUE DUP1 ISZERO PUSH2 0x10 JUMPI PUSH1 0x0 DUP1 REVERT JUMPDEST POP PUSH1 0x4 CALLDATASIZE LT PUSH2 0x41 JUMPI PUSH1 0x0 CALLDATALOAD PUSH1 0xE0 SHR DUP1 PUSH4 0x2EECFCDA EQ PUSH2 0x46 JUMPI DUP1 PUSH4 0x6C9958E0 EQ PUSH2 0x62 JUMPI DUP1 PUSH4 0xD3729FF6 EQ PUSH2 0x95 JUMPI JUMPDEST PUSH1 0x0 DUP1 REVERT JUMPDEST PUSH2 0x60 PUSH1 0x4 DUP1 CALLDATASIZE SUB DUP2 ADD SWAP1 PUSH2 0x5B SWAP2 SWAP1 PUSH2 0x51C JUMP JUMPDEST PUSH2 0xC8 JUMP JUMPDEST STOP JUMPDEST PUSH2 0x7C PUSH1 0x4 DUP1 CALLDATASIZE SUB DUP2 ADD SWAP1 PUSH2 0x77 SWAP2 SWAP1 PUSH2 0x59F JUMP JUMPDEST PUSH2 0x197 JUMP JUMPDEST PUSH1 0x40 MLOAD PUSH2 0x8C SWAP5 SWAP4 SWAP3 SWAP2 SWAP1 PUSH2 0x632 JUMP JUMPDEST PUSH1 0x40 MLOAD DUP1 SWAP2 SUB SWAP1 RETURN JUMPDEST PUSH2 0xAF PUSH1 0x4 DUP1 CALLDATASIZE SUB DUP2 ADD SWAP1 PUSH2 0xAA SWAP2 SWAP1 PUSH2 0x59F JUMP JUMPDEST PUSH2 0x2E4 JUMP JUMPDEST PUSH1 0x40 MLOAD PUSH2 0xBF SWAP5 SWAP4 SWAP3 SWAP2 SWAP1 PUSH2 0x67E JUMP JUMPDEST PUSH1 0x40 MLOAD DUP1 SWAP2 SUB SWAP1 RETURN JUMPDEST PUSH1 0x0 PUSH1 0x40 MLOAD DUP1 PUSH1 0x80 ADD PUSH1 0x40 MSTORE DUP1 DUP7 DUP2 MSTORE PUSH1 0x20 ADD DUP6 PUSH4 0xFFFFFFFF AND DUP2 MSTORE PUSH1 0x20 ADD DUP5 PUSH2 0xFFFF AND DUP2 MSTORE PUSH1 0x20 ADD DUP4 DUP2 MSTORE POP SWAP1 DUP1 PUSH1 0x1 DUP2 SLOAD ADD DUP1 DUP3 SSTORE DUP1 SWAP2 POP POP PUSH1 0x1 SWAP1 SUB SWAP1 PUSH1 0x0 MSTORE PUSH1 0x20 PUSH1 0x0 KECCAK256 SWAP1 PUSH1 0x3 MUL ADD PUSH1 0x0 SWAP1 SWAP2 SWAP1 SWAP2 SWAP1 SWAP2 POP PUSH1 0x0 DUP3 ADD MLOAD DUP2 PUSH1 0x0 ADD SWAP1 DUP1 MLOAD SWAP1 PUSH1 0x20 ADD SWAP1 PUSH2 0x13A SWAP3 SWAP2 SWAP1 PUSH2 0x3CA JUMP JUMPDEST POP PUSH1 0x20 DUP3 ADD MLOAD DUP2 PUSH1 0x1 ADD PUSH1 0x0 PUSH2 0x100 EXP DUP2 SLOAD DUP2 PUSH4 0xFFFFFFFF MUL NOT AND SWAP1 DUP4 PUSH4 0xFFFFFFFF AND MUL OR SWAP1 SSTORE POP PUSH1 0x40 DUP3 ADD MLOAD DUP2 PUSH1 0x1 ADD PUSH1 0x4 PUSH2 0x100 EXP DUP2 SLOAD DUP2 PUSH2 0xFFFF MUL NOT AND SWAP1 DUP4 PUSH2 0xFFFF AND MUL OR SWAP1 SSTORE POP PUSH1 0x60 DUP3 ADD MLOAD DUP2 PUSH1 0x2 ADD SSTORE POP POP POP POP POP POP JUMP JUMPDEST PUSH1 0x60 PUSH1 0x0 DUP1 PUSH1 0x0 DUP1 PUSH1 0x0 DUP7 DUP2 SLOAD DUP2 LT PUSH2 0x1B3 JUMPI PUSH2 0x1B2 PUSH2 0x838 JUMP JUMPDEST JUMPDEST SWAP1 PUSH1 0x0 MSTORE PUSH1 0x20 PUSH1 0x0 KECCAK256 SWAP1 PUSH1 0x3 MUL ADD PUSH1 0x40 MLOAD DUP1 PUSH1 0x80 ADD PUSH1 0x40 MSTORE SWAP1 DUP2 PUSH1 0x0 DUP3 ADD DUP1 SLOAD PUSH2 0x1DC SWAP1 PUSH2 0x7A6 JUMP JUMPDEST DUP1 PUSH1 0x1F ADD PUSH1 0x20 DUP1 SWAP2 DIV MUL PUSH1 0x20 ADD PUSH1 0x40 MLOAD SWAP1 DUP2 ADD PUSH1 0x40 MSTORE DUP1 SWAP3 SWAP2 SWAP1 DUP2 DUP2 MSTORE PUSH1 0x20 ADD DUP3 DUP1 SLOAD PUSH2 0x208 SWAP1 PUSH2 0x7A6 JUMP JUMPDEST DUP1 ISZERO PUSH2 0x255 JUMPI DUP1 PUSH1 0x1F LT PUSH2 0x22A JUMPI PUSH2 0x100 DUP1 DUP4 SLOAD DIV MUL DUP4 MSTORE SWAP2 PUSH1 0x20 ADD SWAP2 PUSH2 0x255 JUMP JUMPDEST DUP3 ADD SWAP2 SWAP1 PUSH1 0x0 MSTORE PUSH1 0x20 PUSH1 0x0 KECCAK256 SWAP1 JUMPDEST DUP2 SLOAD DUP2 MSTORE SWAP1 PUSH1 0x1 ADD SWAP1 PUSH1 0x20 ADD DUP1 DUP4 GT PUSH2 0x238 JUMPI DUP3 SWAP1 SUB PUSH1 0x1F AND DUP3 ADD SWAP2 JUMPDEST POP POP POP POP POP DUP2 MSTORE PUSH1 0x20 ADD PUSH1 0x1 DUP3 ADD PUSH1 0x0 SWAP1 SLOAD SWAP1 PUSH2 0x100 EXP SWAP1 DIV PUSH4 0xFFFFFFFF AND PUSH4 0xFFFFFFFF AND PUSH4 0xFFFFFFFF AND DUP2 MSTORE PUSH1 0x20 ADD PUSH1 0x1 DUP3 ADD PUSH1 0x4 SWAP1 SLOAD SWAP1 PUSH2 0x100 EXP SWAP1 DIV PUSH2 0xFFFF AND PUSH2 0xFFFF AND PUSH2 0xFFFF AND DUP2 MSTORE PUSH1 0x20 ADD PUSH1 0x2 DUP3 ADD SLOAD DUP2 MSTORE POP POP SWAP1 POP DUP1 PUSH1 0x0 ADD MLOAD DUP2 PUSH1 0x20 ADD MLOAD DUP3 PUSH1 0x40 ADD MLOAD DUP4 PUSH1 0x60 ADD MLOAD DUP3 PUSH4 0xFFFFFFFF AND SWAP3 POP DUP2 PUSH2 0xFFFF AND SWAP2 POP SWAP5 POP SWAP5 POP SWAP5 POP SWAP5 POP POP SWAP2 SWAP4 POP SWAP2 SWAP4 JUMP JUMPDEST PUSH1 0x0 DUP2 DUP2 SLOAD DUP2 LT PUSH2 0x2F4 JUMPI PUSH1 0x0 DUP1 REVERT JUMPDEST SWAP1 PUSH1 0x0 MSTORE PUSH1 0x20 PUSH1 0x0 KECCAK256 SWAP1 PUSH1 0x3 MUL ADD PUSH1 0x0 SWAP2 POP SWAP1 POP DUP1 PUSH1 0x0 ADD DUP1 SLOAD PUSH2 0x317 SWAP1 PUSH2 0x7A6 JUMP JUMPDEST DUP1 PUSH1 0x1F ADD PUSH1 0x20 DUP1 SWAP2 DIV MUL PUSH1 0x20 ADD PUSH1 0x40 MLOAD SWAP1 DUP2 ADD PUSH1 0x40 MSTORE DUP1 SWAP3 SWAP2 SWAP1 DUP2 DUP2 MSTORE PUSH1 0x20 ADD DUP3 DUP1 SLOAD PUSH2 0x343 SWAP1 PUSH2 0x7A6 JUMP JUMPDEST DUP1 ISZERO PUSH2 0x390 JUMPI DUP1 PUSH1 0x1F LT PUSH2 0x365 JUMPI PUSH2 0x100 DUP1 DUP4 SLOAD DIV MUL DUP4 MSTORE SWAP2 PUSH1 0x20 ADD SWAP2 PUSH2 0x390 JUMP JUMPDEST DUP3 ADD SWAP2 SWAP1 PUSH1 0x0 MSTORE PUSH1 0x20 PUSH1 0x0 KECCAK256 SWAP1 JUMPDEST DUP2 SLOAD DUP2 MSTORE SWAP1 PUSH1 0x1 ADD SWAP1 PUSH1 0x20 ADD DUP1 DUP4 GT PUSH2 0x373 JUMPI DUP3 SWAP1 SUB PUSH1 0x1F AND DUP3 ADD SWAP2 JUMPDEST POP POP POP POP POP SWAP1 DUP1 PUSH1 0x1 ADD PUSH1 0x0 SWAP1 SLOAD SWAP1 PUSH2 0x100 EXP SWAP1 DIV PUSH4 0xFFFFFFFF AND SWAP1 DUP1 PUSH1 0x1 ADD PUSH1 0x4 SWAP1 SLOAD SWAP1 PUSH2 0x100 EXP SWAP1 DIV PUSH2 0xFFFF AND SWAP1 DUP1 PUSH1 0x2 ADD SLOAD SWAP1 POP DUP5 JUMP JUMPDEST DUP3 DUP1 SLOAD PUSH2 0x3D6 SWAP1 PUSH2 0x7A6 JUMP JUMPDEST SWAP1 PUSH1 0x0 MSTORE PUSH1 0x20 PUSH1 0x0 KECCAK256 SWAP1 PUSH1 0x1F ADD PUSH1 0x20 SWAP1 DIV DUP2 ADD SWAP3 DUP3 PUSH2 0x3F8 JUMPI PUSH1 0x0 DUP6 SSTORE PUSH2 0x43F JUMP JUMPDEST DUP3 PUSH1 0x1F LT PUSH2 0x411 JUMPI DUP1 MLOAD PUSH1 0xFF NOT AND DUP4 DUP1 ADD OR DUP6 SSTORE PUSH2 0x43F JUMP JUMPDEST DUP3 DUP1 ADD PUSH1 0x1 ADD DUP6 SSTORE DUP3 ISZERO PUSH2 0x43F JUMPI SWAP2 DUP3 ADD JUMPDEST DUP3 DUP2 GT ISZERO PUSH2 0x43E JUMPI DUP3 MLOAD DUP3 SSTORE SWAP2 PUSH1 0x20 ADD SWAP2 SWAP1 PUSH1 0x1 ADD SWAP1 PUSH2 0x423 JUMP JUMPDEST JUMPDEST POP SWAP1 POP PUSH2 0x44C SWAP2 SWAP1 PUSH2 0x450 JUMP JUMPDEST POP SWAP1 JUMP JUMPDEST JUMPDEST DUP1 DUP3 GT ISZERO PUSH2 0x469 JUMPI PUSH1 0x0 DUP2 PUSH1 0x0 SWAP1 SSTORE POP PUSH1 0x1 ADD PUSH2 0x451 JUMP JUMPDEST POP SWAP1 JUMP JUMPDEST PUSH1 0x0 PUSH2 0x480 PUSH2 0x47B DUP5 PUSH2 0x6EF JUMP JUMPDEST PUSH2 0x6CA JUMP JUMPDEST SWAP1 POP DUP3 DUP2 MSTORE PUSH1 0x20 DUP2 ADD DUP5 DUP5 DUP5 ADD GT ISZERO PUSH2 0x49C JUMPI PUSH2 0x49B PUSH2 0x89B JUMP JUMPDEST JUMPDEST PUSH2 0x4A7 DUP5 DUP3 DUP6 PUSH2 0x764 JUMP JUMPDEST POP SWAP4 SWAP3 POP POP POP JUMP JUMPDEST PUSH1 0x0 DUP3 PUSH1 0x1F DUP4 ADD SLT PUSH2 0x4C4 JUMPI PUSH2 0x4C3 PUSH2 0x896 JUMP JUMPDEST JUMPDEST DUP2 CALLDATALOAD PUSH2 0x4D4 DUP5 DUP3 PUSH1 0x20 DUP7 ADD PUSH2 0x46D JUMP JUMPDEST SWAP2 POP POP SWAP3 SWAP2 POP POP JUMP JUMPDEST PUSH1 0x0 DUP2 CALLDATALOAD SWAP1 POP PUSH2 0x4EC DUP2 PUSH2 0x8BB JUMP JUMPDEST SWAP3 SWAP2 POP POP JUMP JUMPDEST PUSH1 0x0 DUP2 CALLDATALOAD SWAP1 POP PUSH2 0x501 DUP2 PUSH2 0x8D2 JUMP JUMPDEST SWAP3 SWAP2 POP POP JUMP JUMPDEST PUSH1 0x0 DUP2 CALLDATALOAD SWAP1 POP PUSH2 0x516 DUP2 PUSH2 0x8E9 JUMP JUMPDEST SWAP3 SWAP2 POP POP JUMP JUMPDEST PUSH1 0x0 DUP1 PUSH1 0x0 DUP1 PUSH1 0x80 DUP6 DUP8 SUB SLT ISZERO PUSH2 0x536 JUMPI PUSH2 0x535 PUSH2 0x8A5 JUMP JUMPDEST JUMPDEST PUSH1 0x0 DUP6 ADD CALLDATALOAD PUSH8 0xFFFFFFFFFFFFFFFF DUP2 GT ISZERO PUSH2 0x554 JUMPI PUSH2 0x553 PUSH2 0x8A0 JUMP JUMPDEST JUMPDEST PUSH2 0x560 DUP8 DUP3 DUP9 ADD PUSH2 0x4AF JUMP JUMPDEST SWAP5 POP POP PUSH1 0x20 PUSH2 0x571 DUP8 DUP3 DUP9 ADD PUSH2 0x507 JUMP JUMPDEST SWAP4 POP POP PUSH1 0x40 PUSH2 0x582 DUP8 DUP3 DUP9 ADD PUSH2 0x4DD JUMP JUMPDEST SWAP3 POP POP PUSH1 0x60 PUSH2 0x593 DUP8 DUP3 DUP9 ADD PUSH2 0x4F2 JUMP JUMPDEST SWAP2 POP POP SWAP3 SWAP6 SWAP2 SWAP5 POP SWAP3 POP JUMP JUMPDEST PUSH1 0x0 PUSH1 0x20 DUP3 DUP5 SUB SLT ISZERO PUSH2 0x5B5 JUMPI PUSH2 0x5B4 PUSH2 0x8A5 JUMP JUMPDEST JUMPDEST PUSH1 0x0 PUSH2 0x5C3 DUP5 DUP3 DUP6 ADD PUSH2 0x4F2 JUMP JUMPDEST SWAP2 POP POP SWAP3 SWAP2 POP POP JUMP JUMPDEST PUSH1 0x0 PUSH2 0x5D7 DUP3 PUSH2 0x720 JUMP JUMPDEST PUSH2 0x5E1 DUP2 DUP6 PUSH2 0x72B JUMP JUMPDEST SWAP4 POP PUSH2 0x5F1 DUP2 DUP6 PUSH1 0x20 DUP7 ADD PUSH2 0x773 JUMP JUMPDEST PUSH2 0x5FA DUP2 PUSH2 0x8AA JUMP JUMPDEST DUP5 ADD SWAP2 POP POP SWAP3 SWAP2 POP POP JUMP JUMPDEST PUSH2 0x60E DUP2 PUSH2 0x73C JUMP JUMPDEST DUP3 MSTORE POP POP JUMP JUMPDEST PUSH2 0x61D DUP2 PUSH2 0x74A JUMP JUMPDEST DUP3 MSTORE POP POP JUMP JUMPDEST PUSH2 0x62C DUP2 PUSH2 0x754 JUMP JUMPDEST DUP3 MSTORE POP POP JUMP JUMPDEST PUSH1 0x0 PUSH1 0x80 DUP3 ADD SWAP1 POP DUP2 DUP2 SUB PUSH1 0x0 DUP4 ADD MSTORE PUSH2 0x64C DUP2 DUP8 PUSH2 0x5CC JUMP JUMPDEST SWAP1 POP PUSH2 0x65B PUSH1 0x20 DUP4 ADD DUP7 PUSH2 0x614 JUMP JUMPDEST PUSH2 0x668 PUSH1 0x40 DUP4 ADD DUP6 PUSH2 0x614 JUMP JUMPDEST PUSH2 0x675 PUSH1 0x60 DUP4 ADD DUP5 PUSH2 0x614 JUMP JUMPDEST SWAP6 SWAP5 POP POP POP POP POP JUMP JUMPDEST PUSH1 0x0 PUSH1 0x80 DUP3 ADD SWAP1 POP DUP2 DUP2 SUB PUSH1 0x0 DUP4 ADD MSTORE PUSH2 0x698 DUP2 DUP8 PUSH2 0x5CC JUMP JUMPDEST SWAP1 POP PUSH2 0x6A7 PUSH1 0x20 DUP4 ADD DUP7 PUSH2 0x623 JUMP JUMPDEST PUSH2 0x6B4 PUSH1 0x40 DUP4 ADD DUP6 PUSH2 0x605 JUMP JUMPDEST PUSH2 0x6C1 PUSH1 0x60 DUP4 ADD DUP5 PUSH2 0x614 JUMP JUMPDEST SWAP6 SWAP5 POP POP POP POP POP JUMP JUMPDEST PUSH1 0x0 PUSH2 0x6D4 PUSH2 0x6E5 JUMP JUMPDEST SWAP1 POP PUSH2 0x6E0 DUP3 DUP3 PUSH2 0x7D8 JUMP JUMPDEST SWAP2 SWAP1 POP JUMP JUMPDEST PUSH1 0x0 PUSH1 0x40 MLOAD SWAP1 POP SWAP1 JUMP JUMPDEST PUSH1 0x0 PUSH8 0xFFFFFFFFFFFFFFFF DUP3 GT ISZERO PUSH2 0x70A JUMPI PUSH2 0x709 PUSH2 0x867 JUMP JUMPDEST JUMPDEST PUSH2 0x713 DUP3 PUSH2 0x8AA JUMP JUMPDEST SWAP1 POP PUSH1 0x20 DUP2 ADD SWAP1 POP SWAP2 SWAP1 POP JUMP JUMPDEST PUSH1 0x0 DUP2 MLOAD SWAP1 POP SWAP2 SWAP1 POP JUMP JUMPDEST PUSH1 0x0 DUP3 DUP3 MSTORE PUSH1 0x20 DUP3 ADD SWAP1 POP SWAP3 SWAP2 POP POP JUMP JUMPDEST PUSH1 0x0 PUSH2 0xFFFF DUP3 AND SWAP1 POP SWAP2 SWAP1 POP JUMP JUMPDEST PUSH1 0x0 DUP2 SWAP1 POP SWAP2 SWAP1 POP JUMP JUMPDEST PUSH1 0x0 PUSH4 0xFFFFFFFF DUP3 AND SWAP1 POP SWAP2 SWAP1 POP JUMP JUMPDEST DUP3 DUP2 DUP4 CALLDATACOPY PUSH1 0x0 DUP4 DUP4 ADD MSTORE POP POP POP JUMP JUMPDEST PUSH1 0x0 JUMPDEST DUP4 DUP2 LT ISZERO PUSH2 0x791 JUMPI DUP1 DUP3 ADD MLOAD DUP2 DUP5 ADD MSTORE PUSH1 0x20 DUP2 ADD SWAP1 POP PUSH2 0x776 JUMP JUMPDEST DUP4 DUP2 GT ISZERO PUSH2 0x7A0 JUMPI PUSH1 0x0 DUP5 DUP5 ADD MSTORE JUMPDEST POP POP POP POP JUMP JUMPDEST PUSH1 0x0 PUSH1 0x2 DUP3 DIV SWAP1 POP PUSH1 0x1 DUP3 AND DUP1 PUSH2 0x7BE JUMPI PUSH1 0x7F DUP3 AND SWAP2 POP JUMPDEST PUSH1 0x20 DUP3 LT DUP2 EQ ISZERO PUSH2 0x7D2 JUMPI PUSH2 0x7D1 PUSH2 0x809 JUMP JUMPDEST JUMPDEST POP SWAP2 SWAP1 POP JUMP JUMPDEST PUSH2 0x7E1 DUP3 PUSH2 0x8AA JUMP JUMPDEST DUP2 ADD DUP2 DUP2 LT PUSH8 0xFFFFFFFFFFFFFFFF DUP3 GT OR ISZERO PUSH2 0x800 JUMPI PUSH2 0x7FF PUSH2 0x867 JUMP JUMPDEST JUMPDEST DUP1 PUSH1 0x40 MSTORE POP POP POP JUMP JUMPDEST PUSH32 0x4E487B7100000000000000000000000000000000000000000000000000000000 PUSH1 0x0 MSTORE PUSH1 0x22 PUSH1 0x4 MSTORE PUSH1 0x24 PUSH1 0x0 REVERT JUMPDEST PUSH32 0x4E487B7100000000000000000000000000000000000000000000000000000000 PUSH1 0x0 MSTORE PUSH1 0x32 PUSH1 0x4 MSTORE PUSH1 0x24 PUSH1 0x0 REVERT JUMPDEST PUSH32 0x4E487B7100000000000000000000000000000000000000000000000000000000 PUSH1 0x0 MSTORE PUSH1 0x41 PUSH1 0x4 MSTORE PUSH1 0x24 PUSH1 0x0 REVERT JUMPDEST PUSH1 0x0 DUP1 REVERT JUMPDEST PUSH1 0x0 DUP1 REVERT JUMPDEST PUSH1 0x0 DUP1 REVERT JUMPDEST PUSH1 0x0 DUP1 REVERT JUMPDEST PUSH1 0x0 PUSH1 0x1F NOT PUSH1 0x1F DUP4 ADD AND SWAP1 POP SWAP2 SWAP1 POP JUMP JUMPDEST PUSH2 0x8C4 DUP2 PUSH2 0x73C JUMP JUMPDEST DUP2 EQ PUSH2 0x8CF JUMPI PUSH1 0x0 DUP1 REVERT JUMPDEST POP JUMP JUMPDEST PUSH2 0x8DB DUP2 PUSH2 0x74A JUMP JUMPDEST DUP2 EQ PUSH2 0x8E6 JUMPI PUSH1 0x0 DUP1 REVERT JUMPDEST POP JUMP JUMPDEST PUSH2 0x8F2 DUP2 PUSH2 0x754 JUMP JUMPDEST DUP2 EQ PUSH2 0x8FD JUMPI PUSH1 0x0 DUP1 REVERT JUMPDEST POP JUMP INVALID LOG2 PUSH5 0x6970667358 0x22 SLT KECCAK256 COINBASE XOR PUSH9 0x106733E5174BCE7075 0xAD 0xDF 0xBD 0x2B CODECOPY 0x4F 0xBC PUSH11 0x5FCED4342B9622B7BC2105 0xBE PUSH5 0x736F6C6343 STOP ADDMOD SMOD STOP CALLER "
				},
				"gasEstimates": {
					"creation": {
						"codeDepositCost": "471600",
						"executionCost": "505",
						"totalCost": "472105"
					},
					"external": {
						"addtolist(string,uint32,uint16,uint256)": "infinite",
						"getlist(uint256)": "infinite",
						"todoarr(uint256)": "infinite"
					}
				},
				"methodIdentifiers": {
					"addtolist(string,uint32,uint16,uint256)": "2eecfcda",
					"getlist(uint256)": "6c9958e0",
					"todoarr(uint256)": "d3729ff6"
				}
			},
			"storageLayout": {
				"storage": [
					{
						"astId": 14,
						"contract": "opo.sol:TodoList",
						"label": "todoarr",
						"offset": 0,
						"slot": "0",
						"type": "t_array(t_struct(Todo)10_storage)dyn_storage"
					}
				],
				"types": {
					"t_array(t_struct(Todo)10_storage)dyn_storage": {
						"base": "t_struct(Todo)10_storage",
						"encoding": "dynamic_array",
						"label": "struct TodoList.Todo[]",
						"numberOfBytes": "32"
					},
					"t_string_storage": {
						"encoding": "bytes",
						"label": "string",
						"numberOfBytes": "32"
					},
					"t_struct(Todo)10_storage": {
						"encoding": "inplace",
						"label": "struct TodoList.Todo",
						"members": [
							{
								"astId": 3,
								"contract": "opo.sol:TodoList",
								"label": "action",
								"offset": 0,
								"slot": "0",
								"type": "t_string_storage"
							},
							{
								"astId": 5,
								"contract": "opo.sol:TodoList",
								"label": "day",
								"offset": 0,
								"slot": "1",
								"type": "t_uint32"
							},
							{
								"astId": 7,
								"contract": "opo.sol:TodoList",
								"label": "month",
								"offset": 4,
								"slot": "1",
								"type": "t_uint16"
							},
							{
								"astId": 9,
								"contract": "opo.sol:TodoList",
								"label": "year",
								"offset": 0,
								"slot": "2",
								"type": "t_uint256"
							}
						],
						"numberOfBytes": "96"
					},
					"t_uint16": {
						"encoding": "inplace",
						"label": "uint16",
						"numberOfBytes": "2"
					},
					"t_uint256": {
						"encoding": "inplace",
						"label": "uint256",
						"numberOfBytes": "32"
					},
					"t_uint32": {
						"encoding": "inplace",
						"label": "uint32",
						"numberOfBytes": "4"
					}
				}
			},
			"userdoc": {
				"kind": "user",
				"methods": {},
				"version": 1
			}
		}
	}
}