{
	"pnum.sol": {
		"Primenum": {
			"abi": [
				{
					"inputs": [
						{
							"internalType": "int256",
							"name": "num",
							"type": "int256"
						}
					],
					"name": "Pnum",
					"outputs": [
						{
							"internalType": "bool",
							"name": "",
							"type": "bool"
						}
					],
					"stateMutability": "pure",
					"type": "function"
				}
			],
			"devdoc": {
				"kind": "dev",
				"methods": {},
				"version": 1
			},
			"evm": {
				"assembly": "    /* \"pnum.sol\":56:209  contract Primenum{\r... */\n  mstore(0x40, 0x80)\n  callvalue\n  dup1\n  iszero\n  tag_1\n  jumpi\n  0x00\n  dup1\n  revert\ntag_1:\n  pop\n  dataSize(sub_0)\n  dup1\n  dataOffset(sub_0)\n  0x00\n  codecopy\n  0x00\n  return\nstop\n\nsub_0: assembly {\n        /* \"pnum.sol\":56:209  contract Primenum{\r... */\n      mstore(0x40, 0x80)\n      callvalue\n      dup1\n      iszero\n      tag_1\n      jumpi\n      0x00\n      dup1\n      revert\n    tag_1:\n      pop\n      jumpi(tag_2, lt(calldatasize, 0x04))\n      shr(0xe0, calldataload(0x00))\n      dup1\n      0x5655a896\n      eq\n      tag_3\n      jumpi\n    tag_2:\n      0x00\n      dup1\n      revert\n        /* \"pnum.sol\":76:201  function Pnum(int num) public pure returns(bool){\r... */\n    tag_3:\n      tag_4\n      0x04\n      dup1\n      calldatasize\n      sub\n      dup2\n      add\n      swap1\n      tag_5\n      swap2\n      swap1\n      tag_6\n      jump\t// in\n    tag_5:\n      tag_7\n      jump\t// in\n    tag_4:\n      mload(0x40)\n      tag_8\n      swap2\n      swap1\n      tag_9\n      jump\t// in\n    tag_8:\n      mload(0x40)\n      dup1\n      swap2\n      sub\n      swap1\n      return\n    tag_7:\n        /* \"pnum.sol\":119:123  bool */\n      0x00\n        /* \"pnum.sol\":140:141  1 */\n      0x01\n        /* \"pnum.sol\":135:138  num */\n      dup3\n        /* \"pnum.sol\":135:141  num==1 */\n      eq\n        /* \"pnum.sol\":131:155  if (num==1) return false */\n      iszero\n      tag_11\n      jumpi\n        /* \"pnum.sol\":150:155  false */\n      0x00\n        /* \"pnum.sol\":143:155  return false */\n      swap1\n      pop\n      jump(tag_10)\n        /* \"pnum.sol\":131:155  if (num==1) return false */\n    tag_11:\n        /* \"pnum.sol\":176:177  0 */\n      0x00\n        /* \"pnum.sol\":172:173  2 */\n      0x02\n        /* \"pnum.sol\":166:169  num */\n      dup4\n        /* \"pnum.sol\":166:173  num % 2 */\n      tag_12\n      swap2\n      swap1\n      tag_13\n      jump\t// in\n    tag_12:\n        /* \"pnum.sol\":166:177  num % 2 ==0 */\n      eq\n        /* \"pnum.sol\":162:191  if (num % 2 ==0) return false */\n      iszero\n      tag_14\n      jumpi\n        /* \"pnum.sol\":186:191  false */\n      0x00\n        /* \"pnum.sol\":179:191  return false */\n      swap1\n      pop\n      jump(tag_10)\n        /* \"pnum.sol\":162:191  if (num % 2 ==0) return false */\n    tag_14:\n        /* \"pnum.sol\":76:201  function Pnum(int num) public pure returns(bool){\r... */\n    tag_10:\n      swap2\n      swap1\n      pop\n      jump\t// out\n        /* \"#utility.yul\":7:144   */\n    tag_16:\n        /* \"#utility.yul\":52:57   */\n      0x00\n        /* \"#utility.yul\":90:96   */\n      dup2\n        /* \"#utility.yul\":77:97   */\n      calldataload\n        /* \"#utility.yul\":68:97   */\n      swap1\n      pop\n        /* \"#utility.yul\":106:138   */\n      tag_18\n        /* \"#utility.yul\":132:137   */\n      dup2\n        /* \"#utility.yul\":106:138   */\n      tag_19\n      jump\t// in\n    tag_18:\n        /* \"#utility.yul\":7:144   */\n      swap3\n      swap2\n      pop\n      pop\n      jump\t// out\n        /* \"#utility.yul\":150:477   */\n    tag_6:\n        /* \"#utility.yul\":208:214   */\n      0x00\n        /* \"#utility.yul\":257:259   */\n      0x20\n        /* \"#utility.yul\":245:254   */\n      dup3\n        /* \"#utility.yul\":236:243   */\n      dup5\n        /* \"#utility.yul\":232:255   */\n      sub\n        /* \"#utility.yul\":228:260   */\n      slt\n        /* \"#utility.yul\":225:344   */\n      iszero\n      tag_21\n      jumpi\n        /* \"#utility.yul\":263:342   */\n      tag_22\n      tag_23\n      jump\t// in\n    tag_22:\n        /* \"#utility.yul\":225:344   */\n    tag_21:\n        /* \"#utility.yul\":383:384   */\n      0x00\n        /* \"#utility.yul\":408:460   */\n      tag_24\n        /* \"#utility.yul\":452:459   */\n      dup5\n        /* \"#utility.yul\":443:449   */\n      dup3\n        /* \"#utility.yul\":432:441   */\n      dup6\n        /* \"#utility.yul\":428:450   */\n      add\n        /* \"#utility.yul\":408:460   */\n      tag_16\n      jump\t// in\n    tag_24:\n        /* \"#utility.yul\":398:460   */\n      swap2\n      pop\n        /* \"#utility.yul\":354:470   */\n      pop\n        /* \"#utility.yul\":150:477   */\n      swap3\n      swap2\n      pop\n      pop\n      jump\t// out\n        /* \"#utility.yul\":483:592   */\n    tag_25:\n        /* \"#utility.yul\":564:585   */\n      tag_27\n        /* \"#utility.yul\":579:584   */\n      dup2\n        /* \"#utility.yul\":564:585   */\n      tag_28\n      jump\t// in\n    tag_27:\n        /* \"#utility.yul\":559:562   */\n      dup3\n        /* \"#utility.yul\":552:586   */\n      mstore\n        /* \"#utility.yul\":483:592   */\n      pop\n      pop\n      jump\t// out\n        /* \"#utility.yul\":598:808   */\n    tag_9:\n        /* \"#utility.yul\":685:689   */\n      0x00\n        /* \"#utility.yul\":723:725   */\n      0x20\n        /* \"#utility.yul\":712:721   */\n      dup3\n        /* \"#utility.yul\":708:726   */\n      add\n        /* \"#utility.yul\":700:726   */\n      swap1\n      pop\n        /* \"#utility.yul\":736:801   */\n      tag_30\n        /* \"#utility.yul\":798:799   */\n      0x00\n        /* \"#utility.yul\":787:796   */\n      dup4\n        /* \"#utility.yul\":783:800   */\n      add\n        /* \"#utility.yul\":774:780   */\n      dup5\n        /* \"#utility.yul\":736:801   */\n      tag_25\n      jump\t// in\n    tag_30:\n        /* \"#utility.yul\":598:808   */\n      swap3\n      swap2\n      pop\n      pop\n      jump\t// out\n        /* \"#utility.yul\":895:985   */\n    tag_28:\n        /* \"#utility.yul\":929:936   */\n      0x00\n        /* \"#utility.yul\":972:977   */\n      dup2\n        /* \"#utility.yul\":965:978   */\n      iszero\n        /* \"#utility.yul\":958:979   */\n      iszero\n        /* \"#utility.yul\":947:979   */\n      swap1\n      pop\n        /* \"#utility.yul\":895:985   */\n      swap2\n      swap1\n      pop\n      jump\t// out\n        /* \"#utility.yul\":991:1067   */\n    tag_34:\n        /* \"#utility.yul\":1027:1034   */\n      0x00\n        /* \"#utility.yul\":1056:1061   */\n      dup2\n        /* \"#utility.yul\":1045:1061   */\n      swap1\n      pop\n        /* \"#utility.yul\":991:1067   */\n      swap2\n      swap1\n      pop\n      jump\t// out\n        /* \"#utility.yul\":1073:1247   */\n    tag_13:\n        /* \"#utility.yul\":1104:1105   */\n      0x00\n        /* \"#utility.yul\":1121:1140   */\n      tag_37\n        /* \"#utility.yul\":1138:1139   */\n      dup3\n        /* \"#utility.yul\":1121:1140   */\n      tag_34\n      jump\t// in\n    tag_37:\n        /* \"#utility.yul\":1116:1140   */\n      swap2\n      pop\n        /* \"#utility.yul\":1154:1173   */\n      tag_38\n        /* \"#utility.yul\":1171:1172   */\n      dup4\n        /* \"#utility.yul\":1154:1173   */\n      tag_34\n      jump\t// in\n    tag_38:\n        /* \"#utility.yul\":1149:1173   */\n      swap3\n      pop\n        /* \"#utility.yul\":1192:1193   */\n      dup3\n        /* \"#utility.yul\":1182:1217   */\n      tag_39\n      jumpi\n        /* \"#utility.yul\":1197:1215   */\n      tag_40\n      tag_41\n      jump\t// in\n    tag_40:\n        /* \"#utility.yul\":1182:1217   */\n    tag_39:\n        /* \"#utility.yul\":1239:1240   */\n      dup3\n        /* \"#utility.yul\":1236:1237   */\n      dup3\n        /* \"#utility.yul\":1231:1241   */\n      smod\n        /* \"#utility.yul\":1226:1241   */\n      swap1\n      pop\n        /* \"#utility.yul\":1073:1247   */\n      swap3\n      swap2\n      pop\n      pop\n      jump\t// out\n        /* \"#utility.yul\":1253:1433   */\n    tag_41:\n        /* \"#utility.yul\":1301:1378   */\n      0x4e487b7100000000000000000000000000000000000000000000000000000000\n        /* \"#utility.yul\":1298:1299   */\n      0x00\n        /* \"#utility.yul\":1291:1379   */\n      mstore\n        /* \"#utility.yul\":1398:1402   */\n      0x12\n        /* \"#utility.yul\":1395:1396   */\n      0x04\n        /* \"#utility.yul\":1388:1403   */\n      mstore\n        /* \"#utility.yul\":1422:1426   */\n      0x24\n        /* \"#utility.yul\":1419:1420   */\n      0x00\n        /* \"#utility.yul\":1412:1427   */\n      revert\n        /* \"#utility.yul\":1562:1679   */\n    tag_23:\n        /* \"#utility.yul\":1671:1672   */\n      0x00\n        /* \"#utility.yul\":1668:1669   */\n      dup1\n        /* \"#utility.yul\":1661:1673   */\n      revert\n        /* \"#utility.yul\":1685:1805   */\n    tag_19:\n        /* \"#utility.yul\":1757:1780   */\n      tag_47\n        /* \"#utility.yul\":1774:1779   */\n      dup2\n        /* \"#utility.yul\":1757:1780   */\n      tag_34\n      jump\t// in\n    tag_47:\n        /* \"#utility.yul\":1750:1755   */\n      dup2\n        /* \"#utility.yul\":1747:1781   */\n      eq\n        /* \"#utility.yul\":1737:1799   */\n      tag_48\n      jumpi\n        /* \"#utility.yul\":1795:1796   */\n      0x00\n        /* \"#utility.yul\":1792:1793   */\n      dup1\n        /* \"#utility.yul\":1785:1797   */\n      revert\n        /* \"#utility.yul\":1737:1799   */\n    tag_48:\n        /* \"#utility.yul\":1685:1805   */\n      pop\n      jump\t// out\n\n    auxdata: 0xa26469706673582212204fa4ae019b3604da7326ae93133b55c0563dd40d02c4dac6aff7ede72463645664736f6c63430008070033\n}\n",
				"bytecode": {
					"linkReferences": {},
					"object": "608060405234801561001057600080fd5b506101cc806100206000396000f3fe608060405234801561001057600080fd5b506004361061002b5760003560e01c80635655a89614610030575b600080fd5b61004a600480360381019061004591906100ad565b610060565b60405161005791906100e9565b60405180910390f35b600060018214156100745760009050610093565b6000600283610083919061011a565b14156100925760009050610093565b5b919050565b6000813590506100a78161017f565b92915050565b6000602082840312156100c3576100c261017a565b5b60006100d184828501610098565b91505092915050565b6100e381610104565b82525050565b60006020820190506100fe60008301846100da565b92915050565b60008115159050919050565b6000819050919050565b600061012582610110565b915061013083610110565b9250826101405761013f61014b565b5b828207905092915050565b7f4e487b7100000000000000000000000000000000000000000000000000000000600052601260045260246000fd5b600080fd5b61018881610110565b811461019357600080fd5b5056fea26469706673582212204fa4ae019b3604da7326ae93133b55c0563dd40d02c4dac6aff7ede72463645664736f6c63430008070033",
					"opcodes": "PUSH1 0x80 PUSH1 0x40 MSTORE CALLVALUE DUP1 ISZERO PUSH2 0x10 JUMPI PUSH1 0x0 DUP1 REVERT JUMPDEST POP PUSH2 0x1CC DUP1 PUSH2 0x20 PUSH1 0x0 CODECOPY PUSH1 0x0 RETURN INVALID PUSH1 0x80 PUSH1 0x40 MSTORE CALLVALUE DUP1 ISZERO PUSH2 0x10 JUMPI PUSH1 0x0 DUP1 REVERT JUMPDEST POP PUSH1 0x4 CALLDATASIZE LT PUSH2 0x2B JUMPI PUSH1 0x0 CALLDATALOAD PUSH1 0xE0 SHR DUP1 PUSH4 0x5655A896 EQ PUSH2 0x30 JUMPI JUMPDEST PUSH1 0x0 DUP1 REVERT JUMPDEST PUSH2 0x4A PUSH1 0x4 DUP1 CALLDATASIZE SUB DUP2 ADD SWAP1 PUSH2 0x45 SWAP2 SWAP1 PUSH2 0xAD JUMP JUMPDEST PUSH2 0x60 JUMP JUMPDEST PUSH1 0x40 MLOAD PUSH2 0x57 SWAP2 SWAP1 PUSH2 0xE9 JUMP JUMPDEST PUSH1 0x40 MLOAD DUP1 SWAP2 SUB SWAP1 RETURN JUMPDEST PUSH1 0x0 PUSH1 0x1 DUP3 EQ ISZERO PUSH2 0x74 JUMPI PUSH1 0x0 SWAP1 POP PUSH2 0x93 JUMP JUMPDEST PUSH1 0x0 PUSH1 0x2 DUP4 PUSH2 0x83 SWAP2 SWAP1 PUSH2 0x11A JUMP JUMPDEST EQ ISZERO PUSH2 0x92 JUMPI PUSH1 0x0 SWAP1 POP PUSH2 0x93 JUMP JUMPDEST JUMPDEST SWAP2 SWAP1 POP JUMP JUMPDEST PUSH1 0x0 DUP2 CALLDATALOAD SWAP1 POP PUSH2 0xA7 DUP2 PUSH2 0x17F JUMP JUMPDEST SWAP3 SWAP2 POP POP JUMP JUMPDEST PUSH1 0x0 PUSH1 0x20 DUP3 DUP5 SUB SLT ISZERO PUSH2 0xC3 JUMPI PUSH2 0xC2 PUSH2 0x17A JUMP JUMPDEST JUMPDEST PUSH1 0x0 PUSH2 0xD1 DUP5 DUP3 DUP6 ADD PUSH2 0x98 JUMP JUMPDEST SWAP2 POP POP SWAP3 SWAP2 POP POP JUMP JUMPDEST PUSH2 0xE3 DUP2 PUSH2 0x104 JUMP JUMPDEST DUP3 MSTORE POP POP JUMP JUMPDEST PUSH1 0x0 PUSH1 0x20 DUP3 ADD SWAP1 POP PUSH2 0xFE PUSH1 0x0 DUP4 ADD DUP5 PUSH2 0xDA JUMP JUMPDEST SWAP3 SWAP2 POP POP JUMP JUMPDEST PUSH1 0x0 DUP2 ISZERO ISZERO SWAP1 POP SWAP2 SWAP1 POP JUMP JUMPDEST PUSH1 0x0 DUP2 SWAP1 POP SWAP2 SWAP1 POP JUMP JUMPDEST PUSH1 0x0 PUSH2 0x125 DUP3 PUSH2 0x110 JUMP JUMPDEST SWAP2 POP PUSH2 0x130 DUP4 PUSH2 0x110 JUMP JUMPDEST SWAP3 POP DUP3 PUSH2 0x140 JUMPI PUSH2 0x13F PUSH2 0x14B JUMP JUMPDEST JUMPDEST DUP3 DUP3 SMOD SWAP1 POP SWAP3 SWAP2 POP POP JUMP JUMPDEST PUSH32 0x4E487B7100000000000000000000000000000000000000000000000000000000 PUSH1 0x0 MSTORE PUSH1 0x12 PUSH1 0x4 MSTORE PUSH1 0x24 PUSH1 0x0 REVERT JUMPDEST PUSH1 0x0 DUP1 REVERT JUMPDEST PUSH2 0x188 DUP2 PUSH2 0x110 JUMP JUMPDEST DUP2 EQ PUSH2 0x193 JUMPI PUSH1 0x0 DUP1 REVERT JUMPDEST POP JUMP INVALID LOG2 PUSH5 0x6970667358 0x22 SLT KECCAK256 0x4F LOG4 0xAE ADD SWAP12 CALLDATASIZE DIV 0xDA PUSH20 0x26AE93133B55C0563DD40D02C4DAC6AFF7EDE724 PUSH4 0x64566473 PUSH16 0x6C634300080700330000000000000000 "
				},
				"gasEstimates": {
					"creation": {
						"codeDepositCost": "92000",
						"executionCost": "141",
						"totalCost": "92141"
					},
					"external": {
						"Pnum(int256)": "infinite"
					}
				},
				"methodIdentifiers": {
					"Pnum(int256)": "5655a896"
				}
			},
			"storageLayout": {
				"storage": [],
				"types": null
			},
			"userdoc": {
				"kind": "user",
				"methods": {},
				"version": 1
			}
		}
	}
}