{
	"pnum.sol": {
		"Primenum": {
			"abi": [
				{
					"inputs": [
						{
							"internalType": "int256",
							"name": "num",
							"type": "int256"
						}
					],
					"name": "Pnum",
					"outputs": [
						{
							"internalType": "bool",
							"name": "",
							"type": "bool"
						}
					],
					"stateMutability": "pure",
					"type": "function"
				}
			],
			"devdoc": {
				"kind": "dev",
				"methods": {},
				"version": 1
			},
			"evm": {
				"assembly": "    /* \"pnum.sol\":56:182  contract Primenum{\r... */\n  mstore(0x40, 0x80)\n  callvalue\n  dup1\n  iszero\n  tag_1\n  jumpi\n  0x00\n  dup1\n  revert\ntag_1:\n  pop\n  dataSize(sub_0)\n  dup1\n  dataOffset(sub_0)\n  0x00\n  codecopy\n  0x00\n  return\nstop\n\nsub_0: assembly {\n        /* \"pnum.sol\":56:182  contract Primenum{\r... */\n      mstore(0x40, 0x80)\n      callvalue\n      dup1\n      iszero\n      tag_1\n      jumpi\n      0x00\n      dup1\n      revert\n    tag_1:\n      pop\n      jumpi(tag_2, lt(calldatasize, 0x04))\n      shr(0xe0, calldataload(0x00))\n      dup1\n      0x5655a896\n      eq\n      tag_3\n      jumpi\n    tag_2:\n      0x00\n      dup1\n      revert\n        /* \"pnum.sol\":76:179  function Pnum(int num) public pure returns(bool){\r... */\n    tag_3:\n      tag_4\n      0x04\n      dup1\n      calldatasize\n      sub\n      dup2\n      add\n      swap1\n      tag_5\n      swap2\n      swap1\n      tag_6\n      jump\t// in\n    tag_5:\n      tag_7\n      jump\t// in\n    tag_4:\n      mload(0x40)\n      tag_8\n      swap2\n      swap1\n      tag_9\n      jump\t// in\n    tag_8:\n      mload(0x40)\n      dup1\n      swap2\n      sub\n      swap1\n      return\n    tag_7:\n        /* \"pnum.sol\":119:123  bool */\n      0x00\n        /* \"pnum.sol\":142:143  1 */\n      0x01\n        /* \"pnum.sol\":135:138  num */\n      dup3\n        /* \"pnum.sol\":135:143  num == 1 */\n      eq\n        /* \"pnum.sol\":131:176  if (num == 1 ){\r... */\n      iszero\n      tag_11\n      jumpi\n        /* \"pnum.sol\":163:168  false */\n      0x00\n        /* \"pnum.sol\":156:168  return false */\n      swap1\n      pop\n      jump(tag_10)\n        /* \"pnum.sol\":131:176  if (num == 1 ){\r... */\n    tag_11:\n        /* \"pnum.sol\":76:179  function Pnum(int num) public pure returns(bool){\r... */\n    tag_10:\n      swap2\n      swap1\n      pop\n      jump\t// out\n        /* \"#utility.yul\":7:144   */\n    tag_13:\n      0x00\n        /* \"#utility.yul\":90:96   */\n      dup2\n        /* \"#utility.yul\":77:97   */\n      calldataload\n        /* \"#utility.yul\":68:97   */\n      swap1\n      pop\n        /* \"#utility.yul\":106:138   */\n      tag_15\n        /* \"#utility.yul\":132:137   */\n      dup2\n        /* \"#utility.yul\":106:138   */\n      tag_16\n      jump\t// in\n    tag_15:\n        /* \"#utility.yul\":58:144   */\n      swap3\n      swap2\n      pop\n      pop\n      jump\t// out\n        /* \"#utility.yul\":150:410   */\n    tag_6:\n      0x00\n        /* \"#utility.yul\":257:259   */\n      0x20\n        /* \"#utility.yul\":245:254   */\n      dup3\n        /* \"#utility.yul\":236:243   */\n      dup5\n        /* \"#utility.yul\":232:255   */\n      sub\n        /* \"#utility.yul\":228:260   */\n      slt\n        /* \"#utility.yul\":225:227   */\n      iszero\n      tag_18\n      jumpi\n        /* \"#utility.yul\":273:274   */\n      0x00\n        /* \"#utility.yul\":270:271   */\n      dup1\n        /* \"#utility.yul\":263:275   */\n      revert\n        /* \"#utility.yul\":225:227   */\n    tag_18:\n        /* \"#utility.yul\":316:317   */\n      0x00\n        /* \"#utility.yul\":341:393   */\n      tag_19\n        /* \"#utility.yul\":385:392   */\n      dup5\n        /* \"#utility.yul\":376:382   */\n      dup3\n        /* \"#utility.yul\":365:374   */\n      dup6\n        /* \"#utility.yul\":361:383   */\n      add\n        /* \"#utility.yul\":341:393   */\n      tag_13\n      jump\t// in\n    tag_19:\n        /* \"#utility.yul\":331:393   */\n      swap2\n      pop\n        /* \"#utility.yul\":287:403   */\n      pop\n        /* \"#utility.yul\":215:410   */\n      swap3\n      swap2\n      pop\n      pop\n      jump\t// out\n        /* \"#utility.yul\":416:525   */\n    tag_20:\n        /* \"#utility.yul\":497:518   */\n      tag_22\n        /* \"#utility.yul\":512:517   */\n      dup2\n        /* \"#utility.yul\":497:518   */\n      tag_23\n      jump\t// in\n    tag_22:\n        /* \"#utility.yul\":492:495   */\n      dup3\n        /* \"#utility.yul\":485:519   */\n      mstore\n        /* \"#utility.yul\":475:525   */\n      pop\n      pop\n      jump\t// out\n        /* \"#utility.yul\":531:741   */\n    tag_9:\n      0x00\n        /* \"#utility.yul\":656:658   */\n      0x20\n        /* \"#utility.yul\":645:654   */\n      dup3\n        /* \"#utility.yul\":641:659   */\n      add\n        /* \"#utility.yul\":633:659   */\n      swap1\n      pop\n        /* \"#utility.yul\":669:734   */\n      tag_25\n        /* \"#utility.yul\":731:732   */\n      0x00\n        /* \"#utility.yul\":720:729   */\n      dup4\n        /* \"#utility.yul\":716:733   */\n      add\n        /* \"#utility.yul\":707:713   */\n      dup5\n        /* \"#utility.yul\":669:734   */\n      tag_20\n      jump\t// in\n    tag_25:\n        /* \"#utility.yul\":623:741   */\n      swap3\n      swap2\n      pop\n      pop\n      jump\t// out\n        /* \"#utility.yul\":747:837   */\n    tag_23:\n      0x00\n        /* \"#utility.yul\":824:829   */\n      dup2\n        /* \"#utility.yul\":817:830   */\n      iszero\n        /* \"#utility.yul\":810:831   */\n      iszero\n        /* \"#utility.yul\":799:831   */\n      swap1\n      pop\n        /* \"#utility.yul\":789:837   */\n      swap2\n      swap1\n      pop\n      jump\t// out\n        /* \"#utility.yul\":843:919   */\n    tag_27:\n      0x00\n        /* \"#utility.yul\":908:913   */\n      dup2\n        /* \"#utility.yul\":897:913   */\n      swap1\n      pop\n        /* \"#utility.yul\":887:919   */\n      swap2\n      swap1\n      pop\n      jump\t// out\n        /* \"#utility.yul\":925:1045   */\n    tag_16:\n        /* \"#utility.yul\":997:1020   */\n      tag_30\n        /* \"#utility.yul\":1014:1019   */\n      dup2\n        /* \"#utility.yul\":997:1020   */\n      tag_27\n      jump\t// in\n    tag_30:\n        /* \"#utility.yul\":990:995   */\n      dup2\n        /* \"#utility.yul\":987:1021   */\n      eq\n        /* \"#utility.yul\":977:979   */\n      tag_31\n      jumpi\n        /* \"#utility.yul\":1035:1036   */\n      0x00\n        /* \"#utility.yul\":1032:1033   */\n      dup1\n        /* \"#utility.yul\":1025:1037   */\n      revert\n        /* \"#utility.yul\":977:979   */\n    tag_31:\n        /* \"#utility.yul\":967:1045   */\n      pop\n      jump\t// out\n\n    auxdata: 0xa26469706673582212207329b08ff5320d039579d102d5b3e6b988f326f877f44cbe93b5effffb9cc0ff64736f6c63430008030033\n}\n",
				"bytecode": {
					"linkReferences": {},
					"object": "608060405234801561001057600080fd5b5061012e806100206000396000f3fe6080604052348015600f57600080fd5b506004361060285760003560e01c80635655a89614602d575b600080fd5b60436004803603810190603f91906082565b6057565b604051604e919060b5565b60405180910390f35b6000600182141560695760009050606a565b5b919050565b600081359050607c8160e4565b92915050565b600060208284031215609357600080fd5b6000609f84828501606f565b91505092915050565b60af8160ce565b82525050565b600060208201905060c8600083018460a8565b92915050565b60008115159050919050565b6000819050919050565b60eb8160da565b811460f557600080fd5b5056fea26469706673582212207329b08ff5320d039579d102d5b3e6b988f326f877f44cbe93b5effffb9cc0ff64736f6c63430008030033",
					"opcodes": "PUSH1 0x80 PUSH1 0x40 MSTORE CALLVALUE DUP1 ISZERO PUSH2 0x10 JUMPI PUSH1 0x0 DUP1 REVERT JUMPDEST POP PUSH2 0x12E DUP1 PUSH2 0x20 PUSH1 0x0 CODECOPY PUSH1 0x0 RETURN INVALID PUSH1 0x80 PUSH1 0x40 MSTORE CALLVALUE DUP1 ISZERO PUSH1 0xF JUMPI PUSH1 0x0 DUP1 REVERT JUMPDEST POP PUSH1 0x4 CALLDATASIZE LT PUSH1 0x28 JUMPI PUSH1 0x0 CALLDATALOAD PUSH1 0xE0 SHR DUP1 PUSH4 0x5655A896 EQ PUSH1 0x2D JUMPI JUMPDEST PUSH1 0x0 DUP1 REVERT JUMPDEST PUSH1 0x43 PUSH1 0x4 DUP1 CALLDATASIZE SUB DUP2 ADD SWAP1 PUSH1 0x3F SWAP2 SWAP1 PUSH1 0x82 JUMP JUMPDEST PUSH1 0x57 JUMP JUMPDEST PUSH1 0x40 MLOAD PUSH1 0x4E SWAP2 SWAP1 PUSH1 0xB5 JUMP JUMPDEST PUSH1 0x40 MLOAD DUP1 SWAP2 SUB SWAP1 RETURN JUMPDEST PUSH1 0x0 PUSH1 0x1 DUP3 EQ ISZERO PUSH1 0x69 JUMPI PUSH1 0x0 SWAP1 POP PUSH1 0x6A JUMP JUMPDEST JUMPDEST SWAP2 SWAP1 POP JUMP JUMPDEST PUSH1 0x0 DUP2 CALLDATALOAD SWAP1 POP PUSH1 0x7C DUP2 PUSH1 0xE4 JUMP JUMPDEST SWAP3 SWAP2 POP POP JUMP JUMPDEST PUSH1 0x0 PUSH1 0x20 DUP3 DUP5 SUB SLT ISZERO PUSH1 0x93 JUMPI PUSH1 0x0 DUP1 REVERT JUMPDEST PUSH1 0x0 PUSH1 0x9F DUP5 DUP3 DUP6 ADD PUSH1 0x6F JUMP JUMPDEST SWAP2 POP POP SWAP3 SWAP2 POP POP JUMP JUMPDEST PUSH1 0xAF DUP2 PUSH1 0xCE JUMP JUMPDEST DUP3 MSTORE POP POP JUMP JUMPDEST PUSH1 0x0 PUSH1 0x20 DUP3 ADD SWAP1 POP PUSH1 0xC8 PUSH1 0x0 DUP4 ADD DUP5 PUSH1 0xA8 JUMP JUMPDEST SWAP3 SWAP2 POP POP JUMP JUMPDEST PUSH1 0x0 DUP2 ISZERO ISZERO SWAP1 POP SWAP2 SWAP1 POP JUMP JUMPDEST PUSH1 0x0 DUP2 SWAP1 POP SWAP2 SWAP1 POP JUMP JUMPDEST PUSH1 0xEB DUP2 PUSH1 0xDA JUMP JUMPDEST DUP2 EQ PUSH1 0xF5 JUMPI PUSH1 0x0 DUP1 REVERT JUMPDEST POP JUMP INVALID LOG2 PUSH5 0x6970667358 0x22 SLT KECCAK256 PUSH20 0x29B08FF5320D039579D102D5B3E6B988F326F877 DELEGATECALL 0x4C 0xBE SWAP4 0xB5 0xEF SELFDESTRUCT 0xFB SWAP13 0xC0 SELFDESTRUCT PUSH5 0x736F6C6343 STOP ADDMOD SUB STOP CALLER "
				},
				"gasEstimates": {
					"creation": {
						"codeDepositCost": "60400",
						"executionCost": "111",
						"totalCost": "60511"
					},
					"external": {
						"Pnum(int256)": "623"
					}
				},
				"methodIdentifiers": {
					"Pnum(int256)": "5655a896"
				}
			},
			"storageLayout": {
				"storage": [],
				"types": null
			},
			"userdoc": {
				"kind": "user",
				"methods": {},
				"version": 1
			}
		}
	}
}