{
	"pnum.sol": {
		"Primenum": {
			"abi": [
				{
					"inputs": [
						{
							"internalType": "int256",
							"name": "num",
							"type": "int256"
						}
					],
					"name": "ifPrime",
					"outputs": [
						{
							"internalType": "bool",
							"name": "",
							"type": "bool"
						}
					],
					"stateMutability": "pure",
					"type": "function"
				}
			],
			"devdoc": {
				"kind": "dev",
				"methods": {},
				"version": 1
			},
			"evm": {
				"assembly": "    /* \"pnum.sol\":56:319  contract Primenum{\r... */\n  mstore(0x40, 0x80)\n  callvalue\n  dup1\n  iszero\n  tag_1\n  jumpi\n  0x00\n  dup1\n  revert\ntag_1:\n  pop\n  dataSize(sub_0)\n  dup1\n  dataOffset(sub_0)\n  0x00\n  codecopy\n  0x00\n  return\nstop\n\nsub_0: assembly {\n        /* \"pnum.sol\":56:319  contract Primenum{\r... */\n      mstore(0x40, 0x80)\n      callvalue\n      dup1\n      iszero\n      tag_1\n      jumpi\n      0x00\n      dup1\n      revert\n    tag_1:\n      pop\n      jumpi(tag_2, lt(calldatasize, 0x04))\n      shr(0xe0, calldataload(0x00))\n      dup1\n      0x47b78e4a\n      eq\n      tag_3\n      jumpi\n    tag_2:\n      0x00\n      dup1\n      revert\n        /* \"pnum.sol\":79:309  function ifPrime(int num) public pure returns (bool){\r... */\n    tag_3:\n      tag_4\n      0x04\n      dup1\n      calldatasize\n      sub\n      dup2\n      add\n      swap1\n      tag_5\n      swap2\n      swap1\n      tag_6\n      jump\t// in\n    tag_5:\n      tag_7\n      jump\t// in\n    tag_4:\n      mload(0x40)\n      tag_8\n      swap2\n      swap1\n      tag_9\n      jump\t// in\n    tag_8:\n      mload(0x40)\n      dup1\n      swap2\n      sub\n      swap1\n      return\n    tag_7:\n        /* \"pnum.sol\":126:130  bool */\n      0x00\n        /* \"pnum.sol\":153:154  1 */\n      0x01\n        /* \"pnum.sol\":146:149  num */\n      dup3\n        /* \"pnum.sol\":146:154  num == 1 */\n      eq\n        /* \"pnum.sol\":142:168  if (num == 1) return false */\n      iszero\n      tag_11\n      jumpi\n        /* \"pnum.sol\":163:168  false */\n      0x00\n        /* \"pnum.sol\":156:168  return false */\n      swap1\n      pop\n      jump(tag_10)\n        /* \"pnum.sol\":142:168  if (num == 1) return false */\n    tag_11:\n        /* \"pnum.sol\":183:188  int i */\n      0x00\n        /* \"pnum.sol\":191:192  2 */\n      0x02\n        /* \"pnum.sol\":183:192  int i = 2 */\n      swap1\n      pop\n        /* \"pnum.sol\":179:280  for(int i = 2; i < num; i++){\r... */\n    tag_12:\n        /* \"pnum.sol\":198:201  num */\n      dup3\n        /* \"pnum.sol\":194:195  i */\n      dup2\n        /* \"pnum.sol\":194:201  i < num */\n      slt\n        /* \"pnum.sol\":179:280  for(int i = 2; i < num; i++){\r... */\n      iszero\n      tag_13\n      jumpi\n        /* \"pnum.sol\":236:237  0 */\n      0x00\n        /* \"pnum.sol\":231:232  i */\n      dup2\n        /* \"pnum.sol\":225:228  num */\n      dup5\n        /* \"pnum.sol\":225:232  num % i */\n      tag_15\n      swap2\n      swap1\n      tag_16\n      jump\t// in\n    tag_15:\n        /* \"pnum.sol\":225:237  num % i == 0 */\n      eq\n        /* \"pnum.sol\":222:268  if(num % i == 0)\r... */\n      iszero\n      tag_17\n      jumpi\n        /* \"pnum.sol\":263:268  false */\n      0x00\n        /* \"pnum.sol\":256:268  return false */\n      swap2\n      pop\n      pop\n      jump(tag_10)\n        /* \"pnum.sol\":222:268  if(num % i == 0)\r... */\n    tag_17:\n        /* \"pnum.sol\":203:206  i++ */\n      dup1\n      dup1\n      tag_18\n      swap1\n      tag_19\n      jump\t// in\n    tag_18:\n      swap2\n      pop\n      pop\n        /* \"pnum.sol\":179:280  for(int i = 2; i < num; i++){\r... */\n      jump(tag_12)\n    tag_13:\n      pop\n        /* \"pnum.sol\":297:301  true */\n      0x01\n        /* \"pnum.sol\":290:301  return true */\n      swap1\n      pop\n        /* \"pnum.sol\":79:309  function ifPrime(int num) public pure returns (bool){\r... */\n    tag_10:\n      swap2\n      swap1\n      pop\n      jump\t// out\n        /* \"#utility.yul\":7:144   */\n    tag_21:\n        /* \"#utility.yul\":52:57   */\n      0x00\n        /* \"#utility.yul\":90:96   */\n      dup2\n        /* \"#utility.yul\":77:97   */\n      calldataload\n        /* \"#utility.yul\":68:97   */\n      swap1\n      pop\n        /* \"#utility.yul\":106:138   */\n      tag_23\n        /* \"#utility.yul\":132:137   */\n      dup2\n        /* \"#utility.yul\":106:138   */\n      tag_24\n      jump\t// in\n    tag_23:\n        /* \"#utility.yul\":7:144   */\n      swap3\n      swap2\n      pop\n      pop\n      jump\t// out\n        /* \"#utility.yul\":150:477   */\n    tag_6:\n        /* \"#utility.yul\":208:214   */\n      0x00\n        /* \"#utility.yul\":257:259   */\n      0x20\n        /* \"#utility.yul\":245:254   */\n      dup3\n        /* \"#utility.yul\":236:243   */\n      dup5\n        /* \"#utility.yul\":232:255   */\n      sub\n        /* \"#utility.yul\":228:260   */\n      slt\n        /* \"#utility.yul\":225:344   */\n      iszero\n      tag_26\n      jumpi\n        /* \"#utility.yul\":263:342   */\n      tag_27\n      tag_28\n      jump\t// in\n    tag_27:\n        /* \"#utility.yul\":225:344   */\n    tag_26:\n        /* \"#utility.yul\":383:384   */\n      0x00\n        /* \"#utility.yul\":408:460   */\n      tag_29\n        /* \"#utility.yul\":452:459   */\n      dup5\n        /* \"#utility.yul\":443:449   */\n      dup3\n        /* \"#utility.yul\":432:441   */\n      dup6\n        /* \"#utility.yul\":428:450   */\n      add\n        /* \"#utility.yul\":408:460   */\n      tag_21\n      jump\t// in\n    tag_29:\n        /* \"#utility.yul\":398:460   */\n      swap2\n      pop\n        /* \"#utility.yul\":354:470   */\n      pop\n        /* \"#utility.yul\":150:477   */\n      swap3\n      swap2\n      pop\n      pop\n      jump\t// out\n        /* \"#utility.yul\":483:592   */\n    tag_30:\n        /* \"#utility.yul\":564:585   */\n      tag_32\n        /* \"#utility.yul\":579:584   */\n      dup2\n        /* \"#utility.yul\":564:585   */\n      tag_33\n      jump\t// in\n    tag_32:\n        /* \"#utility.yul\":559:562   */\n      dup3\n        /* \"#utility.yul\":552:586   */\n      mstore\n        /* \"#utility.yul\":483:592   */\n      pop\n      pop\n      jump\t// out\n        /* \"#utility.yul\":598:808   */\n    tag_9:\n        /* \"#utility.yul\":685:689   */\n      0x00\n        /* \"#utility.yul\":723:725   */\n      0x20\n        /* \"#utility.yul\":712:721   */\n      dup3\n        /* \"#utility.yul\":708:726   */\n      add\n        /* \"#utility.yul\":700:726   */\n      swap1\n      pop\n        /* \"#utility.yul\":736:801   */\n      tag_35\n        /* \"#utility.yul\":798:799   */\n      0x00\n        /* \"#utility.yul\":787:796   */\n      dup4\n        /* \"#utility.yul\":783:800   */\n      add\n        /* \"#utility.yul\":774:780   */\n      dup5\n        /* \"#utility.yul\":736:801   */\n      tag_30\n      jump\t// in\n    tag_35:\n        /* \"#utility.yul\":598:808   */\n      swap3\n      swap2\n      pop\n      pop\n      jump\t// out\n        /* \"#utility.yul\":895:985   */\n    tag_33:\n        /* \"#utility.yul\":929:936   */\n      0x00\n        /* \"#utility.yul\":972:977   */\n      dup2\n        /* \"#utility.yul\":965:978   */\n      iszero\n        /* \"#utility.yul\":958:979   */\n      iszero\n        /* \"#utility.yul\":947:979   */\n      swap1\n      pop\n        /* \"#utility.yul\":895:985   */\n      swap2\n      swap1\n      pop\n      jump\t// out\n        /* \"#utility.yul\":991:1067   */\n    tag_39:\n        /* \"#utility.yul\":1027:1034   */\n      0x00\n        /* \"#utility.yul\":1056:1061   */\n      dup2\n        /* \"#utility.yul\":1045:1061   */\n      swap1\n      pop\n        /* \"#utility.yul\":991:1067   */\n      swap2\n      swap1\n      pop\n      jump\t// out\n        /* \"#utility.yul\":1073:1304   */\n    tag_19:\n        /* \"#utility.yul\":1111:1114   */\n      0x00\n        /* \"#utility.yul\":1134:1157   */\n      tag_42\n        /* \"#utility.yul\":1151:1156   */\n      dup3\n        /* \"#utility.yul\":1134:1157   */\n      tag_39\n      jump\t// in\n    tag_42:\n        /* \"#utility.yul\":1125:1157   */\n      swap2\n      pop\n        /* \"#utility.yul\":1179:1245   */\n      0x7fffffffffffffffffffffffffffffffffffffffffffffffffffffffffffffff\n        /* \"#utility.yul\":1172:1177   */\n      dup3\n        /* \"#utility.yul\":1169:1246   */\n      eq\n        /* \"#utility.yul\":1166:1269   */\n      iszero\n      tag_43\n      jumpi\n        /* \"#utility.yul\":1249:1267   */\n      tag_44\n      tag_45\n      jump\t// in\n    tag_44:\n        /* \"#utility.yul\":1166:1269   */\n    tag_43:\n        /* \"#utility.yul\":1296:1297   */\n      0x01\n        /* \"#utility.yul\":1289:1294   */\n      dup3\n        /* \"#utility.yul\":1285:1298   */\n      add\n        /* \"#utility.yul\":1278:1298   */\n      swap1\n      pop\n        /* \"#utility.yul\":1073:1304   */\n      swap2\n      swap1\n      pop\n      jump\t// out\n        /* \"#utility.yul\":1310:1484   */\n    tag_16:\n        /* \"#utility.yul\":1341:1342   */\n      0x00\n        /* \"#utility.yul\":1358:1377   */\n      tag_47\n        /* \"#utility.yul\":1375:1376   */\n      dup3\n        /* \"#utility.yul\":1358:1377   */\n      tag_39\n      jump\t// in\n    tag_47:\n        /* \"#utility.yul\":1353:1377   */\n      swap2\n      pop\n        /* \"#utility.yul\":1391:1410   */\n      tag_48\n        /* \"#utility.yul\":1408:1409   */\n      dup4\n        /* \"#utility.yul\":1391:1410   */\n      tag_39\n      jump\t// in\n    tag_48:\n        /* \"#utility.yul\":1386:1410   */\n      swap3\n      pop\n        /* \"#utility.yul\":1429:1430   */\n      dup3\n        /* \"#utility.yul\":1419:1454   */\n      tag_49\n      jumpi\n        /* \"#utility.yul\":1434:1452   */\n      tag_50\n      tag_51\n      jump\t// in\n    tag_50:\n        /* \"#utility.yul\":1419:1454   */\n    tag_49:\n        /* \"#utility.yul\":1476:1477   */\n      dup3\n        /* \"#utility.yul\":1473:1474   */\n      dup3\n        /* \"#utility.yul\":1468:1478   */\n      smod\n        /* \"#utility.yul\":1463:1478   */\n      swap1\n      pop\n        /* \"#utility.yul\":1310:1484   */\n      swap3\n      swap2\n      pop\n      pop\n      jump\t// out\n        /* \"#utility.yul\":1490:1670   */\n    tag_45:\n        /* \"#utility.yul\":1538:1615   */\n      0x4e487b7100000000000000000000000000000000000000000000000000000000\n        /* \"#utility.yul\":1535:1536   */\n      0x00\n        /* \"#utility.yul\":1528:1616   */\n      mstore\n        /* \"#utility.yul\":1635:1639   */\n      0x11\n        /* \"#utility.yul\":1632:1633   */\n      0x04\n        /* \"#utility.yul\":1625:1640   */\n      mstore\n        /* \"#utility.yul\":1659:1663   */\n      0x24\n        /* \"#utility.yul\":1656:1657   */\n      0x00\n        /* \"#utility.yul\":1649:1664   */\n      revert\n        /* \"#utility.yul\":1676:1856   */\n    tag_51:\n        /* \"#utility.yul\":1724:1801   */\n      0x4e487b7100000000000000000000000000000000000000000000000000000000\n        /* \"#utility.yul\":1721:1722   */\n      0x00\n        /* \"#utility.yul\":1714:1802   */\n      mstore\n        /* \"#utility.yul\":1821:1825   */\n      0x12\n        /* \"#utility.yul\":1818:1819   */\n      0x04\n        /* \"#utility.yul\":1811:1826   */\n      mstore\n        /* \"#utility.yul\":1845:1849   */\n      0x24\n        /* \"#utility.yul\":1842:1843   */\n      0x00\n        /* \"#utility.yul\":1835:1850   */\n      revert\n        /* \"#utility.yul\":1985:2102   */\n    tag_28:\n        /* \"#utility.yul\":2094:2095   */\n      0x00\n        /* \"#utility.yul\":2091:2092   */\n      dup1\n        /* \"#utility.yul\":2084:2096   */\n      revert\n        /* \"#utility.yul\":2108:2228   */\n    tag_24:\n        /* \"#utility.yul\":2180:2203   */\n      tag_58\n        /* \"#utility.yul\":2197:2202   */\n      dup2\n        /* \"#utility.yul\":2180:2203   */\n      tag_39\n      jump\t// in\n    tag_58:\n        /* \"#utility.yul\":2173:2178   */\n      dup2\n        /* \"#utility.yul\":2170:2204   */\n      eq\n        /* \"#utility.yul\":2160:2222   */\n      tag_59\n      jumpi\n        /* \"#utility.yul\":2218:2219   */\n      0x00\n        /* \"#utility.yul\":2215:2216   */\n      dup1\n        /* \"#utility.yul\":2208:2220   */\n      revert\n        /* \"#utility.yul\":2160:2222   */\n    tag_59:\n        /* \"#utility.yul\":2108:2228   */\n      pop\n      jump\t// out\n\n    auxdata: 0xa2646970667358221220d4af335271b2a92ec23e05add5faa8d75166138db14ee7f119565b9fd274478564736f6c63430008070033\n}\n",
				"bytecode": {
					"linkReferences": {},
					"object": "608060405234801561001057600080fd5b5061026b806100206000396000f3fe608060405234801561001057600080fd5b506004361061002b5760003560e01c806347b78e4a14610030575b600080fd5b61004a600480360381019061004591906100d4565b610060565b6040516100579190610110565b60405180910390f35b6000600182141561007457600090506100ba565b6000600290505b828112156100b45760008184610091919061018a565b14156100a15760009150506100ba565b80806100ac90610141565b91505061007b565b50600190505b919050565b6000813590506100ce8161021e565b92915050565b6000602082840312156100ea576100e9610219565b5b60006100f8848285016100bf565b91505092915050565b61010a8161012b565b82525050565b60006020820190506101256000830184610101565b92915050565b60008115159050919050565b6000819050919050565b600061014c82610137565b91507f7fffffffffffffffffffffffffffffffffffffffffffffffffffffffffffffff82141561017f5761017e6101bb565b5b600182019050919050565b600061019582610137565b91506101a083610137565b9250826101b0576101af6101ea565b5b828207905092915050565b7f4e487b7100000000000000000000000000000000000000000000000000000000600052601160045260246000fd5b7f4e487b7100000000000000000000000000000000000000000000000000000000600052601260045260246000fd5b600080fd5b61022781610137565b811461023257600080fd5b5056fea2646970667358221220d4af335271b2a92ec23e05add5faa8d75166138db14ee7f119565b9fd274478564736f6c63430008070033",
					"opcodes": "PUSH1 0x80 PUSH1 0x40 MSTORE CALLVALUE DUP1 ISZERO PUSH2 0x10 JUMPI PUSH1 0x0 DUP1 REVERT JUMPDEST POP PUSH2 0x26B DUP1 PUSH2 0x20 PUSH1 0x0 CODECOPY PUSH1 0x0 RETURN INVALID PUSH1 0x80 PUSH1 0x40 MSTORE CALLVALUE DUP1 ISZERO PUSH2 0x10 JUMPI PUSH1 0x0 DUP1 REVERT JUMPDEST POP PUSH1 0x4 CALLDATASIZE LT PUSH2 0x2B JUMPI PUSH1 0x0 CALLDATALOAD PUSH1 0xE0 SHR DUP1 PUSH4 0x47B78E4A EQ PUSH2 0x30 JUMPI JUMPDEST PUSH1 0x0 DUP1 REVERT JUMPDEST PUSH2 0x4A PUSH1 0x4 DUP1 CALLDATASIZE SUB DUP2 ADD SWAP1 PUSH2 0x45 SWAP2 SWAP1 PUSH2 0xD4 JUMP JUMPDEST PUSH2 0x60 JUMP JUMPDEST PUSH1 0x40 MLOAD PUSH2 0x57 SWAP2 SWAP1 PUSH2 0x110 JUMP JUMPDEST PUSH1 0x40 MLOAD DUP1 SWAP2 SUB SWAP1 RETURN JUMPDEST PUSH1 0x0 PUSH1 0x1 DUP3 EQ ISZERO PUSH2 0x74 JUMPI PUSH1 0x0 SWAP1 POP PUSH2 0xBA JUMP JUMPDEST PUSH1 0x0 PUSH1 0x2 SWAP1 POP JUMPDEST DUP3 DUP2 SLT ISZERO PUSH2 0xB4 JUMPI PUSH1 0x0 DUP2 DUP5 PUSH2 0x91 SWAP2 SWAP1 PUSH2 0x18A JUMP JUMPDEST EQ ISZERO PUSH2 0xA1 JUMPI PUSH1 0x0 SWAP2 POP POP PUSH2 0xBA JUMP JUMPDEST DUP1 DUP1 PUSH2 0xAC SWAP1 PUSH2 0x141 JUMP JUMPDEST SWAP2 POP POP PUSH2 0x7B JUMP JUMPDEST POP PUSH1 0x1 SWAP1 POP JUMPDEST SWAP2 SWAP1 POP JUMP JUMPDEST PUSH1 0x0 DUP2 CALLDATALOAD SWAP1 POP PUSH2 0xCE DUP2 PUSH2 0x21E JUMP JUMPDEST SWAP3 SWAP2 POP POP JUMP JUMPDEST PUSH1 0x0 PUSH1 0x20 DUP3 DUP5 SUB SLT ISZERO PUSH2 0xEA JUMPI PUSH2 0xE9 PUSH2 0x219 JUMP JUMPDEST JUMPDEST PUSH1 0x0 PUSH2 0xF8 DUP5 DUP3 DUP6 ADD PUSH2 0xBF JUMP JUMPDEST SWAP2 POP POP SWAP3 SWAP2 POP POP JUMP JUMPDEST PUSH2 0x10A DUP2 PUSH2 0x12B JUMP JUMPDEST DUP3 MSTORE POP POP JUMP JUMPDEST PUSH1 0x0 PUSH1 0x20 DUP3 ADD SWAP1 POP PUSH2 0x125 PUSH1 0x0 DUP4 ADD DUP5 PUSH2 0x101 JUMP JUMPDEST SWAP3 SWAP2 POP POP JUMP JUMPDEST PUSH1 0x0 DUP2 ISZERO ISZERO SWAP1 POP SWAP2 SWAP1 POP JUMP JUMPDEST PUSH1 0x0 DUP2 SWAP1 POP SWAP2 SWAP1 POP JUMP JUMPDEST PUSH1 0x0 PUSH2 0x14C DUP3 PUSH2 0x137 JUMP JUMPDEST SWAP2 POP PUSH32 0x7FFFFFFFFFFFFFFFFFFFFFFFFFFFFFFFFFFFFFFFFFFFFFFFFFFFFFFFFFFFFFFF DUP3 EQ ISZERO PUSH2 0x17F JUMPI PUSH2 0x17E PUSH2 0x1BB JUMP JUMPDEST JUMPDEST PUSH1 0x1 DUP3 ADD SWAP1 POP SWAP2 SWAP1 POP JUMP JUMPDEST PUSH1 0x0 PUSH2 0x195 DUP3 PUSH2 0x137 JUMP JUMPDEST SWAP2 POP PUSH2 0x1A0 DUP4 PUSH2 0x137 JUMP JUMPDEST SWAP3 POP DUP3 PUSH2 0x1B0 JUMPI PUSH2 0x1AF PUSH2 0x1EA JUMP JUMPDEST JUMPDEST DUP3 DUP3 SMOD SWAP1 POP SWAP3 SWAP2 POP POP JUMP JUMPDEST PUSH32 0x4E487B7100000000000000000000000000000000000000000000000000000000 PUSH1 0x0 MSTORE PUSH1 0x11 PUSH1 0x4 MSTORE PUSH1 0x24 PUSH1 0x0 REVERT JUMPDEST PUSH32 0x4E487B7100000000000000000000000000000000000000000000000000000000 PUSH1 0x0 MSTORE PUSH1 0x12 PUSH1 0x4 MSTORE PUSH1 0x24 PUSH1 0x0 REVERT JUMPDEST PUSH1 0x0 DUP1 REVERT JUMPDEST PUSH2 0x227 DUP2 PUSH2 0x137 JUMP JUMPDEST DUP2 EQ PUSH2 0x232 JUMPI PUSH1 0x0 DUP1 REVERT JUMPDEST POP JUMP INVALID LOG2 PUSH5 0x6970667358 0x22 SLT KECCAK256 0xD4 0xAF CALLER MSTORE PUSH18 0xB2A92EC23E05ADD5FAA8D75166138DB14EE7 CALL NOT JUMP JUMPDEST SWAP16 0xD2 PUSH21 0x478564736F6C634300080700330000000000000000 "
				},
				"gasEstimates": {
					"creation": {
						"codeDepositCost": "123800",
						"executionCost": "171",
						"totalCost": "123971"
					},
					"external": {
						"ifPrime(int256)": "infinite"
					}
				},
				"methodIdentifiers": {
					"ifPrime(int256)": "47b78e4a"
				}
			},
			"storageLayout": {
				"storage": [],
				"types": null
			},
			"userdoc": {
				"kind": "user",
				"methods": {},
				"version": 1
			}
		}
	}
}