{
	"opo.sol": {
		"counter": {
			"abi": [
				{
					"anonymous": false,
					"inputs": [
						{
							"indexed": false,
							"internalType": "string",
							"name": "oper",
							"type": "string"
						},
						{
							"indexed": false,
							"internalType": "uint256",
							"name": "oge",
							"type": "uint256"
						}
					],
					"name": "Show",
					"type": "event"
				},
				{
					"inputs": [],
					"name": "count",
					"outputs": [
						{
							"internalType": "uint256",
							"name": "",
							"type": "uint256"
						}
					],
					"stateMutability": "view",
					"type": "function"
				},
				{
					"inputs": [],
					"name": "dec",
					"outputs": [],
					"stateMutability": "nonpayable",
					"type": "function"
				},
				{
					"inputs": [],
					"name": "emi",
					"outputs": [
						{
							"internalType": "string",
							"name": "",
							"type": "string"
						}
					],
					"stateMutability": "nonpayable",
					"type": "function"
				},
				{
					"inputs": [],
					"name": "inc",
					"outputs": [],
					"stateMutability": "nonpayable",
					"type": "function"
				}
			],
			"devdoc": {
				"kind": "dev",
				"methods": {},
				"version": 1
			},
			"evm": {
				"assembly": "    /* \"opo.sol\":56:333  contract counter{\r... */\n  mstore(0x40, 0x80)\n  callvalue\n  dup1\n  iszero\n  tag_1\n  jumpi\n  0x00\n  dup1\n  revert\ntag_1:\n  pop\n  dataSize(sub_0)\n  dup1\n  dataOffset(sub_0)\n  0x00\n  codecopy\n  0x00\n  return\nstop\n\nsub_0: assembly {\n        /* \"opo.sol\":56:333  contract counter{\r... */\n      mstore(0x40, 0x80)\n      callvalue\n      dup1\n      iszero\n      tag_1\n      jumpi\n      0x00\n      dup1\n      revert\n    tag_1:\n      pop\n      jumpi(tag_2, lt(calldatasize, 0x04))\n      shr(0xe0, calldataload(0x00))\n      dup1\n      0x06661abd\n      eq\n      tag_3\n      jumpi\n      dup1\n      0x371303c0\n      eq\n      tag_4\n      jumpi\n      dup1\n      0xb3bcfa82\n      eq\n      tag_5\n      jumpi\n      dup1\n      0xeccc0016\n      eq\n      tag_6\n      jumpi\n    tag_2:\n      0x00\n      dup1\n      revert\n        /* \"opo.sol\":79:96  uint public count */\n    tag_3:\n      tag_7\n      tag_8\n      jump\t// in\n    tag_7:\n      mload(0x40)\n      tag_9\n      swap2\n      swap1\n      tag_10\n      jump\t// in\n    tag_9:\n      mload(0x40)\n      dup1\n      swap2\n      sub\n      swap1\n      return\n        /* \"opo.sol\":143:185  function inc() public {\r... */\n    tag_4:\n      tag_11\n      tag_12\n      jump\t// in\n    tag_11:\n      stop\n        /* \"opo.sol\":191:241  function dec() public {\r... */\n    tag_5:\n      tag_13\n      tag_14\n      jump\t// in\n    tag_13:\n      stop\n        /* \"opo.sol\":246:329  function emi() public returns (string memory){\r... */\n    tag_6:\n      tag_15\n      tag_16\n      jump\t// in\n    tag_15:\n      mload(0x40)\n      tag_17\n      swap2\n      swap1\n      tag_18\n      jump\t// in\n    tag_17:\n      mload(0x40)\n      dup1\n      swap2\n      sub\n      swap1\n      return\n        /* \"opo.sol\":79:96  uint public count */\n    tag_8:\n      sload(0x00)\n      dup2\n      jump\t// out\n        /* \"opo.sol\":143:185  function inc() public {\r... */\n    tag_12:\n        /* \"opo.sol\":176:177  1 */\n      0x01\n        /* \"opo.sol\":168:173  count */\n      0x00\n      dup1\n        /* \"opo.sol\":168:177  count +=1 */\n      dup3\n      dup3\n      sload\n      tag_20\n      swap2\n      swap1\n      tag_21\n      jump\t// in\n    tag_20:\n      swap3\n      pop\n      pop\n      dup2\n      swap1\n      sstore\n      pop\n        /* \"opo.sol\":143:185  function inc() public {\r... */\n      jump\t// out\n        /* \"opo.sol\":191:241  function dec() public {\r... */\n    tag_14:\n        /* \"opo.sol\":232:233  1 */\n      0x01\n        /* \"opo.sol\":224:229  count */\n      0x00\n      dup1\n        /* \"opo.sol\":224:233  count -=1 */\n      dup3\n      dup3\n      sload\n      tag_23\n      swap2\n      swap1\n      tag_24\n      jump\t// in\n    tag_23:\n      swap3\n      pop\n      pop\n      dup2\n      swap1\n      sstore\n      pop\n        /* \"opo.sol\":191:241  function dec() public {\r... */\n      jump\t// out\n        /* \"opo.sol\":246:329  function emi() public returns (string memory){\r... */\n    tag_16:\n        /* \"opo.sol\":277:290  string memory */\n      0x60\n        /* \"opo.sol\":306:322  Show(\"grr\", 234) */\n      0x2ee5174eab93f9accdaec16180b0868e51683702b9d01a143c69ef7b26c46a13\n        /* \"opo.sol\":318:321  234 */\n      0xea\n        /* \"opo.sol\":306:322  Show(\"grr\", 234) */\n      mload(0x40)\n      tag_26\n      swap2\n      swap1\n      tag_27\n      jump\t// in\n    tag_26:\n      mload(0x40)\n      dup1\n      swap2\n      sub\n      swap1\n      log1\n        /* \"opo.sol\":246:329  function emi() public returns (string memory){\r... */\n      swap1\n      jump\t// out\n        /* \"#utility.yul\":7:158   */\n    tag_29:\n        /* \"#utility.yul\":104:151   */\n      tag_31\n        /* \"#utility.yul\":145:150   */\n      dup2\n        /* \"#utility.yul\":104:151   */\n      tag_32\n      jump\t// in\n    tag_31:\n        /* \"#utility.yul\":99:102   */\n      dup3\n        /* \"#utility.yul\":92:152   */\n      mstore\n        /* \"#utility.yul\":7:158   */\n      pop\n      pop\n      jump\t// out\n        /* \"#utility.yul\":164:528   */\n    tag_33:\n        /* \"#utility.yul\":252:255   */\n      0x00\n        /* \"#utility.yul\":280:319   */\n      tag_35\n        /* \"#utility.yul\":313:318   */\n      dup3\n        /* \"#utility.yul\":280:319   */\n      tag_36\n      jump\t// in\n    tag_35:\n        /* \"#utility.yul\":335:406   */\n      tag_37\n        /* \"#utility.yul\":399:405   */\n      dup2\n        /* \"#utility.yul\":394:397   */\n      dup6\n        /* \"#utility.yul\":335:406   */\n      tag_38\n      jump\t// in\n    tag_37:\n        /* \"#utility.yul\":328:406   */\n      swap4\n      pop\n        /* \"#utility.yul\":415:467   */\n      tag_39\n        /* \"#utility.yul\":460:466   */\n      dup2\n        /* \"#utility.yul\":455:458   */\n      dup6\n        /* \"#utility.yul\":448:452   */\n      0x20\n        /* \"#utility.yul\":441:446   */\n      dup7\n        /* \"#utility.yul\":437:453   */\n      add\n        /* \"#utility.yul\":415:467   */\n      tag_40\n      jump\t// in\n    tag_39:\n        /* \"#utility.yul\":492:521   */\n      tag_41\n        /* \"#utility.yul\":514:520   */\n      dup2\n        /* \"#utility.yul\":492:521   */\n      tag_42\n      jump\t// in\n    tag_41:\n        /* \"#utility.yul\":487:490   */\n      dup5\n        /* \"#utility.yul\":483:522   */\n      add\n        /* \"#utility.yul\":476:522   */\n      swap2\n      pop\n        /* \"#utility.yul\":256:528   */\n      pop\n        /* \"#utility.yul\":164:528   */\n      swap3\n      swap2\n      pop\n      pop\n      jump\t// out\n        /* \"#utility.yul\":534:899   */\n    tag_43:\n        /* \"#utility.yul\":676:679   */\n      0x00\n        /* \"#utility.yul\":697:763   */\n      tag_45\n        /* \"#utility.yul\":761:762   */\n      0x03\n        /* \"#utility.yul\":756:759   */\n      dup4\n        /* \"#utility.yul\":697:763   */\n      tag_38\n      jump\t// in\n    tag_45:\n        /* \"#utility.yul\":690:763   */\n      swap2\n      pop\n        /* \"#utility.yul\":772:865   */\n      tag_46\n        /* \"#utility.yul\":861:864   */\n      dup3\n        /* \"#utility.yul\":772:865   */\n      tag_47\n      jump\t// in\n    tag_46:\n        /* \"#utility.yul\":890:892   */\n      0x20\n        /* \"#utility.yul\":885:888   */\n      dup3\n        /* \"#utility.yul\":881:893   */\n      add\n        /* \"#utility.yul\":874:893   */\n      swap1\n      pop\n        /* \"#utility.yul\":534:899   */\n      swap2\n      swap1\n      pop\n      jump\t// out\n        /* \"#utility.yul\":905:1023   */\n    tag_48:\n        /* \"#utility.yul\":992:1016   */\n      tag_50\n        /* \"#utility.yul\":1010:1015   */\n      dup2\n        /* \"#utility.yul\":992:1016   */\n      tag_51\n      jump\t// in\n    tag_50:\n        /* \"#utility.yul\":987:990   */\n      dup3\n        /* \"#utility.yul\":980:1017   */\n      mstore\n        /* \"#utility.yul\":905:1023   */\n      pop\n      pop\n      jump\t// out\n        /* \"#utility.yul\":1029:1342   */\n    tag_18:\n        /* \"#utility.yul\":1142:1146   */\n      0x00\n        /* \"#utility.yul\":1180:1182   */\n      0x20\n        /* \"#utility.yul\":1169:1178   */\n      dup3\n        /* \"#utility.yul\":1165:1183   */\n      add\n        /* \"#utility.yul\":1157:1183   */\n      swap1\n      pop\n        /* \"#utility.yul\":1229:1238   */\n      dup2\n        /* \"#utility.yul\":1223:1227   */\n      dup2\n        /* \"#utility.yul\":1219:1239   */\n      sub\n        /* \"#utility.yul\":1215:1216   */\n      0x00\n        /* \"#utility.yul\":1204:1213   */\n      dup4\n        /* \"#utility.yul\":1200:1217   */\n      add\n        /* \"#utility.yul\":1193:1240   */\n      mstore\n        /* \"#utility.yul\":1257:1335   */\n      tag_53\n        /* \"#utility.yul\":1330:1334   */\n      dup2\n        /* \"#utility.yul\":1321:1327   */\n      dup5\n        /* \"#utility.yul\":1257:1335   */\n      tag_33\n      jump\t// in\n    tag_53:\n        /* \"#utility.yul\":1249:1335   */\n      swap1\n      pop\n        /* \"#utility.yul\":1029:1342   */\n      swap3\n      swap2\n      pop\n      pop\n      jump\t// out\n        /* \"#utility.yul\":1348:1897   */\n    tag_27:\n        /* \"#utility.yul\":1552:1556   */\n      0x00\n        /* \"#utility.yul\":1590:1592   */\n      0x40\n        /* \"#utility.yul\":1579:1588   */\n      dup3\n        /* \"#utility.yul\":1575:1593   */\n      add\n        /* \"#utility.yul\":1567:1593   */\n      swap1\n      pop\n        /* \"#utility.yul\":1639:1648   */\n      dup2\n        /* \"#utility.yul\":1633:1637   */\n      dup2\n        /* \"#utility.yul\":1629:1649   */\n      sub\n        /* \"#utility.yul\":1625:1626   */\n      0x00\n        /* \"#utility.yul\":1614:1623   */\n      dup4\n        /* \"#utility.yul\":1610:1627   */\n      add\n        /* \"#utility.yul\":1603:1650   */\n      mstore\n        /* \"#utility.yul\":1667:1798   */\n      tag_55\n        /* \"#utility.yul\":1793:1797   */\n      dup2\n        /* \"#utility.yul\":1667:1798   */\n      tag_43\n      jump\t// in\n    tag_55:\n        /* \"#utility.yul\":1659:1798   */\n      swap1\n      pop\n        /* \"#utility.yul\":1808:1890   */\n      tag_56\n        /* \"#utility.yul\":1886:1888   */\n      0x20\n        /* \"#utility.yul\":1875:1884   */\n      dup4\n        /* \"#utility.yul\":1871:1889   */\n      add\n        /* \"#utility.yul\":1862:1868   */\n      dup5\n        /* \"#utility.yul\":1808:1890   */\n      tag_29\n      jump\t// in\n    tag_56:\n        /* \"#utility.yul\":1348:1897   */\n      swap3\n      swap2\n      pop\n      pop\n      jump\t// out\n        /* \"#utility.yul\":1903:2125   */\n    tag_10:\n        /* \"#utility.yul\":1996:2000   */\n      0x00\n        /* \"#utility.yul\":2034:2036   */\n      0x20\n        /* \"#utility.yul\":2023:2032   */\n      dup3\n        /* \"#utility.yul\":2019:2037   */\n      add\n        /* \"#utility.yul\":2011:2037   */\n      swap1\n      pop\n        /* \"#utility.yul\":2047:2118   */\n      tag_58\n        /* \"#utility.yul\":2115:2116   */\n      0x00\n        /* \"#utility.yul\":2104:2113   */\n      dup4\n        /* \"#utility.yul\":2100:2117   */\n      add\n        /* \"#utility.yul\":2091:2097   */\n      dup5\n        /* \"#utility.yul\":2047:2118   */\n      tag_48\n      jump\t// in\n    tag_58:\n        /* \"#utility.yul\":1903:2125   */\n      swap3\n      swap2\n      pop\n      pop\n      jump\t// out\n        /* \"#utility.yul\":2131:2230   */\n    tag_36:\n        /* \"#utility.yul\":2183:2189   */\n      0x00\n        /* \"#utility.yul\":2217:2222   */\n      dup2\n        /* \"#utility.yul\":2211:2223   */\n      mload\n        /* \"#utility.yul\":2201:2223   */\n      swap1\n      pop\n        /* \"#utility.yul\":2131:2230   */\n      swap2\n      swap1\n      pop\n      jump\t// out\n        /* \"#utility.yul\":2236:2405   */\n    tag_38:\n        /* \"#utility.yul\":2320:2331   */\n      0x00\n        /* \"#utility.yul\":2354:2360   */\n      dup3\n        /* \"#utility.yul\":2349:2352   */\n      dup3\n        /* \"#utility.yul\":2342:2361   */\n      mstore\n        /* \"#utility.yul\":2394:2398   */\n      0x20\n        /* \"#utility.yul\":2389:2392   */\n      dup3\n        /* \"#utility.yul\":2385:2399   */\n      add\n        /* \"#utility.yul\":2370:2399   */\n      swap1\n      pop\n        /* \"#utility.yul\":2236:2405   */\n      swap3\n      swap2\n      pop\n      pop\n      jump\t// out\n        /* \"#utility.yul\":2411:2716   */\n    tag_21:\n        /* \"#utility.yul\":2451:2454   */\n      0x00\n        /* \"#utility.yul\":2470:2490   */\n      tag_62\n        /* \"#utility.yul\":2488:2489   */\n      dup3\n        /* \"#utility.yul\":2470:2490   */\n      tag_51\n      jump\t// in\n    tag_62:\n        /* \"#utility.yul\":2465:2490   */\n      swap2\n      pop\n        /* \"#utility.yul\":2504:2524   */\n      tag_63\n        /* \"#utility.yul\":2522:2523   */\n      dup4\n        /* \"#utility.yul\":2504:2524   */\n      tag_51\n      jump\t// in\n    tag_63:\n        /* \"#utility.yul\":2499:2524   */\n      swap3\n      pop\n        /* \"#utility.yul\":2658:2659   */\n      dup3\n        /* \"#utility.yul\":2590:2656   */\n      0xffffffffffffffffffffffffffffffffffffffffffffffffffffffffffffffff\n        /* \"#utility.yul\":2586:2660   */\n      sub\n        /* \"#utility.yul\":2583:2584   */\n      dup3\n        /* \"#utility.yul\":2580:2661   */\n      gt\n        /* \"#utility.yul\":2577:2684   */\n      iszero\n      tag_64\n      jumpi\n        /* \"#utility.yul\":2664:2682   */\n      tag_65\n      tag_66\n      jump\t// in\n    tag_65:\n        /* \"#utility.yul\":2577:2684   */\n    tag_64:\n        /* \"#utility.yul\":2708:2709   */\n      dup3\n        /* \"#utility.yul\":2705:2706   */\n      dup3\n        /* \"#utility.yul\":2701:2710   */\n      add\n        /* \"#utility.yul\":2694:2710   */\n      swap1\n      pop\n        /* \"#utility.yul\":2411:2716   */\n      swap3\n      swap2\n      pop\n      pop\n      jump\t// out\n        /* \"#utility.yul\":2722:2913   */\n    tag_24:\n        /* \"#utility.yul\":2762:2766   */\n      0x00\n        /* \"#utility.yul\":2782:2802   */\n      tag_68\n        /* \"#utility.yul\":2800:2801   */\n      dup3\n        /* \"#utility.yul\":2782:2802   */\n      tag_51\n      jump\t// in\n    tag_68:\n        /* \"#utility.yul\":2777:2802   */\n      swap2\n      pop\n        /* \"#utility.yul\":2816:2836   */\n      tag_69\n        /* \"#utility.yul\":2834:2835   */\n      dup4\n        /* \"#utility.yul\":2816:2836   */\n      tag_51\n      jump\t// in\n    tag_69:\n        /* \"#utility.yul\":2811:2836   */\n      swap3\n      pop\n        /* \"#utility.yul\":2855:2856   */\n      dup3\n        /* \"#utility.yul\":2852:2853   */\n      dup3\n        /* \"#utility.yul\":2849:2857   */\n      lt\n        /* \"#utility.yul\":2846:2880   */\n      iszero\n      tag_70\n      jumpi\n        /* \"#utility.yul\":2860:2878   */\n      tag_71\n      tag_66\n      jump\t// in\n    tag_71:\n        /* \"#utility.yul\":2846:2880   */\n    tag_70:\n        /* \"#utility.yul\":2905:2906   */\n      dup3\n        /* \"#utility.yul\":2902:2903   */\n      dup3\n        /* \"#utility.yul\":2898:2907   */\n      sub\n        /* \"#utility.yul\":2890:2907   */\n      swap1\n      pop\n        /* \"#utility.yul\":2722:2913   */\n      swap3\n      swap2\n      pop\n      pop\n      jump\t// out\n        /* \"#utility.yul\":2919:2996   */\n    tag_51:\n        /* \"#utility.yul\":2956:2963   */\n      0x00\n        /* \"#utility.yul\":2985:2990   */\n      dup2\n        /* \"#utility.yul\":2974:2990   */\n      swap1\n      pop\n        /* \"#utility.yul\":2919:2996   */\n      swap2\n      swap1\n      pop\n      jump\t// out\n        /* \"#utility.yul\":3002:3125   */\n    tag_32:\n        /* \"#utility.yul\":3062:3071   */\n      0x00\n        /* \"#utility.yul\":3095:3119   */\n      tag_74\n        /* \"#utility.yul\":3113:3118   */\n      dup3\n        /* \"#utility.yul\":3095:3119   */\n      tag_51\n      jump\t// in\n    tag_74:\n        /* \"#utility.yul\":3082:3119   */\n      swap1\n      pop\n        /* \"#utility.yul\":3002:3125   */\n      swap2\n      swap1\n      pop\n      jump\t// out\n        /* \"#utility.yul\":3131:3438   */\n    tag_40:\n        /* \"#utility.yul\":3199:3200   */\n      0x00\n        /* \"#utility.yul\":3209:3322   */\n    tag_76:\n        /* \"#utility.yul\":3223:3229   */\n      dup4\n        /* \"#utility.yul\":3220:3221   */\n      dup2\n        /* \"#utility.yul\":3217:3230   */\n      lt\n        /* \"#utility.yul\":3209:3322   */\n      iszero\n      tag_78\n      jumpi\n        /* \"#utility.yul\":3308:3309   */\n      dup1\n        /* \"#utility.yul\":3303:3306   */\n      dup3\n        /* \"#utility.yul\":3299:3310   */\n      add\n        /* \"#utility.yul\":3293:3311   */\n      mload\n        /* \"#utility.yul\":3289:3290   */\n      dup2\n        /* \"#utility.yul\":3284:3287   */\n      dup5\n        /* \"#utility.yul\":3280:3291   */\n      add\n        /* \"#utility.yul\":3273:3312   */\n      mstore\n        /* \"#utility.yul\":3245:3247   */\n      0x20\n        /* \"#utility.yul\":3242:3243   */\n      dup2\n        /* \"#utility.yul\":3238:3248   */\n      add\n        /* \"#utility.yul\":3233:3248   */\n      swap1\n      pop\n        /* \"#utility.yul\":3209:3322   */\n      jump(tag_76)\n    tag_78:\n        /* \"#utility.yul\":3340:3346   */\n      dup4\n        /* \"#utility.yul\":3337:3338   */\n      dup2\n        /* \"#utility.yul\":3334:3347   */\n      gt\n        /* \"#utility.yul\":3331:3432   */\n      iszero\n      tag_79\n      jumpi\n        /* \"#utility.yul\":3420:3421   */\n      0x00\n        /* \"#utility.yul\":3411:3417   */\n      dup5\n        /* \"#utility.yul\":3406:3409   */\n      dup5\n        /* \"#utility.yul\":3402:3418   */\n      add\n        /* \"#utility.yul\":3395:3422   */\n      mstore\n        /* \"#utility.yul\":3331:3432   */\n    tag_79:\n        /* \"#utility.yul\":3180:3438   */\n      pop\n        /* \"#utility.yul\":3131:3438   */\n      pop\n      pop\n      pop\n      jump\t// out\n        /* \"#utility.yul\":3444:3624   */\n    tag_66:\n        /* \"#utility.yul\":3492:3569   */\n      0x4e487b7100000000000000000000000000000000000000000000000000000000\n        /* \"#utility.yul\":3489:3490   */\n      0x00\n        /* \"#utility.yul\":3482:3570   */\n      mstore\n        /* \"#utility.yul\":3589:3593   */\n      0x11\n        /* \"#utility.yul\":3586:3587   */\n      0x04\n        /* \"#utility.yul\":3579:3594   */\n      mstore\n        /* \"#utility.yul\":3613:3617   */\n      0x24\n        /* \"#utility.yul\":3610:3611   */\n      0x00\n        /* \"#utility.yul\":3603:3618   */\n      revert\n        /* \"#utility.yul\":3630:3732   */\n    tag_42:\n        /* \"#utility.yul\":3671:3677   */\n      0x00\n        /* \"#utility.yul\":3722:3724   */\n      0x1f\n        /* \"#utility.yul\":3718:3725   */\n      not\n        /* \"#utility.yul\":3713:3715   */\n      0x1f\n        /* \"#utility.yul\":3706:3711   */\n      dup4\n        /* \"#utility.yul\":3702:3716   */\n      add\n        /* \"#utility.yul\":3698:3726   */\n      and\n        /* \"#utility.yul\":3688:3726   */\n      swap1\n      pop\n        /* \"#utility.yul\":3630:3732   */\n      swap2\n      swap1\n      pop\n      jump\t// out\n        /* \"#utility.yul\":3738:3891   */\n    tag_47:\n        /* \"#utility.yul\":3878:3883   */\n      0x6772720000000000000000000000000000000000000000000000000000000000\n        /* \"#utility.yul\":3874:3875   */\n      0x00\n        /* \"#utility.yul\":3866:3872   */\n      dup3\n        /* \"#utility.yul\":3862:3876   */\n      add\n        /* \"#utility.yul\":3855:3884   */\n      mstore\n        /* \"#utility.yul\":3738:3891   */\n      pop\n      jump\t// out\n\n    auxdata: 0xa264697066735822122016a89d0cdb2767dc7a32b0bebfe05cd0371ababccd04c50ead66bb9d03b92d5264736f6c63430008070033\n}\n",
				"bytecode": {
					"linkReferences": {},
					"object": "608060405234801561001057600080fd5b50610393806100206000396000f3fe608060405234801561001057600080fd5b506004361061004c5760003560e01c806306661abd14610051578063371303c01461006f578063b3bcfa8214610079578063eccc001614610083575b600080fd5b6100596100a1565b60405161006691906101e4565b60405180910390f35b6100776100a7565b005b6100816100c2565b005b61008b6100dd565b6040516100989190610194565b60405180910390f35b60005481565b60016000808282546100b9919061021b565b92505081905550565b60016000808282546100d49190610271565b92505081905550565b60607f2ee5174eab93f9accdaec16180b0868e51683702b9d01a143c69ef7b26c46a1360ea60405161010f91906101b6565b60405180910390a190565b610123816102af565b82525050565b6000610134826101ff565b61013e818561020a565b935061014e8185602086016102c1565b61015781610323565b840191505092915050565b600061016f60038361020a565b915061017a82610334565b602082019050919050565b61018e816102a5565b82525050565b600060208201905081810360008301526101ae8184610129565b905092915050565b600060408201905081810360008301526101cf81610162565b90506101de602083018461011a565b92915050565b60006020820190506101f96000830184610185565b92915050565b600081519050919050565b600082825260208201905092915050565b6000610226826102a5565b9150610231836102a5565b9250827fffffffffffffffffffffffffffffffffffffffffffffffffffffffffffffffff03821115610266576102656102f4565b5b828201905092915050565b600061027c826102a5565b9150610287836102a5565b92508282101561029a576102996102f4565b5b828203905092915050565b6000819050919050565b60006102ba826102a5565b9050919050565b60005b838110156102df5780820151818401526020810190506102c4565b838111156102ee576000848401525b50505050565b7f4e487b7100000000000000000000000000000000000000000000000000000000600052601160045260246000fd5b6000601f19601f8301169050919050565b7f677272000000000000000000000000000000000000000000000000000000000060008201525056fea264697066735822122016a89d0cdb2767dc7a32b0bebfe05cd0371ababccd04c50ead66bb9d03b92d5264736f6c63430008070033",
					"opcodes": "PUSH1 0x80 PUSH1 0x40 MSTORE CALLVALUE DUP1 ISZERO PUSH2 0x10 JUMPI PUSH1 0x0 DUP1 REVERT JUMPDEST POP PUSH2 0x393 DUP1 PUSH2 0x20 PUSH1 0x0 CODECOPY PUSH1 0x0 RETURN INVALID PUSH1 0x80 PUSH1 0x40 MSTORE CALLVALUE DUP1 ISZERO PUSH2 0x10 JUMPI PUSH1 0x0 DUP1 REVERT JUMPDEST POP PUSH1 0x4 CALLDATASIZE LT PUSH2 0x4C JUMPI PUSH1 0x0 CALLDATALOAD PUSH1 0xE0 SHR DUP1 PUSH4 0x6661ABD EQ PUSH2 0x51 JUMPI DUP1 PUSH4 0x371303C0 EQ PUSH2 0x6F JUMPI DUP1 PUSH4 0xB3BCFA82 EQ PUSH2 0x79 JUMPI DUP1 PUSH4 0xECCC0016 EQ PUSH2 0x83 JUMPI JUMPDEST PUSH1 0x0 DUP1 REVERT JUMPDEST PUSH2 0x59 PUSH2 0xA1 JUMP JUMPDEST PUSH1 0x40 MLOAD PUSH2 0x66 SWAP2 SWAP1 PUSH2 0x1E4 JUMP JUMPDEST PUSH1 0x40 MLOAD DUP1 SWAP2 SUB SWAP1 RETURN JUMPDEST PUSH2 0x77 PUSH2 0xA7 JUMP JUMPDEST STOP JUMPDEST PUSH2 0x81 PUSH2 0xC2 JUMP JUMPDEST STOP JUMPDEST PUSH2 0x8B PUSH2 0xDD JUMP JUMPDEST PUSH1 0x40 MLOAD PUSH2 0x98 SWAP2 SWAP1 PUSH2 0x194 JUMP JUMPDEST PUSH1 0x40 MLOAD DUP1 SWAP2 SUB SWAP1 RETURN JUMPDEST PUSH1 0x0 SLOAD DUP2 JUMP JUMPDEST PUSH1 0x1 PUSH1 0x0 DUP1 DUP3 DUP3 SLOAD PUSH2 0xB9 SWAP2 SWAP1 PUSH2 0x21B JUMP JUMPDEST SWAP3 POP POP DUP2 SWAP1 SSTORE POP JUMP JUMPDEST PUSH1 0x1 PUSH1 0x0 DUP1 DUP3 DUP3 SLOAD PUSH2 0xD4 SWAP2 SWAP1 PUSH2 0x271 JUMP JUMPDEST SWAP3 POP POP DUP2 SWAP1 SSTORE POP JUMP JUMPDEST PUSH1 0x60 PUSH32 0x2EE5174EAB93F9ACCDAEC16180B0868E51683702B9D01A143C69EF7B26C46A13 PUSH1 0xEA PUSH1 0x40 MLOAD PUSH2 0x10F SWAP2 SWAP1 PUSH2 0x1B6 JUMP JUMPDEST PUSH1 0x40 MLOAD DUP1 SWAP2 SUB SWAP1 LOG1 SWAP1 JUMP JUMPDEST PUSH2 0x123 DUP2 PUSH2 0x2AF JUMP JUMPDEST DUP3 MSTORE POP POP JUMP JUMPDEST PUSH1 0x0 PUSH2 0x134 DUP3 PUSH2 0x1FF JUMP JUMPDEST PUSH2 0x13E DUP2 DUP6 PUSH2 0x20A JUMP JUMPDEST SWAP4 POP PUSH2 0x14E DUP2 DUP6 PUSH1 0x20 DUP7 ADD PUSH2 0x2C1 JUMP JUMPDEST PUSH2 0x157 DUP2 PUSH2 0x323 JUMP JUMPDEST DUP5 ADD SWAP2 POP POP SWAP3 SWAP2 POP POP JUMP JUMPDEST PUSH1 0x0 PUSH2 0x16F PUSH1 0x3 DUP4 PUSH2 0x20A JUMP JUMPDEST SWAP2 POP PUSH2 0x17A DUP3 PUSH2 0x334 JUMP JUMPDEST PUSH1 0x20 DUP3 ADD SWAP1 POP SWAP2 SWAP1 POP JUMP JUMPDEST PUSH2 0x18E DUP2 PUSH2 0x2A5 JUMP JUMPDEST DUP3 MSTORE POP POP JUMP JUMPDEST PUSH1 0x0 PUSH1 0x20 DUP3 ADD SWAP1 POP DUP2 DUP2 SUB PUSH1 0x0 DUP4 ADD MSTORE PUSH2 0x1AE DUP2 DUP5 PUSH2 0x129 JUMP JUMPDEST SWAP1 POP SWAP3 SWAP2 POP POP JUMP JUMPDEST PUSH1 0x0 PUSH1 0x40 DUP3 ADD SWAP1 POP DUP2 DUP2 SUB PUSH1 0x0 DUP4 ADD MSTORE PUSH2 0x1CF DUP2 PUSH2 0x162 JUMP JUMPDEST SWAP1 POP PUSH2 0x1DE PUSH1 0x20 DUP4 ADD DUP5 PUSH2 0x11A JUMP JUMPDEST SWAP3 SWAP2 POP POP JUMP JUMPDEST PUSH1 0x0 PUSH1 0x20 DUP3 ADD SWAP1 POP PUSH2 0x1F9 PUSH1 0x0 DUP4 ADD DUP5 PUSH2 0x185 JUMP JUMPDEST SWAP3 SWAP2 POP POP JUMP JUMPDEST PUSH1 0x0 DUP2 MLOAD SWAP1 POP SWAP2 SWAP1 POP JUMP JUMPDEST PUSH1 0x0 DUP3 DUP3 MSTORE PUSH1 0x20 DUP3 ADD SWAP1 POP SWAP3 SWAP2 POP POP JUMP JUMPDEST PUSH1 0x0 PUSH2 0x226 DUP3 PUSH2 0x2A5 JUMP JUMPDEST SWAP2 POP PUSH2 0x231 DUP4 PUSH2 0x2A5 JUMP JUMPDEST SWAP3 POP DUP3 PUSH32 0xFFFFFFFFFFFFFFFFFFFFFFFFFFFFFFFFFFFFFFFFFFFFFFFFFFFFFFFFFFFFFFFF SUB DUP3 GT ISZERO PUSH2 0x266 JUMPI PUSH2 0x265 PUSH2 0x2F4 JUMP JUMPDEST JUMPDEST DUP3 DUP3 ADD SWAP1 POP SWAP3 SWAP2 POP POP JUMP JUMPDEST PUSH1 0x0 PUSH2 0x27C DUP3 PUSH2 0x2A5 JUMP JUMPDEST SWAP2 POP PUSH2 0x287 DUP4 PUSH2 0x2A5 JUMP JUMPDEST SWAP3 POP DUP3 DUP3 LT ISZERO PUSH2 0x29A JUMPI PUSH2 0x299 PUSH2 0x2F4 JUMP JUMPDEST JUMPDEST DUP3 DUP3 SUB SWAP1 POP SWAP3 SWAP2 POP POP JUMP JUMPDEST PUSH1 0x0 DUP2 SWAP1 POP SWAP2 SWAP1 POP JUMP JUMPDEST PUSH1 0x0 PUSH2 0x2BA DUP3 PUSH2 0x2A5 JUMP JUMPDEST SWAP1 POP SWAP2 SWAP1 POP JUMP JUMPDEST PUSH1 0x0 JUMPDEST DUP4 DUP2 LT ISZERO PUSH2 0x2DF JUMPI DUP1 DUP3 ADD MLOAD DUP2 DUP5 ADD MSTORE PUSH1 0x20 DUP2 ADD SWAP1 POP PUSH2 0x2C4 JUMP JUMPDEST DUP4 DUP2 GT ISZERO PUSH2 0x2EE JUMPI PUSH1 0x0 DUP5 DUP5 ADD MSTORE JUMPDEST POP POP POP POP JUMP JUMPDEST PUSH32 0x4E487B7100000000000000000000000000000000000000000000000000000000 PUSH1 0x0 MSTORE PUSH1 0x11 PUSH1 0x4 MSTORE PUSH1 0x24 PUSH1 0x0 REVERT JUMPDEST PUSH1 0x0 PUSH1 0x1F NOT PUSH1 0x1F DUP4 ADD AND SWAP1 POP SWAP2 SWAP1 POP JUMP JUMPDEST PUSH32 0x6772720000000000000000000000000000000000000000000000000000000000 PUSH1 0x0 DUP3 ADD MSTORE POP JUMP INVALID LOG2 PUSH5 0x6970667358 0x22 SLT KECCAK256 AND 0xA8 SWAP14 0xC 0xDB 0x27 PUSH8 0xDC7A32B0BEBFE05C 0xD0 CALLDATACOPY BYTE 0xBA 0xBC 0xCD DIV 0xC5 0xE 0xAD PUSH7 0xBB9D03B92D5264 PUSH20 0x6F6C634300080700330000000000000000000000 "
				},
				"gasEstimates": {
					"creation": {
						"codeDepositCost": "183000",
						"executionCost": "226",
						"totalCost": "183226"
					},
					"external": {
						"count()": "2407",
						"dec()": "infinite",
						"emi()": "infinite",
						"inc()": "infinite"
					}
				},
				"methodIdentifiers": {
					"count()": "06661abd",
					"dec()": "b3bcfa82",
					"emi()": "eccc0016",
					"inc()": "371303c0"
				}
			},
			"storageLayout": {
				"storage": [
					{
						"astId": 3,
						"contract": "opo.sol:counter",
						"label": "count",
						"offset": 0,
						"slot": "0",
						"type": "t_uint256"
					}
				],
				"types": {
					"t_uint256": {
						"encoding": "inplace",
						"label": "uint256",
						"numberOfBytes": "32"
					}
				}
			},
			"userdoc": {
				"kind": "user",
				"methods": {},
				"version": 1
			}
		}
	}
}