{
	"Todo.sol": {
		"TodoList": {
			"abi": [
				{
					"inputs": [
						{
							"internalType": "string",
							"name": "_action",
							"type": "string"
						},
						{
							"internalType": "uint256",
							"name": "_day",
							"type": "uint256"
						},
						{
							"internalType": "uint256",
							"name": "_month",
							"type": "uint256"
						},
						{
							"internalType": "uint256",
							"name": "_year",
							"type": "uint256"
						}
					],
					"name": "addtolist",
					"outputs": [],
					"stateMutability": "nonpayable",
					"type": "function"
				},
				{
					"inputs": [
						{
							"internalType": "uint256",
							"name": "index",
							"type": "uint256"
						},
						{
							"internalType": "uint256",
							"name": "_day",
							"type": "uint256"
						}
					],
					"name": "editDay",
					"outputs": [],
					"stateMutability": "nonpayable",
					"type": "function"
				},
				{
					"inputs": [
						{
							"internalType": "uint256",
							"name": "index",
							"type": "uint256"
						},
						{
							"internalType": "uint256",
							"name": "_month",
							"type": "uint256"
						}
					],
					"name": "editMonth",
					"outputs": [],
					"stateMutability": "nonpayable",
					"type": "function"
				},
				{
					"inputs": [
						{
							"internalType": "uint256",
							"name": "index",
							"type": "uint256"
						},
						{
							"internalType": "uint256",
							"name": "_year",
							"type": "uint256"
						}
					],
					"name": "editYear",
					"outputs": [],
					"stateMutability": "nonpayable",
					"type": "function"
				},
				{
					"inputs": [
						{
							"internalType": "uint256",
							"name": "index",
							"type": "uint256"
						},
						{
							"internalType": "string",
							"name": "_action",
							"type": "string"
						}
					],
					"name": "editaction",
					"outputs": [],
					"stateMutability": "nonpayable",
					"type": "function"
				},
				{
					"inputs": [
						{
							"internalType": "uint256",
							"name": "_index",
							"type": "uint256"
						}
					],
					"name": "getfromlist",
					"outputs": [
						{
							"internalType": "string",
							"name": "action",
							"type": "string"
						},
						{
							"internalType": "uint256",
							"name": "",
							"type": "uint256"
						},
						{
							"internalType": "uint256",
							"name": "",
							"type": "uint256"
						},
						{
							"internalType": "uint256",
							"name": "",
							"type": "uint256"
						}
					],
					"stateMutability": "view",
					"type": "function"
				},
				{
					"inputs": [
						{
							"internalType": "uint256",
							"name": "index",
							"type": "uint256"
						}
					],
					"name": "remfromtodo",
					"outputs": [],
					"stateMutability": "nonpayable",
					"type": "function"
				}
			],
			"devdoc": {
				"kind": "dev",
				"methods": {},
				"version": 1
			},
			"evm": {
				"assembly": "    /* \"Todo.sol\":56:1210  contract TodoList{\r... */\n  mstore(0x40, 0x80)\n  callvalue\n  dup1\n  iszero\n  tag_1\n  jumpi\n  0x00\n  dup1\n  revert\ntag_1:\n  pop\n  dataSize(sub_0)\n  dup1\n  dataOffset(sub_0)\n  0x00\n  codecopy\n  0x00\n  return\nstop\n\nsub_0: assembly {\n        /* \"Todo.sol\":56:1210  contract TodoList{\r... */\n      mstore(0x40, 0x80)\n      callvalue\n      dup1\n      iszero\n      tag_1\n      jumpi\n      0x00\n      dup1\n      revert\n    tag_1:\n      pop\n      jumpi(tag_2, lt(calldatasize, 0x04))\n      shr(0xe0, calldataload(0x00))\n      dup1\n      0x7aadbdd3\n      gt\n      tag_10\n      jumpi\n      dup1\n      0x7aadbdd3\n      eq\n      tag_6\n      jumpi\n      dup1\n      0x9351b078\n      eq\n      tag_7\n      jumpi\n      dup1\n      0x973e2bbc\n      eq\n      tag_8\n      jumpi\n      dup1\n      0xe1b7edff\n      eq\n      tag_9\n      jumpi\n      jump(tag_2)\n    tag_10:\n      dup1\n      0x12cbb972\n      eq\n      tag_3\n      jumpi\n      dup1\n      0x27503a82\n      eq\n      tag_4\n      jumpi\n      dup1\n      0x2dc6a8d7\n      eq\n      tag_5\n      jumpi\n    tag_2:\n      0x00\n      dup1\n      revert\n        /* \"Todo.sol\":734:860  function editaction(uint index,string memory _action) external{\r... */\n    tag_3:\n      tag_11\n      0x04\n      dup1\n      calldatasize\n      sub\n      dup2\n      add\n      swap1\n      tag_12\n      swap2\n      swap1\n      tag_13\n      jump\t// in\n    tag_12:\n      tag_14\n      jump\t// in\n    tag_11:\n      stop\n        /* \"Todo.sol\":974:1088  function editMonth(uint index,uint _month) external{\r... */\n    tag_4:\n      tag_15\n      0x04\n      dup1\n      calldatasize\n      sub\n      dup2\n      add\n      swap1\n      tag_16\n      swap2\n      swap1\n      tag_17\n      jump\t// in\n    tag_16:\n      tag_18\n      jump\t// in\n    tag_15:\n      stop\n        /* \"Todo.sol\":864:970  function editDay(uint index,uint _day) external{\r... */\n    tag_5:\n      tag_19\n      0x04\n      dup1\n      calldatasize\n      sub\n      dup2\n      add\n      swap1\n      tag_20\n      swap2\n      swap1\n      tag_17\n      jump\t// in\n    tag_20:\n      tag_21\n      jump\t// in\n    tag_19:\n      stop\n        /* \"Todo.sol\":410:618  function getfromlist(uint _index) public view returns(string memory action,uint,uint,uint){\r... */\n    tag_6:\n      tag_22\n      0x04\n      dup1\n      calldatasize\n      sub\n      dup2\n      add\n      swap1\n      tag_23\n      swap2\n      swap1\n      tag_24\n      jump\t// in\n    tag_23:\n      tag_25\n      jump\t// in\n    tag_22:\n      mload(0x40)\n      tag_26\n      swap5\n      swap4\n      swap3\n      swap2\n      swap1\n      tag_27\n      jump\t// in\n    tag_26:\n      mload(0x40)\n      dup1\n      swap2\n      sub\n      swap1\n      return\n        /* \"Todo.sol\":624:730  function remfromtodo(uint index) external {\r... */\n    tag_7:\n      tag_28\n      0x04\n      dup1\n      calldatasize\n      sub\n      dup2\n      add\n      swap1\n      tag_29\n      swap2\n      swap1\n      tag_24\n      jump\t// in\n    tag_29:\n      tag_30\n      jump\t// in\n    tag_28:\n      stop\n        /* \"Todo.sol\":1092:1203  function editYear(uint index,uint _year) external{\r... */\n    tag_8:\n      tag_31\n      0x04\n      dup1\n      calldatasize\n      sub\n      dup2\n      add\n      swap1\n      tag_32\n      swap2\n      swap1\n      tag_17\n      jump\t// in\n    tag_32:\n      tag_33\n      jump\t// in\n    tag_31:\n      stop\n        /* \"Todo.sol\":215:406  function addtolist(string memory _action,uint _day,uint _month,uint _year) external {\r... */\n    tag_9:\n      tag_34\n      0x04\n      dup1\n      calldatasize\n      sub\n      dup2\n      add\n      swap1\n      tag_35\n      swap2\n      swap1\n      tag_36\n      jump\t// in\n    tag_35:\n      tag_37\n      jump\t// in\n    tag_34:\n      stop\n        /* \"Todo.sol\":734:860  function editaction(uint index,string memory _action) external{\r... */\n    tag_14:\n        /* \"Todo.sol\":799:817  Todo storage todos */\n      0x00\n        /* \"Todo.sol\":819:826  todoarr */\n      dup1\n        /* \"Todo.sol\":827:832  index */\n      dup4\n        /* \"Todo.sol\":819:833  todoarr[index] */\n      dup2\n      sload\n      dup2\n      lt\n      tag_39\n      jumpi\n      tag_40\n      tag_41\n      jump\t// in\n    tag_40:\n    tag_39:\n      swap1\n      0x00\n      mstore\n      keccak256(0x00, 0x20)\n      swap1\n      0x04\n      mul\n      add\n        /* \"Todo.sol\":799:833  Todo storage todos= todoarr[index] */\n      swap1\n      pop\n        /* \"Todo.sol\":851:858  _action */\n      dup2\n        /* \"Todo.sol\":836:841  todos */\n      dup2\n        /* \"Todo.sol\":836:848  todos.action */\n      0x00\n      add\n        /* \"Todo.sol\":836:858  todos.action = _action */\n      swap1\n      dup1\n      mload\n      swap1\n      0x20\n      add\n      swap1\n      tag_43\n      swap3\n      swap2\n      swap1\n      tag_44\n      jump\t// in\n    tag_43:\n      pop\n        /* \"Todo.sol\":796:860  {\r... */\n      pop\n        /* \"Todo.sol\":734:860  function editaction(uint index,string memory _action) external{\r... */\n      pop\n      pop\n      jump\t// out\n        /* \"Todo.sol\":974:1088  function editMonth(uint index,uint _month) external{\r... */\n    tag_18:\n        /* \"Todo.sol\":1028:1046  Todo storage todos */\n      0x00\n        /* \"Todo.sol\":1049:1056  todoarr */\n      dup1\n        /* \"Todo.sol\":1057:1062  index */\n      dup4\n        /* \"Todo.sol\":1049:1063  todoarr[index] */\n      dup2\n      sload\n      dup2\n      lt\n      tag_46\n      jumpi\n      tag_47\n      tag_41\n      jump\t// in\n    tag_47:\n    tag_46:\n      swap1\n      0x00\n      mstore\n      keccak256(0x00, 0x20)\n      swap1\n      0x04\n      mul\n      add\n        /* \"Todo.sol\":1028:1063  Todo storage todos = todoarr[index] */\n      swap1\n      pop\n        /* \"Todo.sol\":1080:1086  _month */\n      dup2\n        /* \"Todo.sol\":1066:1071  todos */\n      dup2\n        /* \"Todo.sol\":1066:1077  todos.month */\n      0x02\n      add\n        /* \"Todo.sol\":1066:1086  todos.month = _month */\n      dup2\n      swap1\n      sstore\n      pop\n        /* \"Todo.sol\":1025:1088  {\r... */\n      pop\n        /* \"Todo.sol\":974:1088  function editMonth(uint index,uint _month) external{\r... */\n      pop\n      pop\n      jump\t// out\n        /* \"Todo.sol\":864:970  function editDay(uint index,uint _day) external{\r... */\n    tag_21:\n        /* \"Todo.sol\":914:932  Todo storage todos */\n      0x00\n        /* \"Todo.sol\":935:942  todoarr */\n      dup1\n        /* \"Todo.sol\":943:948  index */\n      dup4\n        /* \"Todo.sol\":935:949  todoarr[index] */\n      dup2\n      sload\n      dup2\n      lt\n      tag_50\n      jumpi\n      tag_51\n      tag_41\n      jump\t// in\n    tag_51:\n    tag_50:\n      swap1\n      0x00\n      mstore\n      keccak256(0x00, 0x20)\n      swap1\n      0x04\n      mul\n      add\n        /* \"Todo.sol\":914:949  Todo storage todos = todoarr[index] */\n      swap1\n      pop\n        /* \"Todo.sol\":964:968  _day */\n      dup2\n        /* \"Todo.sol\":952:957  todos */\n      dup2\n        /* \"Todo.sol\":952:961  todos.day */\n      0x01\n      add\n        /* \"Todo.sol\":952:968  todos.day = _day */\n      dup2\n      swap1\n      sstore\n      pop\n        /* \"Todo.sol\":911:970  {\r... */\n      pop\n        /* \"Todo.sol\":864:970  function editDay(uint index,uint _day) external{\r... */\n      pop\n      pop\n      jump\t// out\n        /* \"Todo.sol\":410:618  function getfromlist(uint _index) public view returns(string memory action,uint,uint,uint){\r... */\n    tag_25:\n        /* \"Todo.sol\":464:484  string memory action */\n      0x60\n        /* \"Todo.sol\":485:489  uint */\n      0x00\n        /* \"Todo.sol\":490:494  uint */\n      dup1\n        /* \"Todo.sol\":495:499  uint */\n      0x00\n        /* \"Todo.sol\":503:519  Todo memory todo */\n      dup1\n        /* \"Todo.sol\":522:529  todoarr */\n      0x00\n        /* \"Todo.sol\":530:536  _index */\n      dup7\n        /* \"Todo.sol\":522:537  todoarr[_index] */\n      dup2\n      sload\n      dup2\n      lt\n      tag_54\n      jumpi\n      tag_55\n      tag_41\n      jump\t// in\n    tag_55:\n    tag_54:\n      swap1\n      0x00\n      mstore\n      keccak256(0x00, 0x20)\n      swap1\n      0x04\n      mul\n      add\n        /* \"Todo.sol\":503:537  Todo memory todo = todoarr[_index] */\n      mload(0x40)\n      dup1\n      0x80\n      add\n      0x40\n      mstore\n      swap1\n      dup2\n      0x00\n      dup3\n      add\n      dup1\n      sload\n      tag_57\n      swap1\n      tag_58\n      jump\t// in\n    tag_57:\n      dup1\n      0x1f\n      add\n      0x20\n      dup1\n      swap2\n      div\n      mul\n      0x20\n      add\n      mload(0x40)\n      swap1\n      dup2\n      add\n      0x40\n      mstore\n      dup1\n      swap3\n      swap2\n      swap1\n      dup2\n      dup2\n      mstore\n      0x20\n      add\n      dup3\n      dup1\n      sload\n      tag_59\n      swap1\n      tag_58\n      jump\t// in\n    tag_59:\n      dup1\n      iszero\n      tag_60\n      jumpi\n      dup1\n      0x1f\n      lt\n      tag_61\n      jumpi\n      0x0100\n      dup1\n      dup4\n      sload\n      div\n      mul\n      dup4\n      mstore\n      swap2\n      0x20\n      add\n      swap2\n      jump(tag_60)\n    tag_61:\n      dup3\n      add\n      swap2\n      swap1\n      0x00\n      mstore\n      keccak256(0x00, 0x20)\n      swap1\n    tag_62:\n      dup2\n      sload\n      dup2\n      mstore\n      swap1\n      0x01\n      add\n      swap1\n      0x20\n      add\n      dup1\n      dup4\n      gt\n      tag_62\n      jumpi\n      dup3\n      swap1\n      sub\n      0x1f\n      and\n      dup3\n      add\n      swap2\n    tag_60:\n      pop\n      pop\n      pop\n      pop\n      pop\n      dup2\n      mstore\n      0x20\n      add\n      0x01\n      dup3\n      add\n      sload\n      dup2\n      mstore\n      0x20\n      add\n      0x02\n      dup3\n      add\n      sload\n      dup2\n      mstore\n      0x20\n      add\n      0x03\n      dup3\n      add\n      sload\n      dup2\n      mstore\n      pop\n      pop\n      swap1\n      pop\n        /* \"Todo.sol\":555:561  action */\n      dup5\n        /* \"Todo.sol\":541:545  todo */\n      dup2\n        /* \"Todo.sol\":541:552  todo.action */\n      0x00\n      add\n        /* \"Todo.sol\":541:561  todo.action = action */\n      dup2\n      swap1\n      mstore\n      pop\n        /* \"Todo.sol\":574:578  todo */\n      dup1\n        /* \"Todo.sol\":574:585  todo.action */\n      0x00\n      add\n      mload\n        /* \"Todo.sol\":586:590  todo */\n      dup2\n        /* \"Todo.sol\":586:594  todo.day */\n      0x20\n      add\n      mload\n        /* \"Todo.sol\":595:599  todo */\n      dup3\n        /* \"Todo.sol\":595:605  todo.month */\n      0x40\n      add\n      mload\n        /* \"Todo.sol\":606:610  todo */\n      dup4\n        /* \"Todo.sol\":606:615  todo.year */\n      0x60\n      add\n      mload\n        /* \"Todo.sol\":566:616  return (todo.action,todo.day,todo.month,todo.year) */\n      swap5\n      pop\n      swap5\n      pop\n      swap5\n      pop\n      swap5\n      pop\n      pop\n        /* \"Todo.sol\":410:618  function getfromlist(uint _index) public view returns(string memory action,uint,uint,uint){\r... */\n      swap2\n      swap4\n      pop\n      swap2\n      swap4\n      jump\t// out\n        /* \"Todo.sol\":624:730  function remfromtodo(uint index) external {\r... */\n    tag_30:\n        /* \"Todo.sol\":686:693  todoarr */\n      0x00\n        /* \"Todo.sol\":710:711  1 */\n      0x01\n        /* \"Todo.sol\":694:701  todoarr */\n      0x00\n        /* \"Todo.sol\":694:708  todoarr.length */\n      dup1\n      sload\n      swap1\n      pop\n        /* \"Todo.sol\":694:711  todoarr.length -1 */\n      tag_64\n      swap2\n      swap1\n      tag_65\n      jump\t// in\n    tag_64:\n        /* \"Todo.sol\":686:712  todoarr[todoarr.length -1] */\n      dup2\n      sload\n      dup2\n      lt\n      tag_66\n      jumpi\n      tag_67\n      tag_41\n      jump\t// in\n    tag_67:\n    tag_66:\n      swap1\n      0x00\n      mstore\n      keccak256(0x00, 0x20)\n      swap1\n      0x04\n      mul\n      add\n        /* \"Todo.sol\":669:676  todoarr */\n      0x00\n        /* \"Todo.sol\":677:682  index */\n      dup3\n        /* \"Todo.sol\":669:683  todoarr[index] */\n      dup2\n      sload\n      dup2\n      lt\n      tag_69\n      jumpi\n      tag_70\n      tag_41\n      jump\t// in\n    tag_70:\n    tag_69:\n      swap1\n      0x00\n      mstore\n      keccak256(0x00, 0x20)\n      swap1\n      0x04\n      mul\n      add\n        /* \"Todo.sol\":669:712  todoarr[index] = todoarr[todoarr.length -1] */\n      0x00\n      dup3\n      add\n      dup2\n      0x00\n      add\n      swap1\n      dup1\n      sload\n      tag_72\n      swap1\n      tag_58\n      jump\t// in\n    tag_72:\n      tag_73\n      swap3\n      swap2\n      swap1\n      tag_74\n      jump\t// in\n    tag_73:\n      pop\n      0x01\n      dup3\n      add\n      sload\n      dup2\n      0x01\n      add\n      sstore\n      0x02\n      dup3\n      add\n      sload\n      dup2\n      0x02\n      add\n      sstore\n      0x03\n      dup3\n      add\n      sload\n      dup2\n      0x03\n      add\n      sstore\n      swap1\n      pop\n      pop\n        /* \"Todo.sol\":715:722  todoarr */\n      0x00\n        /* \"Todo.sol\":715:728  todoarr.pop() */\n      dup1\n      sload\n      dup1\n      tag_75\n      jumpi\n      tag_76\n      tag_77\n      jump\t// in\n    tag_76:\n    tag_75:\n      0x01\n      swap1\n      sub\n      dup2\n      dup2\n      swap1\n      0x00\n      mstore\n      keccak256(0x00, 0x20)\n      swap1\n      0x04\n      mul\n      add\n      0x00\n      dup1\n      dup3\n      add\n      0x00\n      tag_79\n      swap2\n      swap1\n      tag_80\n      jump\t// in\n    tag_79:\n      0x01\n      dup3\n      add\n      0x00\n      swap1\n      sstore\n      0x02\n      dup3\n      add\n      0x00\n      swap1\n      sstore\n      0x03\n      dup3\n      add\n      0x00\n      swap1\n      sstore\n      pop\n      pop\n      swap1\n      sstore\n        /* \"Todo.sol\":624:730  function remfromtodo(uint index) external {\r... */\n      pop\n      jump\t// out\n        /* \"Todo.sol\":1092:1203  function editYear(uint index,uint _year) external{\r... */\n    tag_33:\n        /* \"Todo.sol\":1144:1162  Todo storage todos */\n      0x00\n        /* \"Todo.sol\":1165:1172  todoarr */\n      dup1\n        /* \"Todo.sol\":1173:1178  index */\n      dup4\n        /* \"Todo.sol\":1165:1179  todoarr[index] */\n      dup2\n      sload\n      dup2\n      lt\n      tag_82\n      jumpi\n      tag_83\n      tag_41\n      jump\t// in\n    tag_83:\n    tag_82:\n      swap1\n      0x00\n      mstore\n      keccak256(0x00, 0x20)\n      swap1\n      0x04\n      mul\n      add\n        /* \"Todo.sol\":1144:1179  Todo storage todos = todoarr[index] */\n      swap1\n      pop\n        /* \"Todo.sol\":1196:1201  _year */\n      dup2\n        /* \"Todo.sol\":1183:1188  todos */\n      dup2\n        /* \"Todo.sol\":1183:1193  todos.year */\n      0x03\n      add\n        /* \"Todo.sol\":1183:1201  todos.year = _year */\n      dup2\n      swap1\n      sstore\n      pop\n        /* \"Todo.sol\":1141:1203  {\r... */\n      pop\n        /* \"Todo.sol\":1092:1203  function editYear(uint index,uint _year) external{\r... */\n      pop\n      pop\n      jump\t// out\n        /* \"Todo.sol\":215:406  function addtolist(string memory _action,uint _day,uint _month,uint _year) external {\r... */\n    tag_37:\n        /* \"Todo.sol\":302:309  todoarr */\n      0x00\n        /* \"Todo.sol\":315:401  Todo({\r... */\n      mload(0x40)\n      dup1\n      0x80\n      add\n      0x40\n      mstore\n      dup1\n        /* \"Todo.sol\":335:342  _action */\n      dup7\n        /* \"Todo.sol\":315:401  Todo({\r... */\n      dup2\n      mstore\n      0x20\n      add\n        /* \"Todo.sol\":354:358  _day */\n      dup6\n        /* \"Todo.sol\":315:401  Todo({\r... */\n      dup2\n      mstore\n      0x20\n      add\n        /* \"Todo.sol\":372:378  _month */\n      dup5\n        /* \"Todo.sol\":315:401  Todo({\r... */\n      dup2\n      mstore\n      0x20\n      add\n        /* \"Todo.sol\":392:397  _year */\n      dup4\n        /* \"Todo.sol\":315:401  Todo({\r... */\n      dup2\n      mstore\n      pop\n        /* \"Todo.sol\":302:402  todoarr.push(Todo({\r... */\n      swap1\n      dup1\n      0x01\n      dup2\n      sload\n      add\n      dup1\n      dup3\n      sstore\n      dup1\n      swap2\n      pop\n      pop\n      0x01\n      swap1\n      sub\n      swap1\n      0x00\n      mstore\n      keccak256(0x00, 0x20)\n      swap1\n      0x04\n      mul\n      add\n      0x00\n      swap1\n      swap2\n      swap1\n      swap2\n      swap1\n      swap2\n      pop\n      0x00\n      dup3\n      add\n      mload\n      dup2\n      0x00\n      add\n      swap1\n      dup1\n      mload\n      swap1\n      0x20\n      add\n      swap1\n      tag_87\n      swap3\n      swap2\n      swap1\n      tag_44\n      jump\t// in\n    tag_87:\n      pop\n      0x20\n      dup3\n      add\n      mload\n      dup2\n      0x01\n      add\n      sstore\n      0x40\n      dup3\n      add\n      mload\n      dup2\n      0x02\n      add\n      sstore\n      0x60\n      dup3\n      add\n      mload\n      dup2\n      0x03\n      add\n      sstore\n      pop\n      pop\n        /* \"Todo.sol\":215:406  function addtolist(string memory _action,uint _day,uint _month,uint _year) external {\r... */\n      pop\n      pop\n      pop\n      pop\n      jump\t// out\n    tag_44:\n      dup3\n      dup1\n      sload\n      tag_88\n      swap1\n      tag_58\n      jump\t// in\n    tag_88:\n      swap1\n      0x00\n      mstore\n      keccak256(0x00, 0x20)\n      swap1\n      0x1f\n      add\n      0x20\n      swap1\n      div\n      dup2\n      add\n      swap3\n      dup3\n      tag_90\n      jumpi\n      0x00\n      dup6\n      sstore\n      jump(tag_89)\n    tag_90:\n      dup3\n      0x1f\n      lt\n      tag_91\n      jumpi\n      dup1\n      mload\n      not(0xff)\n      and\n      dup4\n      dup1\n      add\n      or\n      dup6\n      sstore\n      jump(tag_89)\n    tag_91:\n      dup3\n      dup1\n      add\n      0x01\n      add\n      dup6\n      sstore\n      dup3\n      iszero\n      tag_89\n      jumpi\n      swap2\n      dup3\n      add\n    tag_92:\n      dup3\n      dup2\n      gt\n      iszero\n      tag_93\n      jumpi\n      dup3\n      mload\n      dup3\n      sstore\n      swap2\n      0x20\n      add\n      swap2\n      swap1\n      0x01\n      add\n      swap1\n      jump(tag_92)\n    tag_93:\n    tag_89:\n      pop\n      swap1\n      pop\n      tag_94\n      swap2\n      swap1\n      tag_95\n      jump\t// in\n    tag_94:\n      pop\n      swap1\n      jump\t// out\n    tag_74:\n      dup3\n      dup1\n      sload\n      tag_96\n      swap1\n      tag_58\n      jump\t// in\n    tag_96:\n      swap1\n      0x00\n      mstore\n      keccak256(0x00, 0x20)\n      swap1\n      0x1f\n      add\n      0x20\n      swap1\n      div\n      dup2\n      add\n      swap3\n      dup3\n      tag_98\n      jumpi\n      0x00\n      dup6\n      sstore\n      jump(tag_97)\n    tag_98:\n      dup3\n      0x1f\n      lt\n      tag_99\n      jumpi\n      dup1\n      sload\n      dup6\n      sstore\n      jump(tag_97)\n    tag_99:\n      dup3\n      dup1\n      add\n      0x01\n      add\n      dup6\n      sstore\n      dup3\n      iszero\n      tag_97\n      jumpi\n      0x00\n      mstore\n      keccak256(0x00, 0x20)\n      swap2\n      0x1f\n      add\n      0x20\n      swap1\n      div\n      dup3\n      add\n    tag_100:\n      dup3\n      dup2\n      gt\n      iszero\n      tag_101\n      jumpi\n      dup3\n      sload\n      dup3\n      sstore\n      swap2\n      0x01\n      add\n      swap2\n      swap1\n      0x01\n      add\n      swap1\n      jump(tag_100)\n    tag_101:\n    tag_97:\n      pop\n      swap1\n      pop\n      tag_102\n      swap2\n      swap1\n      tag_95\n      jump\t// in\n    tag_102:\n      pop\n      swap1\n      jump\t// out\n    tag_80:\n      pop\n      dup1\n      sload\n      tag_103\n      swap1\n      tag_58\n      jump\t// in\n    tag_103:\n      0x00\n      dup3\n      sstore\n      dup1\n      0x1f\n      lt\n      tag_105\n      jumpi\n      pop\n      jump(tag_104)\n    tag_105:\n      0x1f\n      add\n      0x20\n      swap1\n      div\n      swap1\n      0x00\n      mstore\n      keccak256(0x00, 0x20)\n      swap1\n      dup2\n      add\n      swap1\n      tag_106\n      swap2\n      swap1\n      tag_95\n      jump\t// in\n    tag_106:\n    tag_104:\n      pop\n      jump\t// out\n    tag_95:\n    tag_107:\n      dup1\n      dup3\n      gt\n      iszero\n      tag_108\n      jumpi\n      0x00\n      dup2\n      0x00\n      swap1\n      sstore\n      pop\n      0x01\n      add\n      jump(tag_107)\n    tag_108:\n      pop\n      swap1\n      jump\t// out\n        /* \"#utility.yul\":7:419   */\n    tag_110:\n        /* \"#utility.yul\":85:90   */\n      0x00\n        /* \"#utility.yul\":110:176   */\n      tag_112\n        /* \"#utility.yul\":126:175   */\n      tag_113\n        /* \"#utility.yul\":168:174   */\n      dup5\n        /* \"#utility.yul\":126:175   */\n      tag_114\n      jump\t// in\n    tag_113:\n        /* \"#utility.yul\":110:176   */\n      tag_115\n      jump\t// in\n    tag_112:\n        /* \"#utility.yul\":101:176   */\n      swap1\n      pop\n        /* \"#utility.yul\":199:205   */\n      dup3\n        /* \"#utility.yul\":192:197   */\n      dup2\n        /* \"#utility.yul\":185:206   */\n      mstore\n        /* \"#utility.yul\":237:241   */\n      0x20\n        /* \"#utility.yul\":230:235   */\n      dup2\n        /* \"#utility.yul\":226:242   */\n      add\n        /* \"#utility.yul\":275:278   */\n      dup5\n        /* \"#utility.yul\":266:272   */\n      dup5\n        /* \"#utility.yul\":261:264   */\n      dup5\n        /* \"#utility.yul\":257:273   */\n      add\n        /* \"#utility.yul\":254:279   */\n      gt\n        /* \"#utility.yul\":251:363   */\n      iszero\n      tag_116\n      jumpi\n        /* \"#utility.yul\":282:361   */\n      tag_117\n      tag_118\n      jump\t// in\n    tag_117:\n        /* \"#utility.yul\":251:363   */\n    tag_116:\n        /* \"#utility.yul\":372:413   */\n      tag_119\n        /* \"#utility.yul\":406:412   */\n      dup5\n        /* \"#utility.yul\":401:404   */\n      dup3\n        /* \"#utility.yul\":396:399   */\n      dup6\n        /* \"#utility.yul\":372:413   */\n      tag_120\n      jump\t// in\n    tag_119:\n        /* \"#utility.yul\":91:419   */\n      pop\n        /* \"#utility.yul\":7:419   */\n      swap4\n      swap3\n      pop\n      pop\n      pop\n      jump\t// out\n        /* \"#utility.yul\":439:779   */\n    tag_121:\n        /* \"#utility.yul\":495:500   */\n      0x00\n        /* \"#utility.yul\":544:547   */\n      dup3\n        /* \"#utility.yul\":537:541   */\n      0x1f\n        /* \"#utility.yul\":529:535   */\n      dup4\n        /* \"#utility.yul\":525:542   */\n      add\n        /* \"#utility.yul\":521:548   */\n      slt\n        /* \"#utility.yul\":511:633   */\n      tag_123\n      jumpi\n        /* \"#utility.yul\":552:631   */\n      tag_124\n      tag_125\n      jump\t// in\n    tag_124:\n        /* \"#utility.yul\":511:633   */\n    tag_123:\n        /* \"#utility.yul\":669:675   */\n      dup2\n        /* \"#utility.yul\":656:676   */\n      calldataload\n        /* \"#utility.yul\":694:773   */\n      tag_126\n        /* \"#utility.yul\":769:772   */\n      dup5\n        /* \"#utility.yul\":761:767   */\n      dup3\n        /* \"#utility.yul\":754:758   */\n      0x20\n        /* \"#utility.yul\":746:752   */\n      dup7\n        /* \"#utility.yul\":742:759   */\n      add\n        /* \"#utility.yul\":694:773   */\n      tag_110\n      jump\t// in\n    tag_126:\n        /* \"#utility.yul\":685:773   */\n      swap2\n      pop\n        /* \"#utility.yul\":501:779   */\n      pop\n        /* \"#utility.yul\":439:779   */\n      swap3\n      swap2\n      pop\n      pop\n      jump\t// out\n        /* \"#utility.yul\":785:924   */\n    tag_127:\n        /* \"#utility.yul\":831:836   */\n      0x00\n        /* \"#utility.yul\":869:875   */\n      dup2\n        /* \"#utility.yul\":856:876   */\n      calldataload\n        /* \"#utility.yul\":847:876   */\n      swap1\n      pop\n        /* \"#utility.yul\":885:918   */\n      tag_129\n        /* \"#utility.yul\":912:917   */\n      dup2\n        /* \"#utility.yul\":885:918   */\n      tag_130\n      jump\t// in\n    tag_129:\n        /* \"#utility.yul\":785:924   */\n      swap3\n      swap2\n      pop\n      pop\n      jump\t// out\n        /* \"#utility.yul\":930:1875   */\n    tag_36:\n        /* \"#utility.yul\":1026:1032   */\n      0x00\n        /* \"#utility.yul\":1034:1040   */\n      dup1\n        /* \"#utility.yul\":1042:1048   */\n      0x00\n        /* \"#utility.yul\":1050:1056   */\n      dup1\n        /* \"#utility.yul\":1099:1102   */\n      0x80\n        /* \"#utility.yul\":1087:1096   */\n      dup6\n        /* \"#utility.yul\":1078:1085   */\n      dup8\n        /* \"#utility.yul\":1074:1097   */\n      sub\n        /* \"#utility.yul\":1070:1103   */\n      slt\n        /* \"#utility.yul\":1067:1187   */\n      iszero\n      tag_132\n      jumpi\n        /* \"#utility.yul\":1106:1185   */\n      tag_133\n      tag_134\n      jump\t// in\n    tag_133:\n        /* \"#utility.yul\":1067:1187   */\n    tag_132:\n        /* \"#utility.yul\":1254:1255   */\n      0x00\n        /* \"#utility.yul\":1243:1252   */\n      dup6\n        /* \"#utility.yul\":1239:1256   */\n      add\n        /* \"#utility.yul\":1226:1257   */\n      calldataload\n        /* \"#utility.yul\":1284:1302   */\n      0xffffffffffffffff\n        /* \"#utility.yul\":1276:1282   */\n      dup2\n        /* \"#utility.yul\":1273:1303   */\n      gt\n        /* \"#utility.yul\":1270:1387   */\n      iszero\n      tag_135\n      jumpi\n        /* \"#utility.yul\":1306:1385   */\n      tag_136\n      tag_137\n      jump\t// in\n    tag_136:\n        /* \"#utility.yul\":1270:1387   */\n    tag_135:\n        /* \"#utility.yul\":1411:1474   */\n      tag_138\n        /* \"#utility.yul\":1466:1473   */\n      dup8\n        /* \"#utility.yul\":1457:1463   */\n      dup3\n        /* \"#utility.yul\":1446:1455   */\n      dup9\n        /* \"#utility.yul\":1442:1464   */\n      add\n        /* \"#utility.yul\":1411:1474   */\n      tag_121\n      jump\t// in\n    tag_138:\n        /* \"#utility.yul\":1401:1474   */\n      swap5\n      pop\n        /* \"#utility.yul\":1197:1484   */\n      pop\n        /* \"#utility.yul\":1523:1525   */\n      0x20\n        /* \"#utility.yul\":1549:1602   */\n      tag_139\n        /* \"#utility.yul\":1594:1601   */\n      dup8\n        /* \"#utility.yul\":1585:1591   */\n      dup3\n        /* \"#utility.yul\":1574:1583   */\n      dup9\n        /* \"#utility.yul\":1570:1592   */\n      add\n        /* \"#utility.yul\":1549:1602   */\n      tag_127\n      jump\t// in\n    tag_139:\n        /* \"#utility.yul\":1539:1602   */\n      swap4\n      pop\n        /* \"#utility.yul\":1494:1612   */\n      pop\n        /* \"#utility.yul\":1651:1653   */\n      0x40\n        /* \"#utility.yul\":1677:1730   */\n      tag_140\n        /* \"#utility.yul\":1722:1729   */\n      dup8\n        /* \"#utility.yul\":1713:1719   */\n      dup3\n        /* \"#utility.yul\":1702:1711   */\n      dup9\n        /* \"#utility.yul\":1698:1720   */\n      add\n        /* \"#utility.yul\":1677:1730   */\n      tag_127\n      jump\t// in\n    tag_140:\n        /* \"#utility.yul\":1667:1730   */\n      swap3\n      pop\n        /* \"#utility.yul\":1622:1740   */\n      pop\n        /* \"#utility.yul\":1779:1781   */\n      0x60\n        /* \"#utility.yul\":1805:1858   */\n      tag_141\n        /* \"#utility.yul\":1850:1857   */\n      dup8\n        /* \"#utility.yul\":1841:1847   */\n      dup3\n        /* \"#utility.yul\":1830:1839   */\n      dup9\n        /* \"#utility.yul\":1826:1848   */\n      add\n        /* \"#utility.yul\":1805:1858   */\n      tag_127\n      jump\t// in\n    tag_141:\n        /* \"#utility.yul\":1795:1858   */\n      swap2\n      pop\n        /* \"#utility.yul\":1750:1868   */\n      pop\n        /* \"#utility.yul\":930:1875   */\n      swap3\n      swap6\n      swap2\n      swap5\n      pop\n      swap3\n      pop\n      jump\t// out\n        /* \"#utility.yul\":1881:2210   */\n    tag_24:\n        /* \"#utility.yul\":1940:1946   */\n      0x00\n        /* \"#utility.yul\":1989:1991   */\n      0x20\n        /* \"#utility.yul\":1977:1986   */\n      dup3\n        /* \"#utility.yul\":1968:1975   */\n      dup5\n        /* \"#utility.yul\":1964:1987   */\n      sub\n        /* \"#utility.yul\":1960:1992   */\n      slt\n        /* \"#utility.yul\":1957:2076   */\n      iszero\n      tag_143\n      jumpi\n        /* \"#utility.yul\":1995:2074   */\n      tag_144\n      tag_134\n      jump\t// in\n    tag_144:\n        /* \"#utility.yul\":1957:2076   */\n    tag_143:\n        /* \"#utility.yul\":2115:2116   */\n      0x00\n        /* \"#utility.yul\":2140:2193   */\n      tag_145\n        /* \"#utility.yul\":2185:2192   */\n      dup5\n        /* \"#utility.yul\":2176:2182   */\n      dup3\n        /* \"#utility.yul\":2165:2174   */\n      dup6\n        /* \"#utility.yul\":2161:2183   */\n      add\n        /* \"#utility.yul\":2140:2193   */\n      tag_127\n      jump\t// in\n    tag_145:\n        /* \"#utility.yul\":2130:2193   */\n      swap2\n      pop\n        /* \"#utility.yul\":2086:2203   */\n      pop\n        /* \"#utility.yul\":1881:2210   */\n      swap3\n      swap2\n      pop\n      pop\n      jump\t// out\n        /* \"#utility.yul\":2216:2870   */\n    tag_13:\n        /* \"#utility.yul\":2294:2300   */\n      0x00\n        /* \"#utility.yul\":2302:2308   */\n      dup1\n        /* \"#utility.yul\":2351:2353   */\n      0x40\n        /* \"#utility.yul\":2339:2348   */\n      dup4\n        /* \"#utility.yul\":2330:2337   */\n      dup6\n        /* \"#utility.yul\":2326:2349   */\n      sub\n        /* \"#utility.yul\":2322:2354   */\n      slt\n        /* \"#utility.yul\":2319:2438   */\n      iszero\n      tag_147\n      jumpi\n        /* \"#utility.yul\":2357:2436   */\n      tag_148\n      tag_134\n      jump\t// in\n    tag_148:\n        /* \"#utility.yul\":2319:2438   */\n    tag_147:\n        /* \"#utility.yul\":2477:2478   */\n      0x00\n        /* \"#utility.yul\":2502:2555   */\n      tag_149\n        /* \"#utility.yul\":2547:2554   */\n      dup6\n        /* \"#utility.yul\":2538:2544   */\n      dup3\n        /* \"#utility.yul\":2527:2536   */\n      dup7\n        /* \"#utility.yul\":2523:2545   */\n      add\n        /* \"#utility.yul\":2502:2555   */\n      tag_127\n      jump\t// in\n    tag_149:\n        /* \"#utility.yul\":2492:2555   */\n      swap3\n      pop\n        /* \"#utility.yul\":2448:2565   */\n      pop\n        /* \"#utility.yul\":2632:2634   */\n      0x20\n        /* \"#utility.yul\":2621:2630   */\n      dup4\n        /* \"#utility.yul\":2617:2635   */\n      add\n        /* \"#utility.yul\":2604:2636   */\n      calldataload\n        /* \"#utility.yul\":2663:2681   */\n      0xffffffffffffffff\n        /* \"#utility.yul\":2655:2661   */\n      dup2\n        /* \"#utility.yul\":2652:2682   */\n      gt\n        /* \"#utility.yul\":2649:2766   */\n      iszero\n      tag_150\n      jumpi\n        /* \"#utility.yul\":2685:2764   */\n      tag_151\n      tag_137\n      jump\t// in\n    tag_151:\n        /* \"#utility.yul\":2649:2766   */\n    tag_150:\n        /* \"#utility.yul\":2790:2853   */\n      tag_152\n        /* \"#utility.yul\":2845:2852   */\n      dup6\n        /* \"#utility.yul\":2836:2842   */\n      dup3\n        /* \"#utility.yul\":2825:2834   */\n      dup7\n        /* \"#utility.yul\":2821:2843   */\n      add\n        /* \"#utility.yul\":2790:2853   */\n      tag_121\n      jump\t// in\n    tag_152:\n        /* \"#utility.yul\":2780:2853   */\n      swap2\n      pop\n        /* \"#utility.yul\":2575:2863   */\n      pop\n        /* \"#utility.yul\":2216:2870   */\n      swap3\n      pop\n      swap3\n      swap1\n      pop\n      jump\t// out\n        /* \"#utility.yul\":2876:3350   */\n    tag_17:\n        /* \"#utility.yul\":2944:2950   */\n      0x00\n        /* \"#utility.yul\":2952:2958   */\n      dup1\n        /* \"#utility.yul\":3001:3003   */\n      0x40\n        /* \"#utility.yul\":2989:2998   */\n      dup4\n        /* \"#utility.yul\":2980:2987   */\n      dup6\n        /* \"#utility.yul\":2976:2999   */\n      sub\n        /* \"#utility.yul\":2972:3004   */\n      slt\n        /* \"#utility.yul\":2969:3088   */\n      iszero\n      tag_154\n      jumpi\n        /* \"#utility.yul\":3007:3086   */\n      tag_155\n      tag_134\n      jump\t// in\n    tag_155:\n        /* \"#utility.yul\":2969:3088   */\n    tag_154:\n        /* \"#utility.yul\":3127:3128   */\n      0x00\n        /* \"#utility.yul\":3152:3205   */\n      tag_156\n        /* \"#utility.yul\":3197:3204   */\n      dup6\n        /* \"#utility.yul\":3188:3194   */\n      dup3\n        /* \"#utility.yul\":3177:3186   */\n      dup7\n        /* \"#utility.yul\":3173:3195   */\n      add\n        /* \"#utility.yul\":3152:3205   */\n      tag_127\n      jump\t// in\n    tag_156:\n        /* \"#utility.yul\":3142:3205   */\n      swap3\n      pop\n        /* \"#utility.yul\":3098:3215   */\n      pop\n        /* \"#utility.yul\":3254:3256   */\n      0x20\n        /* \"#utility.yul\":3280:3333   */\n      tag_157\n        /* \"#utility.yul\":3325:3332   */\n      dup6\n        /* \"#utility.yul\":3316:3322   */\n      dup3\n        /* \"#utility.yul\":3305:3314   */\n      dup7\n        /* \"#utility.yul\":3301:3323   */\n      add\n        /* \"#utility.yul\":3280:3333   */\n      tag_127\n      jump\t// in\n    tag_157:\n        /* \"#utility.yul\":3270:3333   */\n      swap2\n      pop\n        /* \"#utility.yul\":3225:3343   */\n      pop\n        /* \"#utility.yul\":2876:3350   */\n      swap3\n      pop\n      swap3\n      swap1\n      pop\n      jump\t// out\n        /* \"#utility.yul\":3356:3720   */\n    tag_158:\n        /* \"#utility.yul\":3444:3447   */\n      0x00\n        /* \"#utility.yul\":3472:3511   */\n      tag_160\n        /* \"#utility.yul\":3505:3510   */\n      dup3\n        /* \"#utility.yul\":3472:3511   */\n      tag_161\n      jump\t// in\n    tag_160:\n        /* \"#utility.yul\":3527:3598   */\n      tag_162\n        /* \"#utility.yul\":3591:3597   */\n      dup2\n        /* \"#utility.yul\":3586:3589   */\n      dup6\n        /* \"#utility.yul\":3527:3598   */\n      tag_163\n      jump\t// in\n    tag_162:\n        /* \"#utility.yul\":3520:3598   */\n      swap4\n      pop\n        /* \"#utility.yul\":3607:3659   */\n      tag_164\n        /* \"#utility.yul\":3652:3658   */\n      dup2\n        /* \"#utility.yul\":3647:3650   */\n      dup6\n        /* \"#utility.yul\":3640:3644   */\n      0x20\n        /* \"#utility.yul\":3633:3638   */\n      dup7\n        /* \"#utility.yul\":3629:3645   */\n      add\n        /* \"#utility.yul\":3607:3659   */\n      tag_165\n      jump\t// in\n    tag_164:\n        /* \"#utility.yul\":3684:3713   */\n      tag_166\n        /* \"#utility.yul\":3706:3712   */\n      dup2\n        /* \"#utility.yul\":3684:3713   */\n      tag_167\n      jump\t// in\n    tag_166:\n        /* \"#utility.yul\":3679:3682   */\n      dup5\n        /* \"#utility.yul\":3675:3714   */\n      add\n        /* \"#utility.yul\":3668:3714   */\n      swap2\n      pop\n        /* \"#utility.yul\":3448:3720   */\n      pop\n        /* \"#utility.yul\":3356:3720   */\n      swap3\n      swap2\n      pop\n      pop\n      jump\t// out\n        /* \"#utility.yul\":3726:3844   */\n    tag_168:\n        /* \"#utility.yul\":3813:3837   */\n      tag_170\n        /* \"#utility.yul\":3831:3836   */\n      dup2\n        /* \"#utility.yul\":3813:3837   */\n      tag_171\n      jump\t// in\n    tag_170:\n        /* \"#utility.yul\":3808:3811   */\n      dup3\n        /* \"#utility.yul\":3801:3838   */\n      mstore\n        /* \"#utility.yul\":3726:3844   */\n      pop\n      pop\n      jump\t// out\n        /* \"#utility.yul\":3850:4494   */\n    tag_27:\n        /* \"#utility.yul\":4047:4051   */\n      0x00\n        /* \"#utility.yul\":4085:4088   */\n      0x80\n        /* \"#utility.yul\":4074:4083   */\n      dup3\n        /* \"#utility.yul\":4070:4089   */\n      add\n        /* \"#utility.yul\":4062:4089   */\n      swap1\n      pop\n        /* \"#utility.yul\":4135:4144   */\n      dup2\n        /* \"#utility.yul\":4129:4133   */\n      dup2\n        /* \"#utility.yul\":4125:4145   */\n      sub\n        /* \"#utility.yul\":4121:4122   */\n      0x00\n        /* \"#utility.yul\":4110:4119   */\n      dup4\n        /* \"#utility.yul\":4106:4123   */\n      add\n        /* \"#utility.yul\":4099:4146   */\n      mstore\n        /* \"#utility.yul\":4163:4241   */\n      tag_173\n        /* \"#utility.yul\":4236:4240   */\n      dup2\n        /* \"#utility.yul\":4227:4233   */\n      dup8\n        /* \"#utility.yul\":4163:4241   */\n      tag_158\n      jump\t// in\n    tag_173:\n        /* \"#utility.yul\":4155:4241   */\n      swap1\n      pop\n        /* \"#utility.yul\":4251:4323   */\n      tag_174\n        /* \"#utility.yul\":4319:4321   */\n      0x20\n        /* \"#utility.yul\":4308:4317   */\n      dup4\n        /* \"#utility.yul\":4304:4322   */\n      add\n        /* \"#utility.yul\":4295:4301   */\n      dup7\n        /* \"#utility.yul\":4251:4323   */\n      tag_168\n      jump\t// in\n    tag_174:\n        /* \"#utility.yul\":4333:4405   */\n      tag_175\n        /* \"#utility.yul\":4401:4403   */\n      0x40\n        /* \"#utility.yul\":4390:4399   */\n      dup4\n        /* \"#utility.yul\":4386:4404   */\n      add\n        /* \"#utility.yul\":4377:4383   */\n      dup6\n        /* \"#utility.yul\":4333:4405   */\n      tag_168\n      jump\t// in\n    tag_175:\n        /* \"#utility.yul\":4415:4487   */\n      tag_176\n        /* \"#utility.yul\":4483:4485   */\n      0x60\n        /* \"#utility.yul\":4472:4481   */\n      dup4\n        /* \"#utility.yul\":4468:4486   */\n      add\n        /* \"#utility.yul\":4459:4465   */\n      dup5\n        /* \"#utility.yul\":4415:4487   */\n      tag_168\n      jump\t// in\n    tag_176:\n        /* \"#utility.yul\":3850:4494   */\n      swap6\n      swap5\n      pop\n      pop\n      pop\n      pop\n      pop\n      jump\t// out\n        /* \"#utility.yul\":4500:4629   */\n    tag_115:\n        /* \"#utility.yul\":4534:4540   */\n      0x00\n        /* \"#utility.yul\":4561:4581   */\n      tag_178\n      tag_179\n      jump\t// in\n    tag_178:\n        /* \"#utility.yul\":4551:4581   */\n      swap1\n      pop\n        /* \"#utility.yul\":4590:4623   */\n      tag_180\n        /* \"#utility.yul\":4618:4622   */\n      dup3\n        /* \"#utility.yul\":4610:4616   */\n      dup3\n        /* \"#utility.yul\":4590:4623   */\n      tag_181\n      jump\t// in\n    tag_180:\n        /* \"#utility.yul\":4500:4629   */\n      swap2\n      swap1\n      pop\n      jump\t// out\n        /* \"#utility.yul\":4635:4710   */\n    tag_179:\n        /* \"#utility.yul\":4668:4674   */\n      0x00\n        /* \"#utility.yul\":4701:4703   */\n      0x40\n        /* \"#utility.yul\":4695:4704   */\n      mload\n        /* \"#utility.yul\":4685:4704   */\n      swap1\n      pop\n        /* \"#utility.yul\":4635:4710   */\n      swap1\n      jump\t// out\n        /* \"#utility.yul\":4716:5024   */\n    tag_114:\n        /* \"#utility.yul\":4778:4782   */\n      0x00\n        /* \"#utility.yul\":4868:4886   */\n      0xffffffffffffffff\n        /* \"#utility.yul\":4860:4866   */\n      dup3\n        /* \"#utility.yul\":4857:4887   */\n      gt\n        /* \"#utility.yul\":4854:4910   */\n      iszero\n      tag_184\n      jumpi\n        /* \"#utility.yul\":4890:4908   */\n      tag_185\n      tag_186\n      jump\t// in\n    tag_185:\n        /* \"#utility.yul\":4854:4910   */\n    tag_184:\n        /* \"#utility.yul\":4928:4957   */\n      tag_187\n        /* \"#utility.yul\":4950:4956   */\n      dup3\n        /* \"#utility.yul\":4928:4957   */\n      tag_167\n      jump\t// in\n    tag_187:\n        /* \"#utility.yul\":4920:4957   */\n      swap1\n      pop\n        /* \"#utility.yul\":5012:5016   */\n      0x20\n        /* \"#utility.yul\":5006:5010   */\n      dup2\n        /* \"#utility.yul\":5002:5017   */\n      add\n        /* \"#utility.yul\":4994:5017   */\n      swap1\n      pop\n        /* \"#utility.yul\":4716:5024   */\n      swap2\n      swap1\n      pop\n      jump\t// out\n        /* \"#utility.yul\":5030:5129   */\n    tag_161:\n        /* \"#utility.yul\":5082:5088   */\n      0x00\n        /* \"#utility.yul\":5116:5121   */\n      dup2\n        /* \"#utility.yul\":5110:5122   */\n      mload\n        /* \"#utility.yul\":5100:5122   */\n      swap1\n      pop\n        /* \"#utility.yul\":5030:5129   */\n      swap2\n      swap1\n      pop\n      jump\t// out\n        /* \"#utility.yul\":5135:5304   */\n    tag_163:\n        /* \"#utility.yul\":5219:5230   */\n      0x00\n        /* \"#utility.yul\":5253:5259   */\n      dup3\n        /* \"#utility.yul\":5248:5251   */\n      dup3\n        /* \"#utility.yul\":5241:5260   */\n      mstore\n        /* \"#utility.yul\":5293:5297   */\n      0x20\n        /* \"#utility.yul\":5288:5291   */\n      dup3\n        /* \"#utility.yul\":5284:5298   */\n      add\n        /* \"#utility.yul\":5269:5298   */\n      swap1\n      pop\n        /* \"#utility.yul\":5135:5304   */\n      swap3\n      swap2\n      pop\n      pop\n      jump\t// out\n        /* \"#utility.yul\":5310:5501   */\n    tag_65:\n        /* \"#utility.yul\":5350:5354   */\n      0x00\n        /* \"#utility.yul\":5370:5390   */\n      tag_191\n        /* \"#utility.yul\":5388:5389   */\n      dup3\n        /* \"#utility.yul\":5370:5390   */\n      tag_171\n      jump\t// in\n    tag_191:\n        /* \"#utility.yul\":5365:5390   */\n      swap2\n      pop\n        /* \"#utility.yul\":5404:5424   */\n      tag_192\n        /* \"#utility.yul\":5422:5423   */\n      dup4\n        /* \"#utility.yul\":5404:5424   */\n      tag_171\n      jump\t// in\n    tag_192:\n        /* \"#utility.yul\":5399:5424   */\n      swap3\n      pop\n        /* \"#utility.yul\":5443:5444   */\n      dup3\n        /* \"#utility.yul\":5440:5441   */\n      dup3\n        /* \"#utility.yul\":5437:5445   */\n      lt\n        /* \"#utility.yul\":5434:5468   */\n      iszero\n      tag_193\n      jumpi\n        /* \"#utility.yul\":5448:5466   */\n      tag_194\n      tag_195\n      jump\t// in\n    tag_194:\n        /* \"#utility.yul\":5434:5468   */\n    tag_193:\n        /* \"#utility.yul\":5493:5494   */\n      dup3\n        /* \"#utility.yul\":5490:5491   */\n      dup3\n        /* \"#utility.yul\":5486:5495   */\n      sub\n        /* \"#utility.yul\":5478:5495   */\n      swap1\n      pop\n        /* \"#utility.yul\":5310:5501   */\n      swap3\n      swap2\n      pop\n      pop\n      jump\t// out\n        /* \"#utility.yul\":5507:5584   */\n    tag_171:\n        /* \"#utility.yul\":5544:5551   */\n      0x00\n        /* \"#utility.yul\":5573:5578   */\n      dup2\n        /* \"#utility.yul\":5562:5578   */\n      swap1\n      pop\n        /* \"#utility.yul\":5507:5584   */\n      swap2\n      swap1\n      pop\n      jump\t// out\n        /* \"#utility.yul\":5590:5744   */\n    tag_120:\n        /* \"#utility.yul\":5674:5680   */\n      dup3\n        /* \"#utility.yul\":5669:5672   */\n      dup2\n        /* \"#utility.yul\":5664:5667   */\n      dup4\n        /* \"#utility.yul\":5651:5681   */\n      calldatacopy\n        /* \"#utility.yul\":5736:5737   */\n      0x00\n        /* \"#utility.yul\":5727:5733   */\n      dup4\n        /* \"#utility.yul\":5722:5725   */\n      dup4\n        /* \"#utility.yul\":5718:5734   */\n      add\n        /* \"#utility.yul\":5711:5738   */\n      mstore\n        /* \"#utility.yul\":5590:5744   */\n      pop\n      pop\n      pop\n      jump\t// out\n        /* \"#utility.yul\":5750:6057   */\n    tag_165:\n        /* \"#utility.yul\":5818:5819   */\n      0x00\n        /* \"#utility.yul\":5828:5941   */\n    tag_199:\n        /* \"#utility.yul\":5842:5848   */\n      dup4\n        /* \"#utility.yul\":5839:5840   */\n      dup2\n        /* \"#utility.yul\":5836:5849   */\n      lt\n        /* \"#utility.yul\":5828:5941   */\n      iszero\n      tag_201\n      jumpi\n        /* \"#utility.yul\":5927:5928   */\n      dup1\n        /* \"#utility.yul\":5922:5925   */\n      dup3\n        /* \"#utility.yul\":5918:5929   */\n      add\n        /* \"#utility.yul\":5912:5930   */\n      mload\n        /* \"#utility.yul\":5908:5909   */\n      dup2\n        /* \"#utility.yul\":5903:5906   */\n      dup5\n        /* \"#utility.yul\":5899:5910   */\n      add\n        /* \"#utility.yul\":5892:5931   */\n      mstore\n        /* \"#utility.yul\":5864:5866   */\n      0x20\n        /* \"#utility.yul\":5861:5862   */\n      dup2\n        /* \"#utility.yul\":5857:5867   */\n      add\n        /* \"#utility.yul\":5852:5867   */\n      swap1\n      pop\n        /* \"#utility.yul\":5828:5941   */\n      jump(tag_199)\n    tag_201:\n        /* \"#utility.yul\":5959:5965   */\n      dup4\n        /* \"#utility.yul\":5956:5957   */\n      dup2\n        /* \"#utility.yul\":5953:5966   */\n      gt\n        /* \"#utility.yul\":5950:6051   */\n      iszero\n      tag_202\n      jumpi\n        /* \"#utility.yul\":6039:6040   */\n      0x00\n        /* \"#utility.yul\":6030:6036   */\n      dup5\n        /* \"#utility.yul\":6025:6028   */\n      dup5\n        /* \"#utility.yul\":6021:6037   */\n      add\n        /* \"#utility.yul\":6014:6041   */\n      mstore\n        /* \"#utility.yul\":5950:6051   */\n    tag_202:\n        /* \"#utility.yul\":5799:6057   */\n      pop\n        /* \"#utility.yul\":5750:6057   */\n      pop\n      pop\n      pop\n      jump\t// out\n        /* \"#utility.yul\":6063:6383   */\n    tag_58:\n        /* \"#utility.yul\":6107:6113   */\n      0x00\n        /* \"#utility.yul\":6144:6145   */\n      0x02\n        /* \"#utility.yul\":6138:6142   */\n      dup3\n        /* \"#utility.yul\":6134:6146   */\n      div\n        /* \"#utility.yul\":6124:6146   */\n      swap1\n      pop\n        /* \"#utility.yul\":6191:6192   */\n      0x01\n        /* \"#utility.yul\":6185:6189   */\n      dup3\n        /* \"#utility.yul\":6181:6193   */\n      and\n        /* \"#utility.yul\":6212:6230   */\n      dup1\n        /* \"#utility.yul\":6202:6283   */\n      tag_204\n      jumpi\n        /* \"#utility.yul\":6268:6272   */\n      0x7f\n        /* \"#utility.yul\":6260:6266   */\n      dup3\n        /* \"#utility.yul\":6256:6273   */\n      and\n        /* \"#utility.yul\":6246:6273   */\n      swap2\n      pop\n        /* \"#utility.yul\":6202:6283   */\n    tag_204:\n        /* \"#utility.yul\":6330:6332   */\n      0x20\n        /* \"#utility.yul\":6322:6328   */\n      dup3\n        /* \"#utility.yul\":6319:6333   */\n      lt\n        /* \"#utility.yul\":6299:6317   */\n      dup2\n        /* \"#utility.yul\":6296:6334   */\n      eq\n        /* \"#utility.yul\":6293:6377   */\n      iszero\n      tag_205\n      jumpi\n        /* \"#utility.yul\":6349:6367   */\n      tag_206\n      tag_207\n      jump\t// in\n    tag_206:\n        /* \"#utility.yul\":6293:6377   */\n    tag_205:\n        /* \"#utility.yul\":6114:6383   */\n      pop\n        /* \"#utility.yul\":6063:6383   */\n      swap2\n      swap1\n      pop\n      jump\t// out\n        /* \"#utility.yul\":6389:6670   */\n    tag_181:\n        /* \"#utility.yul\":6472:6499   */\n      tag_209\n        /* \"#utility.yul\":6494:6498   */\n      dup3\n        /* \"#utility.yul\":6472:6499   */\n      tag_167\n      jump\t// in\n    tag_209:\n        /* \"#utility.yul\":6464:6470   */\n      dup2\n        /* \"#utility.yul\":6460:6500   */\n      add\n        /* \"#utility.yul\":6602:6608   */\n      dup2\n        /* \"#utility.yul\":6590:6600   */\n      dup2\n        /* \"#utility.yul\":6587:6609   */\n      lt\n        /* \"#utility.yul\":6566:6584   */\n      0xffffffffffffffff\n        /* \"#utility.yul\":6554:6564   */\n      dup3\n        /* \"#utility.yul\":6551:6585   */\n      gt\n        /* \"#utility.yul\":6548:6610   */\n      or\n        /* \"#utility.yul\":6545:6633   */\n      iszero\n      tag_210\n      jumpi\n        /* \"#utility.yul\":6613:6631   */\n      tag_211\n      tag_186\n      jump\t// in\n    tag_211:\n        /* \"#utility.yul\":6545:6633   */\n    tag_210:\n        /* \"#utility.yul\":6653:6663   */\n      dup1\n        /* \"#utility.yul\":6649:6651   */\n      0x40\n        /* \"#utility.yul\":6642:6664   */\n      mstore\n        /* \"#utility.yul\":6432:6670   */\n      pop\n        /* \"#utility.yul\":6389:6670   */\n      pop\n      pop\n      jump\t// out\n        /* \"#utility.yul\":6676:6856   */\n    tag_195:\n        /* \"#utility.yul\":6724:6801   */\n      0x4e487b7100000000000000000000000000000000000000000000000000000000\n        /* \"#utility.yul\":6721:6722   */\n      0x00\n        /* \"#utility.yul\":6714:6802   */\n      mstore\n        /* \"#utility.yul\":6821:6825   */\n      0x11\n        /* \"#utility.yul\":6818:6819   */\n      0x04\n        /* \"#utility.yul\":6811:6826   */\n      mstore\n        /* \"#utility.yul\":6845:6849   */\n      0x24\n        /* \"#utility.yul\":6842:6843   */\n      0x00\n        /* \"#utility.yul\":6835:6850   */\n      revert\n        /* \"#utility.yul\":6862:7042   */\n    tag_207:\n        /* \"#utility.yul\":6910:6987   */\n      0x4e487b7100000000000000000000000000000000000000000000000000000000\n        /* \"#utility.yul\":6907:6908   */\n      0x00\n        /* \"#utility.yul\":6900:6988   */\n      mstore\n        /* \"#utility.yul\":7007:7011   */\n      0x22\n        /* \"#utility.yul\":7004:7005   */\n      0x04\n        /* \"#utility.yul\":6997:7012   */\n      mstore\n        /* \"#utility.yul\":7031:7035   */\n      0x24\n        /* \"#utility.yul\":7028:7029   */\n      0x00\n        /* \"#utility.yul\":7021:7036   */\n      revert\n        /* \"#utility.yul\":7048:7228   */\n    tag_77:\n        /* \"#utility.yul\":7096:7173   */\n      0x4e487b7100000000000000000000000000000000000000000000000000000000\n        /* \"#utility.yul\":7093:7094   */\n      0x00\n        /* \"#utility.yul\":7086:7174   */\n      mstore\n        /* \"#utility.yul\":7193:7197   */\n      0x31\n        /* \"#utility.yul\":7190:7191   */\n      0x04\n        /* \"#utility.yul\":7183:7198   */\n      mstore\n        /* \"#utility.yul\":7217:7221   */\n      0x24\n        /* \"#utility.yul\":7214:7215   */\n      0x00\n        /* \"#utility.yul\":7207:7222   */\n      revert\n        /* \"#utility.yul\":7234:7414   */\n    tag_41:\n        /* \"#utility.yul\":7282:7359   */\n      0x4e487b7100000000000000000000000000000000000000000000000000000000\n        /* \"#utility.yul\":7279:7280   */\n      0x00\n        /* \"#utility.yul\":7272:7360   */\n      mstore\n        /* \"#utility.yul\":7379:7383   */\n      0x32\n        /* \"#utility.yul\":7376:7377   */\n      0x04\n        /* \"#utility.yul\":7369:7384   */\n      mstore\n        /* \"#utility.yul\":7403:7407   */\n      0x24\n        /* \"#utility.yul\":7400:7401   */\n      0x00\n        /* \"#utility.yul\":7393:7408   */\n      revert\n        /* \"#utility.yul\":7420:7600   */\n    tag_186:\n        /* \"#utility.yul\":7468:7545   */\n      0x4e487b7100000000000000000000000000000000000000000000000000000000\n        /* \"#utility.yul\":7465:7466   */\n      0x00\n        /* \"#utility.yul\":7458:7546   */\n      mstore\n        /* \"#utility.yul\":7565:7569   */\n      0x41\n        /* \"#utility.yul\":7562:7563   */\n      0x04\n        /* \"#utility.yul\":7555:7570   */\n      mstore\n        /* \"#utility.yul\":7589:7593   */\n      0x24\n        /* \"#utility.yul\":7586:7587   */\n      0x00\n        /* \"#utility.yul\":7579:7594   */\n      revert\n        /* \"#utility.yul\":7606:7723   */\n    tag_125:\n        /* \"#utility.yul\":7715:7716   */\n      0x00\n        /* \"#utility.yul\":7712:7713   */\n      dup1\n        /* \"#utility.yul\":7705:7717   */\n      revert\n        /* \"#utility.yul\":7729:7846   */\n    tag_118:\n        /* \"#utility.yul\":7838:7839   */\n      0x00\n        /* \"#utility.yul\":7835:7836   */\n      dup1\n        /* \"#utility.yul\":7828:7840   */\n      revert\n        /* \"#utility.yul\":7852:7969   */\n    tag_137:\n        /* \"#utility.yul\":7961:7962   */\n      0x00\n        /* \"#utility.yul\":7958:7959   */\n      dup1\n        /* \"#utility.yul\":7951:7963   */\n      revert\n        /* \"#utility.yul\":7975:8092   */\n    tag_134:\n        /* \"#utility.yul\":8084:8085   */\n      0x00\n        /* \"#utility.yul\":8081:8082   */\n      dup1\n        /* \"#utility.yul\":8074:8086   */\n      revert\n        /* \"#utility.yul\":8098:8200   */\n    tag_167:\n        /* \"#utility.yul\":8139:8145   */\n      0x00\n        /* \"#utility.yul\":8190:8192   */\n      0x1f\n        /* \"#utility.yul\":8186:8193   */\n      not\n        /* \"#utility.yul\":8181:8183   */\n      0x1f\n        /* \"#utility.yul\":8174:8179   */\n      dup4\n        /* \"#utility.yul\":8170:8184   */\n      add\n        /* \"#utility.yul\":8166:8194   */\n      and\n        /* \"#utility.yul\":8156:8194   */\n      swap1\n      pop\n        /* \"#utility.yul\":8098:8200   */\n      swap2\n      swap1\n      pop\n      jump\t// out\n        /* \"#utility.yul\":8206:8328   */\n    tag_130:\n        /* \"#utility.yul\":8279:8303   */\n      tag_223\n        /* \"#utility.yul\":8297:8302   */\n      dup2\n        /* \"#utility.yul\":8279:8303   */\n      tag_171\n      jump\t// in\n    tag_223:\n        /* \"#utility.yul\":8272:8277   */\n      dup2\n        /* \"#utility.yul\":8269:8304   */\n      eq\n        /* \"#utility.yul\":8259:8322   */\n      tag_224\n      jumpi\n        /* \"#utility.yul\":8318:8319   */\n      0x00\n        /* \"#utility.yul\":8315:8316   */\n      dup1\n        /* \"#utility.yul\":8308:8320   */\n      revert\n        /* \"#utility.yul\":8259:8322   */\n    tag_224:\n        /* \"#utility.yul\":8206:8328   */\n      pop\n      jump\t// out\n\n    auxdata: 0xa26469706673582212208d862a957635996b386877e59ae981215a6eb27360b91eb0febaf8f1bfea3c4864736f6c63430008070033\n}\n",
				"bytecode": {
					"linkReferences": {},
					"object": "608060405234801561001057600080fd5b50610b4f806100206000396000f3fe608060405234801561001057600080fd5b506004361061007d5760003560e01c80637aadbdd31161005b5780637aadbdd3146100d65780639351b07814610109578063973e2bbc14610125578063e1b7edff146101415761007d565b806312cbb9721461008257806327503a821461009e5780632dc6a8d7146100ba575b600080fd5b61009c6004803603810190610097919061076d565b61015d565b005b6100b860048036038101906100b391906107c9565b6101a0565b005b6100d460048036038101906100cf91906107c9565b6101d3565b005b6100f060048036038101906100eb9190610740565b610206565b6040516101009493929190610851565b60405180910390f35b610123600480360381019061011e9190610740565b61031a565b005b61013f600480360381019061013a91906107c9565b610406565b005b61015b600480360381019061015691906106bd565b610439565b005b600080838154811061017257610171610a7f565b5b906000526020600020906004020190508181600001908051906020019061019a9291906104c8565b50505050565b60008083815481106101b5576101b4610a7f565b5b90600052602060002090600402019050818160020181905550505050565b60008083815481106101e8576101e7610a7f565b5b90600052602060002090600402019050818160010181905550505050565b60606000806000806000868154811061022257610221610a7f565b5b906000526020600020906004020160405180608001604052908160008201805461024b9061098f565b80601f01602080910402602001604051908101604052809291908181526020018280546102779061098f565b80156102c45780601f10610299576101008083540402835291602001916102c4565b820191906000526020600020905b8154815290600101906020018083116102a757829003601f168201915b505050505081526020016001820154815260200160028201548152602001600382015481525050905084816000018190525080600001518160200151826040015183606001519450945094509450509193509193565b6000600160008054905061032e919061090f565b8154811061033f5761033e610a7f565b5b90600052602060002090600402016000828154811061036157610360610a7f565b5b906000526020600020906004020160008201816000019080546103839061098f565b61038e92919061054e565b5060018201548160010155600282015481600201556003820154816003015590505060008054806103c2576103c1610a50565b5b6001900381819060005260206000209060040201600080820160006103e791906105db565b6001820160009055600282016000905560038201600090555050905550565b600080838154811061041b5761041a610a7f565b5b90600052602060002090600402019050818160030181905550505050565b6000604051806080016040528086815260200185815260200184815260200183815250908060018154018082558091505060019003906000526020600020906004020160009091909190915060008201518160000190805190602001906104a19291906104c8565b50602082015181600101556040820151816002015560608201518160030155505050505050565b8280546104d49061098f565b90600052602060002090601f0160209004810192826104f6576000855561053d565b82601f1061050f57805160ff191683800117855561053d565b8280016001018555821561053d579182015b8281111561053c578251825591602001919060010190610521565b5b50905061054a919061061b565b5090565b82805461055a9061098f565b90600052602060002090601f01602090048101928261057c57600085556105ca565b82601f1061058d57805485556105ca565b828001600101855582156105ca57600052602060002091601f016020900482015b828111156105c95782548255916001019190600101906105ae565b5b5090506105d7919061061b565b5090565b5080546105e79061098f565b6000825580601f106105f95750610618565b601f016020900490600052602060002090810190610617919061061b565b5b50565b5b8082111561063457600081600090555060010161061c565b5090565b600061064b610646846108c2565b61089d565b90508281526020810184848401111561066757610666610ae2565b5b61067284828561094d565b509392505050565b600082601f83011261068f5761068e610add565b5b813561069f848260208601610638565b91505092915050565b6000813590506106b781610b02565b92915050565b600080600080608085870312156106d7576106d6610aec565b5b600085013567ffffffffffffffff8111156106f5576106f4610ae7565b5b6107018782880161067a565b9450506020610712878288016106a8565b9350506040610723878288016106a8565b9250506060610734878288016106a8565b91505092959194509250565b60006020828403121561075657610755610aec565b5b6000610764848285016106a8565b91505092915050565b6000806040838503121561078457610783610aec565b5b6000610792858286016106a8565b925050602083013567ffffffffffffffff8111156107b3576107b2610ae7565b5b6107bf8582860161067a565b9150509250929050565b600080604083850312156107e0576107df610aec565b5b60006107ee858286016106a8565b92505060206107ff858286016106a8565b9150509250929050565b6000610814826108f3565b61081e81856108fe565b935061082e81856020860161095c565b61083781610af1565b840191505092915050565b61084b81610943565b82525050565b6000608082019050818103600083015261086b8187610809565b905061087a6020830186610842565b6108876040830185610842565b6108946060830184610842565b95945050505050565b60006108a76108b8565b90506108b382826109c1565b919050565b6000604051905090565b600067ffffffffffffffff8211156108dd576108dc610aae565b5b6108e682610af1565b9050602081019050919050565b600081519050919050565b600082825260208201905092915050565b600061091a82610943565b915061092583610943565b925082821015610938576109376109f2565b5b828203905092915050565b6000819050919050565b82818337600083830152505050565b60005b8381101561097a57808201518184015260208101905061095f565b83811115610989576000848401525b50505050565b600060028204905060018216806109a757607f821691505b602082108114156109bb576109ba610a21565b5b50919050565b6109ca82610af1565b810181811067ffffffffffffffff821117156109e9576109e8610aae565b5b80604052505050565b7f4e487b7100000000000000000000000000000000000000000000000000000000600052601160045260246000fd5b7f4e487b7100000000000000000000000000000000000000000000000000000000600052602260045260246000fd5b7f4e487b7100000000000000000000000000000000000000000000000000000000600052603160045260246000fd5b7f4e487b7100000000000000000000000000000000000000000000000000000000600052603260045260246000fd5b7f4e487b7100000000000000000000000000000000000000000000000000000000600052604160045260246000fd5b600080fd5b600080fd5b600080fd5b600080fd5b6000601f19601f8301169050919050565b610b0b81610943565b8114610b1657600080fd5b5056fea26469706673582212208d862a957635996b386877e59ae981215a6eb27360b91eb0febaf8f1bfea3c4864736f6c63430008070033",
					"opcodes": "PUSH1 0x80 PUSH1 0x40 MSTORE CALLVALUE DUP1 ISZERO PUSH2 0x10 JUMPI PUSH1 0x0 DUP1 REVERT JUMPDEST POP PUSH2 0xB4F DUP1 PUSH2 0x20 PUSH1 0x0 CODECOPY PUSH1 0x0 RETURN INVALID PUSH1 0x80 PUSH1 0x40 MSTORE CALLVALUE DUP1 ISZERO PUSH2 0x10 JUMPI PUSH1 0x0 DUP1 REVERT JUMPDEST POP PUSH1 0x4 CALLDATASIZE LT PUSH2 0x7D JUMPI PUSH1 0x0 CALLDATALOAD PUSH1 0xE0 SHR DUP1 PUSH4 0x7AADBDD3 GT PUSH2 0x5B JUMPI DUP1 PUSH4 0x7AADBDD3 EQ PUSH2 0xD6 JUMPI DUP1 PUSH4 0x9351B078 EQ PUSH2 0x109 JUMPI DUP1 PUSH4 0x973E2BBC EQ PUSH2 0x125 JUMPI DUP1 PUSH4 0xE1B7EDFF EQ PUSH2 0x141 JUMPI PUSH2 0x7D JUMP JUMPDEST DUP1 PUSH4 0x12CBB972 EQ PUSH2 0x82 JUMPI DUP1 PUSH4 0x27503A82 EQ PUSH2 0x9E JUMPI DUP1 PUSH4 0x2DC6A8D7 EQ PUSH2 0xBA JUMPI JUMPDEST PUSH1 0x0 DUP1 REVERT JUMPDEST PUSH2 0x9C PUSH1 0x4 DUP1 CALLDATASIZE SUB DUP2 ADD SWAP1 PUSH2 0x97 SWAP2 SWAP1 PUSH2 0x76D JUMP JUMPDEST PUSH2 0x15D JUMP JUMPDEST STOP JUMPDEST PUSH2 0xB8 PUSH1 0x4 DUP1 CALLDATASIZE SUB DUP2 ADD SWAP1 PUSH2 0xB3 SWAP2 SWAP1 PUSH2 0x7C9 JUMP JUMPDEST PUSH2 0x1A0 JUMP JUMPDEST STOP JUMPDEST PUSH2 0xD4 PUSH1 0x4 DUP1 CALLDATASIZE SUB DUP2 ADD SWAP1 PUSH2 0xCF SWAP2 SWAP1 PUSH2 0x7C9 JUMP JUMPDEST PUSH2 0x1D3 JUMP JUMPDEST STOP JUMPDEST PUSH2 0xF0 PUSH1 0x4 DUP1 CALLDATASIZE SUB DUP2 ADD SWAP1 PUSH2 0xEB SWAP2 SWAP1 PUSH2 0x740 JUMP JUMPDEST PUSH2 0x206 JUMP JUMPDEST PUSH1 0x40 MLOAD PUSH2 0x100 SWAP5 SWAP4 SWAP3 SWAP2 SWAP1 PUSH2 0x851 JUMP JUMPDEST PUSH1 0x40 MLOAD DUP1 SWAP2 SUB SWAP1 RETURN JUMPDEST PUSH2 0x123 PUSH1 0x4 DUP1 CALLDATASIZE SUB DUP2 ADD SWAP1 PUSH2 0x11E SWAP2 SWAP1 PUSH2 0x740 JUMP JUMPDEST PUSH2 0x31A JUMP JUMPDEST STOP JUMPDEST PUSH2 0x13F PUSH1 0x4 DUP1 CALLDATASIZE SUB DUP2 ADD SWAP1 PUSH2 0x13A SWAP2 SWAP1 PUSH2 0x7C9 JUMP JUMPDEST PUSH2 0x406 JUMP JUMPDEST STOP JUMPDEST PUSH2 0x15B PUSH1 0x4 DUP1 CALLDATASIZE SUB DUP2 ADD SWAP1 PUSH2 0x156 SWAP2 SWAP1 PUSH2 0x6BD JUMP JUMPDEST PUSH2 0x439 JUMP JUMPDEST STOP JUMPDEST PUSH1 0x0 DUP1 DUP4 DUP2 SLOAD DUP2 LT PUSH2 0x172 JUMPI PUSH2 0x171 PUSH2 0xA7F JUMP JUMPDEST JUMPDEST SWAP1 PUSH1 0x0 MSTORE PUSH1 0x20 PUSH1 0x0 KECCAK256 SWAP1 PUSH1 0x4 MUL ADD SWAP1 POP DUP2 DUP2 PUSH1 0x0 ADD SWAP1 DUP1 MLOAD SWAP1 PUSH1 0x20 ADD SWAP1 PUSH2 0x19A SWAP3 SWAP2 SWAP1 PUSH2 0x4C8 JUMP JUMPDEST POP POP POP POP JUMP JUMPDEST PUSH1 0x0 DUP1 DUP4 DUP2 SLOAD DUP2 LT PUSH2 0x1B5 JUMPI PUSH2 0x1B4 PUSH2 0xA7F JUMP JUMPDEST JUMPDEST SWAP1 PUSH1 0x0 MSTORE PUSH1 0x20 PUSH1 0x0 KECCAK256 SWAP1 PUSH1 0x4 MUL ADD SWAP1 POP DUP2 DUP2 PUSH1 0x2 ADD DUP2 SWAP1 SSTORE POP POP POP POP JUMP JUMPDEST PUSH1 0x0 DUP1 DUP4 DUP2 SLOAD DUP2 LT PUSH2 0x1E8 JUMPI PUSH2 0x1E7 PUSH2 0xA7F JUMP JUMPDEST JUMPDEST SWAP1 PUSH1 0x0 MSTORE PUSH1 0x20 PUSH1 0x0 KECCAK256 SWAP1 PUSH1 0x4 MUL ADD SWAP1 POP DUP2 DUP2 PUSH1 0x1 ADD DUP2 SWAP1 SSTORE POP POP POP POP JUMP JUMPDEST PUSH1 0x60 PUSH1 0x0 DUP1 PUSH1 0x0 DUP1 PUSH1 0x0 DUP7 DUP2 SLOAD DUP2 LT PUSH2 0x222 JUMPI PUSH2 0x221 PUSH2 0xA7F JUMP JUMPDEST JUMPDEST SWAP1 PUSH1 0x0 MSTORE PUSH1 0x20 PUSH1 0x0 KECCAK256 SWAP1 PUSH1 0x4 MUL ADD PUSH1 0x40 MLOAD DUP1 PUSH1 0x80 ADD PUSH1 0x40 MSTORE SWAP1 DUP2 PUSH1 0x0 DUP3 ADD DUP1 SLOAD PUSH2 0x24B SWAP1 PUSH2 0x98F JUMP JUMPDEST DUP1 PUSH1 0x1F ADD PUSH1 0x20 DUP1 SWAP2 DIV MUL PUSH1 0x20 ADD PUSH1 0x40 MLOAD SWAP1 DUP2 ADD PUSH1 0x40 MSTORE DUP1 SWAP3 SWAP2 SWAP1 DUP2 DUP2 MSTORE PUSH1 0x20 ADD DUP3 DUP1 SLOAD PUSH2 0x277 SWAP1 PUSH2 0x98F JUMP JUMPDEST DUP1 ISZERO PUSH2 0x2C4 JUMPI DUP1 PUSH1 0x1F LT PUSH2 0x299 JUMPI PUSH2 0x100 DUP1 DUP4 SLOAD DIV MUL DUP4 MSTORE SWAP2 PUSH1 0x20 ADD SWAP2 PUSH2 0x2C4 JUMP JUMPDEST DUP3 ADD SWAP2 SWAP1 PUSH1 0x0 MSTORE PUSH1 0x20 PUSH1 0x0 KECCAK256 SWAP1 JUMPDEST DUP2 SLOAD DUP2 MSTORE SWAP1 PUSH1 0x1 ADD SWAP1 PUSH1 0x20 ADD DUP1 DUP4 GT PUSH2 0x2A7 JUMPI DUP3 SWAP1 SUB PUSH1 0x1F AND DUP3 ADD SWAP2 JUMPDEST POP POP POP POP POP DUP2 MSTORE PUSH1 0x20 ADD PUSH1 0x1 DUP3 ADD SLOAD DUP2 MSTORE PUSH1 0x20 ADD PUSH1 0x2 DUP3 ADD SLOAD DUP2 MSTORE PUSH1 0x20 ADD PUSH1 0x3 DUP3 ADD SLOAD DUP2 MSTORE POP POP SWAP1 POP DUP5 DUP2 PUSH1 0x0 ADD DUP2 SWAP1 MSTORE POP DUP1 PUSH1 0x0 ADD MLOAD DUP2 PUSH1 0x20 ADD MLOAD DUP3 PUSH1 0x40 ADD MLOAD DUP4 PUSH1 0x60 ADD MLOAD SWAP5 POP SWAP5 POP SWAP5 POP SWAP5 POP POP SWAP2 SWAP4 POP SWAP2 SWAP4 JUMP JUMPDEST PUSH1 0x0 PUSH1 0x1 PUSH1 0x0 DUP1 SLOAD SWAP1 POP PUSH2 0x32E SWAP2 SWAP1 PUSH2 0x90F JUMP JUMPDEST DUP2 SLOAD DUP2 LT PUSH2 0x33F JUMPI PUSH2 0x33E PUSH2 0xA7F JUMP JUMPDEST JUMPDEST SWAP1 PUSH1 0x0 MSTORE PUSH1 0x20 PUSH1 0x0 KECCAK256 SWAP1 PUSH1 0x4 MUL ADD PUSH1 0x0 DUP3 DUP2 SLOAD DUP2 LT PUSH2 0x361 JUMPI PUSH2 0x360 PUSH2 0xA7F JUMP JUMPDEST JUMPDEST SWAP1 PUSH1 0x0 MSTORE PUSH1 0x20 PUSH1 0x0 KECCAK256 SWAP1 PUSH1 0x4 MUL ADD PUSH1 0x0 DUP3 ADD DUP2 PUSH1 0x0 ADD SWAP1 DUP1 SLOAD PUSH2 0x383 SWAP1 PUSH2 0x98F JUMP JUMPDEST PUSH2 0x38E SWAP3 SWAP2 SWAP1 PUSH2 0x54E JUMP JUMPDEST POP PUSH1 0x1 DUP3 ADD SLOAD DUP2 PUSH1 0x1 ADD SSTORE PUSH1 0x2 DUP3 ADD SLOAD DUP2 PUSH1 0x2 ADD SSTORE PUSH1 0x3 DUP3 ADD SLOAD DUP2 PUSH1 0x3 ADD SSTORE SWAP1 POP POP PUSH1 0x0 DUP1 SLOAD DUP1 PUSH2 0x3C2 JUMPI PUSH2 0x3C1 PUSH2 0xA50 JUMP JUMPDEST JUMPDEST PUSH1 0x1 SWAP1 SUB DUP2 DUP2 SWAP1 PUSH1 0x0 MSTORE PUSH1 0x20 PUSH1 0x0 KECCAK256 SWAP1 PUSH1 0x4 MUL ADD PUSH1 0x0 DUP1 DUP3 ADD PUSH1 0x0 PUSH2 0x3E7 SWAP2 SWAP1 PUSH2 0x5DB JUMP JUMPDEST PUSH1 0x1 DUP3 ADD PUSH1 0x0 SWAP1 SSTORE PUSH1 0x2 DUP3 ADD PUSH1 0x0 SWAP1 SSTORE PUSH1 0x3 DUP3 ADD PUSH1 0x0 SWAP1 SSTORE POP POP SWAP1 SSTORE POP JUMP JUMPDEST PUSH1 0x0 DUP1 DUP4 DUP2 SLOAD DUP2 LT PUSH2 0x41B JUMPI PUSH2 0x41A PUSH2 0xA7F JUMP JUMPDEST JUMPDEST SWAP1 PUSH1 0x0 MSTORE PUSH1 0x20 PUSH1 0x0 KECCAK256 SWAP1 PUSH1 0x4 MUL ADD SWAP1 POP DUP2 DUP2 PUSH1 0x3 ADD DUP2 SWAP1 SSTORE POP POP POP POP JUMP JUMPDEST PUSH1 0x0 PUSH1 0x40 MLOAD DUP1 PUSH1 0x80 ADD PUSH1 0x40 MSTORE DUP1 DUP7 DUP2 MSTORE PUSH1 0x20 ADD DUP6 DUP2 MSTORE PUSH1 0x20 ADD DUP5 DUP2 MSTORE PUSH1 0x20 ADD DUP4 DUP2 MSTORE POP SWAP1 DUP1 PUSH1 0x1 DUP2 SLOAD ADD DUP1 DUP3 SSTORE DUP1 SWAP2 POP POP PUSH1 0x1 SWAP1 SUB SWAP1 PUSH1 0x0 MSTORE PUSH1 0x20 PUSH1 0x0 KECCAK256 SWAP1 PUSH1 0x4 MUL ADD PUSH1 0x0 SWAP1 SWAP2 SWAP1 SWAP2 SWAP1 SWAP2 POP PUSH1 0x0 DUP3 ADD MLOAD DUP2 PUSH1 0x0 ADD SWAP1 DUP1 MLOAD SWAP1 PUSH1 0x20 ADD SWAP1 PUSH2 0x4A1 SWAP3 SWAP2 SWAP1 PUSH2 0x4C8 JUMP JUMPDEST POP PUSH1 0x20 DUP3 ADD MLOAD DUP2 PUSH1 0x1 ADD SSTORE PUSH1 0x40 DUP3 ADD MLOAD DUP2 PUSH1 0x2 ADD SSTORE PUSH1 0x60 DUP3 ADD MLOAD DUP2 PUSH1 0x3 ADD SSTORE POP POP POP POP POP POP JUMP JUMPDEST DUP3 DUP1 SLOAD PUSH2 0x4D4 SWAP1 PUSH2 0x98F JUMP JUMPDEST SWAP1 PUSH1 0x0 MSTORE PUSH1 0x20 PUSH1 0x0 KECCAK256 SWAP1 PUSH1 0x1F ADD PUSH1 0x20 SWAP1 DIV DUP2 ADD SWAP3 DUP3 PUSH2 0x4F6 JUMPI PUSH1 0x0 DUP6 SSTORE PUSH2 0x53D JUMP JUMPDEST DUP3 PUSH1 0x1F LT PUSH2 0x50F JUMPI DUP1 MLOAD PUSH1 0xFF NOT AND DUP4 DUP1 ADD OR DUP6 SSTORE PUSH2 0x53D JUMP JUMPDEST DUP3 DUP1 ADD PUSH1 0x1 ADD DUP6 SSTORE DUP3 ISZERO PUSH2 0x53D JUMPI SWAP2 DUP3 ADD JUMPDEST DUP3 DUP2 GT ISZERO PUSH2 0x53C JUMPI DUP3 MLOAD DUP3 SSTORE SWAP2 PUSH1 0x20 ADD SWAP2 SWAP1 PUSH1 0x1 ADD SWAP1 PUSH2 0x521 JUMP JUMPDEST JUMPDEST POP SWAP1 POP PUSH2 0x54A SWAP2 SWAP1 PUSH2 0x61B JUMP JUMPDEST POP SWAP1 JUMP JUMPDEST DUP3 DUP1 SLOAD PUSH2 0x55A SWAP1 PUSH2 0x98F JUMP JUMPDEST SWAP1 PUSH1 0x0 MSTORE PUSH1 0x20 PUSH1 0x0 KECCAK256 SWAP1 PUSH1 0x1F ADD PUSH1 0x20 SWAP1 DIV DUP2 ADD SWAP3 DUP3 PUSH2 0x57C JUMPI PUSH1 0x0 DUP6 SSTORE PUSH2 0x5CA JUMP JUMPDEST DUP3 PUSH1 0x1F LT PUSH2 0x58D JUMPI DUP1 SLOAD DUP6 SSTORE PUSH2 0x5CA JUMP JUMPDEST DUP3 DUP1 ADD PUSH1 0x1 ADD DUP6 SSTORE DUP3 ISZERO PUSH2 0x5CA JUMPI PUSH1 0x0 MSTORE PUSH1 0x20 PUSH1 0x0 KECCAK256 SWAP2 PUSH1 0x1F ADD PUSH1 0x20 SWAP1 DIV DUP3 ADD JUMPDEST DUP3 DUP2 GT ISZERO PUSH2 0x5C9 JUMPI DUP3 SLOAD DUP3 SSTORE SWAP2 PUSH1 0x1 ADD SWAP2 SWAP1 PUSH1 0x1 ADD SWAP1 PUSH2 0x5AE JUMP JUMPDEST JUMPDEST POP SWAP1 POP PUSH2 0x5D7 SWAP2 SWAP1 PUSH2 0x61B JUMP JUMPDEST POP SWAP1 JUMP JUMPDEST POP DUP1 SLOAD PUSH2 0x5E7 SWAP1 PUSH2 0x98F JUMP JUMPDEST PUSH1 0x0 DUP3 SSTORE DUP1 PUSH1 0x1F LT PUSH2 0x5F9 JUMPI POP PUSH2 0x618 JUMP JUMPDEST PUSH1 0x1F ADD PUSH1 0x20 SWAP1 DIV SWAP1 PUSH1 0x0 MSTORE PUSH1 0x20 PUSH1 0x0 KECCAK256 SWAP1 DUP2 ADD SWAP1 PUSH2 0x617 SWAP2 SWAP1 PUSH2 0x61B JUMP JUMPDEST JUMPDEST POP JUMP JUMPDEST JUMPDEST DUP1 DUP3 GT ISZERO PUSH2 0x634 JUMPI PUSH1 0x0 DUP2 PUSH1 0x0 SWAP1 SSTORE POP PUSH1 0x1 ADD PUSH2 0x61C JUMP JUMPDEST POP SWAP1 JUMP JUMPDEST PUSH1 0x0 PUSH2 0x64B PUSH2 0x646 DUP5 PUSH2 0x8C2 JUMP JUMPDEST PUSH2 0x89D JUMP JUMPDEST SWAP1 POP DUP3 DUP2 MSTORE PUSH1 0x20 DUP2 ADD DUP5 DUP5 DUP5 ADD GT ISZERO PUSH2 0x667 JUMPI PUSH2 0x666 PUSH2 0xAE2 JUMP JUMPDEST JUMPDEST PUSH2 0x672 DUP5 DUP3 DUP6 PUSH2 0x94D JUMP JUMPDEST POP SWAP4 SWAP3 POP POP POP JUMP JUMPDEST PUSH1 0x0 DUP3 PUSH1 0x1F DUP4 ADD SLT PUSH2 0x68F JUMPI PUSH2 0x68E PUSH2 0xADD JUMP JUMPDEST JUMPDEST DUP2 CALLDATALOAD PUSH2 0x69F DUP5 DUP3 PUSH1 0x20 DUP7 ADD PUSH2 0x638 JUMP JUMPDEST SWAP2 POP POP SWAP3 SWAP2 POP POP JUMP JUMPDEST PUSH1 0x0 DUP2 CALLDATALOAD SWAP1 POP PUSH2 0x6B7 DUP2 PUSH2 0xB02 JUMP JUMPDEST SWAP3 SWAP2 POP POP JUMP JUMPDEST PUSH1 0x0 DUP1 PUSH1 0x0 DUP1 PUSH1 0x80 DUP6 DUP8 SUB SLT ISZERO PUSH2 0x6D7 JUMPI PUSH2 0x6D6 PUSH2 0xAEC JUMP JUMPDEST JUMPDEST PUSH1 0x0 DUP6 ADD CALLDATALOAD PUSH8 0xFFFFFFFFFFFFFFFF DUP2 GT ISZERO PUSH2 0x6F5 JUMPI PUSH2 0x6F4 PUSH2 0xAE7 JUMP JUMPDEST JUMPDEST PUSH2 0x701 DUP8 DUP3 DUP9 ADD PUSH2 0x67A JUMP JUMPDEST SWAP5 POP POP PUSH1 0x20 PUSH2 0x712 DUP8 DUP3 DUP9 ADD PUSH2 0x6A8 JUMP JUMPDEST SWAP4 POP POP PUSH1 0x40 PUSH2 0x723 DUP8 DUP3 DUP9 ADD PUSH2 0x6A8 JUMP JUMPDEST SWAP3 POP POP PUSH1 0x60 PUSH2 0x734 DUP8 DUP3 DUP9 ADD PUSH2 0x6A8 JUMP JUMPDEST SWAP2 POP POP SWAP3 SWAP6 SWAP2 SWAP5 POP SWAP3 POP JUMP JUMPDEST PUSH1 0x0 PUSH1 0x20 DUP3 DUP5 SUB SLT ISZERO PUSH2 0x756 JUMPI PUSH2 0x755 PUSH2 0xAEC JUMP JUMPDEST JUMPDEST PUSH1 0x0 PUSH2 0x764 DUP5 DUP3 DUP6 ADD PUSH2 0x6A8 JUMP JUMPDEST SWAP2 POP POP SWAP3 SWAP2 POP POP JUMP JUMPDEST PUSH1 0x0 DUP1 PUSH1 0x40 DUP4 DUP6 SUB SLT ISZERO PUSH2 0x784 JUMPI PUSH2 0x783 PUSH2 0xAEC JUMP JUMPDEST JUMPDEST PUSH1 0x0 PUSH2 0x792 DUP6 DUP3 DUP7 ADD PUSH2 0x6A8 JUMP JUMPDEST SWAP3 POP POP PUSH1 0x20 DUP4 ADD CALLDATALOAD PUSH8 0xFFFFFFFFFFFFFFFF DUP2 GT ISZERO PUSH2 0x7B3 JUMPI PUSH2 0x7B2 PUSH2 0xAE7 JUMP JUMPDEST JUMPDEST PUSH2 0x7BF DUP6 DUP3 DUP7 ADD PUSH2 0x67A JUMP JUMPDEST SWAP2 POP POP SWAP3 POP SWAP3 SWAP1 POP JUMP JUMPDEST PUSH1 0x0 DUP1 PUSH1 0x40 DUP4 DUP6 SUB SLT ISZERO PUSH2 0x7E0 JUMPI PUSH2 0x7DF PUSH2 0xAEC JUMP JUMPDEST JUMPDEST PUSH1 0x0 PUSH2 0x7EE DUP6 DUP3 DUP7 ADD PUSH2 0x6A8 JUMP JUMPDEST SWAP3 POP POP PUSH1 0x20 PUSH2 0x7FF DUP6 DUP3 DUP7 ADD PUSH2 0x6A8 JUMP JUMPDEST SWAP2 POP POP SWAP3 POP SWAP3 SWAP1 POP JUMP JUMPDEST PUSH1 0x0 PUSH2 0x814 DUP3 PUSH2 0x8F3 JUMP JUMPDEST PUSH2 0x81E DUP2 DUP6 PUSH2 0x8FE JUMP JUMPDEST SWAP4 POP PUSH2 0x82E DUP2 DUP6 PUSH1 0x20 DUP7 ADD PUSH2 0x95C JUMP JUMPDEST PUSH2 0x837 DUP2 PUSH2 0xAF1 JUMP JUMPDEST DUP5 ADD SWAP2 POP POP SWAP3 SWAP2 POP POP JUMP JUMPDEST PUSH2 0x84B DUP2 PUSH2 0x943 JUMP JUMPDEST DUP3 MSTORE POP POP JUMP JUMPDEST PUSH1 0x0 PUSH1 0x80 DUP3 ADD SWAP1 POP DUP2 DUP2 SUB PUSH1 0x0 DUP4 ADD MSTORE PUSH2 0x86B DUP2 DUP8 PUSH2 0x809 JUMP JUMPDEST SWAP1 POP PUSH2 0x87A PUSH1 0x20 DUP4 ADD DUP7 PUSH2 0x842 JUMP JUMPDEST PUSH2 0x887 PUSH1 0x40 DUP4 ADD DUP6 PUSH2 0x842 JUMP JUMPDEST PUSH2 0x894 PUSH1 0x60 DUP4 ADD DUP5 PUSH2 0x842 JUMP JUMPDEST SWAP6 SWAP5 POP POP POP POP POP JUMP JUMPDEST PUSH1 0x0 PUSH2 0x8A7 PUSH2 0x8B8 JUMP JUMPDEST SWAP1 POP PUSH2 0x8B3 DUP3 DUP3 PUSH2 0x9C1 JUMP JUMPDEST SWAP2 SWAP1 POP JUMP JUMPDEST PUSH1 0x0 PUSH1 0x40 MLOAD SWAP1 POP SWAP1 JUMP JUMPDEST PUSH1 0x0 PUSH8 0xFFFFFFFFFFFFFFFF DUP3 GT ISZERO PUSH2 0x8DD JUMPI PUSH2 0x8DC PUSH2 0xAAE JUMP JUMPDEST JUMPDEST PUSH2 0x8E6 DUP3 PUSH2 0xAF1 JUMP JUMPDEST SWAP1 POP PUSH1 0x20 DUP2 ADD SWAP1 POP SWAP2 SWAP1 POP JUMP JUMPDEST PUSH1 0x0 DUP2 MLOAD SWAP1 POP SWAP2 SWAP1 POP JUMP JUMPDEST PUSH1 0x0 DUP3 DUP3 MSTORE PUSH1 0x20 DUP3 ADD SWAP1 POP SWAP3 SWAP2 POP POP JUMP JUMPDEST PUSH1 0x0 PUSH2 0x91A DUP3 PUSH2 0x943 JUMP JUMPDEST SWAP2 POP PUSH2 0x925 DUP4 PUSH2 0x943 JUMP JUMPDEST SWAP3 POP DUP3 DUP3 LT ISZERO PUSH2 0x938 JUMPI PUSH2 0x937 PUSH2 0x9F2 JUMP JUMPDEST JUMPDEST DUP3 DUP3 SUB SWAP1 POP SWAP3 SWAP2 POP POP JUMP JUMPDEST PUSH1 0x0 DUP2 SWAP1 POP SWAP2 SWAP1 POP JUMP JUMPDEST DUP3 DUP2 DUP4 CALLDATACOPY PUSH1 0x0 DUP4 DUP4 ADD MSTORE POP POP POP JUMP JUMPDEST PUSH1 0x0 JUMPDEST DUP4 DUP2 LT ISZERO PUSH2 0x97A JUMPI DUP1 DUP3 ADD MLOAD DUP2 DUP5 ADD MSTORE PUSH1 0x20 DUP2 ADD SWAP1 POP PUSH2 0x95F JUMP JUMPDEST DUP4 DUP2 GT ISZERO PUSH2 0x989 JUMPI PUSH1 0x0 DUP5 DUP5 ADD MSTORE JUMPDEST POP POP POP POP JUMP JUMPDEST PUSH1 0x0 PUSH1 0x2 DUP3 DIV SWAP1 POP PUSH1 0x1 DUP3 AND DUP1 PUSH2 0x9A7 JUMPI PUSH1 0x7F DUP3 AND SWAP2 POP JUMPDEST PUSH1 0x20 DUP3 LT DUP2 EQ ISZERO PUSH2 0x9BB JUMPI PUSH2 0x9BA PUSH2 0xA21 JUMP JUMPDEST JUMPDEST POP SWAP2 SWAP1 POP JUMP JUMPDEST PUSH2 0x9CA DUP3 PUSH2 0xAF1 JUMP JUMPDEST DUP2 ADD DUP2 DUP2 LT PUSH8 0xFFFFFFFFFFFFFFFF DUP3 GT OR ISZERO PUSH2 0x9E9 JUMPI PUSH2 0x9E8 PUSH2 0xAAE JUMP JUMPDEST JUMPDEST DUP1 PUSH1 0x40 MSTORE POP POP POP JUMP JUMPDEST PUSH32 0x4E487B7100000000000000000000000000000000000000000000000000000000 PUSH1 0x0 MSTORE PUSH1 0x11 PUSH1 0x4 MSTORE PUSH1 0x24 PUSH1 0x0 REVERT JUMPDEST PUSH32 0x4E487B7100000000000000000000000000000000000000000000000000000000 PUSH1 0x0 MSTORE PUSH1 0x22 PUSH1 0x4 MSTORE PUSH1 0x24 PUSH1 0x0 REVERT JUMPDEST PUSH32 0x4E487B7100000000000000000000000000000000000000000000000000000000 PUSH1 0x0 MSTORE PUSH1 0x31 PUSH1 0x4 MSTORE PUSH1 0x24 PUSH1 0x0 REVERT JUMPDEST PUSH32 0x4E487B7100000000000000000000000000000000000000000000000000000000 PUSH1 0x0 MSTORE PUSH1 0x32 PUSH1 0x4 MSTORE PUSH1 0x24 PUSH1 0x0 REVERT JUMPDEST PUSH32 0x4E487B7100000000000000000000000000000000000000000000000000000000 PUSH1 0x0 MSTORE PUSH1 0x41 PUSH1 0x4 MSTORE PUSH1 0x24 PUSH1 0x0 REVERT JUMPDEST PUSH1 0x0 DUP1 REVERT JUMPDEST PUSH1 0x0 DUP1 REVERT JUMPDEST PUSH1 0x0 DUP1 REVERT JUMPDEST PUSH1 0x0 DUP1 REVERT JUMPDEST PUSH1 0x0 PUSH1 0x1F NOT PUSH1 0x1F DUP4 ADD AND SWAP1 POP SWAP2 SWAP1 POP JUMP JUMPDEST PUSH2 0xB0B DUP2 PUSH2 0x943 JUMP JUMPDEST DUP2 EQ PUSH2 0xB16 JUMPI PUSH1 0x0 DUP1 REVERT JUMPDEST POP JUMP INVALID LOG2 PUSH5 0x6970667358 0x22 SLT KECCAK256 DUP14 DUP7 0x2A SWAP6 PUSH23 0x35996B386877E59AE981215A6EB27360B91EB0FEBAF8F1 0xBF 0xEA EXTCODECOPY BASEFEE PUSH5 0x736F6C6343 STOP ADDMOD SMOD STOP CALLER "
				},
				"gasEstimates": {
					"creation": {
						"codeDepositCost": "579000",
						"executionCost": "613",
						"totalCost": "579613"
					},
					"external": {
						"addtolist(string,uint256,uint256,uint256)": "infinite",
						"editDay(uint256,uint256)": "infinite",
						"editMonth(uint256,uint256)": "infinite",
						"editYear(uint256,uint256)": "infinite",
						"editaction(uint256,string)": "infinite",
						"getfromlist(uint256)": "infinite",
						"remfromtodo(uint256)": "infinite"
					}
				},
				"methodIdentifiers": {
					"addtolist(string,uint256,uint256,uint256)": "e1b7edff",
					"editDay(uint256,uint256)": "2dc6a8d7",
					"editMonth(uint256,uint256)": "27503a82",
					"editYear(uint256,uint256)": "973e2bbc",
					"editaction(uint256,string)": "12cbb972",
					"getfromlist(uint256)": "7aadbdd3",
					"remfromtodo(uint256)": "9351b078"
				}
			},
			"storageLayout": {
				"storage": [
					{
						"astId": 14,
						"contract": "Todo.sol:TodoList",
						"label": "todoarr",
						"offset": 0,
						"slot": "0",
						"type": "t_array(t_struct(Todo)10_storage)dyn_storage"
					}
				],
				"types": {
					"t_array(t_struct(Todo)10_storage)dyn_storage": {
						"base": "t_struct(Todo)10_storage",
						"encoding": "dynamic_array",
						"label": "struct TodoList.Todo[]",
						"numberOfBytes": "32"
					},
					"t_string_storage": {
						"encoding": "bytes",
						"label": "string",
						"numberOfBytes": "32"
					},
					"t_struct(Todo)10_storage": {
						"encoding": "inplace",
						"label": "struct TodoList.Todo",
						"members": [
							{
								"astId": 3,
								"contract": "Todo.sol:TodoList",
								"label": "action",
								"offset": 0,
								"slot": "0",
								"type": "t_string_storage"
							},
							{
								"astId": 5,
								"contract": "Todo.sol:TodoList",
								"label": "day",
								"offset": 0,
								"slot": "1",
								"type": "t_uint256"
							},
							{
								"astId": 7,
								"contract": "Todo.sol:TodoList",
								"label": "month",
								"offset": 0,
								"slot": "2",
								"type": "t_uint256"
							},
							{
								"astId": 9,
								"contract": "Todo.sol:TodoList",
								"label": "year",
								"offset": 0,
								"slot": "3",
								"type": "t_uint256"
							}
						],
						"numberOfBytes": "128"
					},
					"t_uint256": {
						"encoding": "inplace",
						"label": "uint256",
						"numberOfBytes": "32"
					}
				}
			},
			"userdoc": {
				"kind": "user",
				"methods": {},
				"version": 1
			}
		}
	}
}